:020000040000FA
:10000000600B0010A1010000A5010000A701000085
:10001000A9010000AB010000AD01000000000000DC
:10002000000000000000000000000000AF01000020
:10003000B101000000000000B3010000B5010000A4
:10004000B7010000B7010000B7010000B7010000D0
:10005000B7010000B7010000B7010000B7010000C0
:10006000B7010000B7010000B7010000B7010000B0
:10007000B7010000B7010000B7010000B7010000A0
:10008000B7010000B7010000B7010000B701000090
:10009000B7010000B7010000B7010000B701000080
:1000A000B7010000B701000019050000B70100000A
:1000B000B7010000B7010000B7010000B701000060
:1000C000B701000000F002F800F05CF80AA090E828
:1000D000000C82448344AAF10107DA4501D100F003
:1000E00051F8AFF2090EBAE80F0013F0010F18BF74
:1000F000FB1A43F001031847600C0000800C00005D
:100100000A444FF0000C10F8013B13F0070408BF3D
:1001100010F8014B1D1108BF10F8015B641E05D0DB
:1001200010F8016B641E01F8016BF9D113F0080F90
:100130001EBF10F8014BAD1C0C1B09D16D1E58BF22
:1001400001F801CBFAD505E014F8016B01F8016B59
:100150006D1EF9D59142D6D37047000000230024CC
:1001600000250026103A28BF78C1FBD8520728BFC7
:1001700030C148BF0B6070471FB5AFF300801FBD93
:1001800010B510BD00F029F81146FFF7F5FF00F09B
:100190007DFA00F047F8FFF7F3FF00F04DF800009C
:1001A00008480047FEE7FEE7FEE7FEE7FEE7FEE75A
:1001B000FEE7FEE7FEE7FEE703480449024A044B78
:1001C00070470000C500000060030010600B0010C5
:1001D00060030010704770477047754600F028F8BC
:1001E000AE4605006946534620F00700854618B024
:1001F00020B5FFF7E1FFBDE820404FF000064FF0CB
:1002000000074FF000084FF0000B21F00701AC464B
:10021000ACE8C009ACE8C009ACE8C009ACE8C0096A
:100220008D4670470446AFF300802046FFF7B3FFCA
:1002300000487047FC02001003494FF01800ABBEA5
:10024000704700000900000026000200704700000F
:10025000014800F037BD00000000C07F014800F0F9
:1002600031BD00000000C07FC2154FEA002318BF57
:1002700043F0004305D4D2F19E020AD323FA02F0E0
:1002800070474FEA4001B1F1FE4F02D24FF000003B
:100290007047DFF828C04FEA4001B1F17F4F88BFB7
:1002A0004CF4803C3FF6DAAF1CBF6FEAE070704759
:1002B000AFF300806FEAE07070470000680002044E
:1002C00010F0004218BF404242F08042B0FA80F184
:1002D0008840A2EBC15202F1786208BF7047410624
:1002E00042EB202018BF5FF0806C28BF20F0010097
:1002F00070474FF08042FFF7E9BF0000FFFFFFFFAC
:1003000020207F49086000BF7D48006810F0400F42
:10031000FAD003207A499C39086001207949C1F854
:100320000C010F207749843108600120091F086003
:10033000AA2074498C31086055207249C1F88C009C
:1003400000BF70488830006810F0806FF9D003203B
:100350006C4980310860AA206A49C1F88C00552098
:1003600068498C31086023206649A4310860012067
:10037000091F0860AA206349AC3108605520086055
:1003800000BF6048A830006810F4806FF9D00320E7
:100390005C49A0310860AA205A49C1F8AC00552038
:1003A0005849AC3108600020554908310860091DE2
:1003B000086055485349C431086000205149C1F8CC
:1003C000C8010846D0F88800C0F30160032860D156
:1003D0004B489438006810F0030006D0012820D064
:1003E000022839D0032853D100E000BF45488830A7
:1003F0000068C0F30E00401C41004248D0F888005D
:10040000C0F30740401CB1FBF0F1404841433C4879
:100410009C380068C0B2401CB1FBF0F03C49086059
:1004200036E0384888300068C0F30E00401C4100B8
:100430003448D0F88800C0F30740401CB1FBF0F10D
:10044000344841432E489C380068C0B2401CB1FB80
:10045000F0F02F4908601BE02A4888300068C0F39C
:100460000E00401C41002748D0F88800C0F3074028
:10047000401CB1FBF0F14FF4FA40414320489C3856
:100480000068C0B2401CB1FBF0F02149086000BF19
:1004900030E01B489438006810F0030006D00128B3
:1004A00010D0022819D0032823D100E000BF14483F
:1004B0009C380068C0B2401C1449B1FBF0F01449EC
:1004C000086016E00E489C380068C0B2401C114914
:1004D000B1FBF0F00E4908600BE009489C38006859
:1004E000C0B2401C4FF4FA41B1FBF0F0084908607B
:1004F00000BF00BF43F23A000249086070470000A5
:10050000A0C10F4000C00F40DE87280400093D0055
:1005100000000010001BB700E649486848B1E649F2
:100520000968491CE44A1160E24989680143E14ACB
:100530009160E049C86848B1E0490968491CDF4A50
:100540001160DC4909690143DA4A116170470146CB
:10055000DB48006840F00050D94AC43AC2F8C400F1
:100560000120D44A9060106159B9D648D64A10602B
:10057000D648D04AC2F80401D548D34A0C3210609C
:1005800001E0002070470120CA4A106300BFC9483B
:10059000006B10F0010FFAD000BF1A22012090402A
:1005A00052094FF0E02303EB8202C2F8000100BFC2
:1005B0000120E7E7C248006840F48060C049C439C0
:1005C000C1F8C400C348006840F04000C149086059
:1005D0000846406940F040004861BF48006820F488
:1005E0000050BD4908600846006820F4404008609B
:1005F0000846006840F4004008600846406820F45F
:10060000702048600846406840F420204860AC48AC
:10061000C438D0F8A80120F44030A949C439C1F841
:10062000A8010846D0F8A80140F48030A449E4317C
:100630000860CF20A949086006204860482008616A
:1006400070479F48006840F400109D49C439C1F8C4
:10065000C400A048006840F480309E490860084605
:10066000406940F4803048619B48406820F00200B7
:1006700099494860480408602A2048600F2098493A
:1006800008600620486002200861704710B5FFF737
:1006900037FE0020904908614FF47E708D49086450
:1006A0008865904909688808FFF723FE8E4908602D
:1006B00000204FF040218860C860032048618B49CA
:1006C0008948006800F020F90446FFF7CDFD4FF09F
:1006D00040218861FF2008600020486084498860CC
:1006E000C86003204861C9037F48006800F0FEF934
:1006F0000446FFF7B9FD7E498861FF2008600020AD
:1007000048600120486002E001207949086078488B
:10071000006800F001000128F6D042E0FFF791FFE9
:10072000FFF748FF002073490880488000BF6C48ED
:10073000C06800F004000128F9D0694880686E495B
:10074000088000206D4908606D49086023E000BF03
:100750006348C06810F0080FFAD0002069490860AB
:1007600010E05F4880686349644A126821F812000B
:1007700062480068401C6149086062480068401C8B
:10078000604908605F4800680828EAD35C48006850
:10079000401C5B4908605A4800680A28D7D300BF4C
:1007A000FEE7BBE730B5002301E05C1CA3B20A2BD7
:1007B000FBDB00BF4A4CE46804F00204012CF9D0D2
:1007C0000224474DAC6000BF454CE46814F0100FA4
:1007D000FAD1434CA468A3B200BF414CE46804F0D2
:1007E0000204012CF9D0C0F307443D4DAC6000BFBA
:1007F0003B4CE46814F0100FFAD1394CA468A3B252
:1008000000BF374CE46804F00204012CF9D0C0F3B7
:100810000724334DAC6000BF314CE46814F0100F76
:10082000FAD12F4CA468A3B200BF2D4CE46804F0A9
:100830000204012CF9D0C4B2294DAC6000BF284C91
:10084000E46814F0100FFAD1254CA468A3B20DE0AF
:10085000234D0C68AC6000BF214CE46814F0100F0D
:10086000FAD11F4CA468A3B2091D521E002AEFD171
:1008700030BD10B50122002101E04B1C99B20A29BC
:10088000FBDB14E0002101E04B1C99B20A29FBDBE1
:100890000023134CA36000BF114BDB6803F0080377
:1008A000012BF9D00E4B9B680380801C521E002A3E
:1008B000E8D110BD004000500400001008000010F6
:1008C000C4C00F4000C007200041005000000820B5
:1008D00000444A8C00C0092000C0024000000340D0
:1008E0000080084000000010300200100000484660
:1008F00000800040340200102C0200102002001082
:100900001C020010240200104FF47F0C1CEAD012CD
:100910001EBF1CEAD11392EA0C0F93EA0C0F00F0F1
:10092000A58090EA010F48BF42F4807240F4000CA9
:1009300041F400002CF07F4120F07F4000B581425F
:10094000A2EB03020FF2401CACEB504EC0F10000D2
:100950009EF800E04FEA4E0E00FB0EFC38BF490047
:100960004FEA2C1C02F5FA020CFB0EF34FEACE1EE6
:100970004FEA112C4FEAC1210EEB635E0EFB0CFC1B
:100980004FEA1C5300FB03114FEA112C4FEA0131CF
:100990000EFB0CFC02F4807E42EB22424FEADC4C60
:1009A00000FB0C11C14228BF09184CEB033301298D
:1009B00024BF4EF0020E4EF0804E10EB410F24BFCC
:1009C0004EF0010E4EF0804E08BF4EF0040E4EF079
:1009D00008015DF804EB43EBC25018BFB2F57C0F81
:1009E00038BF704741EAC07108BF20F00100B2F57E
:1009F0007C0F38BF704729D512F0F00F1CBF00F1F3
:100A0000C04000F000407047008182838485868763
:100A100088898B8C8D8E8F919293959697999A9CBD
:100A20009D9FA0A2A3A5A7A8AAACAEB0B2B3B5B72C
:100A3000B9BCBEC0C2C5C7C9CCCED1D4D7D9DCDF02
:100A4000E2E6E9ECF0F3F7FAFE0000004FEA400CB2
:100A50000CF1807CBCF17E4F28BF7047B0F1C040E4
:100A60004FF07F404CBF40104008704790EA010FA4
:100A70000CEAD11348BF42F48072624538BF634527
:100A800007D213F47F0F23D080EA010000F000406A
:100A900070474FF0807C1CEB400F98BF1CEB410F60
:100AA000DFF840C03FF6D4ABAFF300804FF0807C5E
:100AB0001CEB400F02BF1CEB410F0B4870471CEBB7
:100AC000410F0CBF002020F0004040EAC2507047A8
:100AD00012F47F0F04BF0448704742F0FF004FEA52
:100AE000C0507047040000040000C07F4FF47F0C2A
:100AF0001CEAD0121EBF1CEAD11392EA0C0F93EA33
:100B00000C0F00F04A8090EA010F48BF42F4807257
:100B10004FF0004C4CEA00204CEA01211A44A0FBA3
:100B200001C3A2F50002BCF1000F18BF43F001039E
:100B300002F4807CB3F1004F38BF5B0042EB2242ED
:100B4000180A40EBC25028BF13F07F0F18BFB2F550
:100B50007C0F38BF704708BF20F00100B2F57C0F52
:100B600038BF70470BD582F0FF0212F5803FC8BF37
:100B7000704700F1C040D8BF00F00040704700F55A
:100B8000000C5FEA4C0C48BF7047B0F1C0404FF01A
:100B90007F404CBF40104008704790EA010F0CEABC
:100BA000D11348BF42F48072624538BF634504D216
:100BB00080EA010000F0004070474FF0807C1CEBA1
:100BC000400F98BF1CEB410F4FF0030C4CF0806CB2
:100BD0003FF63EABAFF3008012F47F0F1FBF13F45C
:100BE0007F0F42F0FF02D0057047014870470000B8
:100BF0000000C07F10B412F47F0F4FEA00204FEACC
:100C0000012110D1B0FA80F400FA04F0A2EB044202
:100C100013F47F0F02F5803218BF41F0004100D07D
:100C200010BC18BF604740F00040B1FA81F401FAEF
:100C300004F1A3EB044310BC03F58033604700F0DC
:100C4000004343EAD05323F48073C3F1C10323F07C
:100C5000004117291FD8C3F1200310FA03F1C3F193
:100C6000200320F07F4040F4000020FA03F003F05E
:100C7000004340EA03000DD00B46590009D318BFCA
:100C8000401C06D17FEAE27398BF401C38BF20F0B9
:100C9000010070477047182903EB912318BF6FF0CC
:100CA0000041013168BF03F0004009D6400203F063
:100CB000004000F1010004BF12F0004F20F00100DD
:100CC000704770470CF00F03092B08BF082000F095
:100CD0002B800A2B0BD0082B18BF704708BF1CF0C5
:100CE000400F0AD04FF000004FF0000170471CF099
:100CF000400F18BF4FF0004070471CF0100F08D095
:100D000020F0704300F07F4242EAD3014FEA437083
:100D1000704700F0604021F07F4242EA000201F09B
:100D20007F4040EA727070471CF4801F11D01CF4A1
:100D3000E02F03D06FEACC31490070474FF04050AC
:100D4000EFF3008222F0704242EA000282F3008850
:100D500070474FF000007047780D00000000001051
:100D60003402000000010000A40E00003402001054
:100D70002C0900005C01000011A3093D2808C18175
:100D80004001C0804104690C2908E918A91C091A0E
:100D900030091638093660092E70092F6000FF00EF
:100DA000C0C101C30302C2C60607C705C5C404CC3F
:100DB0000C0DCD0FCFCE0E0ACACB0BC90908C8D86F
:100DC0001819D91BDBDA1A1EDEDF1FDD1D1CDC142F
:100DD000D4D515D71716D6D21213D311D1D010F0FF
:100DE0003031F133F3F23236F6F737F53534F43C7F
:100DF000FCFD3DFF3F3EFEFA3A3BFB39F9F838284F
:100E0000E8E929EB2B2AEAEE2E2FEF2DEDEC2CE46E
:100E10002425E527E7E62622E2E323E12120E0A0DE
:100E20006061A163A3A26266A6A767A56564A46CBE
:100E3000ACAD6DAF6F6EAEAA6A6BAB69A9A86878EE
:100E4000B8B979BB7B7ABABE7E7FBF7DBDBC7CB4AE
:100E50007475B577B7B67672B2B373B17170B050BE
:100E60009091519353529296565797559594549CFE
:100E70005C5D9D5F9F9E5E5A9A9B5B9959589888CE
:100E80004849894B8B8A4A4E8E8F4F8D4D4C8C44EE
:100E90008485458747468682424383418180022874
:040EA000400000000E
:04000005000000C532
:00000001FF
