:020000040000FA
:1000000078710010A1010000A5010000A701000007
:10001000A9010000AB010000AD01000000000000DC
:10002000000000000000000000000000AF01000020
:10003000B101000000000000B3010000B5010000A4
:10004000B7010000B7010000A56C0000DB6A0000EA
:1000500087680000F305010061060100B701000098
:10006000B7010000B7010000B7010000B7010000B0
:10007000B7010000B7010000D3400000B701000045
:10008000B7010000EB460000B7010000B701000017
:10009000B7010000B7010000B7010000B701000080
:1000A000B7010000B7010000B7010000B701000070
:1000B000B7010000B7010000B7010000B701000060
:1000C000B701000000F002F800F05AF80AA090E82A
:1000D000000C82448344AAF10107DA4501D100F003
:1000E0004FF8AFF2090EBAE80F0013F0010F18BF76
:1000F000FB1A43F0010318470026010020260100E7
:100100000A444FF0000C10F8013B13F0070408BF3D
:1001100010F8014B1D1108BF10F8015B641E05D0DB
:1001200010F8016B641E01F8016BF9D113F0080F90
:100130001EBF10F8014BAD1C0C1B09D16D1E58BF22
:1001400001F801CBFAD505E014F8016B01F8016B59
:100150006D1EF9D59142D6D37047000000230024CC
:1001600000250026103A28BF78C1FBD8520728BFC7
:1001700030C148BF0B6070471FB51FBD10B510BD23
:1001800000F070F81146FFF7F7FF07F0C8FC00F029
:100190008EF803B4FFF7F2FF03BC00F08FF8000005
:1001A00008480047FEE7FEE7FEE7FEE7FEE7FEE75A
:1001B000FEE7FEE7FEE7FEE703480449024A044B78
:1001C00070470000C50000007869001078710010C9
:1001D0007869001010B5203AC0F00B80B1E81850D3
:1001E000203AA0E81850B1E81850A0E81850BFF421
:1001F000F5AF5FEA027C24BFB1E81850A0E81850C0
:1002000044BF18C918C0BDE810405FEA827C24BF13
:1002100051F8043B40F8043B08BF7047D20728BFA1
:1002200031F8023B48BF11F8012B28BF20F8023BF0
:1002300048BF00F8012B704770477047704710B5F2
:1002400000F008F8006810BD10B5044600F002F890
:10025000046010BD004870471869001000487047DE
:10026000186900107546FFF7F9FFAE4605006946AC
:10027000534620F00700854618B020B5FFF79CFFD5
:10028000BDE820404FF000064FF000074FF0000897
:100290004FF0000B21F00701AC46ACE8C009ACE818
:1002A000C009ACE8C009ACE8C0098D4670470446F7
:1002B000AFF300802046FFF76CFF000001491820D3
:1002C000ABBEFEE7260002007047490050EAC1209D
:1002D00018BF04204A0D18BF40F0010040F2FF7221
:1002E000B2EB515F08BF40F00200012808BF0520B3
:1002F0007047FF2141EAD050C0057047FFFFFFFF64
:1003000020208549086000BF8348006810F0400F36
:10031000FAD00320814908604FF001008049C1F8FC
:100320000C014FF00F007F4908604FF00100A1F170
:10033000040108604FF0AA007B4908604FF05500A7
:100340007749C1F88C0000BF7848006810F0806FD2
:10035000FAD00320764908604FF0AA007049C1F82E
:100360008C004FF05500704908604FF02300714930
:1003700008604FF00100A1F1040108604FF0AA00ED
:100380006D4908604FF05500086000BF6B48006879
:1003900010F4806FFAD00320694908604FF0AA007A
:1003A0005F49C1F8AC004FF05500634908604FF059
:1003B00000006449086001F1040108606248634973
:1003C00008604FF000005649C1F8C8010846D0F84F
:1003D0008800C0F30160032868D15D48006810F010
:1003E000030006D0012823D002283FD003285CD187
:1003F00000E000BF4D480068C0F30E0000F10100AE
:100400004FEA40014648D0F88800C0F3074000F1A9
:100410000100B1FBF0F04F4900FB01F03F490968D2
:10042000C9B201F10101B0FBF1F04B4908603CE0B9
:100430003E480068C0F30E0000F101004FEA4001A1
:100440003748D0F88800C0F3074000F10100B1FB45
:10045000F0F0424900FB01F030490968C9B201F1EE
:100460000101B0FBF1F03C4908601EE02F48006834
:10047000C0F30E0000F101004FEA40012848D0F817
:100480008800C0F3074000F10100B1FBF0F04FF429
:10049000FA4100FB01F021490968C9B201F10101EB
:1004A000B0FBF1F02C49086000BF2FE0284800683D
:1004B00010F0030006D0012810D0022819D003281C
:1004C00023D100E000BF15480068C0B200F1010070
:1004D0002049B1FBF0F02049086016E00F480068A1
:1004E000C0B200F101001D49B1FBF0F01A490860EB
:1004F0000BE00A480068C0B200F101004FF4FA4175
:10050000B1FBF0F01449086000BF00BF43F23A00AD
:100510000349086070470000A0C10F4004C10F40AC
:1005200000C00F4084C00F408CC00F4088C00F40F7
:1005300080C00F40A4C00F40ACC00F40A8C00F4007
:10054000A0C00F40A8C10F40DE87E804C4C00F4020
:100550000CC10F4000093D0000000010001BB70057
:1005600030B502460B464FF6FF7011E032F8024BF1
:10057000604000210AE010F0010F04D04AF20104AB
:1005800084EA600000E040104C1CA1B21029F2DBAC
:100590001C00A3F10105ABB2E8D130BD10B5FE4897
:1005A000006840F40010FD49C1F8C4000846D0F8C6
:1005B000AC0120F44060C1F8AC010846D0F8AC01B1
:1005C00040F48060F64908604FF00F00F54908607C
:1005D0004FF0060048604FF0000048614FF00E00F9
:1005E00010F069F80420EF49486110BD00B595B0DE
:1005F0000020ED4908800EE0EC48EB49098830F80E
:100600001100EB49E84A128821F81200E6480088F8
:10061000401CE5490880E4480088B0F5967FEBDB94
:100620004FF49670E049088083E0DF480088B0F519
:10063000967F04DBDC480088B0F5AF7F14DBDA4836
:100640000088B0F5C87F04DBD7480088B0F5E17FAB
:100650000ADBD5480088B0F5FA7F4DDBD248008828
:1006600040F22621884247DAD048CF49098830F83D
:100670001100139011F036FDCE490860CE4890F875
:100680007703CD4991F8761340EA0121084613918A
:1006900011F010FDC9490860C7484079C649097979
:1006A00040EA01210846129111F004FD0146139021
:1006B000C248006811F0E8FBC049086008460168BC
:1006C000BC48006811F056FD139011F0D3FC81B2C4
:1006D000B5480088A0F59670B94A22F81010B548C0
:1006E000006811F0C7FC81B2AF480088A0F5967091
:1006F000B44A22F8101017E0AC48AB49098830F82A
:100700001110A9480088A0F59670AD4A22F8101083
:10071000A648A549098830F81110A3480088A0F51B
:100720009670A84A22F810109F480088401C9E49E5
:1007300008809D480088B0F5167FFFF676AF4FF42D
:1007400016709949088010E098489749098830F850
:10075000111095480088A0F516709B4A22F81010D9
:1007600091480088401C904908808F480088B0F567
:100770002F7FE9DB4FF42F708B49088010E08B4806
:100780008949098830F8111087480088A0F52F7032
:100790008E4A22F8101084480088401C8249088044
:1007A00081480088B0F57A7FE9DB0020884908702D
:1007B0007D490880FDE37C480088012803DB7A48F6
:1007C000008832280FDB78480088652803DB7648EC
:1007D0000088962807DB74480088C9283CDB7248EB
:1007E0000088FA2838DA72486F49098830F8110011
:1007F00073496D4A128831F81210884220DB6C4828
:100800006949098830F811006D49674A128831F842
:100810001210401A6F49644A128821F81200644885
:100820006149098830F8110066495F4A128831F839
:100830001210401A68495C4A128821F812002BE015
:1008400000206449584A128821F812006249564A29
:10085000128821F812001FE05348008832281BD06C
:1008600051480088962817D04F480088FA2813D09E
:100870004F484D49098830F8110056494A4A1288B4
:1008800021F812004A484849098830F811005249B5
:10089000454A128821F812004348008838B142487E
:1008A0000088642803D040480088C82872D1404995
:1008B0003D480088323031F81000B0F5004F31DB90
:1008C00039480088323031F81000A0F57F40FF38F9
:1008D000079010F0C8FE414A414BCDE9080110F0E5
:1008E00029FF00223F4BCDE90A0110F007FDCDE9B9
:1008F0000C0110F097FBCDE910012D482A49098819
:1009000030F811000D9010F0C5FECDE90E01DDE9C3
:10091000102310F00FFFCDE9120110F001FC324955
:1009200008602EE0224920480088323031F810005B
:10093000079010F0AFFE294A294BCDE9080110F0CD
:10094000F9FE0022274BCDE90A0110F0D7FCCDE9D2
:100950000C0110F067FBCDE9100115481249098818
:1009600030F811000D9010F095FECDE90E01DDE993
:10097000102310F0DFFECDE9120110F0D1FB1A496F
:1009800008600F4908480088323031F81000B0F58F
:10099000004F2BE0F1E30000C4C00F4000C00F4047
:1009A000ACC10F4000800840A6090010C00D001027
:1009B0007E240010A809001030180010AC090010A7
:1009C00026220010CE1F0010C4090010862B001034
:1009D000A40700102E290010D62600104AD8124D68
:1009E000FB2109400094D140F006001031DBFE48A5
:1009F0000088323031F81000A0F57F40FF380790B2
:100A000010F031FEF94AFA4BCDE9080110F092FEE0
:100A10000022F84BCDE90A0110F070FCCDE90C0181
:100A200010F000FBCDE91001F348EF49098830F8D8
:100A300011000D9010F02EFECDE90E01DDE910231E
:100A400010F078FECDE9120110F06AFBEB49086066
:100A50002EE0E949E4480088323031F81000079070
:100A600010F018FEE14AE24BCDE9080110F062FEF9
:100A70000022E04BCDE90A0110F040FCCDE90C0169
:100A800010F0D0FACDE91001DB48D749098830F8D9
:100A900011000D9010F0FEFDCDE90E01DDE91023EF
:100AA00010F048FECDE9120110F03AFBD34908607E
:100AB000D2480168D248006811F078F9D04908603E
:100AC000D049C9480088323031F81000B0F5004FE5
:100AD00031DBC5480088323031F81000A0F57F4086
:100AE000FF38079010F0BFFDC04AC14BCDE90801A7
:100AF00010F020FE0022BF4BCDE90A0110F0FEFBF2
:100B0000CDE90C0110F038FACDE91001BD48B64925
:100B1000098830F811000D9010F0BCFDCDE90E01F0
:100B2000DDE9102310F006FECDE9120110F0F8FA0D
:100B3000B54908602EE0B349AB480088323031F83F
:100B40001000079010F0A6FDA84AA94BCDE90801B6
:100B500010F0F0FD0022A74BCDE90A0110F0CEFB0A
:100B6000CDE90C0110F008FACDE91001A5489E4925
:100B7000098830F811000D9010F08CFDCDE90E01C0
:100B8000DDE9102310F0D6FDCDE9120110F0C8FA0E
:100B90009D490860984994480088323031F8100027
:100BA000B0F5004F31DB90480088323031F810004A
:100BB000A0F57F40FF38079010F055FD8B4A8C4B15
:100BC000CDE9080110F0B6FD00228A4BCDE90A01FB
:100BD00010F094FBCDE90C0110F0CEF9CDE9100135
:100BE00085488149098830F811000D9010F052FDB8
:100BF000CDE90E01DDE9102310F09CFDCDE91201D5
:100C000010F08EFA814908602EE07B497648008812
:100C1000323031F81000079010F03CFD734A744BED
:100C2000CDE9080110F086FD0022724BCDE90A01E2
:100C300010F064FBCDE90C0110F09EF9CDE9100134
:100C40006D486949098830F811000D9010F022FDB7
:100C5000CDE90E01DDE9102310F06CFDCDE91201A4
:100C600010F05EFA694908606848016866480068E3
:100C700011F09CF86449086008460168006811F0AA
:100C800079FA0E905E480168006811F073FA0D90D1
:100C90000E9911F08BF80F9011F05CF8CDE910016E
:100CA00010F018FACDE9120110F0B0FC58494E4A84
:100CB000128821F8120053494B480088323031F82D
:100CC0001000B0F5004F31DB47480088323031F872
:100CD0001000A0F57F40FF38079010F0C4FC434A95
:100CE000434BCDE9080110F025FD0022414BCDE931
:100CF0000A0110F003FBCDE90C0110F093F9CDE9E6
:100D0000100140483849098830F811000D9010F062
:100D1000C1FCCDE90E01DDE9102310F00BFDCDE99A
:100D2000120110F0FDF9364908602EE035492E48D1
:100D30000088323031F81000079010F0ABFC2B4ADD
:100D40002B4BCDE9080110F0F5FC0022294BCDE931
:100D50000A0110F0D3FACDE90C0110F063F9CDE9E6
:100D6000100128482049098830F811000D9010F032
:100D700091FCCDE90E01DDE9102310F0DBFCCDE99B
:100D8000120110F0CDF91E4908602249164800886A
:100D9000323031F81000B0F5004F4ADB12480088BD
:100DA000323031F81000A0F57F40FF38079010F086
:100DB0005AFC0E4A0E4BCDE9080110F0BBFC002294
:100DC0000C4BCDE90A0110F099FACDE90C0110F0B5
:100DD00029F9CDE910010F480349098830F81100BD
:100DE0000D9010F057FC17E0A60900104AD8124DDC
:100DF000FB2109400094D14026220010F406001087
:100E0000F00600107E240010F8060010FC0600100A
:100E10002E290010CE1F0010CDE90E01DDE91023B0
:100E200010F088FCCDE9120110F07AF9FE49086053
:100E30002EE0FE49FE480088323031F8100007905D
:100E400010F028FCFB4AFC4BCDE9080110F072FCC5
:100E50000022FA4BCDE90A0110F050FACDE90C015D
:100E600010F0E0F8CDE91001F048F149098830F8B8
:100E700011000D9010F00EFCCDE90E01DDE91023FC
:100E800010F058FCCDE9120110F04AF9E64908606B
:100E9000E5480168EA48006810F088FFE849086002
:100EA000E849E3480088323031F81000B0F5004FCF
:100EB00031DBDF480088323031F81000A0F57F4088
:100EC000FF38079010F0CFFBDA4ADB4BCDE9080181
:100ED00010F030FC0022D94BCDE90A0110F00EFAD7
:100EE000CDE90C0110F048F8CDE91001D548D04902
:100EF000098830F811000D9010F0CCFBCDE90E01FF
:100F0000DDE9102310F016FCCDE9120110F008F90C
:100F1000CD4908602EE0CB49C5480088323031F811
:100F20001000079010F0B6FBC24AC34BCDE9080190
:100F300010F000FC0022C14BCDE90A0110F0DEF9EF
:100F4000CDE90C0110F018F8CDE91001BD48B84901
:100F5000098830F811000D9010F09CFBCDE90E01CE
:100F6000DDE9102310F0E6FBCDE9120110F0D8F80E
:100F7000B5490860AD49AE480088323031F81000FC
:100F8000B0F5004F33DBAA480088323031F810004A
:100F9000A0F57F40FF38079010F065FBA54AA64BEF
:100FA000CDE9080110F0C6FB0022A44BCDE90A01EF
:100FB00000E068E110F0A2F9CDE90C010FF0DCFFD0
:100FC000CDE9100199499A48008831F810000D9038
:100FD00010F060FBCDE90E01DDE9102310F0AAFB53
:100FE000CDE9120110F09CF8984908602EE08F4975
:100FF0008F480088323031F81000079010F04AFB1B
:101000008C4A8D4BCDE9080110F094FB00228B4BEC
:10101000CDE90A0110F072F9CDE90C010FF0ACFF37
:10102000CDE9100181488249098830F811000D90FE
:1010300010F030FBCDE90E01DDE9102310F07AFB52
:10104000CDE9120110F06CF8804908607F48016812
:101050007D48006810F0AAFE7B49086008460168D8
:10106000006811F087F80E9075480168006811F06B
:1010700081F80D900E9910F099FE0F9010F06AFE15
:10108000CDE9100110F026F8CDE9120110F0BEFAFA
:101090006F49674A128821F812006B480168684856
:1010A000006810F0F1FE604908600846006810F022
:1010B00051FECDE90C010FF04DFE00225F4BCDE952
:1010C0000E0110F037FB5B4A5B4BCDE9100110F0CD
:1010D00015F9CDE9120110F023F8534908600021F9
:1010E0005948006811F00DF91CD2002154480068DD
:1010F00011F007F916D24C48006810F0BBFF81B21E
:10110000534A4B480088323022F810104648006895
:1011100010F0B0FF81B24F4A45480088323022F8C3
:101120001010A6E000214848006811F0EAF825D226
:1011300000214348006810F0E9FF1FD246493A48B1
:10114000006810F033FE139010F094FF81B2404A13
:1011500037480088323022F810103F493248006882
:1011600010F024FE139010F085FF81B2394A304808
:101170000088323022F810107BE07FE000213248F6
:10118000006810F0C3FF2CD200212D48006810F039
:10119000BDFF26D231492448006811F0E3F82E49FA
:1011A000129010F003FE139010F064FF81B2284AF1
:1011B0001F480088323022F8101028491A48006869
:1011C00011F0D0F82449129010F0F0FD139010F0B7
:1011D00051FF81B21F4A16480088323022F81010A1
:1011E00047E000211848006810F090FF41D200212C
:1011F0001348006811F085F83BD218490A48006886
:1012000010F0D4FD139010F035FF81B2104A084859
:101210000088323022F8101010490348006810F09E
:10122000C5FD13901CE00000F4060010CE1F001056
:10123000A60900104AD8124DFB2109400094D14064
:10124000F00600107E240010F8060010FC060010C6
:10125000D62600102E29001000FF7F4700A08C46E4
:1012600010F008FF81B2FE4AFE480088323022F8B2
:101270001010FD480078401CFB490870F9480088B0
:10128000401CF8490880F7480088B0F5967FFFF6C3
:1012900092AA0020F349088011E0F448F149098836
:1012A00030F81100139010F01DFFF149ED4A12883B
:1012B00041F82200EB480088401CEA490880E948D0
:1012C0000088B0F5967FE8DB0020E649088011E051
:1012D000E848E449098830F81100139010F002FF43
:1012E000E549E04A128841F82200DE480088401CA7
:1012F000DC490880DB480088B0F5967FE8DB0020F9
:10130000D949087001F01FBE0020DC490860DC49A3
:101310000860DC490860DC4908600120DB4908807E
:1013200064E1D148007800EBC00101EB0010D7491F
:10133000098801EB8000CE4951F82000119010F08F
:1013400009FDD34AD34BCDE9120110F0F1FA40D296
:10135000C548007800EBC00101EB0010CB490988BB
:1013600001EB8000C24951F820000890BE48007887
:1013700000EBC00101EB0010C449098801EB8001BA
:10138000BB4850F821100791DDE9070110F0F2FE8B
:10139000099010F0DFFC0022BF4BCDE90A0110F0EC
:1013A000C9F90022BD4BCDE90C010FF0A7FFCDE933
:1013B0001001B248006810F0CDFCCDE90E01DDE966
:1013C00010230FF0DFFECDE912010FF0A9FEAB49AB
:1013D0000860A548007800EBC00101EB0010AB49A4
:1013E000098801EB8000A24951F82000119010F00B
:1013F000B1FCA74AA74BCDE9120110F099FA40D2EF
:101400009948007800EBC00101EB00109F49098862
:1014100001EB8000964951F820000890924800782E
:1014200000EBC00101EB00109849098801EB800135
:101430008F4850F821100791DDE9070110F09AFE5E
:10144000099010F087FC0022934BCDE90A0110F0BF
:1014500071F90022914BCDE90C010FF04FFFCDE95E
:1014600010018748006810F075FCCDE90E01DDE938
:1014700010230FF087FECDE912010FF051FE8049D5
:1014800008607948007800EBC00101EB00107F494B
:10149000098801EB8000784951F82000119010F084
:1014A00059FC7B4A7B4BCDE9120110F041FA40D246
:1014B0006D48007800EBC00101EB0010734909880A
:1014C00001EB80006C4951F82000089066480078D4
:1014D00000EBC00101EB00106C49098801EB8000B2
:1014E000654951F820100791DDE9070110F042FE2F
:1014F000099010F02FFC0022674BCDE90A0110F093
:1015000019F90022654BCDE90C010FF0F7FECDE98A
:1015100010015C48006810F01DFCCDE90E01DDE90A
:1015200010230FF02FFECDE912010FF0F9FD554900
:1015300008604D48007800EBC00101EB00105349F2
:10154000098801EB80004C4951F82000119010F0FF
:1015500001FC4F4A4F4BCDE9120110F0E9F940D29E
:101560004148007800EBC00101EB001047490988B1
:1015700001EB8000404951F8200008903A4800787B
:1015800000EBC00101EB00104049098801EB80002D
:10159000394951F820100791DDE9070110F0EAFD03
:1015A000099010F0D7FB00223B4BCDE90A0110F067
:1015B000C1F80022394BCDE90C010FF09FFECDE9B7
:1015C00010013148006810F0C5FBCDE90E01DDE9DE
:1015D00010230FF0D7FDCDE912010FF0A1FD2A492C
:1015E00008602A480088401C28490880274800884D
:1015F0001928FFF696AE1C480078642148431C4920
:1016000051F820000C90184800786421484318498C
:1016100051F820100B91DDE90B0110F0ABFD2049D2
:101620000D9010F031FC0E90144801680E9810F0E7
:10163000BDFB0F9010F08EFBCDE910010FF04AFDBD
:10164000CDE912010FF06CFD1649086006480078DC
:1016500064214843084951F8201003480C9123E0C5
:101660002E290010A6090010A4070010D62600108D
:10167000A04800107E24001090530010C0070010F6
:10168000C4070010A0080010A4080010A60700104E
:1016900048E17A14AE472C400000F03F000069405A
:1016A00000004843C8070010007864214843FE4901
:1016B00051F820100B91DDE90B0110F05BFDFB49A7
:1016C0000D9010F0E1FB0E90F94801680E9810F0B3
:1016D0006DFB0F9010F03EFBCDE910010FF0FAFC0E
:1016E000CDE912010FF01CFDF2490860F2480068D4
:1016F00010F030FBCDE910010FF0ECFCCDE9120148
:101700000FF00EFDED490860ED48006810F022FB77
:10171000CDE910010FF0DEFCCDE912010FF000FD64
:10172000E8490860E5480168E74810F023FD139098
:10173000E648007864214843E54951F82000014615
:101740001290139810F0A0FBE2490860DD48016890
:10175000DD4810F00FFD1390DC4800786421484309
:10176000D14951F8200001461290139810F08CFBDB
:10177000D9490860D54800782130D84931F810108F
:101780000846139110F0AEFCD5490860D549D448FD
:10179000006810F0B6FD7DD2CC48007800EBC001A7
:1017A00001EB0010322101EB8000C94951F8200003
:1017B000CC49139010F0A5FD6DD2C448007800EB21
:1017C000C00101EB0010322101EB8000C04951F84B
:1017D0002000C549009010F0C5FD019010F0BAFA44
:1017E000C24AC34BCDE902010FF0A4FF0022C14B56
:1017F000CDE904010FF082FDCDE90801BA49B848EE
:10180000006810F0AFFD019010F0A4FAB74AB84B91
:10181000CDE902010FF08EFF0022B64BCDE90401A5
:101820000FF06CFDCDE90601DDE9082310F0A8F901
:10183000AE4AB14BCDE90A0110F0A2F9CDE90C0195
:101840000FF0F0FBCDE91001A04800786421484377
:101850009F4951F820000B9010F07CFAA74AA84B42
:10186000CDE90C010FF04AFDCDE90E01DDE91023B1
:101870000FF060FFCDE912010FF052FCA1490860A2
:101880009248007800EBC00101EB0010322101EB1F
:10189000800001E0D6E258E18D4951F82010009116
:1018A0009149009810F05EFD019010F053FA8F4AB4
:1018B0008F4BCDE902010FF03DFF00228D4BCDE9AA
:1018C00004010FF01BFDCDE9080187498448006839
:1018D00010F048FD019010F03DFA844A844BCDE9A8
:1018E00002010FF027FF0022824BCDE904010FF027
:1018F00005FDCDE90601DDE9082310F041F97B4A39
:101900007D4BCDE90A0110F03BF9CDE90C010FF058
:1019100033FBCDE910016D480078642148436C49E0
:1019200051F820000B9010F015FA744A744BCDE971
:101930000C010FF0E3FCCDE90E01DDE910230FF0FF
:10194000F9FECDE912010FF0EBFB6F4908605F482B
:10195000007800EBC00101EB0010322101EB8000A8
:10196000514951F8201000915F49009810F0FAFC9D
:10197000019010F0EFF95D4A5D4BCDE902010FF0E7
:10198000D9FE00225B4BCDE904010FF0B7FCCDE995
:10199000080155495248006810F0E4FC019010F02D
:1019A000D9F9524A524BCDE902010FF0C3FE002291
:1019B000504BCDE904010FF0A1FCCDE90601DDE9B2
:1019C000082310F0DDF8494A4B4BCDE90A0110F02D
:1019D000D7F8CDE90C010FF025FBCDE910013B480C
:1019E000007864214843304951F820000B9010F0F2
:1019F000B1F9424A424BCDE90C010FF07FFCCDE931
:101A00000E01DDE910230FF095FECDE912010FF074
:101A100087FB3E4908602D48007800EBC00101EBD0
:101A20000010322101EB80001F4951F82010009175
:101A30002D49009810F096FC019010F08BF92B4A7C
:101A40002B4BCDE902010FF075FE0022294BCDE9A9
:101A500004010FF053FCCDE9080123492048006838
:101A600010F080FC019010F075F9204A204BCDE970
:101A700002010FF05FFE00221E4BCDE904010FF0C2
:101A80003DFCCDE90601DDE9082310F079F8174A9D
:101A9000194BCDE90A0110F073F8CDE90C010FF0F4
:101AA0006BFACDE9100133E0905300100000484379
:101AB000A0080010A8080010C4070010CC070010F0
:101AC000A4080010AC08001000F05C46A407001049
:101AD000A0480010D0070010B0080010C409001082
:101AE0003407001000FEFF4600FF7F474AD8124D22
:101AF000FB2109400094D140FB21F93F48E17A14D1
:101B0000AE472C40D4070010DC070010B4080010CA
:101B1000FE48007864214843FD4951F820000B90AD
:101B200010F018F9FB4AFC4BCDE90C010FF0E6FB75
:101B3000CDE90E01DDE910230FF0FCFDCDE9120126
:101B40000FF0EEFAF54908602DE3F048007800EB5D
:101B5000C00101EB0010322101EB8000F04951F887
:101B60002000019010F0F6F8EE4AEF4BCDE90201AB
:101B70000FF0E0FD0022ED4BCDE904010FF0BEFBBC
:101B8000CDE90801EA49EB48006810F0EBFB019051
:101B900010F0E0F8E34AE44BCDE902010FF0CAFD92
:101BA0000022E24BCDE904010FF0A8FBCDE90601CC
:101BB000DDE908230FF0E4FFDA4ADF4BCDE90A0143
:101BC0000FF0DEFFCDE90C010FF02CFACDE910018A
:101BD000CE48007864214843D14951F820000B9049
:101BE00010F0B8F8CB4ACC4BCDE90C010FF086FBD6
:101BF000CDE90E01DDE910230FF09CFDCDE91201C6
:101C00000FF08EFACD490860C048007800EBC001A3
:101C100001EB0010322101EB8000C14951F8200096
:101C2000019010F097F8BF4ABF4BCDE902010FF0C9
:101C300081FD0022BD4BCDE904010FF05FFBCDE932
:101C40000801BB49BB48006810F08CFB019010F004
:101C500081F8B44AB44BCDE902010FF06BFD0022CC
:101C6000B24BCDE904010FF049FBCDE90601DDE9F6
:101C700008230FF085FFAB4AAF4BCDE90A010FF007
:101C80007FFFCDE90C010FF077F9CDE910019F48F6
:101C9000007864214843A24951F820000B9010F0CD
:101CA00059F89C4A9C4BCDE90C010FF027FBCDE97C
:101CB0000E01DDE910230FF03DFDCDE912010FF01B
:101CC0002FFA9F4908609148007800EBC00101EBB2
:101CD0000010322101EB80008D4951F82000019065
:101CE00010F038F88F4A904BCDE902010FF022FD39
:101CF00000228E4BCDE904010FF000FBCDE9080175
:101D00008B498C48006810F02DFB019010F022F8F0
:101D1000844A854BCDE902010FF00CFD0022834B74
:101D2000CDE904010FF0EAFACDE90601DDE9082367
:101D30000FF026FF7B4A804BCDE90A010FF020FF10
:101D4000CDE90C010FF06EF9CDE910016F48007874
:101D5000642148436E4951F820000B900FF0FAFFC0
:101D60006C4A6D4BCDE90C010FF0C8FACDE90E01BC
:101D7000DDE910230FF0DEFCCDE912010FF0D0F900
:101D8000704908606148007800EBC00101EB001069
:101D9000322101EB80005E4951F8200001900FF0E4
:101DA000D9FF604A604BCDE902010FF0C3FC00226D
:101DB0005E4BCDE904010FF0A1FACDE908015C49C1
:101DC0005C48006810F0CEFA01900FF0C3FF554A4E
:101DD000554BCDE902010FF0ADFC0022534BCDE98C
:101DE00004010FF08BFACDE90601DDE908230FF0BD
:101DF000C7FE4C4A504BCDE90A010FF0C1FECDE9B8
:101E00000C010FF0B9F8CDE91001404800786421C9
:101E100048433F4951F820000B900FF09BFF3D4A8B
:101E20003D4BCDE90C010FF069FACDE90E01DDE97A
:101E300010230FF07FFCCDE912010FF071F9374943
:101E400008603CE33148007800EBC00101EB001072
:101E5000322101EB8000324951F820003A491390B9
:101E600010F04FFA51D22948007800EBC00101EB85
:101E70000010322101EB8000294951F820002C4943
:101E8000009010F06FFA01900FF064FF254A264B86
:101E9000CDE902010FF04EFC0022244BCDE90401F4
:101EA0000FF02CFACDE90801224800680FF052FF2C
:101EB0001C4A1D4BCDE902010FF03CFC00221B4BDC
:101EC000CDE904010FF01AFACDE90601DDE9082396
:101ED0000FF056FE134A184BCDE90A010FF050FEE1
:101EE000CDE90C010FF09EF8CDE91001074800780C
:101EF000642148430A4951F820000B900FF02AFF53
:101F0000044A054BCDE90C0120E04DE1A407001087
:101F10009053001048E17A14AE472C40B8080010E6
:101F2000A04800104AD8124DFB2109400094D1402E
:101F300000FF7F4734070010FB21F93FD407001052
:101F4000DC070010B408001000FEFF460FF0D6F9C1
:101F5000CDE90E01DDE910230FF0ECFBCDE9120114
:101F60000FF0DEF8FE490860FE48007800EBC00183
:101F700001EB0010322101EB8000FB4951F82000F9
:101F8000FA49009010F0EEF901900FF0E3FEF84AE4
:101F9000F84BCDE902010FF0CDFB0022F64BCDE965
:101FA00004010FF0ABF9CDE90801F44800680FF027
:101FB000D1FEEF4AEF4BCDE902010FF0BBFB00224F
:101FC000ED4BCDE904010FF099F9CDE90601DDE90A
:101FD00008230FF0D5FDE64AE94BCDE90A010FF0E1
:101FE000CFFDCDE90C010EF0C7FFCDE91001DD48B2
:101FF000007864214843DC4951F820000B900FF031
:10200000A9FEE04AE04BCDE90C010FF077F9CDE9EC
:102010000E01DDE910230FF08DFBCDE912010FF069
:102020007FF8DA490860CF48007800EBC00101EB87
:102030000010322101EB8000D54951F820100091A9
:10204000CA49009810F08EF901900FF083FEC84A3B
:10205000C84BCDE902010FF06DFB0022C64BCDE964
:1020600004010FF04BF9CDE90801C44800680FF0F6
:1020700071FEBF4ABF4BCDE902010FF05BFB0022AE
:10208000BD4BCDE904010FF039F9CDE90601DDE9D9
:1020900008230FF075FDB64AB94BCDE90A010FF0E0
:1020A0006FFDCDE90C010EF0BDFFCDE91001AD488B
:1020B000007864214843B64951F820000B900FF096
:1020C00049FEB04AB04BCDE90C010FF017F9CDE94C
:1020D0000E01DDE910230FF02DFBCDE912010FF009
:1020E0001FF8AC4908609F48007800EBC00101EB85
:1020F0000010322101EB8000A54951F82010009119
:102100009A49009810F02EF901900FF023FE984A9A
:10211000984BCDE902010FF00DFB0022964BCDE963
:1021200004010FF0EBF8CDE90801944800680FF0C6
:1021300011FE8F4A8F4BCDE902010FF0FBFA00220E
:102140008D4BCDE904010FF0D9F8CDE90601DDE9A9
:1021500008230FF015FD864A894BCDE90A010FF0DF
:102160000FFDCDE90C010EF007FFCDE910017D4810
:10217000007864214843864951F820000B900FF005
:10218000E9FD804A804BCDE90C010FF0B7F8CDE9AD
:102190000E01DDE910230FF0CDFACDE912010EF0AA
:1021A000BFFF7D4908608AE16E48007800EBC001FE
:1021B00001EB0010322101EB80006B4951F8200047
:1021C00001900FF0C7FD6A4A6A4BCDE902010FF09A
:1021D000B1FA0022684BCDE904010FF08FF8CDE988
:1021E0000801664800680FF0B5FD614A614BCDE912
:1021F00002010FF09FFA00225F4BCDE904010FF0BE
:102200007DF8CDE90601DDE908230FF0B9FC584A55
:102210005B4BCDE90A010FF0B3FCCDE90C010EF0E8
:1022200001FFCDE910014F480078642148434E4931
:1022300051F820000B900FF08DFD524A524BCDE922
:102240000C010FF05BF8CDE90E01DDE910230FF072
:1022500071FACDE912010EF063FF4149086041486F
:10226000007800EBC00101EB0010322101EB80008F
:102270003D4951F8200001900FF06CFD3C4A3D4B68
:10228000CDE902010FF056FA00223B4BCDE90401E3
:102290000FF034F8CDE90801384800680FF05AFD16
:1022A000334A344BCDE902010FF044FA0022324B9D
:1022B000CDE904010FF022F8CDE90601DDE908239C
:1022C0000FF05EFC2A4A2E4BCDE90A010FF058FCB4
:1022D000CDE90C010EF050FECDE910012148007847
:1022E00064214843204951F820000B900FF032FD43
:1022F000244A254BCDE90C010FF000F8CDE90E0181
:10230000DDE910230FF016FACDE912010EF008FFF7
:102310001E4908601348007800EBC00101EB001073
:10232000322101EB80001A4951F8200001900FF092
:1023300011FD0F4A0F4BCDE902010FF0FBF900220E
:102340000D4BCDE904010EF0D9FFCDE908010B4892
:1023500000680FF0FFFC064A064BCDE902011DE0C4
:10236000D4070010A4070010A048001000FF7F470A
:102370004AD8124DFB2109400094D1403407001087
:10238000FB21F93F48E17A14AE472C40DC070010EE
:1023900090530010B4080010B80800100FF0CAF9EC
:1023A0000022FE4BCDE904010EF0A8FFCDE90601A5
:1023B000DDE908230FF0E4FBF94AFA4BCDE90A0105
:1023C0000FF0DEFBCDE90C010EF02CFECDE9100183
:1023D000F548007864214843F44951F820000B90F7
:1023E0000FF0B8FCF24AF34BCDE90C010EF086FF7A
:1023F000CDE90E01DDE910230FF09CF9CDE91201C2
:102400000EF08EFEEC490860E748007800EBC00152
:1024100001EB0010322101EB8000E44951F820006B
:1024200001900FF097FCDE4AE44BCDE902010FF07A
:1024300081F90022D94BCDE904010EF05FFFCDE90F
:102440000801DF4800680FF085FCD54ADB4BCDE979
:1024500002010FF06FF90022D04BCDE904010EF01C
:102460004DFFCDE90601DDE908230FF089FBCC4AD9
:10247000CC4BCDE90A010FF083FBCDE90C010EF046
:102480007BFDCDE91001C848007864214843C74965
:1024900051F820000B900FF05DFCC54AC54BCDE90B
:1024A0000C010EF02BFFCDE90E01DDE910230FF03A
:1024B00041F9CDE912010EF033FEC2490860C2496C
:1024C000B9480078133031F810000A2190FBF1F080
:1024D00013900FF0EFFDBD4908600021BC48006873
:1024E0000FF00FFF08D2BB480168B94800680FF031
:1024F000CBFCB94908600CE0B5480168B7480FF05B
:1025000039FE1390B348016813980FF0BDFCB2492F
:102510000860B348006811900FF01CFCB14AB24B40
:10252000CDE912010FF0CAF802D20020AA490860D2
:102530000021A44800680FF0E4FE08D2AB4801680F
:10254000A04800680FF0A0FCA94908600CE09D4875
:102550000168A2480FF00EFE1390A448016813987A
:102560000FF092FCA24908609048006811900FF0AB
:10257000F1FB9C4A9C4BCDE912010FF09FF802D26F
:1025800000209B49086092480168904800680FF05D
:10259000F1FD984908608B4801688C4800680FF08D
:1025A000E9FD954908600021934800680FF0AEFDF1
:1025B0001BD2844800680FF0CDFBCDE910018348A1
:1025C00000680FF0C7FB00228C4BCDE90C010FF027
:1025D000B1F8CDE90E01DDE910230FF0ABF8CDE93C
:1025E00012010EF09DFD84490860002184480068B6
:1025F0000FF087FE08D282480168744800680FF027
:10260000B9FD804908601BE07D4800680FF0A2FB1F
:10261000CDE910016D4800680FF09CFB0022774B5C
:10262000CDE90C010FF086F8CDE90E01DDE91023AC
:102630000FF080F8CDE912010EF072FD71490860CB
:1026400000215D4800680FF05CFE08D25A4801681E
:102650005E4800680FF08EFD6B4908601BE056482D
:1026600000680FF077FBCDE91001584800680FF0C3
:1026700071FB0022614BCDE90C010FF05BF8CDE955
:102680000E01DDE910230FF055F8CDE912010EF02F
:1026900047FD5D4908605D4801684C4800680FF0DF
:1026A00069FD5B4908605B480168484800680FF0B5
:1026B00061FD594908605648016800680FF05AFDED
:1026C0000E905048016800680FF054FD0C90494886
:1026D000016800680FF04EFD0B900C990FF066FB3F
:1026E0000D900E990FF062FB0F900FF033FBCDE9C8
:1026F00010010EF0EFFCCDE912010EF011FD47497B
:1027000008604548016800680FF034FD0E903E48AF
:10271000016800680FF02EFD0C90374801680068D2
:102720000FF028FD0B900C990FF040FB0D900E99C7
:102730000FF03CFB0F900FF00DFBCDE910010EF0F8
:10274000C9FCCDE912010EF0EBFC3549086000210F
:102750001F4800680FF0DAFC6DD21348007864213E
:1027600048431F4951F820000D900FF0F3FACDE9CE
:102770001001174800680FF0EDFA00221F4BCDE959
:102780000A010EF0D7FF0A4A0A4BCDE90C010EF000
:10279000D1FFCDE90E01DDE9102343E00094D140E3
:1027A0004AD8124DFB21F93FA407001090530010A6
:1027B00048E17A14AE472C40B4080010FB210940D0
:1027C00034070010B8080010C4090010D807001022
:1027D000DC070010C8070010E0070010000080BFF1
:1027E000A0480010F6285C8FC2353540A8080010BC
:1027F000BC080010E4070010C00800100000F0BF83
:10280000D4070010E8070010C4080010CC0700101F
:10281000EC070010AC080010C8080010F00700100A
:10282000CC0800100EF06AFDCDE912010EF078FC24
:10283000FE49086021E0FE48007864214843FD49D4
:1028400051F820000D900FF085FACDE91001FA48FB
:1028500000680FF07FFAF94AF94BCDE90C010EF050
:1028600069FFCDE90E01DDE910230EF047FDCDE94A
:1028700012010EF055FCED490860EE480068119019
:102880000FF068FAEF4AF04BCDE912010EF016FF97
:1028900002D20020E54908600021EC4800680FF0F2
:1028A00035FC28D2E248007864214843E84951F8D1
:1028B00020000D900FF04EFACDE91001E3480068BA
:1028C0000FF048FA0022E34BCDE90A010EF032FF87
:1028D000DA4ADB4BCDE90C010EF02CFFCDE90E01FD
:1028E000DDE910230EF00AFDCDE912010EF018FC0F
:1028F000D949086021E0CE48007864214843D44992
:1029000051F820000D900FF025FACDE91001CF48C5
:1029100000680FF01FFAC94AC94BCDE90C010EF04F
:1029200009FFCDE90E01DDE910230EF0E7FCCDE94A
:1029300012010EF0F5FBC8490860C5480068119007
:102940000FF008FABF4AC04BCDE912010EF0B6FEF7
:1029500002D20020C0490860B548007800287CD128
:10296000BE480168BE4800680FF020FABC49086004
:10297000BC480168BC4800680FF018FABA49086002
:10298000BA480168BA4800680FF010FAB849086000
:10299000B8480168B84800680FF008FAB6490860FE
:1029A000A5480168B54800680FF000FAB34908600F
:1029B000B3480168B34800680FF0F8F9B1490860FE
:1029C000B1480168B14800680FF0F0F9AF490860FC
:1029D000AF480168AF4800680FF0E8F9AD490860FA
:1029E000AD480168AD4800680FF0E0F9AB490860F8
:1029F000AB480168AB4800680FF0D8F9A9490860F6
:102A00008A480168A84800680FF0D0F9A649086014
:102A1000A6480168A64800680FF0C8F9A4490860F4
:102A2000A4480168A44800680FF0C0F9A2490860F2
:102A3000A2480168A24800680FF0B8F9A0490860F0
:102A4000A0480168A04800680FF0B0F99E490860EE
:102A50009E4801689E48006800E044E00FF0A6F937
:102A60009B4908609B4801689B4800680FF09EF9ED
:102A70009949086075480168984800680FF096F910
:102A80009649086096480168964800680FF08EF9EC
:102A90009449086094480168944800680FF086F9EA
:102AA0009249086092480168924800680FF07EF9E8
:102AB0009049086090480168904800680FF076F9E6
:102AC0008E4908608E4801688E4800680FF06EF9E4
:102AD0008C490860604801688B4800680FF066F90F
:102AE000894908602AE25248007801287ED15B4873
:102AF0000168864800680FF059F984490860594810
:102B00000168834800680FF051F98149086057480F
:102B10000168804800680FF049F97E49086055480F
:102B200001687D4800680FF041F97B490860424820
:102B300001687A4800680FF039F978490860504810
:102B40000168774800680FF031F9754908604E4810
:102B50000168744800680FF029F9724908604C4810
:102B60000168714800680FF021F96F4908604A4810
:102B700001686E4800680FF019F96C490860484810
:102B800001686B4800680FF011F96949086027482F
:102B90000168684800680FF009F966490860434811
:102BA0000168654800680FF001F963490860414811
:102BB0000168624800680FF0F9F8604908603F4812
:102BC00001685F4800680FF0F1F85D4908603D4812
:102BD00001685C4800680FF0E9F85A4908603B4812
:102BE0000168594800680FF0E1F800E0DBE0564961
:102BF000086038480168554800680FF0D7F8534915
:102C0000086012480168524800680FF0CFF8504938
:102C10000860334801684F4800680FF0C7F84D4915
:102C20000860314801684C48006897E0F4070010DC
:102C3000A4070010A0480010DC07001048E17A1437
:102C4000AE472C40F6285C8FC2353540B8080010DE
:102C5000905300100000F0BFD0080010C80700100B
:102C600004080010CC07001010080010D007001056
:102C70001C080010D40700102808001034080010A9
:102C8000E007001040080010E40700104C08001096
:102C9000E807001058080010EC0700106408001046
:102CA000F0070010700800107C080010F8070010F2
:102CB00088080010FC07001094080010A8080010F5
:102CC000D4080010AC080010D8080010B00800109C
:102CD000DC080010B4080010E0080010E408001040
:102CE000BC080010E8080010C0080010EC08001034
:102CF000C4080010F0080010C8080010F408001004
:102D0000CC080010F8080010FC080010080800109B
:102D100014080010200800102C08001038080010BB
:102D200044080010500800105C08001068080010EB
:102D300074080010800800108C080010980800101B
:102D40000009001004090010080900100C09001007
:102D50001009001014090010180900100FF026F8CF
:102D6000FE490860FE480168FE4800680FF01EF842
:102D7000FC490860FC480168FC4800680FF016F840
:102D8000FA490860FA480168FA4800680FF00EF83E
:102D9000F8490860F8480168F84800680FF006F83C
:102DA000F6490860CAE0F648007802287ED1F54866
:102DB0000078401CF3490870F3480168F348006844
:102DC0000EF0F4FFF1490860F1480168F14800682D
:102DD0000EF0ECFFEF490860EF480168EF4800682B
:102DE0000EF0E4FFED490860ED480168ED48006829
:102DF0000EF0DCFFEB490860EB480168EB48006827
:102E00000EF0D4FFE9490860E9480168E948006824
:102E10000EF0CCFFE7490860E7480168E748006822
:102E20000EF0C4FFE5490860E5480168E548006820
:102E30000EF0BCFFE3490860E3480168E34800681E
:102E40000EF0B4FFE1490860E1480168E14800681C
:102E50000EF0ACFFDF490860DF480168DF4800681A
:102E60000EF0A4FFDD490860DD480168DD48006818
:102E70000EF09CFFDB490860DB480168DB48006816
:102E80000EF094FFD9490860D9480168D948006814
:102E90000EF08CFFD7490860D7480168D748006812
:102EA0000EF084FFD5490860D54800E046E001688F
:102EB000D44800680EF07AFFD2490860D248016811
:102EC000D24800680EF072FFD0490860D04801680F
:102ED000D04800680EF06AFFCE490860CE4801680D
:102EE000CE4800680EF062FFCC490860CC4801680B
:102EF000CC4800680EF05AFFCA490860984801683B
:102F0000C94800680EF052FFC7490860964801683A
:102F1000C64800680EF04AFFC4490860944801683A
:102F2000C34800680EF042FFC1490860924801683A
:102F3000C04800680EF03AFFBE490860904800782B
:102F4000401C8F4908708E4800780328FEF6DCA9E3
:102F50008C4800781E287DD100208A490870B64927
:102F6000B64800680EF090FFB54912900FF002F9D4
:102F700013900FF07FF8B3490880AF49B24800685A
:102F80000EF082FFAE4912900FF0F4F813900FF09C
:102F900071F8AC494880A8497C4800680EF074FF7D
:102FA000A74912900FF0E6F813900FF063F8A549C7
:102FB0008880A149A54800680EF066FFA0491290DC
:102FC0000FF0D8F813900FF055F8A14908809A49EE
:102FD000A04800680EF058FF994912900FF0CAF807
:102FE00013900FF047F89A49488093498148006848
:102FF0000EF04AFF924912900FF0BCF813900FF0B8
:1030000039F8934988808C49934800680EF03CFF5A
:103010008B4912900FF0AEF813900FF02BF88949FE
:10302000C88085498D4800680EF02EFF84491290B3
:103030000FF0A0F813900FF01DF8824908817E4927
:10304000544800680EF020FF7D4912900FF092F86E
:10305000139000E0FDE30FF00DF87A4948817649BE
:103060007F4800680EF010FF754912900FF082F84B
:1030700013900EF0FFFF7649C8806F4979480068C9
:103080000EF002FF6E4912900FF074F813900EF0DC
:10309000F1FF6F4908816849584800680EF0F4FE56
:1030A000674912900FF066F813900EF0E3FF68493D
:1030B000488161496C4800680EF0E6FE13900EF0FE
:1030C000D9FF604988815C49684800680EF0DCFEE1
:1030D00013900EF0CFFF5B49C88157492F48006815
:1030E0000EF0D2FE13900EF0C5FF564908825249E9
:1030F0005F4800680EF0C8FE13900EF0BBFF544905
:1031000088814D495B4800680EF0BEFE13900EF0BA
:10311000B1FF4F49C88148493A4800680EF0B4FEF3
:1031200013900EF0A7FF4A490882434952480068AD
:103130000EF0AAFE424912900FF01CF813900EF008
:1031400099FF404948823C494C4800680EF09CFE7B
:103150003B4912900FF00EF8139091E018090010FF
:10316000C40800101C090010C80800102009001035
:10317000CC08001024090010D00800102809001005
:10318000A4070010BE090010C80700100C080010AA
:10319000CC07001018080010D007001024080010F9
:1031A000D407001030080010DC0700103C080010A5
:1031B000E007001048080010E40700105408001051
:1031C000E807001060080010EC0700106C08001001
:1031D000F007001078080010F407001084080010B1
:1031E000F807001090080010FC0700109C08001061
:1031F000A80800102C090010AC08001030090010BD
:10320000B008001034090010B4080010380900108C
:10321000B80800103C090010BC080010400900105C
:10322000C008001044090010480900104C090010A3
:1032300050090010540900100000F041040800106B
:1032400000002041145E001008080010D40800108F
:103250004058001000090010100800101408001059
:10326000D8080010040900101C08001020080010E5
:10327000DC08001008090010280800102C080010B5
:103280000EF0F8FEFD498882FD49FE4800680EF008
:10329000FBFDFD4912900EF06DFF13900EF0EAFE5B
:1032A000F649C882F649F94800680EF0EDFDF64986
:1032B00012900EF05FFF13900EF0DCFEF44948828E
:1032C000EF49F44800680EF0DFFDEF4912900EF070
:1032D00051FF13900EF0CEFEED498882E849EE488A
:1032E00000680EF0D1FDE84912900EF043FF1390F4
:1032F0000EF0C0FEE649C882E149E84800680EF0D9
:10330000C3FDE74912900EF035FF13900EF0B2FEA8
:10331000DA49C883DA49E34800680EF0B5FDE049B0
:1033200012900EF027FF13900EF0A4FED3490884EC
:10333000D349DD4800680EF0A7FDD94912900EF080
:1033400019FF13900EF096FECC494884CC49D7481B
:1033500000680EF099FDD24912900EF00BFF139009
:103360000EF088FECA49C883C549D14800680EF0EE
:103370008BFDCB4912900EF0FDFE13900EF07AFEFD
:10338000C3490884BE49CB4800680EF07DFDC4499E
:1033900012900EF0EFFE13900EF06CFEBC494884C4
:1033A000B749C54800680EF06FFDC44911900EF092
:1033B0006BFDC34912900EF0F9FC13900EF05AFE0B
:1033C000AE498884AE49BF4800680EF05DFDBB4938
:1033D00011900EF059FDBA4912900EF0E7FC1390CF
:1033E0000EF048FEA549C884A549B74800680EF00C
:1033F0004BFDB24911900EF047FDB14912900EF00D
:10340000D5FC13900EF036FE9C4908859C49AF48C8
:1034100000680EF039FDA94912900EF035FD1390A9
:103420000EF028FE9A4988849549A94800680EF054
:103430002BFDA24912900EF027FD13900EF01AFEFC
:103440009349C8848E49A34800680EF01DFD9B492E
:1034500012900EF019FD13900EF00CFE8C490885A9
:1034600087499A4800680EF00FFD944912900EF0BB
:103470000BFD13900EF0FEFD97490880804993489C
:1034800000680EF001FD8D4912900EF0FDFC1390C6
:103490000EF0F0FD9049488079498C4800680EF0A4
:1034A000F3FC864912900EF0EFFC13900EF0E2FD53
:1034B000894988807249894800680EF0E5FC7F4997
:1034C00012900EF0E1FC13900EF0D4FD6B4948858C
:1034D0006B49834800680EF0D7FC784912900EF0D3
:1034E000D3FC13900EF0C6FD6449888564497D487D
:1034F00000680EF0C9FC714912900EF0C5FC1390E3
:103500000EF0B8FD5D49C8855D49774800680EF04A
:10351000BBFC6A4912900EF0B7FC13900EF0AAFDA6
:103520005B4948855649714800680EF0ADFC634917
:1035300012900EF0A9FC13900EF09CFD5449888562
:103540004F496B4800680EF09FFC5C4912900EF0EA
:103550009BFC13900EF08EFD4D49C8854849654887
:1035600000680EF091FC554912900EF08DFC1390FE
:103570000EF080FD4149088641495F4800680EF021
:1035800083FC4E4912900EF07FFC13900EF072FDFA
:103590003A4948863A49594800680EF075FC47494F
:1035A00012900EF071FC13900EF064FD3349888682
:1035B0003349534800680EF067FC404912900EF002
:1035C00063FC13900EF056FD314908862C494D4896
:1035D00000680EF059FC394912900EF055FC13901A
:1035E0000EF048FD2A4948862549474800680EF0F4
:1035F0004BFC324912900EF047FC13900EF03AFD4E
:10360000234988861E49414800680EF03DFC2B493D
:1036100012900EF039FC13900EF02CFD1749C8865D
:1036200017493B4800680EF02FFC244912900EF019
:103630002BFC13900EF01EFD1049088710493548E9
:1036400000680EF021FC1D4912900EF01DFC139035
:103650000EF010FD0949488709492F4800680EF00F
:1036600013FC164912900EF00FFC13900EF002FDA1
:103670000749C88602492948006851E0145E0010D5
:103680000000F0413008001000002041E008001068
:10369000405800100C0900103809001040080010B4
:1036A00000007A444408001048080010E8080010A0
:1036B00014090010400900104C0800100000C84216
:1036C00000FF7F475008001054080010EC0800105D
:1036D000180900104409001058090010580800107B
:1036E0005C08001060080010F00800101C090010B1
:1036F0004809001064080010680800106C080010E9
:10370000F4080010200900104C0900107008001087
:103710007408001078080010F80800102409001040
:103720000EF0B2FBFE4912900EF0AEFB13900EF0BD
:10373000A1FCFC490887FC49FC4800680EF0A4FB8A
:10374000F74912900EF0A0FB13900EF093FCF54990
:103750004887F549F64800680EF096FBF549129047
:103760000EF008FD13900EF085FCF3490883EE4936
:10377000F24800680EF088FBEE4912900EF0FAFC59
:1037800013900EF077FCEC494883E749EC48006859
:103790000EF07AFBE74912900EF0ECFC13900EF05D
:1037A00069FCE5498883E049E64800680EF06CFB57
:1037B000E04912900EF0DEFC13900EF05BFCD9494C
:1037C0000883D949E04800680EF05EFBD9491290A1
:1037D0000EF0D0FC13900EF04DFCD2494883D24934
:1037E000DA4800680EF050FBD24912900EF0C2FC8D
:1037F00013900EF03FFCCB498883CB49D448006836
:103800000EF042FBD34912900EF0B4FC13900EF070
:1038100031FCC949A1F85800C349CF4800680EF0EF
:1038200033FBCC4912900EF0A5FC13900EF022FC55
:10383000C149A1F85A00BC49C84800680EF024FBF1
:10384000C44912900EF096FC13900EF013FCBA4986
:1038500000E0BFE0A1F85C00B349C14800680EF089
:1038600013FBBC4912900EF085FC13900EF002FC85
:10387000B149A1F85200AC49BA4800680EF004FB07
:10388000B44912900EF076FC13900EF0F3FBAA49A7
:10389000A1F85400A449B44800680EF0F5FAAD4907
:1038A00012900EF067FC13900EF0E4FBA249A1F811
:1038B00056000020AD490860AD490860AD49086078
:1038C000AD490860AD490860AD490860AD49086080
:1038D000AD490860AD490860AD4908609449086089
:1038E0009B4908609E490860AA490860AA49086087
:1038F000AA490860AA490860AA490860AA4908605C
:10390000AA490860AA490860AA490860AA4908604B
:103910008A4908609049086092490860A749086090
:10392000A7490860A7490860A7490860A749086037
:10393000A7490860A7490860A7490860A749086027
:10394000A74908607E490860844908608649086084
:10395000A4490860A4490860A4490860A449086013
:10396000A4490860A4490860A4490860A449086003
:10397000A4490860A449086072490860A349086026
:10398000A3490860A3490860A3490860A3490860E7
:10399000A3490860A3490860A3490860A3490860D7
:1039A000A349086068490860A2490860A249086004
:1039B000A2490860A2490860A2490860A2490860BB
:1039C000A2490860A2490860A249086057490860F6
:1039D0005E490860A048007802287DD19F480078A1
:1039E000022879D000209E490880D9E19C480088AF
:1039F00013309C4931F810009B49994A128821F8EC
:103A00001200974800881B30964931F81010964AEA
:103A100093480088C01C22F81010914800881E307E
:103A2000904931F810108E480088801D22F810103F
:103A30008B480088801C8B4931F81010884800881A
:103A4000093022F810103C488549098830F81110D7
:103A5000834800880C3022F81010374980480088CD
:103A6000801D31F810107E4800880F3022F81010A9
:103A700031497B480088C01C31F810107848008814
:103A8000123022F810102C4975480088093031F89E
:103A9000101073480088153022F81010264970481D
:103AA00000881B3031F810106D480088183022F85B
:103AB00010106E486A49098830F81110684800886B
:103AC0001B3022F810101C4965480088153031F869
:103AD00010106348008800E0CAE11E3022F8101080
:103AE00015495F480088183031F810105C4800888C
:103AF000213022F810101049594800880F3031F851
:103B0000101057480088243022F810100A495448F1
:103B100000880C3031F81010514800882730A7E099
:103B20000000C842405800100000F0415009001049
:103B30007C08001000007A44145E00108008001019
:103B400084080010FC080010280900105409001017
:103B500088080010000020418C0800109008001018
:103B600094080010980800109C0800100408001029
:103B7000100800101C08001028080010340800105D
:103B8000400800104C08001058080010640800108D
:103B90007008001008080010140800102008001019
:103BA0002C080010380800104408001050080010BD
:103BB0005C08001068080010740800100C08001061
:103BC0001808001024080010300800103C080010ED
:103BD0004808001054080010600800106C0800101D
:103BE00078080010D4080010D8080010DC08001075
:103BF000E0080010E4080010E8080010EC080010CD
:103C0000F0080010F4080010F80800100009001077
:103C100004090010080900100C0900101009001018
:103C200014090010180900101C09001020090010C8
:103C3000240900102C09001030090010340900106C
:103C4000380900103C090010400900104409001018
:103C5000480900104C090010830700107907001074
:103C6000A6070010C40900106C3B00105809001092
:103C700022F81010FD49FE480088401D31F8101050
:103C8000FB4800882A3022F81010FA48F8490988C1
:103C900030F81110F64800882D3022F81010F54940
:103CA000F3480088801D31F81010F148008830304A
:103CB00022F81010EF49EE480088C01C31F81010AF
:103CC000EB480088333022F81010EA49E8480088B1
:103CD000093031F81010E6480088363022F810100C
:103CE000E449E34800881B3031F81010E0480088B0
:103CF000393022F81010DF49DD480088123031F8E1
:103D00001010DB4800883C3022F81010D949D84800
:103D10000088153031F81010D54800883F3022F85F
:103D20001010D449D2480088183031F81010D0480B
:103D30000088423022F81010CE49CD4800880F305C
:103D400031F81010CA480088453022F81010C949CF
:103D5000C74800880C3031F81010C548008848303A
:103D600022F81010C44890F87703C34991F87613ED
:103D700040EA0121BE480088401DBC4A32F81000CC
:103D80006422504390FBF1F081B2BC4AB8480088ED
:103D90004D3022F81010B6480088401CB449088005
:103DA000B34800880328FFF621AEB0480088B34925
:103DB000A1F89600AD484088A1F898000020AC49D1
:103DC000088051E0AE48AA49098830F811000F90E8
:103DD0000DF060FCAB4AAC4BCDE910010DF08EFA52
:103DE000CDE912010DF012FC81B2A44AA04800886E
:103DF000523022F81010A2499D480088643031F8F2
:103E000010000F900DF046FC9E4A9F4BCDE910012B
:103E10000DF074FACDE912010DF0F8FB81B2974A6A
:103E200093480088843022F8101095499048008803
:103E3000C83031F810000F900DF02CFC914A924BD5
:103E4000CDE910010DF05AFACDE912010DF0DEFBBB
:103E500081B28A4A86480088B63022F81010844819
:103E60000088401C82490880814800883228A9DBEC
:103E70008648007801286ED14FF416707C4908807E
:103E800010E07B480088A0F51670784931F81000E2
:103E90007F49774A128821F8120075480088401C33
:103EA000734908807248008840F27E218842E8DB2E
:103EB0004FF426706E49088043E06D480088B0F5E5
:103EC000267F0BD06A480088A0F50071993905D08B
:103ED00067480088A0F500719A392DD1664890F89E
:103EE0007703654991F8761340EA01200D900DF0B3
:103EF000BAFBCDE910015E480088A0F293205B492F
:103F000031F81000642148430B900DF0ACFB002207
:103F1000604BCDE90C010DF00DFCCDE90E01DDE9A2
:103F200010230DF0EBF9CDE912010DF06FFB5849AC
:103F30004F4A128821F812004D480088401C4C4915
:103F400008804B48008840F29B218842B5DB084638
:103F50004749088011E0BAE045480088A0F29B205C
:103F60004D4931F810004A49414A128821F812009F
:103F70003F480088401C3E4908803D480088B0F515
:103F80002F7FE9DB00203A4908809AE03848008812
:103F900031280FDD36480088642803DB3448008868
:103FA000952807DD32480088C8280EDB3048008895
:103FB000F9280ADC32482E49098830F811003449C2
:103FC0002B4A128821F8120076E02948008832280E
:103FD00003DB27480088632810DD254800889628E1
:103FE00003DB23480088C72808DD21480088FA2819
:103FF0000FDB1F480088B0F5967F0ADA20481C497D
:10400000098830F811002249194A128821F8120053
:1040100052E017480088B0F5967F04DB144800880A
:10402000B0F5AF7F14DB12480088B0F5C87F04DB21
:104030000F480088B0F5E17F0ADB0D480088B0F535
:10404000FA7F2DDB0A48008840F22521884227DCD0
:1040500007480088A0F59670104931F810000C4907
:10406000034A128821F8120026E00000C40900105B
:10407000A607001040580010301800106C3B0010CC
:10408000D626001039B4C876BE9FF63F83070010CD
:10409000283E00100000F03F145E001026220010A1
:1040A000FC480088A0F59670FB4931F81000FB49E8
:1040B000F84A128821F81200F6480088401CF54999
:1040C0000880F4480088B0F5167FFFF65FAF15B0A2
:1040D00000BD70B50120F24908700020F149486127
:1040E000F1494860F1494860F148008830B9480218
:1040F000F04988670120EE49088006E04FF0007023
:10410000EC49C8670020EA490880E6488068EA4927
:10411000088008460088A0F52A41CC397ED10020CD
:10412000E6490860002533E0DE48C06810F0040F5F
:1041300005D06FF00C05DB488068DF494880DF4818
:104140000068401CDD49086008460068DC49884278
:104150000CD1DC48006848B94FF08040D549C861AF
:104160000120D84908600020D4490860D34800687D
:10417000D34988420BD1D3480068012807D1800772
:10418000CC4988610020CF490860CC4908606D1C8B
:1041900015F1100FC8D3C8484088B0F5807F0AD009
:1041A000C548408838B1C4484088102803D0C24868
:1041B00040880128B2D10020C0490860002535E0C0
:1041C000B848C06810F0040F05D06FF00C05B54872
:1041D0008068B9498880B9480068401CB7490860C0
:1041E00008460068B64988420CD1B648006848B90C
:1041F0004FF08040AF49C8610120B24908600020FB
:10420000AE490860AD480068AD4988420DD1AD485F
:104210000068012809D18007A64900E0E7E088612D
:104220000020A8490860A54908606D1C15F1100F11
:10423000C6D30020A1490860002533E09948C06832
:1042400010F0040F05D06FF00C05964880689A496D
:10425000C8809A480068401C984908600846006871
:10426000974988420CD19748006848B94FF0804080
:104270009049C86101209349086000208F49086077
:104280008E4800688E4988420BD18E48006801280C
:1042900007D180078749886100208A4908608749DB
:1042A00008606D1C15F1100FC8D38348C08814280E
:1042B00025D181484088012821D100241AE0824874
:1042C00030F814007749886000250EE07548C06812
:1042D00010F0040F08D06FF00C057248806881B2AE
:1042E000201D754A22F810106D1C15F1100FEDD32A
:1042F000601C84B27048C088401CA042DFDC6E485D
:10430000C088642804D06C48C088B0F5C87F6ED1DE
:1043100000244DE068484088B0F5807F07D16648AA
:1043200080882044694931F810005E498860002087
:1043300062490860002536E05A48C06810F0040F52
:1043400008D06FF00C055748806881B2201D5A4A8A
:1043500022F8101059480068401C58490860084667
:104360000068574988420CD15648006848B94FF058
:1043700080405049C86101205249086000204F49DF
:1043800008604E4800684E4988420BD14D4800688D
:10439000012807D180074749886100204949086002
:1043A000464908606D1C15F1100FC5D3601C84B21E
:1043B0004148C088401CA042ACDC3F484088B0B9AE
:1043C0003D484349086008460068083008603A489C
:1043D000C1883F480068FCF7C3F83749C988091D00
:1043E000354A32F81110884213D100240BE010E056
:1043F000201D314931F8100089882144354A22F8BE
:104400001100601C84B22C48C088A042F0DCFCF78C
:10441000EDF80420234948612F48007820B9012095
:10442000214948602149486070BD70B504460D4679
:1044300032202A4908600846446085602849294A94
:1044400090472748006870BD70B504460D4634207B
:10445000224908600846446085602348C8602049B6
:104460001E48204A90471E48006870BD70B504463B
:104470000D46164633201949086008464460856099
:10448000C6601948086116491448164A90471448EE
:10449000006870BDA607001026220010283E0010FC
:1044A000280700100080084000C0004000000140C4
:1044B000D806001000C009208C0A0010DC0600108D
:1044C00030570500E0060010901F0010CC5A001075
:1044D000E8060010C00D00104807001090150010ED
:1044E000B0150010F11FFF1F0077010070B50446E2
:1044F0000D4616463820FA49086008464460856033
:10450000C660F849F84A9047F648006870BD4FF415
:10451000F021002005E011F8013BDAB2F34B1A5408
:10452000401CB0F5707FF6D370474FF4F0210020A7
:1045300005E011F8013BDAB2ED4B1A54401CB0F51E
:10454000707FF6D370470CB50020009001900CE00E
:10455000E848007D10F0010F03D0E6480078009095
:1045600000E005E00198401C019001980828EFD375
:1045700000BF0CBD0CB50020009001900CE0DE489F
:10458000007D10F0010F03D0DB480078009000E0C0
:1045900005E00198401C019001980828EFD300BF66
:1045A0000CBD2DE9F041D548006840F00800D44921
:1045B000C1F8C4004FF08300CE4908734FF00002E9
:1045C000D04BD14903C90CF099FE05460022CF4BD0
:1045D0000CF094FE07460DF019F884B22046E1175E
:1045E00004EB1161090AC34A117111460C700320D2
:1045F00008738020087205200CF05DF80020BD498A
:104600004860FFF7A0FFBDE8F0812DE9F041BB480D
:10461000006840F01000BA49C1F8C4004FF08300B0
:10462000B54908734FF00002B64BB74903C90CF007
:1046300065FE05460022B54B0CF060FE07460CF007
:10464000E5FF84B22046E11704EB1161090AAA4A8A
:10465000117111460C700320087380200872062027
:104660000CF029F80020A4494860FFF783FFBDE85B
:10467000F081002108E09F4A127D12F0010F02D064
:10468000A3499C4A1078491CB1F5FA7FF3D37047CF
:10469000984B1870002106E0964A127D12F0400FE8
:1046A00000D09C49491C9C4A9142F5D37047002197
:1046B00008E0914A127D12F0010F02D094498E4A0F
:1046C0001078491CB1F5FA7FF3D370478A4B187004
:1046D000002106E0884A127D12F0400F00D08D497B
:1046E000491C8D4A9142F5D370478C48007840F0C0
:1046F00003008A49087000208949486501208949DA
:10470000086070477D48006840F400707C49C1F83B
:10471000C4008548007810F0100F06D08248007859
:1047200040F010007D4981F85C004FF000007B49AB
:1047300008740873087270477848007A40F00100E6
:10474000764908720120087070477448007A20F09A
:1047500001007249087270477048007A40F0020008
:104760006E49087270470FB47049009808706B4921
:10477000019881F824006E490298087067490398EF
:1047800081F82C00069881F83000079888860498F4
:1047900081F838000598888704B070470FB46549E0
:1047A000009808705D49019881F864006249029898
:1047B00008705A49039881F86C00069881F87000D7
:1047C0000798A1F87400049881F878000598A1F87A
:1047D0007C0004B0704710B588B004465348007898
:1047E00000904E4890F824000190514800780290C3
:1047F0005248007803905248007806904748808ECF
:1048000007905048007804904448808F05904FF0FE
:10481000200269462046FBF7DDFC08B010BD3F4A88
:10482000107470472DE9F14F84B004980DF092FA9E
:1048300080464FF06632444B0CF07CFF0646002267
:10484000424B0CF05BFD04460022414B0DF0A6F8F4
:10485000CDE902013F4904980DF08CFC80460DF033
:1048600079FA06464FF06632374B0CF063FF044688
:104870000022364B0CF042FDCDE90001DDE90223B8
:104880000CF03CFD82460CF0C1FE3349088000204C
:10489000324908706DE031480078DC2803D16E2081
:1048A0002F49088060E02F492C480078401C31F8DF
:1048B000100029490988884256DD2A49274800788E
:1048C000C01C31F810002449098888424CDA254878
:1048D0002249097830F81100214908804DE0000094
:1048E00090150010B0150010F11FFF1F30180010B8
:1048F000F01B001000C0004000000140C4C00F4089
:1049000000C00F4000003040780900100020FC403B
:10491000C0270900808D5B00404B4C0000400240E6
:1049200000C00920080000105C4002402040024006
:104930002840024060400240684002402C40024053
:10494000304002403840024066660A4000FEAF40F8
:104950000000144000E0AB464207001010070010B2
:104960000C0700101C050010F7480078801CF64961
:104970000870F5480078DE288DDB00BFF34800881A
:1049800005B0BDE8F08FB0B5F14DF2482843F249CB
:1049900008600846006840F08070086007E04FF04B
:1049A0007E51EE4800680DF001FAEC490860EA48D3
:1049B000406810F0004F05D1E949E84800680DF063
:1049C00025FBECD1E448006820F0E060E249086093
:1049D000E349E24800680DF019FB0BD0DE4840685F
:1049E000C0F30B1420460DF07DFB0746FFF71AFFBE
:1049F000DC4908803046B0BDB0B5D54D6D1CD548FA
:104A00002843D54908600846006840F08070086077
:104A100007E04FF07E51D14800680DF0C7F9CF494B
:104A20000860CD48406810F0004F05D1CC49CB4814
:104A300000680DF0EBFAECD1C748006820F0E060A8
:104A4000C5490860C649C54800680DF0DFFA0BD0BB
:104A5000C1484068C0F30B1420460DF043FB0746E5
:104A6000FFF7E0FEC04908803046B0BDB0B5B84D94
:104A7000ED1CB8482843B84908600846006840F073
:104A80008070086007E04FF07E51B44800680DF078
:104A90008DF9B2490860B048406810F0004F05D168
:104AA000AF49AE4800680DF0B1FAECD1AA480068F1
:104AB00020F0E060A8490860A949A84800680DF006
:104AC000A5FA0BD0A4484068C0F30B1420460DF0A3
:104AD00009FB0746FFF7A6FEA44908803046B0BD93
:104AE000B0B59B4DED1D9B4828439B490860084687
:104AF000006840F08070086007E04FF07E519748F2
:104B000000680DF053F9954908609348406810F02B
:104B1000004F05D19249914800680DF077FAECD129
:104B20008D48006820F0E0608B4908608C498B4814
:104B300000680DF06BFA0BD087484068C0F30B1487
:104B400020460DF0CFFA0746FFF76CFE8849088033
:104B50003046B0BD8748006840F480508649C1F8AF
:104B6000C40086487C490860704730B502460B4651
:104B70004FF6FF7011E012F8014B604000210AE08F
:104B800010F0010F04D04AF2010484EA600000E052
:104B900040104C1CE1B20829F2DB1C00A3F1010318
:104BA000E9D130BD06E0002100E0491C744A914281
:104BB000FBD3401E0028F6D170472DE9F0470022B4
:104BC000704B714903C90CF099FB064600226F4BEC
:104BD0000CF0D8FA044600224FF080430CF08EFB14
:104BE00080460CF013FD6A4908610022654B664956
:104BF00003C90CF083FB064600224FF080430CF003
:104C00007DFB04460CF002FD614948612C2088615F
:104C100040200860BDE8F08770B504462C255C4E46
:104C2000B56142F2107000E0401E0028FCD1602502
:104C3000574E356042F2107000E0401E0028FCD153
:104C4000534DAC6042F2107000E0401E0028FCD1D1
:104C500028254F4EB56142F2107000E0401E00283A
:104C6000FCD1C1F307254A4EB56042F2107000E056
:104C7000401E0028FCD12825454EB56142F2107037
:104C800000E0401E0028FCD1CDB2414EB56042F29A
:104C9000107000E0401E0028FCD128253C4EB56174
:104CA00042F2107000E0401E0028FCD12025384E52
:104CB000356042F2107000E0401E0028FCD108254B
:104CC000334EB56142F2107000E0401E0028FCD166
:104CD000651C2F4EB56042F2107000E0401E0028A7
:104CE000FCD128252A4EB56142F2107000E0401E2A
:104CF0000028FCD100BF0425254E356042F210701B
:104D000000E0401E0028FCD12825214EB56142F26A
:104D1000107000E0401E0028FCD11D4DAD6802F867
:104D2000015B5B1E012BE6D82425194EB56142F2CA
:104D3000107000E0401E0028FCD10825144EB5611B
:104D400042F2107027E00000100700100C0700105E
:104D50000100000100012000004003400007001096
:104D6000FFFF7F4B080700100A0700100407001020
:104D700006070010C4C00F4000C00F400F062000FF
:104D8000A0860100006A1841780900100000F03F79
:104D900000C00540401E0028FCD1FE4DAD681570D6
:104DA00042F2107000E0401E0028FCD11025F94EA0
:104DB000356042F2107000E0401E0028FCD128252A
:104DC000F44EB56142F2107000E0401E0028FCD1A4
:104DD00070BD70B504462C25EE4EB561602535607A
:104DE000002000E0401C42F21075A842FAD3E94DC1
:104DF000AC602825E74EB561002000E0401C42F27F
:104E00001075A842FAD3C1F30725E24EB5602825F4
:104E1000B561002000E0401C42F21075A842FAD3B0
:104E2000CDB2DC4EB5602825B561002000E0401C05
:104E300042F21075A842FAD30DE012F8015BD54E8C
:104E4000B5602825B561002000E0401C42F21075D5
:104E5000A842FAD35B1E002BEFD11025CD4E356052
:104E60002825B561002000E0401C42F21075A842E0
:104E7000FAD370BD70B54FF47A70C7490880488086
:104E8000C648C74908604FF470730846194602685F
:104E9000A020FFF7C1FEC14890F8BF0301287DD0D4
:104EA0000020BE4908706420487000208870E62009
:104EB000C870002008713220487100208871C871C4
:104EC00008726420487200208872C8720873152026
:104ED000487300208873C8730874642048740020E5
:104EE00088741920C874002008750F2048750020A8
:104EF00088753220C87502200876DA2048760320AB
:104F000088762020C8760020087732204877002055
:104F100088771920C877002081F82000062081F8C2
:104F20002100002081F8220081F8230081F824006C
:104F300081F8250081F8260081F82700282404E064
:104F4000002096490855601C84B2A22CF8DB03208F
:104F5000924981F8A200E82081F8A300032081F89B
:104F6000A400E82081F8A500032081F8A600E8202D
:104F700081F8A700032081F8A800E82081F8A900A3
:104F8000032081F8AA00E82081F8AB00032081F813
:104F9000AC00E82081F8AD00032000E014E281F8C5
:104FA000AE00E82081F8AF00032081F8B000E820CF
:104FB00081F8B100032081F8B200E82081F8B30045
:104FC000032081F8B400E82081F8B500032081F8BF
:104FD000B600E82081F8B700032081F8B800E82087
:104FE00081F8B900072081F8BA00D02081F8BB0011
:104FF000002081F8BC00C82081F8BD00002081F8A5
:10500000BE00962081F8BF00012081F8C0002C204E
:1050100081F8C100002081F8C200322081F8C3006D
:10502000002081F8C4003C2081F8C500072081F8E9
:10503000C600D02081F8C700032081F8C800E8200E
:1050400081F8C900032081F8CA00A22081F8CB00B2
:10505000002081F8CC003C2081F8CD00032081F8AD
:10506000CE00D42081F8CF00012081F8D0009A2012
:1050700081F8D100032081F8D200DE2081F8D3002E
:10508000032081F8D400E82081F8D500032081F8BE
:10509000D600E82081F8D700032081F8D800E82066
:1050A00081F8D900032081F8DA00DC2081F8DB00E8
:1050B000022081F8DC009B2081F8DD00002081F8CF
:1050C000DE000A2081F8DF00012081F8E000F420F2
:1050D00081F8E100002081F8E200082081F8E30077
:1050E000002081F8E400142081F8E500002081F818
:1050F000E600462081F8E700002081F8E80081F80A
:10510000E900012081F8EA005E2081F8EB00002030
:1051100081F8EC0081F8ED0081F8EE00022081F8C2
:10512000EF00002081F8F000142081F8F100272022
:1051300081F8F200102081F8F300272081F8F400B4
:10514000102081F8F500272081F8F600102081F862
:10515000F700272081F8F800102081F8F9002720B7
:1051600081F8FA00102081F8FB00272081F8FC006C
:10517000102081F8FD00272081F8FE00102081F822
:10518000FF00272081F80001102081F8010127206D
:1051900008E0000000C00540901F0010301800100B
:1051A0006009001081F80201102081F80301272016
:1051B00081F80401102081F80501272081F80601FB
:1051C000102081F80701272081F80801102081F8BC
:1051D0000901272081F80A01102081F80B012720FE
:1051E00081F80C01122081F80D014FF4877408E05A
:1051F0002720FE4908551021FC4A601C1154A01CB0
:1052000084B2B4F58D7FF3DB4FF48D7423E003207B
:10521000F6490855E821F54A601C11540021633015
:105220001154401C1154032163301154E821401CD7
:105230001154002163301154401C11540321633078
:105240001154E821401C1154002163301154401CBA
:105250001154A01C84B2B4F5BF7FD8DB0020E34911
:1052600081F8720381F8730381F87403052081F8D3
:105270007503002081F87603322081F8770302203D
:1052800081F87803582081F87903072081F87A03A0
:10529000082081F87B03002081F87C03082081F836
:1052A0007D03002081F87E0381F87F0381F880036D
:1052B00081F8810381F88203012081F883030020B3
:1052C00081F884036E2081F88503002081F886032D
:1052D0005A2081F88703002081F88803692081F82B
:1052E0008903002081F88A035F2081F88B03032063
:1052F00081F88C03E82081F88D03002081F88E036B
:1053000081F88F0381F8900381F8910381F892036B
:1053100081F8930381F8940381F8950381F896034B
:1053200081F8970381F8980381F8990381F89A032B
:1053300081F89B0381F89C0381F89D0381F89E030B
:1053400081F89F0381F8A00381F8A10381F8A203EB
:1053500081F8A30381F8A40381F8A50340F2A634E1
:1053600004E00020A1490855601C84B240F2BF301F
:105370008442F6DB01209D4981F8BF0340059C492A
:10538000C86100241AE099489A49086008460068F4
:1053900000EB441008604FF4707000EB44112023C0
:1053A00094480268A020FFF714FD4FF6F07501E065
:1053B000681E85B2002DFBDC601C84B21E2CE2DB73
:1053C0004FF400108A498861FFF7A1F8874890F8E8
:1053D000BF0301287DD000208449087064204870F4
:1053E00000208870E620C8700020087132204871C3
:1053F00000208871C8710872642048720020887289
:10540000C87208731520487300208873C873087425
:1054100064204874002088741920C874002008751E
:105420000F204875002088753220C8750220087644
:10543000DA204876032088762020C8760020087776
:1054400032204877002088771920C877002081F81B
:105450002000062081F82100002081F8220081F838
:10546000230081F8240081F8250081F8260081F8C6
:105470002700282404E000205C490855601C84B201
:10548000A22CF8DB0320594981F8A200E82081F81A
:10549000A300032081F8A400E82081F8A5000320E0
:1054A00081F8A600E82081F8A700032081F8A80071
:1054B000E82081F8A900032081F8AA00E82081F8FB
:1054C000AB00032081F8AC00E82081F8AD00032098
:1054D00000E0FFE181F8AE00E82081F8AF00032092
:1054E00081F8B000E82081F8B100032081F8B20013
:1054F000E82081F8B300032081F8B400E82081F8A7
:10550000B500032081F8B600E82081F8B700032039
:1055100081F8B800E82081F8B900072081F8BA00C6
:10552000D02081F8BB00002081F8BC00C82081F8A1
:10553000BD00002081F8BE00962081F8BF00012048
:1055400081F8C0002C2081F8C100002081F8C20041
:10555000322081F8C300002081F8C4003C2081F88B
:10556000C500072081F8C600D02081F8C7000320BD
:1055700081F8C800E82081F8C900032081F8CA003A
:10558000A22081F8CB00002081F8CC003C2081F8DB
:10559000CD00032081F8CE00D42081F8CF00012077
:1055A00081F8D0009A2081F8D100032081F8D20040
:1055B000DE2081F8D300032081F8D400E82081F8B0
:1055C000D500032081F8D600E82081F8D700032019
:1055D00081F8D800E82081F8D900032081F8DA00AA
:1055E000DC2081F8DB00022006E00000301800100B
:1055F00000C009206009001081F8DC009B2081F8C0
:10560000DD00002081F8DE000A2081F8DF000120A3
:1056100081F8E000F42081F8E100002081F8E20048
:10562000082081F8E300002081F8E400142081F8CC
:10563000E500002081F8E600462081F8E700002020
:1056400081F8E80081F8E900012081F8EA005E2095
:1056500081F8EB00002081F8EC0081F8ED0081F882
:10566000EE00022081F8EF00002081F8F000142005
:1056700081F8F100272081F8F200102081F8F30072
:10568000272081F8F400102081F8F500272081F808
:10569000F600102081F8F700272081F8F80010208C
:1056A00081F8F900272081F8FA00102081F8FB002A
:1056B000272081F8FC00102081F8FD00272081F8C8
:1056C000FE00102081F8FF00272081F80001102043
:1056D00081F80101272081F80201102081F80301DF
:1056E000272081F80401102081F80501272081F886
:1056F0000601102081F80701272081F808011020F9
:1057000081F80901272081F80A01102081F80B0196
:10571000272081F80C01122081F80D014FF48774C5
:1057200008E02720FD4908551021FC4A601C11544F
:10573000A01C84B2B4F58D7FF3DB4FF48D7423E0AD
:105740000320F6490855E821F44A601C1154002151
:1057500063301154401C1154032163301154E8216B
:10576000401C1154002163301154401C115403217A
:1057700063301154E821401C11540021633011544E
:10578000401C1154A01C84B2B4F5BF7FD8DB0020AC
:10579000E24981F8720381F8730381F874030520EC
:1057A00081F87503002081F87603322081F87703B1
:1057B000022081F87803582081F87903072081F8C6
:1057C0007A03082081F87B03002081F87C030820FD
:1057D00081F87D03002081F87E0381F87F0381F842
:1057E000800381F8810381F88203012081F883031B
:1057F000002081F884036E2081F88503002081F861
:1058000086035A2081F88703002081F888036920E5
:1058100081F88903002081F88A035F2081F88B03D7
:10582000032081F88C03E82081F88D03002081F8A3
:105830008E0381F88F0381F8900381F8910381F83A
:10584000920381F8930381F8940381F8950381F81A
:10585000960381F8970381F8980381F8990381F8FA
:105860009A0381F89B0381F89C0381F89D0381F8DA
:105870009E0381F89F0381F8A00381F8A10381F8BA
:10588000A20381F8A30381F8A40381F8A50340F2E1
:10589000A63404E00020A1490855601C84B240F2FF
:1058A000BF308442F6DB01209C4981F8BF031D21F3
:1058B0000846FEF7BAFD1D210846FEF7C5FD1D216D
:1058C0000846FEF7B2FD4FF4806294494FF4F02091
:1058D000FEF7CCFD9148924908604FF4707308467A
:1058E00000210268A020FFF797F98C4890F8BF03C9
:1058F00001282ED089488A4908604FF47073084601
:1059000019460268A020FFF787F94FF40010854977
:10591000C861002417E08148814908600846006892
:1059200000EB44100860610120237D480268A0203C
:10593000FFF74FFA4FF6FF7501E0681E85B2002DA4
:10594000FBDC601C84B21E2CE5DB4FF400107549B3
:105950008861724890F87303704991F8721340EAB5
:105960000120012801D1704908706C4890F87F032C
:105970006A4991F87E1340EA01206C490880674823
:1059800090F88103654991F8801340EA0120684945
:105990000870624890F88203642190FBF1F00228BD
:1059A00002D16449087014E05C4890F882036421D5
:1059B00090FBF1F0012802D15E49087009E05748D8
:1059C00090F88203642190FBF1F010B9002059494E
:1059D000087057480078012830D14FF42F7411E037
:1059E000A4F52F704000401C4C49095CA4F52F70B1
:1059F0004A4A12F8100041EA00204F4921F81400E9
:105A0000601C84B240F202308442E9DB044611E0BB
:105A1000A4F2B1204000401C4049095CA4F2B1202E
:105A20003E4A12F8100041EA0020434921F81400D0
:105A3000601C84B240F26A408442E9DB70BD10B55C
:105A4000014601297ED1354A5278344B1B7842EA0F
:105A500003223A4B1A80314A527C304B1B7C42EA7B
:105A60000322364B5A802D4AD2782C4B9B7842EA3F
:105A70000322324B9A80294AD279284B9B7942EAF9
:105A800003222E4BDA80254A92F82320234B93F8E9
:105A9000223042EA0322294B1A81204A92F8E5205B
:105AA0001E4B93F8E43042EA0322244B5A81244AE5
:105AB0009278234B5B7842EA0322204B9A81174A63
:105AC000527F164B1B7F42EA03221C4BDA81134A9A
:105AD000D27F124B9B7F42EA0322184B1A82184A4C
