:020000040000FA
:1000000058710010A1010000A5010000A701000027
:10001000A9010000AB010000AD01000000000000DC
:10002000000000000000000000000000AF01000020
:10003000B101000000000000B3010000B5010000A4
:10004000B7010000B70100003B850000718300008C
:100050001D8100005F8E0100F78E0100B7010000D6
:10006000B7010000B7010000B7010000B7010000B0
:10007000B7010000B7010000695B0000B701000094
:10008000B701000007600000B7010000B7010000E1
:10009000B7010000B7010000B7010000B701000080
:1000A000B7010000B7010000B7010000B701000070
:1000B000B7010000B7010000B7010000B701000060
:1000C000B701000000F002F800F05AF80AA090E82A
:1000D000000C82448344AAF10107DA4501D100F003
:1000E0004FF8AFF2090EBAE80F0013F0010F18BF76
:1000F000FB1A43F00103184708AE010028AE0100C7
:100100000A444FF0000C10F8013B13F0070408BF3D
:1001100010F8014B1D1108BF10F8015B641E05D0DB
:1001200010F8016B641E01F8016BF9D113F0080F90
:100130001EBF10F8014BAD1C0C1B09D16D1E58BF22
:1001400001F801CBFAD505E014F8016B01F8016B59
:100150006D1EF9D59142D6D37047000000230024CC
:1001600000250026103A28BF78C1FBD8520728BFC7
:1001700030C148BF0B6070471FB51FBD10B510BD23
:1001800000F070F81146FFF7F7FF09F098FF00F054
:100190008EF803B4FFF7F2FF03BC00F08FF8000005
:1001A00008480047FEE7FEE7FEE7FEE7FEE7FEE75A
:1001B000FEE7FEE7FEE7FEE703480449024A044B78
:1001C00070470000C5000000586900105871001009
:1001D0005869001010B5203AC0F00B80B1E81850F3
:1001E000203AA0E81850B1E81850A0E81850BFF421
:1001F000F5AF5FEA027C24BFB1E81850A0E81850C0
:1002000044BF18C918C0BDE810405FEA827C24BF13
:1002100051F8043B40F8043B08BF7047D20728BFA1
:1002200031F8023B48BF11F8012B28BF20F8023BF0
:1002300048BF00F8012B704770477047704710B5F2
:1002400000F008F8006810BD10B5044600F002F890
:10025000046010BD00487047F868001000487047FF
:10026000F86800107546FFF7F9FFAE4605006946CD
:10027000534620F00700854618B020B5FFF79CFFD5
:10028000BDE820404FF000064FF000074FF0000897
:100290004FF0000B21F00701AC46ACE8C009ACE818
:1002A000C009ACE8C009ACE8C0098D4670470446F7
:1002B000AFF300802046FFF76CFF000001491820D3
:1002C000ABBEFEE7260002007047490050EAC1209D
:1002D00018BF04204A0D18BF40F0010040F2FF7221
:1002E000B2EB515F08BF40F00200012808BF0520B3
:1002F0007047FF2141EAD050C0057047FFFFFFFF64
:1003000020208549086000BF8348006810F0400F36
:10031000FAD00320814908604FF001008049C1F8FC
:100320000C014FF00F007F4908604FF00100A1F170
:10033000040108604FF0AA007B4908604FF05500A7
:100340007749C1F88C0000BF7848006810F0806FD2
:10035000FAD00320764908604FF0AA007049C1F82E
:100360008C004FF05500704908604FF02300714930
:1003700008604FF00100A1F1040108604FF0AA00ED
:100380006D4908604FF05500086000BF6B48006879
:1003900010F4806FFAD00320694908604FF0AA007A
:1003A0005F49C1F8AC004FF05500634908604FF059
:1003B00000006449086001F1040108606248634973
:1003C00008604FF000005649C1F8C8010846D0F84F
:1003D0008800C0F30160032868D15D48006810F010
:1003E000030006D0012823D002283FD003285CD187
:1003F00000E000BF4D480068C0F30E0000F10100AE
:100400004FEA40014648D0F88800C0F3074000F1A9
:100410000100B1FBF0F04F4900FB01F03F490968D2
:10042000C9B201F10101B0FBF1F04B4908603CE0B9
:100430003E480068C0F30E0000F101004FEA4001A1
:100440003748D0F88800C0F3074000F10100B1FB45
:10045000F0F0424900FB01F030490968C9B201F1EE
:100460000101B0FBF1F03C4908601EE02F48006834
:10047000C0F30E0000F101004FEA40012848D0F817
:100480008800C0F3074000F10100B1FBF0F04FF429
:10049000FA4100FB01F021490968C9B201F10101EB
:1004A000B0FBF1F02C49086000BF2FE0284800683D
:1004B00010F0030006D0012810D0022819D003281C
:1004C00023D100E000BF15480068C0B200F1010070
:1004D0002049B1FBF0F02049086016E00F480068A1
:1004E000C0B200F101001D49B1FBF0F01A490860EB
:1004F0000BE00A480068C0B200F101004FF4FA4175
:10050000B1FBF0F01449086000BF00BF43F23A00AD
:100510000349086070470000A0C10F4004C10F40AC
:1005200000C00F4084C00F408CC00F4088C00F40F7
:1005300080C00F40A4C00F40ACC00F40A8C00F4007
:10054000A0C00F40A8C10F40DE87E804C4C00F4020
:100550000CC10F4000093D0000000010001BB70057
:1005600030B502460B464FF6FF7011E032F8024BF1
:10057000604000210AE010F0010F04D04AF20104AB
:1005800084EA600000E040104C1CA1B21029F2DBAC
:100590001C00A3F10105ABB2E8D130BD10B5FE4897
:1005A000006840F40010FD49C1F8C4000846D0F8C6
:1005B000AC0120F44060C1F8AC010846D0F8AC01B1
:1005C00040F48060F64908604FF00F00F54908607C
:1005D0004FF0060048604FF0000048614FF00E00F9
:1005E00018F0BDFC0420EF49486110BD00B595B07E
:1005F0000020ED4908800EE0EC48EB49098830F80E
:100600001100EB49E84A128821F81200E6480088F8
:10061000401CE5490880E4480088B0F5967FEBDB94
:100620004FF49670E049088083E0DF480088B0F519
:10063000967F04DBDC480088B0F5AF7F14DBDA4836
:100640000088B0F5C87F04DBD7480088B0F5E17FAB
:100650000ADBD5480088B0F5FA7F4DDBD248008828
:1006600040F22621884247DAD048CF49098830F83D
:10067000110013901AF03AF9CE490860CE4890F86C
:100680007703CD4991F8761340EA0121084613918A
:100690001AF014F9C9490860C7484079C649097970
:1006A00040EA0121084612911AF008F90146139018
:1006B000C24800681AF020F8C0490860084601687E
:1006C000BC4800681AF05AF913901AF0D7F881B2B2
:1006D000B5480088A0F59670B94A22F81010B548C0
:1006E00000681AF0CBF881B2AF480088A0F5967088
:1006F000B44A22F8101017E0AC48AB49098830F82A
:100700001110A9480088A0F59670AD4A22F8101083
:10071000A648A549098830F81110A3480088A0F51B
:100720009670A84A22F810109F480088401C9E49E5
:1007300008809D480088B0F5167FFFF676AF4FF42D
:1007400016709949088010E098489749098830F850
:10075000111095480088A0F516709B4A22F81010D9
:1007600091480088401C904908808F480088B0F567
:100770002F7FE9DB4FF42F708B49088010E08B4806
:100780008949098830F8111087480088A0F52F7032
:100790008E4A22F8101084480088401C8249088044
:1007A00081480088B0F57A7FE9DB0020884908702D
:1007B0007D49088002F0A0B97B480088012803DB4E
:1007C0007948008832280FDB77480088652803DBEA
:1007D00075480088962807DB73480088C9283CDBE9
:1007E00071480088FA2838DA71486F49098830F86A
:1007F000110073496C4A128831F81210884220DBCC
:100800006B486949098830F811106D48664A1288AA
:1008100030F81200081A6F49634A128821F8120052
:1008200063486149098830F8110066495E4A1288B8
:1008300031F81210401A68495B4A128821F81200F8
:100840001FE000206349584A128821F812006249CB
:10085000554A128821F8120013E055485249098878
:1008600030F811105B48504A128820F81210504896
:100870004D49098830F8111057484B4A128820F822
:1008800012104948008840B147480088642804D0C5
:1008900045480088C82842F02A81454942480088D6
:1008A000323031F81000B0F5004F31DB3E4800889F
:1008B000323031F81000A0F57F40FF38079019F072
:1008C0000AFB464A464BCDE9080119F06BFB0022B2
:1008D000444BCDE90A0119F049F9CDE90C0118F0B2
:1008E000D9FFCDE9100132482F49098830F81100AD
:1008F0000D9019F007FBCDE90E01DDE9102319F089
:1009000051FBCDE9120119F043F8374908602EE098
:10091000274925480088323031F81000079019F037
:10092000F1FA2E4A2E4BCDE9080119F03BFB0022CB
:100930002C4BCDE90A0119F019F9CDE90C0118F099
:10094000A9FFCDE910011A481749098830F81100AC
:100950000D9019F0D7FACDE90E01DDE9102319F059
:1009600021FBCDE9120119F013F81F490860144961
:100970000D480088323031F81000B0F5004F5CDBD4
:1009800009480088323031F81000A0F57F40FF3868
:10099000079019F0A0FA29E0C4C00F4000C00F4032
:1009A000ACC10F400080084086090010A00D001067
:1009B0005E24001088090010101800108C09001027
:1009C00006220010AE1F0010A4090010662B0010B4
:1009D000840700100E290010B62600104AD8124DC8
:1009E000FB2109400094D140E4060010FD4AFE4B73
:1009F000CDE9080119F0D6FA0022FC4BCDE90A0135
:100A000019F0B4F8CDE90C0118F044FFCDE910015C
:100A1000F748F849098830F811000D9019F072FA7A
:100A2000CDE90E01DDE9102319F0BCFACDE9120180
:100A300018F0AEFFF04908602FE0ED49ED4800885E
:100A4000323031F81000079019F05CFAE54AE64BB5
:100A5000CDE9080119F0A6FA0022E44BCDE90A011C
:100A600019F084F8CDE90C0118F014FFCDE910015C
:100A7000DF48E049098830F8111008460D9119F057
:100A800041FACDE90E01DDE9102319F08BFACDE929
:100A9000120118F07DFFD8490860D7480168D7488F
:100AA000006819F0BBFDD5490860D549D1480088D8
:100AB000323031F81000B0F5004F31DBCD480088FE
:100AC000323031F81000A0F57F40FF38079019F060
:100AD00002FAC44AC44BCDE9080119F063FA0022B6
:100AE000C24BCDE90A0119F041F8CDE90C0118F02B
:100AF0007BFECDE91001C248BE49098830F81100DB
:100B00000D9019F0FFF9CDE90E01DDE9102319F080
:100B100049FACDE9120118F03BFFBA4908602FE00D
:100B2000B749B4480088323031F81000079019F006
:100B3000E9F9AC4AAC4BCDE9080119F033FA0022CF
:100B4000AA4BCDE90A0119F011F8CDE90C0118F012
:100B50004BFECDE91001AA48A649098830F81110CA
:100B600008460D9119F0CEF9CDE90E01DDE910230B
:100B700019F018FACDE9120118F00AFFA14908602E
:100B80009B499C480088323031F81000B0F5004F86
:100B900031DB98480088323031F81000A0F57F40F2
:100BA000FF38079019F097F98E4A8F4BCDE908016D
:100BB00019F0F8F900228D4BCDE90A0118F0D6FFA3
:100BC000CDE90C0118F010FECDE9100188488949E3
:100BD000098830F811000D9019F094F9CDE90E0153
:100BE000DDE9102319F0DEF9CDE9120118F0D0FE8D
:100BF000854908602EE07E497E480088323031F811
:100C00001000079019F07EF9764A774BCDE908017C
:100C100019F0C8F90022754BCDE90A0118F0A6FFBA
:100C2000CDE90C0118F0E0FDCDE9100170487149E3
:100C3000098830F811000D9019F064F9CDE90E0122
:100C4000DDE9102319F0AEF9CDE9120118F0A0FE8C
:100C50006D4908606C4801686A48006819F0DEFC5C
:100C60006849086008460168006819F087FE0E9020
:100C700062480168006819F081FE0D900E9919F024
:100C8000CDFC0F9019F09EFCCDE9100118F05AFE32
:100C9000CDE9120119F0F2F85C49564A128821F8A0
:100CA0001200574953480088323031F81000B0F52F
:100CB000004F31DB4F480088323031F81000A0F58A
:100CC0007F40FF38079019F006F9464A464BCDE9B8
:100CD000080119F067F90022444BCDE90A0118F028
:100CE00045FFCDE90C0118F0D5FDCDE910014448D0
:100CF0004049098830F811000D9019F003F9CDE949
:100D00000E01DDE9102319F04DF9CDE9120118F0BB
:100D10003FFE3A4908602EE03949364800883230B3
:100D200031F81000079019F0EDF82E4A2E4BCDE95E
:100D3000080119F037F900222C4BCDE90A0118F00F
:100D400015FFCDE90C0118F0A5FDCDE910012C48E7
:100D50002849098830F811000D9019F0D3F8CDE931
:100D60000E01DDE9102319F01DF9CDE9120118F08B
:100D70000FFE2249086026491E480088323031F8AB
:100D80001000B0F5004F4CDB1A480088323031F8C3
:100D90001000A0F57F40FF38079019F09CF8114A29
:100DA000114BCDE9080119F0FDF800220F4BCDE9F8
:100DB0000A0118F0DBFECDE90C0118F06BFDCDE95E
:100DC000100113480B49098830F8111008460D919D
:100DD00019F098F8CDE90E01DDE9102319F0E2F8D9
:100DE00018E000004AD8124DFB2109400094D14080
:100DF0000622001086090010E8060010E406001024
:100E00005E240010EC060010F00600100E29001001
:100E1000AE1F0010CDE9120118F0BAFDFC490860C0
:100E20002EE0FC49FC480088323031F81000079071
:100E300019F068F8F94AFA4BCDE9080119F0B2F84F
:100E40000022F84BCDE90A0118F090FECDE90C0123
:100E500018F020FDCDE91001EE48EF49098830F87F
:100E600011000D9019F04EF8CDE90E01DDE91023C7
:100E700019F098F8CDE9120118F08AFDE4490860EC
:100E8000E3480168E848006819F0C8FBE6490860D3
:100E9000E649E1480088323031F81000B0F5004FE3
:100EA00032DBDD480088323031F81000A0F57F4099
:100EB000FF38079019F00FF8D84AD94BCDE908014F
:100EC00019F070F80022D74BCDE90A0118F04EFE58
:100ED000CDE90C0118F088FCCDE91001D348CE49CA
:100EE000098830F8111008460D9119F00BF8CDE97A
:100EF0000E01DDE9102319F055F8CDE9120118F0C3
:100F000047FDCB4908602EE0C849C348008832300D
:100F100031F81000079018F0F5FFC04AC04BCDE93A
:100F2000080119F03FF80022BE4BCDE90A0118F084
:100F30001DFECDE90C0118F057FCCDE91001BB48AE
:100F4000B549098830F811000D9018F0DBFFCDE9A4
:100F50000E01DDE9102319F025F8CDE9120118F092
:100F600017FDB3490860AB49AB480088323031F80F
:100F70001000B0F5004F32DBA7480088323031F85E
:100F80001000A0F57F40FF38079018F0A4FFA34A97
:100F9000A34BCDE9080119F005F80022A14BCDE9DA
:100FA0000A0118F0E3FDCDE90C0118F01DFCCDE9B4
:100FB000100198489849098830F8111008460D9199
:100FC00018F0A0FFCDE90E01DDE9102318F0EAFFCB
:100FD000CDE9120118F0DCFC964908602FE08D493C
:100FE0008D480088323031F81000079018F08AFFE1
:100FF0008A4A8B4BCDE9080118F0D4FF0022894BB7
:10100000CDE90A0118F0B2FDCDE90C0118F0ECFBB6
:10101000CDE910017F488049098830F81110084651
:101020000D9118F06FFFCDE90E01DDE9102318F0E6
:10103000B9FFCDE9120118F0ABFC7E4908607D488C
:1010400001687B48006819F0E9FA794908600846A8
:101050000168006819F092FC0E90734801680068FE
:1010600019F08CFC0D900E9919F0D8FA0F9019F028
:10107000A9FACDE9100118F065FCCDE9120118F0CC
:10108000FDFE6D49644A128821F812006B48007811
:1010900021306B4931F81000139019F027FC654995
:1010A000086068496348006819F02FFD7ED25F49E7
:1010B00059480088323031F81000B0F5004F53DB4A
:1010C00055480088323031F81000A0F57F40FF38D5
:1010D000019018F000FF514A514BCDE9020118F080
:1010E00061FF00224F4BCDE9040118F03FFDCDE92F
:1010F000080155494F48006819F038FD019019F072
:1011000061FA464A464BCDE9020118F04BFF002236
:10111000444BCDE9040118F029FDCDE90601DDE9D4
:10112000082319F065F93D4A484BCDE90A0119F049
:101130005FF9CDE90C0118F057FBCDE910013B48F0
:101140003549098830F811000D9018F0DBFECDE923
:101150000E01DDE9102318F025FFCDE9120118F08A
:1011600017FC3149086019E130492B4800883230BA
:1011700031F81000019018F0C5FE284A284BCDE93F
:10118000020118F00FFF0022264BCDE9040118F0F0
:10119000EDFCCDE908012C492648006819F0E6FC71
:1011A000019019F00FFA1D4A1D4B00E050E0CDE907
:1011B000020118F0F7FE00221A4BCDE9040118F0E5
:1011C000D5FCCDE90601DDE9082319F011F9134A30
:1011D0001E4BCDE90A0119F00BF9CDE90C0118F00D
:1011E00003FBCDE9100111480B49098830F81100C3
:1011F0000D9018F087FECDE90E01DDE9102318F0FF
:10120000D1FECDE9120118F0C3FB07490860C5E023
:10121000E8060010AE1F0010860900104AD8124DD3
:10122000FB2109400094D140E40600105E24001028
:10123000EC060010F0060010B6260010840700101F
:10124000A409001000FEFF4600FF7F47FB21F93F85
:10125000FD49FE480088323031F81000B0F5004FEB
:101260004FDBFA480088323031F81000A0F57F409B
:10127000FF38059018F02FFEF54AF64BCDE9060130
:1012800018F090FE0022F44BCDE9080118F06EFC36
:10129000CDE90C01F148006819F094F9EC4AED4BE6
:1012A000CDE9060118F07EFE0022EB4BCDE90801E6
:1012B00018F05CFCCDE90A01DDE90C2319F098F87F
:1012C000E34AE74BCDE90E0119F092F8CDE91001A0
:1012D00018F08AFACDE9120118F05AFBE1490860CA
:1012E000D948DA49098830F81100129019F0FEFA4D
:1012F0001390DC480168139819F040FBD949086045
:101300004CE0D149D1480088323031F810000190CA
:1013100018F0F8FDCE4ACF4BCDE9020118F042FE9D
:101320000022CD4BCDE9040118F020FCCDE90801E5
:10133000CA48006819F046F9C54AC64BCDE9020112
:1013400018F030FE0022C44BCDE9040118F00EFC69
:10135000CDE90601DDE9082319F04AF8BC4AC04B83
:10136000CDE90A0119F044F8CDE90C0118F03CFA76
:10137000CDE91001B448B549098830F811000D9045
:1013800018F0C0FDCDE90E01DDE9102318F00AFECA
:10139000CDE9120118F0FCFAB2490860B249AF4831
:1013A000006819F0B2FB7DD2B049A84800883230FD
:1013B00031F81000B0F5004F53DBA44800883230FC
:1013C00031F81000A0F57F40FF38019018F083FD40
:1013D0009F4AA04BCDE9020118F0E4FD00229E4B8C
:1013E000CDE9040118F0C2FBCDE90801A0499B48F2
:1013F000006819F0BBFB019019F0E4F8944A954B92
:10140000CDE9020118F0CEFD0022934BCDE9040195
:1014100018F0ACFBCDE90601DDE9082318F0E8FF80
:101420008B4A8F4BCDE90A0118F0E2FFCDE90C01A0
:1014300018F0DAF9CDE910018C488449098830F8B0
:1014400011000D9018F05EFDCDE90E01DDE91023CD
:1014500018F0A8FDCDE9120118F09AFA8549086044
:1014600012E1824979480088323031F81000019049
:1014700018F048FD764A774BCDE9020118F092FD4D
:101480000022754BCDE9040118F070FBCDE908018D
:1014900077497248006819F069FB019019F092F8D9
:1014A0006B4A00E031E06B4BCDE9020118F07AFDA8
:1014B0000022694BCDE9040118F058FBCDE9060183
:1014C000DDE9082318F094FF614A654BCDE90A0174
:1014D00018F08EFFCDE90C0118F086F9CDE9100166
:1014E00062485A49098830F811000D9018F00AFD39
:1014F000CDE90E01DDE9102318F054FDCDE912010C
:1015000018F046FA5B490860BEE058494F48008829
:10151000323031F81000B0F5004F4FDB4B480088F7
:10152000323031F81000A0F57F40FF38019018F0FC
:10153000D2FC474A474BCDE9020118F033FD0022A7
:10154000454BCDE9040118F011FBCDE908014348F2
:10155000006819F037F83E4A3E4BCDE9020118F019
:1015600021FD00223C4BCDE9040118F0FFFACDE942
:101570000601DDE9082318F03BFF354A384BCDE979
:101580000A0118F035FFCDE90C0118F02DF9CDE96D
:10159000100136482D49098830F811000D9018F0D7
:1015A000B1FCCDE90E01DDE9102318F0FBFCCDE91B
:1015B000120118F0EDF92F49086065E02B49234826
:1015C0000088323031F81000019018F09BFC204A5E
:1015D000204BCDE9020118F0E5FC00221E4BCDE9BD
:1015E000040118F0C3FACDE908011C48006818F09E
:1015F000E9FF174A174BCDE9020118F0D3FC00228E
:10160000154BCDE9040118F0B1FACDE90601DDE989
:10161000082318F0EDFE0E4A114BCDE90A0118F02F
:10162000E7FECDE90C0118F0DFF8CDE910010F4815
:101630000649098830F811000D9018F063FCCDE9D7
:101640000E01DDE9102317E05E240010860900106A
:101650004AD8124DFB2109400094D140F0060010F9
:10166000FB21F93FE406001000FEFF46AE1F00100C
:1016700000FF7F47E806001018F094FCCDE9120146
:1016800018F086F9FE490860FD480168FD480068C9
:1016900018F0C4FFFB490860FB49FC48006819F0DA
:1016A00034FA7DD2FA49FB480088323031F8100014
:1016B000B0F5004F53DBF7480088323031F81000A6
:1016C000A0F57F40FF38019018F005FCF24AF34B7B
:1016D000CDE9020118F066FC0022F14BCDE90401CE
:1016E00018F044FACDE90801EE49E848006819F01D
:1016F0003DFA019018F066FFE74AE84BCDE9020198
:1017000018F050FC0022E64BCDE9040118F02EFA47
:10171000CDE90601DDE9082318F06AFEDE4AE24B56
:10172000CDE90A0118F064FECDE90C0118F0B2F819
:10173000CDE91001D648D749098830F811000D903D
:1017400018F0E0FBCDE90E01DDE9102318F02AFCCA
:10175000CDE9120118F01CF9C9490860F9E0CC493B
:10176000CC480088323031F81000019018F0CAFBE4
:10177000C94ACA4BCDE9020118F014FC0022C84B3B
:10178000CDE9040118F0F2F9CDE90801C549BF48D7
:10179000006819F0EBF9019018F014FFBE4A00E060
:1017A00031E0BE4BCDE9020118F0FCFB0022BC4B3E
:1017B000CDE9040118F0DAF9CDE90601DDE90823E5
:1017C00018F016FEB44AB84BCDE90A0118F010FE25
:1017D000CDE90C0118F05EF8CDE91001AC49AD4837
:1017E000008831F810000D9018F08CFBCDE90E0147
:1017F000DDE9102318F0D6FBCDE9120118F0C8F886
:101800009F490860A5E0A249A2480088323031F81B
:101810001000B0F5004F4FDB9E480088323031F8A1
:101820001000A0F57F40FF38019018F054FB9A4A51
:101830009A4BCDE9020118F0B5FB0022984BCDE997
:10184000040118F093F9CDE908019048006818F0F8
:10185000B9FE914A914BCDE9020118F0A3FB002299
:101860008F4BCDE9040118F081F9CDE90601DDE9DE
:10187000082318F0BDFD884A8B4BCDE90A0118F00A
:10188000B7FDCDE90C0118F005F8CDE9100180484D
:101890008049098830F811000D9018F033FBCDE92C
:1018A0000E01DDE9102318F07DFBCDE9120118F0DF
:1018B0006FF8734908604CE075497648008832300B
:1018C00031F81000019018F01DFB734A734BCDE9FD
:1018D000020118F067FB0022714BCDE9040118F0FA
:1018E00045F9CDE908016948006818F06BFE6A4ABD
:1018F0006A4BCDE9020118F055FB0022684BCDE997
:10190000040118F033F9CDE90601DDE9082318F0E8
:101910006FFD614A644BCDE90A0118F069FDCDE91C
:101920000C0117F0B7FFCDE9100159485949098852
:1019300030F811000D9018F0E5FACDE90E01DDE95F
:10194000102318F02FFBCDE9120118F021F84C49B3
:1019500008604D494D48006819F0D7F87ED25349C8
:101960004C480088323031F81000B0F5004F53DB9E
:1019700048480088323031F81000A0F57F40FF3829
:10198000019018F0A8FA444A444BCDE9020118F03E
:1019900009FB0022424BCDE9040118F0E7F8CDE93C
:1019A000080140493948006819F0E0F8019018F042
:1019B00009FE394A394BCDE9020118F0F3FA002249
:1019C000374BCDE9040118F0D1F8CDE90601DDE986
:1019D000082318F00DFD304A334BCDE90A0118F009
:1019E00007FDCDE90C0117F055FFCDE910012F4897
:1019F0002849098830F811000D9018F083FACDE9D4
:101A00000E01DDE9102318F0CDFACDE9120117F02F
:101A1000BFFF2749086015E124491E48008832307D
:101A200031F81000019018F06DFA1B4A1B4BCDE9FC
:101A3000020118F0B7FA0022194BCDE9040118F0A1
:101A400095F8CDE9080117491048006819F08EF89B
:101A5000019018F0B7FD104A104B00E04CE0CDE9C2
:101A6000020118F09FFA00220D4BCDE9040118F095
:101A70007DF8CDE90601DDE9082318F0B9FC19E08D
:101A8000E8060010E406001000FEFF46F006001015
:101A90005E240010860900104AD8124DFB2109402F
:101AA0000094D14000FF7F47FB21F93FAE1F00109B
:101AB000EC060010F54AF64BCDE90A0118F098FC47
:101AC000CDE90C0117F0E6FECDE91001F149F2482D
:101AD000008831F8101008460D9118F013FACDE97E
:101AE0000E01DDE9102318F05DFACDE9120117F0BF
:101AF0004FFFEA490860A5E0E649E7480088323030
:101B000031F81000B0F5004F4FDBE3480088323069
:101B100031F81000A0F57F40FF38019018F0DBF994
:101B2000DA4ADF4BCDE9020118F03CFA0022DD4B26
:101B3000CDE9040118F01AF8CDE90801DA48006887
:101B400018F040FDD14AD64BCDE9020118F02AFA2F
:101B50000022D44BCDE9040118F008F8CDE90601C4
:101B6000DDE9082318F044FCC84AC94BCDE90A0155
:101B700018F03EFCCDE90C0117F08CFECDE9100108
:101B8000C448C549098830F811000D9018F0BAF919
:101B9000CDE90E01DDE9102318F004FACDE91201B8
:101BA00017F0F6FEBD4908604CE0BA49BA48008813
:101BB000323031F81000019018F0A4F9B34AB84B54
:101BC000CDE9020118F0EEF90022B64BCDE904018F
:101BD00017F0CCFFCDE90801B348006818F0F2FC1B
:101BE000AA4AAF4BCDE9020118F0DCF90022AD4B57
:101BF000CDE9040117F0BAFFCDE90601DDE90823BC
:101C000018F0F6FBA14AA24BCDE90A0118F0F0FB4F
:101C1000CDE90C0117F03EFECDE910019D489E492B
:101C2000098830F811000D9018F06CF9CDE90E011B
:101C3000DDE9102318F0B6F9CDE9120117F0A8FE7E
:101C400096490860954801689848006818F0E6FCD5
:101C500096490860964801689448006818F04CFD61
:101C60009349086093499048006818F04EFF3CD2B1
:101C70008F48006818F0A6FCCDE9060117F0A2FC19
:101C8000CDE90A018C498848006818F06FFF03907D
:101C900018F098FC7D4A824BCDE9040118F082F9D6
:101CA0000022804BCDE9060117F060FFCDE9080165
:101CB000DDE90A2318F09CFB744A754BCDE90C0151
:101CC00018F096FB0022774BCDE90E0118F06AF967
:101CD0006E4A734BCDE9100117F048FFCDE91201B0
:101CE00017F056FE7149086045E07148006818F029
:101CF00069FCCDE9100117F065FCCDE9120117F080
:101D000047FE6A4908606A48006818F05BFCCDE944
:101D1000060117F057FCCDE90A016348006818F086
:101D200051FC5A4A5E4BCDE9040118F03BF9002200
:101D30005C4BCDE9060117F019FFCDE90801DDE99B
:101D40000A2318F055FB514A514BCDE90C0118F00C
:101D50004FFB0022534BCDE90E0118F023F94B4AFB
:101D60004F4BCDE9100117F001FFCDE9120117F03B
:101D70000FFE4E49086000214C48006818F0C5FE6F
:101D80000BD24A48006818F079FD81B24B4A4248AC
:101D90000088323022F8101014E000214348006817
:101DA00018F0B8FD0ED841480168434818F036FCD9
:101DB000139018F063FD81B2404A374800883230F2
:101DC00022F810103B493848006818F09EFE5CD29B
:101DD0003B4931480088323031F81000B0F5004FEF
:101DE00071DB2D480088323031F81000A0F57F40BB
:101DF000FF38019018F06FF8244A294BCDE9020111
:101E000018F0D0F80022274BCDE9040117F0AEFE00
:101E1000CDE9080128492448006818F0A7FE019080
:101E200018F0D0FB194A1E4BCDE9020118F0BAF8A0
:101E300000221C4BCDE9040117F098FECDE9060104
:101E4000DDE9082318F0D4FA104A114BCDE90A0154
:101E500018F0CEFACDE90C0117F0C6FCCDE910015F
:101E600017480D49098830F811000D9018F04AF80C
:101E7000CDE90E01DDE9102318F094F8CDE9120147
:101E800017F086FD0A49086016E16EE04AD8124D47
:101E9000FB21F93FAE1F001086090010EC06001070
:101EA000FB2109400094D140F0060010E806001024
:101EB000E406001000FEFF4600FF7F47B626001034
:101EC0005E240010FFE7FE49FE480088323031F8FA
:101ED0001000019018F016F8FB4AFC4BCDE9020106
:101EE00018F060F80022FA4BCDE9040117F03EFE2D
:101EF000CDE90801F749F848006818F037FE01906D
:101F000018F060FBF04AF14BCDE9020118F04AF8F5
:101F10000022EF4BCDE9040117F028FECDE90601C0
:101F2000DDE9082318F064FAE74AEC4BCDE90A0131
:101F300018F05EFACDE90C0117F056FCCDE910015E
:101F4000DF48E049098830F811000D9017F0DAFFFA
:101F5000CDE90E01DDE9102318F024F8CDE91201D6
:101F600017F016FDDE490860A6E0D549D54800887F
:101F7000323031F81000B0F5004F50DBD148008806
:101F8000323031F81000A0F57F40FF38019017F093
:101F9000A2FFCD4ACD4BCDE9020118F003F8002293
:101FA000CB4BCDE9040117F0E1FDCDE90801CA48AA
:101FB000006818F007FBC44AC44BCDE9020117F0D2
:101FC000F1FF0022C24BCDE9040117F0CFFDCDE9AE
:101FD0000601DDE9082318F00BFABB4ABF4BCDE937
:101FE0000A0118F005FACDE90C0117F0FDFBCDE967
:101FF0001001B348B349098830F8111008460D9113
:1020000017F080FFCDE90E01DDE9102317F0CAFFBC
:10201000CDE9120117F0BCFCB14908604CE0A849B9
:10202000A8480088323031F81000019017F06AFF9C
:10203000A54AA64BCDE9020117F0B4FF0022A44B3C
:10204000CDE9040117F092FDCDE90801A24800682E
:1020500018F0B8FA9C4A9D4BCDE9020117F0A2FF97
:1020600000229B4BCDE9040117F080FDCDE906016C
:10207000DDE9082318F0BCF9934A984BCDE90A0131
:1020800018F0B6F9CDE90C0117F0AEFBCDE910015F
:102090008B488C49098830F811000D9017F032FFF9
:1020A000CDE90E01DDE9102317F07CFFCDE9120127
:1020B00017F06EFC8A4908608A498748006818F062
:1020C00024FD7DD288497F480088323031F81000E5
:1020D000B0F5004F54DB7B480088323031F81000F7
:1020E000A0F57F40FF38019017F0F5FE764A774B58
:1020F000CDE9020117F056FF0022754BCDE904012E
:1021000017F034FDCDE9080172497348006818F0F2
:102110002DFD019018F056FA6B4A6C4BCDE9020187
:1021200017F040FF00226A4BCDE9040117F01EFDB5
:10213000CDE90601DDE9082318F05AF9624A674B38
:10214000CDE90A0118F054F9CDE90C0117F04CFB68
:10215000CDE9100164485B49098830F81110084640
:102160000D9117F0CFFECDE90E01DDE9102317F038
:1021700019FFCDE9120117F00BFC5C49086013E16F
:10218000594950480088323031F81000019017F05A
:10219000B9FE4D4A4D4BCDE9020117F003FF002275
:1021A0004B4BCDE9040117F0E1FCCDE908014949A9
:1021B0004948006818F0DAFC019018F003FA00E0D2
:1021C00032E0414A414BCDE9020117F0EBFE00221B
:1021D0003F4BCDE9040117F0C9FCCDE90601DDE96B
:1021E000082318F005F9384A3C4BCDE90A0118F0EC
:1021F000FFF8CDE90C0117F0F7FACDE910013A48E4
:102200003049098830F811000D9017F07BFECDE9B8
:102210000E01DDE9102317F0C5FECDE9120117F01C
:10222000B7FB32490860BFE02F49264800883230AA
:1022300031F81000B0F5004F69DB224800883230D9
:1022400031F81000A0F57F40FF38019017F043FEF1
:102250001D4A1E4BCDE9020117F0A4FE00221C4BC3
:10226000CDE9040117F082FCCDE908011A480068A5
:1022700018F0A8F9144A154BCDE9020117F092FEA7
:102280000022134BCDE9040117F070FCCDE90601E3
:10229000DDE9082318F0ACF80B4A104BCDE90A0130
:1022A00018F0A6F8CDE90C0117F09EFACDE910015F
:1022B0000D480449098830F811000D9018E000001D
:1022C0005E240010860900104AD8124DFB210940F7
:1022D0000094D14000FF7F47F0060010FB21F93F3A
:1022E000E406001000FEFF4606220010E80600107B
:1022F00017F008FECDE90E01DDE9102317F052FEBC
:10230000CDE9120117F044FBFE4908604CE0FE499C
:10231000FE480088323031F81000019017F0F2FDCD
:10232000FB4AFC4BCDE9020117F03CFE0022FA4BC0
:10233000CDE9040117F01AFCCDE90801F74800685F
:1023400018F040F9F24AF34BCDE9020117F02AFEEA
:102350000022F14BCDE9040117F008FCCDE906019C
:10236000DDE9082318F044F8E94AED4BCDE90A010C
:1023700018F03EF8CDE90C0117F036FACDE910015E
:10238000E149E248008831F810000D9017F0BAFDDD
:10239000CDE90E01DDE9102317F004FECDE91201AD
:1023A00017F0F6FAD7490860D6480168DD4800689A
:1023B00018F034F9DB490860DB49D848006818F0A8
:1023C000A4FB7DD2D949D1480088323031F81000C1
:1023D000B0F5004F53DBCD480088323031F81000A3
:1023E000A0F57F40FF38019017F075FDC84AC94B32
:1023F000CDE9020117F0D6FD0022C74BCDE904015B
:1024000017F0B4FBCDE90801C949C448006818F0C9
:10241000ADFB019018F0D6F8BD4ABE4BCDE90201E4
:1024200017F0C0FD0022BC4BCDE9040117F09EFB64
:10243000CDE90601DDE9082317F0DAFFB44AB84B0D
:10244000CDE90A0117F0D4FFCDE90C0117F022FA0B
:10245000CDE91001B548AD49098830F811000D905B
:1024600017F050FDCDE90E01DDE9102317F09AFDBC
:10247000CDE9120117F08CFAA2490860F9E0AB49E6
:10248000A2480088323031F81000019017F03AFD70
:102490009F4AA04BCDE9020117F084FD00229E4B1C
:1024A000CDE9040117F062FBCDE90801A0499B4882
:1024B000006818F05BFB019018F084F8944A00E083
:1024C00031E0944BCDE9020117F06CFD0022924BF4
:1024D000CDE9040117F04AFBCDE90601DDE9082347
:1024E00017F086FF8A4A8E4BCDE90A0117F080FF6C
:1024F000CDE90C0117F0CEF9CDE910018B488349E5
:10250000098830F811000D9017F0FCFCCDE90E01A0
:10251000DDE9102317F046FDCDE9120117F038FA76
:1025200078490860A5E0814978480088323031F860
:102530001000B0F5004F4FDB74480088323031F89E
:102540001000A0F57F40FF38019017F0C4FC704ADE
:10255000704BCDE9020117F025FD00226E4BCDE94D
:10256000040117F003FBCDE908016C48006818F07E
:1025700029F8674A674BCDE9020117F013FD0022E5
:10258000654BCDE9040117F0F1FACDE90601DDE96B
:10259000082317F02DFF5E4A614BCDE90A0117F0C1
:1025A00027FFCDE90C0117F075F9CDE910015F485F
:1025B0005649098830F811000D9017F0A3FCCDE9B9
:1025C0000E01DDE9102317F0EDFCCDE9120117F043
:1025D000DFF94C4908604CE054494C4800883230DF
:1025E00031F81000019017F08DFC494A494BCDE9B4
:1025F000020117F0D7FC0022474BCDE9040117F088
:10260000B5FACDE908014548006817F0DBFF404AFC
:10261000404BCDE9020117F0C5FC00223E4BCDE94D
:10262000040117F0A3FACDE90601DDE9082317F04C
:10263000DFFE374A3A4BCDE90A0117F0D9FECDE962
:102640000C0117F027F9CDE9100138482F49098806
:1026500030F811000D9017F055FCCDE90E01DDE9C1
:10266000102317F09FFCCDE9120117F091F92549CD
:1026700008602D492948006818F047FA76D22249A7
:1026800022480088323031F81000B0F5004F6FDB7F
:102690001E480088323031F81000A0F57F40FF3826
:1026A000019017F018FC1A4A1A4BCDE9020117F0F5
:1026B00079FC0022184BCDE9040117F057FACDE957
:1026C00008011B491548006818F050FA019017F0EE
:1026D00079FF0F4A0F4BCDE9020117F063FC00228E
:1026E0000D4BCDE9040117F041FACDE90601DDE912
:1026F000082317F07DFE064A094BCDE90A0117F0C1
:1027000077FE17E0E8060010062200108609001088
:102710004AD8124DFB2109400094D140F006001028
:10272000FB21F93FE406001000FEFF465E24001086
:1027300000FF7F47CDE90C0117F0ACF8CDE910019F
:10274000FD49FE48008831F8101008460D9117F039
:10275000D9FBCDE90E01DDE9102317F023FCCDE90B
:10276000120117F015F9F6490860F9E052E0FFE7A9
:10277000F149F2480088323031F81000019017F02A
:10278000C1FBF04AF04BCDE9020117F00BFC00222F
:10279000EE4BCDE9040117F0E9F9CDE90801EC4968
:1027A000EC48006818F0E2F9019017F00BFFE54AD9
:1027B000E54BCDE9020117F0F5FB0022E34BCDE933
:1027C000040117F0D3F9CDE90601DDE9082317F07C
:1027D0000FFEDC4AE04BCDE90A0117F009FECDE916
:1027E0000C0117F057F8CDE91001D348D3490988F7
:1027F00030F811000D9017F085FBCDE90E01DDE9F1
:10280000102317F0CFFBCDE9120117F0C1F8CC4926
:102810000860A5E0C849C9480088323031F8100086
:10282000B0F5004F4FDBC5480088323031F810005A
:10283000A0F57F40FF38019017F04DFBC14AC24B15
:10284000CDE9020117F0AEFB0022C04BCDE9040137
:1028500017F08CF9CDE90801BE48006817F0B2FE08
:10286000B84AB94BCDE9020117F09CFB0022B74BE7
:10287000CDE9040117F07AF9CDE90601DDE9082375
:1028800017F0B6FDAF4AB44BCDE90A0117F0B0FD21
:10289000CDE90C0116F0FEFFCDE91001A648A749CD
:1028A000098830F811000D9017F02CFBCDE90E01CE
:1028B000DDE9102317F076FBCDE9120117F068F877
:1028C0009F4908604CE09C499C480088323031F8B0
:1028D0001000019017F016FB9A4A9B4BCDE90201BC
:1028E00017F060FB0022994BCDE9040117F03EF987
:1028F000CDE908019748006817F064FE914A924BB1
:10290000CDE9020117F04EFB0022904BCDE9040106
:1029100017F02CF9CDE90601DDE9082317F068FD71
:10292000884A8D4BCDE90A0117F062FDCDE90C0113
:1029300016F0B0FFCDE910017F498048008831F8DA
:1029400010000D9017F0DEFACDE90E01DDE910233D
:1029500017F028FBCDE9120117F01AF87849086042
:10296000774801687D48006817F058FE7B49086089
:10297000084601687A48006817F0BEFE784908608A
:1029800078497448006818F0C0F844D27448006868
:1029900017F018FECDE9040116F014FE02460B46AE
:1029A000CDE906010020704917F0E0F8CDE90A01F1
:1029B00067496848006818F0D9F8039017F002FEDC
:1029C000604A614BCDE9040117F0ECFA00225F4B3D
:1029D000CDE9060117F0CAF8CDE90801DDE90A23BF
:1029E00017F006FD574A5C4BCDE90C0117F000FDCE
:1029F0000022564BCDE90E0117F0D4FA514A524B42
:102A0000CDE9100117F0B2F8CDE9120116F0C0FFC0
:102A1000524908603FE05248006817F0D3FDCDE905
:102A2000040116F0CFFD02460B46CDE90601002059
:102A30004D4917F09BF8CDE90A014648006817F0A8
:102A4000C1FD404A404BCDE9040117F0ABFA00222A
:102A50003E4BCDE9060117F089F8CDE90801DDE923
:102A60000A2317F0C5FC374A3B4BCDE90C0117F0A0
:102A7000BFFC0022354BCDE90E0117F093FA314A25
:102A8000314BCDE9100117F071F8CDE9120116F0C4
:102A90007FFF3249086000213048006818F035F89F
:102AA0000BD22E48006817F0E9FE81B22F4A234866
:102AB0000088323022F8101014E000212748006806
:102AC00017F028FF0ED825480168214817F0A6FD09
:102AD000139017F0D3FE81B2244A18480088323090
:102AE00022F8101022480078401C21490870134831
:102AF0000088401C1149088010480088B0F5967F76
:102B0000FDF65AAE00200D49088011E019480B4926
:102B1000098830F81100139017F0E8FE1649074AAB
:102B2000128841F8220005480088401C03490880AB
:102B30000248008822E000000622001086090010EA
:102B4000EC0600104AD8124DFB2109400094D140F8
:102B500000FF7F47F0060010FB21F93FE806001058
:102B6000E406001000FEFF460000F03F0E290010B2
:102B700084070010B626001080480010B0F5967F3C
:102B8000C4DB0020FE49088011E0FE48FC490988AA
:102B900030F81100139017F0A9FEFB49F84A12888B
:102BA00041F82200F6480088401CF5490880F448A6
:102BB0000088B0F5967FE8DB0020F449087001F04A
:102BC00023BE0020F2490860F2490860F24908601B
:102BD000F24908600120F249088064E1EB4800787E
:102BE00000EBC00101EB0010ED49098801EB80000A
:102BF000EC4951F82000119017F0E4FCEA4AEB4B45
:102C0000CDE9120117F0CCFA40D2E048007800EB91
:102C1000C00101EB0010E249098801EB8000E149A5
:102C200051F820000890D948007800EBC00101EB72
:102C30000010DB49098801EB8000DA4951F82010C7
:102C40000791DDE9070117F099FE099017F0BAFC2A
:102C50000022D74BCDE90A0117F0A4F90022D54B89
:102C6000CDE90C0116F082FFCDE91001C8480068DB
:102C700017F0A8FCCDE90E01DDE9102316F0BAFE2D
:102C8000CDE9120116F084FEC1490860BF48007802
:102C900000EBC00101EB0010C149098801EB800085
:102CA000C04951F82000119017F08CFCBE4ABF4B70
:102CB000CDE9120117F074FA40D2B448007800EB65
:102CC000C00101EB0010B649098801EB8000B5494D
:102CD00051F820000890AD48007800EBC00101EBEE
:102CE0000010AF49098801EB8000AE4951F820106F
:102CF0000791DDE9070117F041FE099017F062FC2A
:102D00000022AB4BCDE90A0117F04CF90022A94B88
:102D1000CDE90C0116F02AFFCDE910019D480068AD
:102D200017F050FCCDE90E01DDE9102316F062FE2C
:102D3000CDE9120116F02CFE964908609348007800
:102D400000EBC00101EB00109549098801EB800000
:102D50008D4951F82000119017F034FC924A934BA2
:102D6000CDE9120117F01CFA40D28848007800EB38
:102D7000C00101EB00108A49098801EB80008249FB
:102D800051F8200008908148017801EBC10000EB68
:102D900001108349098801EB80007B4951F820101C
:102DA0000791DDE9070117F0E9FD099017F00AFC2A
:102DB00000227F4BCDE90A0117F0F4F800227D4B89
:102DC000CDE90C0116F0D2FECDE910017248006881
:102DD00017F0F8FBCDE90E01DDE9102316F00AFE2D
:102DE000CDE9120116F0D4FD6B4908606748007800
:102DF00000EBC00101EB00106949098801EB80007C
:102E0000614951F82000119017F0DCFB664A674BCE
:102E1000CDE9120117F0C4F940D25C48007800EB0C
:102E2000C00101EB00105E49098801EB80005649A2
:102E300051F8200008905548007800EBC00101EBE4
:102E400000105749098801EB80004F4951F82010C4
:102E50000791DDE9070117F091FD099017F0B2FB2A
:102E60000022534BCDE90A0117F09CF80022514B88
:102E7000CDE90C0116F07AFECDE910014748006853
:102E800017F0A0FBCDE90E01DDE9102316F0B2FD2D
:102E9000CDE9120116F07CFD4049086040480088E9
:102EA000401C3F4908803E4800881928FFF696AE2E
:102EB00036480078642148433A4951F820000C9084
:102EC0003248007864214843364951F820100B916C
:102ED000DDE90B0117F052FD37490D9017F00CFC9E
:102EE0000E902B4801680E9817F098FB0F9017F082
:102EF00069FBCDE9100116F025FDCDE9120116F0B0
:102F000047FD2E49086021480078642148431E4946
:102F100051F820101D480C910078642148431A494B
:102F200051F820100B91DDE90B0117F027FD224924
:102F30000D9017F0E1FB0E90174801680E9817F0FE
:102F40006DFB0F9017F03EFBCDE9100116F0FAFC77
:102F5000CDE9120116F01CFD194908600D48006802
:102F600017F030FBCDE9100116F0ECFCCDE91201B1
:102F700016F00EFD134908600848006824E00000C0
:102F8000860900105E2400107053001084070010A2
:102F9000A0070010A407001080080010840800108B
:102FA000860700108048001048E17A14AE472C4094
:102FB0000000F03F0000694000004843A8070010EF
:102FC00088080010AC07001017F0FCFACDE91001DA
:102FD00016F0B8FCCDE9120116F0DAFCFE490860E3
:102FE000FE480168FE4817F0C9FC1390FD480078C0
:102FF00064214843FC4951F820000146129013987F
:1030000017F07AFBF9490860F3480168F44817F0B3
:10301000B5FC1390F348007864214843F44951F813
:10302000200001461290139817F066FBF1490860E2
:10303000EC4800782130F04931F81010084613911F
:1030400017F054FCED490860ED49EC48006817F0B2
:103050005CFD7DD2E348007800EBC00101EB00107D
:10306000322101EB8000E04951F82000E44913903F
:1030700017F04BFD6DD2DB48007800EBC00101EB8F
:103080000010322101EB8000D74951F82000DD49C2
:10309000009017F06BFD019017F094FADA4ADB4BC1
:1030A000CDE9020116F07EFF0022D94BCDE90401E3
:1030B00016F05CFDCDE90801D249D048006817F050
:1030C00055FD019017F07EFACF4AD04BCDE90201B1
:1030D00016F068FF0022CE4BCDE9040116F046FD44
:1030E000CDE90601DDE9082317F082F9C64AC94B8C
:1030F000CDE90A0117F07CF9CDE90C0116F0CAFB05
:10310000CDE91001B748007864214843B64951F829
:1031100020000B9017F056FABF4AC04BCDE90C01C6
:1031200016F024FDCDE90E01DDE9102316F03AFF7B
:10313000CDE9120116F02CFCB9490860A9480078C5
:1031400000EBC00101EB0011322000EB810101E036
:10315000CFE223E1A44850F821100091A94900983A
:1031600017F004FD019017F02DFAA74AA74BCDE9FF
:10317000020116F017FF0022A54BCDE9040116F05D
:10318000F5FCCDE908019F499C48006817F0EEFC6A
:10319000019017F017FA9C4A9C4BCDE9020116F0FA
:1031A00001FF00229A4BCDE9040116F0DFFCCDE9C6
:1031B0000601DDE9082317F01BF9934A954BCDE989
:1031C0000A0117F015F9CDE90C0116F00DFBCDE958
:1031D00010018448007864214843834951F8200055
:1031E0000B9017F0EFF98C4A8C4BCDE90C0116F0DF
:1031F000BDFCCDE90E01DDE9102316F0D3FECDE9CB
:10320000120116F0C5FB874908607648007800EB8C
:10321000C00101EB0010322101EB8000744951F82C
:10322000201000917749009817F0A0FC019017F04A
:10323000C9F9754A754BCDE9020116F0B3FE0022BB
:10324000734BCDE9040116F091FCCDE908016D49FD
:103250006A48006817F08AFC019017F0B3F96A4ACF
:103260006A4BCDE9020116F09DFE0022684BCDE9C4
:10327000040116F07BFCCDE90601DDE9082317F017
:10328000B7F8614A634BCDE90A0117F0B1F8CDE90F
:103290000C0116F0FFFACDE91001524800786421C4
:1032A0004843534951F820000B9017F08BF95A4AC4
:1032B0005A4BCDE90C0116F059FCCDE90E01DDE9C0
:1032C000102316F06FFECDE9120116F061FB56498E
:1032D00008604448007800EBC00101EB0010322187
:1032E00001EB8000424951F82010009145490098B7
:1032F00017F03CFC019017F065F9434A434BCDE9C8
:10330000020116F04FFE0022414BCDE9040116F0F8
:103310002DFCCDE908013B493848006817F026FC30
:10332000019017F04FF9384A384BCDE9020116F0F9
:1033300039FE0022364BCDE9040116F017FCCDE929
:103340000601DDE9082317F053F82F4A314BCDE988
:103350000A0117F04DF8CDE90C0116F045FACDE958
:1033600010012048007864214843214951F8200089
:103370000B9017F027F9284A284BCDE90C0116F0DD
:10338000F5FBCDE90E01DDE9102316F00BFECDE9CA
:10339000120116F0FDFA254908605DE31148007836
:1033A00000EBC00101EB0010322101EB80000E495F
:1033B00051F82000019017F005F9134A134BCDE99D
:1033C000020116F0EFFD0022114BCDE9040116F0C9
:1033D000CDFBCDE908012BE08C080010AC070010F4
:1033E00000F05C468407001080480010B007001011
:1033F0007053001090080010A4090010240700105A
:1034000000FEFF4600FF7F474AD8124DFB210940CE
:103410000094D140FB21F93F48E17A14AE472C409B
:10342000B4070010BC0700109408001098080010A2
:10343000FD49FE48006817F099FB019017F0C2F8AB
:10344000FB4AFC4BCDE9020116F0ACFD0022FA4B21
:10345000CDE9040116F08AFBCDE90601DDE9082378
:1034600016F0C6FFF24AF54BCDE90A0116F0C0FF8F
:10347000CDE90C0116F00EFACDE91001F048007804
:1034800064214843EF4951F8201008460B9117F08A
:1034900099F8ED4AED4BCDE90C0116F067FBCDE94B
:1034A0000E01DDE9102316F07DFDCDE9120116F0C5
:1034B0006FFAE7490860E248007800EBC00101EBD1
:1034C0000010322101EB8000DE4951F8200001900C
:1034D00017F078F8D64AD74BCDE9020116F062FD15
:1034E0000022D54BCDE9040116F040FBCDE90801DF
:1034F000CD49CE48006817F039FB019017F062F80B
:10350000CB4ACC4BCDE9020116F04CFD0022CA4B50
:10351000CDE9040116F02AFBCDE90601DDE9082317
:1035200016F066FFC24AC54BCDE90A0116F060FFEE
:10353000CDE90C0116F058F9CDE91001C04800782A
:1035400064214843BF4951F820000B9017F03AF826
:10355000BD4ABE4BCDE90C0116F008FBCDE90E01CA
:10356000DDE9102316F01EFDCDE9120116F010FA68
:10357000B8490860B248007800EBC00101EB0010C8
:10358000322101EB8000B44951F82000019017F07E
:1035900019F8A74AA74BCDE9020116F003FD002256
:1035A000A54BCDE9040116F0E1FACDE908019E49E9
:1035B0009E48006817F0DAFA019017F003F89C4A69
:1035C0009C4BCDE9020116F0EDFC00229A4BCDE9AF
:1035D000040116F0CBFACDE90601DDE9082316F067
:1035E00007FF934A954BCDE90A0116F001FFCDE99B
:1035F0000C0116F04FF9CDE91001914800786421D3
:103600004843954951F820000B9016F0DBFF8E4A95
:103610008E4BCDE90C0116F0A9FACDE90E01DDE9DA
:10362000102316F0BFFCCDE9120116F0B1F98B4959
:1036300008608348007800EBC00101EB00103221E4
:1036400001EB8000844951F82000019016F0BAFF88
:10365000774A784BCDE9020116F0A4FC0022764BA4
:10366000CDE9040116F082FACDE908016E496F48F0
:10367000006817F07BFA019016F0A4FF6C4A6D4BBE
:10368000CDE9020116F08EFC00226B4BCDE904015E
:1036900016F06CFACDE90601DDE9082316F0A8FE64
:1036A000634A664BCDE90A0116F0A2FECDE90C0192
:1036B00016F09AF8CDE9100161480078642148437A
:1036C000654951F820000B9016F07CFF5E4A5F4B75
:1036D000CDE90C0116F04AFACDE90E01DDE910231F
:1036E00016F060FCCDE9120116F052F95C49086051
:1036F0003FE35348007800EBC00101EB001032219A
:1037000001EB80004F4951F820005649139017F003
:10371000FCF97DD24A48007800EBC00101EB0010B3
:10372000322101EB8000474951F820003E490090CA
:1037300017F01CFA019016F045FF3D4A3D4BCDE9CC
:10374000020116F02FFC00223B4BCDE9040116F0DC
:103750000DFACDE908013548006816F033FF344A08
:10376000344BCDE9020116F01DFC0022324BCDE9AD
:10377000040116F0FBF9CDE90601DDE9082316F096
:1037800037FE2B4A2D4BCDE90A0116F031FECDE96B
:103790000C0116F07FF8CDE910012948007864216A
:1037A0004843284951F820000B9016F00BFF264A99
:1037B000264BCDE90C0116F0D9F9CDE90E01DDE972
:1037C000102316F0EFFBCDE9120116F0E1F82049C5
:1037D00008601B48017801EBC10000EB01113220A9
:1037E00000EB8100174951F8201000910E49009814
:1037F00017F0BCF9019016F0E5FE0D4A0D4BCDE92E
:10380000020116F0CFFB00220B4BCDE9040100E0D2
:1038100023E116F0ABF9CDE908010448006816F081
:10382000D1FE034A034B1FE000FF7F47240700102F
:103830004AD8124DFB2109400094D140FB21F93FA9
:10384000840700108048001048E17A14AE472C40ED
:10385000B4070010BC07001070530010940800104B
:103860009808001000FEFF46CDE9020116F09AFB11
:103870000022FE4BCDE9040116F078F9CDE90601EE
:10388000DDE9082316F0B4FDF94AFA4BCDE90A0147
:1038900016F0AEFDCDE90C0115F0A6FFCDE9100143
:1038A000F548007864214843F44951F820000B9012
:1038B00016F088FEF24AF34BCDE90C0116F056F9EA
:1038C000CDE90E01DDE9102316F06CFBCDE9120104
:1038D00016F05EF8EC490860E748007800EBC0019C
:1038E00001EB0010322101EB8000E84951F8201073
:1038F0000091E749009817F039F9019016F062FE3F
:10390000DB4AE44BCDE9020116F04CFB0022D74B19
:10391000CDE9040116F02AF9CDE90801DE48006876
:1039200016F050FED24ADB4BCDE9020116F03AFB0D
:103930000022CE4BCDE9040116F018F9CDE90601BD
:10394000DDE9082316F054FDC94ACA4BCDE90A0146
:1039500016F04EFDCDE90C0115F09CFFCDE91001EC
:10396000C548007864214843C84951F820000B90AD
:1039700016F028FEC24AC34BCDE90C0116F0F6F84A
:10398000CDE90E01DDE9102316F00CFBCDE91201A3
:1039900015F0FEFFC1490860B748007800EBC00190
:1039A00001EB0010322101EB8000B84951F82010E2
:1039B0000091B749009817F0D9F8019016F002FE6F
:1039C000AB4AB44BCDE9020116F0ECFA0022A74B4A
:1039D000CDE9040116F0CAF8CDE90801AE48006847
:1039E00016F0F0FDA24AAB4BCDE9020116F0DAFA6F
:1039F00000229E4BCDE9040116F0B8F8CDE906018E
:103A0000DDE9082316F0F4FC994A9A4BCDE90A0146
:103A100016F0EEFCCDE90C0115F0E6FECDE9100143
:103A20009548007864214843984951F820000B904C
:103A300016F0C8FD924A934BCDE90C0116F096F8AA
:103A4000CDE90E01DDE9102316F0ACFACDE9120143
:103A500015F09EFF924908608BE18748007800EBE3
:103A6000C00101EB0010322101EB8000834951F8C5
:103A70002000019016F0A6FD7D4A864BCDE902019B
:103A800016F090FA0022794BCDE9040116F06EF899
:103A9000CDE908018048006816F094FD744A7D4B1A
:103AA000CDE9020116F07EFA0022704BCDE9040147
:103AB00016F05CF8CDE90601DDE9082316F098FC64
:103AC0006B4A6C4BCDE90A0116F092FCCDE90C0172
:103AD00015F0E0FECDE91001674800786421484305
:103AE000664951F820000B9016F06CFD644A654B56
:103AF000CDE90C0116F03AF8CDE90E01DDE910230D
:103B000016F050FACDE9120115F042FF6549086040
:103B10005948007800EBC00101EB0010322101EBA5
:103B20008000564951F82000019016F04BFD504A94
:103B3000584BCDE9020116F035FA00224B4BCDE986
:103B4000040116F013F8CDE908015348006816F097
:103B500039FD474A4F4BCDE9020116F023FA002206
:103B6000424BCDE9040116F001F8CDE90601DDE98B
:103B7000082316F03DFC3E4A3E4BCDE90A0116F003
:103B800037FCCDE90C0115F02FFECDE910013A48C4
:103B9000007864214843394951F820000B9016F011
:103BA00011FD374A374BCDE90C0115F0DFFFCDE9A8
:103BB0000E01DDE9102316F0F5F9CDE9120115F03B
:103BC000E7FE314908602C48007800EBC00101EBAA
:103BD0000010322101EB80002C4951F820000190A7
:103BE00016F0F0FC224A2B4BCDE9020116F0DAF96F
:103BF00000221E4BCDE9040115F0B8FFCDE9080104
:103C00002548006816F0DEFC194A224BCDE9020176
:103C100016F0C8F90022154BCDE9040115F0A6FFF6
:103C2000CDE90601DDE9082316F0E2FB104A114B4D
:103C3000CDE90A0116F0DCFBCDE90C0115F02AFEF6
:103C4000CDE910010C480078642148430F4951F830
:103C500020000B9016F0B6FC094A0A4BCDE90C0186
:103C600015F084FFCDE90E011EE000000094D14064
:103C70004AD8124DFB21F93F8407001080480010FC
:103C800048E17A14AE472C40BC0700107053001076
:103C900000FF7F47FB210940240700109408001013
:103CA00098080010B4070010DDE9102316F07AF927
:103CB000CDE9120115F06CFEFE490860FE4800785F
:103CC00000EBC00101EB0010322101EB8000FB4949
:103CD00051F82000019016F075FCF94AF94BCDE936
:103CE000020116F05FF90022F74BCDE9040115F04F
:103CF0003DFFCDE90801F548006816F063FCF04A85
:103D0000F04BCDE9020116F04DF90022EE4BCDE962
:103D1000040115F02BFFCDE90601DDE9082316F0BB
:103D200067FBE74AEA4BCDE90A0116F061FBCDE9F2
:103D30000C0115F059FDCDE91001DF480078642130
:103D40004843DE4951F820000B9016F03BFCE14A55
:103D5000E14BCDE90C0115F009FFCDE90E01DDE9DC
:103D6000102316F01FF9CDE9120115F011FEDB4901
:103D70000860DB49D0480078133031F810000A2180
:103D800090FBF1F0139016F099FDD64908600021E0
:103D9000D548006816F0B9FE08D2D4480168D24868
:103DA000006816F0A9FCD24908600CE0CE48016812
:103DB000D04816F0E3FD1390CC480168139816F034
:103DC0009BFCCB490860CC480068119016F0FAFBC8
:103DD000CA4ACB4BCDE9120116F0A8F802D2002056
:103DE000C34908600021BD48006816F08EFE08D265
:103DF000C4480168B948006816F07EFCC2490860F2
:103E00000CE0B6480168BB4816F0B8FD1390BD48F9
:103E10000168139816F070FCBB490860A748006859
:103E2000119016F0CFFBB54AB54BCDE9120116F053
:103E30007DF802D20020B4490860AB480168A94867
:103E4000006816F09BFDB1490860A4480168A548C8
:103E5000006816F093FDAE4908600021AC48006888
:103E600016F058FD1BD29D48006816F0ABFBCDE95B
:103E700010019C48006816F0A5FB0022A54BCDE977
:103E80000C0116F08FF8CDE90E01DDE9102316F0D4
:103E900089F8CDE9120115F07BFD9D4908600021EC
:103EA0009D48006816F031FE08D29B4801688D4895
:103EB000006816F063FD994908601BE096480068A9
:103EC00016F080FBCDE910018648006816F07AFBF9
:103ED0000022904BCDE90C0116F064F8CDE90E01FB
:103EE000DDE9102316F05EF8CDE9120115F050FD62
:103EF0008A49086000216F48006816F006FE08D263
:103F00006C4801687748006816F038FD84490860FD
:103F10001BE06848006816F055FBCDE910017148B8
:103F2000006816F04FFB00227A4BCDE90C0116F029
:103F300039F8CDE90E01DDE9102316F033F8CDE9AB
:103F4000120115F025FD764908607648016865483C
:103F5000006816F013FD74490860744801686148F0
:103F6000006816F00BFD724908606F480168006830
:103F700016F004FD0E9069480168006816F0FEFC1A
:103F80000C9062480168006816F0F8FC0B900C99E0
:103F900016F044FB0D900E9916F040FB0F9016F0B2
:103FA00011FBCDE9100115F0CDFCCDE9120115F0A2
:103FB000EFFC604908605E480168006816F0DEFCAE
:103FC0000E9057480168006816F0D8FC0C905048D5
:103FD0000168006816F0D2FC0B900C9916F01EFBDD
:103FE0000D900E9916F01AFB0F9016F0EBFACDE932
:103FF000100115F0A7FCCDE9120115F0C9FC4E49DE
:10400000086000213848006816F084FC28D22A484D
:10401000007864214843384951F820000D9016F08B
:10402000D1FACDE910013048006816F0CBFA002231
:10403000384BCDE90A0115F0B5FF264A264BCDE9EC
:104040000C0115F0AFFFCDE90E01DDE9102315F0ED
:104050008DFDCDE9120115F09BFC3849086021E087
:104060001548007864214843234951F820000D90F9
:1040700016F0A8FACDE910011B48006816F0A2FA64
:10408000144A154BCDE90C0115F08CFFCDE90E015A
:10409000DDE9102315F06AFDCDE9120115F078FC79
:1040A0002649086014480068119016F08BFA134AEC
:1040B000134B45E094080010840700107053001063
:1040C0004AD8124DFB2109400094D140240700102A
:1040D000FB21F93F48E17A14AE472C4098080010C4
:1040E000A4090010B8070010BC070010A8070010B2
:1040F000C0070010000080BF80480010F6285C8FC9
:10410000C2353540880800109C080010C407001014
:10411000A00800100000F0BFB4070010C80700108E
:10412000A4080010AC070010CC0700108C08001089
:10413000A8080010D0070010AC080010D407001029
:10414000CDE9120115F0F2FE02D20020F749086015
:104150000021F748006816F0DDFB28D2F54800780A
:1041600064214843F44951F820000D9016F02AFAD2
:10417000CDE91001EE48006816F024FA0022EF4B5A
:10418000CDE90A0115F00EFFED4AEE4BCDE90C0129
:1041900015F008FFCDE90E01DDE9102315F0E6FC6E
:1041A000CDE9120115F0F4FBE749086021E0E14890
:1041B000007864214843E04951F820000D9016F042
:1041C00001FACDE91001DA48006816F0FBF9DC4A83
:1041D000DC4BCDE90C0115F0E5FECDE90E01DDE982
:1041E000102315F0C3FCCDE9120115F0D1FBD6491F
:1041F0000860D1480068119016F0E4F9D34AD44B16
:10420000CDE9120115F092FE02D20020CE490860DD
:10421000C848007800287CD1CE480168CE480068A4
:1042200016F0FCF9CC490860CC480168CC4800681D
:1042300016F0F4F9CA490860CA480168CA4800681B
:1042400016F0ECF9C8490860C8480168C848006819
:1042500016F0E4F9C6490860C6480168C648006817
:1042600016F0DCF9C4490860C4480168C448006815
:1042700016F0D4F9C2490860C2480168C248006813
:1042800016F0CCF9C0490860C0480168C048006811
:1042900016F0C4F9BE490860BE480168BE4800680F
:1042A00016F0BCF9BC490860BC480168BC4800680D
:1042B00016F0B4F9BA4908609C480168B94800682A
:1042C00016F0ACF9B7490860B7480168B74800680C
:1042D00016F0A4F9B5490860B5480168B54800680A
:1042E00016F09CF9B3490860B3480168B348006808
:1042F00016F094F9B1490860B1480168B148006806
:1043000016F08CF9AF490860AF480168AF48006803
:1043100000E044E016F082F9AC490860AC4801685E
:10432000AC48006816F07AF9AA490860804801682C
:10433000A948006816F072F9A7490860A748016803
:10434000A748006816F06AF9A5490860A548016801
:10435000A548006816F062F9A3490860A3480168FF
:10436000A348006816F05AF9A1490860A1480168FD
:10437000A148006816F052F99F4908609F480168FB
:104380009F48006816F04AF99D4908606E48016828
:104390009C48006816F042F99A4908602FE2654887
:1043A000007801287ED16B4801689748006816F0B4
:1043B00035F995490860694801689448006816F025
:1043C0002DF992490860674801689148006816F025
:1043D00025F98F490860654801688E48006816F025
:1043E0001DF98C490860634801688B48006816F025
:1043F00015F989490860614801688848006816F025
:104400000DF9864908605F4801688548006816F024
:1044100005F9834908605D4801688248006816F024
:10442000FDF8804908605B4801687F48006816F025
:10443000F5F87D490860594801687C48006816F025
:10444000EDF87A490860394801687948006816F043
:10445000E5F877490860544801687648006816F026
:10446000DDF874490860524801687348006816F026
:10447000D5F871490860504801687048006816F026
:10448000CDF86E4908604E4801686D48006816F026
:10449000C5F86B4908604C4801686A48006816F026
:1044A000BDF800E0E0E067490860494801686648F7
:1044B000006816F0B3F8644908601D480168634855
:1044C000006816F0ABF8614908604448016860482C
:1044D000006816F0A3F85E490860424801685D482C
:1044E000006816F09BF85B490860404801685A482C
:1044F000006816F093F8584908603E48016857482C
:10450000006816F08BF8554908603C48016854482B
:10451000006816F083F8524908600B48016851485A
:10452000006816F07BF84F49086068E1D407001076
:104530009808001084070010705300100000F0BFAE
:1045400048E17A14AE472C40B0080010F6285C8F82
:10455000C2353540A8070010E4070010AC07001072
:10456000F0070010B0070010FC070010B40700109F
:1045700008080010BC07001014080010C007001045
:1045800020080010C40700102C080010C8070010F5
:1045900038080010CC07001044080010D0070010A5
:1045A000500800105C080010D807001068080010C0
:1045B000DC0700107408001088080010B408001010
:1045C0008C080010B808001090080010BC080010FB
:1045D00094080010C0080010C40800109C080010C7
:1045E000C8080010A0080010CC080010A408001093
:1045F000D0080010A8080010D4080010AC08001063
:10460000D8080010DC080010E8070010F4070010BC
:10461000000800100C0800101808001024080010F2
:10462000300800103C080010480800105408001022
:10463000600800106C08001078080010E0080010F6
:10464000E4080010E8080010EC080010F008001062
:10465000F4080010F8080010FC0800100009001011
:104660000409001008090010FE48007802287DD1D6
:10467000FD480078401CFC490870FC480168FC4873
:10468000006815F0CBFFFA490860FA480168FA485B
:10469000006815F0C3FFF8490860F8480168F84859
:1046A000006815F0BBFFF6490860F6480168F64857
:1046B000006815F0B3FFF4490860F4480168F44855
:1046C000006815F0ABFFF2490860F2480168F24853
:1046D000006815F0A3FFF0490860F0480168F04851
:1046E000006815F09BFFEE490860EE480168EE484F
:1046F000006815F093FFEC490860EC480168EC484D
:10470000006815F08BFFEA490860EA480168EA484A
:10471000006815F083FFE8490860E8480168E84848
:10472000006815F07BFFE6490860E6480168E64846
:10473000006815F073FFE4490860E4480168E44844
:10474000006815F06BFFE2490860E2480168E24842
:10475000006815F063FFE0490860E0480168E04840
:10476000006815F05BFFDE49086000E047E0DD48C7
:104770000168DD48006815F051FFDB490860DB483F
:104780000168DB48006815F049FFD9490860D9483D
:104790000168D948006815F041FFD7490860D7483B
:1047A0000168D748006815F039FFD5490860D54839
:1047B0000168D548006815F031FFD3490860D34837
:1047C0000168D348006815F029FFD1490860D14835
:1047D0000168D148006815F021FFCF490860CF4833
:1047E0000168CF48006815F019FFCD490860CD4831
:1047F0000168CD48006815F011FFCB490860994861
:104800000078401C97490870964800780328FEF607
:10481000D8A9954800781E287DD1002092490870BB
:10482000C249C348006815F067FFC249129016F0EC
:10483000A5F8139016F022F8BF490880BB49BF487D
:10484000006815F059FFBB49129016F097F81390C5
:1048500016F014F8B8494880B4498548006815F046
:104860004BFFB449129016F089F8139016F006F831
:10487000B1498880AD49B248006815F03DFFAD49A7
:10488000129016F07BF8139015F0F8FFAD490880F0
:10489000A649AD48006815F02FFFA649129016F002
:1048A0006DF8139015F0EAFFA64948809F498A48A1
:1048B000006815F021FF9F49129016F05FF81390E1
:1048C00015F0DCFF9F4988809849A048006815F0E2
:1048D00013FF9849129016F051F8139015F0CEFF7F
:1048E0009549C88091499A48006815F005FF91499B
:1048F000129016F043F8139015F0C0FF8E4908810E
:104900008A495D48006815F0F7FE8A49129016F052
:1049100035F8139000E0FDE315F0B0FF86494881BB
:1049200082498C48006815F0E7FE8249129016F023
:1049300025F8139015F0A2FF8249C8807B4986486C
:10494000006815F0D9FE7B49129016F017F8139005
:1049500015F094FF7B49088174496148006815F09F
:10496000CBFE7449129016F009F8139015F086FFEB
:10497000744948816D497948006815F0BDFE13906F
:1049800015F07CFF6C49888168497548006815F00E
:10499000B3FE139015F072FF6749C8816349384828
:1049A000006815F0A9FE139015F068FF62490882AF
:1049B0005E496C48006815F09FFE139015F05EFF8D
:1049C0006049888159496848006815F095FE139040
:1049D00015F054FF5B49C88154494348006815F0FD
:1049E0008BFE139015F04AFF564908824F495F48E5
:1049F000006815F081FE4F49129015F0BFFF13902B
:104A000015F03CFF4C49488248495948006815F068
:104A100073FE4849129015F0B1FF139015F02EFF68
:104A20004549888241491848006815F065FE4149AA
:104A3000129015F0A3FF139015F020FF3E49C88295
:104A40003A494C48006815F057FE3A49129015F063
:104A500095FF139015F012FF3A49488233494648B2
:104A600000688BE0840700109E090010A807001062
:104A7000EC070010AC070010F8070010B00700109A
:104A800004080010B407001010080010BC07001044
:104A90001C080010C007001028080010C4070010F0
:104AA00034080010C807001040080010CC070010A0
:104AB0004C080010D007001058080010D407001050
:104AC00064080010D807001070080010DC07001000
:104AD0007C080010880800100C0900108C080010D9
:104AE000100900109008001014090010940800101C
:104AF00018090010980800101C0900109C080010EC
:104B000020090010A008001024090010A4080010BB
:104B100028090010A80800102C090010AC0800108B
:104B200030090010B0080010340900100000F041F6
:104B3000E407001000002041F45D0010E8070010B9
:104B4000B408001020580010E0080010F007001012
:104B5000F4070010B8080010E4080010FC0700106B
:104B600000080010BC080010E80800100808001039
:104B70000C080010C0080010EC08001015F0BCFD77
:104B8000FE49129015F0FAFE139015F077FEFC49DD
:104B90008882FC49FC48006815F0AEFDF749129088
:104BA00015F0ECFE139015F069FEF549C882F54941
:104BB000F648006815F0A0FDF549129015F0DEFEEC
:104BC000139015F05BFEF349C883EE49F248006884
:104BD00015F092FDEE49129015F0D0FE139015F0ED
:104BE0004DFEEC490884E749EC48006815F084FD67
:104BF000E749129015F0C2FE139015F03FFEE5490B
:104C00004884E049E648006815F076FDE0491290D6
:104C100015F0B4FE139015F031FED949C883D94977
:104C2000E048006815F068FDD949129015F0A6FE1D
:104C3000139015F023FED2490884D249DA4800685F
:104C400015F05AFDD249129015F098FE139015F008
:104C500015FECB494884CB49D448006815F04CFD7B
:104C6000D349119015F048FDD249129015F0D6FCA9
:104C7000139015F003FEC7498884C249CE480068E6
:104C800015F03AFDCA49119015F036FDC949129048
:104C900015F0C4FC139015F0F1FDBE49C884B94964
:104CA000C648006815F028FDC149119015F024FD93
:104CB000C049129015F0B2FC139015F0DFFDB54914
:104CC0000885B049BE48006815F016FDB849129035
:104CD00015F012FD139015F0D1FDA9498884A9495A
:104CE000B848006815F008FDB149129015F004FDB0
:104CF000139015F0C3FDA249C884A249B2480068C8
:104D000015F0FAFCAA49129015F0F6FC139015F074
:104D1000B5FD9B4908859B49A948006815F0ECFC46
:104D2000A349129015F0E8FC139015F0A7FDA749D0
:104D300008809449A248006815F0DEFC9C49129056
:104D400015F0DAFC139015F099FDA04948808D49C3
:104D50009B48006815F0D0FC9549129015F0CCFCEA
:104D6000139015F08BFD9949888086499848006812
:104D700015F0C2FC8E49129015F0BEFC139015F090
:104D80007DFD844948857F499248006815F0B4FC50
:104D90008749129015F0B0FC139015F06FFD7D4916
:104DA000888578498C48006815F0A6FC80491290E7
:104DB00015F0A2FC139015F061FD7649C885714984
:104DC0008648006815F098FC7949129015F094FC1B
:104DD000139015F053FD6A4948856A498048006878
:104DE00015F08AFC7249129015F086FC139015F0AC
:104DF00045FD6349888563497A48006815F07CFC65
:104E00006B49129015F078FC139015F037FD5C4952
:104E1000C8855C497448006815F06EFC64491290BE
:104E200015F06AFC139015F029FD5A49088655497A
:104E30006E48006815F060FC5D49129015F05CFC4E
:104E4000139015F01BFD534948864E496848006889
:104E500015F052FC5649129015F04EFC139015F0C7
:104E60000DFD4C49888647496248006815F044FCAE
:104E70004F49129015F040FC139015F0FFFC40498B
:104E8000088640495C48006815F036FC4849129095
:104E900015F032FC139015F0F1FC39494886394978
:104EA0005648006815F028FC4149129015F024FC82
:104EB000139015F0E3FC3249888632495048006867
:104EC00015F01AFC3A49129015F016FC139015F0E3
:104ED000D5FC3049C8862B494A48006815F00CFCBF
:104EE0003349129015F008FC139015F0C7FC2949BE
:104EF000088724494448006815F0FEFB2C491290AD
:104F000015F0FAFB139015F0B9FC224948871D49AA
:104F10003E48006815F0F0FB2549129015F0ECFBB7
:104F2000139015F0ABFC1649C8861649384800683E
:104F300015F0E2FB1E49129015F0DEFB139015F000
:104F40009DFC0F4908870F493248006815F0D4FBD3
:104F50001749129015F0D0FB139015F08FFC0849FB
:104F6000488708492C48006815F0C6FB084912908C
:104F700015F004FD139015F081FC4FE00000204176
:104F8000205800100000F0411809001020080010FF
:104F900000007A44F45D0010240800102808001076
:104FA000C8080010F4080010200900102C08001098
:104FB0000000C84200FF7F4730080010340800108E
:104FC000CC080010F808001024090010380900105F
:104FD000380800103C08001040080010D0080010ED
:104FE000FC080010280900104408001048080010B0
:104FF0004C080010D4080010000900102C09001003
:10500000500800105408001058080010D80800106C
:1050100004090010300900105C080010FD490883E5
:10502000FD49FE48006815F067FBFD49129015F038
:10503000A5FC139015F022FCF6494883F649F9487F
:10504000006815F059FBF649129015F097FC139083
:1050500015F014FCEF498883EF49F348006815F018
:105060004BFBEF49129015F089FC139015F006FCEC
:10507000EE490883E849EE48006815F03DFBE84931
:10508000129015F07BFC139015F0F8FBE74948836C
:10509000E149E848006815F02FFBE149129015F04E
:1050A0006DFC139015F0EAFBE0498883DA49E24889
:1050B000006815F021FBE149129015F05FFC139098
:1050C00015F0DCFBD349A1F85800D349DC4800684F
:1050D00015F012FBD949129015F050FC139015F001
:1050E000CDFBCC49A1F85A00CB49D648006815F051
:1050F00003FBD249129015F041FC139015F0BEFB52
:10510000C449A1F85C00C449CF48006815F0F4FA1E
:10511000CA4900E0B7E0129015F030FC139015F08A
:10512000ADFBBC49A1F85200BB49C848006815F066
:10513000E3FAC249129015F021FC139015F09EFB82
:10514000B449A1F85400B449C148006815F0D4FA34
:10515000BA49129015F012FC139015F08FFBAD496F
:10516000A1F856000020BB490860BB490860BB4954
:105170000860BB490860BB490860BB490860BB497F
:105180000860BB490860BB490860BB490860BB496F
:105190000860A9490860AC490860B9490860B94984
:1051A0000860B9490860B9490860B9490860B94957
:1051B0000860B9490860B9490860B9490860B94947
:1051C0000860964908609E490860A0490860B64991
:1051D0000860B6490860B6490860B6490860B64933
:1051E0000860B6490860B6490860B6490860B64923
:1051F0000860B64908608B49086092490860944984
:105200000860B3490860B3490860B3490860B3490E
:105210000860B3490860B3490860B3490860B349FE
:105220000860B3490860B34908607F490860B24923
:105230000860B2490860B2490860B2490860B249E2
:105240000860B2490860B2490860B2490860B249D2
:105250000860B249086076490860B1490860B14900
:105260000860B1490860B1490860B1490860B149B6
:105270000860B1490860B1490860B1490860B149A6
:1052800008606C490860B048007802287ED1AF48B9
:10529000007802287BD00020AD490880D8E1AC48D6
:1052A00000881330AB4931F81000AB49A84A128886
:1052B00021F81200A64800881B30A64931F81010CA
:1052C000A54AA3480088C01C22F81010A0480088F6
:1052D0001E30A04931F810109D480088801D22F82A
:1052E00010109B480088801C9A4931F8101098488B
:1052F0000088093022F8101046489549098830F88E
:105300001110934800880C3022F810104149904841
:105310000088801D31F810108D4800880F3022F869
:1053200010103C498A480088C01C31F81010884889
:105330000088123022F8101036498548008809305C
:1053400031F8101082480088153022F810103149C9
:105350007F4800881B3031F810107D4800881830D5
:1053600022F810107D487A49098830F811107848E1
:1053700000881B3022F81010264975480088153027
:1053800031F81010724800881E3001E0BFE2C8E119
:1053900022F810101F496E480088183031F810109C
:1053A0006B480088213022F810101A49684800889C
:1053B0000F3031F8101066480088243022F81010A1
:1053C0001449634800880C3031F810106048008898
:1053D000273022F810105F495D480088401D31F8E1
:1053E00010105B4800882A3022F810100F485849E6
:1053F000098830F81110564800882D3022F8101016
:105400000A4953480088801D31F810105048008820
:105410003030A5E0F45D00100000F041600800109D
:1054200000007A4464080010DC08001020580010C6
:10543000080900103409001068080010000020411D
:105440006C08001070080010740800107808001034
:105450007C080010E4070010F0070010FC070010A3
:105460000808001014080010200800102C08001074
:105470003808001044080010500800105C080010A4
:10548000E8070010F4070010000800100C080010D6
:105490001808001024080010300800103C08001004
:1054A0004808001054080010EC070010F80700101E
:1054B00004080010100800101C0800102808001034
:1054C00034080010400800104C0800105808001064
:1054D000B4080010B8080010BC080010C008001084
:1054E000C4080010C8080010CC080010D008001034
:1054F000D4080010D8080010E0080010E4080010DC
:10550000E8080010EC080010F0080010F408001083
:10551000F8080010FC080010000900100409001031
:105520000C090010100900101409001018090010CF
:105530001C0900102009001024090010280900107F
:105540002C090010300900106307001059070010E3
:1055500086070010A40900104C3B00103809001009
:1055600022F81010FC49FD480088C01C31F81010CA
:10557000FA480088333022F81010F749F7480088BD
:10558000093031F81010F5480088363022F8101034
:10559000F149F24800881B3031F81010EF480088BC
:1055A000393022F81010EC49EC480088123031F8FC
:1055B0001010EA4800883C3022F81010E649E7480D
:1055C0000088153031F81010E44800883F3022F888
:1055D0001010E149E1480088183031F81010DF4818
:1055E0000088423022F81010DB49DC4800880F3078
:1055F00031F81010D9480088453022F81010D649EB
:10560000D64800880C3031F81010D4480088483053
:1056100022F81010D24890F87703D14991F8761308
:1056200040EA0121CD480088401DCE4A32F81000E2
:105630006422504390FBF1F081B2CB4AC748008806
:105640004D3022F81010C5480088401CC34908801E
:10565000C24800880328FFF622AEC2480088C2492B
:10566000A1F89600BF484088A1F898000020BB49E7
:10567000088051E0BD48B949098830F811000F9001
:1056800014F040FCBA4ABB4BCDE9100114F06EFA9D
:10569000CDE9120114F0F2FB81B2B34AAF480088A1
:1056A000523022F81010B149AC480088643031F80B
:1056B00010000F9014F026FCAD4AAE4BCDE910015E
:1056C00014F054FACDE9120114F0D8FB81B2A64AC5
:1056D000A2480088843022F81010A4499F4800880E
:1056E000C83031F810000F9014F00CFCA04AA14B08
:1056F000CDE9100114F03AFACDE9120114F0BEFB25
:1057000081B2994A95480088B63022F81010934823
:105710000088401C91490880904800883228A9DB05
:10572000F5E000208D490880B5E08C4800881330F2
:10573000914931F810108C48884A128820F81210CC
:10574000864800881B308C4931F81010864A8348FF
:105750000088C01C22F81010804800881E3086493E
:1057600031F810107D480088801D22F810107B4809
:105770000088801C804931F8101078480088093072
:1057800022F810107548008824307B4931F8101039
:10579000724800880C3022F81010704800882A30B7
:1057A000754931F810106D4800880F3022F810103C
:1057B0006A4800882730704931F81010674800881F
:1057C000123022F81010654800882D306A4931F8EF
:1057D000101062480088153022F810105F480088C9
:1057E0003F30654931F810105C480088183022F8C5
:1057F00010105A48008836305F4931F81010574869
:1058000000881B3022F810105448008839305A495B
:1058100031F81010514800881E3022F810104F48FF
:1058200000883C30544931F810104C480088213031
:1058300022F810104948008833304F4931F81010D1
:1058400046480088243022F8101044480088303040
:10585000494931F8101041480088273022F81010CB
:105860003E480088401D444931F810103B480088EC
:105870002A3022F810103948008845303E4931F866
:105880001010364800884D3022F810103348008838
:10589000401C32490880314800880328FFF645AF94
:1058A000354800883049A1F8960033484088A1F86F
:1058B000980000202949088025E02C4827490988BC
:1058C00030F81110284A25480088523022F810106C
:1058D000264922480088643031F810101F4800889B
:1058E000843022F8101021491C480088C83031F853
:1058F00010101A480088B63022F810101748008897
:10590000401C16490880154800883228D5DB1B4802
:10591000007801287DD14FF416701049088010E0FE
:105920000E480088A0F516700E4931F81000144991
:105930000A4A128821F8120008480088401C0749CA
:1059400008800648008840F27E218842E8DB4FF458
:1059500026700249088059E0205800108607001080
:1059600010180010A40900104C3B0010B6260010BF
:1059700039B4C876BE9FF63F6A3600106307001040
:10598000083E0010F9480088B0F5267F0BD0F74894
:105990000088A0F50071993905D0F4480088A0F579
:1059A00000719A392DD1F24890F87703F04991F8B7
:1059B000761340EA01200D9014F08DFACDE9100124
:1059C000EA480088A0F29320EA4931F810006421E7
:1059D00048430B9014F07FFA0022E74BCDE90C010D
:1059E00014F0E0FACDE90E01DDE9102314F0BEF861
:1059F000CDE9120114F042FAE049DC4A128821F89C
:105A00001200DA480088401CD8490880D74800882E
:105A100000E0A7E040F29B218842B3DB0846D3496F
:105A2000088010E0D1480088A0F29B20D44931F8CA
:105A30001000D249CD4A128821F81200CB480088C4
:105A4000401CCA490880C9480088B0F52F7FE9DBAF
:105A50000020C64908807FE0C448008831280FDD57
:105A6000C2480088642803DBC0480088952807DD09
:105A7000BE480088C8280EDBBC480088F9280ADC2C
:105A8000C048BA49098830F81100BC49B74A1288A1
:105A900021F812005BE0B5480088322803DBB348E8
:105AA0000088632810DDB1480088962803DBAF48E2
:105AB0000088C72808DDAD480088FA280FDBAB480E
:105AC0000088B0F5967F0ADAAE48A849098830F810
:105AD0001100AA49A54A128821F8120037E0A3480C
