:020000040000FA
:10000000D0760010A1010000A5010000A7010000AA
:10001000A9010000AB010000AD01000000000000DC
:10002000000000000000000000000000AF01000020
:10003000B101000000000000B3010000B5010000A4
:10004000B7010000B7010000B7010000B7010000D0
:10005000B701000065620100B7010000B7010000B0
:1000600053630100B7010000B7010000B7010000B1
:10007000B7010000B70100009F050000B7010000B4
:10008000B7010000150F0000B7010000B701000024
:10009000B7010000B7010000B7010000B701000080
:1000A000B70100009F080000B7010000B701000081
:1000B000B7010000B7010000B7010000B701000060
:1000C000B701000000F002F800F05CF80AA090E828
:1000D000000C82448344AAF10107DA4501D100F003
:1000E00051F8AFF2090EBAE80F0013F0010F18BF74
:1000F000FB1A43F001031847788501009885010039
:100100000A444FF0000C10F8013B13F0070408BF3D
:1001100010F8014B1D1108BF10F8015B641E05D0DB
:1001200010F8016B641E01F8016BF9D113F0080F90
:100130001EBF10F8014BAD1C0C1B09D16D1E58BF22
:1001400001F801CBFAD505E014F8016B01F8016B59
:100150006D1EF9D59142D6D37047000000230024CC
:1001600000250026103A28BF78C1FBD8520728BFC7
:1001700030C148BF0B6070471FB5AFF300801FBD93
:1001800010B510BD00F070F81146FFF7F5FF07F04D
:10019000E2FB00F08EF8FFF7F3FF00F091F80000AB
:1001A00008480047FEE7FEE7FEE7FEE7FEE7FEE75A
:1001B000FEE7FEE7FEE7FEE703480449024A044B78
:1001C00070470000C5000000D06E0010D07600100F
:1001D000D06E001010B5203AC0F00B80B1E8185076
:1001E000203AA0E81850B1E81850A0E81850BFF421
:1001F000F5AF5FEA027C24BFB1E81850A0E81850C0
:1002000044BF18C918C0BDE810405FEA827C24BF13
:1002100051F8043B40F8043B08BF7047D20728BFA1
:1002200031F8023B48BF11F8012B28BF20F8023BF0
:1002300048BF00F8012B704770477047704710B5F2
:1002400000F008F8006810BD10B5044600F002F890
:10025000046010BD0148704770470000706E0010C8
:1002600000487047706E00107546FFF7F9FFAE4604
:1002700005006946534620F00700854618B020B5B2
:10028000FFF79AFFBDE820404FF000064FF000074F
:100290004FF000084FF0000B21F00701AC46ACE82E
:1002A000C009ACE8C009ACE8C009ACE8C0098D469B
:1002B00070470446AFF300802046FFF76CFF000054
:1002C00003494FF01800ABBE704700000900000062
:1002D000260002007047000002494FF0000018F0AD
:1002E000BEB800000000F87F02494FF0000018F08F
:1002F000B6B800000000F87F00000000FFFFFFFF1D
:1003000020207F49086000BF7D48006810F0400F42
:10031000FAD003207A499C39086001207949C1F854
:100320000C010F207749843108600120091F086003
:10033000AA2074498C31086055207249C1F88C009C
:1003400000BF70488830006810F0806FF9D003203B
:100350006C4980310860AA206A49C1F88C00552098
:1003600068498C31086023206649A4310860012067
:10037000091F0860AA206349AC3108605520086055
:1003800000BF6048A830006810F4806FF9D00320E7
:100390005C49A0310860AA205A49C1F8AC00552038
:1003A0005849AC3108600020554908310860091DE2
:1003B000086055485349C431086000205149C1F8CC
:1003C000C8010846D0F88800C0F30160032860D156
:1003D0004B489438006810F0030006D0012820D064
:1003E000022839D0032853D100E000BF45488830A7
:1003F0000068C0F30E00401C41004248D0F888005D
:10040000C0F30740401CB1FBF0F1404841433C4879
:100410009C380068C0B2401CB1FBF0F03C49086059
:1004200036E0384888300068C0F30E00401C4100B8
:100430003448D0F88800C0F30740401CB1FBF0F10D
:10044000344841432E489C380068C0B2401CB1FB80
:10045000F0F02F4908601BE02A4888300068C0F39C
:100460000E00401C41002748D0F88800C0F3074028
:10047000401CB1FBF0F14FF4FA40414320489C3856
:100480000068C0B2401CB1FBF0F02149086000BF19
:1004900030E01B489438006810F0030006D00128B3
:1004A00010D0022819D0032823D100E000BF14483F
:1004B0009C380068C0B2401C1449B1FBF0F01449EC
:1004C000086016E00E489C380068C0B2401C114914
:1004D000B1FBF0F00E4908600BE009489C38006859
:1004E000C0B2401C4FF4FA41B1FBF0F0084908607B
:1004F00000BF00BF43F23A000249086070470000A5
:10050000A0C10F4000C00F40DE87280400093D0055
:1005100000000010001BB70030B502464FF6FF7018
:1005200011E032F8024B604000230AE010F0010FA6
:1005300004D04AF2010484EA600000E040105C1C30
:10054000A3B2102BF2DB0C00A1F10105A9B2E8D196
:1005500030BD10B5FF48006840F40010FD49C439B3
:10056000C1F8C4000846D0F8AC0120F44060C1F8DE
:10057000AC010846D0F8AC0140F48060F549E831A0
:1005800008600F20F4490860062048600420486194
:100590000E2015F077FF0020EF49486110BD30B5FF
:1005A0000020ED49486108468068EC49088008460B
:1005B0000088A0F52A41CC3973D100250BE0E6482C
:1005C000C06810F0040F05D06FF00C05E248806899
:1005D000E24948806D1C15F1100FF0D3DF484088C8
:1005E000B0F5807F06D0DD48408818B1DB484088F0
:1005F0001028E1D100250BE0D748C06810F0040FA7
:1006000005D06FF00C05D4488068D44988806D1CF3
:1006100015F1100FF0D300250BE0CF48C06810F0A3
:10062000040F05D06FF00C05CB488068CB49C8801B
:100630006D1C15F1100FF0D3C848C088142825D1BF
:1006400000241EE0C548808820445038C44931F851
:100650001000C149886000250EE0BF48C06810F056
:10066000040F08D06FF00C05BB48806881B2201DD4
:10067000BA4A22F810106D1C15F1100FEDD3601C52
:1006800084B2B648C088401CA042DBDCB348C088B6
:10069000642804D0B148C088B0F5C87F53D1002485
:1006A00023E050E0AD484088B0F5807F07D1AB48EB
:1006B00080882044AB4931F81000A74988600025A4
:1006C0000EE0A548C06810F0040F08D06FF00C05CC
:1006D000A148806881B2201DA04A22F810106D1C2C
:1006E00015F1100FEDD3601C84B29C48C088401CEB
:1006F000A042D7DC9948408828BB98489A490860AE
:1007000008460068083008609448C1889648006828
:10071000FFF702FF9149C988091D904A32F811106C
:10072000884210D100240AE0201D8C4931F81000C5
:10073000898821448D4A22F81100601C84B28748C0
:10074000C088A042F0DC04208349486130BD70B508
:1007500004460D463220864908600846446085609C
:100760008449854A90478348006870BD70B5044647
:100770000D4634207E4908600846446085607F4805
:10078000C8607C497A487C4A90477A48006870BDC6
:1007900070B504460D461646332075490860084674
:1007A00044608560C6607548086172497048724A45
:1007B00090477048006870BD70B504460D461646F7
:1007C00038206B490860084644608560C660694906
:1007D000694A90476748006870BD4FF4F0200021D7
:1007E00005E010F8013BDAB2654B5A54491CB1F5EB
:1007F000806FF6D370474FF4F020002105E010F829
:10080000013BDAB25F4B5A54491CB1F5806FF6D305
:10081000704706E0002100E0491C5B4A9142FBD38F
:10082000401E0028F6D1704701465848C26912F0B0
:10083000040F0ED0564B08681840544B1863486894
:10084000586388689863C868D8632120586001207D
:10085000704712F4806F0ED04D4B086818404B4B18
:1008600018644868586488689864C868D8644120E7
:1008700058600120ECE712F4802F0ED0444B08683A
:100880001840424B18654868586588689865C8687C
:10089000D865812058600120DAE70020D8E700B54C
:1008A00004202D4948613B494860384948603A482E
:1008B00000683A4909883A4A02EBC111884247D197
:1008C0003548001D00682221B1EB104F40D132485D
:1008D000001D006880B2334908604FF4002032499F
:1008E00008602E480088902101EBC0102E49486016
:1008F0002C480068010422482A4A1268805C41EAB8
:1009000000211F4A27480068401C105C014326480C
:100910008160114623480068801C085C010621485C
:100920000068C01C105C41EA00411E480068001DC0
:10093000105C41EA00211B480068401D105C014327
:100940001948C160FFF770FF00201849C1F81C0169
:1009500011482DE0C4C00F4000800840500B00102B
:10096000A8630010866000102C0400101005001011
:10097000840E0010A40E0010F11FFF1F007701006D
:1009800044110010B4140010A0860100004004407F
:1009900000000FC0008004401C810340EC040010E4
:1009A0008220080700050010C410001000800340DA
:1009B0000C300068FF490988FF4A02EBC1118842E8
:1009C00053D1FE48006880B2FD4908604FF4002012
:1009D000FC490860F7480088B82101EBC010F949CC
:1009E0004860F94800780006F5490968C1EBC10183
:1009F000891FF54A515C40EA0140F1490968C1EBA1
:100A0000C101491F515C40EA0120ED490968C1EB71
:100A1000C101091F515C0843EA498860E848006841
:100A2000C0EBC000C01E1146085C0006E44909681E
:100A3000C1EBC101891E515C40EA0140E0490968EF
:100A4000C1EBC101491E515C40EA0120DC49096843
:100A5000C1EBC101515C0843DA49C8600846FFF7A1
:100A6000E3FE0020D949C1F828010420D849486193
:100A700000BD10B50446D748006840F4C040D549D1
:100A8000C439C1F8C4000120D3490860D3490860C3
:100A90000020D1490861D1490861CF498860CF4918
:100AA0008860CF48CC494861CC4948610020CA4998
:100AB0000860CA490860192015F0E4FC0120C64905
:100AC0000861C649086110BD10B5C248006840F40D
:100AD000C040C049C439C1F8C4000120BF49086002
:100AE000BD4908600020BD490861BB490861BB4998
:100AF0008860B9498860FE20B8498861B649886134
:100B0000B748B6494861B44948610020B349086014
:100B1000B1490860192015F0B5FC0120AF49086102
:100B2000AD4908610846406840F004004860AB48A1
:100B3000406840F00400A949486010BD10B500228B
:100B4000A84B1A609B4A128842F2810303EBC2123F
:100B500042F000529D4B1A60A24A1268121DA14B2E
:100B60001A60944A128842F6830303EBC212914B37
:100B70001B8842F6820404EBC31342EA0342994BFA
:100B80001B68924C1A51974A1268121D954B1A60B5
:100B90000022954B1A6026E0864A128842F28403AE
:100BA00003EBC212904B1B68022404FB03221004C7
:100BB000804A128842F2840303EBC2128A4B1B68FC
:100BC00004FB0322511C40EA0102864B1B687F4C48
:100BD0001A51844A1268121D824B1A60824A1268A6
:100BE000521C814B1A60804A12683E2AD4D37D4A37
:100BF00012687E4B5A607B4A1268121D794B1A604C
:100C00001A461268794B9A60764A1268DA60754A19
:100C100012681A61734A12685A610022724B1A6094
:100C20000DE0704A1268121D6E4B1A6000221B689C
:100C3000664C1A516C4A1268521C6B4B1A606A4A15
:100C40001268B2F5DF7FECD310BD10B50446D4B105
:100C5000012C04D0022C13D0042C23D114E06348BF
:100C6000046001205C4908605C49086000205A4922
:100C700008615A490861584988605849886012E0FB
:100C80005A4804600FE00EE0012058490860FFF761
:100C900055FF5648006A40F0010054490862084672
:100CA000046000E000BF00BF10BD002100200AE08A
:100CB0004F4A127D02F00102012A02D14C4A1178FA
:100CC00000E002E0401C0828F2D300BF704700217A
:100CD00000200AE0474A127D02F00102012A02D1F7
:100CE000444A117800E002E0401C0828F2D300BF1B
:100CF00070471FB53748006840F008003549C439CF
:100D0000C1F8C40083203A4908733B48007806289C
:100D100003D139480078092812D038A00CC83948C6
:100D200003C816F0A7F8CDE9020137A00CC8029855
:100D300016F0A0F8CDE9000116F0EAFA84B211E04D
:100D40002EA00CC82F4803C816F094F8CDE9020174
:100D50002FA00CC8029816F08DF8CDE9000116F00E
:100D6000D7FA84B22046E11704EB1161090A204A40
:100D7000117111460C700320087380200872052041
:100D800015F080FB00201A494860FFF78EFF1FBD59
:100D90001FB51048006840F000700E49C439C1F812
:100DA000C40083201349087313480078052836D1FE
:100DB000114831E0EC040010832008072C81034027
:100DC00000050010C4100010EC1800100080034053
:100DD00000800840C4C00F40008004400040044030
:100DE00002002300080000102404001000C003408B
:100DF00000C0004000C00940620400100000000074
:100E000000003040F8040010000000000020FC400A
:100E10000000000000C0C24000780A2814D0AFF2E1
:100E200024000CC8FE4803C816F024F8CDE90201DE
:100E3000AFF22C000CC8029816F01CF8CDE90001A6
:100E400016F066FA84B213E0AFF250000CC8F44812
:100E500003C816F00FF8CDE90201AFF24C000CC840
:100E6000029816F007F8CDE9000116F051FA84B2A5
:100E70002046E11704EB1161090AEA4A1171114693
:100E80000C700320087380200872082015F0FAFA0D
:100E90000020E4494860FFF71AFF1FBD002108E069
:100EA000E14A127D12F0010F02D0E049DE4A1078CB
:100EB000491CDF4A9142F3D37047DB4B1870002185
:100EC00006E0D94A127D12F0400F00D0D949491CE2
:100ED000D94A9142F5D37047002108E0D14A127DEA
:100EE00012F0010F02D0D149CE4A1078491CD04AE5
:100EF0009142F3D37047CB4B1870002106E0C94AEA
:100F0000127D12F0400F00D0CA49491CCA4A9142D2
:100F1000F5D37047C948007840F00300C74908700E
:100F20000020C74948650120C64908607047C64887
:100F3000006840F40070C449C439C1F8C400BF4817
:100F40005C30007810F0100F07D0BC485C3000789F
:100F500040F01000B94981F85C000020B7490874DE
:100F6000087308727047B548007A40F00100B34931
:100F70000872012008707047B048007A20F0010024
:100F8000AE4908727047AD48007A40F00200AB49A4
:100F9000087270470FB4A949203100980870A7491A
:100FA000019881F82400A549283102980870A349C6
:100FB000039881F82C00069881F8300007988886FD
:100FC000049881F838000598888704B070470FB4FA
:100FD0009A496031009808709849019881F8640036
:100FE00096496831029808709449039881F86C001A
:100FF000069881F870000798A1F87400049881F8A9
:1010000078000598A1F87C0004B0704710B588B04E
:1010100004468A48203000780090884890F82400E0
:101020000190864828300078029084482C3000785F
:10103000039082483030007806908048808E079078
:101040007E483830007804907C48808F05902022BC
:1010500069462046FFF7BEF808B010BD774A107405
:10106000704730B502464FF6FF7011E012F8014BA1
:10107000604000230AE010F0010F04D04AF201049E
:1010800084EA600000E040105C1CE3B2082BF2DB55
:101090000C00A1F10101E9D130BD00B587B06BA012
:1010A0000CC85F4803C815F0E5FECDE9040169A04E
:1010B0000CC8049815F09AFDCDE9020167A00CC890
:1010C000029815F0D7FECDE9000116F021F9654927
:1010D00008615EA00CC8524803C815F0CBFECDE9EC
:1010E00004015EA00CC8049815F0C4FECDE902010D
:1010F00016F00EF95B4948612C2088614020086099
:1011000007B000BD70B52C25564EB56142F2107483
:1011100000E0641E002CFCD16025524E356042F286
:10112000107400E0641E002CFCD14E4DA86042F209
:10113000107400E0641E002CFCD12825494EB561D6
:1011400042F2107400E0641E002CFCD1C1F30725AC
:10115000444EB56042F2107400E0641E002CFCD1D5
:101160002825404EB56142F2107400E0641E002C48
:10117000FCD1CDB23B4EB56042F2107400E0641E6B
:10118000002CFCD12825374EB56142F2107400E0E6
:10119000641E002CFCD12025324E356042F21074C2
:1011A00000E0641E002CFCD108252E4EB56142F2F1
:1011B000107400E0641E002CFCD1451C294EB56063
:1011C00042F2107400E0641E002CFCD12825254E4C
:1011D000B56142F2107400E0641E002CFCD100BF27
:1011E0000425204E356042F2107400E0641E002C8D
:1011F000FCD128251B4EB56142F2107400E0641E3C
:10120000002CFCD1174DAD6802F8015B5B1E012B71
:10121000E6D82425134EB56142F2107425E0000093
:10122000F804001000C0094000C00040C0270900B9
:1012300020A10700808D5B00404B4C000040024025
:1012400000C009200C000010C4C00F4000000000C6
:10125000006A1841000000000000F03F000000009C
:101260000000004000C00140641E002CFCD1082595
:10127000F94EB56142F2107400E0641E002CFCD1FE
:10128000F54DAD68157042F2107400E0641E002C3C
:10129000FCD11025F04E356042F2107400E0641E5F
:1012A000002CFCD12825EC4EB56142F2107400E010
:1012B000641E002CFCD170BD70B52C25E64EB561C6
:1012C00060253560002400E0641C42F21075AC42D9
:1012D000FAD3E14DA8602825DF4EB561002400E077
:1012E000641C42F21075AC42FAD3C1F30725DA4E02
:1012F000B5602825B561002400E0641C42F2107539
:10130000AC42FAD3CDB2D44EB5602825B5610024E5
:1013100000E0641C42F21075AC42FAD30DE012F802
:10132000015BCD4EB5602825B561002400E0641C4A
:1013300042F21075AC42FAD35B1E002BEFD11025A0
:10134000C54E35602825B561002400E0641C42F2DA
:101350001075AC42FAD370BD70B5C048C049086082
:1013600040F2623308464FF420610268A020FFF784
:10137000C9FEFFF740FAB94890F85D03012804D18F
:10138000B84890F85D0301287ED0B44890F85D031A
:10139000012802D00120B4490870B24890F85D03DA
:1013A000012802D00220B04908700020AB49087023
:1013B000C820487000208870E620C870002008719E
:1013C0003220487100208871C87108726420487208
:1013D00000208872C8720873152048730020887333
:1013E000C87308743C204874002088741E20C87498
:1013F000002008751E204875002088753C20C8759F
:1014000002200876DA204876032088762020C876E5
:101410000020087732204877002088771920C87785
:10142000002081F82000062081F82100002081F8AA
:10143000220081F8230081F8240081F8250081F83A
:10144000260081F82700282404E00020834908555D
:10145000601C84B28C2CF8DB0320804981F88C005E
:10146000E82081F88D00032081F88E00E82081F8C3
:101470008F00032081F89000E82081F8910003207C
:1014800081F89200E82000E081E181F893000320D8
:1014900081F89400E82081F89500032081F89600F7
:1014A000E82081F89700032081F89800E82081F86F
:1014B0009900032081F89A00E82081F89B0003201E
:1014C00081F89C00E82081F89D00032081F89E00AF
:1014D000E82081F89F00032081F8A000E82081F82F
:1014E000A100032081F8A200E82081F8A3000220D7
:1014F00081F8A4009B2081F8A500012081F8A600B6
:101500002C2081F8A700002081F8A800662081F82F
:10151000A900002081F8AA00C82081F8AB000020B3
:1015200081F8AC00642081F8AD00002081F8AE00A5
:10153000782081F8AF00072081F8B000D02081F832
:10154000B100062081F8B200E42081F8B300032046
:1015500081F8B400C02081F8B500002081F8B60001
:10156000162081F8B700032081F8B800DC2081F84C
:10157000B900002081F8BA0081F8BB0081F8BC00F6
:10158000DC2081F8BD00032081F8BE00E82081F84E
:10159000BF00032081F8C000E82081F8C1000320CB
:1015A00081F8C200E82081F8C300032081F8C4005C
:1015B000DC2081F8C500022081F8C6009B2081F85C
:1015C000C700002081F8C800642081F8C90000200D
:1015D00081F8CA00642081F8CB00002081F8CC009B
:1015E000052081F8CD00002081F8CE00052081F88B
:1015F000CF00002081F8D0003C2081F8D1000020ED
:1016000081F8D20081F8D30081F8D400052081F858
:10161000D500002081F8D600032081F8D7000020F3
:1016200081F8D800032081F8D900002081F8DA0081
:10163000012081F8DB00DC2408E027200749085559
:101640001021064A601C1154A01C84B2B4F5827F9C
:10165000F3DB4FF482742DE000C001404411001010
:10166000DC040010B41400107C0400100320FF49B7
:101670000855E821FD4A601C1154002163301154C3
:10168000401C1154032163301154E821401C1154B3
:10169000002163301154401C115403216330115454
:1016A000E821401C1154002163301154401C115496
:1016B000A01C84B2B4F5B47FD8DB0020EB4981F8DC
:1016C0005C03012081F85D03002081F85E0381F84E
:1016D0005F0381F86003052081F86103E448007826
:1016E00001283DD18006E349C86700241AE0DF489D
:1016F000E14908600846006800EB441008604FF4B8
:10170000206000EB44112023DB480268A020FFF793
:10171000D3FD4FF6F07501E0681E85B2002DFBDCAD
:10172000601C84B21B2CE2DBD048D3490860084619
:10173000006800F558700860022308464FF45661AF
:101740000268A020FFF7B8FD4FF6F07501E0681EB3
:1017500085B2002DFBDC4FF08060C649886716E03B
:10176000C3480078022812D11D210846FEF7EFFF7A
:101770001D210846FEF7FAFF1D210846FEF7E7FF88
:101780004FF48062B9494FF4F020FFF701F8B748F1
:10179000B949086040F26233084600210268A0207F
:1017A000FFF7B0FCB14890F85D03012846D0AF4880
:1017B000B149086040F2623308464FF42061026884
:1017C000A020FFF79FFC4FF08060AA49C867002463
:1017D00017E0A648A84908600846006800EB4410D6
:1017E000086061012023A4480268A020FFF764FD7F
:1017F0004FF6FF7501E0681E85B2002DFBDC601C12
:1018000084B21B2CE5DB99489B49086008460068B8
:1018100000F558700860022308464FF458710268BA
:10182000A020FFF749FD4FF6FF7501E0681E85B265
:10183000002DFBDC4FF080608E4988678B4890F864
:101840005F038A4991F85E1340EA0120012801D123
:101850008A4908708548407A10F0010F31D1DC24A4
:1018600008E02720814908551021804A601C115446
:10187000A01C84B2B4F5827FF3DB4FF080607D4919
:10188000C867002417E079487B490860084600686B
:1018900000EB441008606101202377480268A02013
:1018A000FFF70AFD4FF6F07501E0681E85B2002DC6
:1018B000FBDC601C84B21B2CE5DB4FF080606D49C3
:1018C00088676F48007801280BD06D48007802289F
:1018D00007D06B48007807281CDB694800780A2885
:1018E00018DC4FF42F7411E0A4F52F704000401C59
:1018F0005E49085CA4F52F715C4A12F8111040EAA9
:101900000120604921F81400601C84B240F26A4052
:101910008442E9DB5C48584908602B2308464FF4B1
:10192000FA610268A020FFF7EDFB574890F82A0003
:10193000012845D00120544981F82A000020087070
:101940004870022408E003204F490855E8214E4A18
:10195000601C1154A01C84B2292CF4DB4FF0806071
:101960004449C867484844490860102308464FF472
:10197000FA610268A020FFF79FFC002501E0681CC7
:1019800085B24FF6FF708542F9DB3F483A4908605F
:1019900008460068103008601B2308464FF4FC61BD
:1019A0000268A020FFF788FC002501E0681C85B2D2
:1019B0004FF6FF708542F9DB4FF080602D49886754
:1019C000314840783049097840EA0120012801D1A6
:1019D0002E49087070BD10B501287ED1234A527877
:1019E000224B1B7842EA0322294B1A801F4A527C61
:1019F0001E4B1B7C42EA0322254B5A801B4AD2789D
:101A00001A4B9B7842EA0322214B9A80174AD279DB
:101A1000164B9B7942EA03221D4BDA80134A92F857
:101A20002320124B93F8223042EA0322184B1A81EA
:101A30000E4A92F8D5200D4B93F8D43042EA032297
:101A4000134B5A81134A9278124B5B7842EA032275
:101A50000F4B9A81054A527F044B1B7F42EA0322B7
:101A60000B4BDA81014AD27F004B15E04411001084
:101A70007C04001000C00920DC0400105704001092
:101A800062040010F84800103B530010800400105E
:101A900008520010FE5200109B7F42EA0322FF4BC7
:101AA0001A82FF4A1279FE4BDB7842EA0322FB4B93
:101AB0005A82FB4A9279FA4B5B7942EA0322F74B4E
:101AC0009A82F84A92F85F23F64B93F85E3342EA23
:101AD0000322F24BDA82F34A00E0F8E192F8212087
:101AE000F04B93F8203042EA0322EC4B1A83ED4A84
:101AF00092F86123EB4B93F8603342EA0322E74B01
:101B00005A83E74A127BE64BDB7A42EA0322E34B35
:101B10009A83E44AD27CE34B9B7C42EA0322DF4B6C
:101B2000DA83E04AD27DDF4B9B7D42EA0322DB4B26
:101B30001A84DC4A527DDB4B1B7D42EA0322D74BE1
:101B40005A84D84A527ED74B1B7E42EA0322D34B9B
:101B50009A84D44AD27ED34B9B7E42EA0322CF4B57
:101B6000DA84CF4A927BCE4B5B7B42EA0322CB4B9B
:101B70001A85CC4AD27BCB4B9B7B42EA0322C74BD4
:101B80005A85282114E0A1F1280252002932C54BC0
:101B90009B5CA1F1280252002832C24CA25C43EAAD
:101BA0000222A1F11203BD4C24F813204A1C91B269
:101BB0005A29E8DBBA4A127CB94BDB7B42EA0322A2
:101BC000B64BA3F89020B64A927CB54B5B7C42EAB8
:101BD0000322B24BA3F89220B14A127DB04BDB7CBA
:101BE00042EA0322AD4BA3F89420AD4A927DAC4B60
:101BF0005B7D42EA0322A94BA3F89620A84A127EF5
:101C0000A74BDB7D42EA0322A44BA3F89820A44A09
:101C1000927EA34B5B7E42EA0322A04BA3F89A205C
:101C20009F4A127F9E4BDB7E42EA03229B4BA3F826
:101C30009C209B4A927F9A4B5B7F42EA0322974B00
:101C4000A3F89E20964A92F82020954BDB7F42EA2B
:101C50000322924BA3F8A020914A92F82220904BA5
:101C600093F8213042EA03228C4BA3F8A2208C4A3D
:101C700092F824208A4B93F8233042EA0322874BC0
:101C8000A3F8A420864A92F82620854B93F82530A5
:101C900042EA0322814BA3F8A620814A92F8282029
:101CA0007F4B93F8273042EA03227C4BA3F8A8200D
:101CB0007B4A92F82A207A4B93F8293042EA032291
:101CC000764BA3F8AA20764A92F82C20744B93F80E
:101CD0002B3042EA0322714BA3F8AC20714A92F8F0
:101CE0008D20704B93F88C3042EA03226B4BA3F8A3
:101CF000AE206C4A92F88F206A4B93F88E3042EAFD
:101D00000322664BA3F8B020664A92F89120654BF7
:101D100093F8903042EA0322604BA3F8B220614A64
:101D200092F893205F4B93F8923042EA03225B4B88
:101D3000A3F8B4205B4A92F895205A4B93F894305C
:101D400042EA0322554BA3F8B620564A92F8972050
:101D5000544B93F8963042EA0322504BA3F8B82034
:101D6000504A92F899204F4B93F8983042EA032258
:101D70004A4BA3F8BA204B4A92F89B20494B93F860
:101D80009A3042EA0322454BA3F8BC20454A92F818
:101D90009D20444B93F89C3042EA03223F4BA3F82A
:101DA000BE20404A92F89F203E4B93F89E3042EA74
:101DB00003223A4BA3F8C0203A4A92F8A120394BAB
:101DC00093F8A03042EA0322344BA3F8C220354AEC
:101DD00092F8A320334B93F8A23042EA03222F4B10
:101DE000A3F8C4202F4A92F8B5202E4B93F8B430B4
:101DF00042EA0322294BA3F8C6202A4A92F8B920C6
:101E0000284B93F8B83042EA0322244BA3F8C820A9
:101E1000244A92F8BB20234B93F8BA3042EA0322BB
:101E20001E4BA3F8CA201F4A92F8BD201D4B93F801
:101E3000BC3042EA0322194BA3F8CC20194A92F88D
:101E4000C520184B93F8C43042EA0322134BA3F881
:101E5000CE20144A92F8C720124B93F8C63042EABB
:101E600003220E4BA3F8D0200E4A92F8C9200D4B46
:101E700093F8C83042EA0322084BA3F8D220094A5B
:101E80005279084B1B7942EA0322044BA3F8D42071
:101E9000044A92F8B120034B06E0000008520010FB
:101EA000FE5200104411001093F8B03042EA0322B1
:101EB000FC4BA3F8D620FC4A92F8B320FA4B93F8D7
:101EC000B23042EA0322F74BA3F8D820E9E1022816
:101ED000FCD1F44A12881212F34B1A70F14A12889C
:101EE0005A70F04A528812121A74EE4A52885A7482
:101EF000EC4A928812129A70EA4A9288DA70E94A99
:101F0000D28812129A71E74AD288DA71E54A1289A8
:101F1000121283F82220E34A128983F823201A46FA
:101F200092F8222083F824201A4692F8232083F87E
:101F300025201A4692F8222083F826201A4692F885
:101F4000232083F82720D74A5289121283F8D420FD
:101F5000D44A528983F8D520D24A92891212D34B9F
:101F60005A70D04A92899A70CE4AD2891212CE4BB8
:101F70001A77CC4AD2895A77CA4A128A12129A77A9
:101F8000C84A128ADA77C74A528A1212C74BDA70E5
:101F9000C44A528A1A71C34A928A12125A71C14AA9
:101FA000928A9A71BF4AD28A1212BF4B83F85E237B
:101FB000BC4AD28A83F85F23BA4A128B121283F882
:101FC0002020B84A128B83F82120B64A528B121275
:101FD00083F86023B34A528B83F86123B14A928B12
:101FE0001212B24BDA72AF4A928B1A73AD4AD28B8D
:101FF0001212AD4B9A74AB4AD28BDA74A94A128C86
:1020000012129A75A74A128CDA75A64A528C1212CD
:102010001A75A44A528C5A75A24A928C12121A76D8
:10202000A04A928C5A769F4AD28C12129A769D4A76
:10203000D28CDA769B4A128D12129C4B5A73994AB3
:10204000128D9A73974A528D1212974B9A73954A32
:10205000528DDA73282118E0A1F11202914B33F866
:1020600012201312A1F12802520028328E4CA354E0
:10207000A1F112028B4B33F81220D3B2A1F1280246
:1020800052002932A3544A1C91B25A29E4DB482158
:1020900014E0844A32F811201312A1F148025200D0
:1020A0000F32824CA3547F4A32F81120D3B2A1F1EF
:1020B000480252001032A3544A1C91B25729E8DB5F
:1020C000784AB2F8AE201212774B83F88C20754A0A
:1020D000B2F8AE2083F88D20724AB2F8B020121206
:1020E00083F88E206F4AB2F8B02083F88F206D4AB3
:1020F000B2F8B220121283F890206A4AB2F8B220E5
:1021000083F89120674AB2F8B420121283F8922023
:10211000644AB2F8B42083F89320624AB2F8B62039
:10212000121283F894205F4AB2F8B62083F8952003
:102130005C4AB2F8B820121283F89620594AB2F8D5
:10214000B82083F89720574AB2F8BA20121283F8C1
:102150009820544AB2F8BA2083F89920514AB2F82C
:10216000BC20121283F89A204E4AB2F8BC2083F8A1
:102170009B204C4AB2F8BE20121283F89C20494A98
:10218000B2F8BE2083F89D20464AB2F8C020121251
:1021900083F89E20434AB2F8C02083F89F20414A2A
:1021A000B2F8C220121283F8A0203E4AB2F8C22030
:1021B00083F8A1203B4AB2F8C420121283F8A2206F
:1021C000384AB2F8C42083F8A320364AB2F8C620B1
:1021D000121283F8B420334AB2F8C62083F8B5202F
:1021E000304AB2F8C820121283F8B8202D4AB2F84B
:1021F000C82083F8B9202B4AB2F8CA20121283F8FB
:10220000BA20284AB2F8CA2083F8BB20254AB2F87F
:10221000CC20121283F8BC20224AB2F8CC2083F8DA
:10222000BD20204AB2F8CE20121283F8C4201D4AE5
:10223000B2F8CE2083F8C5201A4AB2F8D020121284
:1022400083F8C620174AB2F8D02083F8C720154A71
:10225000B2F8D220121283F8C820124AB2F8D22063
:1022600083F8C9200F4AB2F8D42012121A710D4A0D
:10227000B2F8D4205A710B4AB2F8D620121283F861
:10228000B020084AB2F8D62083F8B120054AB2F847
:10229000D820121283F8B220024AB2F8D82083F86C
:1022A000B32010BD0852001044110010FE5200105F
:1022B00030B5F8480078032813D0F6480078042891
:1022C0000FD0F448007807280BD0F248007808288F
:1022D00007D0F04800780B2803D0EE4800780C288F
:1022E0004DD1ED48ED490860312308464FF40261B5
:1022F0000268A020FEF706FFE748007801283BD0DF
:102300000120E5490870012404E00020E249085555
:10231000601CC4B2312CF8DB4FF08060E049C86724
:10232000DD48DE490860202308464FF40261026858
:10233000A020FEF7C1FF4FF6FF7501E0681E85B2D1
:10234000002DFBDCD448D5490860084600682030E1
:102350000860112308464FF404610268A020FEF7CC
:10236000ABFF4FF6FF7501E0681E85B2002DFBDC68
:102370004FF08060CA4988670120FFF72CFB30BD11
:1023800030B5C848407A10F0010F7BD06BE0C648EA
:10239000C2490860BF48007801281BD10006C04927
:1023A000C86109240FE0BD4800680078BF49087083
:1023B00008460078FEF781FDB8480068401CB74920
:1023C0000860601E84B2002CEDDC4FF08070B449D0
:1023D00088611BE04FF40000B149C86109240FE097
:1023E000AE4800680078B149087008460078FEF7EA
:1023F00082FDAA480068401CA8490860601E84B29B
:10240000002CEDDC4FF40000A5498861002501E0B7
:10241000681C85B24EF660208542F9DBA44800684E
:10242000A4490988A44A02EBC11188421BD14FF488
:102430000020A24908609F480088A02101EBC0103D
:102440009E494860974840799649097940EA0120B9
:1024500000049A4988600020C8600846FEF7E4F945
:102460000020934908609648006892490988924A7A
:102470006E3202EBC111884289D100209049086078
:10248000002457E07CE08F480C2101FB0400D0F8C9
:102490006801000E834A02F834008A4801FB0400F8
:1024A000D0F86801C0F30741E000401C1154854892
:1024B0000C2101FB0400D0F86801C0F30721E00003
:1024C000801C11547F480C2101FB0400D0F86801E6
:1024D000C1B2E000C01C11546B2C29D079480C21EA
:1024E00001FB0400D0F86C01010EE000001D115446
:1024F00074480C2101FB0400D0F86C01C0F30741C3
:10250000E000401D11546F480C2101FB0400D0F87D
:102510006C01C0F30721E000801D115469480C21B3
:1025200001FB0400D0F86C01C1B2E000C01D1154E1
:10253000601C84B26C2CA6DB4FF080605849C867E1
:10254000002417E05748554908600846006800EB2A
:10255000441008606101202350480268A020FEF763
:10256000ABFE4FF6FF7501E0681E85B2002DFBDC67
:10257000601C84B21B2CE5DB4FF080604849886703
:1025800000240DE06000401C4649085C0A4612F831
:10259000141040EA01204C4921F81400601C84B258
:1025A000142CEFDB002405E00020484921F814003A
:1025B000601C84B2132CF7DB0020454908802824D6
:1025C0001DE03849601C085C095D50EA012014D008
:1025D000204604EBD471491013398AB23B493C4B75
:1025E0001B8821F813203A480088401C384908808D
:1025F00008460088122800DD8C24A01C84B28C2C94
:10260000DFDB3348008830490885002409E02F4883
:1026100030F814102C4A04F1150022F81010601C38
:1026200084B2132CF3DB28240EE060003D301D49FA
:10263000095C60003C301B4A105C41EA00202249E2
:1026400021F81400601C84B2B4F5C87FEDDB1E488D
:10265000204908604FF4C8711E480068FDF75CFF10
:102660001949A1F820034FF400000D4988610420A6
:102670001949486100BF40200949C8650846406DB6
:1026800010F4807FF7D1402088650420124948610A
:1026900030BD000062040010FE520010DC04001087
:1026A00000C009204411001010000010D9040010CF
:1026B00040810340EC04001085200803C410001082
:1026C000688603400080034086600010D2630010DB
:1026D000E40400102C0400100080084030B5FF48CE
:1026E000FF49086040F2F233084640F26631026862
:1026F000A020FEF707FDF94890F8F10300285FD00D
:10270000002404E00020F5490855601C84B240F222
:10271000F2308442F6DB4FF08060F249C867EF4840
:10272000EF4908601A23084640F266310268A0208B
:10273000FEF7C2FD002501E0681C85B24FF6FF7070
:102740008542F9DB00241DE0E448E54908601A20D1
:1027500000EB441009680844E14908604FF46070D8
:1027600000EB44112023DE480268A020FEF7A4FD00
:10277000002501E0681C85B24FF6FF708542F9DB49
:10278000601C84B21E2CDFDBD448D54908600846A3
:10279000006800F2DA300860182308464FF4E86158
:1027A0000268A020FEF788FD002501E0681C85B2C4
:1027B0004FF6FF708542F9DB4FF08060C9498867AA
:1027C00030BDC948C9490860C948486000208860D0
:1027D000C860086148618861C861086248628862AF
:1027E000C448C0490860C44808624FF4C650086431
:1027F0004FF0806008660020BA49803108604FF4CD
:102800000060B8498861800288618000886140006A
:10281000886140118863800088638000886380003D
:102820008863800088634020886580208865000177
:102830008865400088658003886770471CB5AF498C
:102840000968880814F0B4FDAD4A03C20020AD4900
:1028500088604FF040218860AA49C8604FF040214D
:10286000C8600320A74948614FF040214861A6A0F5
:102870000CC8A34803C814F0D9FDCDE9000114F039
:1028800047FDA04988614FF040218861FF209D49A4
:1028900008604FF04021086000209A4948604FF0DE
:1028A000402148600120974948604FF0402148602E
:1028B0001CBD70B58B48406B10F4007F51D1894826
:1028C000406B10F4806F4CD18648406B10F4804F01
:1028D00047D18448406B10F4004F42D1FDF78BFF85
:1028E0004FF080607F49C867002417E088487C4922
:1028F00008600846006800EB44100860610120236E
:1029000077480268A020FEF7D7FC4FF6F07501E08B
:10291000681E85B2002DFBDC601C84B21B2CE5DB3D
:102920007B486F4908600846006800F558700860E9
:10293000022308464FF458710268A020FEF7BCFC41
:102940004FF6F07501E0681E85B2002DFBDC4FF0FC
:1029500080606449886703E04FF000706149C86394
:10296000FAE76048406B10F4007F12D05D48406B7E
:1029700010F4806F0DD05B48406B10F4804F08D08E
:102980005848406B10F4004F03D001206149087093
:1029900025E15448406B10F4007F12D05148406B41
:1029A00010F4806F0DD04F48406B10F4804F08D06A
:1029B0004C48406B10F4004F03D102205549087079
:1029C0000DE14848406B10F4007F12D04548406B41
:1029D00010F4806F0DD04348406B10F4804F08D145
:1029E0004048406B10F4004F03D003204949087061
:1029F000F5E03C48406B10F4007F12D03948406B42
:102A000010F4806F0DD03748406B10F4804F08D120
:102A10003448406B10F4004F03D104203D49087046
:102A2000DDE03048406B10F4007F12D02D48406B41
:102A300010F4806F0DD12B48406B10F4804F08D0FC
:102A40002848406B10F4004F03D00520314908702E
:102A5000C5E02448406B10F4007F12D02148406B41
:102A600010F4806F0DD11F48406B10F4804F08D0D8
:102A70001C48406B10F4004F03D106202549087014
:102A8000ADE01848406B10F4007F12D01548406B41
:102A900010F4806F0DD11348406B10F4804F08D1B3
:102AA0001048406B10F4004F03D0072019490870FC
:102AB00095E00C48406B10F4007F31D00948406B22
:102AC00010F4806F2CD10748406B10F4804F27D151
:102AD0000448406B10F4004F22D11DE0EC180010A8
:102AE000DC04001000C00920550A008000C002402C
:102AF0002A007C010008A0010000A80A00000010C4
:102B0000F804001000800040000000000000E03FDA
:102B1000B4140010620400100820FF4908705EE041
:102B2000FE48406B10F4007F12D1FC48406B10F45B
:102B3000806F0DD0F948406B10F4804F08D0F748F3
:102B4000406B10F4004F03D00920F349087046E0B1
:102B5000F248406B10F4007F12D1F048406B10F443
:102B6000806F0DD0ED48406B10F4804F08D0EB48DB
:102B7000406B10F4004F03D10A20E74908702EE0A3
:102B8000E648406B10F4007F12D1E448406B10F42B
:102B9000806F0DD0E148406B10F4804F08D1DF48C2
:102BA000406B10F4004F03D00B20DB49087016E097
:102BB000DA48406B10F4007F11D1D848406B10F414
:102BC000806F0CD0D548406B10F4804F07D1D348AC
:102BD000406B10F4004F02D10C20CF490870D04850
:102BE000407A10F0010F44D00420CE490870CB4841
:102BF000406B10F0010F04D1CB480088401CCA493B
:102C00000880C648406B10F0020F04D1C648008807
:102C1000801CC5490880C148406B10F0100F04D1DA
:102C2000C1480088001DC0490880BC48406B10F4B2
:102C3000807F04D1BC4800880830BB490880BA486E
:102C4000008828B1B8480088401EB749088005E0D0
:102C500003E04FF00060B149C863FAE7FDF734FFC5
:102C60000420FDF7F2FF0120B0494860B0494860F8
:102C700099E0AA48406B10F4807F30D00120A94928
:102C80000870A648406B10F0010F04D1A6480088D8
:102C9000401CA5490880A148406B10F0020F04D1E8
:102CA000A1480088801CA04908809C48406B10F017
:102CB000100F04D19C480088001D9B4908809A4849
:102CC000008828B903E04FF000609449C863FAE730
:102CD00000209749486001209449486063E0022041
:102CE000904908708D48406B10F0010F04D1914855
:102CF0000078401C8F4908708848406B10F0020F24
:102D000004D18C480078801C8A4908708348406B45
:102D100010F0100F04D187480078001D8549087015
:102D200084480078012802D103207E490870814838
:102D3000007828B903E04FF000607849C863FAE7EB
:102D400001207A4948607A4948607648007802282C
:102D500029D1072078498870002008710420487123
:102D6000002088710520C871DD200872DC204872BF
:102D70004FF080706949C8616F48704908600A2443
:102D80000FE06E48006800786D49087008460078CA
:102D9000FEF793F869480068401C68490860601EA7
:102DA00084B2002CEDDC70BD6648007800284ED15E
:102DB00065480078012842D164480078002835D160
:102DC0005648406D10F4005F30D16148007868BB10
:102DD00060480078012822D100205E4908705E49D1
:102DE000087010E002E001205C4908605B48006860
:102DF00000F001000128F6D15849086056480078D3
:102E0000401C55490870464890F86103444991F8C0
:102E1000601340EA0120504909788842E2DC4FF40F
:102E200000103E49C8618012C86510E00120494980
:102E300008704005394988618012886507E00120E3
:102E4000444908704005354988618012886570479B
:102E500010B54348B0F8B00420B14148B0F8B00410
:102E60001F2802D100203F4908703D48B0F8B00447
:102E70000A2804D03A48B0F8B00416287CD14FF4A0
:102E80000010264988613648B0F8B004162809D1E8
:102E900001202E490870400520498861801288650C
:102EA0004000C8652F480078002866D12E48FEF7FC
:102EB000ADF801202B4908702C4800782C49087087
:102EC00008460078902874DB08460078401C08709B
:102ED00026480078401C25490870012025490880B3
:102EE0000CE024480088C01D2049085C214A128853
:102EF000885420480088401C1E4908801D480088CE
:102F000040F2E3318842ECDB18480078174981F839
:102F1000F0031548406931E06204001000C0092048
:102F20004411001053040010EC04001000C00940CC
:102F300000C000405204001022000010DC04001009
:102F4000D904001057040010580400107E0400102B
:102F50005B040010590400105A0400100080004067
:102F6000100500106104001024110010EC1800106E
:102F7000600400100E050010F0E0D4E0A0F5FA6047
:102F800081F8EF03FE48006981F8EE03FC48C06851
:102F900081F8ED03FA48806881F8EC03F84840684E
:102FA00081F8EB03F748B0F8B20481F8EA0344E093
:102FB000FFE7F5480078401CF3490870F3480078B3
:102FC000401CF2490870084600780978C1EBC1013D
:102FD000EE4A5054EA484069A0F5FA601146097873
:102FE000C1EBC101491E5054E548006911460978FA
:102FF000C1EBC101891E5054E148C06811460978EF
:10300000C1EBC101C91E5054DD48806811460978E2
:10301000C1EBC101091F5054D948406811460978D5
:10302000C1EBC101491F5054D648B0F8B204114653
:103030000978C1EBC101891F50544FF08060D44919
:10304000C867D248D34908601A23084640F266315F
:103050000268A020FEF730F90020CF49088004E084
:10306000CD480088401CCC490880CB4800884FF6EA
:10307000FF718842F4DB0020C84908802CE0C34877
:10308000C4490860C54800881A2101EB4010C149B5
:1030900009680844BF490860C04800884FF460725E
:1030A00002EB40112023BB480268A020FEF704F980
:1030B0000020B949088004E0B7480088401CB649A0
:1030C0000880B54800884FF6FF718842F4DBB348AA
:1030D0000088401CB1490880B04800881E28CEDB1B
:1030E000AA48AC4908600846006800F2DA30086077
:1030F000182308464FF4E8610268A020FEF7DCF8C8
:103100000020A549088004E0A3480088401CA2498B
:103110000880A14800884FF6FF718842F4DB4FF029
:1031200080609B4988679748B0F8B0040A2815D199
:1031300001209B49087080209549C86503E04FF045
:1031400000609349C8639248406D10F4007FF6D048
:103150004FF000608E498863802088658C48406D00
:1031600000F0020001280CD18E48007848B90120F7
:103170008C49087040058649886180128865400046
:10318000C86510BD10B58848007800287ED061E081
:10319000A12086490870BB20487085480078C01D72
:1031A000887008467B49086003217A480068FDF76B
:1031B00058FF8049088008460088000A7B4908714A
:1031C0007C480088C8704FF400007149C861774896
:1031D0007049086005207849088012E06D48006851
:1031E00000787649087008460078FDF784FE694843
:1031F0000068401C674908606F480088401E6E499F
:1032000008806D4800880028E8DC4FF40000604921
:1032100088616420FDF7FDFA00206749088004E01A
:1032200065480088401C64490880634800884FF660
:10323000FF718842F4DB00205F49088004E05E48AB
:103240000088401C5C4908805B4800884FF6FF718D
:103250008842F4DB56480078052899D1002052496D
:10326000087057490878C11700EB5171C910554AC9
:10327000117053490878C11700EB5171C910A0EBC8
:10328000C101514A11700120484900E0E9E108708C
:10329000032048708220C87001200871B82048714E
:1032A0000020887146480078C87146480078002898
:1032B00065D146480078012844D1812088700020DB
:1032C0003D49088019E000213B4800884000083053
:1032D000364A11543A480078C0EBC0003649098894
:1032E000401A3749095C34480088400009301154BD
:1032F00031480088401C3049088031480078C0EBD4
:10330000C0002D4909888842DDDC2D480078C0EBDB
:10331000C0002949088010E00021274800884000AB
:103320000830224A115424480088400009301154C2
:1033300021480088401C204908801F480088382800
:10334000EADB1BE181201949887000201A490880B6
:1033500010E000211848008840000830134A11543A
:103360001548008840000930115413480088401C5B
:1033700011490880104800883828EADBFEE027E081
:10338000241100101005001060040010EC1800104B
:1033900000C00920DC040010F00400100E0500102D
:1033A000590400105B040010720400102200001089
:1033B00073040010E604001038040010D904001053
:1033C0004A4200105E0400105F04001074040010F4
:1033D000FF480078FF49097888422CDC8120FE49AB
:1033E00088700020FD49088020E00021FB4800880B
:1033F00040000830F84A1154F9480078C0EBC0008A
:10340000F6490988401AF2490978491EC900C1EBFA
:10341000C101401AF349095CF048008840000930B6
:103420001154EE480088401CEC490880EB480088A5
:103430003828DADBA2E0E6480178E6480078401C4C
:1034400081427FD1E848007800285DD08120E249A0
:1034500088700020E549088033E00020DF490880BB
:1034600026E00021DD48008840000830DF4A12884D
:103470000E2303FB0200D84A1154D8480088DB49C8
:103480000988401AC0EBC000D4490988401AD449C1
:10349000095CD248008840000930D44A128803FBF6
:1034A0000200CD4A1154CD480088401CCB49088009
:1034B000CA4800880728D4DBCC480088401CCB4988
:1034C0000880CA480088C84909788842C5DBC648D0
:1034D0000078C0EBC000C649087010E00021C44865
:1034E000007840000830BC4A1154C14800784000C0
:1034F00009301154BE480078401CBD490870BC48D2
:1035000000783828EADB39E08120B3498870002050
:10351000B249088010E00021B0480088400008301F
:10352000AD4A1154AD480088400009301154AB48F1
:103530000088401CA9490880A84800883828EADB90
:103540001CE0FFE78120A44988700020A34908807F
:1035500010E00021A1480088400008309E4A115424
:103560009E4800884000093011549C480088401C47
:103570009A490880994800883828EADB9D48FDF779
:1035800045FD9C484069000A934981F878009948B4
:10359000406981F8790097480069000A81F87A004B
:1035A0009448006981F87B009248C068000A81F85D
:1035B0007C009048C06881F87D008E488068000AD1
:1035C00081F87E008B48806881F87F0089484068D8
:1035D000000A81F880008748406881F88100084629
:1035E0008549086008460068C01C08607A488078F1
:1035F000811E81480068FDF734FD80490880084637
:103600000088010A74488078801C734A11547B48F2
:103610000088C1B210468078401C11544FF0807071
:103620007749C8611046744908608078C01C6B49AE
:10363000088012E0704800680078724908700846F7
:103640000078FDF73AFC6C480068401C6A49086045
:1036500062480088401E6149088060480088002850
:10366000E8DC69480078012803D067480078022820
:103670007ED1EBE065480078A13057490870BB2047
:1036800048700C208870CE20C870002053490880F4
:103690001AE0524800885E4911F810104F4800881F
:1036A0004000001D4C4A11544C4800884000401C0A
:1036B0005749095C494800884000401D115447485B
:1036C0000088401C45490880444800884628E0DBC3
:1036D0004620424908801BE04048008840001830DE
:1036E0004B49095C3D4800884000001D3A4A11548E
:1036F0003A480088400019304549095C374800883D
:103700004000401D115435480088401C3349088052
:10371000324800886228DFDB3D4890F85E032E497E
:1037200081F8C8003A4890F85F0381F8C90038482A
:1037300090F8600381F8CA00354890F8610381F879
:10374000CB0008462C490860C078811E2A480068D2
:10375000FDF787FC2949088008460088000A1E49B1
:10376000C978491E1C4A505424480088114600E07C
:10377000CCE1C978891E50544FF400002049C8613B
:1037800010461D490860C0781449088012E01A48A4
:10379000006800781B49087008460078FDF7ABFB0D
:1037A00015480068401C144908600C480088401EF9
:1037B0000A490880094800880028E8DC4FF4000026
:1037C0000F4988616420FDF724F80020034921E0B7
:1037D000740400105E040010220000103804001071
:1037E0004A420010EC1800105F0400103A04001068
:1037F0000505001024110010DC040010E604001080
:1038000000C00920D9040010300400103404001056
:1038100044110010088004E0FD480088401CFC4969
:103820000880FB4800884FF6FF718842F4DB0020D7
:10383000F749088004E0F6480088401CF4490880F5
:10384000F34800884FF6FF718842F4DBF1480078B6
:10385000401EF149097888427FF40CAFEF480078A8
:1038600001287ED11720EE49887005200871C820F4
:103870004871B1208871A320C871B4200872E62075
:103880004872B3208872C920C872B9200873A62074
:1038900048730E20E349087009E00020E049E14A3E
:1038A00012788854DF480078401CDE490870DD48F3
:1038B00000781828F1DBB720D9490876F32048763C
:1038C0001720D949887005200871C8204871B22096
:1038D0008871CE20C871CA200872FD204872D2209B
:1038E0008872D120C872D0200873DE204873B820B7
:1038F0008873C420C873A3200874AC204874C72000
:103900008874EB20C874D6200875D8204875C62066
:103910008875F420C875402008765E2048764FF000
:103920008070C249C861BE48C14908601A20BD49BB
:10393000087012E0BE4800680078BE49087008466A
:103940000078FDF7BAFABA480068401CB849086028
:10395000B4480078401EB3490870B2480078002887
:1039600000E026E0E6DC4FF49670FCF752FFAE482C
:10397000AF4908601A20AB49087012E0AC480068F3
:103980000078AC49087008460078FDF796FAA84818
:103990000068401CA6490860A2480078401EA14962
:1039A0000870A04800780028E8DC4FF080709F493C
:1039B00088619A480078022873D107209849887056
:1039C000002008710720487100208871C871ED201F
:1039D0000872DF2048720D20934988700520087115
:1039E000C3204871BB208871D620C871B8200872E6
:1039F000B4204872B3208872C920C872B9200873F5
:103A0000A6204873A32088734320C873844888493C
:103A100008600A208349087012E085480068007831
:103A20008449087008460078FDF747FA8048006826
:103A3000401C7F4908607B480078401E7949087027
:103A4000784800780028E8DC774879490860102039
:103A50007449087012E0764800680078754908706B
:103A600008460078FDF729FA71480068401C704943
:103A700008606C480078401E6A4908706948007800
:103A80000028E8DC4FF49670FCF7C3FE0D20644973
:103A9000887005200871C3204871062061490870AC
:103AA0000AE030E000215E485E4A127881545D48A9
:103AB0000078401C5B4908705A4800780E28F1DBFA
:103AC000F020574988737B20C8730846584908601E
:103AD00010205449087012E0554800680078554994
:103AE000087008460078FDF7E8F951480068401C66
:103AF0004F4908604B480078401E4A4908704948C1
:103B000000780028E8DC00204449087010BD10B59A
:103B100088B040480078022804D0032876D00428D2
:103B200075D194E300203A490880D3E0002042494F
:103B30000880C5E037480078022866D134480088FC
:103B400000EBC00101EB00103B49098801EB40008C
:103B50003A4931F810002E49098801EBC10202EB05
:103B60000111354A128802EB4101354A32F9111030
:103B700048434FF47A7190FBF1F02549098801EB35
:103B8000C10202EB01112C4A128802EB41012D4ABD
:103B900022F811002848008832301D490988322255
:103BA00002FB0100284931F810002849088022480A
:103BB000008832301649098802FB0100204931F89B
:103BC000100000EB8000400000B2214908801F482F
:103BD000B0F90000B1F90010084444F25061081A2D
:103BE00038D51A4800881A4909880844A0F50C40BD
:103BF000A03881B2104800883230054A128832233A
:103C000003FB02000F4A22F8101054E058E1FEE3D3
:103C10003804001052040010340400103004001066
:103C200022000010050500101C01001000C0092032
:103C3000DC040010D90400100C05001048640010CA
:103C4000186C00106A220010C06900106604001091
:103C500068040010F948B0F90000F949B1F9001002
:103C6000084444F25061401814D5F4480088F449DF
:103C70000988084448F6A041084481B2F148008808
:103C80003230F14A1288322303FB0200EF4A22F855
:103C9000101010E0E9480088E9490988084481B219
:103CA000E84800883230E84A1288322303FB0200D9
:103CB000E64A22F81010E3480088401CE1490880D9
:103CC000E04800883228FFF635AFDF480088801CC6
:103CD000DD490880DC4800880628FFF627AF06206B
:103CE000D949088048E00020D64908803BE0D84800
:103CF0000078022832D1D448008800EBC00101EBE3
:103D00000010D049098801EB4000D24931F8100079
:103D1000CD49098801EBC10202EB0111C94A1288A1
:103D200002EB4101C94A22F81100C748008800EBA4
:103D3000C00101EB0010C349098801EB400032309B
:103D4000C54931F81010BF4800883230BE4A128889
:103D5000322303FB0200BD4A22F81010B948008844
:103D6000401CB8490880B74800883228BFDBB648F5
:103D70000088801CB4490880B34800880C28B2DB56
:103D80000020B149088012E0AF48008800F25A20B4
:103D9000B14931F81010AC48008800F25A20AB4A03
:103DA00022F81010A8480088401CA7490880A6489F
:103DB00000882228E8DB0020A349088012E0A248FE
:103DC000008800F27320A44931F810109E48008842
:103DD00000F273209D4A22F810109B480088401C76
:103DE00099490880984800880328E8DB0020964914
:103DF000088010E099489449098830F811109248D9
:103E0000008800F51F70914A22F810108E48008833
:103E1000401C8D4908808C4800882128EADB9049A5
:103E200049798F4A127941EA022014F045F98D4907
:103E3000086000208449088032E08A48006813F056
:103E400031FFCDE906018049098801F25D21824AEE
:103E500032F81110642201FB02F013F093FACDE95D
:103E6000040181480CC8049813F0E0FACDE902017E
:103E7000DDE9062312F0FEFFCDE9000113F048FA58
:103E80007A490880084601886F48008800F29D2022
:103E90006E4A22F810106C480088401C6A4908805D
:103EA000694800880328C8DB6B48B0F8FA04674902
:103EB000A1F840056848B0F8F804A1F8420590E37D
:103EC000002061490880AFE000205E490880A1E041
:103ED0005F480078022866D15B48008800EBC0018B
:103EE00001EB00105749098801EB4000594931F8AE
:103EF00010005549098801EBC10202EB0111514A3A
:103F0000128802EB41015A4A32F9111048434FF42A
:103F10007A7190FBF1F04C49098801EBC10202EB88
:103F20000111484A128802EB4101524A22F811005D
:103F300044480088323044490988322202FB01009B
:103F40004D4931F810003D4908803E480088323024
:103F50003D49098802FB0100454931F8100000EB9A
:103F60008000400000B2364908803448B0F90000B3
:103F7000B1F90010084444F25061081A14D52F48D2
:103F800000882F4909880844A0F50C40A03881B268
:103F90002C48008832302C4A1288322303FB02005E
:103FA000344A22F8101030E02448B0F900002449C7
:103FB000B1F90010084444F25061401814D51F486C
:103FC00000881F490988084448F6A041084481B286
:103FD0001C48008832301C4A1288322303FB02003E
:103FE000244A22F8101010E0144800881449098867
:103FF000084481B2134800883230134A12883223B1
:1040000003FB02001B4A22F810100E480088401CD7
:104010000C4908800B4800883228FFF659AF0A483F
:104020000088801C08490880074800880628FFF699
:104030004BAF06200449088069E0000066040010C8
:10404000680400100C050010380400106A220010EB
:10405000520400104864001010050010F8630010AE
:104060004411001098040010541200008404001041
:10407000186C0010BA270010C06900100020FC491D
:1040800008803BE0FB480078022832D1FA480088DB
:1040900000EBC00101EB0010F549098801EB40007D
:1040A000F64931F81010F448008800EBC00202EB2A
:1040B0000010EF4A128802EB4000F14A22F810107B
:1040C000ED48008800EBC00101EB0010E8490988C9
:1040D00001EB40003230EB4931F81010E448008821
:1040E0003230E54A1288322303FB0200E44A22F808
:1040F0001010DF480088401CDD490880DC4800883B
:104100003228BFDBDC480088801CDB490880DA48A5
:1041100000880C28B2DB0020D74908800EE0D64882
:10412000008800F25A20D74931F81000D449A1F88C
:10413000B404D1480088401CCF490880CE4800888C
:104140002228ECDB0020CC49088012E0CA48008815
:1041500000F27320CB4931F81010C748008800F2F4
:104160007320C74A22F81010C3480088401CC24977
:104170000880C14800880328E8DB0020BE49088089
:1041800010E0C148BC49098830F81110BA480088CD
:1041900000F51F70BA4A22F81010B7480088401C7A
:1041A000B5490880B44800882128EADBB749497935
:1041B000B64A127941EA022013F07EFFB449086042
:1041C0000020AD49088032E0B148006813F06AFD74
:1041D000CDE90601A849098801F25D21A94A32F812
:1041E0001110642201FB02F013F0CCF8CDE90401B8
:1041F000A8480CC8049813F019F9CDE90201DDE9CB
:10420000062312F037FECDE9000113F081F8A24930
:104210000880084601889848008800F29D20984A46
:1042200022F8101094480088401C93490880924856
:1042300000880328C8DB9348B0F8FA049049A1F835
:1042400040059048B0F8F804A1F84205C9E1002003
:1042500089490880AFE0002085490880A1E08548B1
:104260000078022866D18448008800EBC00101EB89
:1042700000107F49098801EB4000804931F81000A7
:104280007D49098801EBC10202EB0111784A1288CD
:1042900002EB4101814A32F9111048434FF47A711F
:1042A00090FBF1F07449098801EBC10202EB0111A6
:1042B0006F4A128802EB4101794A22F811006C48DA
:1042C000008832306C490988322202FB01007549AE
:1042D00031F810007449088065480088323066491A
:1042E000098802FB01006D4931F8100000EB8000E5
:1042F000400000B26D4908806B48B0F90000B1F988
:104300000010084444F25061081A14D56648008829
:10431000664909880844A0F50C40A03881B2544889
:1043200000883230544A1288322303FB02005C4A70
:1043300022F8101030E05C48B0F900005B49B1F998
:104340000010084444F25061401814D556480088C3
:1043500056490988084448F6A041084481B24448B7
:1043600000883230444A1288322303FB02004C4A50
:1043700022F8101010E04C4800884C490988084485
:1043800081B23B48008832303B4A1288322303FB1B
:104390000200434A22F8101035480088401C344976
:1043A0000880334800883228FFF659AF3248008829
:1043B000801C31490880304800880628FFF64BAF42
:1043C00006202D4908804AE00020294908803DE068
:1043D00028480078022834D12748008800EBC00123
:1043E00001EB00102249098801EB4000234931F814
:1043F00010002149098801EBC10202EB01111C4A9E
:10440000128802EB4101264A22F8110000E0E7E0A1
:104410001948008800EBC00101EB0010144909881D
:1044200001EB40003230174931F810101048008875
:104430003230114A1288322303FB0200184A22F854
:1044400010100B480088401C094908800848008863
:104450003228BDDB08480088801C074908800648D0
:1044600000880C28B0DB0020034908802FE0000002
:104470000C050010520400103804001048640010AD
:10448000BA27001010050010F86300104411001046
:10449000980400105412000084040010186C0010DE
:1044A0000A2D0010C0690010660400106804001096
:1044B000FA48008800F25A20F94931F81000F94909
:1044C000A1F8B404F5480088401CF4490880F3487A
:1044D00000882228ECDB0020F049088012E0EF4839
:1044E000008800F27320EE4931F81010EB48008884
:1044F00000F27320EB4A22F81010E8480088401CB4
:10450000E6490880E54800880328E8DB0020E34905
:10451000088010E0E448E149098830F81110DF48CC
:10452000008800F51F70DF4A22F81010DB48008871
:10453000401CDA490880D94800882128EADBDB4999
:104540004979DA4A127941EA022013F0B5FDD849D7
:1045500008600020D149088032E0D548006813F097
:10456000A1FBCDE90601CD49098801F25D21CC4AC4
:1045700032F81110642201FB02F012F003FFCDE9C2
:104580000401CC480CC8049812F050FFCDE9020198
:10459000DDE9062312F06EFCCDE9000112F0B8FE51
:1045A000C549088008460188BC48008800F29D2063
:1045B000BC4A22F81010B9480088401CB74908804E
:1045C000B64800880328C8DBB548B0F8FA04B549F6
:1045D000A1F84005B248B0F8F804A1F8420500BFC0
:1045E00000BF00BFB5480078022804D0032871D06E
:1045F000042870D14DE30020A849088062E0002023
:10460000AF49088055E0AD48007802284CD1A34856
:10461000008800EBC00101EB0010A949098801EBFB
:104620004000A84931F810109C48008800EBC002F7
:1046300002EB0010A24A128802EB4000A24A32F8B4
:10464000100008449549098801EBC10202EB0111F1
:104650009B4A128802EB41019C4A22F811009849BA
:10466000098832318D4A1288322303FB0211954AA0
:1046700032F81120924909883231884B1B88322444
:1046800004FB0311904B33F81110501800EBD0715C
:10469000C1F34F028A4909883231804B1B8804FBE1
:1046A00003118A4B23F8112085480088401C844957
:1046B0000880834800883228A5DB78480088801C61
:1046C00076490880754800880C2898DB00207349DB
:1046D000088020E020E1FEE37049098801F51671A9
:1046E000784A32F811206D49098801F51671764B28
:1046F00033F81110501800EBD071C1F34F02674925
:10470000098801F51671714B23F811206348008860
:10471000401C62490880614800880528DCDB0520D0
:104720005E4908801BE05D48008800F51670654909
:1047300031F810105948008800F51670624A32F8B6
:104740001000084481B25548008800F516705F4A91
:1047500022F8101051480088401C504908804F48EA
:1047600000881328DFDB13204C4908801EE04B49EA
:10477000098801F51671534A32F811204749098812
:1047800001F51671504B33F81110501800EBD07131
:10479000C1F34F024149098801F516714B4B23F8CB
:1047A00011203E480088401C3C4908803B48008856
:1047B0002428DCDB2420394908801BE037480088A6
:1047C00000F516703F4931F810103448008800F5A4
:1047D00016703D4A32F81000084481B22F48008814
:1047E00000F51670394A22F810102C480088401C39
:1047F0002A490880294800882A28DFDB2A202749FF
:1048000008801EE02549098801F516712D4A32F805
:1048100011202249098801F516712B4B33F811102C
:10482000501800EBD071C1F34F021C49098801F503
:104830001671264B23F8112018480088401C174990
:104840000880164800882D28DCDB2D2013490880BD
:104850001BE01248008800F516701A4931F8101054
:104860000E48008800F51670174A32F81000084408
:1048700081B20A48008800F51670144A22F8101018
:1048800006480088401C05490880044800883028F4
:10489000DFDB30200149088039E0000038040010D7
:1048A000100500100A2D0010F863001044110010CC
:1048B00098040010541200008404001052040010E8
:1048C0000C0500101A1D00106A220010FA3C00109E
:1048D000FF49098801F51671FE4A32F81120FC499A
:1048E000098801F51671FC4B33F81110501800EBD4
:1048F000D071C1F34F02F649098801F51671F74BE3
:1049000023F81120F2480088401CF1490880F04843
:1049100000884A28DCDBF0E30020ED49088073E0E2
:104920000020EF49088066E0EE48007802285DD15B
:10493000ED48EB49098830F81100EC49E84A128843
:1049400031F9121048434FF47A7190FBF1F2E048CC
:10495000008800EBC00101EB0010E149098801EB80
:104960004000DD4931F81000D949098801EBC10345
:1049700003EB0111DA4B1B8803EB4101D54B33F8F4
:10498000111008441044D749097890FBF1F0D04940
:10499000098801EBC10202EB0111D14A128802EB36
:1049A0004101CE4A22F81100CD4800883230C84972
:1049B0000988322202FB0100C74931F81010C848AB
:1049C00000883230C24A1288322303FB0200C14AF7
:1049D00032F81000084481B2C14800883230BC4A25
:1049E000128803FB0200BD4A22F81010BC48008860
:1049F000401CBB490880BA480088322894DBB44880
:104A00000088801CB2490880B14800880C2887DBE8
:104A10000020AF49088026E0AD48008800F51670F8
:104A2000AC4931F81010AA48008800F51670AA4A5F
:104A300032F810000144A648008800F51670AC4A10
:104A400032F810000844032190FBF1F081B2A04835
:104A5000008800F51670A14A22F810109C480088C2
:104A6000401C9B4908809A4800880528D4DB052013
:104A70009749088023E09648008800F5167095490C
:104A800031F810109248008800F51670924A32F8FA
:104A9000100001448E48008800F51670944A32F8E0
:104AA0001000084481B28A48008800F516708B4ACD
:104AB00022F8101086480088401C854908808448E8
:104AC00000881328D7DB13208149088026E080491D
:104AD000098801F516717F4A32F811207C4909884E
:104AE00001F516717C4B33F811100A447849098896
:104AF00001F516717E4B33F81110501800EBD07190
:104B0000C1F34F027249098801F51671734B23F8FE
:104B100011206F480088401C6D4908806C4800884F
:104B20002428D4DB24206A49088023E068480088D0
:104B300000F51670674931F810106548008800F5D7
:104B40001670654A32F8100001446148008800F58B
:104B50001670674A32F81000084481B25C48008839
:104B600000F516705D4A22F8101059480088401C64
:104B700057490880564800882A28D7DB2A205449FC
:104B8000088026E05249098801F51671514A32F829
:104B900011204F49098801F516714F4B33F8111058
:104BA0000A444B49098801F51671514B33F811102D
:104BB000501800EBD071C1F34F024549098801F547
:104BC0001671464B23F8112041480088401C40498B
:104BD00008803F4800882D28D4DB2D203C490880E0
:104BE00023E03B48008800F516703A4931F8101070
:104BF0003748008800F51670374A32F81000014433
:104C00003348008800F51670394A32F8100008441D
:104C100081B22F48008800F51670304A22F8101033
:104C20002B480088401C2A490880294800883028E1
:104C3000D7DB30202649088026E02549098801F580
:104C40001671244A32F811202149098801F516719C
:104C5000214B33F811100A441D49098801F51671DA
:104C6000234B33F81110501800EBD071C1F34F02F1
:104C70001749098801F51671184B23F811201448BB
:104C80000088401C12490880114800884A28D4DB5B
:104C90004BE200200E490880ACE00020104908805B
:104CA0009EE01048007802287DD10F480C49098801
:104CB00030F811000D490A4A128831F912104843A0
:104CC0004FF47A7190FBF1F20148008812E0000085
:104CD000380400101A1D00106A220010FA3C00105F
:104CE0000C0500105204001048640010186C0010ED
:104CF000BA27001000EBC00101EB0010FF49098842
:104D000001EB4000FE4931F81000FE49098801EB33
:104D1000C10303EB0111F94B1B8803EB4101FA4B73
:104D200033F811100144F748008800EBC00303EB8F
:104D30000010F24B1B8803EB4000F44B33F81000DB
:104D400008441044F249097890FBF1F0ED490988D4
:104D500001EBC10202EB0111E84A128802EB4101AA
:104D6000EC4A22F81100E54800883230E54909880C
:104D7000322202FB0100E24931F81010DF480088BE
:104D80003230E04A1288322303FB0200DE4A32F856
:104D900010000144D94800883230DA4A128803FBF7
:104DA0000200DA4A00E016E032F810000844DA495E
:104DB00009880844D94909880844A0F50C40A0385E
:104DC00081B2CE4800883230CE4A128803FB0200FE
:104DD000D04A22F81010C9480088401CC7490880F2
:104DE000C64800883228FFF65CAFC6480088801CA1
:104DF000C4490880C34800880C28FFF64EAF002045
:104E0000C04908802FE0BF49098801F51671BF4AE3
:104E100032F81120BB49098801F51671BA4B33F8F5
:104E200011100A44B749098801F51671B44B33F8DB
:104E300011100A44B349098801F51671B84B33F8CB
:104E400011105018C11700EB9171C1F38F02AD49D9
:104E5000098801F51671AF4B23F81120A948008885
:104E6000401CA8490880A74800880528CBDB0520FE
:104E7000A44908802BE0A348008800F51670A349D8
:104E800031F810109F48008800F516709E4A32F8DD
:104E9000100001449B48008800F51670984A32F8CB
:104EA000100001449748008800F516709C4A32F8BB
:104EB0001000084481B29348008800F51670954AA6
:104EC00022F810108F480088401C8E4908808D48B9
:104ED0000088132800E027E1CDDB132089490880F2
:104EE0002FE08849098801F51671884A32F81120A7
:104EF0008449098801F51671834B33F811100A446F
:104F00008049098801F516717D4B33F811100A4468
:104F10007C49098801F51671814B33F8111050183E
:104F2000C11700EB9171C1F38F027649098801F531
:104F30001671784B23F8112072480088401C714983
:104F40000880704800882428CBDB24206D49088025
:104F50002BE06C48008800F516706C4931F8101091
:104F60006848008800F51670674A32F8100001445E
:104F70006448008800F51670614A32F81000014458
:104F80006048008800F51670654A32F81000084441
:104F900081B25C48008800F516705E4A22F8101055
:104FA00058480088401C57490880564800882A28DD
:104FB000CFDB2A20534908802FE05249098801F5A8
:104FC0001671524A32F811204E49098801F51671BE
:104FD0004D4B33F811100A444A49098801F51671FE
:104FE000474B33F811100A444649098801F51671F8
:104FF0004B4B33F811105018C11700EB9171C1F3EE
:105000008F024049098801F51671424B23F811209F
:105010003C480088401C3B4908803A4800882D28BD
:10502000CBDB2D20374908802BE03648008800F57F
:105030001670364931F810103248008800F51670A5
:10504000314A32F8100001442E48008800F51670ED
:105050002B4A32F8100001442A48008800F51670E7
:105060002F4A32F81000084481B22648008800F523
:105070001670284A22F8101022480088401C214946
:105080000880204800883028CFDB30201D49088068
:105090002FE01C49098801F516711C4A32F81120CD
:1050A0001849098801F51671174B33F811100A4495
:1050B0001449098801F51671114B33F811100A448F
:1050C0001049098801F51671154B33F81110501865
:1050D000C11700EB9171C1F38F020A49098801F5EC
:1050E00016710C4B23F8112006480088401C054916
:1050F0000880044800884A2814E016E00C050010D7
:10510000BA270010380400106A2200101A1D00107F
:1051100052040010FA3C00106604001068040010ED
:105120000A2D0010B5DB00BF00BF00BF08B010BDE6
:1051300000B54FF04020006800F00100012874D154
:10514000FE48007810F0010F70D04FF08070FC49DD
:10515000C8610720FB4988700020087160204871F1
:1051600000208871F848B0F8B0040A2821D007DC84
:1051700078B1012811D0022813D003282DD114E0D2
:105180000B281AD016281CD01F281ED0202824D166
:105190001FE00020EB49C87120E00120E949C871F7
:1051A0001CE00220E749C87118E00320E549C871F6
:1051B00014E00420E349C87110E00520E149C871FA
:1051C0000CE00620DF49C87108E00720DD49C871FE
:1051D00004E00820DB49C87100BF00BF00BFD94808
:1051E000DA49086008460068C01C0860D548807825
:1051F000811ED6480068FBF734FFD5490880084671
:105200000088010ACF488078801CCE4A1154D048CB
:105210000088C1B210468078401C11541046CB491A
:1052200008600A20CB49087014E0E3E039E0C74881
:1052300000680078C849087008460078FBF73DFE12
:10524000C2480068401CC1490860C2480078401E3E
:10525000C0490870BF4800780028E8DCBF48BB4957
:1052600008600920BB49087012E0B848006800785F
:10527000B949087008460078FBF71FFEB34800687C
:10528000401CB2490860B3480078401EB14908701C
:10529000B04800780028E8DC4FF08070A8498861A9
:1052A000A8E04FF40000A649C8610720A54988700E
:1052B000002008716020487100208871A248B0F871
:1052C000B0040A2821D007DC78B1012811D00228C7
:1052D00013D003282DD114E00B281AD016281CD087
:1052E0001F281ED0202824D11FE000209549C87116
:1052F00020E001209349C8711CE002209149C87147
:1053000018E003208F49C87114E004208D49C8714A
:1053100010E005208B49C8710CE006208949C8714E
:1053200008E007208749C87104E008208549C87152
:1053300000BF00BF00BF834884490860084600687A
:10534000C01C08607F488078811E80480068FBF799
:1053500088FE7F49088008460088010A79488078DD
:10536000801C784A11547A480088C1B2104680786F
:10537000401C11541046754908600A207549087090
:1053800012E0724800680078734908700846007897
:10539000FBF7B1FD6D480068401C6C4908606D4822
:1053A0000078401E6B4908706A4800780028E8DCE5
:1053B0006A486649086009206649087012E0634837
:1053C000006800786449087008460078FBF793FD90
:1053D0005E480068401C5D4908605E480078401ED9
:1053E0005C4908705B4800780028E8DC4FF4000056
:1053F0005349886104205A49486101204FF04021F7
:10540000086000BD10B557480078022861D05548A3
:10541000007801285DD049480078062805DC52480C
:105420000078012802D0FFF783FE00E343480078AC
:1054300010F0010F26D04FF080704149C8614B48F1
:105440004249086009204A49087012E03F48006854
:1054500000784149087008460078FBF72EFD3B486C
:105460000068401C3949086041480078401E4049A6
:1054700008703F4800780028E8DC4FF08070304921
:105480008861D4E24FF400002D49C86137482F49A4
:10549000086009203649087012E02C48006800783E
:1054A0002D49087008460078FBF725FD274800685D
:1054B000401C264908602E480078401E2C49087080
:1054C0002B4800780028E8DC4FF400001C49886174
:1054D000ADE2244800780228A7D1264800780728A2
:1054E00006D1FEF714FB00202249087022490870FB
:1054F0004FF04020006800F00100012859D10F480A
:10550000007810F0010F54D01A480078002850D1CC
:10551000012018490870112010498871E820C871CD
:105520003C2008724FF080700549C8610B4807495C
:10553000086009200749087033E000006204001089
:1055400000C009202200001010050010DC0400102B
:10555000E604001006050010D90400101000001029
:1055600000800840530400105D0400101A0300106E
:10557000050500103304001035040010F9480068D8
:105580000078F949087008460078FBF796FCF54862
:105590000068401CF3490860F4480078401EF34955
:1055A0000870F24800780028E8DC4FF08070F0497D
:1055B0008861F048007801287EDBA3E04FF400000A
:1055C000EB49C861BB20EC494870EC480078EC49D5
:1055D0000870E8480078072859D2DFE800F058043E
:1055E00012202E3C4A00E3480078A030E2490870BF
:1055F000E2480078401C88709320C870122008711F
:1056000046E0DC480078A030DB490870DB480078D1
:10561000401C88706320C8701220087138E0D5489B
:105620000078A030D4490870D4480078401C8870B5
:105630003220C870D22008712AE0CE480078A0300D
:10564000CD490870CD480078401C88708320C87010
:10565000132008711CE0C7480078A030C6490870C4
:10566000C6480078401C8870D220C870D3200871CA
:105670000EE0C0480078A030BF490870BF480078ED
:10568000401C88702220C870D320087100BF00BF62
:1056900000BFB948B34908600321B2480068FBF76E
:1056A000E0FCB849088008460088000AB249087141
:1056B000B4480088C87000E029E00846A94908609D
:1056C0000520B149087012E0A64800680078A64994
:1056D000087008460078FBF70EFCA2480068401CE2
:1056E000A0490860A8480078401EA7490870A6484D
:1056F00000780028E8DC4FF400009D498861012013
:10570000FBF787F89B48007807287FF457AF9F483E
:10571000007801287ED19E4800780128FAD1002027
:105720009A4908709149087073E19A488F4909783D
:10573000405C01286FD198480078401E8B49097859
:10574000884247D195480078012839D1944800789B
:10575000002836D18648406D10F4005F31D1914861
:10576000007870BB90480078012823D100208F4931
:10577000087010E002E001208D4908608C48006844
:1057800000F001000128F6D18949086087480078B7
:10579000401C86490870874890F86103854991F854
:1057A000601340EA0120814909788842E2DC002048
:1057B0007D4908704FF400106D49C8618012C865BA
:1057C00022E101207849087040056949886180120A
:1057D000886519E164E065480078A1307649087071
:1057E000BB2048700E20887008465E49086003217F
:1057F0005C480068FBF735FC624908800846008871
:10580000000A6D4908715F480088C8704FF40000B5
:10581000574901E004E14BE0C8616748514908601D
:1058200005206649088012E04E48006800784E491D
:10583000087008460078FBF75EFB4A480068401C89
:10584000484908605D480088401E5C4908805B4804
:1058500000880028E8DC4FF4000045498861642096
:10586000FAF7D7FF00205549088004E05348008824
:10587000401C52490880514800884FF6FF71884209
:10588000F4DB00204D49088004E04C480088401CAF
:105890004A490880494800884FF6FF718842F4DB86
:1058A00047480078002896D0002045490870ABE0B2
:1058B00039480078401E2D490978884208D10120D6
:1058C0003949087040052A498861801288659BE043
:1058D00092E026480078A13037490870BB20487014
:1058E0000F20887008461F49086003211D48006882
:1058F000FBF7B7FB2349088008460088000A2E49B9
:10590000087120480088C8704FF400001849C86129
:1059100029481449086005202849088012E01148E8
:10592000006800781049087008460078FBF7E3FA31
:105930000C480068401C0B49086020480088401E45
:105940001E4908801D4800880028E8DC4FF400004C
:10595000074988616420FAF75CFF00201749088036
:1059600035E00000DC040010D9040010060500102A
:1059700000C0092033040010160200103504001086
:1059800036040010E6040010050500104404001061
:10599000570400103C04001052040010580400107A
:1059A0007E0400105B040010590400105A0400101B
:1059B0000080004044110010220000103804001044
:1059C00043040010FF480088401CFE490880FD4841
:1059D00000884FF6FF718842F4DB0020F949088007
:1059E00004E0F8480088401CF6490880F548008823
:1059F0004FF6FF718842F4DBF348007800283FF44B
:105A000068AF0020F0490870F0480078401CEF496A
:105A10000870EE480078EE4909788842FFF685AEB6
:105A20000420EC49486101204FF04021086010BD7E
:105A30002DE9F04196B00020E749088032E0E749BF
:105A4000E54A128831F8120012F04FFBE449E24AAD
:105A5000128841F82200E04A128851F8220012F020
:105A6000C7FA00B2DF49DC4A128821F81200DA488E
:105A70000088400000F20510DB49095CD648008828
:105A8000400000F58270D84A105C41EA002000B264
:105A9000D649D14A128821F81200CF480088401C0C
:105AA000CD490880CC480088B0F5967FC7DB002040
:105AB000C9490880FBE0CA49C74A128851F8220048
:105AC00012F0F0F8CDE91401C9480CC8149811F08F
:105AD000ADFCCDE91201C7A00CC8129811F0CAF9AB
