:020000040000FA
:10000000B0E70720A9010000AD010000AF0100002A
:10001000C1010000C3010000C50100000000000094
:10002000000000000000000000000000C701000008
:10003000C901000000000000CB010000CD0100005C
:10004000AB330200075A0200CF010000CF010000CD
:10005000CF010000219502007F980200CF0100002F
:100060003F9A0200CF010000CF010000CF01000045
:10007000CF010000CF010000B71C0000CF0100003D
:10008000CF010000A32E0200CF010000CF0100002D
:10009000CF010000CF010000CF010000CF01000020
:1000A000CF010000CF010000CF010000CF01000010
:1000B000CF010000CF010000CF010000CF01000000
:1000C000CF01000000F002F800F05EF80AA090E80E
:1000D000000C82448344AAF10107DA4501D100F003
:1000E00053F8AFF2090EBAE80F0013F0010F18BF72
:1000F000FB1A43F001031847E0B4020010B50200F8
:1001000010F8013B0A4413F0030408BF10F8014B38
:100110001D1108BF10F8015B641E05D010F8016BBB
:10012000641E01F8016BF9D1002D15D010F8014BB8
:1001300003F00C030C2BA1EB04040ABF10F8013BE5
:10014000A4EB8314A4EB032405F1010314F8016B61
:100150005B1E01F8016BF9D5914238BF10F8013BE5
:10016000D1D370470023002400250026103A28BF71
:1001700078C1FBD8520728BF30C148BF0B60704719
:100180001FB51FBD10B510BD29F059FE1146FFF770
:10019000F7FF29F030F929F077FE03B4FFF7F2FFFB
:1001A00003BC29F077FE00000C480047FEE71EF074
:1001B000040F0CBFEFF30880EFF3098029F083BD33
:1001C000FEE7FEE7FEE7FEE7FEE7FEE7FEE7FEE707
:1001D00003480449044A054B70470000C50000006D
:1001E000B0C70720B0E70720B0D70720B0D7072057
:1001F00053EA020C00F069802DE9F04B4FF0000645
:10020000002B1FBFB3FA83F503FA05F424FA05F6B1
:100210005E4012BF1643B2FA82F502FA05F4C5F148
:1002200020051EBF22FA05FC44EA0C04203556EADC
:10023000044C4FEA144418BF641C4FF000084FF000
:100240000009904271EB030C39D3002919BFB1FAB0
:1002500081F701FA07F6B0FA80F700FA07F6C7F15E
:1002600020071EBF20FA07FC46EA0C062037B6FB23
:10027000F4FCA7EB0507103F07F01F0BCBF120069E
:100280000CFA0BFB2CFA06F644BFB3460026202FCF
:10029000A4BF5E464FF0000B5BEA060C08BF4FF0B0
:1002A000010B19EB0B09ABFB027C48EB0608C01BEA
:1002B00006FB02CC0BFB03CC71EB0C01C1E70B4638
:1002C000024641464846BDE8F08B13B54FF00000AA
:1002D0004FF00001AFF30080BDE81C4070470028DC
:1002E00000DA4042704770477047704700487047D7
:1002F0004CC70720004870474CC70720FFFFFFFF8F
:1003000020208549086000BF8348006810F0400F36
:10031000FAD00320814908604FF001008049C1F8FC
:100320000C014FF00F007F4908604FF00100A1F170
:10033000040108604FF0AA007B4908604FF05500A7
:100340007749C1F88C0000BF7848006810F0806FD2
:10035000FAD00320764908604FF0AA007049C1F82E
:100360008C004FF05500704908604FF02300714930
:1003700008604FF00100A1F1040108604FF0AA00ED
:100380006D4908604FF05500086000BF6B48006879
:1003900010F4806FFAD00320694908604FF0AA007A
:1003A0005F49C1F8AC004FF05500634908604FF059
:1003B00000006449086001F1040108606248634973
:1003C00008604FF000005649C1F8C8010846D0F84F
:1003D0008800C0F30160032868D15D48006810F010
:1003E000030006D0012823D002283FD003285CD187
:1003F00000E000BF4D480068C0F30E0000F10100AE
:100400004FEA40014648D0F88800C0F3074000F1A9
:100410000100B1FBF0F04F4900FB01F03F490968D2
:10042000C9B201F10101B0FBF1F04B4908603CE0B9
:100430003E480068C0F30E0000F101004FEA4001A1
:100440003748D0F88800C0F3074000F10100B1FB45
:10045000F0F0424900FB01F030490968C9B201F1EE
:100460000101B0FBF1F03C4908601EE02F48006834
:10047000C0F30E0000F101004FEA40012848D0F817
:100480008800C0F3074000F10100B1FBF0F04FF429
:10049000FA4100FB01F021490968C9B201F10101EB
:1004A000B0FBF1F02C49086000BF2FE0284800683D
:1004B00010F0030006D0012810D0022819D003281C
:1004C00023D100E000BF15480068C0B200F1010070
:1004D0002049B1FBF0F02049086016E00F480068A1
:1004E000C0B200F101001D49B1FBF0F01A490860EB
:1004F0000BE00A480068C0B200F101004FF4FA4175
:10050000B1FBF0F01449086000BF00BF43F23A00AD
:100510000349086070470000A0C10F4004C10F40AC
:1005200000C00F4084C00F408CC00F4088C00F40F7
:1005300080C00F40A4C00F40ACC00F40A8C00F4007
:10054000A0C00F40A8C10F40DE87E804C4C00F4020
:100550000CC10F4000093D0000C00720001BB70080
:1005600030B502460B464FF6FF7011E032F8024BF1
:10057000604000210AE010F0010F04D04AF20104AB
:1005800084EA600000E040104C1CA1B21029F2DBAC
:100590001C00A3F10105ABB2E8D130BD10B5024695
:1005A000F84B1B78DBB9002115E0B1F5927F01D142
:1005B00078200EE0F44C4B1C34F91330934208DBE6
:1005C000CB1C34F91330934203DA8B1C34F913003B
:1005D00004E08B1C99B2B1F5937FE6DB1FE0E94B99
:1005E0001B78012B1BD1002115E0B1F5807F01D1D3
:1005F00078200EE0E54C4B1C34F91330934208DBB5
:10060000CB1C34F91330934203DA8B1C34F91300FA
:1006100004E08B1C99B2B1F5817FE6DB00BF10BD11
:1006200010B5DB48006840F40010DA49C1F8C40096
:100630000846D0F8AC0120F44060C1F8AC0108468F
:10064000D0F8AC0140F48060D34908604FF00F004F
:10065000D24908604FF0060048600846C06810F0B4
:10066000040F02D00846806884B20020CB4948615C
:10067000CB490870CB490870CB4908800E2029F07F
:1006800068FB0420C549486110BD10B50146C74A42
:10069000C24B996005E0521E1AB90123C14C237068
:1006A00004E0BE4BDB6813F0040FF4D000BFBD4B79
:1006B0001B7813B9B94B9B6898B210BD70B5002573
:1006C000BB48808842F20F71884279DAB848808846
:1006D00038BB002408E0201DB54931F81000B549A9
:1006E00021F81400601CC4B2642CF4DBB24800781A
:1006F000012841F0DF82AF48B0F89400AD49B1F86D
:10070000921040EA0140AD490860AA48B0F898004C
:10071000A849B1F8961040EA0140A949086001F0E3
:10072000C9BAA3488088642815D1002410E0201D90
:100730009F4931F81000A34921F8140004F1360054
:100740009B4931F81000A04921F81400601CC4B284
:10075000322CECDBE3E796488088C82815D10024CA
:1007600010E0201D924931F81000984921F814003A
:1007700004F136008E4931F81000954921F8140033
:10078000601CC4B2322CECDBC9E789488088B0F524
:10079000967F16D1002410E0201D854931F8100005
:1007A0008C4921F8140004F13600814931F8100019
:1007B000894921F81400601CC4B2322CECDBAEE78E
:1007C000EEE37B488088B0F5C87F15D1002410E0A7
:1007D000201D774931F81000804921F8140004F1F8
:1007E0003600734931F810007D4921F81400601C6F
:1007F000C4B2322CECDB92E76D488088B0F5FA7F0A
:1008000015D1002410E0201D694931F81000754908
:1008100021F8140004F13600654931F810007249DE
:1008200021F81400601CC4B2322CECDB77E760487E
:100830008088B0F5167F15D1002410E0201D5C499A
:1008400031F81000694921F8140004F136005849C4
:1008500031F81000664921F81400601CC4B2322C33
:10086000ECDB5CE752488088B0F52F7F15D100247F
:1008700010E0201D4E4931F810005E4921F81400A7
:1008800004F136004A4931F810005B4921F81400A0
:10089000601CC4B2322CECDB41E745488088B0F5DF
:1008A000487F15D1002410E0201D414931F8100087
:1008B000524921F8140004F136003D4931F8100086
:1008C0004F4921F81400601CC4B2322CECDB26E73F
:1008D00037488088B0F5617F15D1002410E0201DD5
:1008E000334931F81000474921F8140004F136006B
:1008F0002F4931F81000444921F81400601CC4B29B
:10090000322CECDB0BE72A488088B0F57A7F15D1D2
:10091000002410E0201D264931F810003B4921F841
:10092000140004F13600224931F81000384921F84A
:100930001400601CC4B2322CECDBF0E61C4880884A
:10094000A0F580614C3915D1002410E0201D184914
:1009500031F810002F4921F8140004F13600144931
:1009600031F810002C4921F81400601CC4B2322C5C
:10097000ECDBD4E60E488088B0F5966F62D1002497
:100980005DE0000034C507200AC0072056C20720DA
:10099000C4C00F4000C00F40ACC10F4000800840F1
:1009A00044C7072047C7072048C707200077010032
:1009B000000000109002001050C5072094C60720C8
:1009C00098C60720100900103C0A00107409001096
:1009D000A00A0010D8090010040B0010680B0010CA
:1009E000940C0010CC0B0010F80C0010300C001010
:1009F0005C0D0010C00D0010EC0E0010240E001055
:100A0000500F0010880E0010B40F001018100010C6
:100A1000441100107C100010A8110010201DFE4988
:100A200031F81000FD4921F8140004F13600FA49AC
:100A300031F81000FA4921F81400601CC4B2322CBD
:100A4000ECDB6CE6F4488088A0F5A061143915D180
:100A5000002410E0201DF04931F81000F14921F880
:100A6000140004F13600EC4931F81000EE4921F889
:100A70001400601CC4B2322CECDB50E6E6488088DF
:100A8000B0F5AF6F15D1002410E0201DE24931F818
:100A90001000E64921F8140004F13600DE4931F86F
:100AA0001000E34921F81400601CC4B2322CECDBC6
:100AB00035E6D9488088A0F5A061DC3915D100243D
:100AC00010E0201DD44931F81000DA4921F8140053
:100AD00004F13600D04931F81000D74921F814004C
:100AE000601CC4B2322CECDB19E6CB488088B0F530
:100AF000FA6F7BD1002459E0201DC74931F810005E
:100B0000CE4921F8140004F10E00C34931F8101049
:100B1000CA48143020F8141004F11800BE4931F806
:100B20001010C648283020F8141004F12200BA49E9
:100B300031F81010C1483C3020F8141004F12C009A
:100B4000B54931F81010BD48503020F8141004F1A8
:100B50003600B14931F81010B848643020F814104C
:100B600004F14000AC4931F81010B448783020F856
:100B7000141004F14A00A84931F81010AF488C3025
:100B800020F8141004F15400A34931F81010AB48B8
:100B9000A03020F8141004F15E009F4931F81010C5
:100BA000A648B43020F81410601CC4B20A2CA3DB91
:100BB000002417E004EB8400A04901EB800080884A
:100BC00006B23046FFF7EAFC00EB80004FF6FF71FB
:100BD00001EA400004EB8401984A02EB810188801D
:100BE000601CC4B20A2CE5DB99E5FFE78A488088DF
:100BF000A0F5006134397BD1002459E0201D8649DD
:100C000031F810008E4921F8140004F10E008249D9
:100C100031F810108A48143020F8141004F118002C
:100C20007D4931F810108648283020F8141004F15E
:100C30002200794931F8101081483C3020F8141016
:100C400004F12C00744931F810107D48503020F820
:100C5000141004F13600704931F8101078486430EF
:100C600020F8141004F140006B4931F8101074485A
:100C7000783020F8141004F14A00674931F8101058
:100C80006F488C3020F8141004F15400624931F898
:100C900010106B48A03020F8141004F15E005E497B
:100CA00031F810106648B43020F81410601CC4B23B
:100CB0000A2CA3DB002417E004EB8400604901EB5D
:100CC0008000008A06B23046FFF768FC00EB800027
:100CD0004FF6FF7101EA400004EB8401584A02EB31
:100CE00081010882601CC4B20A2CE5DB002418E0F4
:100CF0001AE004EB8400524901EB8000408A06B2FE
:100D00003046FFF74BFC00EB80004FF6FF7101EA25
:100D1000400004EB84014A4A02EB81014882601CD6
:100D2000C4B20A2CE5DBFAE43B488088A0F50061F8
:100D300098396FD1002435E0201D374931F8101063
:100D40003E48C83020F8141004F10E00324931F842
:100D500010103A48DC3020F8141004F118002E4925
:100D600031F810103548F03020F8141004F122004A
:100D7000294931F81010334820F8141004F12C00E0
:100D8000254931F810102F48143020F8141004F1C0
:100D90003600214931F810102A48283020F8141064
:100DA000601CC4B20A2CC7DB0A2417E004EB8400E1
:100DB000224901EB8000808806B23046FFF7EEFB47
:100DC00000EB80004FF6FF7101EA400004EB840164
:100DD0001A4A02EB81018880601CC4B2102CE5DB4A
:100DE00000240AE004F140000B4931F81010164AC3
:100DF000363822F81010601CC4B2062CF2DB06480C
:100E0000B0F88C00114908800348B0F88E001049F2
:100E100008801FE047E0000000000010E010001014
:100E20000C120010701200109C130010D41200104D
:100E30000014001038130010641400104821001032
:100E4000882200104C2200106859001038C5072075
:100E50003AC50720FE48B0F89000FE490880FC48DB
:100E6000B0F89200FC490880F948B0F89400FB49BA
:100E70000880F748B0F89600F9490880F448B0F8BF
:100E80009800F8490880F248B0F89A00F6490880BE
:100E9000EF48B0F89C00F5490880ED48B0F89E0096
:100EA000F34908803BE4EA488088A0F50061FC39FA
:100EB000F8D1002435E0201DE54931F81010ED4847
:100EC00020F8141004F10E00E14931F81010E9483F
:100ED000143020F8141004F11800DD4931F8101016
:100EE000E448283020F8141004F12200D84931F8E1
:100EF0001010E0483C3020F8141004F12C00D449C4
:100F000031F81010DB48503020F8141004F136008E
:100F1000CF4931F81010D748643020F81410601C05
:100F2000C4B20A2CC7DB0A2419E004EB8400D149BF
:100F3000C83901EB8000008A06B23046FFF72EFB6D
:100F400000EB80004FF6FF7101EA400004EB8401E2
:100F5000C84AC83A02EB81010882601CC4B2102C56
:100F6000E3DB0A2419E004EB8400C249C83901EB31
:100F70008000408A06B23046FFF710FB00EB80008D
:100F80004FF6FF7101EA400004EB8401B94AC83A08
:100F900002EB81014882601CC4B2102CE3DB0EE43A
:100FA000AB488088A0F51C5110392CD100240BE0EF
:100FB000B14830F81410201DA54A32F810008142C3
:100FC00000D00125601CC4B2642CF1DB012D07D0D8
:100FD0000020AA490870AA490880AA4908700AE4B2
:100FE000A7480088401CA649088008460088B0F53C
:100FF0007A7FD4DD0020A1490870A1490880012032
:10100000A049087012E492488088A0F51C517439F8
:1010100017D08F488088A0F51C51D83911D08C4842
:101020008088A0F520513C390BD089488088A0F5F4
:101030002051A03905D086488088A0F52851F8397C
:101040007ED183488088A0F51C5174392CD10024AE
:101050000BE08D4830F81410201D7D4A32F8100046
:10106000814200D00125601CC4B2642CF1DB012D4B
:1010700007D000208549087081490880814908709F
:101080000AE47F480088401C7D49088008460088A3
:10109000B0F57A7FA3DD00207C490870784908808C
:1010A00001207849087012E469488088A0F51C5135
:1010B000D8392DD100240BE0754830F81410201DCC
:1010C000634A32F81000814200D00125601CC4B28E
:1010D000642CF1DB012D08D000206E4908706849AE
:1010E00008800120674908700CE465480088401CAE
:1010F0006349088008460088B0F57A7FC0DD00208B
:10110000644908705E49088001205E49087014E453
:101110004F488088A0F520513C392FD100242AE087
:101120005D4830F81410201D494A32F81000814201
:1011300000D00125012D0AD000205849087000E098
:10114000BCE04F49088001204E49087011E04C482E
:101150000088401C4A49088008460088B0F57A7F1C
:1011600007DD00204D4908704549088001204549A8
:101170000870601CC4B2642CD2DB62E434488088FE
:10118000A0F52051A0392DD1002428E0444830F8A2
:101190001410201D2E4A32F81000814200D0012583
:1011A000012D08D000203F490870354908800120F2
:1011B0003449087011E032480088401C30490880EA
:1011C00008460088B0F57A7F07DD002035490870B1
:1011D0002B49088001202B490870601CC4B2642C84
:1011E000D4DB2EE41A488088A0F52851F8398ED136
:1011F000174840891649098940EA01402A49096887
:10120000884209D11248C0891149898940EA0140C0
:1012100026490968884200D00125012D08D0002008
:10122000234908701649088001201649087008E40F
:1012300013480088401C1249088008460088B0F511
:101240007A7F9ADD00201A4908700D49088031E044
:10125000000000103CC507203EC5072040C5072000
:1012600042C5072044C5072046C5072048C50720BA
:101270004AC507205023001058030010E6C5072078
:1012800048C7072047C7072078060010E9C5072090
:1012900040070010EAC5072008080010EBC507202A
:1012A00088040010ECC5072094C6072098C60720C4
:1012B000E8C507200120FB49087015E4FA4880883A
:1012C000A0F53851E03958D0F7488088A0F53C5156
:1012D000443952D0F4488088A0F53C51A8394CD00C
:1012E000F1488088A0F540510C3946D0EE488088FE
:1012F000A0F54051703940D0EB488088A0F54051AE
:10130000D4393AD0E8488088A0F54451383934D0EF
:10131000E5488088A0F544519C392ED0E248808869
:10132000B0F5485F29D0E0488088A0F5485164397D
:1013300023D0DD488088A0F54851C8391DD0DA484F
:101340008088A0F54C512C3917D0D7488088A0F55B
:101350004C51903911D0D4488088A0F54C51F439C3
:101360000BD0D1488088A0F55051583905D0CE48CF
:101370008088A0F55051BC399FD1CB488088A0F51A
:101380003851E03948D1002443E0C84800780128AA
:1013900027D1C74830F81410201DC34A32F8100076
:1013A000814200D00125012D08D00020BF490870DE
:1013B000C04908800120BB49087028E0BD4800886A
:1013C000401CBC49088008460088B0F57A7F1EDDC5
:1013D0000020B6490870B74908800120B14908705B
:1013E00015E00020B4490870201DAF4931F8100005
:1013F000AF4921F814000846B0F8C60038B1012002
:10140000AE490870AA48B0F8BE00AD490880601C1B
:10141000C4B2642CB9DB86E4A3488088A0F53C51B3
:1014200044393ED1002439E0A6480078012828D16B
:101430009F48C83030F81410201D9B4A32F8100025
:10144000814200D00125012D08D000209D4908705F
:10145000984908800120934908701DE0954800884C
:10146000401C9449088008460088B0F57A7F13DD57
:101470000020944908708F4908800120894908702C
:101480000AE0002090490870201D874931F81010AB
:101490008748C83020F81410601CC4B2642CC3DB29
:1014A00000E281488088A0F53C51A8393CD1002455
:1014B00037E086480078012827D1854830F8141095
:1014C000201D794A32F81000814200D00125012DFB
:1014D00008D000207D4908707649088001207149B4
:1014E00008701CE073480088401C72490880084658
:1014F0000088B0F57A7F12DD0020744908706D49CC
:10150000088001206749087009E0002071490870CF
:10151000201D654931F810106D4820F81410601C2A
:10152000C4B2642CC5DBC5E35F488088A0F5405198
:101530000C393ED1002439E067480078012828D1D1
:101540006348C83030F81410201D574A32F8100094
:10155000814200D00125012D08D000205E4908708D
:101560005449088001204F4908701DE05148008807
:10157000401C5049088008460088B0F57A7F13DD8A
:101580000020554908704B490880012045490870E2
:101590000AE0002051490870201D434931F810101D
:1015A0004B48C83020F81410601CC4B2642CC3DB54
:1015B00080E33D488088A0F5405170393CD100243B
:1015C00037E047480078012827D1464830F8141002
:1015D000201D354A32F81000814200D00125012D2E
:1015E00008D000203E4908703249088001202D496A
:1015F00008701CE02F480088401C2E4908800846CF
:101600000088B0F57A7F12DD00203549087029493D
:10161000088001202349087009E000203249087041
:10162000201D214931F810102E4820F81410601C9C
:10163000C4B2642CC5DB3DE31B488088A0F5405153
:10164000D43964D100245FE02848007801284FD1C4
:101650002448C83030F81410201D134A32F8100006
:10166000814200D00125012D08D000201F490870BB
:101670001049088001200B49087043E00D4800889C
:10168000401C0C49088008460088B0F57A7F39DD97
:101690000020164908700749088001200149087098
:1016A00030E0000047C7072000000010EDC507200C
:1016B000C823001048C70720D5C5072050C50720FC
:1016C00088C50720EEC50720D6C50720EFC507202F
:1016D00058250010D7C50720F0C50720D8C507201A
:1016E000F1C50720E8260010D9C50720F2C507205C
:1016F0000020F9490870201DF84931F81010F84809
:1017000020F81410601CC4B2642C9DDBD2E2F348B4
:101710008088A0F5445138393ED1002439E0F148A1
:101720000078012828D1EE48C83030F81410201D68
:10173000EA4A32F81000814200D00125012D08D07C
:101740000020E8490870E84908800120E74908704E
:101750001DE0E5480088401CE349088008460088F1
:10176000B0F57A7F13DD0020DE490870DE4908807D
:101770000120DE4908700AE00020DD490870201DC4
:10178000D64931F81010D648C83020F81410601C23
:10179000C4B2642CC3DB8DE2D0488088A0F54451EC
:1017A0009C393CD1002437E0D2480078012827D169
:1017B000D14830F81410201DC84A32F81000814278
:1017C00000D00125012D08D00020CA490870C64963
:1017D00008800120C54908701CE0C3480088401CEF
:1017E000C149088008460088B0F57A7F12DD0020E4
:1017F000C0490870BC4908800120BC49087009E054
:101800000020BE490870201DB44931F81010BA48B4
:1018100020F81410601CC4B2642CC5DB4AE2AF4847
:101820008088B0F5485F3ED1002439E0B4480078A4
:10183000012828D1B048C83030F81410201DA74A1C
:1018400032F81000814200D00125012D08D000207F
:10185000AB490870A44908800120A44908701DE024
:10186000A1480088401CA049088008460088B0F5BF
:101870007A7F13DD0020A24908709B49088001206F
:101880009A4908700AE000209E490870201D93497B
:1018900031F810109848C83020F81410601CC4B2F9
:1018A000642CC3DB06E28D488088A0F5485164397A
:1018B0003CD1002437E094480078012827D1934890
:1018C00030F81410201D854A32F81000814200D0F3
:1018D0000125012D08D000208B490870824908801D
:1018E0000120824908701CE07F480088401C7E4926
:1018F000088008460088B0F57A7F12DD0020824912
:1019000008707949088001207849087009E00020B2
:101910007F490870201D714931F810107B4820F86C
:101920001410601CC4B2642CC5DBC3E16B48808812
:10193000A0F54851C8393ED1002439E075480078F7
:10194000012828D17148C83030F81410201D634A8E
:1019500032F81000814200D00125012D08D000206E
:101960006C490870604908800120604908701DE0DA
:101970005D480088401C5C49088008460088B0F536
:101980007A7F13DD002063490870574908800120E1
:10199000564908700AE000205F490870201D4F4931
:1019A00031F810105948C83020F81410601CC4B227
:1019B000642CC3DB7EE149488088A0F54C512C396A
:1019C0003CD1002437E055480078012827D15448FD
:1019D00030F81410201D414A32F81000814200D026
:1019E0000125012D08D000204C4908703E4908808F
:1019F00001203E4908701CE03B480088401C3A49E1
:101A0000088008460088B0F57A7F12DD002043493F
:101A100008703549088001203449087009E0002029
:101A200040490870201D2D4931F810103C4820F81D
:101A30001410601CC4B2642CC5DB3BE127488088CD
:101A4000A0F54C5190393ED1002439E03648007859
:101A5000012828D13248C83030F81410201D1F4A00
:101A600032F81000814200D00125012D08D000205D
:101A70002D4908701C49088001201C4908701DE090
:101A800019480088401C1849088008460088B0F5AD
:101A90007A7F13DD00202449087013490880012053
:101AA000124908700AE0002020490870201D0B49E7
:101AB00031F810101A48C83020F81410601CC4B255
:101AC000642CC3DBF6E005488088A0F54C51F4395E
:101AD00069D1002464E00000DAC50720000000108E
:101AE000B0270010F3C5072048C7072047C70720C5
:101AF000DBC50720F4C5072040290010DCC50720FE
:101B0000F5C50720DDC50720F6C50720D02A00103F
:101B1000DEC50720F7C50720DFC50720F8C5072069
:101B2000602C0010E0C50720F9C50720E1C507209B
:101B3000F9480078012827D1F84830F81410201D02
:101B4000F74A32F81000814200D00125012D08D05B
:101B50000020F1490870F34908800120F24908701B
:101B60001CE0F0480088401CEE49088008460088C8
:101B7000B0F57A7F12DD0020E7490870E949088056
:101B80000120E949087009E00020E8490870201D9B
:101B9000E34931F81010E14820F81410601CC4B279
:101BA000642CC5DB86E0DE488088A0F550515839AA
:101BB0003ED1002439E0DE480078012828D1D748FA
:101BC000C83030F81410201DD54A32F81000814278
:101BD00000D00125012D08D00020D5490870D14939
:101BE00008800120D04908701DE0CE480088401CC4
:101BF000CC49088008460088B0F57A7F13DD0020C4
:101C0000CB490870C74908800120C74908700AE01D
:101C10000020C8490870201DC14931F81010BF4884
:101C2000C83020F81410601CC4B2642CC3DB41E03F
:101C3000BB488088A0F55051BC393BD1002437E027
:101C4000BD480078012827D1BC4830F81410201D69
:101C5000B34A32F81000814200D00125012D08D08E
:101C60000020B5490870AF4908800120AE490870CE
:101C70001CE0AC480088401CAA490880084600883F
:101C8000B0F57A7F12DD0020AB490870A5490880C5
:101C90000120A549087009E00020A9490870201D0D
:101CA0009F4931F81010A54820F81410601CC4B2E8
:101CB000642CC5DB70BD70B5002500240320A1494C
:101CC00008800020A04948619749087001209F4979
:101CD00008709F48008838B94FF000709D49C86768
:101CE00001209B49088006E04FF000709949886701
:101CF00000209749088008E09348806882B228460F
:101D0000691CCDB2864921F810208F48C06810F0B8
:101D1000040FF1D182480088A0F52A41CC3929D19D
:101D20007F48C088642825D1002410E08A4931F812
:101D30001400FEF7AAFC29466A1CD5B2784A22F89C
:101D4000110079480078012800D102E0641C6C2C55
:101D5000ECD300BF642172480830FEF701FC7049E3
:101D6000B1F8D010884217D1FEF7A8FC01207B49BA
:101D7000087011E04FF416540CE07348C06810F07E
:101D8000040F02D1641E2CB905E06F48806886B24A
:101D90004FF41654F1E700BF04206B4948616949CC
:101DA000088070BD30B500256D48007870B90120FD
:101DB0006C4908706C4908706C4908706C4908706F
:101DC0006C4908706C49087065490870654800786E
:101DD000012815D10125002408E0684830F81410C6
:101DE0005D4AE01C22F81010601CC4B2642CF4DBC5
:101DF0000020634908704FF480505649C86502E2DC
:101E000059480078012814D10225002408E05D48D3
:101E100030F81410504AE01C22F81010601CC4B2B4
:101E2000642CF4DB01205649087000034949C86559
:101E3000F7E34E480078012814D10325002408E078
:101E4000514830F81410444AE01C22F81010601C6D
:101E5000C4B2642CF4DB022049490870C0023D4939
:101E6000C865DEE342480078012815D10425002426
:101E700008E0464830F81410374AE01C22F81010E9
:101E8000601CC4B2642CF4DB03203D4908704FF49D
:101E900080503049C865C4E337480078012814D120
:101EA0000525002408E03A4830F814102A4AE01CBE
:101EB00022F81010601CC4B2642CF4DB04203049FA
:101EC000087080022349C865ABE32A4800780128DE
:101ED00064D106252F480068000C1F49C8802D4892
:101EE000008808812C480068000C48812A48008836
:101EF0008881042406E00021E01C174A22F8101013
:101F0000601CC4B2642CF6DB05201D4908704FF438
:101F100080501049C86584E3FAC50720F02D0010F1
:101F20000000001048C7072047C70720E2C5072068
:101F3000FBC50720E3C50720FCC50720802F001044
:101F4000E4C50720A0C50720008008403DC7072042
:101F500008C0072000C00920F000001044C7072077
:101F60001AC50720E6C50720E9C50720EAC50720EE
:101F7000EBC50720E8C50720ECC507205803001073
:101F800046C7072078060010400700100808001018
:101F90008804001094C6072098C60720F9480078E6
:101FA000012815D10725002408E0F74830F814105F
:101FB000E01CF64A22F81010601CC4B2642CF4DB5A
:101FC0000620F34908704FF48050F249C86528E3B1
:101FD000F1480078012810D10025002407E04FF6D1
:101FE000FF71E01CE94A22F81010601CC4B2642C96
:101FF000F5DB0620E649087013E3E848007801287D
:1020000016D10825002409E0DF48C83030F8141044
:10201000E01CDE4A22F81010601CC4B2642CF3DB12
:102020000720DB4908704FF48050DA49C865F8E2B0
:10203000DB480078012810D10025002407E04FF686
:10204000FF71E01CD14A22F81010601CC4B2642C4D
:10205000F5DB0720CE490870E3E2D248007801287A
:1020600014D10925002408E0CF4830F81410E01CF2
:10207000C64A22F81010601CC4B2642CF4DB08209D
:10208000C34908704002C349C865CAE2C74800781E
:10209000012810D10025002407E04FF6FF71E01C55
:1020A000BA4A22F81010601CC4B2642CF5DB082078
:1020B000B7490870B5E2BE480078012816D10A2554
:1020C000002409E0B848C83030F81410E01CAF4ACA
:1020D00022F81010601CC4B2642CF3DB0920AC4958
:1020E00008704FF48050AB49C8659AE2B148007857
:1020F000012810D10025002407E04FF6FF71E01CF5
:10210000A24A22F81010601CC4B2642CF5DB09202E
:102110009F49087085E2A8480078012815D10B2551
:10212000002408E0A54830F81410E01C974A22F873
:102130001010601CC4B2642CF4DB0A2094490870AF
:102140004FF480509349C8656BE29D4800780128A0
:1021500010D10025002407E04FF6FF71E01C8B4AE8
:1021600022F81010601CC4B2642CF5DB0A208849E8
:10217000087056E293480078012816D10C250024F7
:1021800009E08E48C83030F81410E01C7F4A22F86D
:102190001010601CC4B2642CF3DB0B207C49087067
:1021A0004FF480507B49C8653BE28748007801289E
:1021B00010D10025002407E04FF6FF71E01C734AA0
:1021C00022F81010601CC4B2642CF5DB0B2070499F
:1021D000087026E27D480078012815D10D250024DD
:1021E00008E07B4830F81410E01C684A22F8101010
:1021F000601CC4B2642CF4DB0C20654908704FF4F9
:1022000080506449C8650CE272480078012810D1FA
:102210000025002407E04FF6FF71E01C5B4A22F81E
:102220001010601CC4B2642CF5DB0C2058490870F7
:10223000F7E169480078012816D10E25002409E04D
:102240006348C83030F81410E01C504A22F81010CF
:10225000601CC4B2642CF3DB0D204D4908704FF4B0
:1022600080504C49C865DCE15C480078012810D1F9
:102270000025002407E04FF6FF71E01C434A22F8D6
:102280001010601CC4B2642CF5DB0D2040490870AE
:10229000C7E153480078012815D10F25002408E034
:1022A000504830F81410E01C384A22F81010601C16
:1022B000C4B2642CF4DB0E20354908704FF4805012
:1022C0003449C865ADE148480078012810D100259F
:1022D000002407E04FF6FF71E01C2C4A22F8101092
:1022E000601CC4B2642CF5DB0E202949087098E10B
:1022F0003E480078012816D11025002409E039480D
:10230000C83030F81410E01C204A22F81010601C6D
:10231000C4B2642CF3DB0F201D4908704FF48050C9
:102320001C49C8657DE132480078012810D100259C
:10233000002407E04FF6FF71E01C144A22F8101049
:10234000601CC4B2642CF5DB0F201149087068E1F1
:1023500028480078012851D11125002408E026489A
:1023600030F81410E01C094A22F81010601CC4B2A6
:10237000642CF4DB10200649087000020549C8658A
:102380004FE10000EDC50720C8230010F000001049
:1023900046C7072000C00920D5C50720EEC5072085
:1023A000D6C50720EFC5072058250010D7C5072040
:1023B000F0C50720D8C50720F1C50720E826001082
:1023C000D9C50720F2C50720DAC50720F3C50720C5
:1023D00078280010DBC50720F4C50720DCC50720DE
:1023E000F5C50720082A0010DDC50720F6C507201F
:1023F000DEC50720F7C50720982B0010FE4800789F
:10240000012810D10025002407E04FF6FF71E01CE1
:10241000FA4A22F81010601CC4B2642CF5DB1020BC
:10242000F7490870FDE0F7480078012815D112251A
:10243000002408E0F44830F81410E01CEF4A22F8B9
:102440001010601CC4B2642CF4DB1120EC4908703D
:102450004FF48050ED49C865E3E0ED48007801286D
:1024600010D10025002407E04FF6FF71E01CE34A7D
:1024700022F81010601CC4B2642CF5DB1120E04976
:102480000870CEE0E3480078012816D11325002417
:1024900009E0DD48C83030F81410E01CD74A22F8B3
:1024A0001010601CC4B2642CF3DB1220D4490870F5
:1024B0004FF48050D549C865B3E0D748007801286B
:1024C00010D10025002407E04FF6FF71E01CCB4A35
:1024D00022F81010601CC4B2642CF5DB1220C8492D
:1024E00008709EE0CD480078012815D114250024FD
:1024F00008E0CB4830F81410E01CC04A22F8101055
:10250000601CC4B2642CF4DB1320BD4908704FF486
:102510008050BE49C86584E0C2480078012810D1C7
:102520000025002407E04FF6FF71E01CB34A22F8B3
:102530001010601CC4B2642CF5DB1320B049087085
:102540006FE0B9480078012816D11525002409E06C
:10255000B348C83030F81410E01CA84A22F8101014
:10256000601CC4B2642CF3DB1420A54908704FF43E
:102570008050A649C86554E0AC480078012810D1C5
:102580000025002407E04FF6FF71E01C9B4A22F86B
:102590001010601CC4B2642CF5DB1420984908703C
:1025A0003FE0A3480078012815D11625002408E053
:1025B000A04830F81410E01C904A22F81010601C5B
:1025C000C4B2642CF4DB15208D4908704FF48050A0
:1025D0008E49C86525E098480078012810D100256B
:1025E000002407E04FF6FF71E01C844A22F8101027
:1025F000601CC4B2642CF5DB15208149087010E022
:1026000000254FF4805081498865002407E04FF68B
:10261000FF71E01C794A22F81010601CC4B2642CCF
:10262000F5DB64217548801DFDF79AFF7349A1F819
:10263000CE00284630BD70B504460D4632207F4995
:1026400008600846446085607D497E4A90477C4822
:10265000006870BD70B504460D46342077490860A7
:102660000846446085607848C86075497348754A73
:1026700090477348006870BD70B504460D46164615
:1026800033206E490860084644608560C6606E4825
:1026900008616B4969486B4A90476948006870BD9A
:1026A00070B504460D461646382064490860084651
:1026B00044608560C6606249624A9047604800682D
:1026C00070BD0CB50020009001900CE05F48007DCB
:1026D00010F0010F03D05D480078009000E005E0A5
:1026E0000198401C019001980828EFD300BF0CBD51
:1026F0000CB50020009001900CE05548007D10F0D2
:10270000010F03D052480078009000E005E00198E6
:10271000401C019001980828EFD300BF0CBD0CB5F8
:102720000020009001900CE04A48007D10F0010F5D
:1027300003D048480078009000E005E00198401C74
:10274000019001980828EFD300BF0CBD2DE9F0419E
:102750004148006840F008004049C1F8C4004FF00B
:1027600083003A4908734FF000023D4B3D4903C9CD
:1027700028F020F8054600223B4B28F01BF80746BE
:1027800028F0A0F984B20420384908702046E117E7
:1027900004EB1161090A2D4A117111460C700320D6
:1027A00008738720087201204860052027F0D1FABD
:1027B000FFF787FF4FF400001449C861BDE8F081BE
:1027C0002DE9F0412448006840F010002349C1F889
:1027D000C4004FF000001E4948604FF083000873AA
:1027E0004FF000021E4B1F4903C927F0E3FF0546C7
:1027F00000221F4B3EE00000DFC50720F000001064
:1028000046C70720F8C50720602C001000C009202B
:10281000E0C50720F9C50720E1C50720FAC5072054
:10282000F02D0010E2C50720FBC50720E3C50720F7
:10283000FCC50720802F0010E4C507204830001099
:1028400068300010F11FFF1F0077010000C000403A
:102850000000014000C00940C4C00F4000C00F404C
:1028600000003040C8C6072000C0C24034C6072060
:102870000020FC4027F09EFF074628F023F984B291
:102880002046E11704EB1161090AFE4A1171114655
:102890000C700320087307200872062027F059FAED
:1028A0000120F8494860FFF723FF0420F649C86576
:1028B000BDE8F0812DE9F05FF448006840F0007059
:1028C000F349C1F8C4004FF08300F2490873F2489D
:1028D0000088062828D2DFE800F00F151B21030925
:1028E0004FF496640420ED49087023E04FF4166419
:1028F0000420EA4908701DE04FF416540420E7490B
:10290000087017E04FF496440220E449087011E083
:102910004FF416440120E14908700BE04FF4E13414
:102920000120DE49087005E04FF416540420DB490D
:10293000087000BF00BF204628F008F905460E4683
:102940000022D74BD74903C927F034FF07462A4650
:10295000334627F02FFF824628F0B4F81FFA80F99B
:1029600048464FEAE97109EB1161090AC94A117138
:10297000114681F800900320087387200872012017
:102980004860082027F0E5F9FFF7C9FE4FF0005036
:10299000BD49C863BDE8F09F002108E0C24A127D2E
:1029A00012F0010F02D0C149BF4A1078491CB1F59D
:1029B000FA7FF3D37047BC4B1870002106E0BA4A87
:1029C000127D12F0400F00D0B949491CB94A91421A
:1029D000F5D37047002108E0AA4A127D12F0010FDA
:1029E00002D0A84A1078B149491CB1F5FA7FF3D357
:1029F0007047A44B1870002106E0A24A127D12F025
:102A0000400F00D0AA49491CAA4A9142F5D3704709
:102A1000002108E09F4A127D12F0010F02D0A34965
:102A20009C4A1078491CB1F5FA7FF3D37047994B53
:102A30001870002106E0974A127D12F0400F00D076
:102A40009B49491C9B4A9142F5D3704770B5044697
:102A50002C25994EB56160253560002000E0401CB2
:102A600042F21075A842FAD3934DAC602825924EDD
:102A7000B561002000E0401C42F21075A842FAD374
:102A8000C1F307258C4EB5602825B561002000E014
:102A9000401C42F21075A842FAD3CDB2864EB56002
:102AA0002825B561002000E0401C42F21075A842C4
:102AB000FAD30DE012F8015B7F4EB5602825B561B1
:102AC000002000E0401C42F21075A842FAD35B1EC1
:102AD000002BEFD11025784E35602825B5610020F8
:102AE00000E0401C42F21075A842FAD370BD2DE9F7
:102AF000F84F80460E461746002070494861082F5F
:102B000039D9C7F3CF00009007F0070A002416E078
:102B1000B14609EBC4091FFA88FB0BEBC4001FFA8E
:102B200080FB08234A465946A020FFF78FFF4FF449
:102B3000002500E06D1E002DFCD1601C84B20098C1
:102B40008442E5DBBAF1000F21DDB14609EBC4098F
:102B50001FFA88FB0BEBC4001FFA80FB53464A4662
:102B60005946A020FFF772FF4FF4002500E06D1ECC
:102B7000002DFCD10BE03B4632464146A020FFF73A
:102B800065FF4FF4002500E06D1E002DFCD10420F0
:102B90004A494861BDE8F88F0146494830F81100BC
:102BA000484A108010460088704770B505460C46AC
:102BB0002846FFF7F1FF444908800988091B08B23D
:102BC000FDF78DFB414908800846008870BD30B58F
:102BD00002464FF6FF7014E0FF2900D915E012F805
:102BE000014B604000230AE010F0010F04D04AF2CC
:102BF000010484EA600000E040105C1CE3B2082B92
:102C0000F2DB0C00A1F10101E6D100BF30BD2DE9DE
:102C1000F043A7B00546002401222146641C01A808
:102C2000425403222146641C425407222146641C5C
:102C3000425482222146641C425400222146641CD4
:102C4000425413222146641C42542A122146641C19
:102C500042542046611CCCB201A90D5401AEE11EC4
:102C6000F01CFFF7B4FF81462046611CCCB201A9DD
:102C700001F800904FEA29222046611CCCB201A93C
:102C80000A5425E00000014000C00920C4C00F40E4
:102C900000C00F4000C009409CC5072034C6072073
:102CA00000003040C8C6072000C00040C02709000F
:102CB000808D5B00404B4C0000000A4000800840C3
:102CC00032C7072028C507202AC507202CC50720A2
:102CD00000BF0420F8498865A04608E037783846E8
:102CE000FFF787FE761CA8F101001FFA80F8B8F103
:102CF000000FF3DC0420F049C8650120FFF74CFF0A
:102D0000EE49088007E0ED4801880120FFF74DFFFC
:102D1000042800DD00E0F6E700BF27B0BDE8F0833F
:102D2000E7490988012902DA0121E54A1180E449CD
:102D30000988102902DD1021E14A1180E049098843
:102D4000E04AA2F8C610002057E0DF4931F8101021
:102D500031B9002200F10A01DC4B23F811204AE0CE
:102D6000D94931F81010012908D1D94931F810207A
:102D700000F10A01D54B23F811203CE0D24931F88B
:102D80001010022909D0D04931F81010032904D0BD
:102D9000CD4931F81010042912D1CD4931F8102055
:102DA000C94931F81010491E40F27123594302EB12
:102DB00001118AB200F10A01C44B23F811201AE074
:102DC000C14931F81010052909D0BF4931F8101058
:102DD000062904D0BC4931F8101007290BD1BC4991
:102DE00031F8101049F6404211448AB200F10A014C
:102DF000B64B23F81120411CC8B22028A5DB704730
:102E00000121B04AA2F8C61000200DE0B14931F806
:102E10001010012906D1AB49B1F8C610491CA94AC6
:102E2000A2F8C610411CC8B20F28EFDBA549B1F8C3
:102E3000C610102903DD1021A24AA2F8C6100020F6
:102E400007E0002200F10A01A04B23F81120411CE9
:102E5000C8B21028F5DB9F490988022948D19E494C
:102E6000098829B90021994A9182D18211838DE084
:102E70009949098801290BD198490988964A1288ED
:102E800091FBF2F1914A91820021D18211837DE080
:102E900091490988022912D1904909888E4A1288DD
:102EA00091FBF2F1894A91828C4909888A4A1288F9
:102EB00091FBF2F1854AD1820021118366E08749B6
:102EC0000988854A128891FBF2F1804A91828349F0
:102ED0000988814A128891FBF2F17C4AD1827F49AC
:102EE00009887D4A128891FBF2F1784A11834DE0FE
:102EF0007849098803291ED178490988032291FB62
:102F0000F2F142F210721144704A918273490988B9
:102F1000032291FBF2F144F6206211446B4AD18204
:102F20006E490988032291FBF2F147F230521144B5
:102F3000664A11832AE067490988042915D167493F
:102F4000098849F640421144604A918263490988E0
:102F500049F6404211445D4AD1826049098849F6E8
:102F600040421144594A118310E05A490988052901
:102F700007D15A4909884CF250321144534A918280
:102F800004E00021514A9182D1821183514949883C
:102F9000022948D15049498829B900214B4A518317
:102FA0009183D183A1E04C49498801290BD14B4938
:102FB0004988494A528891FBF2F1444A51830021E1
:102FC0009183D18391E044494988022912D1434930
:102FD0004988414A528891FBF2F13C4A51833F496A
:102FE00049883D4A528891FBF2F1384A9183002189
:102FF000D1837AE039494988374A528891FBF2F106
:10300000324A518335494988334A528891FBF2F15B
:103010002E4A9183314949882F4A528891FBF2F117
:103020002A4AD18361E02B49498803291ED12B49C3
:103030004988032291FBF2F142F210721144234AB3
:10304000518326494988032291FBF2F144F620621C
:1030500011441E4A918321494988032291FBF2F1D0
:1030600047F230521144194AD1833EE01949498848
:10307000042915D11949498849F640421144134A97
:1030800051831649498849F6404211440F4A9183B9
:103090001249498849F6404211440C4AD18324E040
:1030A0000C49498805291BD10C4949884CF25032FA
:1030B0001144064AD18218E000C0092026C5072025
:1030C000F0C6072058030010DA70001088040010C2
:1030D0001A710010807000109E700010BC700010FB
:1030E0000021F94A51839183D183F84989880229C3
:1030F00048D1F749898829B90021F34A11845184BC
:1031000091848DE0F249898801290BD1F1498988A0
:10311000EF4A928891FBF2F1EB4A1184002151842D
:1031200091847DE0EA498988022912D1E949898898
:10313000E74A928891FBF2F1E34A1184E5498988D4
:10314000E34A928891FBF2F1DF4A51840021918495
:1031500066E0E0498988DE4A928891FBF2F1DA4A1A
:103160001184DC498988DA4A928891FBF2F1D64AC7
:103170005184D8498988D64A928891FBF2F1D24A83
:1031800091844DE0D149898803291ED1D14989888C
:10319000032291FBF2F142F210721144CA4A1184E7
:1031A000CC498988032291FBF2F144F62062114454
:1031B000C54A5184C7498988032291FBF2F147F23D
:1031C00030521144C04A91842AE0C04989880429B8
:1031D00015D1C049898849F640421144BA4A118440
:1031E000BC49898849F640421144B74A5184B949DB
:1031F000898849F640421144B34A918410E0B349AA
:103200008988052907D1B34989884CF25032114485
:10321000AD4A118304E00021AB4A118451849184AA
:10322000AA49C988022948D1A949C98829B90021D0
:10323000A54AD184118551858DE0A549C988012908
:103240000BD1A449C988A24AD28891FBF2F19E4AC7
:10325000D1840021118551857DE09D49C9880229CD
:1032600012D19C49C9889A4AD28891FBF2F1964AB8
:10327000D1849849C988964AD28891FBF2F1924A42
:1032800011850021518566E09249C988904AD2880B
:1032900091FBF2F18C4AD1848E49C9888C4AD2883C
:1032A00091FBF2F1884A11858A49C988884AD288F7
:1032B00091FBF2F1844A51854DE08449C988032984
:1032C0001ED18449C988032291FBF2F142F21072A7
:1032D00011447D4AD1847F49C988032291FBF2F1D0
:1032E00044F620621144784A11857A49C98803223C
:1032F00091FBF2F147F230521144734A51852AE0B2
:103300007249C988042915D17249C98849F64042D1
:1033100011446D4AD1846F49C98849F6404211442D
:10332000694A11856B49C98849F640421144664A89
:10333000518510E06549C988052907D16549C988C3
:103340004CF250321144604A518304E000215E4A3D
:10335000D184118551855D490989022948D15C498B
:10336000098929B90021584A9185D18511868DE0B6
:103370005749098901290BD156490989544A1289AB
:1033800091FBF2F1504A91850021D18511867DE0B3
:103390004F490989022912D14E4909894C4A12899B
:1033A00091FBF2F1484A91854A490989484A1289B4
:1033B00091FBF2F1444AD1850021118666E045492E
:1033C0000989434A128991FBF2F13F4A91854149AB
:1033D00009893F4A128991FBF2F13B4AD1853D4967
:1033E00009893B4A128991FBF2F1374A11864DE077
:1033F0003649098903291ED136490989032291FBDF
:10340000F2F142F2107211442F4A91853149098933
:10341000032291FBF2F144F6206211442A4AD1853D
:103420002C490989032291FBF2F147F230521144F1
:10343000254A11862AE025490989042915D12549FB
:10344000098949F6404211441F4A91852149098959
:1034500049F6404211441C4AD1851E49098949F662
:1034600040421144184A118610E01849098905297B
:1034700007D1184909894CF250321144124A9183FC
:1034800004E00021104A9185D18511860F494989B0
:10349000022951D10E49498929B900210A4A518688
:1034A0009186D18696E00A494989012914D10949B2
:1034B0004989074A528991FBF2F1034A518600215A
:1034C0009186D18686E0000088040010807000108C
:1034D0009E700010BC700010FE494989022912D16B
:1034E000FD494989FB4A528991FBF2F1FB4A518619
:1034F000F9494989F74A528991FBF2F1F74A9186D5
:103500000021D18666E0F4494989F24A528991FB4B
:10351000F2F1F24A5186F0494989EE4A528991FB0B
:10352000F2F1EE4A9186EC494989EA4A528991FBC7
:10353000F2F1EA4AD1864DE0E949498903291ED1D1
:10354000E5494989032291FBF2F142F210721144DC
:10355000E24A5186E0494989032291FBF2F144F69F
:1035600020621144DD4A9186DB494989032291FB9F
:10357000F2F147F230521144D84AD1862AE0D849B4
:103580004989042915D1D449498949F64042114451
:10359000D24A5186D049498949F640421144CF4A1E
:1035A0009186CD49498949F640421144CB4AD1869A
:1035B00010E0CB494989052907D1C74949894CF20F
:1035C00050321144C54AD18304E00021C34A5186D8
:1035D0009186D186C2498989022948D1BD49898904
:1035E00029B90021BD4A1187518791878DE0B949DA
:1035F000898901290BD1B8498989B64A928991FBF9
:10360000F2F1B64A11870021518791877DE0B149D7
:103610008989022912D1B0498989AE4A928991FBE0
:10362000F2F1AE4A1187AC498989AA4A928991FB85
:10363000F2F1AA4A51870021918766E0A64989895B
:10364000A44A928991FBF2F1A44A1187A24989897F
:10365000A04A928991FBF2F1A04A51879E4989893B
:103660009C4A928991FBF2F19C4A91874DE09C49DA
:10367000898903291ED198498989032291FBF2F196
:1036800042F210721144954A1187934989890322A5
:1036900091FBF2F144F620621144904A51878E4921
:1036A0008989032291FBF2F147F2305211448B4A8F
:1036B00091872AE08A498989042915D1864989890F
:1036C00049F640421144854A11878349898949F660
:1036D00040421144814A51877F49898949F64042D5
:1036E00011447E4A918710E07D498989052907D1D7
:1036F000794989894CF250321144784A118404E0A6
:103700000021764A1187518791877549C989022915
:1037100050D17049C98939B90021704AD187A2F8BE
:103720004010A2F8421099E06A49C98901290DD1D7
:103730006949C989674AD28991FBF2F1674AD18701
:103740000021A2F84010A2F8421087E06149C9891F
:10375000022914D16049C9895E4AD28991FBF2F1EC
:103760005E4AD1875C49C9895A4AD28991FBF2F1F4
:103770005A4AA2F840100021A2F842106EE05649C1
:10378000C989544AD28991FBF2F1544AD1875249EE
:10379000C989504AD28991FBF2F1504AA2F84010EF
:1037A0004D49C9894B4AD28991FBF2F14B4AA2F8A3
:1037B000421053E04A49C989032920D14649C989A1
:1037C000032291FBF2F142F210721144434AD18775
:1037D0004149C989032291FBF2F144F62062114468
:1037E0003E4AA2F840103C49C989032291FBF2F1FC
:1037F00047F230521144394AA2F842102EE03849BB
:10380000C989042917D13449C98949F6404211446C
:10381000324AD1873049C98949F6404211442F4A7A
:10382000A2F840102C49C98949F6404211442B4A5C
:10383000A2F8421012E02A49C989052907D1264970
:10384000C9894CF250321144244A518406E00021C7
:10385000224AD187A2F84010A2F842102049098AD2
:1038600002295ED11B49098A41B900211B4AA2F8ED
:103870004410A2F84610A2F84810A9E01549098A98
:1038800001290ED11449098A124A128A91FBF2F1D8
:10389000124AA2F844100021A2F84610A2F84810DB
:1038A00096E00C49098A02291FD10B49098A094A65
:1038B000128A91FBF2F1094AA2F844100649098ADA
:1038C000044A128A91FBF2F1044AA2F84610002140
:1038D00008E000009E700010BC700010880400100A
:1038E00080700010A2F8481072E0F749098AF74A80
:1038F000128A91FBF2F1F64AA2F84410F249098AC1
:10390000F24A128A91FBF2F1F14AA2F84610EE490E
:10391000098AEE4A128A91FBF2F1ED4AA2F84810A8
:1039200056E0EC49098A032921D1E749098A032293
:1039300091FBF2F142F210721144E54AA2F84410F0
:10394000E149098A032291FBF2F144F62062114415
:10395000DF4AA2F84610DC49098A032291FBF2F102
:1039600047F230521144DA4AA2F8481030E0D949FF
:10397000098A042918D1D449098A49F640421144D8
:10398000D34AA2F84410D049098A49F6404211446A
:10399000CF4AA2F84610CC49098A49F64042114460
:1039A000CB4AA2F8481013E0CA49098A052907D171
:1039B000C549098A4CF250321144C54A918407E046
:1039C0000021C34AA2F84410A2F84610A2F84810F9
:1039D000C049498A022954D1BC49498A41B90021C8
:1039E000BB4AA2F84A10A2F84C10A2F84E109FE071
:1039F000B649498A01290ED1B349498AB34A528A44
:103A000091FBF2F1B24AA2F84A100021A2F84C1040
:103A1000A2F84E108CE0AD49498A022915D1AA4975
:103A2000498AAA4A528A91FBF2F1A94AA2F84A109D
:103A3000A549498AA54A528A91FBF2F1A44AA2F803
:103A40004C100021A2F84E1072E09F49498A9F4A0B
:103A5000528A91FBF2F19E4AA2F84A109A49498A89
:103A60009A4A528A91FBF2F1994AA2F84C1096496F
:103A7000498A964A528A91FBF2F1954AA2F84E1071
:103A800056E09449498A032921D18F49498A032262
:103A900091FBF2F142F2107211448D4AA2F84A10E1
:103AA0008949498A032291FBF2F144F620621144CC
:103AB000874AA2F84C108449498A032291FBF2F10B
:103AC00047F230521144824AA2F84E1030E0814948
:103AD000498A042918D17C49498A49F6404211444F
:103AE0007B4AA2F84A107849498A49F64042114473
:103AF000774AA2F84C107449498A49F64042114469
:103B0000734AA2F84E1013E07249498A052907D179
:103B10006D49498A4CF2503211446D4AD18407E014
:103B200000216B4AA2F84A10A2F84C10A2F84E10DD
:103B3000704770B504462C25674EB56142F210708F
:103B400000E0401E0028FCD16025634E356042F243
:103B5000107000E0401E0028FCD15F4DAC6042F2C6
:103B6000107000E0401E0028FCD128255A4EB56197
:103B700042F2107000E0401E0028FCD1C1F307257E
:103B8000554EB56042F2107000E0401E0028FCD196
:103B90002825514EB56142F2107000E0401E002809
:103BA000FCD1CDB24C4EB56042F2107000E0401E28
:103BB0000028FCD12825484EB56142F2107000E083
:103BC000401E0028FCD12025434E356042F2107083
:103BD00000E0401E0028FCD108253F4EB56142F2AE
:103BE000107000E0401E0028FCD1651C3A4EB56004
:103BF00042F2107000E0401E0028FCD12825364E0D
:103C0000B56142F2107000E0401E0028FCD100BFF8
:103C10000425314E356042F2107000E0401E00284D
:103C2000FCD128252C4EB56142F2107000E0401EF8
:103C30000028FCD1284DAD6802F8015B5B1E012B0A
:103C4000E6D82425244EB56142F2107000E0401EF3
:103C50000028FCD10825204EB56142F2107000E02A
:103C6000401E0028FCD11C4DAD68157042F210704A
:103C700000E0401E0028FCD11025174E356042F2AE
:103C8000107000E0401E0028FCD12825124EB561BE
:103C900042F2107000E0401E0028FCD170BD70B5EB
:103CA00004460D46164633462A462146A020FFF715
:103CB00040FF70BD2DE9D04FADF5DE6D074800889F
:103CC000072882F000810BE0BC7000109E7000108D
:103CD000880400108070001000000A404CC60720C5
:103CE000DFE810F0F11007006A05640AD30F4C10EA
:103CF00054102E20FEF78BFF4FF00008C14616E04F
:103D0000FE4830F8190001124046421C1FFA82F8A2
:103D1000FB4A1154F94810F819104046421C1FFA8A
:103D200082F8F74A115409F101001FFA80F9B9F13C
:103D3000640FE5DB4FF00008C14617E0F14830F8AA
:103D400019000112EE4A08F1C8001154C7381FFAD1
:103D500080F8EC4810F8191008F1C8001154C73861
:103D60001FFA80F809F101001FFA80F9B9F1640F18
:103D7000E4DB4FF00008C1463BE0E34830F81900AF
:103D800001124FEA480000F5C870DD4A1154DE48C0
:103D900010F819104FEA480000F291101154DB4856
:103DA00030F8190001124FEA480000F5167011545E
:103DB000D64810F819104FEA480000F25920115463
:103DC000D34830F8190001124FEA480000F5487056
:103DD0001154CF4810F819104FEA480000F2213072
:103DE000115408F101001FFA80F809F101001FFACF
:103DF00080F9B9F1640FC0DBC64800880012C049E1
:103E000081F8E803C348007881F8E903C2480088D4
:103E1000001281F8EA03C048007881F8EB03BF483C
:103E20000078001281F8EC03BC48007881F8ED03BB
:103E3000BB480088001281F8EE03B948007881F889
:103E4000EF03B8480088001281F8F003B548007805
:103E500081F8F103B3484088001281F8F203B148B9
:103E6000807881F8F303AF488088001281F8F4036A
:103E7000AC48007981F8F503AA48C088001281F89F
:103E8000F603A848807981F8F703A6480089001254
:103E900081F8F803A348007A81F8F903A248008862
:103EA000001281F8FA03A048007881F8FB039E48CD
:103EB0004088001281F8FC039B48807881F8FD035C
:103EC00099488088001281F8FE039748007981F8AC
:103ED000FF039548C0880112894880F80014924871
:103EE0008179874880F801148F480089011284483D
:103EF00080F802148C48017A814880F803148B48BA
:103F0000008801127E4880F80414884801787C48B3
:103F100080F80514854840880112794880F8061415
:103F200082488178764880F807148048808801129A
:103F3000734880F808147D480179714880F80914A5
:103F40007A48C08801126E4880F80A14774881794F
:103F50006B4880F80B14754800890112684880F896
:103F60000C147248017A664880F80D147048017884
:103F7000634880F80E14002180F80F1480F81014A4
:103F800080F8111480F8121480F8131480F81414B7
:103F900080F8151480F8161480F817146548008806
:103FA0000112574880F8181462480178544880F884
:103FB0001914614800880112514880F81A145E48AB
:103FC00001784F4880F81B145C48008801124C4867
:103FD00080F81C1459480178494880F81D14584845
:103FE00000880112464880F81E145548017844485C
:103FF00080F81F14534800880112414880F82014AB
:10400000504801783E4880F821144F48008801123A
:104010003B4880F822144C480178394880F8231432
:10402000002180F8241480F8251480F8261480F8E4
:10403000271480F8281480F8291480F82A1480F8AE
:104040002B1480F82C1480F82D1440480068010EC1
:104050002B4880F82E143D480068010C284880F851
:104060002F143A480088010A254880F83014374850
:104070000178234880F8311435480088011220481F
:1040800080F83214324801781D4880F833143148E2
:10409000008801121A4880F834142E480178184814
:1040A00080F835142C4800880112154880F8361421
:1040B00029480178124880F83714284800880112EE
:1040C0000F4880F83814254801780D4880F83914D5
:1040D0002348008801120A4880F83A1420480178E1
:1040E000074880F83B141F4800880112044880F8F4
:1040F0003C141C480178024836E0000058030010C8
:10410000081B0010880400107806001040070010FB
:10411000080800109AC507209CC50720D0C60720B4
:104120009EC5072058700010627000106C7000105F
:1041300034C50720AAC6072000C7072002C70720EA
:1041400004C7072006C7072008C70720D4C60720D2
:10415000D8C60720DAC60720DCC60720DEC607203F
:10416000E0C60720E2C6072080F83D14FE4800881C
:104170000112FE4880F83E14FB480178FB4880F8A5
:104180003F14FB4800880112F84880F84014F848B2
:104190000178F64880F84114F64800880112F34887
:1041A00080F84214F3480178F04880F84314F2484C
:1041B00000880112ED4880F84414EF480178EB487C
:1041C00080F84514ED4800880112E84880F846144C
:1041D000EA480178E54880F84714E9480088011268
:1041E000E24880F84814E6480178E04880F849142D
:1041F000E14840880112DD4880F84A14DE488178A1
:10420000DA4880F84B14DD4840880112D74880F81E
:104210004C14DA488178D54880F84D14D848408845
:104220000112D24880F84E14D5488178CF4880F8E2
:104230004F14D14880880112CC4880F85014CE48E1
:104240000179CA4880F85114CC4880880112C748C7
:1042500080F85214C9480179C44880F85314C848FA
:1042600080880112C14880F85414C5480179BF48BC
:1042700080F85514C048C0880112BC4880F8561414
:10428000BD488179B94880F85714BC48C0880112EC
:10429000B64880F85814B9488179B44880F8591460
:1042A000B748C0880112B14880F85A14B4488179DF
:1042B000AE4880F85B14B04800890112AB4880F822
:1042C0005C14AD48017AA94880F85D14AB480089B8
:1042D0000112A64880F85E14A848017AA34880F825
:1042E0005F14A74800890112A04880F86014A44810
:1042F000017A9E4880F861149F48408901129B48CA
:1043000080F862149C48817A984880F863149B482E
:1043100040890112954880F864149848817A93483E
:1043200080F86514964840890112904880F8661418
:104330009348817A8D4880F867148F4880890112EC
:104340008A4880F868148C48017B884880F8691492
:104350008A4880890112854880F86A148748017B61
:10436000824880F86B148648808901127F4880F863
:104370006C148348017B7D4880F86D147E48C089A9
:1043800001127A4880F86E147B48817B774880F868
:104390006F147A48C0890112744880F87014774805
:1043A000817B724880F871147548C08901126F488A
:1043B00080F872147248817B6C4880F873146E48E0
:1043C000008A0112694880F874146B48017C6748C0
:1043D00080F875146948008A0112644880F87614E0
:1043E0006648017C614880F877146548008A0112AC
:1043F0005E4880F878146248017C5C4880F8791443
:10440000604800880112594880F87A145D480178A4
:10441000564880F87B145C4800880112534880F8A5
:104420007C1459480178514880F87D145748008819
:1044300001124E4880F87E14544801784B4880F8A9
:104440007F144D48408A0112484880F880144A4839
:10445000817C464880F881144848408A01124348CC
:1044600080F882144548817C404880F88314444891
:10447000408A01123D4880F884144148817C3B48C1
:1044800080F885143C48808A0112384880F88614E8
:104490003948017D354880F887143848808A0112F0
:1044A000324880F888143548017D304880F88914F6
:1044B0003348808A01122D4880F88A143048017DE3
:1044C0002A4880F88B142C48C08A0112274880F8AB
:1044D0008C142948817D254880F88D142748C08A8E
:1044E0000112224880F88E142448817D1F4880F8EC
:1044F0008F142348C08A01121C4880F89014204869
:10450000817D1A4880F891141B48008B01121748CE
:1045100080F892141848017E144880F893141748C4
:10452000008B0112114880F894141448017E0F4842
:1045300080F895141248008B01120C4880F89614EC
:104540000F48017E094880F897140B48408B0112F0
:10455000064880F898140848817E044880F8991429
:104560000648408B011213E0E4C60720081B001028
:10457000E6C60720EEC60720807000109E7000106F
:10458000BC700010E8C60720EAC60720ECC607206A
:10459000FE4880F89A14FE48817EFC4880F89B14FF
:1045A000FC48408B0112F94880F89C14F948817E40
:1045B000F64880F89D14F848808B0112F34880F883
:1045C0009E14F548017FF14880F89F14F048808BD5
:1045D0000112EE4880F8A014ED48017FEB4880F806
:1045E000A114EC48808B0112E84880F8A214E94835
:1045F000017FE64880F8A3144FF00008C1462AE086
:10460000E64830F8190001124FEA480000F59660BC
:10461000DE4A1154E14810F819104FEA480000F240
:10462000B1401154DE4830F8190001124FEA480039
:1046300000F59E601154DA4810F819104FEA48004E
:1046400000F2F140115408F101001FFA80F809F15D
:1046500001001FFA80F9B9F1200FD1DBD1480068C1
:10466000010ECA4880F82016CE480068010CC748E1
:1046700080F82116CB480088010AC44880F8221629
:10468000C8480178C14880F82316C7480068010E61
:10469000BE4880F82416C4480068010CBB4880F866
:1046A0002516C1480088010AB84880F82616BE4879
:1046B0000178B64880F82716BC480068010EB34858
:1046C00080F82816B9480068010CB04880F829160F
:1046D000B6480088010AAD4880F82A16B348017828
:1046E000AA4880F82B16B2480068010EA74880F847
:1046F0002C16AF480068010CA44880F82D16AC4871
:104700000088010AA14880F82E16A94801789F4820
:1047100080F82F16A748008801129C4880F83016B0
:10472000A4480178994880F83116A34800880112FE
:10473000964880F83216A0480178944880F83316DD
:104740009E4800880112914880F834169B480178F1
:104750008E4880F835169A48008801128B4880F8F8
:10476000361697480178894880F83716002180F876
:10477000381680F8391680F83A1680F83B16A521CD
:1047800080F83C1680F83D1680F83E1680F83F16FB
:104790004FF080508B49C8634FF4C8627B494FF497
:1047A000CE50FEF7A4F94FF080508649886301206F
:1047B0008549087001F088BB2F20FEF728FA4FF4D6
:1047C000C86272494FF4CE50FFF769FA6F4890F80B
:1047D0003F06A52870D16D4890F83E06A528F9D16E
:1047E0006A4890F83D06A528F4D1684890F83C0640
:1047F000A528EFD1654890F83F06A528EAD163487F
:1048000090F83E06A528E5D1604890F83D06A52819
:10481000E0D15E4890F83C06A528DBD14FF08050EF
:104820006849C8634FF4C86258490020FEF75FF931
:104830004FF08050634988634FF0000810E04FEA62
:104840004800401C5149085C0A4612F8181040EA1A
:1048500001205E4921F8180008F101001FFA80F8D4
:10486000B8F1640FEBDB4FF0000807E00020584977
:1048700021F8180008F101001FFA80F8B8F1320F92
:10488000F4DB4FF0000811E008F11F004F4931F848
:104890001090B9F1000F05DD0121A9F101004C4A8A
:1048A00022F8101008F101001FFA80F8B8F1130F78
:1048B000EADB4FF0000843E0FEE34FEA4800C9306E
:1048C0003249095C4FEA4800C830304A105C41EA7E
:1048D0000020404921F818004FEA480000F29110EA
:1048E0001146095C4FEA480000F5C870105C41EAC7
:1048F0000020394921F818004FEA480000F25920F9
:104900001146095C4FEA480000F51670105C41EA58
:104910000020324921F818004FEA480000F2213007
:104920001146095C4FEA480000F54870105C41EA06
:1049300000202B4921F8180008F101001FFA80F827
:10494000B8F1640FB9DB114890F8E9030F4991F809
:10495000E81340EA0120234908800C4890F8EB0353
:104960000A4991F8EA1340EA01201F4908800748E4
:1049700090F8ED03054991F8EC1340EA01201B493A
:104980000870024890F8EF03004931E0081B00105E
:104990009E700010BC70001080700010DA70001063
:1049A0001A71001094C6072098C6072088C60720F1
:1049B00084C6072090C60720A4C60720A6C60720E5
:1049C000A8C6072000C00920BFC507205803001053
:1049D0002204001088040010780600104007001020
:1049E000080800109AC507209CC50720D0C60720DC
:1049F00091F8EE1340EA0120FE490880084600883D
:104A000018B90020FC49088002E00120FA4908801A
:104A1000FA4890F8F103F94991F8F01340EA0120BF
:104A2000F7490880F54890F8F303F44991F8F21338
:104A300040EA0120F2494880F04890F8F503EF4938
:104A400091F8F41340EA0120ED498880EB4890F892
:104A5000F703EA4991F8F61340EA0120E849C880D3
:104A6000E64890F8F903E54991F8F81340EA012087
:104A7000E3490881E14890F8FB03E04991F8FA1313
:104A800040EA0120DF490880DC4890F8FD03DB495B
:104A900091F8FC1340EA0120DA494880D74890F8A1
:104AA000FF03D64991F8FE1340EA0120D5498880DA
:104AB000D24890F8011490F8000441EA0020D1494E
:104AC000C880CE4890F8031490F8020441EA002010
:104AD000CC490881C94890F8051490F8040441EACB
:104AE0000020C9490880C54890F8071490F80604CA
:104AF00041EA0020C4494880C04890F8091490F861
:104B0000080441EA0020C0498880BC4890F80B1492
:104B100090F80A0441EA0020BB49C880B74890F8E1
:104B20000D1490F80C0441EA0020B7490881B348FD
:104B300090F80F1490F80E0441EA0020B349087071
:104B4000AE4890F8191490F8180441EA0020B049D2
:104B50000880AA4890F81B1490F81A0441EA002033
:104B6000AC490880A54890F81D1490F81C0441EA4F
:104B70000020A9490880A14890F81F1490F81E044D
:104B800041EA0020A549088008460088A449088019
:104B90009A4890F8211490F8200441EA0020A14995
:104BA0000880964890F82E040106944890F82F0447
:104BB00041EA0041914890F8300441EA00208F49D1
:104BC00091F831140843984908608C4890F83314E0
:104BD00090F8320441EA0020944908804FF47A7634
:104BE00000279148006800213246A0FB02CE01FB5D
:104BF00006E107FB001766468D4A8E48B31847EB5F
:104C000000018A480088181841F100018A4A03C24D
:104C10007A4890F8451490F8440441EA0020874906
:104C20000880764890F8471490F8460441EA00203E
:104C300083490880714890F8491490F8480441EA83
:104C40000020804908806D4890F84B1490F84A0481
:104C500041EA002079494880684890F84D1490F85E
:104C60004C0441EA002076494880644890F84F148B
:104C700090F84E0441EA0020724948805F4890F85D
:104C8000511490F8500441EA00206C4988805B4838
:104C900090F8531490F8520441EA00206849888043
:104CA000564890F8551490F8540441EA002065499C
:104CB0008880524890F8571490F8560441EA002032
:104CC0005E49C8804D4890F8591490F8580441EA5C
:104CD00000205B49C880494890F85B1490F85A045A
:104CE00041EA00205749C880444890F85D1490F884
:104CF0005C0441EA002051490881404890F85F1463
:104D000090F85E0441EA00204D4908813B4890F844
:104D1000611490F8600441EA00204A49088137484C
:104D200090F8631490F8620441EA002043494881F6
:104D3000324890F8651490F8640441EA0020404934
:104D400048812E4890F8671490F8660441EA0020E4
:104D50003C494881294890F8691490F8680441EA70
:104D6000002036498881254890F86B1490F86A0431
:104D700041EA002032498881204890F86D1490F86B
:104D80006C0441EA00202F4988811C4890F86F1478
:104D900090F86E0441EA00202849C881174890F82D
:104DA000711490F8700441EA00202549C881134825
:104DB00090F8731490F8720441EA00202149C881E8
:104DC0000E4890F8751490F8740441EA00201B49CD
:104DD00008820A4890F8771490F8760441EA002097
:104DE00017490882054890F8791490F8780441EA48
:104DF000002029E09EC5072050C60720081B001090
:104E000058700010627000106C70001034C50720DC
:104E100000C7072002C7072004C7072006C70720CE
:104E200098C5072008C70720D4C60720D8C6072082
:104E300000008D49FD1A070010C707208070001080
:104E40009E700010BC700010FE490882FE4890F869
:104E50007B1490F87A0441EA0020FC490880FA4863
:104E600090F87D1490F87C0441EA0020F84908800D
:104E7000F54890F87F1490F87E0441EA0020F54947
:104E80000880F14890F8811490F8800441EA0020ED
:104E9000F1494882EC4890F8831490F8820441EA82
:104EA0000020EE494882E84890F8851490F8840480
:104EB00041EA0020E3494882E34890F8871490F8DB
:104EC000860441EA0020E4498882DF4890F889148A
:104ED00090F8880441EA0020E0498882DA4890F896
:104EE0008B1490F88A0441EA0020D6498882D6487B
:104EF00090F88D1490F88C0441EA0020D649C882BD
:104F0000D14890F88F1490F88E0441EA0020D349DC
:104F1000C882CD4890F8911490F8900441EA00209E
:104F2000C849C882C84890F8931490F8920441EA9E
:104F30000020C9490883C44890F8951490F8940457
:104F400041EA0020C5490883BF4890F8971490F8BB
:104F5000960441EA0020BB490883BB4890F89914A5
:104F600090F8980441EA0020BB494883B64890F87D
:104F70009B1490F89A0441EA0020B8494883B2484B
:104F800090F89D1490F89C0441EA0020AD494883B4
:104F9000AD4890F89F1490F89E0441EA0020AE4975
:104FA0008883A94890F8A11490F8A00441EA002051
:104FB000AA498883A44890F8A31490F8A20441EA6F
:104FC0000020A04988834FF0000814E04FEA480011
:104FD00000F2B1409C49095C4FEA480000F5966038
:104FE000994A105C41EA00209D4921F8180008F117
:104FF00001001FFA80F8B8F1200FE7DB4FF000083E
:1050000014E04FEA480000F2F1408F49095C4FEA92
:10501000480000F59E608C4A105C41EA00209149EE
:1050200021F8180008F101001FFA80F8B8F1200FEC
:10503000E7DB8D48008808B9FDF7E2FE8A48008862
:10504000012801D1FDF76CFE7F4890F8200601068B
:105050007D4890F8210641EA00417B4890F82206FD
:1050600041EA0020784991F8231608437F490860F7
:10507000754890F824060106734890F8250641EA21
:105080000041714890F8260641EA00206E4991F8E7
:1050900027160843764908606B4890F828060106F1
:1050A000694890F8290641EA0041674890F82A06C5
:1050B00041EA0020644900E074E091F82B160843AF
:1050C0006C4908606948046869484FF0000BD0F8E3
:1050D00000A0504644EA0B014FF47A730022A0FB73
:1050E00003CE01FB03E10AFB0211DA1E0023604636
:1050F000CDE900C1FBF77CF806460F465E48076025
:105100005E490E60504890F82C0601064E4890F813
:105110002D0641EA00414C4890F82E0641EA002055
:10512000494991F82F16084355490860464890F8B8
:10513000311690F8300641EA002052490880424872
:1051400090F8331690F8320641EA00204E49088064
:105150003D4890F8351690F8340641EA00204B4956
:105160000880394890F8371690F8360641EA002052
:105170004749088001204749087047490870474956
:1051800008704749087047490870474908704749FF
:1051900008704749087047490870474908704749EF
:1051A000087002E0012046490870FCE32F20FDF75B
:1051B0002EFD4FF4C86243494FF49C50FEF76FFD3B
:1051C000404890F83C0601063E4890F83D0641EA0A
:1051D00000413C4890F83E0641EA0020394991F8E8
:1051E0003F16084302903849029888426ED14FF02A
:1051F000000809E0334810F80800134901F80800D6
:1052000008F101001FFA80F8B8F5C86FF2DB002141
:105210000D4880F8201680F8211680F8221680F8B4
:10522000231680F8241680F8251680F8261680F8B4
:10523000271680F8281680F8291680F82A1680F894
:105240002B1644E0BC700010081B0010E8C60720B5
:10525000EAC60720ECC60720807000109E70001080
:10526000DA7000101A71001008C7072094C60720D2
:1052700098C6072088C60720ACC60720B0C60720FE
:1052800084C6072090C60720A4C60720A6C607200C
:10529000A8C60720C0C50720E6C50720E9C5072026
:1052A000EAC50720EBC50720ECC50720FEC507208F
:1052B00000C6072001C6072003C6072007C607202F
:1052C000C1C50720C8140010A1776677FEE380F8F7
:1052D0002C1680F82D1680F82E1680F82F1680F8E0
:1052E000301680F8311680F8321680F8331680F8C0
:1052F000341680F8351680F8361680F80B1580F8CD
:10530000381680F8391680F83A1680F83B16A52131
:1053100080F83C1680F83D1680F83E1680F83F165F
:105320004FF08050FE49C8634FF4C862FD49002029
:10533000FDF7DDFB4FF08050F94988634FF000081E
:1053400010E04FEA4800401CF649085C0A4612F893
:10535000181040EA0120F44921F8180008F1010072
:105360001FFA80F8B8F1640FEBDB4FF0000807E09C
:105370000020EE4921F8180008F101001FFA80F81A
:10538000B8F1320FF4DB4FF0000811E008F11F0014
:10539000E54931F81090B9F1000F05DD0121A9F1BF
:1053A0000100E24A22F8101008F101001FFA80F80B
:1053B000B8F1130FEADB4FF0000842E04FEA480073
:1053C000C930D849095C4FEA4800C830D54A105C5A
:1053D00041EA0020D64921F818004FEA480000F2BF
:1053E00091101146095C4FEA480000F5C870105C46
:1053F00041EA0020CF4921F818004FEA480000F2A6
:1054000059201146095C4FEA480000F51670105CFF
:1054100041EA0020C84921F818004FEA480000F28C
:1054200021301146095C4FEA480000F54870105CD5
:1054300041EA0020C14921F8180008F101001FFAD3
:1054400080F8B8F1640FB9DBB64890F8E903B549C4
:1054500091F8E81340EA0120B9490880B14890F872
:10546000EB03B04991F8EA1340EA0120B5490880FE
:10547000AC4890F8ED03AB4991F8EC1340EA0120F9
:10548000B1490870A74890F8EF03A64991F8EE13C8
:1054900040EA0120AD4908800846008818B900207C
:1054A000AB49088002E00120A94908809D4890F896
:1054B000F1039C4991F8F01340EA0120A5490880C6
:1054C000984890F8F303974991F8F21340EA0120C5
:1054D000A0494880934890F8F503924991F8F41355
:1054E00040EA01209B4988808E4890F8F7038D4957
:1054F00091F8F61340EA01209649C880894890F84F
:10550000F903884991F8F81340EA0120914908818C
:10551000844890F8FB03834991F8FA1340EA01208C
:105520008D4908807F4890F8FD037E4991F8FC136F
:1055300040EA0120884948807A4890F8FF03794979
:1055400091F8FE1340EA012083498880754890F85D
:10555000011490F8000441EA00207F49C880714896
:1055600090F8031490F8020441EA00207A49088177
:105570006C4890F8051490F8040441EA002077493B
:105580000880684890F8071490F8060441EA002063
:1055900072494880634890F8091490F8080441EA79
:1055A00000206E4988805F4890F80B1490F80A0438
:1055B00041EA00206949C8805A4890F80D1490F8D3
:1055C0000C0441EA002065490881564890F80E0411
:1055D00063490870534890F8191490F8180441EA88
:1055E0000020604908804F4890F81B1490F81A0476
:1055F00041EA00205C4908804A4890F81D1490F860
:105600001C0441EA002059490880464890F81F14BC
:1056100090F81E0441EA00205549088001205549B0
:105620000880404890F82E0401063E4890F82F0468
:1056300041EA00413B4890F8300441EA00203949F2
:1056400091F8311408434C490860364890F83314F7
:1056500090F8320441EA0020484908804FF47A76F5
:1056600000274548006800223146A0FB01CE02FB1E
:1056700006E107FB00176646414A4249B3187941E3
:105680003E480088181841F100013F4A03C22548EE
:1056900090F8451490F8440441EA00203B49088002
:1056A000204890F8471490F8460441EA0020384911
:1056B00008801C4890F8491490F8480441EA0020FA
:1056C00034490880174890F84B1490F84A0441EA8E
:1056D00000202E494880134890F84D1490F84C044F
:1056E00041EA00202A4948800E4890F84F1490F86B
:1056F0004E0441EA0020274948800A4890F8511496
:1057000090F8500441EA002020498880054890F82C
:10571000531490F8520441EA00201D4988803BE070
:1057200000C00920081B00105803001022040010BC
:1057300088040010780600104007001008080010C8
:105740009AC507209CC50720D0C607209EC5072004
:1057500050C6072058700010627000106C70001066
:1057600034C5072000C7072002C7072004C7072049
:1057700006C7072008C70720D4C60720D8C60720B9
:1057800000008D49FD1A070010C707208070001027
:105790009E700010BC700010FE4890F8551490F8F0
:1057A000540441EA0020FC498880FA4890F85714D4
:1057B00090F8560441EA0020F849C880F54890F86E
:1057C000591490F8580441EA0020F549C880F1487E
:1057D00090F85B1490F85A0441EA0020EE49C88022
:1057E000EC4890F85D1490F85C0441EA0020EB4925
:1057F0000881E84890F85F1490F85E0441EA0020C0
:10580000E7490881E34890F8611490F8600441EAA0
:105810000020E1490881DF4890F8631490F86204A1
:1058200041EA0020DD494881DA4890F8651490F893
:10583000640441EA0020DA494881D64890F86714A8
:1058400090F8660441EA0020D3494881D14890F895
:10585000691490F8680441EA0020D0498881CD4855
:1058600090F86B1490F86A0441EA0020CC498881D2
:10587000C84890F86D1490F86C0441EA0020C649BD
:105880008881C44890F86F1490F86E0441EA0020B3
:10589000C249C881BF4890F8711490F8700441EA79
:1058A0000020BF49C881BB4890F8731490F8720477
:1058B00041EA0020B849C881B64890F8751490F8BC
:1058C000740441EA0020B5490882B24890F8771480
:1058D00090F8760441EA0020B1490882AD4890F87A
:1058E000791490F8780441EA0020AB490882A9486D
:1058F00090F87B1490F87A0441EA0020A9490880C6
:10590000A44890F87D1490F87C0441EA0020A64950
:105910000880A04890F87F1490F87E0441EA0020A7
:10592000A24908809B4890F8811490F8800441EACD
:1059300000209A494882974890F8831490F882048E
:1059400041EA002096494882924890F8851490F8E0
:10595000840441EA0020904948828E4890F88714D8
:1059600090F8860441EA00208C498882894890F8A2
:10597000891490F8880441EA002089498882854882
:1059800090F88B1490F88A0441EA002082498882BA
:10599000804890F88D1490F88C0441EA00207F49EB
:1059A000C8827C4800E08DE290F88F1490F88E0455
:1059B00041EA00207A49C882764890F8911490F81C
:1059C000900441EA00207449C882724890F8931408
:1059D00090F8920441EA0020704908836D4890F8DD
:1059E000951490F8940441EA00206D4908836948B1
:1059F00090F8971490F8960441EA002066490883CD
:105A0000644890F8991490F8980441EA002063499A
:105A10004883604890F89B1490F89A0441EA00206B
:105A20005F4948835B4890F89D1490F89C0441EAD4
:105A3000002059494883574890F89F1490F89E04D5
:105A400041EA002055498883524890F8A11490F803
:105A5000A00441EA0020524988834E4890F8A314DC
:105A600090F8A20441EA00204B4988834FF00008D7
:105A700014E04FEA480000F2B1404649095C4FEAA1
:105A8000480000F59660434A105C41EA002048490E
:105A900021F8180008F101001FFA80F8B8F1200F72
:105AA000E7DB4FF0000816E04FEA480000F2F14053
:105AB0003849095C4FEA480000F59E60354A105CA1
:105AC00041EA00203B4921F8180000E0D9E008F144
:105AD00001001FFA80F8B8F1200FE5DB3648008896
