:020000040000FA
:10000000987C0010A1010000A5010000A7010000DC
:10001000B9010000BB010000BD01000000000000AC
:10002000000000000000000000000000BF01000010
:10003000C101000000000000C3010000C501000074
:10004000ADBA010001D80100C7010000C7010000DE
:10005000C7010000991802006B150200C7010000DB
:100060004D1A0200C7010000C7010000C7010000CF
:10007000C7010000C701000017160000C7010000FB
:10008000C7010000C3B40100C7010000C7010000A0
:10009000C7010000C7010000C7010000C701000040
:1000A000C7010000C7010000C7010000C701000030
:1000B000C7010000C7010000C7010000C701000020
:1000C000C701000000F002F800F05AF80AA090E81A
:1000D000000C82448344AAF10107DA4501D100F003
:1000E0004FF8AFF2090EBAE80F0013F0010F18BF76
:1000F000FB1A43F00103184788330200A8330200BB
:100100000A444FF0000C10F8013B13F0070408BF3D
:1001100010F8014B1D1108BF10F8015B641E05D0DB
:1001200010F8016B641E01F8016BF9D113F0080F90
:100130001EBF10F8014BAD1C0C1B09D16D1E58BF22
:1001400001F801CBFAD505E014F8016B01F8016B59
:100150006D1EF9D59142D6D37047000000230024CC
:1001600000250026103A28BF78C1FBD8520728BFC7
:1001700030C148BF0B6070471FB51FBD10B510BD23
:1001800021F0BCFE1146FFF7F7FF21F06CF921F0DA
:10019000DAFE03B4FFF7F2FF03BC21F0DBFE000040
:1001A0000C480047FEE71EF0040F0CBFEFF3088079
:1001B000EFF3098021F088BDFEE7FEE7FEE7FEE7EA
:1001C000FEE7FEE7FEE7FEE703480449024A044B68
:1001D00070470000C5000000986C0010987C00106B
:1001E000986C001053EA020C00F069802DE9F04B86
:1001F0004FF00006002B1FBFB3FA83F503FA05F496
:1002000024FA05F65E4012BF1643B2FA82F502FAEE
:1002100005F4C5F120051EBF22FA05FC44EA0C04D2
:10022000203556EA044C4FEA144418BF641C4FF0C2
:1002300000084FF00009904271EB030C39D30029FC
:1002400019BFB1FA81F701FA07F6B0FA80F700FAA0
:1002500007F6C7F120071EBF20FA07FC46EA0C0686
:100260002037B6FBF4FCA7EB0507103F07F01F0B88
:10027000CBF120060CFA0BFB2CFA06F644BFB34672
:100280000026202FA4BF5E464FF0000B5BEA060C51
:1002900008BF4FF0010B19EB0B09ABFB027C48EBDD
:1002A0000608C01B06FB02CC0BFB03CC71EB0C0158
:1002B000C1E70B46024641464846BDE8F08B13B500
:1002C0004FF000004FF00001AFF30080BDE81C408C
:1002D0007047002800DA4042704770477047704707
:1002E00010B521F003FE006810BD10B5044621F0E2
:1002F000FDFD046010BD704700000000FFFFFFFF20
:1003000020208549086000BF8348006810F0400F36
:10031000FAD00320814908604FF001008049C1F8FC
:100320000C014FF00F007F4908604FF00100A1F170
:10033000040108604FF0AA007B4908604FF05500A7
:100340007749C1F88C0000BF7848006810F0806FD2
:10035000FAD00320764908604FF0AA007049C1F82E
:100360008C004FF05500704908604FF02300714930
:1003700008604FF00100A1F1040108604FF0AA00ED
:100380006D4908604FF05500086000BF6B48006879
:1003900010F4806FFAD00320694908604FF0AA007A
:1003A0005F49C1F8AC004FF05500634908604FF059
:1003B00000006449086001F1040108606248634973
:1003C00008604FF000005649C1F8C8010846D0F84F
:1003D0008800C0F30160032868D15D48006810F010
:1003E000030006D0012823D002283FD003285CD187
:1003F00000E000BF4D480068C0F30E0000F10100AE
:100400004FEA40014648D0F88800C0F3074000F1A9
:100410000100B1FBF0F04F4900FB01F03F490968D2
:10042000C9B201F10101B0FBF1F04B4908603CE0B9
:100430003E480068C0F30E0000F101004FEA4001A1
:100440003748D0F88800C0F3074000F10100B1FB45
:10045000F0F0424900FB01F030490968C9B201F1EE
:100460000101B0FBF1F03C4908601EE02F48006834
:10047000C0F30E0000F101004FEA40012848D0F817
:100480008800C0F3074000F10100B1FBF0F04FF429
:10049000FA4100FB01F021490968C9B201F10101EB
:1004A000B0FBF1F02C49086000BF2FE0284800683D
:1004B00010F0030006D0012810D0022819D003281C
:1004C00023D100E000BF15480068C0B200F1010070
:1004D0002049B1FBF0F02049086016E00F480068A1
:1004E000C0B200F101001D49B1FBF0F01A490860EB
:1004F0000BE00A480068C0B200F101004FF4FA4175
:10050000B1FBF0F01449086000BF00BF43F23A00AD
:100510000349086070470000A0C10F4004C10F40AC
:1005200000C00F4084C00F408CC00F4088C00F40F7
:1005300080C00F40A4C00F40ACC00F40A8C00F4007
:10054000A0C00F40A8C10F40DE87E804C4C00F4020
:100550000CC10F4000093D0000000010001BB70057
:1005600030B502460B464FF6FF7011E032F8024BF1
:10057000604000210AE010F0010F04D04AF20104AB
:1005800084EA600000E040104C1CA1B21029F2DBAC
:100590001C00A3F10105ABB2E8D130BD10B5024695
:1005A000002114E0DC2901D16E200EE0FA4C4B1C36
:1005B00034F81330934208DDCB1C34F813309342E7
:1005C00003DA234613F8110003E08B1CD9B2DE29AD
:1005D000E8DB00BF10BD10B5F048006840F4001023
:1005E000EF49C1F8C4000846D0F8AC0120F44060DF
:1005F000C1F8AC010846D0F8AC0140F48060E9498C
:1006000008604FF00F00E84908604FF006004860AE
:100610000846C06810F0040F02D00846806884B213
:100620000020E1494861E1490870E1490870E14969
:1006300008800E2021F0CFFB0420DB49486110BD6B
:1006400010B50146DC4AD84B996005E0521E1AB934
:100650000123D74C237004E0D34BDB6813F0040F65
:10066000F4D000BFD24B1B7813B9CF4B9B6898B224
:1006700010BD70B50025D148808842F20F718842C4
:1006800079DACE48808838BB002408E0201DCB49A9
:1006900031F81000CA4921F81400601CC4B2642C5F
:1006A000F4DBC8480078012840F0B487C448B0F8AB
:1006B0009400C349B1F8921040EA0140C249086071
:1006C000BF48B0F89800BE49B1F8961040EA014022
:1006D000BE49086000F09EBFB8488088642815D1E4
:1006E000002410E0201DB54931F81000B84921F868
:1006F000140004F13600B14931F81000B54921F871
:100700001400601CC4B2322CECDBE3E7AB488088F9
:10071000C82815D1002410E0201DA84931F8100088
:10072000AD4921F8140004F13600A44931F8100055
:10073000AA4921F81400601CC4B2322CECDBC9E7D2
:100740009E488088B0F5967F16D1002410E0201DC9
:100750009A4931F81000A24921F8140004F136003A
:10076000964931F810009F4921F81400601CC4B26A
:10077000322CECDBAEE7C4E290488088B0F5C87F4D
:1007800015D1002410E0201D8C4931F81000964945
:1007900021F8140004F13600884931F8100093491B
:1007A00021F81400601CC4B2322CECDB92E78348C1
:1007B0008088B0F5FA7F15D1002410E0201D7F4914
:1007C00031F810008A4921F8140004F136007B4901
:1007D00031F81000874921F81400601CC4B2322C93
:1007E000ECDB77E775488088B0F5167F15D10024DB
:1007F00010E0201D714931F810007F4921F81400E4
:1008000004F136006D4931F810007C4921F81400DC
:10081000601CC4B2322CECDB5CE768488088B0F521
:100820002F7F15D1002410E0201D644931F81000FD
:10083000734921F8140004F13600604931F81000C2
:10084000704921F81400601CC4B2322CECDB41E783
:100850005A488088B0F5487F15D1002410E0201D4B
:10086000564931F81000684921F8140004F13600A7
:10087000524931F81000654921F81400601CC4B2D7
:10088000322CECDB26E74D488088B0F5617F15D12E
:10089000002410E0201D494931F810005C4921F87E
:1008A000140004F13600454931F81000594921F887
:1008B0001400601CC4B2322CECDB0BE73F4880888C
:1008C000B0F57A7F15D1002410E0201D3B4931F8A6
:1008D0001000514921F8140004F13600374931F86D
:1008E00010004E4921F81400601CC4B2322CECDB1D
:1008F000F0E632488088A0F580614C3915D100249B
:1009000010E0201D2D4931F81000454921F8140050
:1009100004F13600294931F81000424921F8140049
:10092000601CC4B2322CECDBD4E624488088B0F5DD
:10093000966F15D1002410E0201D204931F81000D9
:10094000394921F8140004F136001C4931F810002F
:10095000364921F81400601CC4B2322CECDBB9E635
:1009600016488088A0F5A061143965D1002410E0F4
:10097000201D124931F810002D4921F8140004F10E
:1009800036000E4931F810002A4921F81400601C85
:10099000C4B2322CECDB9DE60A000010C4C00F404C
:1009A00000C00F40ACC10F4000800840F8030010A9
:1009B000390400103A0400100077010062040010AE
:1009C000F2060010A00200108C030010900300102B
:1009D000300D00105C0E0010940D0010C00E0010C1
:1009E000F80D0010240F0010880F0010B410001034
:1009F000EC0F001018110010501000107C110010A6
:100A0000E01100100C1300104412001070130010BD
:100A1000A8120010D4130010381400106415001030
:100A20009C140010C8150010001500102C160010A2
:100A300090160010BC170010F8488088B0F5AF6F12
:100A400015D1002410E0201DF44931F81000F449BC
:100A500021F8140004F13600F04931F81000F14992
:100A600021F81400601CC4B2322CECDB32E6EB48F7
:100A70008088A0F5A061DC3915D1002410E0201D8C
:100A8000E64931F81000E84921F8140004F1360075
:100A9000E24931F81000E54921F81400601CC4B2A5
:100AA000322CECDB16E6DD488088B0F5FA6F7DD19C
:100AB000002459E0201DD94931F81000DC4921F803
:100AC000140004F10E00D54931F81010D848143044
:100AD00020F8141004F11800D04931F81010D4484F
:100AE000283020F8141004F12200CC4931F81010FD
:100AF000CF483C3020F8141004F12C00C74931F8DD
:100B00001010CB48503020F8141004F13600C349BF
:100B100031F81010C648643020F8141004F1400079
:100B2000BE4931F81010C248783020F8141004F192
:100B30004A00BA4931F81010BD488C3020F8141022
:100B400004F15400B54931F81010B948A03020F82C
:100B5000141004F15E00B14931F81010B448B430FB
:100B600020F81410601CC4B20A2CA3DB00241CE083
:100B700004EB8400AE4901EB8000808800EB80002C
:100B80004FF6FF7101EA40063046FFF707FD00EB24
:100B900080004FF6FF7101EA400004EB8401A44A93
:100BA00002EB81018880601CC4B200E002E00A2CE4
:100BB000DEDB8FE599488088A0F500613439F8D1F3
:100BC000002459E0201D954931F81000994921F879
:100BD000140004F10E00914931F8101095481430BA
:100BE00020F8141004F118008C4931F810109148C5
:100BF000283020F8141004F12200884931F8101030
:100C00008C483C3020F8141004F12C00834931F852
:100C100010108848503020F8141004F136007F4935
:100C200031F810108348643020F8141004F14000AB
:100C30007A4931F810107F48783020F8141004F108
:100C40004A00764931F810107A488C3020F8141098
:100C500004F15400714931F810107648A03020F8A2
:100C6000141004F15E006D4931F810107148B43071
:100C700020F81410601CC4B20A2CA3DB00241CE072
:100C800004EB84006B4901EB8000008A00EB8000DC
:100C90004FF6FF7101EA40063046FFF77FFC00EB9C
:100CA00080004FF6FF7101EA400004EB8401614AC5
:100CB00002EB81010882601CC4B20A2CE0DB002434
:100CC0001CE004EB84005B4901EB8000408A00EBF0
:100CD00080004FF6FF7101EA40063046FFF75EFCE8
:100CE00000EB80004FF6FF7101EA400004EB840145
:100CF000504A02EB81014882601CC4B20A2CE0DB3E
:100D0000E8E446488088A0F51C5110392CD1002415
:100D10000BE0494830F81410201D404A32F810000A
:100D2000814200D00125601CC4B2642CF1DB012D8E
:100D300007D00020414908704149088041490870A6
:100D4000C8E43F480088401C3D49088008460088A8
:100D5000B0F57A7FD4DD0020384908703849088022
:100D6000012038490870B5E42C488088A0F51C5152
:100D7000743917D029488088A0F51C51D83911D072
:100D800026488088A0F520513C390BD02348808824
:100D9000A0F52051A03905D020488088A0F5285121
:100DA000F8396ED11D488088A0F51C5174392CD1BA
:100DB00000240BE0244830F81410201D174A32F8A4
:100DC0001000814200D00125601CC4B2642CF1DB0C
:100DD000012D07D000201D490870194908801949C4
:100DE000087077E416480088401C154908800846BA
:100DF0000088B0F57A7FA3DD0020144908701049FF
:100E0000088001200F49087064E404488088A0F538
:100E10001C51D83949D1002426E00000620400109A
:100E2000F416001020180010581700108418001035
:100E30008823001050240010BA070010E6020010AA
:100E40003A04001039040010B80A0010E90200103A
:100E5000FE4830F81410201DFD4A32F8100081427F
:100E600000D00125601CC4B2642CF1DB012D09D037
:100E70000020F8490870F84908800120F7490870F7
:100E8000C8E3B3E0F4480088401CF34908800846F2
:100E90000088B0F57A7FA4DD0020EE490870EE49A5
:100EA00008800120ED490870B4E3E9488088A0F586
:100EB00020513C392DD1002428E0E94830F81410A5
:100EC000201DE34A32F81000814200D00125012D97
:100ED00008D00020E3490870DF4908800120DF497D
:100EE000087011E0DC480088401CDB490880084697
:100EF0000088B0F57A7F07DD0020DA490870D6490E
:100F000008800120D5490870601CC4B2642CD4DB71
:100F100080E3CF488088A0F52051A0392DD100244E
:100F200028E0D14830F81410201DC94A32F81000CA
:100F3000814200D00125012D08D00020CB49087046
:100F4000C54908800120C549087011E0C2480088E1
:100F5000401CC149088008460088B0F57A7F07DD4B
:100F60000020C2490870BC4908800120BB490870B4
:100F7000601CC4B2642CD4DB4CE3B5488088A0F577
:100F80002851F83990D1B2484089B149098940EADD
:100F90000140B7490968884209D1AD48C089AC49C8
:100FA000898940EA0140B3490968884200D0012597
:100FB000012D08D00020B0490870A7490880012001
:100FC000A649087026E3A4480088401CA24908806E
:100FD00008460088B0F57A7F9ADD0020A64908709F
:100FE0009D49088001209D49087013E39848808836
:100FF000A0F53851E03934D095488088A0F53C51AF
:1010000044392ED092488088A0F53C51A83928D088
:101010008F488088A0F540510C3922D08C488088B8
:10102000A0F5405170391CD089488088A0F5405106
:10103000D43916D086488088A0F54451383910D06C
:1010400083488088A0F544519C390AD08048808824
:10105000B0F5485F05D07E488088A0F548516439D6
:101060008AD17B488088A0F53851E03943D10024EB
:101070003EE082480078012827D1814830F81410DA
:10108000201D734A32F81000814200D00125012D45
:1010900008D00020794908706F49088001206F4905
:1010A000087023E06C480088401C6B4908800846A3
:1010B0000088B0F57A7F19DD002070490870664914
:1010C000088001206549087010E000206D49087013
:1010D000201D5F4931F81000694921F814000846C5
:1010E000B0F8C60010B1012067490870601CC4B296
:1010F000642CBEDB8EE256488088A0F53C51443912
:101100003ED1002439E061480078012828D15C48AC
:10111000C83030F81410201D4D4A32F810008142BA
:1011200000D00125012D08D00020584908704A49F7
:1011300008800120494908701DE047480088401C8C
:101140004549088008460088B0F57A7F13DD002005
:101150004E490870404908800120404908700AE063
:1011600000204B490870201D394931F810104448BF
:10117000C83020F81410601CC4B2642CC3DB49E2F0
:1011800033488088A0F53C51A8393CD1002437E091
:1011900040480078012827D13F4830F81410201D1E
:1011A0002B4A32F81000814200D00125012D08D0D1
:1011B0000020384908702849088001202749087014
:1011C0001CE025480088401C234908800846008808
:1011D000B0F57A7F12DD00202E4908701E49088084
:1011E00001201E49087009E000202C490870201DCC
:1011F000174931F81010284820F81410601CC4B2A8
:10120000642CC5DB06E212488088A0F540510C39F9
:101210006AD1002465E022480078012855D11E4893
:10122000C83030F81410201D094A32F810008142ED
:1012300000D00125012D35D000201949087006493C
:10124000088001200549087049E00000800B00106B
:1012500062040010EA0200103A0400103904001081
:10126000480C0010EB020010E8080010EC0200101F
:101270008C03001090030010E8020010ED02001033
:1012800018250010DB020010A0020010EE02001072
:10129000DC020010EF020010A8260010DD02001092
:1012A000F0020010F8480088401CF7490880084602
:1012B0000088B0F57A7F12DD0020F4490870F24909
:1012C00008800120F249087009E00020F149087007
:1012D000201DF14931F81010F04820F81410601C5E
:1012E000C4B2642C97DB95E1EB488088A0F54051AF
:1012F00070393ED1002439E0E9480078012828D12E
:10130000E648C83030F81410201DE34A32F81000C7
:10131000814200D00125012D08D00020E04908704D
:10132000D94908800120DA4908701DE0D6480088B4
:10133000401CD549088008460088B0F57A7F13DD47
:101340000020D7490870D04908800120D049087092
:101350000AE00020D3490870201DCF4931F8101051
:10136000CE48C83020F81410601CC4B2642CC3DB13
:1013700050E1C9488088A0F54051D4393CD10024BF
:1013800037E0C9480078012827D1C84830F8141040
:10139000201DC14A32F81000814200D00125012DE4
:1013A00008D00020C0490870B74908800120B8491A
:1013B00008701CE0B4480088401CB3490880084607
:1013C0000088B0F57A7F12DD0020B7490870AE4979
:1013D00008800120AE49087009E00020B449087077
:1013E000201DAD4931F81010B04820F81410601CD1
:1013F000C4B2642CC5DB0DE1A7488088A0F5445138
:1014000038393ED1002439E0AA480078012828D193
:10141000A648C83030F81410201D9F4A32F810003A
:10142000814200D00125012D08D00020A14908707B
:10143000954908800120964908701DE0924800886F
:10144000401C9149088008460088B0F57A7F13DD7A
:101450000020984908708C49088001208C49087048
:101460000AE0002094490870201D8B4931F81010C3
:101470008E48C83020F81410601CC4B2642CC3DB42
:10148000C8E085488088A0F544519C393CD10024AF
:1014900037E08A480078012827D1894830F81410AD
:1014A000201D7D4A32F81000814200D00125012D17
:1014B00008D00020814908707349088001207449D0
:1014C00008701CE070480088401C6F49088008467E
:1014D0000088B0F57A7F12DD0020784908706A49EB
:1014E000088001206A49087009E0002075490870E9
:1014F000201D694931F81010714820F81410601C43
:10150000C4B2642CC5DB85E063488088B0F5485FD1
:101510003ED1002439E06C480078012828D1684881
:10152000C83030F81410201D5B4A32F81000814298
:1015300000D00125012D08D00020634908705249D0
:1015400008800120524908701DE04F480088401C67
:101550004D49088008460088B0F57A7F13DD0020E9
:1015600059490870484908800120494908700AE033
:10157000002056490870201D474931F81010504886
:10158000C83020F81410601CC4B2642CC3DB41E0E6
:1015900041488088A0F5485164393BD1002437E0A8
:1015A0004B480078012827D14A4830F81410201DF4
:1015B000394A32F81000814200D00125012D08D0AF
:1015C00000204349087030490880012030490870E4
:1015D0001CE02D480088401C2B49088008460088E4
:1015E000B0F57A7F12DD002039490870264908805D
:1015F00001202749087009E0002037490870201DA4
:10160000254931F81010334820F81410601CC4B27A
:10161000642CC5DB70BD70B50025002403202F4964
:10162000088000202E494861194908702D4800881B
:1016300038B94FF000702C49C8670120294908804B
:1016400006E04FF00070284988670020254908808F
:1016500008E02348806882B22846691CCDB20E4952
:1016600021F810201E48C06810F0040FF1D10A487C
:101670000088A0F52A41CC395CD10748C08864288D
:1016800058D1002443E000003A040010F00200109A
:1016900039040010DE0200106204001070270010F0
:1016A000F1020010DF020010F20200100029001009
:1016B000E0020010F3020010E1020010F40200103A
:1016C000902A0010E2020010F5020010E302001060
:1016D000F6020010202C0010E4020010A8020010F6
:1016E000008008400800001000C00920FE4931F8C1
:1016F0001400FEF7A5FF29466A1CD5B2FB4A22F862
:101700001100FB480078012800D102E0641C6C2C19
:10171000ECD300BF6421F5480830FEF721FFF34900
:10172000B1F8D010884217D1FEF7A3FF0120F1498C
:10173000087011E04FF416540CE0EF48C06810F048
:10174000040F02D1641E2CB905E0EB48806886B214
:101750004FF41654F1E700BF0420E7494861E74918
:10176000088070BD30B50025E548007870B90120CB
:10177000E4490870E4490870E4490870E4490870D5
:10178000E4490870E4490870DD490870DD480078D4
:10179000012815D10125002408E0E04830F8141094
:1017A000D14AE01C22F81010601CC4B2642CF4DB97
:1017B0000020DB4908704FF48050DA49C865BFE269
:1017C000D1480078012814D10225002408E0D64829
:1017D00030F81410C44AE01C22F81010601CC4B287
:1017E000642CF4DB0120CE4908700003CD49C865A4
:1017F000A6E2C6480078012814D10325002408E099
:10180000CA4830F81410B84AE01C22F81010601CC6
:10181000C4B2642CF4DB0220C1490870C002C14983
:10182000C8658DE2BA480078012815D10425002446
:1018300008E0BF4830F81410AB4AE01C22F8101042
:10184000601CC4B2642CF4DB0320B54908704FF46B
:101850008050B449C86573E2AF480078012814D1BC
:101860000525002408E0B34830F814109E4AE01C17
:1018700022F81010601CC4B2642CF4DB0420A849C8
:1018800008708002A749C8655AE2A248007801287A
:1018900022D10625A8480068000C9349C880A648B4
:1018A00000880881A5480068000C4881A34800888A
:1018B0008881042406E00021E01C8B4A22F81010E5
:1018C000601CC4B2642CF6DB0520954908704FF407
:1018D00080509449C86533E299480078012815D1B1
:1018E0000725002408E0974830F81410E01C7E4AD1
:1018F00022F81010601CC4B2642CF4DB0620884966
:1019000008704FF480508749C86519E28E48007806
:10191000012810D10025002407E04FF6FF71E01CDC
:10192000714A22F81010601CC4B2642CF5DB06204A
:101930007B49087004E285480078012816D1082503
:10194000002409E07F48C83030F81410E01C664AD3
:1019500022F81010601CC4B2642CF3DB072070491D
:1019600008704FF480506F49C865E9E17848007805
:10197000012810D10025002407E04FF6FF71E01C7C
:10198000594A22F81010601CC4B2642CF5DB072001
:1019900063490870D4E16F480078012814D1092503
:1019A000002408E06C4830F81410E01C4E4A22F87D
:1019B0001010601CC4B2642CF4DB08205849087075
:1019C00040025849C865BBE164480078012810D13D
:1019D0000025002407E04FF6FF71E01C424A22F880
:1019E0001010601CC4B2642CF5DB08204C49087050
:1019F000A6E15B480078012816D10A25002409E0F9
:101A00005548C83030F81410E01C374A22F810103E
:101A1000601CC4B2642CF3DB0920414908704FF408
:101A200080504049C8658BE14E480078012810D1AC
:101A30000025002407E04FF6FF71E01C2A4A22F837
:101A40001010601CC4B2642CF5DB09203449087006
:101A500076E145480078012815D10B25002408E0DF
:101A6000424830F81410E01C1F4A22F81010601C85
:101A7000C4B2642CF4DB0A20294908704FF480506A
:101A80002849C8655CE13A480078012810D1002552
:101A9000002407E04FF6FF71E01C134A22F81010F3
:101AA000601CC4B2642CF5DB0A201D49087047E1B4
:101AB0003048007801285FD10C25002409E02B482C
:101AC000C83030F81410E01C074A22F81010601CCF
:101AD000C4B2642CF3DB0B20114908704FF4805022
:101AE0001049C8652CE147E052050010620400105F
:101AF00039040010F803001000800840A80200100C
:101B00004C020010E6020010E9020010EA02001088
:101B1000EB020010E8020010EC020010BA070010FF
:101B20003804001000C00920B80A0010800B001013
:101B3000480C0010E80800108C03001090030010FF
:101B4000ED02001018250010DB020010EE0200105C
:101B5000DC020010EF020010A8260010DD020010C9
:101B6000F0020010DE020010F10200103828001010
:101B7000DF020010F2020010FE480078012810D1A8
:101B80000025002407E04FF6FF71E01CFA4A22F816
:101B90001010601CC4B2642CF5DB0B20F7490870F0
:101BA000CEE0F7480078012815D10D25002408E083
:101BB000F44830F81410E01CEF4A22F81010601CB2
:101BC000C4B2642CF4DB0C20EC4908704FF4805054
:101BD000ED49C865B4E0ED480078012810D1002532
:101BE000002407E04FF6FF71E01CE34A22F81010D2
:101BF000601CC4B2642CF5DB0C20E04908709FE047
:101C0000E3480078012816D10E25002409E0DD48BC
:101C1000C83030F81410E01CD74A22F81010601CAD
:101C2000C4B2642CF3DB0D20D44908704FF480500B
:101C3000D549C86584E0D7480078012810D100252F
:101C4000002407E04FF6FF71E01CCB4A22F8101089
:101C5000601CC4B2642CF5DB0D20C84908706FE02D
:101C6000CD480078012815D10F25002408E0CB4885
:101C700030F81410E01CC04A22F81010601CC4B2E6
:101C8000642CF4DB0E20BD4908704FF48050BE492F
:101C9000C86555E0C2480078012810D1002500240D
:101CA00007E04FF6FF71E01CB34A22F81010601CE9
:101CB000C4B2642CF5DB0E20B049087040E0B9488E
:101CC0000078012816D11025002409E0B348C83057
:101CD00030F81410E01CA84A22F81010601CC4B29E
:101CE000642CF3DB0F20A54908704FF48050A649FF
:101CF000C86525E0AC480078012810D100250024F3
:101D000007E04FF6FF71E01C9B4A22F81010601CA0
:101D1000C4B2642CF5DB0F209849087010E0002550
:101D20004FF4805098498865002407E04FF6FF7112
:101D3000E01C914A22F81010601CC4B2642CF5DB40
:101D400064218D48801DFEF70BFC8B49A1F8CE0065
:101D5000284630BD70B504460D46322093490860D0
:101D60000846446085609249924A904790480068CE
:101D700070BD70B504460D4634208C490860084695
:101D8000446085608C48C86089498848894A904782
:101D90008748006870BD70B504460D46164633206E
:101DA00082490860084644608560C66082480861D0
:101DB0007F497E487F4A90477D48006870BD70B576
:101DC00004460D46164638207849086008464460A7
:101DD0008560C6607649774A90477548006870BD4F
:101DE0000CB50020009001900CE07448007D10F0CC
:101DF000010F03D071480078009000E005E00198E1
:101E0000401C019001980828EFD300BF0CBD0CB511
:101E10000020009001900CE06948007D10F0010F57
:101E200003D067480078009000E005E00198401C6E
:101E3000019001980828EFD300BF0CBD0CB500201D
:101E4000009001900CE05F48007D10F0010F03D07E
:101E50005C480078009000E005E00198401C01908B
:101E600001980828EFD300BF0CBD2DE9F05F56485C
:101E7000006840F010005549C1F8C4004FF08300DD
:101E80004F4908735248008830B101280AD002280F
:101E90000ED0032818D111E04FF4165A01204D49F5
:101EA000087017E04FF4964A02204A49087011E082
:101EB0004FF4614A0120474908700BE04FF4165A6D
:101EC00001204449087005E04FF4165A04204149A6
:101ED000087000BF00BF504620F070FE8046894663
:101EE00000223D4B3D4903C920F09CFC064642467A
:101EF0004B4620F097FC044620F01CFE1FFA80FBA6
:101F000058464FEAEB710BEB1161090A2C4A11712B
:101F1000114681F800B00320087387200872012061
:101F2000486006201FF057FFFFF771FF4FF40000D5
:101F30001549C861BDE8F09F2DE9F04122480068CD
:101F400040F008002149C1F8C4004FF000001B49CF
:101F500048604FF0830008734FF000021E4B1F498A
:101F600003C920F05FFC054600221D4B20F05AFCFF
:101F7000074637E0E0020010520500103804001058
:101F8000F3020010C829001000C00920E10200106F
:101F9000F4020010E2020010F5020010582B0010AD
:101FA000E3020010F6020010E4020010102D0010F1
:101FB000302D0010F11FFF1F0077010000C000400E
:101FC0000000014000C00940C4C00F4000C00F40E5
:101FD000A40200102C03001000003040F003001099
:101FE0000020FC4020F0A6FD84B22046E11704EB5F
:101FF0001161090AFE4A117111460C700320087321
:102000000720087205201FF0E6FE0120F84948600D
:10201000FFF7E6FE0220F749C863BDE8F0812DE92D
:10202000F05FF548006840F00070F449C1F8C40062
:102030004FF08300F2490873F248008830B101285C
:102040000AD002280ED0032818D111E04FF4165AF6
:102050000120ED49087017E04FF4964A0220EA4942
:10206000087011E04FF4614A0120E74908700BE065
:102070004FF4E13A0120E449087005E04FF4165AA4
:102080000420E149087000BF00BF504620F096FDD3
:10209000804689460022DD4BDD4903C920F0C2FBA2
:1020A000064642464B4620F0BDFB044620F042FD6A
:1020B0001FFA80FB58464FEAEB710BEB1161090ADE
:1020C000CF4A1171114681F800B0032008738720B0
:1020D00008720120486008201FF07DFEFFF7AEFE69
:1020E0004FF00050C349C863BDE8F09F002108E0ED
:1020F000BF4A127D12F0010F02D0C649BC4A1078C7
:10210000491CB1F5FA7FF3D37047B94B1870002121
:1021100006E0B74A127D12F0400F00D0BE49491CBC
:10212000BE4A9142F5D37047002108E0BC4A127DB7
:1021300012F0010F02D0BA4A1078B649491CB1F525
:10214000FA7FF3D37047B64B1870002106E0B44A0B
:10215000127D12F0400F00D0AF49491CAF4A9142A6
:10216000F5D37047002108E0A54A127D12F0010F57
:1021700002D0A849A24A1078491CB1F5FA7FF3D3DE
:1021800070479F4B1870002106E09D4A127D12F0A7
:10219000400F00D0A049491CA04A9142F5D3704796
:1021A00030B502464FF6FF7014E0FF2900D915E064
:1021B00012F8014B604000230AE010F0010F04D038
:1021C0004AF2010484EA600000E040105C1CE3B2C3
:1021D000082BF2DB0C00A1F10101E6D100BF30BDFC
:1021E00070B504462C258F4EB56160253560002002
:1021F00000E0401C42F21075A842FAD3894DAC6051
:102200002825884EB561002000E0401C42F2107580
:10221000A842FAD3C1F30725824EB5602825B561DF
:10222000002000E0401C42F21075A842FAD3CDB263
:102230007C4EB5602825B561002000E0401C42F2CC
:102240001075A842FAD30DE012F8015B754EB56027
:102250002825B561002000E0401C42F21075A8421C
:10226000FAD35B1E002BEFD110256E4E356028256A
:10227000B561002000E0401C42F21075A842FAD37C
:1022800070BD2DE9F84F80460E461746002058498C
:1022900048606349486064494861082F39D9C7F3E9
:1022A000CF00009007F0070A002416E0B14609EBC2
:1022B000C4091FFA88FB0BEBC4001FFA80FB08233C
:1022C0004A465946A020FFF78BFF4FF4002500E057
:1022D0006D1E002DFCD1601C84B200988442E5DBA9
:1022E000BAF1000F21DDB14609EBC4091FFA88FBE2
:1022F0000BEBC4001FFA80FB53464A465946A02008
:10230000FFF76EFF4FF4002500E06D1E002DFCD19D
:102310000BE03B4632464146A020FFF761FF4FF4F9
:10232000002500E06D1E002DFCD1012030494860E1
:102330003B49486004203C494861BDE8F88F0146AC
:102340003A4830F811003A4A108010460088704729
:1023500070B505460C462846FFF7F1FF3549088061
:102360000988091B08B2FDF7B4FF33490880084605
:10237000008870BD2DE9F043A7B005460024012276
:102380002146641C01A8425403222146641C425485
:1023900007222146641C425482222146641C425476
:1023A00000222146641C425413222146641C4254DC
:1023B0002A122146641C42542046611CCCB201A959
:1023C0000D5401AEE11EF01CFFF7EAFE81462046E7
:1023D000611CCCB201A901F800904FEA29222046E5
:1023E000611CCCB201A90A5400BF0220014925E0BA
:1023F00000C0004000C00920C4C00F4000C00F4012
:1024000000C00940A40200102C030010000030405E
:10241000F0030010C0270900808D5B00404B4C008A
:102420000000014000000A4000800840CE03001078
:102430005A0200105C0200105E0200108863A04681
:1024400008E037783846FFF760FE761CA8F10100F7
:102450001FFA80F8B8F1000FF3DC0220FE49C863D0
:102460000120FFF76CFFFD49088007E0FB48018869
:102470000120FFF76DFF042800DD00E0F6E700BF54
:1024800027B0BDE8F08300B5B2B0F548008800126F
:102490008DF80000F24800788DF80100F1480088BE
:1024A00000128DF80200EF4800788DF80300EE4826
:1024B000007800128DF80400EB4800788DF80500D4
:1024C000EA48008800128DF80600E84800788DF888
:1024D0000700E748008800128DF80800E4480078FB
:1024E0008DF80900E248408800128DF80A00E048A3
:1024F00080788DF80B00DE48808800128DF80C0083
:10250000DB4800798DF80D00D948C08800128DF89D
:102510000E00D74880798DF80F00D5480089001249
:102520008DF81000D248007A8DF81100D14800884B
:1025300000128DF81200CF4800788DF81300CD48B6
:10254000408800128DF81400CA4880788DF8150074
:10255000C848808800128DF81600C64800798DF8AA
:102560001700C448C08800128DF81800C14880794F
:102570008DF81900BF48008900128DF81A00BD4877
:10258000007A8DF81B00BC48008800128DF81C00F2
:10259000B94800788DF81D00B748408800128DF8C2
:1025A0001E00B54880788DF81F00B348808800125F
:1025B0008DF82000B04800798DF82100AE48C08821
:1025C00000128DF82200AC4880798DF82300AA48CB
:1025D000008900128DF82400A748007A8DF82500A4
:1025E000A648008800128DF82600A44800788DF8CF
:1025F0002700A248408800128DF828009F48807864
:102600008DF829009D48808800128DF82A009B488B
:1026100000798DF82B009948C08800128DF82C00A5
:10262000964880798DF82D009448008900128DF825
:102630002E009248007A8DF82F00914800880012F1
:102640008DF830008E4800788DF831008D48008874
:1026500000128DF832008B4800788DF833008948DD
:10266000408800128DF83400864880788DF8350057
:102670008448808800128DF83600824800798DF8F1
:1026800037008048C08800128DF838007D48807976
:102690008DF839007B48008900128DF83A0079489E
:1026A000007A8DF83B007748408900128DF83C0095
:1026B0007448807A8DF83D007248808900128DF848
:1026C0003E007048007B8DF83F006E48C0890012C4
:1026D0008DF840006B48807B8DF841006948008A86
:1026E00000128DF842006748007C8DF84300654871
:1026F000408A00128DF844006248807C8DF84500C5
:1027000061480068000E8DF846005F480068000CC4
:102710008DF847005C480088000A8DF848005A4848
:1027200000788DF849005948008800128DF84A0059
:10273000564800788DF84B005548008800128DF8F7
:102740004C00534800788DF84D0052480088001224
:102750008DF84E004F4800788DF84F004E480088A5
:1027600000128DF850004C4800788DF851004B480D
:10277000008800128DF85200484800788DF8530008
:102780004748008800128DF85400454800788DF8BD
:1027900055004448008800128DF8560041480078E2
:1027A0008DF857004048008800128DF858003E48C8
:1027B00000788DF859003D48008800128DF85A00C5
:1027C0003A4800788DF85B003948008800128DF88F
:1027D0005C00374800788DF85D00364800880012AC
:1027E0008DF85E00334800788DF85F00324800882D
:1027F00000128DF86000304800788DF861002C4898
:10280000408800128DF86200294880788DF86300B6
:102810002848408800128DF86400264880788DF89A
:1028200065002548408800128DF8660022488078AF
:102830008DF867001E48808800128DF868001C48DB
:1028400000798DF869001B48808800128DF86A00B5
:102850001848007932E0000000C00920580200103A
:10286000A2020010A4020010EC030010A602001047
:10287000D4560010DE560010E8560010F256001034
:10288000E0010010FC2C0010FC03001000040010FC
:1028900002040010040400100604001008040010D4
:1028A0000A0400100C0400100E040010160400109E
:1028B000EA6B0010FC6B00100E6C00108DF86B00C2
:1028C000FD48808800128DF86C00FB4800798DF877
:1028D0006D00FA48C08800128DF86E00F7488079C4
:1028E0008DF86F00F648C08800128DF87000F4482B
:1028F00080798DF87100F048C08800128DF8720060
:10290000ED4880798DF87300EC48008900128DF84D
:102910007400EA48007A8DF87500E94800890012D1
:102920008DF87600E648007A8DF87700E248008955
:1029300000128DF87800E048007A8DF87900DF48C1
:10294000408900128DF87A00DC48807A8DF87B008F
:10295000DB48408900128DF87C00D948807A8DF8D8
:102960007D00D548408900128DF87E00D248807ADB
:102970008DF87F00D148808900128DF88000CF4803
:10298000007B8DF88100CE48808900128DF882008E
:10299000CB48007B8DF88300C748808900128DF8F2
:1029A0008400C548007B8DF88500C448C0890012AA
:1029B0008DF88600C148807B8DF88700C048C089AB
:1029C00000128DF88800BE48807B8DF88900BA48D7
:1029D000C08900128DF88A00B748807B8DF88B0083
:1029E000B648C08900128DF88C00B448807B8DF801
:1029F0008D00B348C08900128DF88E00B048807BEE
:102A00008DF88F00AC48C08900128DF89000AA485C
:102A1000807B8DF89100AB48008800128DF8920001
:102A2000A84800788DF89300A748008800128DF818
:102A30009400A54800788DF89500A44800880012FD
:102A40008DF89600A14800788DF897004FF08050DF
:102A50009F49C863982269464FF44870FFF711FCFC
:102A60004FF080509A49886332B000BD0121994AE5
:102A7000A2F8C61000200DE0904931F8101001298D
:102A800006D19449B1F8C610491C924AA2F8C61062
:102A9000411CC8B20928EFDB8E49B1F8C6100A29DB
:102AA00003DD0A218B4AA2F8C610002007E00022AD
:102AB00000F10A01884B23F81120411CC8B21028EC
:102AC000F5DB7E490988022954D17D49098829B955
:102AD0000021814A9182D182118394E0784909884A
:102AE00001290DD17449098801EB81014FF6FF726C
:102AF00002EA4101784A91820021D182118382E069
:102B00006F490988022916D16B49098801EB8101B7
:102B10004FF6FF7202EA41016F4A918266490988C5
:102B200001EB81014FF6FF7202EA41016A4AD1824C
:102B30000021118367E06049098801EB81014FF6AC
:102B4000FF7202EA4101644A91825B49098801EB04
:102B500081014FF6FF7202EA41015F4AD182564974
:102B6000098801EB81014FF6FF7202EA41015A4ADE
:102B7000118348E05149098803291ED14E4909882B
:102B800001EB810142F2107202EB4101524A918243
:102B90004949098801EB810144F6206202EB4101B9
:102BA0004D4AD1824449098801EB810147F23052F4
:102BB00002EB4101484A118325E040490988042974
:102BC0000DD13D49098801EB810149F6404202EBF4
:102BD0004101414A91820021D182118313E037499A
:102BE000098805290AD13449098801EB81014CF291
:102BF000503202EB4101384A918204E00021364A0A
:102C00009182D18211832D494988022966D12C49AC
:102C1000498829B90021304A51839183D183A6E0A4
:102C20002749498801290DD12349498801EB8101B0
:102C30004FF6FF7202EA4101274A51830021918336
:102C4000D18394E01E494988022916D11A4949883E
:102C500001EB81014FF6FF7202EA41011E4A5183E6
:102C60001549498801EB81014FF6FF7202EA4101E3
:102C7000194A91830021D18379E00F49498801EBFA
:102C800081014FF6FF7202EA4101134A51830A495A
:102C9000498801EB81014FF6FF7202EA41010E4AB9
:102CA00091830549498801EB81014FF6FF7202EAE1
:102CB0004101094AD1835AE00E6C0010EA6B001002
:102CC000FC6B00101004001012040010140400101B
:102CD00000C00920BA070010E8080010FE49498822
:102CE00003291ED1FD49498801EB810142F210728E
:102CF00002EB4101FA4A5183F849498801EB81010D
:102D000044F6206202EB4101F54A9183F349498878
:102D100001EB810147F2305202EB4101F04AD183CD
:102D200025E0ED49498804290DD1EC49498801EB9A
:102D3000810149F6404202EB4101E94A51830021F9
:102D40009183D18313E0E449498805290AD1E349F5
:102D5000498801EB81014CF2503202EB4101E04A1B
:102D6000D18204E00021DE4A51839183D183DA4984
:102D70008988022954D1DB49898829B90021D84A98
:102D800011845184918494E0D649898801290DD118
:102D9000D249898801EB81014FF6FF7202EA4101B5
:102DA000CF4A118400215184918482E0CD498988E1
:102DB000022916D1C949898801EB81014FF6FF72BA
:102DC00002EA4101C64A1184C449898801EB8101A4
:102DD0004FF6FF7202EA4101C14A518400219184F9
:102DE00067E0BE49898801EB81014FF6FF7202EA74
:102DF0004101BB4A1184B949898801EB81014FF631
:102E0000FF7202EA4101B64A5184B449898801EB54
:102E100081014FF6FF7202EA4101B14A918448E014
:102E2000AD49898803291ED1AC49898801EB81010C
:102E300042F2107202EB4101A94A1184A749898824
:102E400001EB810144F6206202EB4101A44A518466
:102E5000A249898801EB810147F2305202EB41011E
:102E60009F4A918425E09C49898804290DD19B497A
:102E7000898801EB810149F6404202EB4101984A01
:102E8000118400215184918413E093498988052994
:102E90000AD19249898801EB81014CF2503202EB50
:102EA00041018F4A118304E000218D4A118451842D
:102EB00091848949C988022954D18A49C98829B984
:102EC0000021874AD1841185518594E08549C988BC
:102ED00001290DD18149C98801EB81014FF6FF72AB
:102EE00002EA41017E4AD18400211185518582E0A8
:102EF0007C49C988022916D17849C98801EB81012A
:102F00004FF6FF7202EA4101754AD1847349C988BC
:102F100001EB81014FF6FF7202EA4101704A11850F
:102F20000021518567E06D49C98801EB81014FF6A9
:102F3000FF7202EA41016A4AD1846849C98801EBFB
:102F400081014FF6FF7202EA4101654A118563492A
:102F5000C98801EB81014FF6FF7202EA4101604A24
:102F6000518548E05C49C98803291ED15B49C9885D
:102F700001EB810142F2107202EB4101584AD18407
:102F80005649C98801EB810144F6206202EB4101F8
:102F9000534A11855149C98801EB810147F23052EA
:102FA00002EB41014E4A518525E04B49C98804296D
:102FB0000DD14A49C98801EB810149F6404202EB33
:102FC0004101474AD18400211185518513E04249CE
:102FD000C98805290AD14149C98801EB81014CF210
:102FE000503202EB41013E4A518304E000213C4A49
:102FF000D1841185518538490989022954D139492B
:10300000098929B90021364A9185D18511869DE02B
:103010003449098901290DD13049098901EB810120
:103020004FF6FF7202EA41012D4A91850021D185B8
:1030300011868BE02B490989022916D12749098974
:1030400001EB81014FF6FF7202EA4101244A9185AA
:103050002249098901EB81014FF6FF7202EA410121
:103060001F4AD1850021118670E01C49098901EBB6
:1030700081014FF6FF7202EA4101194A9185174911
:10308000098901EB81014FF6FF7202EA4101144AFE
:10309000D1851249098901EB81014FF6FF7202EADD
:1030A00041010F4A118651E00B490989032927D1B3
:1030B0000A49098901EB810142F2107202EB4101D8
:1030C000074A91850549098901EB810144F620628F
:1030D00002EB4101024A07E0EA6B00100E6C00109F
:1030E000E8080010FC6B0010D185FE49098901EB4E
:1030F000810147F2305202EB4101FB4A118625E083
:10310000FA49098904290DD1F649098901EB8101A0
:1031100049F6404202EB4101F34A91850021D185F5
:10312000118613E0F149098905290AD1ED49098978
:1031300001EB81014CF2503202EB4101EA4A9183EA
:1031400004E00021E84A9185D1851186E749498943
:10315000022934D1E649498929B90021E24A518638
:103160009186D1865BE0E249498901290DD1DD498B
:10317000498901EB81014FF6FF7202EA4101DA4A07
:10318000518600219186D18649E0D9494989022991
:103190000AD1D449498901EB81014FF6FF7202EA55
:1031A0004101D14A51863AE0CE49498901EB81017A
:1031B0004FF6FF7202EA4101CB4A51862FE0CB491C
:1031C000498903290AD1C749498901EB810142F2A2
:1031D000107202EB4101C44A518620E0C34949897B
:1031E00004290AD1BF49498901EB810149F64042CE
:1031F00002EB4101BC4A518611E0BC4949890529CD
:103200000AD1B849498901EB81014CF2503202EBF5
:103210004101B54AD18302E00021B34A5186B34946
:103220008989022954D1B249898929B90021AE4A34
:1032300011875187918761E0AD49898901290DD1B5
:10324000A849898901EB81014FF6FF7202EA410129
:10325000A54A11870021518791874FE0A4498989A8
:10326000022916D19F49898901EB81014FF6FF722E
:1032700002EA41019C4A11879A49898901EB81013F
:103280004FF6FF7202EA4101974A51870021918768
:1032900034E09449898901EB81014FF6FF7202EA1B
:1032A0004101914A11878F49898901EB81014FF6CC
:1032B000FF7202EA41018C4A51878A49898901EBF0
:1032C00081014FF6FF7202EA4101874A918715E0BA
:1032D00086498989032911D08449898904290DD017
:1032E00082498989052909D17E49898901EB8101B2
:1032F0004CF2503202EB41017B4A11847B49C9896F
:1033000002295CD17A49C98939B90021764AD18725
:10331000A2F84010A2F8421067E07549C989012956
:103320000FD17049C98901EB81014FF6FF7202EAA2
:1033300041016D4AD1870021A2F84010A2F8421045
:1033400053E06B49C989022918D16649C98901EB43
:1033500081014FF6FF7202EA4101634AD187614958
:10336000C98901EB81014FF6FF7202EA41015E4A11
:10337000A2F840100021A2F8421036E05949C9894C
:1033800001EB81014FF6FF7202EA4101564AD187F3
:103390005449C98901EB81014FF6FF7202EA4101EC
:1033A000514AA2F840104F49C98901EB81014FF6FB
:1033B000FF7202EA41014C4AA2F8421015E04B4963
:1033C000C989032911D04949C98904290DD0474920
:1033D000C989052909D14349C98901EB81014CF209
:1033E000503202EB4101404A51844049098A022986
:1033F00060D13F49098A41B900213B4AA2F84410F3
:10340000A2F84610A2F848106AE03949098A012951
:1034100010D13449098A01EB81014FF6FF7202EAAB
:103420004101314AA2F844100021A2F84610A2F846
:10343000481055E02E49098A022919D12949098ADB
:1034400001EB81014FF6FF7202EA4101264AA2F820
:1034500044102449098A01EB81014FF6FF7202EA08
:103460004101214AA2F846100021A2F8481037E095
:103470001C49098A01EB81014FF6FF7202EA410102
:10348000194AA2F844101749098A01EB81014FF645
:10349000FF7202EA4101144AA2F846101149098A52
:1034A00001EB81014FF6FF7202EA41010E4AA2F8D8
:1034B000481015E00D49098A032911D00B49098AE2
:1034C00004290DD00949098A052909D10549098A24
:1034D00001EB81014CF2503202EB4101024A91842E
:1034E000704700000E6C0010E8080010EA6B001036
:1034F000FC6B0010FE48007A40F00100FC490872A5
:103500000120087070470FB4FA4900980870F84914
:10351000019881F82400F84902980870F44903984A
:1035200081F82C00069881F8300007988886049866
:1035300081F838000598888704B07047EF48006824
:1035400040F40070EE49C1F8C400EE48007810F075
:10355000100F06D0EB48007840F01000E44981F8E5
:103560005C004FF00000E24908740873087270476D
:10357000DF48007A20F00100DD49087270472DE92C
:10358000F14FADF5206D00210A9100248846099184
:1035900008910591DDF8000A012817D1DA48407832
:1035A000CDF8F409D8488078CDF8FC09D648C07821
:1035B000CDF8F8090DF6F81003C840EA0125D24805
:1035C0004079D149097940EA012915E0CF4840788E
:1035D000CDF8F409CD488178CDF8FC19C078CDF844
:1035E000F8090DF6F81003C840EA0125C7484079EC
:1035F000C649097940EA0129DDF8F409102801F0EB
:10360000028707DC03280FD004285AD0062844F08C
:10361000E8849AE0672804F02581682804F0758121
:103620006A28F4D103F0B7BDB5F5805F45DB41F200
:103630002D70854241DCB9F5EB6F3BDC05EB0900F1
:1036400041F25871884235DC4FF6FF7000EA4909B3
:10365000A5F5805085B24FF0000818E005EB080092
:10366000AB4931F810000112E01C0DF20C6211544C
:10367000601C84B205EB0800A54911F81010E01C8D
:103680001154601C84B208F101001FFA80F8C8458B
:10369000E4DBA04801788DF80C16DDF8F4198DF8FC
:1036A0000D1609F0FF018DF80E169DF80E06C01CD0
:1036B0000A9004E00220059001E00320059004F048
:1036C00093BCB5F51A6F3DDCB9F51A6F37DC05EB25
:1036D0000900B0F51A6F32DC4FF6FF7000EA4909B5
:1036E0004FF0000818E005EB08008B4931F8100096
:1036F0000112E01C0DF20C621154601C84B205EB47
:103700000800854911F81010E01C1154601C84B2A7
:1037100008F101001FFA80F8C845E4DB7D48017814
:103720008DF80C16DDF8F4198DF80D1609F0FF016F
:103730008DF80E1609F1030081B20A9104E002200F
:10374000059001E003200590B9E7B5F5805FC1F26F
:10375000878341F2AF00854281F28283DDF8000A5F
:10376000012807D1684890F804A090F805B04BEA0A
:103770000A2606E0654890F804A090F805B04BEAE8
:103780000A26B5F5805F17D1A6F52A40AA3806D1DA
:103790000120624908806249087001F010BEA6F558
:1037A000AA40553805D15D49088001205C49087060
:1037B000F3E704200590F0E741F20100854205D0CF
:1037C000A5F58050023801D0401E02D1042005909A
:1037D000E3E7A5F58050043815D1FFF7C9FEFFF7E0
:1037E000ADFE504846610346D3E905021969DB691D
:1037F000CDE90223CDE900104A480FC8FFF783FE48
:10380000FFF778FEC9E7A5F58050053814D1FFF71A
:10381000AFFEFFF793FE4348C0F810A0C0F80CB00D
:10382000034610330FCB8DE80F003E480FC8FFF75B
:103830006AFEFFF75FFEB0E7A5F58050063814D1A9
:10384000FFF796FEFFF77AFE3648C0F808A0C0F8EA
:1038500004B0034610330FCB8DE80F0031480FC87A
:10386000FFF751FEFFF746FE97E7A5F580500738B2
:1038700015D1FFF77DFEFFF761FE2A48066003467B
:10388000D3E90420D3E90613CDE90213CDE90020E2
:1038900024480FC8FFF737FEFFF72CFE7DE7A5F59C
:1038A0008050083862D12048068001201F490870E6
:1038B0001F4908701F4908701F4908701F49087088
:1038C0004FF00008002440E0174830F814000112BF
:1038D0004046421C1FFA82F80DF5A86211541248A6
:1038E00010F814104046421C1FFA82F828E000002D
:1038F000004002402040024028400240C4C00F4027
:1039000000C00F405C400240642F0010FA2F0010EE
:103910001C450010A2020010BC310010480300102A
:1039200011030010FC560010BA070010E602001048
:10393000E9020010EA020010EB020010EC02001095
:103940000DF5A8621154601C84B2642CBCDB4FF0EE
:103950008050FA49C863C8220DF5A8610020FEF71F
:1039600090FC4FF08050F549886316E7A5F580502C
:10397000093838D1F24846800120F2490870F249EE
:103980000870F2490870F2490870F24908704FF067
:103990000008002416E0EA4830F8140001124046FE
:1039A000421C1FFA82F80DF5A8621154E44810F881
:1039B00014104046421C1FFA82F80DF5A8621154FB
:1039C000601C84B2642CE6DB4FF08050DB49C86396
:1039D000C8220DF5A8610020FEF753FC4FF080507F
:1039E000D6498863D9E6A5F580500A3838D1D4483D
:1039F00086800120D3490870D3490870D3490870E4
:103A0000D3490870D34908704FF00008002416E02D
:103A1000CB4830F8140001124046421C1FFA82F8CD
:103A20000DF5A8621154C64810F814104046421C07
:103A30001FFA82F80DF5A8621154601C84B2642C40
:103A4000E6DB4FF08050BD49C863C8220DF5A86180
:103A50000020FEF716FC4FF08050B84988639CE6C2
:103A6000A5F580500B3838D1B548C6800120B5493E
:103A70000870B5490870B5490870B5490870B5496E
:103A800008704FF00008002416E0AD4830F814002C
:103A900001124046421C1FFA82F80DF5A86211542B
:103AA000A74810F814104046421C1FFA82F80DF582
:103AB000A8621154601C84B2642CE6DB4FF0805085
:103AC0009E49C863C8220DF5A8610020FEF7D9FB06
:103AD0004FF08050994988635FE6A5F580500C3817
:103AE00038D1974806810120964908709649087098
:103AF0009649087096490870964908704FF000087A
:103B0000002416E08E4830F8140001124046421C92
:103B10001FFA82F80DF5A8621154894810F81410A4
:103B20004046421C1FFA82F80DF5A8621154601C31
:103B300084B2642CE6DB4FF080508049C863C82211
:103B40000DF5A8610020FEF79CFB4FF080507B49EB
:103B5000886322E6A5F580500D3838D17848468133
:103B600001207849087078490870784908707849C8
:103B70000870784908704FF00008002416E070487B
:103B800030F8140001124046421C1FFA82F80DF56D
:103B9000A86211546A4810F814104046421C1FFADB
:103BA00082F80DF5A8621154601C84B2642CE6DB27
:103BB0004FF080506149C863C8220DF5A86100200C
:103BC000FEF75FFB4FF080505C498863E5E5A5F5A3
:103BD00080500E3838D15A488681012059490870E2
:103BE000594908705949087059490870594908706D
:103BF0004FF00008002416E0514830F8140001127C
:103C00004046421C1FFA82F80DF5A86211544C4838
:103C100010F814104046421C1FFA82F80DF5A862F5
:103C20001154601C84B2642CE6DB4FF08050434991
:103C3000C863C8220DF5A8610020FEF722FB4FF0F3
:103C400080503E498863A8E5A5F580500F3838D1EB
:103C50003B48C68101203B4908703B4908703B49FD
:103C600008703B4908703B4908704FF00008002479
:103C700016E0334830F8140001124046421C1FFA87
:103C800082F80DF5A86211542D4810F81410404622
:103C9000421C1FFA82F80DF5A8621154601C84B210
:103CA000642CE6DB4FF080502449C863C8220DF530
:103CB000A8610020FEF7E5FA4FF080501F498863A5
:103CC0006BE5A5F58050103846D11D4806820120CD
:103CD0001C4908701C4908701C4908701C49087070
:103CE0001C4908704FF00008002416E0144830F812
:103CF000140001124046421C1FFA82F80DF5A8621A
:103D000011540F4810F814104046421C1FFA82F854
:103D10000DF5A8621154601C84B2642CE6DB4FF0F0
:103D200080500649C863C8220DF5A8610020FEF73F
:103D3000A8FA4FF08050014988632EE500C00920A1
:103D4000BA070010E6020010E9020010EA020010B3
:103D5000EB020010EC020010A5F58050113838D1AC
:103D6000FC4846820120FC490870FC490870FC4967
:103D70000870FC490870FC4908704FF000080024E6
:103D800016E0F44830F8140001124046421C1FFAB5
:103D900082F80DF5A8621154EE4810F81410404650
:103DA000421C1FFA82F80DF5A8621154601C84B2FF
:103DB000642CE6DB4FF08050EC49C863C8220DF557
:103DC000A8610020FEF75DFA4FF08050E749886354
:103DD000E3E4A5F58050123838D1DE488682012010
:103DE000DD490870DD490870DD490870DD4908705B
:103DF000DD4908704FF00008002416E0D54830F87F
:103E0000140001124046421C1FFA82F80DF5A86208
:103E10001154D04810F814104046421C1FFA82F882
:103E20000DF5A8621154601C84B2642CE6DB4FF0DF
:103E30008050CE49C863C8220DF5A8610020FEF766
:103E400020FA4FF08050C9498863A6E4A5F5805058
:103E5000133838D1BF48C6820120BF490870BF4916
:103E60000870BF490870BF490870BF4908704FF01B
:103E70000008002416E0B74830F81400011240464C
:103E8000421C1FFA82F80DF5A8621154B14810F8CF
:103E900014104046421C1FFA82F80DF5A862115416
:103EA000601C84B2642CE6DB4FF08050AF49C863DD
:103EB000C8220DF5A8610020FEF7E3F94FF080500D
:103EC000AA49886369E4A5F58050143838D1A1481F
:103ED00006830120A0490870A0490870A049087015
:103EE000A0490870A04908704FF00008002416E0AF
:103EF000984830F8140001124046421C1FFA82F81C
:103F00000DF5A8621154934810F814104046421C55
:103F10001FFA82F80DF5A8621154601C84B2642C5B
:103F2000E6DB4FF080509149C863C8220DF5A861C7
:103F30000020FEF7A6F94FF080508C4988632CE4EE
:103F4000A5F58050153838D1824846830120824932
:103F50000870824908708249087082490870824955
:103F600008704FF00008002416E07A4830F814007A
:103F700001124046421C1FFA82F80DF5A862115446
:103F8000744810F814104046421C1FFA82F80DF5D0
:103F9000A8621154601C84B2642CE6DB4FF08050A0
:103FA0007249C863C8220DF5A8610020FEF769F9BF
:103FB0004FF080506D4988630AE4A5F580501638AB
:103FC00038D16448868301206349087063490870CA
:103FD0006349087063490870634908704FF000082E
:103FE000002416E05B4830F8140001124046421CE1
:103FF0001FFA82F80DF5A8621154564810F81410F3
:104000004046421C1FFA82F80DF5A8621154601C4C
:1040100084B2642CE6DB4FF080505449C863C82258
:104020000DF5A8610020FEF72CF94FF080504F49A4
:10403000886319E4A5F58050173838D14548C68300
:1040400001204549087045490870454908704549AF
:104050000870454908704FF00008002416E03D48FC
:1040600030F8140001124046421C1FFA82F80DF588
:10407000A8621154374810F814104046421C1FFA29
:1040800082F80DF5A8621154601C84B2642CE6DB42
:104090004FF080503549C863C8220DF5A861002053
:1040A000FEF7EFF84FF08050304988635DE4A5F5E6
:1040B0008050183838D127480684012026490870D6
:1040C0002649087026490870264908702649087054
:1040D0004FF00008002416E01E4830F814000112CA
:1040E0004046421C1FFA82F80DF5A8621154194887
:1040F00010F814104046421C1FFA82F80DF5A86211
:104100001154601C84B2642CE6DB4FF080501749D8
:10411000C863C8220DF5A8610020FEF7B2F84FF081
:1041200080501249886320E4A5F58050193847D1A2
:104130000848468401200849087008490870084961
:10414000087008490870084908704FF000080024FA
:1041500025E00000BA070010E6020010E902001096
:10416000EA020010EB020010EC02001000C009206F
:10417000F74830F8140001124046421C1FFA82F83A
:104180000DF5A8621154F24810F814104046421C74
:104190001FFA82F80DF5A8621154601C84B2642CD9
:1041A000E6DB4FF08050EB49C863C8220DF5A861EB
:1041B0000020FEF766F84FF08050E649886311E46E
:1041C000A5F580501A3838D1E14806850120E2492A
:1041D0000870E2490870E2490870E2490870E24953
:1041E00008704FF00008002416E0D94830F8140099
:1041F00001124046421C1FFA82F80DF5A8621154C4
:10420000D34810F814104046421C1FFA82F80DF5EE
:10421000A8621154601C84B2642CE6DB4FF080501D
:10422000CC49C863C8220DF5A8610020FEF729F823
:104230004FF08050C749886311E441F21B0085426A
:104240006EDB41F24C0085426ADCA5F580501B38DC
:10425000C64921F810604FF00008002414E0C3485C
:1042600030F81400012809D1601C81B208F11F0048
:10427000B74A22F810101E381FFA80F8B8F1120F52
:1042800000DD03E0601C84B2322CE8DB00BFB048E4
:10429000A0F83C80002408E0002108F11F00204421
:1042A000AB4A22F81010601C84B2C8F11300A0427F
:1042B000F2DC0120A8490870A8490870A8490870D4
:1042C000A8490870A84908704FF00008002416E0BB
:1042D0009F4830F8140001124046421C1FFA82F831
:1042E0000DF5A86211549A4810F814104046421C6B
:1042F0001FFA82F80DF5A8621154601C84B2642C78
:10430000E6DB4FF080509349C863C8220DF5A861E1
:104310000020FDF7B6FF4FF080508E49886318E407
:10432000A5F580504D3806D191480680FDF79DFDDA
:10433000FEF7A9F80DE4A5F580504E3806D18D485A
:104340000680FDF792FDFEF79EF83FE4A5F580504C
:104350004F3806D188490E70FDF787FDFEF793F8B8
:1043600034E4A5F58050503811D1FFF701F9FFF77B
:10437000E5F882484661034610330FCB8DE80F0005
:104380007E480FC8FFF7BFF8FFF7B4F81EE4A5F5A5
:104390008050513815D1FFF7EBF8FFF7CFF8774889
:1043A00006610346D3E905211869DB69CDE90213EB
:1043B000CDE9000271480FC8FFF7A5F8FFF79AF89A
:1043C00004E4A5F58050523815D1FFF7D1F8FFF776
:1043D000B5F86A48C6600346D3E90412D3E9060378
:1043E000CDE90203CDE9001264480FC8FFF78BF84E
:1043F000FFF780F827E4A5F58050533815D1FFF773
:10440000B7F8FFF79BF85D4886600346D3E90502DD
:104410001969DB69CDE90223CDE9001057480FC8BF
:10442000FFF771F8FFF766F80DE4A5F580505438F2
:1044300011D1FFF79DF8FFF781F850484660034619
:1044400010330FCB8DE80F004C480FC8FFF75BF817
:10445000FFF750F834E4A5F58050553804D14848AA
:104460000680FEF710F82BE4A5F58050563804D1ED
:1044700044480680FEF707F822E4A5F58050573837
:1044800004D140484680FDF7FEFF19E4A5F58050B1
:10449000583804D13B488680FDF7F5FF10E4A5F5B8
:1044A0008050593804D13748C680FDF7ECFF07E447
:1044B000A5F580505A3804D132480681FDF7E3FF54
:1044C0003BE4A5F580505B3804D12F480680FDF70A
:1044D000DAFF32E4A5F580505C3804D12A484680E2
:1044E000FDF7D1FF29E4A5F580505D3804D12648B9
:1044F0008680FDF7C8FF20E4A5F580505E3804D122
:104500002148C680FDF7BFFF17E4A5F580505F384E
:1045100004D11D480681FDF7B6FF0EE4B5F5835FB3
:1045200004D11A480680FDF7AEFF06E441F26100AF
:10453000854204D115484680FDF7A5FF48E4A5F55E
:104540008050623824D111488680FDF79CFF3FE4FB
:10455000BA07001000C00920E6020010E9020010AE
:10456000EA020010EB020010EC02001084080010B8
:10457000A2020010A4020010EC030010FC56001070
:10458000A6020010D4560010DE560010E8560010A7
:10459000A5F58050633804D1FD48C680FDF773FF50
:1045A00016E4A5F58050643804D1F9480681FDF77A
:1045B0006AFF0DE4A5F58050653804D1F548068002
:1045C000FDF761FF04E4A5F58050663804D1F14899
:1045D0004680FDF758FF38E4A5F58050673804D1D0
:1045E000EC488680FDF74FFF2FE4A5F58050683832
:1045F00004D1E848C680FDF746FF26E4A5F58050C3
:10460000693804D1E3480681FDF73DFF1DE4A5F5B7
:1046100080506A3804D1E0480680FDF734FF14E486
:10462000A5F580506B3804D1DC480680FDF72BFFE0
:104630000BE4A5F580506C3804D1D8484680FDF7CE
:1046400022FF3FE4A5F580506D3804D1D348868021
:10465000FDF719FF36E4A5F580506E3804D1CF4838
:10466000C680FDF710FF2DE4A5F580506F3804D10A
:10467000CA480681FDF707FF24E4A5F5805070388D
:1046800004D1C6484681FDF7FEFE1BE4A5F5805027
:10469000713804D1C1488681FDF7F5FE12E4A5F515
:1046A0008050723804D1BD48C681FDF7ECFE09E4A4
:1046B000A5F58050733804D1B8480682FDF7E3FEB3
:1046C0003DE4A5F58050743804D1B4484682FDF726
:1046D000DAFE34E4A5F5805075380BD1B048008877
:1046E00080B20790079840EA0640AD490860FDF7A0
:1046F000CAFE24E4A5F5805076380BD1A84800689E
:10470000000C0790079846EA0040A5490860FDF7AD
:10471000BAFE14E4A5F58050773804D1A14806808C
:10472000FDF7B1FE0BE4A5F58050783801D0401EAE
:1047300050D1A5F58050783802D19B48068005E01D
:10474000A5F58050793801D19848068097480088AF
:1047500000EB80009449098801EB40009449A1F8DE
:104760009200FDF790FE012092490870924908706E
:104770009249087092490870924908704FF00008F9
:10478000002416E08A4830F8140001124046421C0A
:104790001FFA82F80DF5A8621154854810F814101C
:1047A0004046421C1FFA82F80DF5A8621154601CA5
:1047B00084B2642CE6DB4FF080508349C863C82282
:1047C0000DF5A8610020FDF75CFD4FF080507E499B
:1047D00088632EE4A5F580507A3807D0401E05D0B6
:1047E000401E03D0401E01D0401E7CD1A5F5805054
:1047F0007A3802D1754806801AE0A5F580507B38DA
:1048000002D17348068013E0A5F580507C3802D1B0
:10481000704806800CE0A5F580507D3802D16E48C6
:10482000068005E0A5F580507E3801D16B480680F2
:104830006748008800EB80006449098801EB40006C
:104840006449098801EBC10202EB011100EB810010
:104850006049098801EB4102C2EBC11100EBC101C3
:104860005E48008840F27122504301EB001050492D
:104870008882FDF708FE01204E4908704E490870F5
:104880004E4908704E4908704E4908704FF00008B4
:10489000002416E0464830F8140001124046421C3D
:1048A0001FFA82F80DF5A8621154414810F814104F
:1048B0004046421C1FFA82F80DF5A8621154601C94
:1048C00084B2642CE6DB4FF080503F49C863C822B5
:1048D0000DF5A8610020FDF7D4FC4FF080503A4957
:1048E000886320E4FFE7A5F58050AC3805D0401E72
:1048F00003D0401E01D02F3049D1A5F58050AC38EF
:1049000002D13748068013E0A5F58050AD3802D1BA
:10491000344806800CE0A5F58050AE3802D132480C
:10492000068005E0A5F580507F3801D12F4806802C
:104930002B48008800EB800040002A49098801EBE1
:10494000C10202EB011100EB81002749098801EB4C
:104950004102C2EBC11100EBC1012448008840F2C2
:104960007122504301EB001011498883FDF78BFD44
:10497000012010490870104908701049087010494A
:104980000870104908704FF00008002447E057E015
:10499000E8560010F2560010E0010010FC2C001048
:1049A000FC030010000400100204001004040010B6
:1049B000BA070010E6020010E9020010EA02001037
:1049C000EB020010EC02001000C0092006040010E9
:1049D000080400100A0400100C0400100E0400105B
:1049E000100400101204001014040010160400102B
:1049F000FA4830F8140001124046421C1FFA82F8AF
:104A00000DF5A8621154F54810F814104046421CE8
:104A10001FFA82F80DF5A8621154601C84B2642C50
:104A2000E6DB4FF08050EE49C863C8220DF5A8615F
:104A30000020FDF726FC4FF08050E94988630EE224
:104A4000B5F5845F72DB41F2940085426EDCB5F50A
:104A5000845F02D1E3480680B5E041F281008542DF
:104A600002D1E1480680AEE0A5F58050823802D13F
:104A7000DE480680A7E0A5F58050833802D1D948EA
:104A80004680A0E0A5F58050843802D1D648468003
:104A900099E0A5F58050853802D1D448468092E04F
:104AA000A5F58050863802D1CE4886808BE0A5F5EA
:104AB0008050873802D1CC48868084E0A5F58050AC
:104AC000883802D1C94886807DE0A5F580508938B4
:104AD00002D1C448C68076E0A5F580508A3802D15C
:104AE000C148C6806FE0A5F580508B3802D1BF4821
:104AF000C68068E0A5F580508C3802D1B94806819F
:104B000061E0A5F580508D3802D1B74806815AE0A2
:104B1000A5F580508E3802D1B448068153E0A5F542
:104B200080508F3803D1AF4846814CE0B2E0A5F504
:104B30008050903802D1AC48468144E0A5F58050C1
:104B4000913802D1A94846813DE0A5F580509238C0
:104B500002D1A448868136E0A5F58050933802D171
:104B6000A14886812FE0A5F58050943802D19F4856
:104B7000868128E0A5F58050953802D19948C681F4
:104B800021E0A5F58050963802D19748C6811AE0F9
:104B9000A5F58050973802D19448C68113E0A5F559
:104BA0008050983802D18F4806820CE0A5F58050DD
:104BB000993802D18C48068205E0A5F580509A38D4
:104BC00001D18A480682FDF751FFFDF75CFC012008
:104BD00087490870874908708749087087490870B5
:104BE000874908704FF00008002416E07B4830F831
:104BF000140001124046421C1FFA82F80DF5A8620B
:104C00001154764810F814104046421C1FFA82F8DE
:104C10000DF5A8621154601C84B2642CE6DB4FF0E1
:104C200080506F49C863C8220DF5A8610020FDF7C8
:104C300028FB4FF080506A4988634FF00008002439
:104C400016E0704830F8140001124046421C1FFA6A
:104C500082F80DF5A86211546A4810F81410404605
:104C6000421C1FFA82F80DF5A8621154601C84B230
:104C7000642CE6DB4FF080505949C863C8220DF51B
:104C8000A8614FF48750FDF7FCFA4FF0805054496B
:104C9000886394E341F29B0085426EDB41F2AB00F6
:104CA00085426ADA012E00D00026A5F580509B3897
:104CB00002D15548068067E0A5F580509C3802D1A6
:104CC0005148468060E0A5F580509D3802D14E489D
:104CD000868059E0A5F580509E3802D14A48C680AA
:104CE00052E0A5F580509F3802D1474806814BE03D
:104CF000B5F5855F02D14448468145E041F2A10007
:104D0000854202D1404886813EE0A5F58050A23818
:104D100002D13D48C68137E0A5F58050A33802D1C5
:104D20003948068230E0A5F58050A43802D13648D3
:104D3000468229E0A5F58050A53802D13248868206
:104D400022E0A5F58050A63802D12F48C6821BE08C
:104D5000A5F58050A73802D12B48068314E0A5F5AD
:104D60008050A83802D1284846830DE0A5F5805030
:104D7000A93803D12448868306E018E0A5F58050C1
:104D8000AA3801D12048C683002020490880002489
:104D90000AE01D4830F81400A0401C490988084367
:104DA0001A490880601C84B2102CF2DB07E3A5F5D9
:104DB0008050AB38FAD10948A0F8906001200C4926
:104DC00008700C4908700C4908700C4908700C49AF
:104DD00008704FF00008002431E00000BA0700100E
:104DE00000C00920EA6B0010FC6B00100E6C001074
:104DF000E6020010E9020010EA020010EB020010C7
:104E0000EC020010E8080010B00900109802001031
:104E1000FE4830F8140001124046421C1FFA82F886
:104E20000DF5A8621154F94810F814104046421CC0
:104E30001FFA82F80DF5A8621154601C84B2642C2C
:104E4000E6DB4FF08050F249C863C8220DF5A86137
:104E50000020FDF716FA4FF08050ED498863AEE26E
:104E600041F2AF00854206DB41F2FF00854202DAE3
:104E700004200590A3E2A5F58050FF3809D1E5484C
:104E800090F804A090F805B04BEA0A26E2480680A4
:104E900095E2B5F5885F64DB41F25010854260DC35
:104EA000DD48008841F66161884257D1D94890F8C1
:104EB00004A090F805B04BEA0A26B5F5885F02D148
:104EC000D248868413E041F20110854202D1CF48D6
:104ED000C6840CE0A5F58850023802D1CB4846853F
:104EE00005E0A5F58050ED38C84921F81060012093
:104EF000CA490870CA490870CA490870CA49087086
:104F0000CA4908704FF00008002416E0BF4830F886
:104F1000140001124046421C1FFA82F80DF5A862E7
:104F20001154BA4810F814104046421C1FFA82F877
:104F30000DF5A8621154601C84B2642CE6DB4FF0BE
:104F40008050B349C863C8220DF5A8610020FDF761
:104F500098F94FF08050AE49886330E20420059004
:104F60002DE241F25110854206DB41F2B410854238
:104F700002DC0420059022E241F2B51085427BDB81
:104F800041F29C50854277DCA3480088A0F5085187
:104F9000B83972D19F4890F804A090F805B04BEA58
:104FA0000A2641F2B51085420DDB41F218208542F8
:104FB00009DCA5F58850B5389D4921F8106001201D
:104FC0009C490870FBE141F2192085420EDB41F259
:104FD0007C2085420ADCA5F5905019389449C831E7
:104FE00021F81060012094490870E8E141F27D2029
:104FF00085420ADBB5F5975F07DC281A8F4921F84F
:10500000106001208E490870D9E1B5F5975F0EDD7B
:1050100041F2443085420ADC41F2E120291A8748F6
:10502000C83020F81160012086490870C7E141F2BC
:10503000453085420DDB41F2A830854209DCA5F5FB
:1050400098504538804921F8106001207F49087048
:10505000B5E141F2A930854210DB41F20C408542B6
:105060000CDCA5F59850A9387749C83121F81060B3
:10507000012077490870A2E14DE049E041F20D407E
:1050800085420DDB41F27040854209DCA5F5A05058
:105090000D38704921F8106001206F4908708EE1C9
:1050A00041F2714085420EDB41F2D44085420ADC78
:1050B000A5F5A05071386749C83121F8106001206A
:1050C000664908707BE141F2D54085420DDB41F233
:1050D0007C20854209DCA5F5A050D538604921F82F
:1050E000106001205F49087069E141F23950854242
:1050F0000DDB41F29C50854209DCA5F5A8503938FA
:105100005749C83121F8106001205749087056E10D
:105110000420059053E141F29D50854274DB41F239
:10512000C860854270DC3C480088A0F51C510F39EE
:105130006BD1384890F804A090F805B04BEA0A26E5
:1051400041F29D50854232DBB5F5B05F2FDC281A65
:10515000464921F810604FF00008002416E043484B
:1051600030F8140001124046421C1FFA82F80DF577
:10517000A86211543D4810F814104046421C1FFA12
:1051800082F80DF5A8621154601C84B2642CE6DB31
:105190004FF080501E49C863C8220DF5A861104623
:1051A000FDF76FF84FF0805019498863A9E0B5F515
:1051B000B05F6CDD41F26460854268DC41F2016001
:1051C000281A2B4921F810604FF00008002416E03F
:1051D000274830F8140001124046421C1FFA82F89A
:1051E0000DF5A8621154224810F814104046421CD4
:1051F0001FFA82F80DF5A8621154601C84B2642C69
:10520000E6DB4FF0805035E08AE086E0BA07001018
:1052100000C00920642F001014030010E6020010E3
:10522000E9020010EA020010EB020010EC0200108C
:1052300018250010ED020010EE020010A826001044
:10524000EF020010F002001038280010F1020010E8
:10525000F2020010C8290010F3020010F40200103E
:10526000582B0010F5020010F6020010B80A0010CA
:10527000800B0010FE49C863C8220DF5A8615000DC
:10528000FCF7FFFF4FF08050F949886339E041F2A5
:105290006560854235DB41F2C860854231DCA5F5A9
:1052A000B0506538F34921F810604FF00008002431
:1052B00016E0F04830F8140001124046421C1FFA74
:1052C00082F80DF5A8621154EA4810F8141040460F
:1052D000421C1FFA82F80DF5A8621154601C84B2BA
:1052E000642CE6DB4FF08050E149C863C8220DF51D
:1052F000A8614FF41670FCF7C4FF4FF08050DC49F2
:1053000088630120DC490870DC490870DC490870BA
:10531000DC490870DC49087051E0042005904EE03B
:1053200041F2C960854248DB41F22D70854244DA82
:10533000D64890F804A090F805B04BEA0A26A5F5E7
:10534000B050C938D24921F810604FF0000800244D
:1053500016E0CF4830F8140001124046421C1FFAF4
:1053600082F80DF5A8621154C94810F8141040468F
:10537000421C1FFA82F80DF5A8621154601C84B219
:10538000642CE6DB4FF08050B949C863C8220DF5A4
:10539000A8614FF48750FCF774FF4FF08050B44978
:1053A00088630120B4490870B4490870B449087092
:1053B000B4490870B449087001E003200590012049
:1053C000B4490870B4490870B4490870B449087009
:1053D000B4490870B44801788DF80C16DDF8F4195A
:1053E0008DF80D16A94881788DF80E16C1788DF8C4
:1053F0000F1601798DF8101641798DF811160621D6
:105400000A9102F0F1BDB5F5805FC1F2718341F2FE
:10541000AF00854281F26C83DDF8000A01280AD1D1
:105420009A4840799949097940EA01200C909748B7
:1054300090F8069009E09D4840799C49097940EA36
:1054400001200C90994890F806900021099108914C
:1054500001F048BB0998C01D8C4911F800A00998BB
:10546000083011F800B04BEA0A260998801C81B276
:1054700009910898284487B2B7F5805F17D1A6F53F
:105480002A40AA3806D10120894908808949087034
:1054900001F024BBA6F5AA40553805D184490880FF
:1054A000012084490870F3E704200590F0E741F2F9
:1054B0000100874205D0A7F58050023801D0401E78
:1054C00002D104200590E3E7A7F58050043815D1F8
:1054D000FEF74EF8FEF732F8774846610146D1E90B
:1054E0000423D1E90601CDE90023CDE90201724888
:1054F0000FC8FEF708F8FDF7FDFFC9E7A7F58050D4
:10550000053814D1FEF734F8FEF718F86A48C0F8E9
:1055100010A0C0F80CB0034610330FCB8DE80F007D
:1055200065480FC8FDF7EFFFFDF7E4FFB0E7A7F50B
:105530008050063814D1FEF71BF8FDF7FFFF5E48D8
:10554000C0F808A0C0F804B0034610330FCB8DE8B4
:105550000F0059480FC8FDF7D6FFFDF7CBFF97E7BF
:10556000A7F58050073815D1FEF702F8FDF7E6FFE2
:10557000514806600346D3E905021969DB69CDE9A4
:105580000223CDE900104C480FC8FDF7BCFFFDF722
:10559000B1FF7DE7A7F58050083836D1474806802F
:1055A000012035490870354908703549087035497A
:1055B00008704FF00008002416E0404830F814004E
:1055C00001124046421C1FFA82F80DF5A8621154E0
:1055D0003A4810F814104046421C1FFA82F80DF5A4
:1055E000A8621154601C84B2642CE6DB4FF080503A
:1055F0001F49C863C8220DF5A8610020FCF741FED1
:105600004FF080501A49886342E7A7F58050093867
:1056100060D12A4846800120174908701749087050
:1056200017490870174908704FF00008002416E069
:10563000224830F8140001124046421C1FFA82F83A
:105640000DF5A86211541D4810F814104046421C74
:105650001FFA82F80DF5A8621154601C84B2642C04
:10566000E6DB4FF080500249C863C82228E0000002
:1056700000C00920480C0010E6020010E9020010EA
:10568000EA020010EB020010EC020010642F001080
:10569000E8080010F8020010F9020010FA020010E9
:1056A000FB020010FC020010A2020010FA2F0010F2
:1056B0004803001011030010FC560010BA07001038
:1056C0000DF5A8610020FCF7DCFD4FF08050F74994
:1056D0008863DDE6A7F580500A3836D1F448868025
:1056E0000120F4490870F4490870F4490870F4493D
:1056F00008704FF00008002416E0ED4830F8140060
:1057000001124046421C1FFA82F80DF5A86211549E
:10571000E74810F814104046421C1FFA82F80DF5B5
:10572000A8621154601C84B2642CE6DB4FF08050F8
:10573000DE49C863C8220DF5A8610020FCF7A1FD71
:105740004FF08050D9498863A2E6A7F580500B3806
:1057500036D1D748C6800120D6490870D64908708E
:10576000D6490870D64908704FF00008002416E0AA
:10577000CF4830F8140001124046421C1FFA82F84C
:105780000DF5A8621154CA4810F814104046421C86
:105790001FFA82F80DF5A8621154601C84B2642CC3
:1057A000E6DB4FF08050C149C863C8220DF5A861FF
:1057B0000020FCF766FD4FF08050BC49886367E627
:1057C000A7F580500C3836D1B94806810120B94977
:1057D0000870B9490870B9490870B94908704FF0A4
:1057E0000008002416E0B24830F8140001124046C8
:1057F000421C1FFA82F80DF5A8621154AC4810F84B
:1058000014104046421C1FFA82F80DF5A86211548C
:10581000601C84B2642CE6DB4FF08050A349C8635F
:10582000C8220DF5A8610020FCF72BFD4FF0805039
:105830009E4988632CE6A7F580500D3836D19C48E8
:10584000468101209B4908709B4908709B4908705C
:105850009B4908704FF00008002416E0944830F887
:10586000140001124046421C1FFA82F80DF5A8628E
:1058700011548F4810F814104046421C1FFA82F849
:105880000DF5A8621154601C84B2642CE6DB4FF065
:1058900080508649C863C8220DF5A8610020FCF736
:1058A000F0FC4FF0805081498863F1E5A7F5805006
:1058B0000E3836D17E48868101207E4908707E49A7
:1058C00008707E4908707E4908704FF00008002477
:1058D00016E0774830F8140001124046421C1FFAC7
:1058E00082F80DF5A8621154714810F81410404662
:1058F000421C1FFA82F80DF5A8621154601C84B294
:10590000642CE6DB4FF080506849C863C8220DF56F
:10591000A8610020FCF7B5FC4FF080506349886314
:10592000B6E5A7F580500F3836D16148C681012011
:1059300060490870604908706049087060490870E3
:105940004FF00008002416E0594830F81400011206
:105950004046421C1FFA82F80DF5A86211545448C3
:1059600010F814104046421C1FFA82F80DF5A86288
:105970001154601C84B2642CE6DB4FF080504B491C
:10598000C863C8220DF5A8610020FCF77AFC4FF02F
:105990008050464988637BE5A7F58050103836D1A2
:1059A000434806820120434908704349087043492F
:1059B0000870434908704FF00008002416E03C4886
:1059C00030F8140001124046421C1FFA82F80DF50F
:1059D000A8621154364810F814104046421C1FFAB1
:1059E00082F80DF5A8621154601C84B2642CE6DBC9
:1059F0004FF080502D49C863C8220DF5A8610020E2
:105A0000FCF73FFC4FF080502849886340E5A7F53C
:105A10008050113836D12648468201202549087029
:105A20002549087025490870254908704FF000087D
:105A3000002416E01E4830F8140001124046421CB3
:105A40001FFA82F80DF5A8621154194810F81410C5
:105A50004046421C1FFA82F80DF5A8621154601CE2
:105A600084B2642CE6DB4FF080501049C863C82232
:105A70000DF5A8610020FCF704FC4FF080500B49A5
:105A8000886305E5A7F58050123843D1084886821F
:105A90000120084908700849087008490870084939
:105AA00008704FF00008002423E0000000C0092027
:105AB000BA070010E6020010E9020010EA02001026
:105AC000EB020010FE4830F8140001124046421C60
:105AD0001FFA82F80DF5A8621154F94810F8141055
