:020000040000FA
:10000000307C0010A1010000A5010000A701000044
:10001000B9010000BB010000BD01000000000000AC
:10002000000000000000000000000000BF01000010
:10003000C101000000000000C3010000C501000074
:1000400013B201007BCA0100C7010000C701000014
:10005000C70100002B0A02007F070200C701000051
:10006000C7010000C7010000C7010000C701000070
:10007000C7010000C701000017160000C7010000FB
:10008000C701000051AC0100C7010000C70100001A
:10009000C7010000C7010000C7010000C701000040
:1000A000C7010000C7010000C7010000C701000030
:1000B000C7010000C7010000C7010000C701000020
:1000C000C701000000F002F800F05AF80AA090E81A
:1000D000000C82448344AAF10107DA4501D100F003
:1000E0004FF8AFF2090EBAE80F0013F0010F18BF76
:1000F000FB1A43F00103184780220200A0220200ED
:100100000A444FF0000C10F8013B13F0070408BF3D
:1001100010F8014B1D1108BF10F8015B641E05D0DB
:1001200010F8016B641E01F8016BF9D113F0080F90
:100130001EBF10F8014BAD1C0C1B09D16D1E58BF22
:1001400001F801CBFAD505E014F8016B01F8016B59
:100150006D1EF9D59142D6D37047000000230024CC
:1001600000250026103A28BF78C1FBD8520728BFC7
:1001700030C148BF0B6070471FB51FBD10B510BD23
:1001800020F03AFE1146FFF7F7FF20F083FA20F047
:1001900058FE03B4FFF7F2FF03BC20F059FE000045
:1001A0000C480047FEE71EF0040F0CBFEFF3088079
:1001B000EFF3098020F003BDFEE7FEE7FEE7FEE770
:1001C000FEE7FEE7FEE7FEE703480449024A044B68
:1001D00070470000C5000000306C0010307C00103B
:1001E000306C001053EA020C00F069802DE9F04BEE
:1001F0004FF00006002B1FBFB3FA83F503FA05F496
:1002000024FA05F65E4012BF1643B2FA82F502FAEE
:1002100005F4C5F120051EBF22FA05FC44EA0C04D2
:10022000203556EA044C4FEA144418BF641C4FF0C2
:1002300000084FF00009904271EB030C39D30029FC
:1002400019BFB1FA81F701FA07F6B0FA80F700FAA0
:1002500007F6C7F120071EBF20FA07FC46EA0C0686
:100260002037B6FBF4FCA7EB0507103F07F01F0B88
:10027000CBF120060CFA0BFB2CFA06F644BFB34672
:100280000026202FA4BF5E464FF0000B5BEA060C51
:1002900008BF4FF0010B19EB0B09ABFB027C48EBDD
:1002A0000608C01B06FB02CC0BFB03CC71EB0C0158
:1002B000C1E70B46024641464846BDE8F08B13B500
:1002C0004FF000004FF00001AFF30080BDE81C408C
:1002D0007047002800DA4042704770477047704707
:1002E00010B520F081FD006810BD10B5044620F067
:1002F0007BFD046010BD704700000000FFFFFFFFA2
:1003000020208549086000BF8348006810F0400F36
:10031000FAD00320814908604FF001008049C1F8FC
:100320000C014FF00F007F4908604FF00100A1F170
:10033000040108604FF0AA007B4908604FF05500A7
:100340007749C1F88C0000BF7848006810F0806FD2
:10035000FAD00320764908604FF0AA007049C1F82E
:100360008C004FF05500704908604FF02300714930
:1003700008604FF00100A1F1040108604FF0AA00ED
:100380006D4908604FF05500086000BF6B48006879
:1003900010F4806FFAD00320694908604FF0AA007A
:1003A0005F49C1F8AC004FF05500634908604FF059
:1003B00000006449086001F1040108606248634973
:1003C00008604FF000005649C1F8C8010846D0F84F
:1003D0008800C0F30160032868D15D48006810F010
:1003E000030006D0012823D002283FD003285CD187
:1003F00000E000BF4D480068C0F30E0000F10100AE
:100400004FEA40014648D0F88800C0F3074000F1A9
:100410000100B1FBF0F04F4900FB01F03F490968D2
:10042000C9B201F10101B0FBF1F04B4908603CE0B9
:100430003E480068C0F30E0000F101004FEA4001A1
:100440003748D0F88800C0F3074000F10100B1FB45
:10045000F0F0424900FB01F030490968C9B201F1EE
:100460000101B0FBF1F03C4908601EE02F48006834
:10047000C0F30E0000F101004FEA40012848D0F817
:100480008800C0F3074000F10100B1FBF0F04FF429
:10049000FA4100FB01F021490968C9B201F10101EB
:1004A000B0FBF1F02C49086000BF2FE0284800683D
:1004B00010F0030006D0012810D0022819D003281C
:1004C00023D100E000BF15480068C0B200F1010070
:1004D0002049B1FBF0F02049086016E00F480068A1
:1004E000C0B200F101001D49B1FBF0F01A490860EB
:1004F0000BE00A480068C0B200F101004FF4FA4175
:10050000B1FBF0F01449086000BF00BF43F23A00AD
:100510000349086070470000A0C10F4004C10F40AC
:1005200000C00F4084C00F408CC00F4088C00F40F7
:1005300080C00F40A4C00F40ACC00F40A8C00F4007
:10054000A0C00F40A8C10F40DE87E804C4C00F4020
:100550000CC10F4000093D0000000010001BB70057
:1005600030B502460B464FF6FF7011E032F8024BF1
:10057000604000210AE010F0010F04D04AF20104AB
:1005800084EA600000E040104C1CA1B21029F2DBAC
:100590001C00A3F10105ABB2E8D130BD10B5024695
:1005A000002114E0DC2901D16E200EE0FA4C4B1C36
:1005B00034F81330934208DDCB1C34F813309342E7
:1005C00003DA234613F8110003E08B1CD9B2DE29AD
:1005D000E8DB00BF10BD10B5F048006840F4001023
:1005E000EF49C1F8C4000846D0F8AC0120F44060DF
:1005F000C1F8AC010846D0F8AC0140F48060E9498C
:1006000008604FF00F00E84908604FF006004860AE
:100610000846C06810F0040F02D00846806884B213
:100620000020E1494861E1490870E1490870E14969
:1006300008800E2020F08AFB0420DB49486110BDB1
:1006400010B50146DC4AD84B996005E0521E1AB934
:100650000123D74C237004E0D34BDB6813F0040F65
:10066000F4D000BFD24B1B7813B9CF4B9B6898B224
:1006700010BD70B50025D148808842F20F718842C4
:1006800079DACE48808838BB002408E0201DCB49A9
:1006900031F81000CA4921F81400601CC4B2642C5F
:1006A000F4DBC8480078012840F0B487C448B0F8AB
:1006B0009400C349B1F8921040EA0140C249086071
:1006C000BF48B0F89800BE49B1F8961040EA014022
:1006D000BE49086000F09EBFB8488088642815D1E4
:1006E000002410E0201DB54931F81000B84921F868
:1006F000140004F13600B14931F81000B54921F871
:100700001400601CC4B2322CECDBE3E7AB488088F9
:10071000C82815D1002410E0201DA84931F8100088
:10072000AD4921F8140004F13600A44931F8100055
:10073000AA4921F81400601CC4B2322CECDBC9E7D2
:100740009E488088B0F5967F16D1002410E0201DC9
:100750009A4931F81000A24921F8140004F136003A
:10076000964931F810009F4921F81400601CC4B26A
:10077000322CECDBAEE7C4E290488088B0F5C87F4D
:1007800015D1002410E0201D8C4931F81000964945
:1007900021F8140004F13600884931F8100093491B
:1007A00021F81400601CC4B2322CECDB92E78348C1
:1007B0008088B0F5FA7F15D1002410E0201D7F4914
:1007C00031F810008A4921F8140004F136007B4901
:1007D00031F81000874921F81400601CC4B2322C93
:1007E000ECDB77E775488088B0F5167F15D10024DB
:1007F00010E0201D714931F810007F4921F81400E4
:1008000004F136006D4931F810007C4921F81400DC
:10081000601CC4B2322CECDB5CE768488088B0F521
:100820002F7F15D1002410E0201D644931F81000FD
:10083000734921F8140004F13600604931F81000C2
:10084000704921F81400601CC4B2322CECDB41E783
:100850005A488088B0F5487F15D1002410E0201D4B
:10086000564931F81000684921F8140004F13600A7
:10087000524931F81000654921F81400601CC4B2D7
:10088000322CECDB26E74D488088B0F5617F15D12E
:10089000002410E0201D494931F810005C4921F87E
:1008A000140004F13600454931F81000594921F887
:1008B0001400601CC4B2322CECDB0BE73F4880888C
:1008C000B0F57A7F15D1002410E0201D3B4931F8A6
:1008D0001000514921F8140004F13600374931F86D
:1008E00010004E4921F81400601CC4B2322CECDB1D
:1008F000F0E632488088A0F580614C3915D100249B
:1009000010E0201D2D4931F81000454921F8140050
:1009100004F13600294931F81000424921F8140049
:10092000601CC4B2322CECDBD4E624488088B0F5DD
:10093000966F15D1002410E0201D204931F81000D9
:10094000394921F8140004F136001C4931F810002F
:10095000364921F81400601CC4B2322CECDBB9E635
:1009600016488088A0F5A061143965D1002410E0F4
:10097000201D124931F810002D4921F8140004F10E
:1009800036000E4931F810002A4921F81400601C85
:10099000C4B2322CECDB9DE60A000010C4C00F404C
:1009A00000C00F40ACC10F4000800840F0030010B1
:1009B0002104001022040010007701004A040010F6
:1009C000DA060010A0020010840300108803001053
:1009D000F80C0010240E00105C0D0010880E0010A2
:1009E000C00D0010EC0E0010500F00107C10001015
:1009F000B40F0010E0100010181000104411001087
:100A0000A8110010D41200100C120010381300109E
:100A1000701200109C130010001400102C15001010
:100A20006414001090150010C8140010F415001084
:100A30005816001084170010F8488088B0F5AF6F82
:100A400015D1002410E0201DF44931F81000F449BC
:100A500021F8140004F13600F04931F81000F14992
:100A600021F81400601CC4B2322CECDB32E6EB48F7
:100A70008088A0F5A061DC3915D1002410E0201D8C
:100A8000E64931F81000E84921F8140004F1360075
:100A9000E24931F81000E54921F81400601CC4B2A5
:100AA000322CECDB16E6DD488088B0F5FA6F7DD19C
:100AB000002459E0201DD94931F81000DC4921F803
:100AC000140004F10E00D54931F81010D848143044
:100AD00020F8141004F11800D04931F81010D4484F
:100AE000283020F8141004F12200CC4931F81010FD
:100AF000CF483C3020F8141004F12C00C74931F8DD
:100B00001010CB48503020F8141004F13600C349BF
:100B100031F81010C648643020F8141004F1400079
:100B2000BE4931F81010C248783020F8141004F192
:100B30004A00BA4931F81010BD488C3020F8141022
:100B400004F15400B54931F81010B948A03020F82C
:100B5000141004F15E00B14931F81010B448B430FB
:100B600020F81410601CC4B20A2CA3DB00241CE083
:100B700004EB8400AE4901EB8000808800EB80002C
:100B80004FF6FF7101EA40063046FFF707FD00EB24
:100B900080004FF6FF7101EA400004EB8401A44A93
:100BA00002EB81018880601CC4B200E002E00A2CE4
:100BB000DEDB8FE599488088A0F500613439F8D1F3
:100BC000002459E0201D954931F81000994921F879
:100BD000140004F10E00914931F8101095481430BA
:100BE00020F8141004F118008C4931F810109148C5
:100BF000283020F8141004F12200884931F8101030
:100C00008C483C3020F8141004F12C00834931F852
:100C100010108848503020F8141004F136007F4935
:100C200031F810108348643020F8141004F14000AB
:100C30007A4931F810107F48783020F8141004F108
:100C40004A00764931F810107A488C3020F8141098
:100C500004F15400714931F810107648A03020F8A2
:100C6000141004F15E006D4931F810107148B43071
:100C700020F81410601CC4B20A2CA3DB00241CE072
:100C800004EB84006B4901EB8000008A00EB8000DC
:100C90004FF6FF7101EA40063046FFF77FFC00EB9C
:100CA00080004FF6FF7101EA400004EB8401614AC5
:100CB00002EB81010882601CC4B20A2CE0DB002434
:100CC0001CE004EB84005B4901EB8000408A00EBF0
:100CD00080004FF6FF7101EA40063046FFF75EFCE8
:100CE00000EB80004FF6FF7101EA400004EB840145
:100CF000504A02EB81014882601CC4B20A2CE0DB3E
:100D0000E8E446488088A0F51C5110392CD1002415
:100D10000BE0494830F81410201D404A32F810000A
:100D2000814200D00125601CC4B2642CF1DB012D8E
:100D300007D00020414908704149088041490870A6
:100D4000C8E43F480088401C3D49088008460088A8
:100D5000B0F57A7FD4DD0020384908703849088022
:100D6000012038490870B5E42C488088A0F51C5152
:100D7000743917D029488088A0F51C51D83911D072
:100D800026488088A0F520513C390BD02348808824
:100D9000A0F52051A03905D020488088A0F5285121
:100DA000F8396ED11D488088A0F51C5174392CD1BA
:100DB00000240BE0244830F81410201D174A32F8A4
:100DC0001000814200D00125601CC4B2642CF1DB0C
:100DD000012D07D000201D490870194908801949C4
:100DE000087077E416480088401C154908800846BA
:100DF0000088B0F57A7FA3DD0020144908701049FF
:100E0000088001200F49087064E404488088A0F538
:100E10001C51D83949D1002426E000004A040010B2
:100E2000BC160010E8170010201700104C18001016
:100E30005023001018240010A2070010E502001033
:100E40002204001021040010A00A0010E802001083
:100E5000FE4830F81410201DFD4A32F8100081427F
:100E600000D00125601CC4B2642CF1DB012D09D037
:100E70000020F8490870F84908800120F7490870F7
:100E8000C8E3B3E0F4480088401CF34908800846F2
:100E90000088B0F57A7FA4DD0020EE490870EE49A5
:100EA00008800120ED490870B4E3E9488088A0F586
:100EB00020513C392DD1002428E0E94830F81410A5
:100EC000201DE34A32F81000814200D00125012D97
:100ED00008D00020E3490870DF4908800120DF497D
:100EE000087011E0DC480088401CDB490880084697
:100EF0000088B0F57A7F07DD0020DA490870D6490E
:100F000008800120D5490870601CC4B2642CD4DB71
:100F100080E3CF488088A0F52051A0392DD100244E
:100F200028E0D14830F81410201DC94A32F81000CA
:100F3000814200D00125012D08D00020CB49087046
:100F4000C54908800120C549087011E0C2480088E1
:100F5000401CC149088008460088B0F57A7F07DD4B
:100F60000020C2490870BC4908800120BB490870B4
:100F7000601CC4B2642CD4DB4CE3B5488088A0F577
:100F80002851F83990D1B2484089B149098940EADD
:100F90000140B7490968884209D1AD48C089AC49C8
:100FA000898940EA0140B3490968884200D0012597
:100FB000012D08D00020B0490870A7490880012001
:100FC000A649087026E3A4480088401CA24908806E
:100FD00008460088B0F57A7F9ADD0020A64908709F
:100FE0009D49088001209D49087013E39848808836
:100FF000A0F53851E03934D095488088A0F53C51AF
:1010000044392ED092488088A0F53C51A83928D088
:101010008F488088A0F540510C3922D08C488088B8
:10102000A0F5405170391CD089488088A0F5405106
:10103000D43916D086488088A0F54451383910D06C
:1010400083488088A0F544519C390AD08048808824
:10105000B0F5485F05D07E488088A0F548516439D6
:101060008AD17B488088A0F53851E03943D10024EB
:101070003EE082480078012827D1814830F81410DA
:10108000201D734A32F81000814200D00125012D45
:1010900008D00020794908706F49088001206F4905
:1010A000087023E06C480088401C6B4908800846A3
:1010B0000088B0F57A7F19DD002070490870664914
:1010C000088001206549087010E000206D49087013
:1010D000201D5F4931F81000694921F814000846C5
:1010E000B0F8C60010B1012067490870601CC4B296
:1010F000642CBEDB8EE256488088A0F53C51443912
:101100003ED1002439E061480078012828D15C48AC
:10111000C83030F81410201D4D4A32F810008142BA
:1011200000D00125012D08D00020584908704A49F7
:1011300008800120494908701DE047480088401C8C
:101140004549088008460088B0F57A7F13DD002005
:101150004E490870404908800120404908700AE063
:1011600000204B490870201D394931F810104448BF
:10117000C83020F81410601CC4B2642CC3DB49E2F0
:1011800033488088A0F53C51A8393CD1002437E091
:1011900040480078012827D13F4830F81410201D1E
:1011A0002B4A32F81000814200D00125012D08D0D1
:1011B0000020384908702849088001202749087014
:1011C0001CE025480088401C234908800846008808
:1011D000B0F57A7F12DD00202E4908701E49088084
:1011E00001201E49087009E000202C490870201DCC
:1011F000174931F81010284820F81410601CC4B2A8
:10120000642CC5DB06E212488088A0F540510C39F9
:101210006AD1002465E022480078012855D11E4893
:10122000C83030F81410201D094A32F810008142ED
:1012300000D00125012D35D000201949087006493C
:10124000088001200549087049E00000680B001083
:101250004A040010E90200102204001021040010CA
:10126000300C0010EA020010D0080010EB02001051
:101270008403001088030010E7020010EC02001045
:10128000E0240010DA020010A0020010ED020010AD
:10129000DB020010EE02001070260010DC020010CD
:1012A000EF020010F8480088401CF7490880084603
:1012B0000088B0F57A7F12DD0020F4490870F24909
:1012C00008800120F249087009E00020F149087007
:1012D000201DF14931F81010F04820F81410601C5E
:1012E000C4B2642C97DB95E1EB488088A0F54051AF
:1012F00070393ED1002439E0E9480078012828D12E
:10130000E648C83030F81410201DE34A32F81000C7
:10131000814200D00125012D08D00020E04908704D
:10132000D94908800120DA4908701DE0D6480088B4
:10133000401CD549088008460088B0F57A7F13DD47
:101340000020D7490870D04908800120D049087092
:101350000AE00020D3490870201DCF4931F8101051
:10136000CE48C83020F81410601CC4B2642CC3DB13
:1013700050E1C9488088A0F54051D4393CD10024BF
:1013800037E0C9480078012827D1C84830F8141040
:10139000201DC14A32F81000814200D00125012DE4
:1013A00008D00020C0490870B74908800120B8491A
:1013B00008701CE0B4480088401CB3490880084607
:1013C0000088B0F57A7F12DD0020B7490870AE4979
:1013D00008800120AE49087009E00020B449087077
:1013E000201DAD4931F81010B04820F81410601CD1
:1013F000C4B2642CC5DB0DE1A7488088A0F5445138
:1014000038393ED1002439E0AA480078012828D193
:10141000A648C83030F81410201D9F4A32F810003A
:10142000814200D00125012D08D00020A14908707B
:10143000954908800120964908701DE0924800886F
:10144000401C9149088008460088B0F57A7F13DD7A
:101450000020984908708C49088001208C49087048
:101460000AE0002094490870201D8B4931F81010C3
:101470008E48C83020F81410601CC4B2642CC3DB42
:10148000C8E085488088A0F544519C393CD10024AF
:1014900037E08A480078012827D1894830F81410AD
:1014A000201D7D4A32F81000814200D00125012D17
:1014B00008D00020814908707349088001207449D0
:1014C00008701CE070480088401C6F49088008467E
:1014D0000088B0F57A7F12DD0020784908706A49EB
:1014E000088001206A49087009E0002075490870E9
:1014F000201D694931F81010714820F81410601C43
:10150000C4B2642CC5DB85E063488088B0F5485FD1
:101510003ED1002439E06C480078012828D1684881
:10152000C83030F81410201D5B4A32F81000814298
:1015300000D00125012D08D00020634908705249D0
:1015400008800120524908701DE04F480088401C67
:101550004D49088008460088B0F57A7F13DD0020E9
:1015600059490870484908800120494908700AE033
:10157000002056490870201D474931F81010504886
:10158000C83020F81410601CC4B2642CC3DB41E0E6
:1015900041488088A0F5485164393BD1002437E0A8
:1015A0004B480078012827D14A4830F81410201DF4
:1015B000394A32F81000814200D00125012D08D0AF
:1015C00000204349087030490880012030490870E4
:1015D0001CE02D480088401C2B49088008460088E4
:1015E000B0F57A7F12DD002039490870264908805D
:1015F00001202749087009E0002037490870201DA4
:10160000254931F81010334820F81410601CC4B27A
:10161000642CC5DB70BD70B50025002403202F4964
:10162000088000202E494861194908702D4800881B
:1016300038B94FF000702C49C8670120294908804B
:1016400006E04FF00070284988670020254908808F
:1016500008E02348806882B22846691CCDB20E4952
:1016600021F810201E48C06810F0040FF1D10A487C
:101670000088A0F52A41CC395CD10748C08864288D
:1016800058D1002443E0000022040010EF020010B3
:1016900021040010DD0200104A0400103827001059
:1016A000F0020010DE020010F1020010C828001045
:1016B000DF020010F2020010E0020010F30200103E
:1016C000582A0010E1020010F4020010E20200109B
:1016D000F5020010E82B0010E3020010A802001031
:1016E000008008400800001000C00920FE4931F8C1
:1016F0001400FEF7A5FF29466A1CD5B2FB4A22F862
:101700001100FB480078012800D102E0641C6C2C19
:10171000ECD300BF6421F5480830FEF721FFF34900
:10172000B1F8D010884217D1FEF7A3FF0120F1498C
:10173000087011E04FF416540CE0EF48C06810F048
:10174000040F02D1641E2CB905E0EB48806886B214
:101750004FF41654F1E700BF0420E7494861E74918
:10176000088070BD30B50025E548007870B90120CB
:10177000E4490870E4490870E4490870E4490870D5
:10178000E4490870E4490870DD490870DD480078D4
:10179000012815D10125002408E0E04830F8141094
:1017A000D14AE01C22F81010601CC4B2642CF4DB97
:1017B0000020DB4908704FF48050DA49C865BFE269
:1017C000D1480078012814D10225002408E0D64829
:1017D00030F81410C44AE01C22F81010601CC4B287
:1017E000642CF4DB0120CE4908700003CD49C865A4
:1017F000A6E2C6480078012814D10325002408E099
:10180000CA4830F81410B84AE01C22F81010601CC6
:10181000C4B2642CF4DB0220C1490870C002C14983
:10182000C8658DE2BA480078012815D10425002446
:1018300008E0BF4830F81410AB4AE01C22F8101042
:10184000601CC4B2642CF4DB0320B54908704FF46B
:101850008050B449C86573E2AF480078012814D1BC
:101860000525002408E0B34830F814109E4AE01C17
:1018700022F81010601CC4B2642CF4DB0420A849C8
:1018800008708002A749C8655AE2A248007801287A
:1018900022D10625A8480068000C9349C880A648B4
:1018A00000880881A5480068000C4881A34800888A
:1018B0008881042406E00021E01C8B4A22F81010E5
:1018C000601CC4B2642CF6DB0520954908704FF407
:1018D00080509449C86533E299480078012815D1B1
:1018E0000725002408E0974830F81410E01C7E4AD1
:1018F00022F81010601CC4B2642CF4DB0620884966
:1019000008704FF480508749C86519E28E48007806
:10191000012810D10025002407E04FF6FF71E01CDC
:10192000714A22F81010601CC4B2642CF5DB06204A
:101930007B49087004E285480078012816D1082503
:10194000002409E07F48C83030F81410E01C664AD3
:1019500022F81010601CC4B2642CF3DB072070491D
:1019600008704FF480506F49C865E9E17848007805
:10197000012810D10025002407E04FF6FF71E01C7C
:10198000594A22F81010601CC4B2642CF5DB072001
:1019900063490870D4E16F480078012814D1092503
:1019A000002408E06C4830F81410E01C4E4A22F87D
:1019B0001010601CC4B2642CF4DB08205849087075
:1019C00040025849C865BBE164480078012810D13D
:1019D0000025002407E04FF6FF71E01C424A22F880
:1019E0001010601CC4B2642CF5DB08204C49087050
:1019F000A6E15B480078012816D10A25002409E0F9
:101A00005548C83030F81410E01C374A22F810103E
:101A1000601CC4B2642CF3DB0920414908704FF408
:101A200080504049C8658BE14E480078012810D1AC
:101A30000025002407E04FF6FF71E01C2A4A22F837
:101A40001010601CC4B2642CF5DB09203449087006
:101A500076E145480078012815D10B25002408E0DF
:101A6000424830F81410E01C1F4A22F81010601C85
:101A7000C4B2642CF4DB0A20294908704FF480506A
:101A80002849C8655CE13A480078012810D1002552
:101A9000002407E04FF6FF71E01C134A22F81010F3
:101AA000601CC4B2642CF5DB0A201D49087047E1B4
:101AB0003048007801285FD10C25002409E02B482C
:101AC000C83030F81410E01C074A22F81010601CCF
:101AD000C4B2642CF3DB0B20114908704FF4805022
:101AE0001049C8652CE147E03A0500104A0400108F
:101AF00021040010F003001000800840A80200102C
:101B00004C020010E5020010E8020010E90200108B
:101B1000EA020010E7020010EB020010A20700101A
:101B20002004001000C00920A00A0010680B00105B
:101B3000300C0010D008001084030010880300103F
:101B4000EC020010E0240010DA020010ED02001098
:101B5000DB020010EE02001070260010DC02001004
:101B6000EF020010DD020010F0020010002800104B
:101B7000DE020010F1020010FE480078012810D1AA
:101B80000025002407E04FF6FF71E01CFA4A22F816
:101B90001010601CC4B2642CF5DB0B20F7490870F0
:101BA000CEE0F7480078012815D10D25002408E083
:101BB000F44830F81410E01CEF4A22F81010601CB2
:101BC000C4B2642CF4DB0C20EC4908704FF4805054
:101BD000ED49C865B4E0ED480078012810D1002532
:101BE000002407E04FF6FF71E01CE34A22F81010D2
:101BF000601CC4B2642CF5DB0C20E04908709FE047
:101C0000E3480078012816D10E25002409E0DD48BC
:101C1000C83030F81410E01CD74A22F81010601CAD
:101C2000C4B2642CF3DB0D20D44908704FF480500B
:101C3000D549C86584E0D7480078012810D100252F
:101C4000002407E04FF6FF71E01CCB4A22F8101089
:101C5000601CC4B2642CF5DB0D20C84908706FE02D
:101C6000CD480078012815D10F25002408E0CB4885
:101C700030F81410E01CC04A22F81010601CC4B2E6
:101C8000642CF4DB0E20BD4908704FF48050BE492F
:101C9000C86555E0C2480078012810D1002500240D
:101CA00007E04FF6FF71E01CB34A22F81010601CE9
:101CB000C4B2642CF5DB0E20B049087040E0B9488E
:101CC0000078012816D11025002409E0B348C83057
:101CD00030F81410E01CA84A22F81010601CC4B29E
:101CE000642CF3DB0F20A54908704FF48050A649FF
:101CF000C86525E0AC480078012810D100250024F3
:101D000007E04FF6FF71E01C9B4A22F81010601CA0
:101D1000C4B2642CF5DB0F209849087010E0002550
:101D20004FF4805098498865002407E04FF6FF7112
:101D3000E01C914A22F81010601CC4B2642CF5DB40
:101D400064218D48801DFEF70BFC8B49A1F8CE0065
:101D5000284630BD70B504460D46322093490860D0
:101D60000846446085609249924A904790480068CE
:101D700070BD70B504460D4634208C490860084695
:101D8000446085608C48C86089498848894A904782
:101D90008748006870BD70B504460D46164633206E
:101DA00082490860084644608560C66082480861D0
:101DB0007F497E487F4A90477D48006870BD70B576
:101DC00004460D46164638207849086008464460A7
:101DD0008560C6607649774A90477548006870BD4F
:101DE0000CB50020009001900CE07448007D10F0CC
:101DF000010F03D071480078009000E005E00198E1
:101E0000401C019001980828EFD300BF0CBD0CB511
:101E10000020009001900CE06948007D10F0010F57
:101E200003D067480078009000E005E00198401C6E
:101E3000019001980828EFD300BF0CBD2DE9F05F99
:101E40006048006840F010005F49C1F8C4004FF0DE
:101E500083005B4908735D48008830B101280AD0CF
:101E600002280ED0032818D111E04FF4165A012091
:101E70005749087017E04FF4964A022054490870F9
:101E800011E04FF4614A0120514908700BE04FF412
:101E9000E13A01204E49087005E04FF4165A04203B
:101EA0004B49087000BF00BF50461FF005FE80463A
:101EB00089460022474B484903C91FF031FC0646BA
:101EC00042464B461FF02CFC04461FF0B1FD1FFAA2
:101ED00080FB58464FEAEB710BEB1161090A384A57
:101EE0001171114681F800B0032008738720087231
:101EF0000120486006201EF029FFFFF788FF4FF4FD
:101F000000002149C861BDE8F09F2DE9F0412D484E
:101F1000006840F008002C49C1F8C4004FF00000F0
:101F2000264948604FF0830008734FF00002294BA8
:101F3000294903C91FF0F4FB05460022274B1FF077
:101F4000EFFB07461FF074FD84B22046E11704EB57
:101F50001161090A194A117111460C7003200873A6
:101F60000720087205201EF0F1FE01201349486089
:101F700036E00000DF0200103A05001020040010D7
:101F8000F20200109029001000C00920E0020010A9
:101F9000F3020010E1020010F4020010202B0010E8
:101FA000E2020010F5020010E3020010D82C00102D
:101FB000F82C0010F11FFF1F0077010000C0004047
:101FC00000000140C4C00F4000C00F40A402001038
:101FD0002603001000003040E80300100020FC4001
:101FE000FFF7FEFE0220FE498863BDE8F081002174
:101FF00008E0FC4A127D12F0010F02D0FA49F94ABA
:102000001078491CB1F5FA7FF3D37047F54B18707F
:10201000002106E0F34A127D12F0400F00D0F34990
:10202000491CF34A9142F5D37047002108E0F14A78
:10203000127D12F0010F02D0EE4A1078EA49491CD5
:10204000B1F5FA7FF3D37047EA4B1870002106E030
:10205000E84A127D12F0400F00D0E449491CE44ADE
:102060009142F5D3704730B502464FF6FF7014E049
:10207000FF2900D915E012F8014B604000230AE067
:1020800010F0010F04D04AF2010484EA600000E07D
:1020900040105C1CE3B2082BF2DB0C00A1F1010143
:1020A000E6D100BF30BD70B504462C25D24EB561D7
:1020B00060253560002000E0401C42F21075A84207
:1020C000FAD3CD4DAC602825CB4EB561002000E0A1
:1020D000401C42F21075A842FAD3C1F30725C64E40
:1020E000B5602825B561002000E0401C42F2107563
:1020F000A842FAD3CDB2C04EB5602825B561002004
:1021000000E0401C42F21075A842FAD30DE012F82C
:10211000015BB94EB5602825B561002000E0401C88
:1021200042F21075A842FAD35B1E002BEFD11025A6
:10213000B14E35602825B561002000E0401C42F218
:102140001075A842FAD370BD2DE9F84F80460E46AF
:1021500017460020A3494860A6494860A74948613E
:10216000082F39D9C7F3CF00009007F0070A0024E1
:1021700016E0B14609EBC4091FFA88FB0BEBC4005B
:102180001FFA80FB08234A465946A020FFF78BFF21
:102190004FF4002500E06D1E002DFCD1601C84B2C0
:1021A00000988442E5DBBAF1000F21DDB14609EB6E
:1021B000C4091FFA88FB0BEBC4001FFA80FB5346CF
:1021C0004A465946A020FFF76EFF4FF4002500E075
:1021D0006D1E002DFCD10BE03B4632464146A0204F
:1021E000FFF761FF4FF4002500E06D1E002DFCD1CC
:1021F00001207C4948607F49486004207F4948614C
:10220000BDE8F88F01467E4830F811007D4A108005
:1022100010460088704770B505460C462846FFF703
:10222000F1FF794908800988091B08B2FEF751F8C7
:10223000764908800846008870BD2DE9F043A7B0B4
:102240000546002401222146641C01A842540322B1
:102250002146641C425407222146641C42548222B7
:102260002146641C425400222146641C425413221D
:102270002146641C42542A122146641C42542046C2
:10228000611CCCB201A90D5401AEE11EF01CFFF798
:10229000EAFE81462046611CCCB201A901F80090FB
:1022A0004FEA29222046611CCCB201A90A5400BF82
:1022B00002204B49C863A04608E037783846FFF74C
:1022C000A5FE761CA8F101001FFA80F8B8F1000FF6
:1022D000F3DC0220424988630120FFF793FF4C4959
:1022E000088007E04A4801880120FFF794FF04288E
:1022F00000DD00E0F6E700BF27B0BDE8F08300B5E1
:10230000B2B04448008800128DF8000041480078BF
:102310008DF801004048008800128DF802003E4808
:1023200000788DF803003D48007800128DF8040015
:102330003A4800788DF805003948008800128DF879
:102340000600374800788DF80700364800880012EC
:102350008DF80800334800788DF80900314840882E
:1023600000128DF80A002F4880788DF80B002D4858
:10237000808800128DF80C002A4800798DF80D0035
:102380002848C08800128DF80E00264880798DF804
:102390000F002448008900128DF810002148007AAF
:1023A0008DF811002048008800128DF812001E4898
:1023B00000788DF813001C48408800128DF8140036
:1023C000194880788DF815001748808800128DF81C
:1023D0001600154800798DF817001348C08825E0CD
:1023E00000C0092000C00040C0270900808D5B00AC
:1023F000404B4C000000014000C0054000800840F8
:10240000C40300105A0200105C0200105E020010AB
:1024100058020010A2020010A4020010E0030010F5
:10242000A60200106C5600107656001000128DF8AF
:102430001800FE4880798DF81900FC4800890012C8
:102440008DF81A00F948007A8DF81B00F8480088CA
:1024500000128DF81C00F64800788DF81D00F44835
:10246000408800128DF81E00F14880788DF81F001A
:10247000EF48808800128DF82000ED4800798DF833
:102480002100EB48C08800128DF82200E8488079CE
:102490008DF82300E648008900128DF82400E448F6
:1024A000007A8DF82500E348008800128DF8260098
:1024B000E04800788DF82700DE48408800128DF84B
:1024C0002800DC4880788DF82900DA4880880012DE
:1024D0008DF82A00D74800798DF82B00D548C088A0
:1024E00000128DF82C00D34880798DF82D00D1484A
:1024F000008900128DF82E00CE48007A8DF82F004A
:10250000CD48008800128DF83000CB4800788DF857
:102510003100CA48008800128DF83200C7480078A0
:102520008DF83300C548408800128DF83400C34848
:1025300080788DF83500C148808800128DF836000B
:10254000BE4800798DF83700BC48C08800128DF86D
:102550003800BA4880798DF83900B84800890012EF
:102560008DF83A00B548007A8DF83B00B3484089B1
:1025700000128DF83C00B148807A8DF83D00AF48DC
:10258000808900128DF83E00AC48007B8DF83F003A
:10259000AA48C08900128DF84000A848807B8DF8B9
:1025A0004100A648008A00128DF84200A348007C32
:1025B0008DF84300A148408A00128DF844009F48DE
:1025C000807C8DF845009E480068000E8DF846001E
:1025D0009B480068000C8DF8470099480088000A65
:1025E0008DF84800964800788DF849009548008895
:1025F00000128DF84A00934800788DF84B009248FD
:10260000008800128DF84C008F4800788DF84D003E
:102610008E48008800128DF84E008C4800788DF8A6
:102620004F008B48008800128DF8500088480078D1
:102630008DF851008748008800128DF852008548B7
:1026400000788DF853008448008800128DF85400FB
:10265000814800788DF855008048008800128DF878
:1026600056007E4800788DF857007D48008800129B
:102670008DF858007A4800788DF85900794800881C
:1026800000128DF85A00774800788DF85B00764884
:10269000008800128DF85C00734800788DF85D00AA
:1026A0007248008800128DF85E00704800788DF83E
:1026B0005F006F48008800128DF860006C48007859
:1026C0008DF861006848408800128DF86200664805
:1026D00080788DF863006548408800128DF86400AA
:1026E000624880788DF865006148408800128DF856
:1026F00066005F4880788DF867005B48808800122C
:102700008DF86800584800798DF86900574880882E
:1027100000128DF86A00554800798DF86B00544816
:10272000808800128DF86C00514800798DF86D009A
:102730004D48C08800128DF86E004B4880798DF8A6
:102740006F004A48C08800128DF8700047488079B1
:102750008DF871004648C08800128DF87200444818
:1027600080798DF873004048008900128DF874005C
:102770003D48007A8DF875003C48008900128DF8BC
:1027800076003A48007A8DF87700394800890012BF
:102790008DF878003648007A8DF879003248408903
:1027A00000128DF87A003048807A8DF87B002F482F
:1027B000408900128DF87C002C48807A8DF87D00CD
:1027C0002B48408900128DF87E002948807A8DF8C8
:1027D0007F002548808900128DF880002248007B08
:1027E0008DF881002148808900128DF882001F48F1
:1027F000007B8DF883001E48808900128DF88400CC
:102800001B48007B8DF885001748C08900128DF8A1
:1028100086001548807B8DF887001448C089001217
:102820008DF888001148807B24E000007656001067
:10283000805600108A560010E0010010C42C0010D1
:10284000F4030010F8030010FA030010FC0300105A
:10285000FE03001000040010020400100404001025
:102860000604001008040010826B0010946B001026
:10287000A66B00108DF88900FE48C08900128DF803
:102880008A00FC48807B8DF88B00FB48C0890012D1
:102890008DF88C00F848807B8DF88D00F748C08952
:1028A00000128DF88E00F548807B8DF88F00F1487E
:1028B000C08900128DF89000EE48807B8DF8910061
:1028C0004FF40010EE49C861922269464FF44870F7
:1028D000FFF73AFC4FF40010E949886132B000BDBF
:1028E0000121E84AA2F8C61000200DE0E24931F8C3
:1028F0001010012906D1E349B1F8C610491CE14A7C
:10290000A2F8C610411CC8B20928EFDBDD49B1F8B6
:10291000C6100A2903DD0A21DA4AA2F8C610D649F0
:102920000988022954D1D549098829B90021D64AF4
:102930009182D1821183B9E0D049098801290DD152
:10294000CC49098801EB81014FF6FF7202EA41018F
:10295000CD4A91820021D1821183A7E0C74909881D
:10296000022916D1C349098801EB81014FF6FF7294
:1029700002EA4101C44A9182BE49098801EB810102
:102980004FF6FF7202EA4101BF4AD1820021118352
:102990008CE0B849098801EB81014FF6FF7202EA29
:1029A0004101B94A9182B349098801EB81014FF68F
:1029B000FF7202EA4101B44AD182AE49098801EBB3
:1029C00081014FF6FF7202EA4101AF4A11836DE0C7
:1029D000A949098803291ED1A649098801EB81016B
:1029E00042F2107202EB4101A74A9182A149098883
:1029F00001EB810144F6206202EB4101A24AD1823F
:102A00009C49098801EB810147F2305202EB4101F8
:102A10009D4A11834AE09849098804291ED19549A5
:102A2000098801EB810149F6404202EB4101964AD7
:102A300091829049098801EB810149F6404202EBFD
:102A40004101914AD1828B49098801EB810149F604
:102A5000404202EB41018C4A118327E086490988F4
:102A600005291ED18349098801EB81014CF25032BE
:102A700002EB4101844A91827E49098801EB810180
:102A80004CF2503202EB41017F4AD18279490988E8
:102A900001EB81014CF2503202EB41017A4A118381
:102AA00004E00021784A9182D182118372494988D9
:102AB000022954D17149498829B90021724A5183A8
:102AC0009183D183B9E06D49498801290DD16949C4
:102AD000498801EB81014FF6FF7202EA41016A4A1F
:102AE000518300219183D183A7E064494988022959
:102AF00016D16049498801EB81014FF6FF7202EA65
:102B00004101614A51835B49498801EB81014FF6DC
:102B1000FF7202EA41015C4A91830021D1838CE07B
:102B20005449498801EB81014FF6FF7202EA4101E5
:102B3000554A51834F49498801EB81014FF6FF7295
:102B400002EA4101504A91834A49498801EB8101D7
:102B50004FF6FF7202EA41014B4AD1836DE04649CC
:102B6000498803291ED14349498801EB810142F27A
:102B7000107202EB4101444A51833E49498801EBFE
:102B8000810144F6206202EB41013F4A91833949B9
:102B9000498801EB810147F2305202EB41013A4A88
:102BA000D1834AE03449498804291ED131494988F2
:102BB00001EB810149F6404202EB4101324A518367
:102BC0002C49498801EB810149F6404202EB410161
:102BD0002D4A91832749498801EB810149F64042FA
:102BE00002EB4101284AD18327E02349498805297E
:102BF0001ED12049498801EB81014CF2503202EB91
:102C00004101214A51831B49498801EB81014CF262
:102C1000503202EB41011C4A91831649498801EB6D
:102C200081014CF2503202EB4101174AD18304E09A
:102C30000021154A51839183D1830F498988022944
:102C400061D10E49898829B900210F4A1184518424
:102C50009184C6E00949898801291AD105498988E2
:102C600001EB81014FF6FF7202EA4101064A11842D
:102C700000210BE0A66B0010826B0010946B00101B
:102C800000C00920A2070010D008001051849184D0
:102C9000A7E0FE498988022916D1FD49898801EB00
:102CA00081014FF6FF7202EA4101FA4A1184F849A4
:102CB000898801EB81014FF6FF7202EA4101F54A72
:102CC0005184002191848CE0F149898801EB8101D4
:102CD0004FF6FF7202EA4101EE4A1184EC498988FD
:102CE00001EB81014FF6FF7202EA4101E94A51848A
:102CF000E749898801EB81014FF6FF7202EA410141
:102D0000E44A91846DE0E449898803291ED1E049B1
:102D1000898801EB810142F2107202EB4101DD4A28
:102D20001184DB49898801EB810144F6206202EBC2
:102D30004101D84A5184D649898801EB810147F283
:102D4000305202EB4101D34A91844AE0D24989884A
:102D500004291ED1CE49898801EB810149F6404200
:102D600002EB4101CB4A1184C949898801EB8101F9
:102D700049F6404202EB4101C64A5184C449898860
:102D800001EB810149F6404202EB4101C14A9184C5
:102D900027E0C149898805291ED1BD49898801EBF1
:102DA00081014CF2503202EB4101BA4A1184B84918
:102DB000898801EB81014CF2503202EB4101B54AA6
:102DC0005184B349898801EB81014CF2503202EB06
:102DD0004101B04A918404E00021AE4A118451843B
:102DE0009184AD49C988022954D1A849C98829B913
:102DF0000021A84AD18411855185B9E0A349C98829
:102E000001290DD1A249C98801EB81014FF6FF725A
:102E100002EA41019F4AD184002111855185A7E032
:102E20009A49C988022916D19949C98801EB8101BB
:102E30004FF6FF7202EA4101964AD1849449C9884B
:102E400001EB81014FF6FF7202EA4101914A1185BF
:102E5000002151858CE08E49C98801EB81014FF634
:102E6000FF7202EA41018B4AD1848949C98801EB8A
:102E700081014FF6FF7202EA4101864A11858449B9
:102E8000C98801EB81014FF6FF7202EA4101814AD4
:102E900051856DE08049C98803291ED17C49C988C4
:102EA00001EB810142F2107202EB4101794AD184B7
:102EB0007749C98801EB810144F6206202EB4101A8
:102EC000744A11857249C98801EB810147F2305279
:102ED00002EB41016F4A51854AE06F49C9880429D4
:102EE0001ED16B49C98801EB810149F6404202EBD2
:102EF0004101684AD1846649C98801EB810149F6DC
:102F0000404202EB4101634A11856149C98801EBE6
:102F1000810149F6404202EB41015E4A518527E0BA
:102F20005D49C98805291ED15949C98801EB81012C
:102F30004CF2503202EB4101564AD1845449C988BF
:102F400001EB81014CF2503202EB4101514A1185F3
:102F50004F49C98801EB81014CF2503202EB41012B
:102F60004C4A518504E000214A4AD184118551859B
:102F700049490989022954D14449098929B90021BB
:102F8000444A9185D1851186C3E0404909890129C8
:102F90000DD13F49098901EB81014FF6FF7202EA29
:102FA00041013C4A91850021D1851186B1E0374924
:102FB0000989022916D13649098901EB81014FF6A9
:102FC000FF7202EA4101334A91853149098901EBD7
:102FD00081014FF6FF7202EA41012E4AD18500219C
:102FE000118696E02A49098901EB81014FF6FF72AB
:102FF00002EA4101274A91852549098901EB8101AE
:103000004FF6FF7202EA4101224AD185204909891F
:1030100001EB81014FF6FF7202EA41011D4A118660
:1030200077E01D49098903291ED11949098901EB56
:10303000810142F2107202EB4101164A9185144956
:10304000098901EB810144F6206202EB4101114A3A
:10305000D1850F49098901EB810147F2305202EB1A
:1030600041010C4A118654E00B490989042928D1F1
:103070000749098901EB810149F6404202EB410110
:10308000044A91850249098908E00000946B001008
:10309000A66B0010D0080010826B001001EB8101BC
:1030A00049F6404202EB4101FE4AD185FE490989B9
:1030B00001EB810149F6404202EB4101F94A1186D8
:1030C00027E0FA49098905291ED1F749098901EB49
:1030D00081014CF2503202EB4101F24A9185F249F2
:1030E000098901EB81014CF2503202EB4101ED4ABA
:1030F000D185ED49098901EB81014CF2503202EB97
:103100004101E84A118604E00021E64A9185D18513
:103110001186E6494989022954D1E549498929B9E5
:103120000021E04A51869186D186B9E0E04949897B
:1031300001290DD1DC49498901EB81014FF6FF726C
:1031400002EA4101D74A518600219186D186A7E043
:10315000D7494989022916D1D349498901EB81010F
:103160004FF6FF7202EA4101CE4A5186CE494989A3
:1031700001EB81014FF6FF7202EA4101C94A9186D3
:103180000021D1868CE0C849498901EB81014FF6C5
:10319000FF7202EA4101C34A5186C349498901EBE2
:1031A00081014FF6FF7202EA4101BE4A9186BE4993
:1031B000498901EB81014FF6FF7202EA4101B94AE8
:1031C000D1866DE0B949498903291ED1B64949899B
:1031D00001EB810142F2107202EB4101B14A5186CA
:1031E000B149498901EB810144F6206202EB4101BA
:1031F000AC4A9186AC49498901EB810147F23052D2
:1032000002EB4101A74AD1864AE0A849498904292D
:103210001ED1A549498901EB810149F6404202EBE3
:103220004101A04A5186A049498901EB810149F633
:10323000404202EB41019B4A91869B49498901EB3F
:10324000810149F6404202EB4101964AD18627E0CE
:103250009649498905291ED19349498901EB810184
:103260004CF2503202EB41018E4A51868E49498917
:1032700001EB81014CF2503202EB4101894A918607
:103280008949498901EB81014CF2503202EB41013D
:10329000844AD18604E00021824A51869186D186F3
:1032A00082498989022954D18149898929B9002112
:1032B0007C4A118751879187B9E07D498989012925
:1032C0000DD17949898901EB81014FF6FF7202EA3C
:1032D0004101744A1187002151879187A7E0744901
:1032E0008989022916D17049898901EB81014FF63C
:1032F000FF7202EA41016B4A11876B49898901EB30
:1033000081014FF6FF7202EA4101664A51870021AE
:1033100091878CE06449898901EB81014FF6FF7246
:1033200002EA41015F4A11875F49898901EB810106
:103330004FF6FF7202EA41015A4A51875A49898978
:1033400001EB81014FF6FF7202EA4101554A918774
:103350006DE05649898903291ED15349898901EBBA
:10336000810142F2107202EB41014E4A11874E492F
:10337000898901EB810144F6206202EB4101494A4F
:1033800051874949898901EB810147F2305202EBAB
:103390004101444A91874AE04449898904291ED160
:1033A0004149898901EB810149F6404202EB410123
:1033B0003C4A11873C49898901EB810149F6404229
:1033C00002EB4101374A51873749898901EB810175
:1033D00049F6404202EB4101324A918727E03349E6
:1033E000898905291ED13049898901EB81014CF277
:1033F000503202EB41012B4A11872B49898901EB9D
:1034000081014CF2503202EB4101264A5187264994
:10341000898901EB81014CF2503202EB4101214AD2
:10342000918704E000211F4A1187518791871F4926
:10343000C989022965D11E49C98939B90021194AAA
:10344000D187A2F84010A2F84210D0E01849C989EB
:1034500001290FD11449C98901EB81014FF6FF728F
:1034600002EA41010F4AD1870021A2F84010A2F8D8
:103470004210BCE00E49C989022921D10A49C989F3
:1034800001EB81014FF6FF7202EA4101054AD18743
:103490000549C98901EB81014FF6FF7202EA41013A
:1034A000004A07E0D0080010A66B0010826B0010E5
:1034B000946B0010A2F840100021A2F8421096E090
:1034C000F749C98901EB81014FF6FF7202EA410118
:1034D000F44AD187F249C98901EB81014FF6FF72A5
:1034E00002EA4101EF4AA2F84010ED49C98901EB17
:1034F00081014FF6FF7202EA4101EA4AA2F8421046
:1035000075E0E949C989032920D1E549C98901EB59
:10351000810142F2107202EB4101E24AD187E04997
:10352000C98901EB810144F6206202EB4101DD4AC9
:10353000A2F84010DA49C98901EB810147F2305203
:1035400002EB4101D74AA2F8421050E0D649C9899E
:10355000042920D1D249C98901EB810149F64042B1
:1035600002EB4101CF4AD187CD49C98901EB8101E5
:1035700049F6404202EB4101CA4AA2F84010C8494C
:10358000C98901EB810149F6404202EB4101C54A7C
:10359000A2F842102BE0C449C989052920D1C049AD
:1035A000C98901EB81014CF2503202EB4101BD4A65
:1035B000D187BB49C98901EB81014CF2503202EB42
:1035C0004101B84AA2F84010B549C98901EB81010F
:1035D0004CF2503202EB4101B24AA2F8421006E02E
:1035E0000021B04AD187A2F84010A2F84210AE499B
:1035F000098A022960D1AD49098A41B90021A94A45
:10360000A2F84410A2F84610A2F84810CEE0A7494C
:10361000098A012910D1A249098A01EB81014FF6DB
:10362000FF7202EA41019F4AA2F844100021A2F869
:103630004610A2F84810B9E09C49098A022919D11C
:103640009749098A01EB81014FF6FF7202EA4101B5
:10365000944AA2F844109249098A01EB81014FF67D
:10366000FF7202EA41018F4AA2F846100021A2F837
:1036700048109BE08A49098A01EB81014FF6FF72ED
:1036800002EA4101874AA2F844108549098A01EB00
:1036900081014FF6FF7202EA4101824AA2F8461008
:1036A0007F49098A01EB81014FF6FF7202EA41016D
:1036B0007C4AA2F8481079E07B49098A032921D184
:1036C0007749098A01EB810142F2107202EB410154
:1036D000744AA2F844107249098A01EB810144F648
:1036E000206202EB41016F4AA2F846106C49098A38
:1036F00001EB810147F2305202EB4101694AA2F825
:10370000481053E06849098A042921D16449098A8B
:1037100001EB810149F6404202EB4101614AA2F806
:1037200044105F49098A01EB810149F6404202EBEE
:1037300041015C4AA2F846105949098A01EB81010E
:1037400049F6404202EB4101564AA2F848102DE0EA
:103750005549098A052921D15149098A01EB81017D
:103760004CF2503202EB41014E4AA2F844104C494F
:10377000098A01EB81014CF2503202EB4101494AC6
:10378000A2F846104649098A01EB81014CF25032F9
:1037900002EB4101434AA2F8481007E00021414AE8
:1037A000A2F84410A2F84610A2F84810704740480A
:1037B000007A40F001003E4908720120087070470D
:1037C0000FB43C49009808703949019881F82400E9
:1037D0003949029808703649039881F82C000698F8
:1037E00081F8300007988886049881F83800059899
:1037F000888704B070473148006840F40070304951
:10380000C1F8C4002F48007810F0100F06D02D48E2
:10381000007840F01000264981F85C004FF000006D
:10382000234908740873087270472148007A20F011
:1038300001001F49087270472DE9F04FADF6FC1DDD
:1038400000210991002488460891079104911E489F
:103850004178CDF8F0198178CDF8F819C178CDF814
:10386000F419DDF8F419DDF8F80941EA0025DDF86E
:10387000F009102801F08D8607DC032826D00428E3
:1038800078D0062844F01C84BEE0672804F05680F7
:10389000682804F09B806A28F4D103F0F3BC000090
:1038A000A66B0010D0080010826B0010946B001003
:1038B000004002402040024028400240C4C00F4067
:1038C00000C00F405C4002402C2F0010B5F5805F17
:1038D0004CDB41F22D70854248DCFE484079FD49C1
:1038E000097940EA0129B9F5EB6F3CDC05EB0900E9
:1038F00041F25871884236DC4FF6FF7000EA490900
:10390000A5F5805085B24FF0000818E005EB0800DF
:10391000F14931F810000112E01C0DF5C16211549B
:10392000601C84B205EB0800EB4911F81010E01C94
:103930001154601C84B208F101001FFA80F8C845D8
:10394000E4DBE64801788DF80816DDF8F0198DF80B
:10395000091609F0FF018DF80A169DF80A06C01C29
:10396000099005E006E00220049001E003200490A5
:1039700004F0A9BBB5F51A6F43DCD6484079D549A8
:10398000097940EA0129B9F51A6F37DC05EB09001E
:10399000B0F51A6F32DC4FF6FF7000EA49094FF0BC
:1039A000000818E005EB0800CD4931F810000112BD
:1039B000E01C0DF5C1621154601C84B205EB0800D7
:1039C000C74911F81010E01C1154601C84B208F1B2
:1039D00001001FFA80F8C845E4DBC04801788DF883
:1039E0000816DDF8F0198DF8091609F0FF018DF8B9
:1039F0000A1609F1030081B2099104E00220049043
:103A000001E003200490B3E7B5F5805FC1F20183C4
:103A100041F2AC00854281F2FC82AE4890F804A0ED
:103A200090F805B04BEA0A26B5F5805F17D1A6F5E8
:103A30002A40AA3806D10120AA490880AA4908705C
:103A400001F083BDA6F5AA40553805D1A5490880E7
:103A50000120A5490870F3E704200490F0E741F243
:103A60000100854205D0A5F58050023801D0401EE6
:103A700002D104200490E3E7A5F58050043815D165
:103A8000FFF7D3FEFFF7B7FE984846610146D1E93C
:103A900005030A69C969CDE90231CDE900209348DF
:103AA0000FC8FFF78DFEFFF782FEC9E7A5F580502E
:103AB000053818D1FFF7B9FEFFF79DFE8B48C0F817
:103AC00010A0C0F80CB00346D3E90412D3E90603F2
:103AD000CDE90203CDE9001284480FC8FFF770FE5C
:103AE000FFF765FEACE7A5F58050063814D1FFF767
:103AF0009CFEFFF780FE7D48C0F808A0C0F804B027
:103B0000034610330FCB8DE80F0078480FC8FFF73E
:103B100057FEFFF74CFE93E7A5F58050073811D10B
:103B2000FFF783FEFFF767FE704806600346103319
:103B30000FCB8DE80F006D480FC8FFF741FEFFF770
:103B400036FE7DE7A5F58050083838D168480680F4
:103B50000120684908706849087068490870684918
:103B60000870684908704FF00008002416E06048AB
:103B700030F8140001124046421C1FFA82F80DF280
:103B80003C5211545A4810F814104046421C1FFA77
:103B900082F80DF23C521154601C84B2642CE6DBB6
:103BA0004FF400105849C861C8220DF23C51002062
:103BB000FEF7CAFA4FF400105349886140E7A5F5B3
:103BC0008050093838D14A48468001204949087058
:103BD00049490870494908704949087049490870BD
:103BE0004FF00008002416E0414830F8140001129C
:103BF0004046421C1FFA82F80DF23C5211543C48D8
:103C000010F814104046421C1FFA82F80DF23C5284
:103C10001154601C84B2642CE6DB4FF400103A4966
:103C2000C861C8220DF23C510020FEF78DFA4FF416
:103C300000103549886103E7A5F580500A3838D16E
:103C40002B48868001202B4908702B4908702B498E
:103C500008702B4908702B4908704FF000080024A9
:103C600016E0234830F8140001124046421C1FFAA7
:103C700082F80DF23C5211541D4810F814104046C1
:103C8000421C1FFA82F80DF23C521154601C84B29F
:103C9000642CE6DB4FF400101B49C861C8220DF20A
:103CA0003C510020FEF750FA4FF40010164988618D
:103CB000C6E6A5F580500B3855D10D48C6800120C9
:103CC0000C4908700C4908700C4908700C490870C0
:103CD0000C491BE02C2F0010E4440010A20200103D
:103CE000843100104003001010030010945600109F
:103CF000A2070010E5020010E8020010E90200101F
:103D0000EA020010EB02001000C0092008704FF01A
:103D10000008002416E0FE4830F814000112404666
:103D2000421C1FFA82F80DF23C521154F84810F868
:103D300014104046421C1FFA82F80DF23C521154F6
:103D4000601C84B2642CE6DB4FF40010F149C861BA
:103D5000C8220DF23C510020FEF7F6F94FF4001096
:103D6000EC4988616CE6A5F580500C3838D1E848FC
:103D700006810120E8490870E8490870E8490870A0
:103D8000E8490870E84908704FF00008002416E080
:103D9000DF4830F8140001124046421C1FFA82F836
:103DA0000DF23C521154DA4810F814104046421CEF
:103DB0001FFA82F80DF23C521154601C84B2642C3C
:103DC000E6DB4FF40010D349C861C8220DF23C5124
:103DD0000020FEF7B9F94FF40010CE4988612FE6B4
:103DE000A5F580500D3838D1C94846810120CA490F
:103DF0000870CA490870CA490870CA490870CA4997
:103E000008704FF00008002416E0C14830F8140094
:103E100001124046421C1FFA82F80DF23C52115426
:103E2000BB4810F814104046421C1FFA82F80DF2ED
:103E30003C521154601C84B2642CE6DB4FF4001039
:103E4000B449C861C8220DF23C510020FEF77CF94C
:103E50004FF40010AF498861F2E5A5F580500E38A7
:103E600038D1AB4886810120AB490870AB49087056
:103E7000AB490870AB490870AB4908704FF00008B7
:103E8000002416E0A24830F8140001124046421CFB
:103E90001FFA82F80DF23C5211549D4810F814108C
:103EA0004046421C1FFA82F80DF23C521154601C2D
:103EB00084B2642CE6DB4FF400109649C861C82236
:103EC0000DF23C510020FEF73FF94FF400109149EC
:103ED0008861B5E5A5F580500F3838D18C48C6818A
:103EE00001208D4908708D4908708D4908708D49F1
:103EF00008708D4908704FF00008002416E08448CF
:103F000030F8140001124046421C1FFA82F80DF2EC
:103F10003C5211547E4810F814104046421C1FFABF
:103F200082F80DF23C521154601C84B2642CE6DB22
:103F30004FF400107749C861C8220DF23C510020AF
:103F4000FEF702F94FF400107249886178E5A5F593
:103F50008050103838D16E48068201206E490870B2
:103F60006E4908706E4908706E4908706E49087095
:103F70004FF00008002416E0654830F814000112E4
:103F80004046421C1FFA82F80DF23C521154604820
:103F900010F814104046421C1FFA82F80DF23C52F1
:103FA0001154601C84B2642CE6DB4FF400105949B4
:103FB000C861C8220DF23C510020FEF7C5F84FF44D
:103FC0000010544988613BE5A5F58050113838D17F
:103FD0004F484682012050490870504908705049A6
:103FE000087050490870504908704FF000080024CC
:103FF00016E0474830F8140001124046421C1FFAF0
:1040000082F80DF23C521154414810F81410404609
:10401000421C1FFA82F80DF23C521154601C84B20B
:10402000642CE6DB4FF400103A49C861C8220DF257
:104030003C510020FEF788F84FF4001035498861A4
:10404000FEE4A5F58050123838D13148868201202F
:104050003149087031490870314908703149087098
:10406000314908704FF00008002416E0284830F865
:10407000140001124046421C1FFA82F80DF23C5215
:104080001154234810F814104046421C1FFA82F8BD
:104090000DF23C521154601C84B2642CE6DB4FF4E8
:1040A00000101C49C861C8220DF23C510020FEF7E7
:1040B0004BF84FF4001017498861C1E4A5F5805012
:1040C000133847D11248C68201201349087013499A
:1040D00008701349087013490870134908704FF0AD
:1040E0000008002425E00A4830F814000112404678
:1040F000421C1FFA82F80DF23C521154044810F889
:1041000014104046421C1FFA82F80DF23C520DE09A
:10411000A207001000C00920E5020010E80200100C
:10412000E9020010EA020010EB0200101154601CBA
:1041300084B2642CD7DB4FF40010FE49C861C8225A
:104140000DF23C510020FDF7FFFF4FF40010F9493C
:10415000886175E4A5F58050143838D1F648068397
:104160000120F6490870F6490870F6490870F649CA
:104170000870F64908704FF00008002416E0EE4879
:1041800030F8140001124046421C1FFA82F80DF26A
:104190003C521154E84810F814104046421C1FFAD3
:1041A00082F80DF23C521154601C84B2642CE6DBA0
:1041B0004FF40010DF49C861C8220DF23C510020C5
:1041C000FDF7C2FF4FF40010DA49886138E4A5F525
:1041D0008050153838D1D84846830120D749087017
:1041E000D7490870D7490870D7490870D74908706F
:1041F0004FF00008002416E0CF4830F814000112F8
:104200004046421C1FFA82F80DF23C521154CA4833
:1042100010F814104046421C1FFA82F80DF23C526E
:104220001154601C84B2642CE6DB4FF40010C149C9
:10423000C861C8220DF23C510020FDF785FF4FF404
:104240000010BC49886106E4A5F58050163838D1C5
:10425000B94886830120B9490870B9490870B9493D
:104260000870B9490870B94908704FF00008002477
:1042700016E0B14830F8140001124046421C1FFA03
:1042800082F80DF23C521154AB4810F8141040461D
:10429000421C1FFA82F80DF23C521154601C84B289
:1042A000642CE6DB4FF40010A249C861C8220DF26D
:1042B0003C510020FDF748FF4FF400109D498861F4
:1042C00010E4A5F58050173838D19B48C6830120EB
:1042D0009A4908709A4908709A4908709A49087072
:1042E0009A4908704FF00008002416E0924830F810
:1042F000140001124046421C1FFA82F80DF23C5293
:1043000011548D4810F814104046421C1FFA82F8D0
:104310000DF23C521154601C84B2642CE6DB4FF465
:1043200000108449C861C8220DF23C510020FDF7FD
:104330000BFF4FF400107F4988613FE4A5F58050E2
:10434000183838D17C48068401207C4908707C49A3
:1043500008707C4908707C4908707C4908704FF0EF
:104360000008002416E0744830F81400011240469A
:10437000421C1FFA82F80DF23C5211546E4810F89C
:1043800014104046421C1FFA82F80DF23C521154A0
:10439000601C84B2642CE6DB4FF400106549C861F0
:1043A000C8220DF23C510020FDF7CEFE4FF4001064
:1043B000604988613FE4A5F58050193838D15E48DE
:1043C000468401205D4908705D4908705D490870A8
:1043D0005D4908705D4908704FF00008002416E040
:1043E000554830F8140001124046421C1FFA82F86A
:1043F0000DF23C521154504810F814104046421C23
:104400001FFA82F80DF23C521154601C84B2642CE5
:10441000E6DB4FF400104749C861C8220DF23C5159
:104420000020FDF791FE4FF40010424988613FE4FF
:10443000A5F580501A3838D13F48068501203F49FC
:1044400008703F4908703F4908703F4908703F496C
:1044500008704FF00008002416E0374830F81400C8
:1044600001124046421C1FFA82F80DF23C521154D0
:10447000314810F814104046421C1FFA82F80DF221
:104480003C521154601C84B2642CE6DB4FF40010E3
:104490002849C861C8220DF23C510020FDF754FEA6
:1044A0004FF40010234988615CE441F21B0085420F
:1044B0007EDB41F24C0085427DDCA5F580501B3847
:1044C000234921F810604FF00008002414E0204830
:1044D00030F81400012809D1601C81B208F11F00D6
:1044E000154A22F810101E381FFA80F8B8F1120F82
:1044F00000DD03E0601C84B2322CE8DB00BF0E4814
:10450000A0F83C80002408E0002108F11F002044AE
:10451000094A22F81010601C84B2C8F11300A042AE
:10452000F2DC01200549087005490870054908704A
:1045300005490FE000C00920A2070010E5020010A5
:10454000E8020010E9020010EA020010EB0200107D
:104550006C0800100870FB4908704FF00008002438
:1045600016E0F94830F8140001124046421C1FFAC8
:1045700082F80DF23C521154F34810F814104046E2
:10458000421C1FFA82F80DF23C521154601C84B296
:10459000642CE6DB4FF40010EC49C861C8220DF230
:1045A0003C510020FDF7D0FD4FF40010E74900E03A
:1045B00001E0886113E4A5F580504D3806D1E44848
:1045C0000680FDF73BFCFDF79AFE08E4A5F5805058
:1045D0004E3806D1DF480680FDF730FCFDF78FFE30
:1045E0003AE4A5F580504F3806D1DB490E70FDF74F
:1045F00025FCFDF784FE2FE4A5F58050503811D13D
:10460000FFF713F9FFF7F7F8D44846610346103374
:104610000FCB8DE80F00D1480FC8FFF7D1F8FFF797
:10462000C6F819E4A5F58050513815D1FFF7FDF80B
:10463000FFF7E1F8C94806610346D3E90420D3E94E
:104640000613CDE90213CDE90020C4480FC8FFF7D7
:10465000B7F8FFF7ACF83CE4A5F58050523811D11B
:10466000FFF7E3F8FFF7C7F8BC48C660034610330E
:104670000FCB8DE80F00B9480FC8FFF7A1F8FFF77F
:1046800096F826E4A5F58050533811D1FFF7CDF800
:10469000FFF7B1F8B1488660034610330FCB8DE8C1
:1046A0000F00AE480FC8FFF78BF8FFF780F810E453
:1046B000A5F58050543815D1FFF7B7F8FFF79BF8F0
:1046C000A64846600346D3E90420D3E90613CDE9A2
:1046D0000213CDE90020A1480FC8FFF771F8FFF7DA
:1046E00066F833E4A5F58050553804D19C4806801F
:1046F000FDF705FE2AE4A5F58050563804D1994807
:104700000680FDF7FCFD21E4A5F58050573804D163
:1047100094484680FDF7F3FD18E4A5F5805058381D
:1047200004D190488680FDF7EAFD0FE4A5F580509E
:10473000593804D18B48C680FDF7E1FD06E4A5F5A4
:1047400080505A3804D187480681FDF7D8FD3AE4F5
:10475000A5F580505B3804D183480680FDF7CFFD76
:1047600031E4A5F580505C3804D17F484680FDF7E0
:10477000C6FD28E4A5F580505D3804D17A488680CE
:10478000FDF7BDFD1FE4A5F580505E3804D17648E5
:10479000C680FDF7B4FD16E4A5F580505F3804D15E
:1047A00071480681FDF7ABFD0DE4B5F5835F04D1DB
:1047B0006E480680FDF7A3FD05E441F261008542E5
:1047C00004D16A484680FDF79AFD39E4A5F580508A
:1047D000623804D165488680FDF791FD30E4A5F587
:1047E0008050633804D16148C680FDF788FD27E416
:1047F000A5F58050643804D15C480681FDF77FFD43
:104800001EE4A5F58050653804D159480680FDF7AF
:1048100076FD15E4A5F58050663804D154484680ED
:10482000FDF76DFD0CE4A5F58050673804D15048C4
:104830008680FDF764FD40E4A5F58050683804D11A
:104840004B48C680FDF75BFD37E4A5F5805069381D
:1048500004D147480681FDF752FD2EE4A5F58050AE
:104860006A3804D143480680FDF749FD25E4A5F5E3
:1048700080506B3804D140480680FDF740FD1CE4B1
:10488000A5F580506C3804D13B484680FDF737FDD4
:1048900013E4A5F580506D3804D137488680FDF7C4
:1048A0002EFD0AE4A5F580506E3804D13248C6804A
:1048B000FDF725FD4DE4A5F580506F3804D12E4855
:1048C0000681FDF71CFD44E4A5F58050703804D145
:1048D00029484681FDF713FD3BE4A5F5805071386A
:1048E00004D125488681FDF70AFD32E4A5F5805004
:1048F000723804D12048C681FDF701FD29E4A5F5F1
:104900008050733804D11C480682FDF7F8FC20E47F
:10491000A5F58050743804D117484682FDF7EFFCA6
:1049200017E4A5F5805075382AD11448008880B264
:104930000690069840EA064010490860FDF7DFFC43
:1049400007E40000EB020010A207001000C00920DD
:10495000A2020010A4020010E00300109456001000
:10496000A60200106C5600107656001080560010FB
:104970008A560010E0010010C42C0010F40300104F
:10498000A5F5805076380BD1FE480068000C0690E3
:10499000069846EA0040FB490860FDF7B0FC15E4C4
:1049A000A5F58050773804D1F7480680FDF7A7FCBD
:1049B0000CE4A5F58050783801D0401E50D1A5F503
:1049C0008050783802D1F148068005E0A5F5805086
:1049D000793801D1EE480680ED48008800EB800070
:1049E000EA49098801EB4000EA49A1F89200FDF785
:1049F00086FC0120E8490870E8490870E849087019
:104A0000E8490870E84908704FF00008002416E0F3
:104A1000E04830F8140001124046421C1FFA82F8A8
:104A20000DF23C521154DB4810F814104046421C61
:104A30001FFA82F80DF23C521154601C84B2642CAF
:104A4000E6DB4FF40010D949C861C8220DF23C5191
:104A50000020FDF779FB4FF40010D44988612FE462
:104A6000A5F580507A3803D0401E01D0401E5ED19B
:104A7000A5F580507A3802D1CD4806800CE0A5F526
:104A800080507B3802D1CB48068005E0A5F58050E8
:104A90007C3801D1C8480680C648008800EB8000F9
:104AA000C349098801EB4000C349098801EBC102F1
:104AB00002EB011100EB8100B6498882FDF71FFC73
:104AC0000120B5490870B5490870B5490870B54965
:104AD0000870B54908704FF00008002416E0AD4892
:104AE00030F8140001124046421C1FFA82F80DF201
:104AF0003C521154A74810F814104046421C1FFAAB
:104B000082F80DF23C521154601C84B2642CE6DB36
:104B10004FF40010A549C861C8220DF23C51002095
:104B2000FDF712FB4FF40010A049886105E4A5F5DC
:104B300080507D3803D0401E01D0401E4CD1A5F5D9
:104B400080507D3802D19D4806800CE0A5F580504C
:104B50007E3802D19A48068005E0A5F580507F385E
:104B600001D198480680FDF7CAFB01208A490870E8
:104B70008A4908708A4908708A4908708A49087009
:104B80004FF00008002416E0824830F814000112AB
:104B90004046421C1FFA82F80DF23C5211547D48E7
:104BA00010F814104046421C1FFA82F80DF23C52D5
:104BB0001154601C84B2642CE6DB4FF400107B4976
:104BC000C861C8220DF23C510020FDF7BDFA4FF438
:104BD0000010764988611BE2B5F5845F72DB41F213
:104BE000940085426EDCB5F5845F02D1764806807C
:104BF000B5E041F28100854202D174480680AEE002
:104C0000A5F58050823802D171480680A7E0A5F54D
:104C10008050833802D16C484680A0E0A5F58050D2
:104C2000843802D16948468099E0A5F580508538DE
:104C300002D16748468092E0A5F58050863802D1BF
:104C4000614886808BE0A5F58050873802D15F48A7
:104C5000868084E0A5F58050883802D15C48868043
:104C60007DE0A5F58050893802D15748C68076E0AE
:104C7000A5F580508A3802D15448C6806FE0A5F56A
:104C800080508B3802D15248C68068E0A5F580502C
:104C90008C3802D14C48068161E0A5F580508D38F2
:104CA00002D14A4806815AE0A5F580508E3802D1DB
:104CB0004748068153E0A5F580508F3803D142481C
:104CC00046814CE0DAE0A5F58050903802D13F48AB
:104CD000468144E0A5F58050913802D13C48468198
:104CE0003DE0A5F58050923802D13748868136E004
:104CF000A5F58050933802D1344886812FE0A5F580
:104D00008050943802D13248868128E0A5F5805041
:104D1000953802D12C48C68121E0A5F580509638FF
:104D200002D12A48C6811AE0A5F58050973802D1F1
:104D30002748C68113E0A5F58050983802D1224853
:104D400006820CE0A5F58050993802D11F480682F2
:104D500005E0A5F580509A3801D11D480682FDF77F
:104D6000BFFDFDF7CCFA01200B4908700B49087014
:104D70000B4908700B4908700B4908704FF0000888
:104D800000243EE0F4030010F8030010FA030010C2
:104D9000FC030010A2070010E5020010E80200105A
:104DA000E9020010EA020010EB02001000C0092026
:104DB000FE030010000400100204001004040010A0
:104DC0000604001008040010826B0010946B0010A1
:104DD000A66B0010F94830F8140001124046421C3E
:104DE0001FFA82F80DF23C521154F44810F81410D6
:104DF0004046421C1FFA82F80DF23C521154601CCE
:104E000084B2642CE6DB4FF40010ED49C861C8227F
:104E10000DF23C510020FDF797F94FF40010E849DE
:104E200088614FF00008002416E0E64830F81400CE
:104E300001124046421C1FFA82F80DF23C521154F6
:104E4000E04810F814104046421C1FFA82F80DF298
:104E50003C521154601C84B2642CE6DB4FF4001009
:104E6000D749C861C8220DF23C514FF48750FDF775
:104E70006BF94FF40010D249886166E341F29B0060
:104E800085426EDB41F2AB0085426ADA012E00D02A
:104E90000026A5F580509B3802D1CB48068067E0FC
:104EA000A5F580509C3802D1C748468060E0A5F542
:104EB00080509D3802D1C448868059E0A5F58050C5
:104EC0009E3802D1C048C68052E0A5F580509F3878
:104ED00002D1BD4806814BE0B5F5855F02D1BA48E5
:104EE000468145E041F2A100854202D1B648868163
:104EF0003EE0A5F58050A23802D1B348C68137E024
:104F0000A5F58050A33802D1AF48068230E0A5F560
:104F10008050A43802D1AC48468229E0A5F58050E3
:104F2000A53802D1A848868222E0A5F58050A6388F
:104F300002D1A548C6821BE0A5F58050A73802D152
:104F4000A148068314E0A5F58050A83802D19E48F8
:104F500046830DE0A5F58050A93803D19A48868391
:104F600006E018E0A5F58050AA3801D19648C6831E
:104F700000209649088000240AE0934830F8140085
:104F8000A04092490988084390490880601C84B277
:104F9000102CF2DBD9E2A5F58050AB38FAD1874866
:104FA000A0F8906001208A4908708A4908708A49EF
:104FB00008708A4908708A4908704FF00008002478
:104FC00016E07E4830F8140001124046421C1FFAD9
:104FD00082F80DF23C521154784810F814104046F3
:104FE000421C1FFA82F80DF23C521154601C84B22C
:104FF000642CE6DB4FF400107149C861C8220DF241
:105000003C510020FDF7A0F84FF400106C49886176
:105010009BE241F2AC00854206DB41F2FF00854293
:1050200002DA0420049090E2A5F58050FF3809D1FF
:105030006C4890F804A090F805B04BEA0A266A483C
:10504000068082E2B5F5885F64DB41F2501085424C
:1050500060DC6548008841F66161884257D161484B
:1050600090F804A090F805B04BEA0A26B5F5885FE1
:1050700002D15248868413E041F20110854202D1E8
:105080004E48C6840CE0A5F58850023802D14B4842
:10509000468505E0A5F58050ED38484921F81060B7
:1050A00001204B4908704B4908704B4908704B4927
:1050B00008704B4908704FF00008002416E03F4884
:1050C00030F8140001124046421C1FFA82F80DF21B
:1050D0003C521154394810F814104046421C1FFA33
:1050E00082F80DF23C521154601C84B2642CE6DB51
:1050F0004FF400103249C861C8220DF23C51002023
:10510000FDF722F84FF400102D4988611DE20420BC
:1051100004901AE241F25110854206DB41F2B410CC
:10512000854202DC042004900FE241F2B510854272
:1051300077DB41F29C50854273DC2B480088A0F558
:105140000851B8396ED1274890F804A090F805B0FE
:105150004BEA0A2641F2B51085420DDB41F21820D8
:10516000854209DCA5F58850B538204921F8106042
:1051700001201F490870E8E141F2192085420EDB49
:1051800041F27C2085420ADCA5F590501938174978
:10519000C83121F81060012016490870D5E141F2AC
:1051A0007D2085422CDBB5F5975F29DC281A124952
:1051B00021F81060012011490870C6E1A207001013
:1051C00000C00920D00800109809001098020010B3
:1051D000E5020010E8020010E9020010EA020010E7
:1051E000EB0200102C2F001012030010E02400101E
:1051F000EC020010ED02001070260010EE0200100C
:10520000B5F5975F0FDD41F2443085420BDC41F28A
:10521000E120291AFB4820F811600120FA490870A2
:1052200093E172E06EE041F2453085420EDB41F2DF
:10523000A83085420ADCA5F598504538F149C831B7
:1052400021F810600120F14908707EE141F2A93097
:1052500085420DDB41F20C40854209DCA5F59850F2
:10526000A938EB4921F810600120EA4908706CE187
:1052700041F20D4085420EDB41F2704085420ADC6E
:10528000A5F5A0500D38E249C83121F81060012081
:10529000E149087059E141F2714085420DDB41F26C
:1052A000D440854209DCA5F5A0507138DB4921F8CE
:1052B00010600120DA49087047E141F2D54085428B
:1052C0000EDB41F27C2085420ADCA5F5A050D538E2
:1052D000D249C83121F810600120D249087034E168
:1052E00041F2395085420CDB41F29C50854208DC8A
:1052F000A5F5A8503938CC4921F810600120CB49D8
:10530000087022E1042004901FE141F29D50854283
:105310007EDB41F2C86085427ADCC5480088A0F592
:105320001C510F3975D1C34890F804A090F805B00E
:105330004BEA0A2641F29D50854232DBB5F5B05F5B
:105340002FDC281ABC4921F810604FF00008002417
:1053500016E0B94830F8140001124046421C1FFA0A
:1053600082F80DF23C521154B34810F81410404624
:10537000421C1FFA82F80DF23C521154601C84B298
:10538000642CE6DB4FF40010AC49C861C8220DF272
:105390003C511046FCF7D8FE4FF40010A749886135
:1053A00075E0B5F5B05F38DD41F26460854234DC0C
:1053B00041F20160281AA24921F810604FF000085C
:1053C000002416E09E4830F8140001124046421CAA
:1053D0001FFA82F80DF23C521154994810F814103B
:1053E0004046421C1FFA82F80DF23C521154601CD8
:1053F00084B2642CE6DB4FF400109049C861C822E7
:105400000DF23C515000FCF79FFE4FF4001001E0FC
:105410004CE048E08949886139E041F265608542A5
:1054200035DB41F2C860854231DCA5F5B050653806
:10543000844921F810604FF00008002416E08148EC
:1054400030F8140001124046421C1FFA82F80DF297
:105450003C5211547B4810F814104046421C1FFA6D
:1054600082F80DF23C521154601C84B2642CE6DBCD
:105470004FF400107149C861C8220DF23C514FF43D
:105480001670FCF761FE4FF400106C498861012032
:105490006D4908706D4908706D4908706D49087054
:1054A0006D49087051E0042004904EE041F2C9605B
:1054B000854248DB41F22D70854244DA5D4890F820
:1054C00004A090F805B04BEA0A26A5F5B050C938FB
:1054D000624921F810604FF00008002416E05F4890
:1054E00030F8140001124046421C1FFA82F80DF2F7
:1054F0003C521154594810F814104046421C1FFAEF
:1055000082F80DF23C521154601C84B2642CE6DB2C
:105510004FF400104949C861C8220DF23C514FF4C4
:105520008750FCF711FE4FF40010444988610120B8
:105530004549087045490870454908704549087053
:105540004549087001E00320049001204449087097
:105550004449087044490870444908704449087037
:10556000444801788DF80816DDF8F0198DF8091611
:10557000304881788DF80A16C1788DF80B160179BC
:105580008DF80C1641798DF80D160621099102F05F
:105590009ABDB5F5805FC1F2418341F2AC0085420E
:1055A00081F23C83234840792249097940EA01206D
:1055B0000B90204890F8069000210891079101F087
:1055C00027BB0898C01D1B4911F800A00898083097
:1055D00011F800B04BEA0A260898801C81B20891A5
:1055E0000798284487B2B7F5805F56D1A6F52A40C0
:1055F000AA3845D10120204908802049087001F0CF
:1056000003BB000038270010EF020010F00200106A
:10561000C8280010F1020010F2020010582A0010F1
:10562000F3020010F4020010E82B0010F502001045
:10563000120300102C2F0010A00A001000C0092037
:10564000680B0010300C0010E5020010E80200109A
:10565000E9020010EA020010EB020010D00800106E
:10566000F7020010F8020010F9020010FA02001010
:10567000FB020010A20200104003001010030010F3
:10568000A6F5AA40553805D1F84908800120F84907
:105690000870B4E704200490B1E741F201008742AA
:1056A00005D0A7F58050023801D0401E02D1042059
:1056B0000490A4E7A7F58050043811D1FEF7B5F89F
:1056C000FEF799F8EB484661034610330FCB8DE89F
:1056D0000F00E8480FC8FEF773F8FEF768F88EE78A
:1056E000A7F58050053818D1FEF79FF8FEF783F82C
:1056F000E048C0F810A0C0F80CB00346D3E904207D
:10570000D3E90613CDE90213CDE90020D9480FC82B
:10571000FEF756F8FEF74BF871E7A7F5805006380C
:1057200018D1FEF782F8FEF766F8D248C0F808A054
:10573000C0F804B00346D3E905211869DB69CDE957
:105740000213CDE90002CB480FC8FEF739F8FEF787
:105750002EF854E7A7F58050073811D1FEF765F809
:10576000FEF749F8C3480660034610330FCB8DE8B7
:105770000F00C0480FC8FEF723F8FEF718F83EE701
:10578000A7F58050083836D1BB4806800120BB49B8
:105790000870BB490870BB490870BB4908704FF0DE
:1057A0000008002416E0B44830F814000112404606
:1057B000421C1FFA82F80DF23C521154AE4810F808
:1057C00014104046421C1FFA82F80DF23C5211544C
:1057D000601C84B2642CE6DB4FF40010AB49C86156
:1057E000C8220DF23C510020FCF7AEFC4FF4001033
:1057F000A649886103E7A7F58050093836D19E484D
:10580000468001209D4908709D4908709D49087097
:105810009D4908704FF00008002416E0964830F8C3
:10582000140001124046421C1FFA82F80DF23C524D
:105830001154914810F814104046421C1FFA82F887
:105840000DF23C521154601C84B2642CE6DB4FF420
:1058500000108E49C861C8220DF23C510020FCF7AF
:1058600073FC4FF4001089498861C8E6A7F58050A1
:105870000A3836D1804886800120804908708049E6
:10588000087080490870804908704FF000080024B3
:1058900016E0794830F8140001124046421C1FFA05
:1058A00082F80DF23C521154734810F8141040461F
:1058B000421C1FFA82F80DF23C521154601C84B253
:1058C000642CE6DB4FF400107049C861C8220DF269
:1058D0003C510020FCF738FC4FF400106B49886104
:1058E0008DE6A7F580500B3836D16348C68001207D
:1058F000624908706249087062490870624908701C
:105900004FF00008002416E05B4830F81400011244
:105910004046421C1FFA82F80DF23C521154564880
:1059200010F814104046421C1FFA82F80DF23C5247
:105930001154601C84B2642CE6DB4FF40010534910
:10594000C861C8220DF23C510020FCF7FDFB4FF46A
:1059500000104E49886152E6A7F580500C3836D1C8
:105960004548068101204549087045490870454968
:105970000870454908704FF00008002416E03E48C2
:1059800030F8140001124046421C1FFA82F80DF252
:105990003C521154384810F814104046421C1FFA6B
:1059A00082F80DF23C521154601C84B2642CE6DB88
:1059B0004FF400103549C861C8220DF23C51002057
:1059C000FCF7C2FB4FF400103049886117E6A7F5D9
:1059D00080500D3836D1284846810120274908706B
:1059E0002749087027490870274908704FF00008B8
:1059F000002416E0204830F8140001124046421CF2
:105A00001FFA82F80DF23C5211541B4810F8141082
:105A10004046421C1FFA82F80DF23C521154601CA1
:105A200084B2642CE6DB4FF400101849C861C82228
:105A30000DF23C510020FCF787FB4FF40010134996
:105A40008861DCE5A7F580500E3849D10A48868187
:105A500001200A4908700A4908700A4908700A4971
:105A600008704FF00008002429E0000040030010F7
:105A70001003001094560010A2070010E502001059
:105A8000E8020010E9020010EA02001000C009203C
:105A9000FE4830F8140001124046421C1FFA82F8FA
:105AA0000DF23C521154F94810F814104046421CB3
:105AB0001FFA82F80DF23C521154601C84B2642C1F
:105AC000E6DB4FF40010F249C861C8220DF23C51E8
:105AD0000020FCF739FB4FF40010ED4988618EE59A
