:020000040000FA
:10000000F07F0010A1010000A5010000A701000081
:10001000B9010000BB010000BD01000000000000AC
:10002000000000000000000000000000BF01000010
:10003000C101000000000000C3010000C501000074
:10004000C3900100C1AB0100C7010000C70100005F
:10005000C70100006FEA0100FFE80100C7010000CE
:10006000C7010000C7010000C7010000C701000070
:10007000C7010000C701000017160000C7010000FB
:10008000C7010000018B0100C7010000C70100008B
:10009000C7010000C7010000C7010000C701000040
:1000A000C7010000C7010000C7010000C701000030
:1000B000C7010000C7010000C7010000C701000020
:1000C000C701000000F002F800F05AF80AA090E81A
:1000D000000C82448344AAF10107DA4501D100F003
:1000E0004FF8AFF2090EBAE80F0013F0010F18BF76
:1000F000FB1A43F001031847B0020200D0020200CD
:100100000A444FF0000C10F8013B13F0070408BF3D
:1001100010F8014B1D1108BF10F8015B641E05D0DB
:1001200010F8016B641E01F8016BF9D113F0080F90
:100130001EBF10F8014BAD1C0C1B09D16D1E58BF22
:1001400001F801CBFAD505E014F8016B01F8016B59
:100150006D1EF9D59142D6D37047000000230024CC
:1001600000250026103A28BF78C1FBD8520728BFC7
:1001700030C148BF0B6070471FB51FBD10B510BD23
:100180001EF052FE1146FFF7F7FF1EF03CFB1EF07B
:1001900070FE03B4FFF7F2FF03BC1EF071FE000017
:1001A0000C480047FEE71EF0040F0CBFEFF3088079
:1001B000EFF309801EF016BDFEE7FEE7FEE7FEE75F
:1001C000FEE7FEE7FEE7FEE703480449024A044B68
:1001D00070470000C5000000F06F0010F07F0010B5
:1001E000F06F001053EA020C00F069802DE9F04B2B
:1001F0004FF00006002B1FBFB3FA83F503FA05F496
:1002000024FA05F65E4012BF1643B2FA82F502FAEE
:1002100005F4C5F120051EBF22FA05FC44EA0C04D2
:10022000203556EA044C4FEA144418BF641C4FF0C2
:1002300000084FF00009904271EB030C39D30029FC
:1002400019BFB1FA81F701FA07F6B0FA80F700FAA0
:1002500007F6C7F120071EBF20FA07FC46EA0C0686
:100260002037B6FBF4FCA7EB0507103F07F01F0B88
:10027000CBF120060CFA0BFB2CFA06F644BFB34672
:100280000026202FA4BF5E464FF0000B5BEA060C51
:1002900008BF4FF0010B19EB0B09ABFB027C48EBDD
:1002A0000608C01B06FB02CC0BFB03CC71EB0C0158
:1002B000C1E70B46024641464846BDE8F08B13B500
:1002C0004FF000004FF00001AFF30080BDE81C408C
:1002D0007047002800DA4042704770477047704707
:1002E00010B51EF099FD006810BD10B504461EF053
:1002F00093FD046010BD704700000000FFFFFFFF8A
:1003000020208549086000BF8348006810F0400F36
:10031000FAD00320814908604FF001008049C1F8FC
:100320000C014FF00F007F4908604FF00100A1F170
:10033000040108604FF0AA007B4908604FF05500A7
:100340007749C1F88C0000BF7848006810F0806FD2
:10035000FAD00320764908604FF0AA007049C1F82E
:100360008C004FF05500704908604FF02300714930
:1003700008604FF00100A1F1040108604FF0AA00ED
:100380006D4908604FF05500086000BF6B48006879
:1003900010F4806FFAD00320694908604FF0AA007A
:1003A0005F49C1F8AC004FF05500634908604FF059
:1003B00000006449086001F1040108606248634973
:1003C00008604FF000005649C1F8C8010846D0F84F
:1003D0008800C0F30160032868D15D48006810F010
:1003E000030006D0012823D002283FD003285CD187
:1003F00000E000BF4D480068C0F30E0000F10100AE
:100400004FEA40014648D0F88800C0F3074000F1A9
:100410000100B1FBF0F04F4900FB01F03F490968D2
:10042000C9B201F10101B0FBF1F04B4908603CE0B9
:100430003E480068C0F30E0000F101004FEA4001A1
:100440003748D0F88800C0F3074000F10100B1FB45
:10045000F0F0424900FB01F030490968C9B201F1EE
:100460000101B0FBF1F03C4908601EE02F48006834
:10047000C0F30E0000F101004FEA40012848D0F817
:100480008800C0F3074000F10100B1FBF0F04FF429
:10049000FA4100FB01F021490968C9B201F10101EB
:1004A000B0FBF1F02C49086000BF2FE0284800683D
:1004B00010F0030006D0012810D0022819D003281C
:1004C00023D100E000BF15480068C0B200F1010070
:1004D0002049B1FBF0F02049086016E00F480068A1
:1004E000C0B200F101001D49B1FBF0F01A490860EB
:1004F0000BE00A480068C0B200F101004FF4FA4175
:10050000B1FBF0F01449086000BF00BF43F23A00AD
:100510000349086070470000A0C10F4004C10F40AC
:1005200000C00F4084C00F408CC00F4088C00F40F7
:1005300080C00F40A4C00F40ACC00F40A8C00F4007
:10054000A0C00F40A8C10F40DE87E804C4C00F4020
:100550000CC10F4000093D0000000010001BB70057
:1005600030B502460B464FF6FF7011E032F8024BF1
:10057000604000210AE010F0010F04D04AF20104AB
:1005800084EA600000E040104C1CA1B21029F2DBAC
:100590001C00A3F10105ABB2E8D130BD10B5024695
:1005A000002114E0DC2901D16E200EE0FA4C4B1C36
:1005B00034F81330934208DDCB1C34F813309342E7
:1005C00003DA234613F8110003E08B1CD9B2DE29AD
:1005D000E8DB00BF10BD10B5F048006840F4001023
:1005E000EF49C1F8C4000846D0F8AC0120F44060DF
:1005F000C1F8AC010846D0F8AC0140F48060E9498C
:1006000008604FF00F00E84908604FF006004860AE
:100610000846C06810F0040F02D00846806884B213
:100620000020E1494861E1490870E1490870E14969
:1006300008800E201EF0A7FB0420DB49486110BD96
:1006400010B50146DC4AD84B996005E0521E1AB934
:100650000123D74C237004E0D34BDB6813F0040F65
:10066000F4D000BFD24B1B7813B9CF4B9B6898B224
:1006700010BD70B50025D148808842F20F718842C4
:1006800079DACE48808838BB002408E0201DCB49A9
:1006900031F81000CA4921F81400601CC4B2642C5F
:1006A000F4DBC8480078012840F0B487C448B0F8AB
:1006B0009400C349B1F8921040EA0140C249086071
:1006C000BF48B0F89800BE49B1F8961040EA014022
:1006D000BE49086000F09EBFB8488088642815D1E4
:1006E000002410E0201DB54931F81000B84921F868
:1006F000140004F13600B14931F81000B54921F871
:100700001400601CC4B2322CECDBE3E7AB488088F9
:10071000C82815D1002410E0201DA84931F8100088
:10072000AD4921F8140004F13600A44931F8100055
:10073000AA4921F81400601CC4B2322CECDBC9E7D2
:100740009E488088B0F5967F16D1002410E0201DC9
:100750009A4931F81000A24921F8140004F136003A
:10076000964931F810009F4921F81400601CC4B26A
:10077000322CECDBAEE7C4E290488088B0F5C87F4D
:1007800015D1002410E0201D8C4931F81000964945
:1007900021F8140004F13600884931F8100093491B
:1007A00021F81400601CC4B2322CECDB92E78348C1
:1007B0008088B0F5FA7F15D1002410E0201D7F4914
:1007C00031F810008A4921F8140004F136007B4901
:1007D00031F81000874921F81400601CC4B2322C93
:1007E000ECDB77E775488088B0F5167F15D10024DB
:1007F00010E0201D714931F810007F4921F81400E4
:1008000004F136006D4931F810007C4921F81400DC
:10081000601CC4B2322CECDB5CE768488088B0F521
:100820002F7F15D1002410E0201D644931F81000FD
:10083000734921F8140004F13600604931F81000C2
:10084000704921F81400601CC4B2322CECDB41E783
:100850005A488088B0F5487F15D1002410E0201D4B
:10086000564931F81000684921F8140004F13600A7
:10087000524931F81000654921F81400601CC4B2D7
:10088000322CECDB26E74D488088B0F5617F15D12E
:10089000002410E0201D494931F810005C4921F87E
:1008A000140004F13600454931F81000594921F887
:1008B0001400601CC4B2322CECDB0BE73F4880888C
:1008C000B0F57A7F15D1002410E0201D3B4931F8A6
:1008D0001000514921F8140004F13600374931F86D
:1008E00010004E4921F81400601CC4B2322CECDB1D
:1008F000F0E632488088A0F580614C3915D100249B
:1009000010E0201D2D4931F81000454921F8140050
:1009100004F13600294931F81000424921F8140049
:10092000601CC4B2322CECDBD4E624488088B0F5DD
:10093000966F15D1002410E0201D204931F81000D9
:10094000394921F8140004F136001C4931F810002F
:10095000364921F81400601CC4B2322CECDBB9E635
:1009600016488088A0F5A061143965D1002410E0F4
:10097000201D124931F810002D4921F8140004F10E
:1009800036000E4931F810002A4921F81400601C85
:10099000C4B2322CECDB9DE60A000010C4C00F404C
:1009A00000C00F40ACC10F4000800840F0030010B1
:1009B0003104001032040010007701005A040010C6
:1009C000EA060010A00200107C0300108003001053
:1009D000080D0010340E00106C0D0010980E001061
:1009E000D00D0010FC0E0010600F00108C100010D5
:1009F000C40F0010F0100010281000105411001047
:100A0000B8110010E41200101C120010481300105E
:100A100080120010AC130010101400103C150010D0
:100A200074140010A0150010D81400100416001043
:100A30006816001094170010F8488088B0F5AF6F62
:100A400015D1002410E0201DF44931F81000F449BC
:100A500021F8140004F13600F04931F81000F14992
:100A600021F81400601CC4B2322CECDB32E6EB48F7
:100A70008088A0F5A061DC3915D1002410E0201D8C
:100A8000E64931F81000E84921F8140004F1360075
:100A9000E24931F81000E54921F81400601CC4B2A5
:100AA000322CECDB16E6DD488088B0F5FA6F7DD19C
:100AB000002459E0201DD94931F81000DC4921F803
:100AC000140004F10E00D54931F81010D848143044
:100AD00020F8141004F11800D04931F81010D4484F
:100AE000283020F8141004F12200CC4931F81010FD
:100AF000CF483C3020F8141004F12C00C74931F8DD
:100B00001010CB48503020F8141004F13600C349BF
:100B100031F81010C648643020F8141004F1400079
:100B2000BE4931F81010C248783020F8141004F192
:100B30004A00BA4931F81010BD488C3020F8141022
:100B400004F15400B54931F81010B948A03020F82C
:100B5000141004F15E00B14931F81010B448B430FB
:100B600020F81410601CC4B20A2CA3DB00241CE083
:100B700004EB8400AE4901EB8000808800EB80002C
:100B80004FF6FF7101EA40063046FFF707FD00EB24
:100B900080004FF6FF7101EA400004EB8401A44A93
:100BA00002EB81018880601CC4B200E002E00A2CE4
:100BB000DEDB8FE599488088A0F500613439F8D1F3
:100BC000002459E0201D954931F81000994921F879
:100BD000140004F10E00914931F8101095481430BA
:100BE00020F8141004F118008C4931F810109148C5
:100BF000283020F8141004F12200884931F8101030
:100C00008C483C3020F8141004F12C00834931F852
:100C100010108848503020F8141004F136007F4935
:100C200031F810108348643020F8141004F14000AB
:100C30007A4931F810107F48783020F8141004F108
:100C40004A00764931F810107A488C3020F8141098
:100C500004F15400714931F810107648A03020F8A2
:100C6000141004F15E006D4931F810107148B43071
:100C700020F81410601CC4B20A2CA3DB00241CE072
:100C800004EB84006B4901EB8000008A00EB8000DC
:100C90004FF6FF7101EA40063046FFF77FFC00EB9C
:100CA00080004FF6FF7101EA400004EB8401614AC5
:100CB00002EB81010882601CC4B20A2CE0DB002434
:100CC0001CE004EB84005B4901EB8000408A00EBF0
:100CD00080004FF6FF7101EA40063046FFF75EFCE8
:100CE00000EB80004FF6FF7101EA400004EB840145
:100CF000504A02EB81014882601CC4B20A2CE0DB3E
:100D0000E8E446488088A0F51C5110392CD1002415
:100D10000BE0494830F81410201D404A32F810000A
:100D2000814200D00125601CC4B2642CF1DB012D8E
:100D300007D00020414908704149088041490870A6
:100D4000C8E43F480088401C3D49088008460088A8
:100D5000B0F57A7FD4DD0020384908703849088022
:100D6000012038490870B5E42C488088A0F51C5152
:100D7000743917D029488088A0F51C51D83911D072
:100D800026488088A0F520513C390BD02348808824
:100D9000A0F52051A03905D020488088A0F5285121
:100DA000F8396ED11D488088A0F51C5174392CD1BA
:100DB00000240BE0244830F81410201D174A32F8A4
:100DC0001000814200D00125601CC4B2642CF1DB0C
:100DD000012D07D000201D490870194908801949C4
:100DE000087077E416480088401C154908800846BA
:100DF0000088B0F57A7FA3DD0020144908701049FF
:100E0000088001200F49087064E404488088A0F538
:100E10001C51D83949D1002426E000005A040010A2
:100E2000CC160010F8170010301700105C180010D6
:100E30006023001028240010B2070010E502001003
:100E40003204001031040010B00A0010E802001053
:100E5000FE4830F81410201DFD4A32F8100081427F
:100E600000D00125601CC4B2642CF1DB012D09D037
:100E70000020F8490870F84908800120F7490870F7
:100E8000C8E3B3E0F4480088401CF34908800846F2
:100E90000088B0F57A7FA4DD0020EE490870EE49A5
:100EA00008800120ED490870B4E3E9488088A0F586
:100EB00020513C392DD1002428E0E94830F81410A5
:100EC000201DE34A32F81000814200D00125012D97
:100ED00008D00020E3490870DF4908800120DF497D
:100EE000087011E0DC480088401CDB490880084697
:100EF0000088B0F57A7F07DD0020DA490870D6490E
:100F000008800120D5490870601CC4B2642CD4DB71
:100F100080E3CF488088A0F52051A0392DD100244E
:100F200028E0D14830F81410201DC94A32F81000CA
:100F3000814200D00125012D08D00020CB49087046
:100F4000C54908800120C549087011E0C2480088E1
:100F5000401CC149088008460088B0F57A7F07DD4B
:100F60000020C2490870BC4908800120BB490870B4
:100F7000601CC4B2642CD4DB4CE3B5488088A0F577
:100F80002851F83990D1B2484089B149098940EADD
:100F90000140B7490968884209D1AD48C089AC49C8
:100FA000898940EA0140B3490968884200D0012597
:100FB000012D08D00020B0490870A7490880012001
:100FC000A649087026E3A4480088401CA24908806E
:100FD00008460088B0F57A7F9ADD0020A64908709F
:100FE0009D49088001209D49087013E39848808836
:100FF000A0F53851E03934D095488088A0F53C51AF
:1010000044392ED092488088A0F53C51A83928D088
:101010008F488088A0F540510C3922D08C488088B8
:10102000A0F5405170391CD089488088A0F5405106
:10103000D43916D086488088A0F54451383910D06C
:1010400083488088A0F544519C390AD08048808824
:10105000B0F5485F05D07E488088A0F548516439D6
:101060008AD17B488088A0F53851E03943D10024EB
:101070003EE082480078012827D1814830F81410DA
:10108000201D734A32F81000814200D00125012D45
:1010900008D00020794908706F49088001206F4905
:1010A000087023E06C480088401C6B4908800846A3
:1010B0000088B0F57A7F19DD002070490870664914
:1010C000088001206549087010E000206D49087013
:1010D000201D5F4931F81000694921F814000846C5
:1010E000B0F8C60010B1012067490870601CC4B296
:1010F000642CBEDB8EE256488088A0F53C51443912
:101100003ED1002439E061480078012828D15C48AC
:10111000C83030F81410201D4D4A32F810008142BA
:1011200000D00125012D08D00020584908704A49F7
:1011300008800120494908701DE047480088401C8C
:101140004549088008460088B0F57A7F13DD002005
:101150004E490870404908800120404908700AE063
:1011600000204B490870201D394931F810104448BF
:10117000C83020F81410601CC4B2642CC3DB49E2F0
:1011800033488088A0F53C51A8393CD1002437E091
:1011900040480078012827D13F4830F81410201D1E
:1011A0002B4A32F81000814200D00125012D08D0D1
:1011B0000020384908702849088001202749087014
:1011C0001CE025480088401C234908800846008808
:1011D000B0F57A7F12DD00202E4908701E49088084
:1011E00001201E49087009E000202C490870201DCC
:1011F000174931F81010284820F81410601CC4B2A8
:10120000642CC5DB06E212488088A0F540510C39F9
:101210006AD1002465E022480078012855D11E4893
:10122000C83030F81410201D094A32F810008142ED
:1012300000D00125012D35D000201949087006493C
:10124000088001200549087049E00000780B001073
:101250005A040010E902001032040010310400109A
:10126000400C0010EA020010E0080010EB02001031
:101270007C03001080030010E7020010EC02001055
:10128000F0240010DA020010A0020010ED0200109D
:10129000DB020010EE02001080260010DC020010BD
:1012A000EF020010FA480088401CF94908800846FF
:1012B0000088B0F57A7F12DD0020F6490870F44905
:1012C00008800120F449087009E00020F349087003
:1012D000201DF34931F81010F24820F81410601C5A
:1012E000C4B2642C97DB95E1ED488088A0F54051AD
:1012F00070393ED1002439E0EB480078012828D12C
:10130000E848C83030F81410201DE54A32F81000C3
:10131000814200D00125012D08D00020E24908704B
:10132000DB4908800120DC4908701DE0D8480088AE
:10133000401CD749088008460088B0F57A7F13DD45
:101340000020D9490870D24908800120D24908708C
:101350000AE00020D5490870201DD14931F810104D
:10136000D048C83020F81410601CC4B2642CC3DB11
:1013700050E1CB488088A0F54051D4393CD10024BD
:1013800037E0CB480078012827D1CA4830F814103C
:10139000201DC34A32F81000814200D00125012DE2
:1013A00008D00020C2490870B94908800120BA4914
:1013B00008701CE0B6480088401CB5490880084603
:1013C0000088B0F57A7F12DD0020B9490870B04975
:1013D00008800120B049087009E00020B649087073
:1013E000201DAF4931F81010B24820F81410601CCD
:1013F000C4B2642CC5DB0DE1A9488088A0F5445136
:1014000038393ED1002439E0AC480078012828D191
:10141000A848C83030F81410201DA14A32F8100036
:10142000814200D00125012D08D00020A349087079
:10143000974908800120984908701DE09448008869
:10144000401C9349088008460088B0F57A7F13DD78
:1014500000209A4908708E49088001208E49087042
:101460000AE0002096490870201D8D4931F81010BF
:101470009048C83020F81410601CC4B2642CC3DB40
:10148000C8E087488088A0F544519C393CD10024AD
:1014900037E08C480078012827D18B4830F81410A9
:1014A000201D7F4A32F81000814200D00125012D15
:1014B00008D00020834908707549088001207649CA
:1014C00008701CE072480088401C7149088008467A
:1014D0000088B0F57A7F12DD00207A4908706C49E7
:1014E000088001206C49087009E0002077490870E5
:1014F000201D6B4931F81010734820F81410601C3F
:10150000C4B2642CC5DB85E065488088B0F5485FCF
:101510003ED1002439E06E480078012828D16A487D
:10152000C83030F81410201D5D4A32F81000814296
:1015300000D00125012D08D00020654908705449CC
:1015400008800120544908701DE051480088401C63
:101550004F49088008460088B0F57A7F13DD0020E7
:101560005B4908704A49088001204B4908700AE02D
:10157000002058490870201D494931F81010524880
:10158000C83020F81410601CC4B2642CC3DB41E0E6
:1015900043488088A0F5485164393BD1002437E0A6
:1015A0004D480078012827D14C4830F81410201DF0
:1015B0003B4A32F81000814200D00125012D08D0AD
:1015C00000204549087032490880012032490870DE
:1015D0001CE02F480088401C2D49088008460088E0
:1015E000B0F57A7F12DD00203B4908702849088059
:1015F00001202949087009E0002039490870201DA0
:10160000274931F81010354820F81410601CC4B276
:10161000642CC5DB70BD70B5002500240320314962
:1016200008800020304948613049486030494860AE
:10163000194908702F48008838B94FF000702E49BA
:10164000C86701202B49088006E04FF000702A4946
:10165000886700202749088008E02348806882B214
:101660002846691CCDB20E4921F810201E48C068DA
:1016700010F0040FF1D10A480088A0F52A41CC39B6
:1016800060D10748C08864285CD1002447E000008E
:1016900032040010EF02001031040010DD020010CF
:1016A0005A04001048270010F0020010DE0200105B
:1016B000F1020010D8280010DF020010F202001022
:1016C000E0020010F3020010682A0010E10200108E
:1016D000F4020010E2020010F5020010F82B0010D6
:1016E000E3020010A80200100080084000C0004083
:1016F000000001400800001000C00920F74931F83F
:101700001400FEF79DFF29466A1CD5B2F44A22F860
:101710001100F4480078012800D102E0641C6C2C10
:10172000ECD300BF6421EE480830FEF719FFEC4906
:10173000B1F8D010884217D1FEF79BFF0120EA498B
:10174000087011E04FF416540CE0E848C06810F03F
:10175000040F02D1641E2CB905E0E448806886B20B
:101760004FF41654F1E700BF0420E049486101201E
:10177000DF494860DF4948600420DF49088070BDC8
:1017800030B50025DD48007870B90120DC490870CB
:10179000DC490870DC490870DC490870DC490870D5
:1017A000DC490870D5490870D5480078012815D162
:1017B0000125002408E0D84830F81410C74AE01C7E
:1017C00022F81010601CC4B2642CF4DB0020D34952
:1017D00008704FF48050D249C865C2E2C948007809
:1017E000012814D10225002408E0CE4830F8141056
:1017F000BA4AE01C22F81010601CC4B2642CF4DB5E
:101800000120C64908700003C549C865A9E2BE4861
:101810000078012814D10325002408E0C24830F8DC
:101820001410AE4AE01C22F81010601CC4B2642CE4
:10183000F4DB0220B9490870C002B949C86590E2DA
:10184000B2480078012815D10425002408E0B748E3
:1018500030F81410A14AE01C22F81010601CC4B229
:10186000642CF4DB0320AD4908704FF48050AC4980
:10187000C86576E2A7480078012814D10525002420
:1018800008E0AB4830F81410944AE01C22F810101D
:10189000601CC4B2642CF4DB0420A04908708002F0
:1018A0009F49C8655DE29A480078012822D1062543
:1018B000A0480068000C8949C8809E4800880881BB
:1018C0009D480068000C48819B480088888104245A
:1018D00006E00021E01C814A22F81010601CC4B20E
:1018E000642CF6DB05208D4908704FF480508C493C
:1018F000C86536E291480078012815D107250024F3
:1019000008E08F4830F81410E01C744A22F81010D8
:10191000601CC4B2642CF4DB0620804908704FF4CC
:1019200080507F49C8651CE286480078012810D1A4
:101930000025002407E04FF6FF71E01C674A22F8FB
:101940001010601CC4B2642CF5DB062073490870CB
:1019500007E27D480078012816D10825002409E017
:101960007748C83030F81410E01C5C4A22F8101098
:10197000601CC4B2642CF3DB0720684908704FF484
:1019800080506749C865ECE170480078012810D1A3
:101990000025002407E04FF6FF71E01C4F4A22F8B3
:1019A0001010601CC4B2642CF5DB07205B49087082
:1019B000D7E167480078012814D10925002408E000
:1019C000644830F81410E01C444A22F81010601CDF
:1019D000C4B2642CF4DB082050490870400250491E
:1019E000C865BEE15C480078012810D100250024BC
:1019F00007E04FF6FF71E01C384A22F81010601C17
:101A0000C4B2642CF5DB082044490870A9E15348AE
:101A10000078012816D10A25002409E04D48C83075
:101A200030F81410E01C2D4A22F81010601CC4B2CB
:101A3000642CF3DB0920394908704FF48050384991
:101A4000C8658EE146480078012810D100250024A1
:101A500007E04FF6FF71E01C204A22F81010601CCE
:101A6000C4B2642CF5DB09202C49087079E13D48AB
:101A70000078012815D10B25002408E03A4830F8F9
:101A80001410E01C154A22F81010601CC4B2642C1B
:101A9000F4DB0A20214908704FF480502049C865C2
:101AA0005FE132480078012810D10025002407E0CA
:101AB0004FF6FF71E01C094A22F81010601CC4B2F6
:101AC000642CF5DB0A20154908704AE128480078A3
:101AD000012862D10C25002455E000004A050010C1
:101AE0005A04001031040010F00300100080084078
:101AF00000C0004000000140A80200104C0200108D
:101B0000E5020010E8020010E9020010EA020010ED
:101B1000E7020010EB020010B207001030040010C2
:101B200000C00920B00A0010780B0010400C001013
:101B3000E00800107C03001080030010EC0200108D
:101B4000F0240010DA020010ED020010DB02001099
:101B5000EE02001080260010DC020010EF020010E0
:101B6000DD020010F002001010280010DE0200104C
:101B7000F1020010FE4830F81410E01CFD4A22F873
:101B80001010601CC4B2642CF4DB0B20FA490870FE
:101B90004FF48050F949C865E3E0F948007801281E
:101BA00010D10025002407E04FF6FF71E01CF14A38
:101BB00022F81010601CC4B2642CF5DB0B20EE4937
:101BC0000870CEE0EF480078012816D10D250024DA
:101BD00009E0E748C83030F81410E01CE54A22F864
:101BE0001010601CC4B2642CF3DB0C20E2490870B6
:101BF0004FF48050E149C865B3E0E348007801281C
:101C000010D10025002407E04FF6FF71E01CD94AEF
:101C100022F81010601CC4B2642CF5DB0C20D649ED
:101C200008709EE0D9480078012815D10E250024BF
:101C300008E0D74830F81410E01CCE4A22F8101003
:101C4000601CC4B2642CF4DB0D20CB4908704FF447
:101C50008050CA49C86584E0CE480078012810D178
:101C60000025002407E04FF6FF71E01CC14A22F86E
:101C70001010601CC4B2642CF5DB0D20BE49087046
:101C80006FE0C5480078012816D10F25002409E02F
:101C9000BF48C83030F81410E01CB64A22F81010C3
:101CA000601CC4B2642CF3DB0E20B34908704FF4FF
:101CB0008050B249C86554E0B8480078012810D176
:101CC0000025002407E04FF6FF71E01CA94A22F826
:101CD0001010601CC4B2642CF5DB0E20A6490870FD
:101CE0003FE0AF480078012815D11025002408E016
:101CF000AC4830F81410E01C9E4A22F81010601C0A
:101D0000C4B2642CF4DB0F209B4908704FF4805060
:101D10009A49C86525E0A4480078012810D100251B
:101D2000002407E04FF6FF71E01C924A22F81010E1
:101D3000601CC4B2642CF5DB0F208F49087010E0E2
:101D400000254FF480508D498865002407E04FF648
:101D5000FF71E01C874A22F81010601CC4B2642C8A
:101D6000F5DB64218348801DFEF7FAFB8149A1F869
:101D7000CE00284630BD70B504460D4632208B4952
:101D8000086008464460856089498A4A90478848C7
:101D9000006870BD70B504460D4634208349086064
:101DA0000846446085608448C86081497F48814A0C
:101DB00090477F48006870BD70B504460D461646D2
:101DC00033207A490860084644608560C6607A48D6
:101DD000086177497548774A90477548006870BD33
:101DE00070B504460D46164638207049086008460E
:101DF00044608560C6606E496E4A90476C480068D2
:101E000070BD0CB50020009001900CE06B48007D87
:101E100010F0010F03D069480078009000E005E061
:101E20000198401C019001980828EFD300BF0CBD19
:101E30000CB50020009001900CE06148007D10F08E
:101E4000010F03D05E480078009000E005E00198A3
:101E5000401C019001980828EFD300BF0CBD2DE96C
:101E6000F05F5848006840F008005749C1F8C400C6
:101E70004FF08300524908735448008830B101285C
:101E80000AD002280ED0032818D111E04FF4165AB8
:101E900001204F49087017E04FF4964A02204C4940
:101EA000087011E04FF4614A0120494908700BE0C5
:101EB0004FF4E13A01204649087005E04FF4165A04
:101EC00004204349087000BF00BF50461DF00CFEBF
:101ED0008046894600223F4B3F4903C91DF038FC2C
:101EE000064642464B461DF033FC04461DF0B8FD45
:101EF0001FFA80FB58464FEAEB710BEB1161090AA0
:101F00002F4A1171114681F800B003200873872011
:101F10002A49087201201146486006201CF033FF50
:101F2000FFF786FF4FF400001449C861BDE8F09F39
:101F30002DE9F0412348006840F010002249C1F823
:101F4000C4004FF083001D4908734FF00002214B7D
:101F5000214903C91DF0FCFB054600221F4B1DF063
:101F6000F7FB07461DF07CFD84B22046E11737E001
:101F7000D82800104A0500103004001000C00920C5
:101F8000DF020010F2020010E0020010F302001065
:101F9000682A0010E1020010F4020010E2020010B2
:101FA000F5020010F82B0010E3020010E82C0010DE
:101FB000082D0010F11FFF1F0077010000C0004036
:101FC00000000140C4C00F4000C00F40A402001038
:101FD0002003001000003040E80300100020FC4007
:101FE00004EB1161090AFE4A117111460C700320BD
:101FF00008730720087205201CF0C5FE0120F8496F
:102000004860FFF7FEFE0220F6498863BDE8F081D4
:10201000002108E0F24A127D12F0010F02D0F249CD
:10202000EF4A1078491CB1F5FA7FF3D37047EC4BB7
:102030001870002106E0EA4A127D12F0400F00D02D
:10204000EA49491CEA4A9142F5D37047002108E069
:10205000E84A127D12F0010F02D0E64A1078E249F8
:10206000491CB1F5FA7FF3D37047E24B1870002199
:1020700006E0E04A127D12F0400F00D0DB49491C17
:10208000DB4A9142F5D3704730B502460B464FF616
:10209000FF7011E012F8014B604000210AE010F0DF
:1020A000010F04D04AF2010484EA600000E040100D
:1020B0004C1CE1B20829F2DB1C00A3F10103E9D1B9
:1020C00030BD70B504462C25CB4EB561602535601A
:1020D000002000E0401C42F21075A842FAD3C64D21
:1020E000AC602825C44EB561002000E0401C42F2DF
:1020F0001075A842FAD3C1F30725BF4EB560282555
:10210000B561002000E0401C42F21075A842FAD3ED
:10211000CDB2B94EB5602825B561002000E0401C65
:1021200042F21075A842FAD30DE012F8015BB24EEC
:10213000B5602825B561002000E0401C42F2107512
:10214000A842FAD35B1E002BEFD11025AA4E3560B2
:102150002825B561002000E0401C42F21075A8421D
:10216000FAD370BD2DE9F84F80460E461746002081
:102170009B4948609F494860A0494861082F39D968
:10218000C7F3CF00009007F0070A002416E0B1461D
:1021900009EBC4091FFA88FB0BEBC4001FFA80FB94
:1021A00008234A465946A020FFF78BFF4FF400252D
:1021B00000E06D1E002DFCD1601C84B200988442AA
:1021C000E5DBBAF1000F21DDB14609EBC4091FFAC6
:1021D00088FB0BEBC4001FFA80FB53464A46594666
:1021E000A020FFF76EFF4FF4002500E06D1E002DCC
:1021F000FCD10BE03B4632464146A020FFF761FF91
:102200004FF4002500E06D1E002DFCD10120744923
:10221000486078494860042078494861BDE8F88FF3
:102220000146774830F81100764A10801046008841
:10223000704770B505460C462846FFF7F1FF724916
:1022400008800988091B08B2FEF743F86F49088027
:102250000846008870BD2DE9F043A7B0054600246C
:1022600001222146641C01A8425403222146641C19
:10227000425407222146641C425482222146641C97
:10228000425400222146641C425413222146641CFD
:1022900042542A122146641C42542046611CCCB28E
:1022A00001A90D5401AEE11EF01CFFF7EDFE8146C1
:1022B0002046611CCCB201A901F800904FEA292206
:1022C0002046611CCCB201A90A5400BF0220454936
:1022D000C863A04608E037783846FFF7A8FE761CAA
:1022E000A8F101001FFA80F8B8F1000FF3DC02201A
:1022F0003C4988630120FFF793FF4549088007E0C8
:10230000434801880120FFF794FF042800DD00E026
:10231000F6E700BF27B0BDE8F0833E48007A40F002
:1023200001003C4908720120087070470FB43A4917
:10233000009808703749019881F8240037490298BD
:1023400008703449039881F82C00069881F8300011
:1023500007988886049881F838000598888704B023
:1023600070472F48006840F400702E49C1F8C4003F
:102370002D48007810F0100F06D02B48007840F060
:102380001000244981F85C004FF0000021490874D6
:102390000873087270471F48007A20F001001D4939
:1023A0000872704710B588B004461B48007800904A
:1023B000184890F8240001901848007802901B48B3
:1023C000007803901A48007806901248808E079093
:1023D0001848007804900F48808F05902CE000008A
:1023E00000C0004000C00920C0270900808D5B00AC
:1023F000404B4C000000014000C0054000800840F8
:10240000BA0300105A0200105C0200105E020010B5
:102410005802001000400240204002402840024084
:10242000C4C00F4000C00F405C4002402C4002403E
:1024300030400240384002404FF0200269462046BA
:102440001CF0B8FC08B010BD2DE9F04FADF60C2D16
:1024500000210D91002400260C910B910991FE485A
:102460004178CDF8001A8178CDF8081AC178CDF8F6
:10247000041ADDF8041ADDF8080A41EA0025DDF83F
:10248000000A102801F0FD8007DC03280FD0042883
:102490005BD0062843F04D809CE0672802F0FE8464
:1024A000682802F03E856A28F4D102F0C6B9B5F575
:1024B000805F46DB41F2C970854242DCE6484079E4
:1024C000E549097940EA0128B8F5EB6F36DC05EB00
:1024D000080041F25871884230DC4FF6FF7000EA84
:1024E0004808A5F5805085B2002614E0A819DB49FC
:1024F00031F810000112E01C0DF5C3621154601C8C
:1025000084B2A819D54911F81010E01C1154601CB0
:1025100084B2701C86B24645E8DBD14801788DF85C
:102520001816DDF8001A8DF8191608F0FF018DF85D
:102530001A169DF81A06C01C0D9004E0022009909E
:1025400001E00320099002F0F7BFB5F51A6F3EDCF9
:10255000C1484079C049097940EA0128B8F51A6FA5
:1025600032DC05EB0800B0F51A6F2DDC4FF6FF707A
:1025700000EA4808002614E0A819BA4931F810000A
:102580000112E01C0DF5C3621154601C84B2A8193D
:10259000B44911F81010E01C1154601C84B2701C76
:1025A00086B24645E8DBAE4801788DF81816DDF8AE
:1025B000001A8DF8191608F0FF018DF81A1608F1A7
:1025C000030081B20D9104E00220099001E0032094
:1025D0000990B8E7B5F5805F7EDB41F24D0085429A
:1025E0007ADA9D4890F804A090F805B04BEA0A27E3
:1025F000B5F5805F17D1A7F52A40AA3806D101208A
:10260000994908809949087001F017B8A7F5AA40C0
:10261000553805D194490880012094490870F3E7A2
:1026200004200990F0E741F20100854205D0A5F5AC
:102630008050023801D0401E02D104200990E3E707
:10264000A5F58050043811D1FFF7A5FEFFF789FEEC
:1026500087484761034610330FCB8DE80F0084484D
:102660000FC8FFF763FEFFF758FECDE7A5F58050D2
:10267000053818D1FFF78FFEFFF773FE7C48C0F8CE
:1026800010A0C0F80CB00146D1E905030A69C96978
:10269000CDE90231CDE9002075480FC8FFF746FEAD
:1026A000FFF73BFEB0E7A5F58050063815D1FFF7E0
:1026B00072FEFFF756FE6E48C0F808A0C0F804B0DE
:1026C000034610330FCB8DE80F0069480FC8FFF7A2
:1026D0002DFEFFF722FE97E7F6E3A5F580500738B9
:1026E00011D1FFF758FEFFF73CFE61480760034633
:1026F00010330FCB8DE80F005D480FC8FFF716FEB3
:10270000FFF70BFE80E7A5F58050083835D1594812
:1027100007800120584908705849087058490870C6
:1027200058490870584908700026002414E05148A0
:1027300030F8140001123046721C96B20DF24C5261
:1027400011544C4810F814103046721C96B20DF219
:102750004C521154601C84B2642CE8DB4FF400101E
:102760004A49C861C8220DF24C510020FFF7FAFC1B
:102770004FF400104549886146E7A5F580500938B7
:1027800035D13C48478001203B4908703B490870DF
:102790003B4908703B4908703B49087000260024FB
:1027A00014E0344830F8140001123046721C96B21E
:1027B0000DF24C5211542F4810F814103046721C70
:1027C00096B20DF24C521154601C84B2642CE8DBBA
:1027D0004FF400102D49C861C8220DF24C51002061
:1027E000FFF7C0FC4FF40010284988610CE7A5F5FD
:1027F00080500A3853D11F48878001201E49087035
:102800001E4908701E4908701E4908701E4908704C
:102810000026002414E0174830F814000112304656
:10282000721C96B20DF24C521154124810F814104A
:102830003046721C96B20DF24C521154601C84B298
:10284000642CE8DB4FF400101049C861C8220DF277
:102850004C5100201CE000003C2F001020460010CE
:10286000A2020010C03200103C0300101003001040
:102870006C570010B2070010E5020010E8020010CB
:10288000E9020010EA020010EB02001000C009206B
:10289000FFF768FC4FF40010FE498861B4E6A5F527
:1028A00080500B3835D1FC48C7800120FB490870A7
:1028B000FB490870FB490870FB490870FB49087028
:1028C0000026002414E0F44830F8140001123046C9
:1028D000721C96B20DF24C521154EF4810F81410BD
:1028E0003046721C96B20DF24C521154601C84B2E8
:1028F000642CE8DB4FF40010E649C861C8220DF2F1
:102900004C510020FFF72EFC4FF40010E149886184
:102910007AE6A5F580500C3835D1DF4807810120D3
:10292000DE490870DE490870DE490870DE4908702B
:10293000DE4908700026002414E0D74830F814005F
:1029400001123046721C96B20DF24C521154D2480C
:1029500010F814103046721C96B20DF24C521154FD
:10296000601C84B2642CE8DB4FF40010C949C861D4
:10297000C8220DF24C510020FFF7F4FB4FF4001079
:10298000C449886140E6A5F580500D3835D1C2486C
:1029900047810120C1490870C1490870C1490870C8
:1029A000C1490870C14908700026002414E0BA48E3
:1029B00030F8140001123046721C96B20DF24C52DF
:1029C0001154B54810F814103046721C96B20DF22E
:1029D0004C521154601C84B2642CE8DB4FF400109C
:1029E000AC49C861C8220DF24C510020FFF7BAFB78
:1029F0004FF40010A749886106E6A5F580500E380F
:102A000035D1A54887810120A4490870A4490870E0
:102A1000A4490870A4490870A4490870002600243D
:102A200014E09D4830F8140001123046721C96B232
:102A30000DF24C521154984810F814103046721C84
:102A400096B20DF24C521154601C84B2642CE8DB37
:102A50004FF400108F49C861C8220DF24C5100207C
:102A6000FFF780FB4FF400108A498861CCE5A5F59B
:102A700080500F3835D18848C781012087490870B8
:102A80008749087087490870874908708749087026
:102A90000026002414E0804830F81400011230466B
:102AA000721C96B20DF24C5211547B4810F814105F
:102AB0003046721C96B20DF24C521154601C84B216
:102AC000642CE8DB4FF400107249C861C8220DF293
:102AD0004C510020FFF746FB4FF400106D49886110
:102AE00092E5A5F58050103835D16B48078201205A
:102AF0006A4908706A4908706A4908706A4908702A
:102B00006A4908700026002414E0634830F8140075
:102B100001123046721C96B20DF24C5211545E48AE
:102B200010F814103046721C96B20DF24C5211542B
:102B3000601C84B2642CE8DB4FF400105549C86176
:102B4000C8220DF24C510020FFF70CFB4FF400108F
:102B50005049886158E5A5F58050113835D14E4867
:102B6000478201204D4908704D4908704D49087051
:102B70004D4908704D4908700026002414E046486D
:102B800030F8140001123046721C96B20DF24C520D
:102B90001154414810F814103046721C96B20DF2D0
:102BA0004C521154601C84B2642CE8DB4FF40010CA
:102BB0003849C861C8220DF24C510020FFF7D2FA03
:102BC0004FF40010334988611EE5A5F58050123896
:102BD00035D131488782012030490870304908706A
:102BE00030490870304908703049087000260024C8
:102BF00014E0294830F8140001123046721C96B2D5
:102C00000DF24C521154244810F814103046721C26
:102C100096B20DF24C521154601C84B2642CE8DB65
:102C20004FF400101B49C861C8220DF24C5100201E
:102C3000FFF798FA4FF4001016498861E4E4A5F50F
:102C40008050133844D11448C782012013490870BA
:102C50001349087013490870134908701349087024
:102C60000026002414E00C4830F81400011230460D
:102C7000721C96B20DF24C521154074810F8141001
:102C80003046721C96B20DF24C521154601C84B244
:102C9000642C0DE000C00920B2070010E50200100E
:102CA000E8020010E9020010EA020010EB02001036
:102CB000D9DB4FF40010FE49C861C8220DF24C5117
:102CC0000020FFF74FFA4FF40010F94988619BE4A8
:102CD000A5F58050143835D1F64807830120F64910
:102CE0000870F6490870F6490870F6490870F64908
:102CF00008700026002414E0EE4830F81400011299
:102D00003046721C96B20DF24C521154E94810F83C
:102D100014103046721C96B20DF24C521154601CC5
:102D200084B2642CE8DB4FF40010E149C861C8228A
:102D30000DF24C510020FFF715FA4FF40010DC495A
:102D4000886161E4A5F58050153835D1D9484783AD
:102D50000120D9490870D9490870D9490870D94962
:102D60000870D94908700026002414E0D14830F8D2
:102D7000140001123046721C96B20DF24C521154DE
:102D8000CC4810F814103046721C96B20DF24C521A
:102D90001154601C84B2642CE8DB4FF40010C44969
:102DA000C861C8220DF24C510020FFF7DBF94FF447
:102DB0000010BF49886127E4A5F58050163835D149
:102DC000BC4887830120BC490870BC490870BC49D5
:102DD0000870BC490870BC4908700026002414E043
:102DE000B44830F8140001123046721C96B20DF24D
:102DF0004C521154AF4810F814103046721C96B261
:102E00000DF24C521154601C84B2642CE8DB4FF478
:102E10000010A749C861C8220DF24C510020FFF7ED
:102E2000A1F94FF40010A249886114E2A5F5805081
:102E3000173835D19F48C78301209F4908709F49A3
:102E400008709F4908709F4908709F4908700026C4
:102E5000002414E0974830F8140001123046721C28
:102E600096B20DF24C521154924810F8141030469C
:102E7000721C96B20DF24C521154601C84B2642C38
:102E8000E8DB4FF400108A49C861C8220DF24C51AA
:102E90000020FFF767F94FF4001085498861CCE303
:102EA000A5F58050183836D1824807840120824920
:102EB0000870824908708249087082490870824906
:102EC00008700026002415E016E17A4830F8140056
:102ED00001123046721C96B20DF24C5211547548D4
:102EE00010F814103046721C96B20DF24C52115468
:102EF000601C84B2642CE8DB4FF400106C49C8619C
:102F0000C8220DF24C510020FFF72CF94FF40010AD
:102F10006749886191E3A5F58050193835D1654836
:102F20004784012064490870644908706449087046
:102F300064490870644908700026002414E05D4864
:102F400030F8140001123046721C96B20DF24C5249
:102F50001154584810F814103046721C96B20DF2F5
:102F60004C521154601C84B2642CE8DB4FF4001006
:102F70004F49C861C8220DF24C510020FFF7F2F80A
:102F80004FF400104A49886157E3A5F580501A387C
:102F900035D14848078501204749087047490870DE
:102FA00047490870474908704749087000260024BF
:102FB00014E0404830F8140001123046721C96B2FA
:102FC0000DF24C5211543B4810F814103046721C4C
:102FD00096B20DF24C521154601C84B2642CE8DBA2
:102FE0004FF400103249C861C8220DF24C51002044
:102FF000FFF7B8F84FF400102D4988611DE341F246
:103000001B00854286DB41F24C008542BCDCA5F505
:1030100080501B382D4921F810700026002412E042
:103020002A4830F81400012808D1601C81B206F14A
:103030001F00204A22F81010701C86B2122E00DDEC
:1030400003E0601C84B2322CEADB00BF194886879B
:10305000002408E0002106F11F002044154A22F850
:103060001010601C84B2C6F11300A042F2DC0120F3
:103070001149087011490870114908701149087008
:10308000114908700026002425E00A4830F8140091
:1030900001123046721C96B20DF24C521154054882
:1030A00010F814103046721C96B20DF24C520FE01C
:1030B00000C00920B2070010E5020010E80200106D
:1030C000E9020010EA020010EB0200107C08001078
:1030D0001154601C84B2642CD7DB4FF40010FB4900
:1030E000C861C8220DF24C510020FFF73BF84FF4A5
:1030F0000010F6498861A0E241F24D00854206DBEE
:1031000041F2FF00854202DA0420099095E2A5F51C
:103110008050FF3809D1EE4890F804A090F805B02F
:103120004BEA0A27EB48078087E2B5F5885F61DB49
:1031300041F2501085425DDCE6480088A0F5EE4182
:10314000773954D1E24890F804A090F805B04BEAE2
:103150000A27B5F5885F02D1DF48878413E041F282
:103160000110854202D1DC48C7840CE0A5F58850E7
:10317000023802D1D848478505E0A5F58050ED38E2
:10318000D54921F810700120D4490870D44908703D
:10319000D4490870D4490870D44908700026002426
:1031A00014E0CD4830F8140001123046721C96B27B
:1031B0000DF24C521154C84810F814103046721CCD
:1031C00096B20DF24C521154601C84B2642CE8DBB0
:1031D0004FF40010BD49C861C8220DF24C510020C7
:1031E000FEF7C0FF4FF40010B849886125E20420C3
:1031F000099022E241F25110854206DB41F2B410FF
:10320000854202DC0420099017E241F2B5108542A4
:103210007BDB41F29C50854277DCAE480088A0F50C
:103220000841883972D1AA4890F804A090F805B0F6
:103230004BEA0A2741F2B51085420DDB41F2182016
:10324000854209DCA5F58850B538A94921F81070E8
:103250000120A8490870F0E141F2192085420EDBF7
:1032600041F27C2085420ADCA5F590501938A0492E
:10327000C83121F8107001209F490870DDE141F24A
:103280007D2085420ADBB5F5975F07DC281A9B494C
:1032900021F8107001209A490870CEE1B5F5975FCA
:1032A0000EDD41F2443085420ADC41F2E120291A68
:1032B0009248C83020F81170012092490870BCE192
:1032C00041F2453085420DDB41F2A830854209DCF0
:1032D000A5F5985045388C4921F8107001208B498C
:1032E0000870AAE141F2A930854210DB41F20C409E
:1032F00085420CDCA5F59850A9388349C83121F8DE
:10330000107001208249087097E14DE049E041F2D8
:103310000D4085420DDB41F27040854209DCA5F588
:10332000A0500D387B4921F8107001207A490870AF
:1033300083E141F2714085420EDB41F2D440854287
:103340000ADCA5F5A05071387249C83121F8107017
:1033500001207249087070E141F2D54085420DDBD1
:1033600041F27C20854209DCA5F5A050D5386C4996
:1033700021F8107001206B4908705EE141F239506C
:1033800085428ADB41F29C50854286DCA5F5A85037
:1033900039386349C83121F810700120624908703A
:1033A0004BE10420099048E141F29D5085427ADBCF
:1033B00041F2C860854276DC46480088A0F5194194
:1033C000993971D1424890F804A090F805B04BEAC1
:1033D0000A2741F29D5085422FDBB5F5B05F2CDC0A
:1033E000281A524921F810700026002414E04F4892
:1033F00030F8140001123046721C96B20DF24C5295
:1034000011544A4810F814103046721C96B20DF24E
:103410004C521154601C84B2642CE8DB4FF4001051
:103420002A49C861C8220DF24C511046FEF79AFE97
:103430004FF4001025498861A4E0B5F5B05F34DD94
:1034400041F26460854230DC41F20160281A38495B
:1034500021F810700026002414E0354830F81400DC
:1034600001123046721C96B20DF24C521154304883
:1034700010F814103046721C96B20DF24C521154D2
:10348000601C84B2642CE8DB4FF400100F49C86163
:10349000C8220DF24C515000FEF764FE4FF40010AC
:1034A0000A4988616EE07CE078E041F2656085421F
:1034B00068DB41F2C860854264DCA5F5B050653830
:1034C0001C4921F81070002600244AE000C00920A1
:1034D0003C2F001012030010B2070010E50200108C
:1034E000E8020010E9020010EA020010EB020010EE
:1034F000F0240010EC020010ED02001080260010F5
:10350000EE020010EF02001010280010F002001070
:10351000F1020010A0290010F2020010F3020010C6
:10352000302B0010F4020010F5020010B00A001059
:10353000780B0010400C0010F74830F8140001120E
:103540003046721C96B20DF24C521154F24810F8EB
:1035500014103046721C96B20DF24C521154601C7D
:1035600084B2642CE8DB4FF40010EC49C861C82237
:103570000DF24C514FF41670FEF7F4FD4FF40010AD
:10358000E64988610120E6490870E6490870E64985
:103590000870E6490870E64908704EE0042009907A
:1035A0004BE041F2C960854245DB41F22B70854218
:1035B00041DCE04890F804A090F805B04BEA0A27F7
:1035C000A5F5B050C938DC4921F810700026002458
:1035D00014E0D94830F8140001123046721C96B23B
:1035E0000DF24C521154D44810F814103046721C8D
:1035F00096B20DF24C521154601C84B2642CE8DB7C
:103600004FF40010C549C861C8220DF24C514FF467
:103610008750FEF7A7FD4FF40010C04988610120D4
:10362000BF490870BF490870BF490870BF4908709A
:10363000BF49087001E0032009900120BF490870CC
:10364000BF490870BF490870BF490870BF4908707A
:10365000BF4801788DF81816DDF8001A8DF8191694
:10366000B44881788DF81A16C1788DF81B16017947
:103670008DF81C1641798DF81D1606210D9101F06B
:103680005BBFB5F5805F7CDB41F24D00854278DCA5
:10369000A8484079A749097940EA01200F90A54838
:1036A00090F8068000210C910B91F9E30C98C01D55
:1036B000A04911F800A00C98083011F800B04BEAAE
:1036C0000A270C98801C81B20C910B9828441FFA91
:1036D00080F9B9F5805F2DD1A7F52A40AA3811D11C
:1036E00001209C49088001A8FEF75CFE202201A968
:1036F00099481BF05FFB0420984908700120984905
:10370000087000E2A7F5AA40553810D19149088009
:1037100001A8FEF747FE202201A98F481BF04AFBB3
:1037200003208E49087001208D490870E9E70420C4
:103730000990E6E741F20100814505D0A9F58050E6
:10374000023801D0401E02D104200990D9E7A9F522
:103750008050043816D1FEF71EFEFEF702FE8148A7
:1037600047610346D3E90412D3E90603CDE9020316
:10377000CDE900127B480FC8FEF7D8FDFEF7CDFD5E
:10378000BFE7FDE3A9F58050053814D1FEF703FE2D
:10379000FEF7E7FD7348C0F810A0C0F80CB0034670
:1037A00010330FCB8DE80F006E480FC8FEF7BEFD3B
:1037B000FEF7B3FDA5E7A9F58050063814D1FEF752
:1037C000EAFDFEF7CEFD6748C0F808A0C0F804B0D7
:1037D000034610330FCB8DE80F0062480FC8FEF789
:1037E000A5FDFEF79AFD8CE7A9F58050073811D1A9
:1037F000FEF7D1FDFEF7B5FD5A48076003461033CA
:103800000FCB8DE80F0057480FC8FEF78FFDFEF76E
:1038100084FD76E7A9F58050083833D152480780F7
:1038200001203F4908703F4908703F4908703F49EF
:1038300008700026002414E04B4830F814000112F0
:103840003046721C96B20DF24C521154464810F894
:1038500014103046721C96B20DF24C521154601C7A
:1038600084B2642CE8DB4FF400102C49C861C822F4
:103870000DF24C510020FEF775FC4FF40010274963
:1038800088613EE7A9F58050093833D13648478032
:1038900001202349087023490870234908702349EF
:1038A00008700026002414E02F4830F8140001129C
:1038B0003046721C96B20DF24C5211542A4810F840
:1038C00014103046721C96B20DF24C521154601C0A
:1038D00084B2642CE8DB4FF400101049C861C822A0
:1038E0000DF24C510020FEF73DFC4FF400100B4947
:1038F000886106E7A9F580500A385DD11A488780AB
:1039000001200749087007490870074908700749EE
:103910000870002600243EE0400C001000C0092082
:10392000E5020010E8020010E9020010EA020010AF
:10393000EB0200103C2F0010E0080010F70200100E
:10394000F8020010F9020010FA020010FB02001049
:10395000A20200103C030010CC5700104C040010D1
:103960004D0400106C570010B2070010FB4830F8EF
:10397000140001123046721C96B20DF24C521154D2
:10398000F64810F814103046721C96B20DF24C52E4
:103990001154601C84B2642CE8DB4FF40010F04931
:1039A000C861C8220DF24C510020FEF7DBFB4FF43A
:1039B0000010EB498861A4E6A9F580500B3833D19B
:1039C000E648C7800120E7490870E7490870E749E1
:1039D0000870E74908700026002414E0DF4830F83A
:1039E000140001123046721C96B20DF24C52115462
:1039F000DA4810F814103046721C96B20DF24C5290
:103A00001154601C84B2642CE8DB4FF40010D449DC
:103A1000C861C8220DF24C510020FEF7A3FB4FF401
:103A20000010CF498861D6E3A9F580500C3833D116
:103A3000CA4807810120CB490870CB490870CB499F
:103A40000870CB4908700026002414E0C34830F801
:103A5000140001123046721C96B20DF24C521154F1
:103A6000BE4810F814103046721C96B20DF24C523B
:103A70001154601C84B2642CE8DB4FF40010B84988
:103A8000C861C8220DF24C510020FEF76BFB4FF4C9
:103A90000010B34988619EE3A9F580500D3833D1F9
:103AA000AE4847810120AF490870AF490870AF495F
:103AB0000870AF4908700026002414E0A74830F8C9
:103AC000140001123046721C96B20DF24C52115481
:103AD000A24810F814103046721C96B20DF24C52E7
:103AE0001154601C84B2642CE8DB4FF400109C4934
:103AF000C861C8220DF24C510020FEF733FB4FF491
:103B000000109749886166E3A9F580500E3833D1DB
:103B1000924887810120934908709349087093491E
:103B20000870934908700026002414E08B4830F890
:103B3000140001123046721C96B20DF24C52115410
:103B4000864810F814103046721C96B20DF24C5292
:103B50001154601C84B2642CE8DB4FF400108049DF
:103B6000C861C8220DF24C510020FEF7FBFA4FF459
:103B700000107B4988612EE3A9F580500F3833D1BE
:103B80007648C781012077490870774908707749DE
:103B90000870774908700026002414E06F4830F858
:103BA000140001123046721C96B20DF24C521154A0
:103BB0006A4810F814103046721C96B20DF24C523E
:103BC0001154601C84B2642CE8DB4FF4001064498B
:103BD000C861C8220DF24C510020FEF7C3FA4FF421
:103BE00000105F498861F6E2A9F58050103833D1A2
:103BF0005A48078201205B4908705B4908705B499D
:103C000008705B4908700026002414E0534830F81F
:103C1000140001123046721C96B20DF24C5211542F
:103C20004E4810F814103046721C96B20DF24C52E9
:103C30001154601C84B2642CE8DB4FF40010484936
:103C4000C861C8220DF24C510020FEF78BFA4FF4E8
:103C5000001043498861BEE2A9F58050113833D184
:103C60003E48478201203F4908703F4908703F495C
:103C700008703F4908700026002414E0374830F8E7
:103C8000140001123046721C96B20DF24C521154BF
:103C9000324810F814103046721C96B20DF24C5295
:103CA0001154601C84B2642CE8DB4FF400102C49E2
:103CB000C861C8220DF24C510020FEF753FA4FF4B0
:103CC00000102749886186E2A9F58050123833D167
:103CD000224887820120234908702349087023491C
:103CE0000870234908700026002414E01B4830F8AF
:103CF000140001123046721C96B20DF24C5211544F
:103D0000164810F814103046721C96B20DF24C5240
:103D10001154601C84B2642CE8DB4FF4001010498D
:103D2000C861C8220DF24C510020FEF71BFA4FF477
:103D300000100B4988614EE2A9F5805013383FD13D
:103D40000648C782012007490870074908700749DB
:103D50000870074908700026002420E0B207001010
:103D600000C00920E5020010E8020010E90200107E
:103D7000EA020010FA4830F8140001123046721CB2
:103D800096B20DF24C521154F54810F8141030460A
:103D9000721C96B20DF24C521154601C84B2642C09
:103DA000E8DB4FF40010EF49C861C8220DF24C5116
:103DB0000020FEF7D7F94FF40010EA4988610AE2C3
:103DC000A9F58050143833D1E54807830120E6492E
:103DD0000870E6490870E6490870E6490870002650
:103DE000002414E0DE4830F8140001123046721C42
:103DF00096B20DF24C521154D94810F814103046B6
:103E0000721C96B20DF24C521154601C84B2642C98
:103E1000E8DB4FF40010D349C861C8220DF24C51C1
:103E20000020FEF79FF94FF40010CE498861D2E1DF
:103E3000A9F58050153834D1C94847830120CA49B3
:103E40000870CA490870CA490870CA490870002633
:103E5000002414E0C24830F8140001123046721CED
:103E600096B20DF24C521154BD4810F81410304661
:103E7000721C96B20DF24C521154601C84B2642C28
:103E8000E8DB4FF40010B749C861C8220DF24C516D
:103E90000020FEF767F94FF40010B24988619AE1FB
:103EA0009DE1A9F58050163833D1AD4887830120B4
:103EB000AD490870AD490870AD490870AD4908704A
:103EC0000026002414E0A64830F814000112304601
:103ED000721C96B20DF24C521154A14810F81410F5
:103EE0003046721C96B20DF24C521154601C84B2D2
:103EF000642CE8DB4FF400109A49C861C8220DF227
:103F00004C510020FEF72EF94FF4001095498861BE
:103F100061E1A9F58050173835D19148C783012058
:103F20009149087091490870914908709149087049
:103F30000026002414E08A4830F8140001123046AC
:103F4000721C96B20DF24C521154854810F81410A0
:103F50003046721C96B20DF24C521154601C84B261
:103F6000642CE8DB4FF400107E49C861C8220DF2D2
:103F70004C510020FEF7F6F84FF40010794900E0AC
:103F800033E1886127E1A9F58050183833D17448AE
:103F900007840120744908707449087074490870D6
:103FA000744908700026002414E06D4830F81400AD
:103FB00001123046721C96B20DF24C5211546848F0
:103FC00010F814103046721C96B20DF24C52115477
:103FD000601C84B2642CE8DB4FF400106149C861B6
:103FE000C8220DF24C510020FEF7BCF84FF400102F
:103FF0005C498861EFE0A9F58050193833D1584801
:104000004784012058490870584908705849087079
:10401000584908700026002414E0514830F8140074
:1040200001123046721C96B20DF24C5211544C489B
:1040300010F814103046721C96B20DF24C52115406
:10404000601C84B2642CE8DB4FF400104549C86161
:10405000C8220DF24C510020FEF784F84FF40010F6
:1040600040498861B7E0A9F580501A3833D13C48FF
:10407000078501203C4908703C4908703C4908709C
:104080003C4908700026002414E0354830F814003C
:1040900001123046721C96B20DF24C521154304847
:1040A00010F814103046721C96B20DF24C52115496
:1040B000601C84B2642CE8DB4FF400102949C8610D
:1040C000C8220DF24C510020FEF74CF84FF40010BE
:1040D000244988617FE041F21B00814575DB41F294
:1040E0004C00814571DCA9F580501B38224921F82C
:1040F00010700026002412E01F4830F81400012838
:1041000008D1601C81B206F11F00154A22F8101078
:10411000701C86B2122E00DD03E0601C84B2322CCB
:10412000EADB00BF0E488687002408E0002106F184
:104130001F0020440A4A22F81010601C84B2C6F105
:104140001300A042F2DC01200749087007490870FB
:1041500007490870074908700026002423E0000082
:10416000B207001000C00920E5020010E8020010AC
:10417000E9020010EA0200107C080010F84830F84C
:10418000140001123046721C96B20DF24C521154BA
:10419000F34810F814103046721C96B20DF24C52CF
:1041A0001154601C84B2642CE8DB4FF40010ED491C
:1041B000C861C8220DF24C510020FDF7D3FF4FF427
:1041C0000010E849886106E0FFE7A9F58050FF3854
:1041D00001D1E54807800B98401C81B20B910F99E3
:1041E0000B988842FFF662AA04E3B5F5885F7DDB91
:1041F00041F25010854279DCDB480088A0F5EE41A1
:10420000773977D1D9484079D849097940EA0120EE
:104210000F90D64890F8068000210C910B9161E038
:104220000C98C01DD14911F800A00C98083011F865
:1042300000B04BEA0A270C98801C81B20C910B98B5
:1042400028441FFA80F9B9F5885F02D1C4488784F1
:1042500013E041F20110814502D1C148C7840CE04E
:10426000A9F58850023802D1BD48478505E0A9F577
:104270008050ED38BA4921F810700120BC4908700F
:10428000BC490870BC490870BC490870002600246D
:1042900014E0B34830F8140001123046721C96B294
:1042A0000DF24C521154AE4810F814103046721CE6
:1042B00096B20DF24C521154601C84B2642CE8DBAF
:1042C0004FF40010A749C861C8220DF24C510020DC
:1042D000FDF748FF4FF40010A24988610B98401C7D
:1042E00081B20B910F990B98884201E005E001E043
:1042F00096DB7FE2042009907CE241F2B510854212
:1043000072DB41F29C5085426EDC97480088A0F534
:104310000841883969D1954840799449097940EA3A
:1043200001200F90914890F8068000210C910B918C
:10433000CEE00C98C01D8D4911F800A00C980830F3
:1043400011F800B04BEA0A270C98801C81B20C913E
:104350000B9828441FFA80F941F2B51081450DDB16
:1043600041F21820814509DCA9F58850B538844907
:1043700021F81070012083490870A5E041F219204E
:1043800081450EDB41F27C2081450ADCA9F5905085
:1043900019387B49C83121F8107001207A4908701A
:1043A00092E041F27D2081450BDBB9F5975F08DC97
:1043B000A9EB0000754921F81070012074490870BC
:1043C00082E0B9F5975F11DD41F2443081450DDCA3
:1043D00041F2E120A9EB00016C48C83020F81170CF
:1043E00001206C4908706FE07BE077E041F24530D6
:1043F00081450DDB41F2A830814509DCA9F59850D3
:104400004538654921F810700120644908705BE067
:1044100041F2A93081450EDB41F20C4081450ADCB6
:10442000A9F59850A9385C49C83121F810700120CD
:104430005B49087048E041F20D4081450DDB41F2D7
:104440007040814509DCA9F5A0500D38554921F887
:10445000107001205449087036E041F271408145E6
:104460000EDB41F2D44081450ADCA9F5A050713839
:104470004C49C83121F8107001204C49087023E0E4
:1044800041F2D54081450DDB41F27C20814509DCBC
:10449000A9F5A050D538464921F8107001204549AA
:1044A000087011E041F2395081450DDB41F29C501A
:1044B000814509DCA9F5A85039383D49C83121F8B2
:1044C000107001203C4908700B98401C81B20B9180
:1044D0000F990B988842FFF62CAF8BE104200990CE
:1044E00088E141F29D50854239DB41F2C860854246
:1044F00035DC1D480088A0F5194199397DD11B484C
:1045000040791A49097940EA01200F90174890F83C
:10451000068000210C910B91F5E00C98C01D134909
:1045200011F800A00C98083011F800B04BEA0A27E7
:104530000C98801C81B20C910B9828441FFA80F9CA
:1045400041F29D50814563DBB9F5B05F60DCA9EBBA
:1045500000001A4921F810700026002445E0DBE035
:10456000B207001000C00920120300103C2F0010F9
:10457000E5020010E8020010E9020010EA02001053
:10458000F0240010EC020010ED0200108026001054
:10459000EE020010EF02001010280010F0020010D0
:1045A000F1020010A0290010F2020010F302001026
:1045B000302B0010F4020010F5020010B00A0010B9
:1045C000FE4830F8140001123046721C96B20DF20B
:1045D0004C521154F94810F814103046721C96B21F
:1045E0000DF24C521154601C84B2642CE8DB4FF481
:1045F0000010F349C861C82200E08AE00DF24C5176
:104600001046FDF7AFFD4FF40010ED4988616DE0F5
:10461000B9F5B05F33DD41F2646081452FDC41F2D2
:104620000160A9EB0000E74921F810700026002482
:1046300014E0E44830F8140001123046721C96B2BF
:104640000DF24C521154DF4810F814103046721C11
:1046500096B20DF24C521154601C84B2642CE8DB0B
:104660004FF40010D649C861C8220DF24C515000D9
:10467000FDF778FD4FF40010D149886136E041F232
:104680006560814532DB41F2C86081452EDCA9F5C9
:10469000B0506538CC4921F810700026002414E091
:1046A000C94830F8140001123046721C96B20DF25F
:1046B0004C521154C44810F814103046721C96B273
:1046C0000DF24C521154601C84B2642CE8DB4FF4A0
:1046D0000010BB49C861C8220DF24C514FF416704E
:1046E000FDF740FD4FF40010B54988610120B7493E
:1046F0000870B7490870B7490870B74908700B9837
:10470000401C81B20B910F990B988842FFF605AFC0
:1047100070E0042009906DE041F2C960854267DBDA
:1047200041F22B70854263DCAC484079AB49097992
:1047300040EA01200F90A94890F8068000210C91D2
:104740000B9136E00C98C01DA44911F800A00C98FC
:10475000083011F800B04BEA0A270C98801C81B28F
:104760000C910B9828441FFA80F9A9F5B050C9386C
:104770009B4921F810700026002414E0984830F876
:10478000140001123046721C96B20DF24C521154B4
:10479000934810F814103046721C96B20DF24C5229
:1047A0001154601C84B2642CE8DB0B98401C81B26D
:1047B0000B910F990B988842C4DB4FF4001080498D
:1047C000C861C8220DF24C514FF48750FDF7CAFC66
:1047D0004FF400107A49886101207C4908707C49B7
:1047E00008707C4908707C4908707E49087001E0B7
:1047F000032009907C4801788DF81816DDF8001A1E
:104800008DF81916754881788DF81A16C1788DF8CB
:104810001B1601798DF81C1641798DF81D1606219D
:104820000D91012071490870714908707149087033
:1048300071490870714908702FE3B5F5005F41DBDD
:1048400042F2D43085423DDC6448407963490979BD
:1048500040EA0128B8F55F7F31DA05EB080042F243
:104860007B3188422BDC4FF6FF7000EA4808A5F543
:10487000005085B200260FE00021E01C0DF5C36258
:104880001154601C84B2A8195D49095CE01C1154E4
:10489000601C84B2701C86B24645EDDB524801783C
:1048A0008DF81816DDF8001A8DF8191608F0FF01BA
:1048B0008DF81A169DF81A06C01C0D90EDE2022024
:1048C0000990EAE2B5F5405F41DB43F264008542BE
:1048D0003DDC424840794149097940EA0128B8F174
:1048E000640F31DC05EB080043F2650188422BDCE4
:1048F0004FF6FF7000EA4808A5F5405085B2002643
:104900000FE00021E01C0DF5C3621154601C84B25D
:10491000A8193C49095CE01C1154601C84B2701C4D
:1049200086B24645EDDB304801788DF81816DDF883
:10493000001A8DF8191608F0FF018DF81A169DF867
:104940001A06C01C0D90A8E202200990A5E2B5F558
:10495000445F69DB43F26410854265DC1F4840799F
:104960001E49097940EA0128B8F1640F59DC05EBCA
:10497000080043F26511884253DC4FF6FF7000EAED
:104980004808A5F5445085B2002610E00021E01C3F
:104990000DF5C3621154601C84B2A9191948643022
:1049A000415CE01C1154601C84B2701C86B2464508
:1049B000ECDB0D4801788DF8181625E0B00A0010E0
:1049C00000C00920780B0010400C0010E502001018
:1049D000E8020010E9020010EA0200103C2F00106B
:1049E000E0080010EB020010A2020010F702001015
:1049F000F8020010F9020010FA020010FB02001089
:104A00000C63001030670010DDF8001A8DF81916DD
:104A100008F0FF018DF81A169DF81A06C01C0D90BB
:104A20003BE20220099038E2B5F5485F41DB43F2F2
:104A3000642085423DDCFE484079FD49097940EA21
:104A40000128B8F1640F31DC05EB080043F2652161
:104A500088422BDC4FF6FF7000EA4808A5F5485065
:104A600085B200260FE00021E01C0DF5C362115451
:104A7000601C84B2A919EF48415CE01C1154601C11
:104A800084B2701C86B24645EDDBEB4801788DF8A8
:104A90001816DDF8001A8DF8191608F0FF018DF8C8
:104AA0001A169DF81A06C01C0D90F6E10220099016
:104AB000F3E1B5F54C5F42DB43F2643085423EDC06
:104AC000DB484079DA49097940EA0128B8F1640FF6
:104AD00032DC05EB080043F2653188422CDC4FF6EE
:104AE000FF7000EA4808A5F54C5085B2002610E09A
:104AF0000021E01C0DF5C3621154601C84B2A91999
:104B0000CC486430415CE01C1154601C84B2701CC1
:104B100086B24645ECDBC84801788DF81816DDF8FA
:104B2000001A8DF8191608F0FF018DF81A169DF875
:104B30001A06C01C0D90B0E102200990ADE1B5F558
:104B4000505F42DB43F2644085423EDCB848407926
:104B5000B749097940EA0128B8F1640F32DC05EB66
:104B6000080043F2654188422CDC4FF6FF7000EAF2
:104B70004808A5F5505085B2002610E00021E01C41
:104B80000DF5C3621154601C84B2A919A948C8303C
:104B9000415CE01C1154601C84B2701C86B2464516
:104BA000ECDBA54801788DF81816DDF8001A8DF8B1
:104BB000191608F0FF018DF81A169DF81A06C01C88
:104BC0000D906AE10220099067E1B5F5545F41DB81
:104BD00043F2645085423DDC954840799449097917
:104BE00040EA0128B8F1640F31DC05EB080043F21C
:104BF000655188422BDC4FF6FF7000EA4808A5F5A6
:104C0000545085B200260FE00021E01C0DF5C36270
:104C10001154601C84B2A9198848415CE01C1154ED
:104C2000601C84B2701C86B24645EDDB8248017878
:104C30008DF81816DDF8001A8DF8191608F0FF0126
:104C40008DF81A169DF81A06C01C0D9025E1022059
:104C5000099022E1B5F5585F42DB43F2646085427A
:104C60003EDC734840797249097940EA0128B8F17D
:104C7000640F32DC05EB080043F2656188422CDCEE
:104C80004FF6FF7000EA4808A5F5585085B2002697
:104C900010E00021E01C0DF5C3621154601C84B2C9
:104CA000A91966486430415CE01C1154601C84B250
:104CB000701C86B24645ECDB5F4801788DF818160B
:104CC000DDF8001A8DF8191608F0FF018DF81A1694
:104CD0009DF81A06C01C0D90DFE002200990DCE070
:104CE000B5F55C5F42DB43F2647085423EDC5048C0
:104CF00040794F49097940EA0128B8F1640F32DC64
:104D000005EB080043F2657188422CDC4FF6FF701A
:104D100000EA4808A5F55C5085B2002610E00021A5
:104D2000E01C0DF5C3621154601C84B2A9194348FC
:104D3000C830415CE01C1154601C84B2701C86B207
:104D40004645ECDB3C4801788DF81816DDF8001A72
:104D50008DF8191608F0FF018DF81A169DF81A063D
:104D6000C01C0D9099E00220099096E0B5F5605FB7
:104D700041DB43F6640085423DDC2D4840792C49F7
:104D8000097940EA0128B8F1640F31DC05EB08002D
:104D900043F6650188422BDC4FF6FF7000EA4808B5
:104DA000A5F5605085B200260FE00021E01C0DF54E
:104DB000C3621154601C84B2A9192148415CE01CF3
:104DC0001154601C84B2701C86B24645EDDB1A4853
:104DD00001788DF81816DDF8001A8DF8191608F00C
:104DE000FF018DF81A169DF81A06C01C0D9054E0AC
:104DF0000220099051E0B5F5645F4CDB43F6641086
:104E0000854248DC0A4840790949097940EA012885
:104E1000B8F1640F3CDC05EB080043F665118842ED
:104E200036DC4FF6FF7000EA4808A5F5645009E04B
:104E30003C2F0010F8670010A20200102469001037
:104E4000506A001085B200260FE00021E01C0DF52D
:104E5000C3621154601C84B2A919FE48415CE01C75
:104E60001154601C84B2701C86B24645EDDBFA48D2
:104E700001788DF81816DDF8001A8DF8191608F06B
:104E8000FF018DF81A169DF81A06C01C0D9004E05B
:104E90000220099001E0032009904DE3092D3DDC3B
:104EA000EE484079ED49097940EA0128B8F10A0F46
:104EB00031DC05EB08000A282DDC4FF6FF7000EA14
:104EC0004808002614E0A819E54931F8100001123D
:104ED000E01C0DF5C3621154601C84B2A819E049AE
:104EE00011F81010E01C1154601C84B2701C86B2C2
:104EF0004645E8DBD84801788DF81816DDF8001A29
:104F00008DF8191608F0FF018DF81A169DF81A068B
:104F1000C01C0D9004E00220099001E003200990DC
:104F20000AE3092D7EDC15BBCC484079CB490979D1
:104F300040EA0120CB49088008460088012801D0BA
:104F400000200880C44801788DF81816DDF8001A92
:104F50008DF8191602218DF81A16AA218DF81B1644
:104F60008DF81C169DF81A06C01C0D90E0E2052D68
:104F700020D1BC48008801281CD1B8484079B749E5
:104F8000097940EA0120B4490880084601788DF883
:104F90001816DDF8001A8DF8191602218DF81A1668
:104FA000AA218DF81B168DF81C169DF81A06C01C38
:104FB0000D90BDE2062D20D1AA48008801281CD101
:104FC000A6484079A549097940EA0120A649088008
:104FD000A14801788DF81816DDF8001A8DF8191619
:104FE00002218DF81A16AA218DF81B168DF81C16B1
:104FF0009DF81A06C01C0D909AE2072D7DD19948A4
:105000000088012879D100209849086098490860F3
:1050100098490860984908609849088040F2DF7014
:10502000974900E082E2088001209649088096496D
:1050300008800020954908609549086095490860F6
:105040008A480068010E8DF8181588480068010C20
:105050008DF8191585480088010A8DF81A158348BE
:1050600001788DF81B1582480068010E8DF81C151B
:105070007F480068010C8DF81D157D480088010AE5
:105080008DF81E157A4801788DF81F15794800684B
:10509000010E8DF8201577480068010C8DF8211558
:1050A00074480088010A8DF82215724801788DF83D
:1050B000231571480068010E8DF824156E480068AC
:1050C000010C8DF825156C480088010A8DF826150D
:1050D000694801788DF827156848008801128DF815
:1050E0002815664801788DF829154FF400106A4993
:1050F000C86108220DF5A36100E0D1E04FF476709D
:10510000FDF730F84FF4001063498861C8610A2246
:105110000DF5A4614FF47870FDF724F84FF40010FA
:105120005D49886154480068010E8DF81815524891
:105130000068010C8DF819154F480088010A8DF898
:105140001A154D4801788DF81B154C48008801123E
:105150008DF81C15494801788DF81D1548480088C0
:1051600001128DF81E15464801788DF81F15454827
:10517000008801128DF82015424801788DF821151C
:105180004148008801128DF822153F4801788DF8BA
:1051900023153E480068010E8DF824153B48006831
:1051A000010C8DF8251539480088010A8DF826155F
:1051B000364801788DF8271535480068010E8DF8BE
:1051C000281533480068010C8DF8291530480088EF
:1051D000010A8DF82A152E4801788DF82B152D48D7
:1051E0000068010E8DF82C152A480068010C8DF816
:1051F0002D1528480088010A8DF82E1525480178BC
:105200008DF82F154FF400102349C86118220DF5B1
:10521000A3614FF47970FCF7A5FF4FF400101E490D
:10522000886101201D4908700B4801788DF8181617
:10523000DDF8001A8DF8191602218DF81A16AA2128
:105240008DF81B168DF81C169DF81A06C01C0D90C3
:105250006EE10000506A0010A20200103C2F001006
:10526000C80900109A020010A40200107C0300106C
:1052700080030010700300106C030010780300100E
:105280008C0300108E0300109003001084030010A4
:10529000880300107403001000C00920CC02001025
:1052A000082D7DD1FE48008801287CD13020FCF7F4
:1052B000D2FF002404E00020FA490855601C84B2A3
:1052C00040F2D6308442F6DB4FF40010F649C86154
:1052D00040F2D632F349C012FCF744FF4FF40010FD
:1052E000F1498861002410E000260AE0002004EB68
:1052F000C40101EB0411ED4A02EB81018855701CD9
:1053000086B2642EF2DB601C84B20A2CECDB002433
:1053100004E0002010A90855601C84B2B4F5826F27
:10532000F7DB4FF40010E049C8614FF4826210A926
:105330008012FCF717FF4FF40010DB49886100244E
:1053400004E0002010A90855601C84B240F26240BD
:105350008442F6DB4FF40010D349C86140F2624248
:1053600010A94FF4B550FCF7FDFE4FF40010CE49E4
:1053700088610120CE490870CE4801788DF8181652
:10538000DDF8001A8DF8191602218DF81A16AA21D7
:105390008DF81B168DF81C169DF81A06C01C00E02F
:1053A00001E00D90C4E0092D7ED1BD4800880128A0
:1053B0007AD1C1480078082877D14FF4FA70BF49F4
:1053C0000880BF49088048808880C880088148815B
:1053D0008881C88108824882B84800880012B9498B
:1053E00081F85003B548007881F85103B44800882B
:1053F000001281F85203B248007881F85303B04894
:105400004088001281F85403AD48807881F8550334
:10541000AB488088001281F85603A948007981F8CA
:105420005703A748C088001281F85803A448807920
:1054300081F85903A2480089001281F85A03A04854
:10544000007A81F85B039E484089001281F85C0372
:105450009B48807A81F85D0399488089001281F821
:105460005E039748007B81F85F039548C08900126E
:1054700081F860039248807B81F861039048008A3C
:10548000001281F862038E48007C81F863038C4827
:10549000408A001281F864038948807C81F86503A2
:1054A0004FF40010804901E03DE023E0C861102284
:1054B00085494FF45470FCF755FE4FF400107A49BB
:1054C0008861C8610622804910314FF45870FCF79A
:1054D00049FE4FF400107449886101207B4908702F
:1054E0007B49087000207B4908704FF400606E49CA
:1054F000886503E04FF400606B4988656D4801786A
:105500008DF81816DDF8001A8DF8191602218DF89D
:105510001A16AA218DF81B168DF81C169DF81A066E
:10552000C01C0D9004E00220099001E003200990C6
:1055300002E00120099000BF00BF099870B15D48EA
:1055400001788DF81816DDF8000A8030C1B28DF8A8
:10555000191609998DF81A1603210D910DF5C360DE
:105560000D99FCF791FD0E900E98C2B20DF5C36334
:105570000D981A540E9802120D98401C1A540D984A
:10558000801C80B20D904FF4000047498861184696
:105590000A900D9C0CE00A980178CDF81416DDF8FD
:1055A0001406FCF762FD0A98411C0A91601E84B241
:1055B000002CF0DC4FF400003B49C8610DF60C2DC7
:1055C000BDE8F08F2DE9F04706460F469046994614
:1055D000A9F101041AE06422002330463946FAF7A3
:1055E00001FE15460A2095FBF0F195FBF0F200FB59
:1055F000125061F31F1008F80400642200233046A3
:105600003946FAF7EFFD06460F46641E002CE2DA33
:105610000020BDE8F0877CB541F234002E490880B7
:105620004FF6FF70488088800120C8802B4D0020F5
:1056300008814881280C8881CD81294D002008826D
:105640004882280C8882CD82264D0020088348831A
:10565000280C8883CD83244D002008844884280C9E
:105660008884CD844FF6FF70088548858885C88575
:105670001E4D002008864886280C8886CD86082383
:105680006A461B4903C9FFF79DFF9DF801009DF87D
:10569000001040EA0120104908879DF8030029E026
:1056A0009A0200100C63001000C00920306700103F
:1056B000CA020010A2020010C7010010E001001091
:1056C000D42C0010C01C001010200010F702001095
:1056D000CB020010CD020010C032001099CA9C5FAE
:1056E000BD888D5F15D91660F1689C5F41C1166059
:1056F000200400109DF8021040EA0120FC49488770
:105700009DF805009DF8041040EA0120F8498887BB
:105710009DF807009DF8061040EA0120F449C8876B
:1057200020208DF800008DF801009DF801009DF803
:10573000001040EA0140EE49A1F8400020208DF819
:1057400000008DF801009DF801009DF8001040EA6E
:105750000140E749A1F8420056208DF8000053208F
:105760008DF801009DF801009DF8001040EA01400D
:10577000DF49A1F8440054208DF8000038208DF84E
:1057800001009DF801009DF8001040EA0140D84951
:10579000A1F8460030208DF800008DF801009DF83A
:1057A00001009DF8001040EA0140D149A1F84800ED
:1057B0002D208DF8000031208DF801009DF80100AA
:1057C0009DF8001040EA0140C949A1F84A00322082
:1057D0008DF8000030208DF801009DF801009DF843
:1057E000001040EA0140C249A1F84C002F208DF87A
:1057F000000032208DF801009DF801009DF8001096
:1058000040EA0140BA49A1F84E002D208DF8000071
:1058100042208DF801009DF801009DF8001040EA3B
:105820000140B349A1F850002D208DF8000043201D
:105830008DF801009DF801009DF8001040EA01403C
:10584000AB49A1F852004FF48070A1F854008520B4
:10585000A1F856000420A1F858008002A1F85A00CF
:105860004E20A1F85C000320A1F85E004FF4007008
:10587000A1F8600040F2DC50A1F862000420A1F819
:1058800064004FF48850A1F8660040F2C950A1F8B6
:1058900068000320A1F86A004FF40060A1F86C00D2
:1058A000A020A1F86E000420A1F8700041F29D50E4
:1058B000A1F872004FF49670A1F874000320A1F8CB
:1058C00076004FF41060A1F87800A020A1F87A00CB
:1058D0000420A1F87C004FF6FF70A1F87E00A1F82B
:1058E0008000A1F88200A1F88400A1F88600A1F848
:1058F0008800A1F88A00A1F88C00A1F88E00A1F818
:105900009000A1F89200A1F894004B2406E04FF615
:10591000FF70774921F81400601C84B2FF2CF6DD7B
:105920007448B0F8C6007249A1F8000272480068D5
:10593000000CA1F8020270480088A1F804026F4828
:105940000068000CA1F806026C480088A1F8080263
:105950004FF6FF70A1F80A02A1F80C02A1F80E029E
:10596000A1F8100266480068000CA1F81202644811
:105970000088A1F8140263480078A1F81602624872
:105980000088A1F8180261480088A1F81A0260484E
:105990000088A1F81C025D484088A1F81E025C48FE
:1059A0004088A1F8200259488088A1F8220258486E
:1059B0008088A1F824025548C088A1F826025448DE
:1059C000C088A1F8280251480089A1F82A0250484D
:1059D0000089A1F82C024D484089A1F82E024C48BC
:1059E0004089A1F8300249488089A1F8320248482C
:1059F0008089A1F834024548C089A1F8360244489C
:105A0000C089A1F838024148008AA1F83A0240480A
:105A1000008AA1F83C023D48408AA1F83E023C4879
:105A2000408AA1F84002002409E03A4830F81410F6
:105A30002F4A04F2211022F81010601C84B2642C4A
:105A4000F3DB002409E0344830F81410284A04F548
:105A5000007022F81010601C84B2322CF3DB00249A
:105A600009E02E4830F81410214A04F2322022F8BE
:105A70001010601C84B2322CF3DB002409E02848AB
:105A800030F814101A4A04F5197022F81010601C2E
:105A900084B2322CF3DB002409E0224830F81410E1
:105AA000134A04F2962022F81010601C84B2322CA3
:105AB000F3DB002409E01C4830F814100C4A04F50C
:105AC000327022F81010601C84B2322CF3DB0024F8
:105AD00009E0164830F81410054A04F2FA2022F8BA
