:020000040000FA
:10000000287D0010A1010000A5010000A70100004B
:10001000B9010000BB010000BD01000000000000AC
:10002000000000000000000000000000BF01000010
:10003000C101000000000000C3010000C501000074
:10004000D9BE0100F9DC0100C7010000C7010000B2
:10005000C70100004123020005200200C701000083
:10006000AF240200C7010000C7010000C701000063
:10007000C7010000C701000017160000C7010000FB
:10008000C7010000DFB80100C7010000C701000080
:10009000C7010000C7010000C7010000C701000040
:1000A000C7010000C7010000C7010000C701000030
:1000B000C7010000C7010000C7010000C701000020
:1000C000C701000000F002F800F05AF80AA090E81A
:1000D000000C82448344AAF10107DA4501D100F003
:1000E0004FF8AFF2090EBAE80F0013F0010F18BF76
:1000F000FB1A43F001031847283E0200483E020065
:100100000A444FF0000C10F8013B13F0070408BF3D
:1001100010F8014B1D1108BF10F8015B641E05D0DB
:1001200010F8016B641E01F8016BF9D113F0080F90
:100130001EBF10F8014BAD1C0C1B09D16D1E58BF22
:1001400001F801CBFAD505E014F8016B01F8016B59
:100150006D1EF9D59142D6D37047000000230024CC
:1001600000250026103A28BF78C1FBD8520728BFC7
:1001700030C148BF0B6070471FB51FBD10B510BD23
:1001800022F00CFC1146FFF7F7FF21F0B7FE22F03A
:100190002AFC03B4FFF7F2FF03BC22F02BFC0000A3
:1001A0000C480047FEE71EF0040F0CBFEFF3088079
:1001B000EFF3098022F0E5BAFEE7FEE7FEE7FEE78F
:1001C000FEE7FEE7FEE7FEE703480449024A044B68
:1001D00070470000C5000000286D0010287D001049
:1001E000286D001053EA020C00F069802DE9F04BF5
:1001F0004FF00006002B1FBFB3FA83F503FA05F496
:1002000024FA05F65E4012BF1643B2FA82F502FAEE
:1002100005F4C5F120051EBF22FA05FC44EA0C04D2
:10022000203556EA044C4FEA144418BF641C4FF0C2
:1002300000084FF00009904271EB030C39D30029FC
:1002400019BFB1FA81F701FA07F6B0FA80F700FAA0
:1002500007F6C7F120071EBF20FA07FC46EA0C0686
:100260002037B6FBF4FCA7EB0507103F07F01F0B88
:10027000CBF120060CFA0BFB2CFA06F644BFB34672
:100280000026202FA4BF5E464FF0000B5BEA060C51
:1002900008BF4FF0010B19EB0B09ABFB027C48EBDD
:1002A0000608C01B06FB02CC0BFB03CC71EB0C0158
:1002B000C1E70B46024641464846BDE8F08B13B500
:1002C0004FF000004FF00001AFF30080BDE81C408C
:1002D0007047002800DA4042704770477047704707
:1002E00010B522F053FB006810BD10B5044622F093
:1002F0004DFB046010BD704700000000FFFFFFFFD2
:1003000020208549086000BF8348006810F0400F36
:10031000FAD00320814908604FF001008049C1F8FC
:100320000C014FF00F007F4908604FF00100A1F170
:10033000040108604FF0AA007B4908604FF05500A7
:100340007749C1F88C0000BF7848006810F0806FD2
:10035000FAD00320764908604FF0AA007049C1F82E
:100360008C004FF05500704908604FF02300714930
:1003700008604FF00100A1F1040108604FF0AA00ED
:100380006D4908604FF05500086000BF6B48006879
:1003900010F4806FFAD00320694908604FF0AA007A
:1003A0005F49C1F8AC004FF05500634908604FF059
:1003B00000006449086001F1040108606248634973
:1003C00008604FF000005649C1F8C8010846D0F84F
:1003D0008800C0F30160032868D15D48006810F010
:1003E000030006D0012823D002283FD003285CD187
:1003F00000E000BF4D480068C0F30E0000F10100AE
:100400004FEA40014648D0F88800C0F3074000F1A9
:100410000100B1FBF0F04F4900FB01F03F490968D2
:10042000C9B201F10101B0FBF1F04B4908603CE0B9
:100430003E480068C0F30E0000F101004FEA4001A1
:100440003748D0F88800C0F3074000F10100B1FB45
:10045000F0F0424900FB01F030490968C9B201F1EE
:100460000101B0FBF1F03C4908601EE02F48006834
:10047000C0F30E0000F101004FEA40012848D0F817
:100480008800C0F3074000F10100B1FBF0F04FF429
:10049000FA4100FB01F021490968C9B201F10101EB
:1004A000B0FBF1F02C49086000BF2FE0284800683D
:1004B00010F0030006D0012810D0022819D003281C
:1004C00023D100E000BF15480068C0B200F1010070
:1004D0002049B1FBF0F02049086016E00F480068A1
:1004E000C0B200F101001D49B1FBF0F01A490860EB
:1004F0000BE00A480068C0B200F101004FF4FA4175
:10050000B1FBF0F01449086000BF00BF43F23A00AD
:100510000349086070470000A0C10F4004C10F40AC
:1005200000C00F4084C00F408CC00F4088C00F40F7
:1005300080C00F40A4C00F40ACC00F40A8C00F4007
:10054000A0C00F40A8C10F40DE87E804C4C00F4020
:100550000CC10F4000093D0000000010001BB70057
:1005600030B502460B464FF6FF7011E032F8024BF1
:10057000604000210AE010F0010F04D04AF20104AB
:1005800084EA600000E040104C1CA1B21029F2DBAC
:100590001C00A3F10105ABB2E8D130BD10B5024695
:1005A000002114E0DC2901D16E200EE0FA4C4B1C36
:1005B00034F81330934208DDCB1C34F813309342E7
:1005C00003DA234613F8110003E08B1CD9B2DE29AD
:1005D000E8DB00BF10BD10B5F048006840F4001023
:1005E000EF49C1F8C4000846D0F8AC0120F44060DF
:1005F000C1F8AC010846D0F8AC0140F48060E9498C
:1006000008604FF00F00E84908604FF006004860AE
:100610000846C06810F0040F02D00846806884B213
:100620000020E1494861E1490870E1490870E14969
:1006300008800E2022F02CF90420DB49486110BD0F
:1006400010B50146DC4AD84B996005E0521E1AB934
:100650000123D74C237004E0D34BDB6813F0040F65
:10066000F4D000BFD24B1B7813B9CF4B9B6898B224
:1006700010BD70B50025D148808842F20F718842C4
:1006800079DACE48808838BB002408E0201DCB49A9
:1006900031F81000CA4921F81400601CC4B2642C5F
:1006A000F4DBC8480078012840F0B487C448B0F8AB
:1006B0009400C349B1F8921040EA0140C249086071
:1006C000BF48B0F89800BE49B1F8961040EA014022
:1006D000BE49086000F09EBFB8488088642815D1E4
:1006E000002410E0201DB54931F81000B84921F868
:1006F000140004F13600B14931F81000B54921F871
:100700001400601CC4B2322CECDBE3E7AB488088F9
:10071000C82815D1002410E0201DA84931F8100088
:10072000AD4921F8140004F13600A44931F8100055
:10073000AA4921F81400601CC4B2322CECDBC9E7D2
:100740009E488088B0F5967F16D1002410E0201DC9
:100750009A4931F81000A24921F8140004F136003A
:10076000964931F810009F4921F81400601CC4B26A
:10077000322CECDBAEE7C4E290488088B0F5C87F4D
:1007800015D1002410E0201D8C4931F81000964945
:1007900021F8140004F13600884931F8100093491B
:1007A00021F81400601CC4B2322CECDB92E78348C1
:1007B0008088B0F5FA7F15D1002410E0201D7F4914
:1007C00031F810008A4921F8140004F136007B4901
:1007D00031F81000874921F81400601CC4B2322C93
:1007E000ECDB77E775488088B0F5167F15D10024DB
:1007F00010E0201D714931F810007F4921F81400E4
:1008000004F136006D4931F810007C4921F81400DC
:10081000601CC4B2322CECDB5CE768488088B0F521
:100820002F7F15D1002410E0201D644931F81000FD
:10083000734921F8140004F13600604931F81000C2
:10084000704921F81400601CC4B2322CECDB41E783
:100850005A488088B0F5487F15D1002410E0201D4B
:10086000564931F81000684921F8140004F13600A7
:10087000524931F81000654921F81400601CC4B2D7
:10088000322CECDB26E74D488088B0F5617F15D12E
:10089000002410E0201D494931F810005C4921F87E
:1008A000140004F13600454931F81000594921F887
:1008B0001400601CC4B2322CECDB0BE73F4880888C
:1008C000B0F57A7F15D1002410E0201D3B4931F8A6
:1008D0001000514921F8140004F13600374931F86D
:1008E00010004E4921F81400601CC4B2322CECDB1D
:1008F000F0E632488088A0F580614C3915D100249B
:1009000010E0201D2D4931F81000454921F8140050
:1009100004F13600294931F81000424921F8140049
:10092000601CC4B2322CECDBD4E624488088B0F5DD
:10093000966F15D1002410E0201D204931F81000D9
:10094000394921F8140004F136001C4931F810002F
:10095000364921F81400601CC4B2322CECDBB9E635
:1009600016488088A0F5A061143965D1002410E0F4
:10097000201D124931F810002D4921F8140004F10E
:1009800036000E4931F810002A4921F81400601C85
:10099000C4B2322CECDB9DE60A000010C4C00F404C
:1009A00000C00F40ACC10F40008008401004001090
:1009B000510400105204001000770100820400105E
:1009C00012070010B8020010A4030010A8030010C2
:1009D000500D00107C0E0010B40D0010E00E001041
:1009E000180E0010440F0010A80F0010D4100010B3
:1009F0000C10001038110010701000109C11001025
:100A0000001200102C13001064120010901300103C
:100A1000C8120010F41300105814001084150010B0
:100A2000BC140010E8150010201500104C16001022
:100A3000B0160010DC170010F8488088B0F5AF6FD2
:100A400015D1002410E0201DF44931F81000F449BC
:100A500021F8140004F13600F04931F81000F14992
:100A600021F81400601CC4B2322CECDB32E6EB48F7
:100A70008088A0F5A061DC3915D1002410E0201D8C
:100A8000E64931F81000E84921F8140004F1360075
:100A9000E24931F81000E54921F81400601CC4B2A5
:100AA000322CECDB16E6DD488088B0F5FA6F7DD19C
:100AB000002459E0201DD94931F81000DC4921F803
:100AC000140004F10E00D54931F81010D848143044
:100AD00020F8141004F11800D04931F81010D4484F
:100AE000283020F8141004F12200CC4931F81010FD
:100AF000CF483C3020F8141004F12C00C74931F8DD
:100B00001010CB48503020F8141004F13600C349BF
:100B100031F81010C648643020F8141004F1400079
:100B2000BE4931F81010C248783020F8141004F192
:100B30004A00BA4931F81010BD488C3020F8141022
:100B400004F15400B54931F81010B948A03020F82C
:100B5000141004F15E00B14931F81010B448B430FB
:100B600020F81410601CC4B20A2CA3DB00241CE083
:100B700004EB8400AE4901EB8000808800EB80002C
:100B80004FF6FF7101EA40063046FFF707FD00EB24
:100B900080004FF6FF7101EA400004EB8401A44A93
:100BA00002EB81018880601CC4B200E002E00A2CE4
:100BB000DEDB8FE599488088A0F500613439F8D1F3
:100BC000002459E0201D954931F81000994921F879
:100BD000140004F10E00914931F8101095481430BA
:100BE00020F8141004F118008C4931F810109148C5
:100BF000283020F8141004F12200884931F8101030
:100C00008C483C3020F8141004F12C00834931F852
:100C100010108848503020F8141004F136007F4935
:100C200031F810108348643020F8141004F14000AB
:100C30007A4931F810107F48783020F8141004F108
:100C40004A00764931F810107A488C3020F8141098
:100C500004F15400714931F810107648A03020F8A2
:100C6000141004F15E006D4931F810107148B43071
:100C700020F81410601CC4B20A2CA3DB00241CE072
:100C800004EB84006B4901EB8000008A00EB8000DC
:100C90004FF6FF7101EA40063046FFF77FFC00EB9C
:100CA00080004FF6FF7101EA400004EB8401614AC5
:100CB00002EB81010882601CC4B20A2CE0DB002434
:100CC0001CE004EB84005B4901EB8000408A00EBF0
:100CD00080004FF6FF7101EA40063046FFF75EFCE8
:100CE00000EB80004FF6FF7101EA400004EB840145
:100CF000504A02EB81014882601CC4B20A2CE0DB3E
:100D0000E8E446488088A0F51C5110392CD1002415
:100D10000BE0494830F81410201D404A32F810000A
:100D2000814200D00125601CC4B2642CF1DB012D8E
:100D300007D00020414908704149088041490870A6
:100D4000C8E43F480088401C3D49088008460088A8
:100D5000B0F57A7FD4DD0020384908703849088022
:100D6000012038490870B5E42C488088A0F51C5152
:100D7000743917D029488088A0F51C51D83911D072
:100D800026488088A0F520513C390BD02348808824
:100D9000A0F52051A03905D020488088A0F5285121
:100DA000F8396ED11D488088A0F51C5174392CD1BA
:100DB00000240BE0244830F81410201D174A32F8A4
:100DC0001000814200D00125601CC4B2642CF1DB0C
:100DD000012D07D000201D490870194908801949C4
:100DE000087077E416480088401C154908800846BA
:100DF0000088B0F57A7FA3DD0020144908701049FF
:100E0000088001200F49087064E404488088A0F538
:100E10001C51D83949D1002426E00000820400107A
:100E2000141700104018001078170010A4180010B4
:100E3000A823001070240010DA070010FF02001031
:100E40005204001051040010D80A001002030010D0
:100E5000FE4830F81410201DFD4A32F8100081427F
:100E600000D00125601CC4B2642CF1DB012D09D037
:100E70000020F8490870F84908800120F7490870F7
:100E8000C8E3B3E0F4480088401CF34908800846F2
:100E90000088B0F57A7FA4DD0020EE490870EE49A5
:100EA00008800120ED490870B4E3E9488088A0F586
:100EB00020513C392DD1002428E0E94830F81410A5
:100EC000201DE34A32F81000814200D00125012D97
:100ED00008D00020E3490870DF4908800120DF497D
:100EE000087011E0DC480088401CDB490880084697
:100EF0000088B0F57A7F07DD0020DA490870D6490E
:100F000008800120D5490870601CC4B2642CD4DB71
:100F100080E3CF488088A0F52051A0392DD100244E
:100F200028E0D14830F81410201DC94A32F81000CA
:100F3000814200D00125012D08D00020CB49087046
:100F4000C54908800120C549087011E0C2480088E1
:100F5000401CC149088008460088B0F57A7F07DD4B
:100F60000020C2490870BC4908800120BB490870B4
:100F7000601CC4B2642CD4DB4CE3B5488088A0F577
:100F80002851F83990D1B2484089B149098940EADD
:100F90000140B7490968884209D1AD48C089AC49C8
:100FA000898940EA0140B3490968884200D0012597
:100FB000012D08D00020B0490870A7490880012001
:100FC000A649087026E3A4480088401CA24908806E
:100FD00008460088B0F57A7F9ADD0020A64908709F
:100FE0009D49088001209D49087013E39848808836
:100FF000A0F53851E03934D095488088A0F53C51AF
:1010000044392ED092488088A0F53C51A83928D088
:101010008F488088A0F540510C3922D08C488088B8
:10102000A0F5405170391CD089488088A0F5405106
:10103000D43916D086488088A0F54451383910D06C
:1010400083488088A0F544519C390AD08048808824
:10105000B0F5485F05D07E488088A0F548516439D6
:101060008AD17B488088A0F53851E03943D10024EB
:101070003EE082480078012827D1814830F81410DA
:10108000201D734A32F81000814200D00125012D45
:1010900008D00020794908706F49088001206F4905
:1010A000087023E06C480088401C6B4908800846A3
:1010B0000088B0F57A7F19DD002070490870664914
:1010C000088001206549087010E000206D49087013
:1010D000201D5F4931F81000694921F814000846C5
:1010E000B0F8C60010B1012067490870601CC4B296
:1010F000642CBEDB8EE256488088A0F53C51443912
:101100003ED1002439E061480078012828D15C48AC
:10111000C83030F81410201D4D4A32F810008142BA
:1011200000D00125012D08D00020584908704A49F7
:1011300008800120494908701DE047480088401C8C
:101140004549088008460088B0F57A7F13DD002005
:101150004E490870404908800120404908700AE063
:1011600000204B490870201D394931F810104448BF
:10117000C83020F81410601CC4B2642CC3DB49E2F0
:1011800033488088A0F53C51A8393CD1002437E091
:1011900040480078012827D13F4830F81410201D1E
:1011A0002B4A32F81000814200D00125012D08D0D1
:1011B0000020384908702849088001202749087014
:1011C0001CE025480088401C234908800846008808
:1011D000B0F57A7F12DD00202E4908701E49088084
:1011E00001201E49087009E000202C490870201DCC
:1011F000174931F81010284820F81410601CC4B2A8
:10120000642CC5DB06E212488088A0F540510C39F9
:101210006AD1002465E022480078012855D11E4893
:10122000C83030F81410201D094A32F810008142ED
:1012300000D00125012D35D000201949087006493C
:10124000088001200549087049E00000A00B00104B
:101250008204001003030010520400105104001017
:10126000680C0010040300100809001005030010AA
:10127000A4030010A80300100103001006030010CF
:1012800038250010F4020010B80200100703001007
:10129000F502001008030010C8260010F602001026
:1012A00009030010F8480088401CF74908800846E8
:1012B0000088B0F57A7F12DD0020F4490870F24909
:1012C00008800120F249087009E00020F149087007
:1012D000201DF14931F81010F04820F81410601C5E
:1012E000C4B2642C97DB95E1EB488088A0F54051AF
:1012F00070393ED1002439E0E9480078012828D12E
:10130000E648C83030F81410201DE34A32F81000C7
:10131000814200D00125012D08D00020E04908704D
:10132000D94908800120DA4908701DE0D6480088B4
:10133000401CD549088008460088B0F57A7F13DD47
:101340000020D7490870D04908800120D049087092
:101350000AE00020D3490870201DCF4931F8101051
:10136000CE48C83020F81410601CC4B2642CC3DB13
:1013700050E1C9488088A0F54051D4393CD10024BF
:1013800037E0C9480078012827D1C84830F8141040
:10139000201DC14A32F81000814200D00125012DE4
:1013A00008D00020C0490870B74908800120B8491A
:1013B00008701CE0B4480088401CB3490880084607
:1013C0000088B0F57A7F12DD0020B7490870AE4979
:1013D00008800120AE49087009E00020B449087077
:1013E000201DAD4931F81010B04820F81410601CD1
:1013F000C4B2642CC5DB0DE1A7488088A0F5445138
:1014000038393ED1002439E0AA480078012828D193
:10141000A648C83030F81410201D9F4A32F810003A
:10142000814200D00125012D08D00020A14908707B
:10143000954908800120964908701DE0924800886F
:10144000401C9149088008460088B0F57A7F13DD7A
:101450000020984908708C49088001208C49087048
:101460000AE0002094490870201D8B4931F81010C3
:101470008E48C83020F81410601CC4B2642CC3DB42
:10148000C8E085488088A0F544519C393CD10024AF
:1014900037E08A480078012827D1894830F81410AD
:1014A000201D7D4A32F81000814200D00125012D17
:1014B00008D00020814908707349088001207449D0
:1014C00008701CE070480088401C6F49088008467E
:1014D0000088B0F57A7F12DD0020784908706A49EB
:1014E000088001206A49087009E0002075490870E9
:1014F000201D694931F81010714820F81410601C43
:10150000C4B2642CC5DB85E063488088B0F5485FD1
:101510003ED1002439E06C480078012828D1684881
:10152000C83030F81410201D5B4A32F81000814298
:1015300000D00125012D08D00020634908705249D0
:1015400008800120524908701DE04F480088401C67
:101550004D49088008460088B0F57A7F13DD0020E9
:1015600059490870484908800120494908700AE033
:10157000002056490870201D474931F81010504886
:10158000C83020F81410601CC4B2642CC3DB41E0E6
:1015900041488088A0F5485164393BD1002437E0A8
:1015A0004B480078012827D14A4830F81410201DF4
:1015B000394A32F81000814200D00125012D08D0AF
:1015C00000204349087030490880012030490870E4
:1015D0001CE02D480088401C2B49088008460088E4
:1015E000B0F57A7F12DD002039490870264908805D
:1015F00001202749087009E0002037490870201DA4
:10160000254931F81010334820F81410601CC4B27A
:10161000642CC5DB70BD70B50025002403202F4964
:10162000088000202E494861194908702D4800881B
:1016300038B94FF000702C49C8670120294908804B
:1016400006E04FF00070284988670020254908808F
:1016500008E02348806882B22846691CCDB20E4952
:1016600021F810201E48C06810F0040FF1D10A487C
:101670000088A0F52A41CC395CD10748C08864288D
:1016800058D1002443E00000520400100903001068
:1016900051040010F702001082040010902700107F
:1016A0000A030010F80200100B030010202900109C
:1016B000F90200100C030010FA0200100D030010D4
:1016C000B02A0010FB0200100E030010FC020010F4
:1016D0000F030010402C0010FD020010C00200108B
:1016E000008008400800001000C00920FE4931F8C1
:1016F0001400FEF7A5FF29466A1CD5B2FB4A22F862
:101700001100FB480078012800D102E0641C6C2C19
:10171000ECD300BF6421F5480830FEF721FFF34900
:10172000B1F8D010884217D1FEF7A3FF0120F1498C
:10173000087011E04FF416540CE0EF48C06810F048
:10174000040F02D1641E2CB905E0EB48806886B214
:101750004FF41654F1E700BF0420E7494861E74918
:10176000088070BD30B50025E548007870B90120CB
:10177000E4490870E4490870E4490870E4490870D5
:10178000E4490870E4490870DD490870DD480078D4
:10179000012815D10125002408E0E04830F8141094
:1017A000D14AE01C22F81010601CC4B2642CF4DB97
:1017B0000020DB4908704FF48050DA49C865BFE269
:1017C000D1480078012814D10225002408E0D64829
:1017D00030F81410C44AE01C22F81010601CC4B287
:1017E000642CF4DB0120CE4908700003CD49C865A4
:1017F000A6E2C6480078012814D10325002408E099
:10180000CA4830F81410B84AE01C22F81010601CC6
:10181000C4B2642CF4DB0220C1490870C002C14983
:10182000C8658DE2BA480078012815D10425002446
:1018300008E0BF4830F81410AB4AE01C22F8101042
:10184000601CC4B2642CF4DB0320B54908704FF46B
:101850008050B449C86573E2AF480078012814D1BC
:101860000525002408E0B34830F814109E4AE01C17
:1018700022F81010601CC4B2642CF4DB0420A849C8
:1018800008708002A749C8655AE2A248007801287A
:1018900022D10625A8480068000C9349C880A648B4
:1018A00000880881A5480068000C4881A34800888A
:1018B0008881042406E00021E01C8B4A22F81010E5
:1018C000601CC4B2642CF6DB0520954908704FF407
:1018D00080509449C86533E299480078012815D1B1
:1018E0000725002408E0974830F81410E01C7E4AD1
:1018F00022F81010601CC4B2642CF4DB0620884966
:1019000008704FF480508749C86519E28E48007806
:10191000012810D10025002407E04FF6FF71E01CDC
:10192000714A22F81010601CC4B2642CF5DB06204A
:101930007B49087004E285480078012816D1082503
:10194000002409E07F48C83030F81410E01C664AD3
:1019500022F81010601CC4B2642CF3DB072070491D
:1019600008704FF480506F49C865E9E17848007805
:10197000012810D10025002407E04FF6FF71E01C7C
:10198000594A22F81010601CC4B2642CF5DB072001
:1019900063490870D4E16F480078012814D1092503
:1019A000002408E06C4830F81410E01C4E4A22F87D
:1019B0001010601CC4B2642CF4DB08205849087075
:1019C00040025849C865BBE164480078012810D13D
:1019D0000025002407E04FF6FF71E01C424A22F880
:1019E0001010601CC4B2642CF5DB08204C49087050
:1019F000A6E15B480078012816D10A25002409E0F9
:101A00005548C83030F81410E01C374A22F810103E
:101A1000601CC4B2642CF3DB0920414908704FF408
:101A200080504049C8658BE14E480078012810D1AC
:101A30000025002407E04FF6FF71E01C2A4A22F837
:101A40001010601CC4B2642CF5DB09203449087006
:101A500076E145480078012815D10B25002408E0DF
:101A6000424830F81410E01C1F4A22F81010601C85
:101A7000C4B2642CF4DB0A20294908704FF480506A
:101A80002849C8655CE13A480078012810D1002552
:101A9000002407E04FF6FF71E01C134A22F81010F3
:101AA000601CC4B2642CF5DB0A201D49087047E1B4
:101AB0003048007801285FD10C25002409E02B482C
:101AC000C83030F81410E01C074A22F81010601CCF
:101AD000C4B2642CF3DB0B20114908704FF4805022
:101AE0001049C8652CE147E072050010820400101F
:101AF000510400101004001000800840C0020010C3
:101B000064020010FF020010020300100303001023
:101B1000040300100103001005030010DA07001091
:101B20005004001000C00920D80A0010A00B0010BB
:101B3000680C001008090010A4030010A80300108E
:101B40000603001038250010F402001007030010EF
:101B5000F502001008030010C8260010F60200105D
:101B600009030010F70200100A03001058280010A3
:101B7000F80200100B030010FE480078012810D175
:101B80000025002407E04FF6FF71E01CFA4A22F816
:101B90001010601CC4B2642CF5DB0B20F7490870F0
:101BA000CEE0F7480078012815D10D25002408E083
:101BB000F44830F81410E01CEF4A22F81010601CB2
:101BC000C4B2642CF4DB0C20EC4908704FF4805054
:101BD000ED49C865B4E0ED480078012810D1002532
:101BE000002407E04FF6FF71E01CE34A22F81010D2
:101BF000601CC4B2642CF5DB0C20E04908709FE047
:101C0000E3480078012816D10E25002409E0DD48BC
:101C1000C83030F81410E01CD74A22F81010601CAD
:101C2000C4B2642CF3DB0D20D44908704FF480500B
:101C3000D549C86584E0D7480078012810D100252F
:101C4000002407E04FF6FF71E01CCB4A22F8101089
:101C5000601CC4B2642CF5DB0D20C84908706FE02D
:101C6000CD480078012815D10F25002408E0CB4885
:101C700030F81410E01CC04A22F81010601CC4B2E6
:101C8000642CF4DB0E20BD4908704FF48050BE492F
:101C9000C86555E0C2480078012810D1002500240D
:101CA00007E04FF6FF71E01CB34A22F81010601CE9
:101CB000C4B2642CF5DB0E20B049087040E0B9488E
:101CC0000078012816D11025002409E0B348C83057
:101CD00030F81410E01CA84A22F81010601CC4B29E
:101CE000642CF3DB0F20A54908704FF48050A649FF
:101CF000C86525E0AC480078012810D100250024F3
:101D000007E04FF6FF71E01C9B4A22F81010601CA0
:101D1000C4B2642CF5DB0F209849087010E0002550
:101D20004FF4805098498865002407E04FF6FF7112
:101D3000E01C914A22F81010601CC4B2642CF5DB40
:101D400064218D48801DFEF70BFC8B49A1F8CE0065
:101D5000284630BD70B504460D46322093490860D0
:101D60000846446085609249924A904790480068CE
:101D700070BD70B504460D4634208C490860084695
:101D8000446085608C48C86089498848894A904782
:101D90008748006870BD70B504460D46164633206E
:101DA00082490860084644608560C66082480861D0
:101DB0007F497E487F4A90477D48006870BD70B576
:101DC00004460D46164638207849086008464460A7
:101DD0008560C6607649774A90477548006870BD4F
:101DE0000CB50020009001900CE07448007D10F0CC
:101DF000010F03D071480078009000E005E00198E1
:101E0000401C019001980828EFD300BF0CBD0CB511
:101E10000020009001900CE06948007D10F0010F57
:101E200003D067480078009000E005E00198401C6E
:101E3000019001980828EFD300BF0CBD0CB500201D
:101E4000009001900CE05F48007D10F0010F03D07E
:101E50005C480078009000E005E00198401C01908B
:101E600001980828EFD300BF0CBD2DE9F05F56485C
:101E7000006840F010005549C1F8C4004FF08300DD
:101E80004F4908735248008830B101280AD002280F
:101E90000ED0032818D111E04FF4165A01204D49F5
:101EA000087017E04FF4964A02204A49087011E082
:101EB0004FF4614A0120474908700BE04FF4165A6D
:101EC00001204449087005E04FF4165A04204149A6
:101ED000087000BF00BF504621F0C0FB8046894615
:101EE00000223D4B3D4903C921F0ECF9064642462C
:101EF0004B4621F0E7F9044621F06CFB1FFA80FB0A
:101F000058464FEAEB710BEB1161090A2C4A11712B
:101F1000114681F800B00320087387200872012061
:101F20004860062020F0B4FCFFF771FF4FF400007A
:101F30001549C861BDE8F09F2DE9F04122480068CD
:101F400040F008002149C1F8C4004FF000001B49CF
:101F500048604FF0830008734FF000021E4B1F498A
:101F600003C921F0AFF9054600221D4B21F0AAF963
:101F7000074637E0F9020010720500105004001007
:101F80000C030010E829001000C00920FA0200101C
:101F90000D030010FB0200100E030010782B001040
:101FA000FC0200100F030010FD020010302D001085
:101FB000502D0010F11FFF1F0077010000C00040EE
:101FC0000000014000C00940C4C00F4000C00F40E5
:101FD000BC02001044030010000030400804001050
:101FE0000020FC4021F0F6FA84B22046E11704EB11
:101FF0001161090AFE4A117111460C700320087321
:1020000007200872052020F043FC0120F8494860B1
:10201000FFF7E6FE0220F749C863BDE8F0812DE92D
:10202000F05FF548006840F00070F449C1F8C40062
:102030004FF08300F2490873F248008830B101285C
:102040000AD002280ED0032818D111E04FF4165AF6
:102050000120ED49087017E04FF4964A0220EA4942
:10206000087011E04FF4614A0120E74908700BE065
:102070004FF4E13A0120E449087005E04FF4165AA4
:102080000420E149087000BF00BF504621F0E6FA85
:10209000804689460022DD4BDD4903C921F012F953
:1020A000064642464B4621F00DF9044621F092FACD
:1020B0001FFA80FB58464FEAEB710BEB1161090ADE
:1020C000CF4A1171114681F800B0032008738720B0
:1020D000087201204860082020F0DAFBFFF7AEFE0E
:1020E0004FF00050C349C863BDE8F09F002108E0ED
:1020F000BF4A127D12F0010F02D0C649BC4A1078C7
:10210000491CB1F5FA7FF3D37047B94B1870002121
:1021100006E0B74A127D12F0400F00D0BE49491CBC
:10212000BE4A9142F5D37047002108E0BC4A127DB7
:1021300012F0010F02D0BA4A1078B649491CB1F525
:10214000FA7FF3D37047B64B1870002106E0B44A0B
:10215000127D12F0400F00D0AF49491CAF4A9142A6
:10216000F5D37047002108E0A54A127D12F0010F57
:1021700002D0A849A24A1078491CB1F5FA7FF3D3DE
:1021800070479F4B1870002106E09D4A127D12F0A7
:10219000400F00D0A049491CA04A9142F5D3704796
:1021A00030B502464FF6FF7014E0FF2900D915E064
:1021B00012F8014B604000230AE010F0010F04D038
:1021C0004AF2010484EA600000E040105C1CE3B2C3
:1021D000082BF2DB0C00A1F10101E6D100BF30BDFC
:1021E00070B504462C258F4EB56160253560002002
:1021F00000E0401C42F21075A842FAD3894DAC6051
:102200002825884EB561002000E0401C42F2107580
:10221000A842FAD3C1F30725824EB5602825B561DF
:10222000002000E0401C42F21075A842FAD3CDB263
:102230007C4EB5602825B561002000E0401C42F2CC
:102240001075A842FAD30DE012F8015B754EB56027
:102250002825B561002000E0401C42F21075A8421C
:10226000FAD35B1E002BEFD110256E4E356028256A
:10227000B561002000E0401C42F21075A842FAD37C
:1022800070BD2DE9F84F80460E461746002058498C
:1022900048606349486064494861082F39D9C7F3E9
:1022A000CF00009007F0070A002416E0B14609EBC2
:1022B000C4091FFA88FB0BEBC4001FFA80FB08233C
:1022C0004A465946A020FFF78BFF4FF4002500E057
:1022D0006D1E002DFCD1601C84B200988442E5DBA9
:1022E000BAF1000F21DDB14609EBC4091FFA88FBE2
:1022F0000BEBC4001FFA80FB53464A465946A02008
:10230000FFF76EFF4FF4002500E06D1E002DFCD19D
:102310000BE03B4632464146A020FFF761FF4FF4F9
:10232000002500E06D1E002DFCD1012030494860E1
:102330003B49486004203C494861BDE8F88F0146AC
:102340003A4830F811003A4A108010460088704729
:1023500070B505460C462846FFF7F1FF3549088061
:102360000988091B08B2FDF7B4FF33490880084605
:10237000008870BD2DE9F043A7B005460024012276
:102380002146641C01A8425403222146641C425485
:1023900007222146641C425482222146641C425476
:1023A00000222146641C425413222146641C4254DC
:1023B0002A122146641C42542046611CCCB201A959
:1023C0000D5401AEE11EF01CFFF7EAFE81462046E7
:1023D000611CCCB201A901F800904FEA29222046E5
:1023E000611CCCB201A90A5400BF0220014925E0BA
:1023F00000C0004000C00920C4C00F4000C00F4012
:1024000000C00940BC02001044030010000030402E
:1024100008040010C0270900808D5B00404B4C0071
:102420000000014000000A4000800840E603001060
:102430007202001074020010760200108863A04639
:1024400008E037783846FFF760FE761CA8F10100F7
:102450001FFA80F8B8F1000FF3DC0220FE49C863D0
:102460000120FFF76CFFFD49088007E0FB48018869
:102470000120FFF76DFF042800DD00E0F6E700BF54
:1024800027B0BDE8F08370B504462C25F44EB56145
:1024900042F2107000E0401E0028FCD16025F04E92
:1024A000356042F2107000E0401E0028FCD1EC4D77
:1024B000AC6042F2107000E0401E0028FCD12825DC
:1024C000E74EB56142F2107000E0401E0028FCD1DA
:1024D000C1F30725E24EB56042F2107000E0401EE5
:1024E0000028FCD12825DE4EB56142F2107000E0D4
:1024F000401E0028FCD1CDB2D94EB56042F210701A
:1025000000E0401E0028FCD12825D54EB56142F2DE
:10251000107000E0401E0028FCD12025D04E356010
:1025200042F2107000E0401E0028FCD10825CC4E7D
:10253000B56142F2107000E0401E0028FCD1651C1D
:10254000C74EB56042F2107000E0401E0028FCD17A
:102550002825C34EB56142F2107000E0401E0028ED
:10256000FCD100BF0425BE4E356042F2107000E081
:10257000401E0028FCD12825B94EB56142F21070EA
:1025800000E0401E0028FCD1B54DAD6802F8015BAB
:102590005B1E012BE6D82425B14EB56142F21070C6
:1025A00000E0401E0028FCD10825AD4EB56142F286
:1025B000107000E0401E0028FCD1A94DAD681570D8
:1025C00042F2107000E0401E0028FCD11025A44EFD
:1025D000356042F2107000E0401E0028FCD1282532
:1025E0009F4EB56142F2107000E0401E0028FCD101
:1025F00070BD70B504460D46164633462A46214640
:10260000A020FFF740FF70BD00B5B2B0954800882C
:1026100000128DF80000934800788DF80100924870
:10262000008800128DF802008F4800788DF80300B2
:102630008E48007800128DF804008C4800788DF8E0
:1026400005008B48008800128DF806008848007845
:102650008DF807008748008800128DF8080085482B
:1026600000788DF809008348408800128DF80A0030
:10267000804880788DF80B007E48808800128DF8A5
:102680000C007C4800798DF80D007A48C088001253
:102690008DF80E00774880798DF80F007548008915
:1026A00000128DF810007348007A8DF811007248FE
:1026B000008800128DF812006F4800788DF8130022
:1026C0006D48408800128DF814006B4880788DF8B2
:1026D00015006948808800128DF816006648007958
:1026E0008DF817006448C08800128DF81800624801
:1026F00080798DF819006048008900128DF81A0061
:102700005D48007A8DF81B005C48008800128DF847
:102710001C005A4800788DF81D0058484088001267
:102720008DF81E00554880788DF81F00534880882A
:1027300000128DF82000514800798DF821004F4893
:10274000C08800128DF822004C4880798DF8230053
:102750004A48008900128DF824004848007A8DF814
:1027600025004748008800128DF82600444800786C
:102770008DF827004248408800128DF82800404814
:1027800080788DF829003E48808800128DF82A0054
:102790003B4800798DF82B003948C08800128DF82D
:1027A0002C00374880798DF82D00354800890012BB
:1027B0008DF82E003248007A8DF82F0031480088BD
:1027C00000128DF830002F4800788DF831002E4827
:1027D000008800128DF832002B4800788DF8330005
:1027E0002948408800128DF83400274880788DF8F9
:1027F00035002548808800128DF83600224800797F
:102800008DF837002048C08800128DF838001E4827
:1028100080798DF839001C48008900128DF83A0043
:102820001948007A8DF83B001748408900128DF84E
:102830003C001548807A8DF83D00134880890012CD
:102840008DF83E001048007B8DF83F000E48C0898F
:1028500000128DF8400019E000C00920700200103D
:1028600000000A40BA020010BC020010040400106C
:10287000BE020010145700101E57001028570010F9
:1028800032570010F80100101C2D0010FE48807B0C
:102890008DF84100FC48008A00128DF84200FA4889
:1028A000007C8DF84300F848408A00128DF84400FF
:1028B000F548807C8DF84500F4480068000E8DF8DE
:1028C0004600F2480068000C8DF84700EF48008889
:1028D000000A8DF84800ED4800788DF84900EC4872
:1028E000008800128DF84A00E94800788DF84B0006
:1028F000E848008800128DF84C00E64800788DF812
:102900004D00E548008800128DF84E00E24800783E
:102910008DF84F00E148008800128DF85000DF4824
:1029200000788DF85100DE48008800128DF85200C2
:10293000DB4800788DF85300DA48008800128DF8E3
:102940005400D84800788DF85500D7480088001208
:102950008DF85600D44800788DF85700D348008889
:1029600000128DF85800D14800788DF85900D048F1
:10297000008800128DF85A00CD4800788DF85B0071
:10298000CC48008800128DF85C00CA4800788DF8A9
:102990005D00C948008800128DF85E00C6480078C6
:1029A0008DF85F00C548008800128DF86000C348AC
:1029B00000788DF86100BF48408800128DF86200F1
:1029C000BC4880788DF86300BB48408800128DF8C1
:1029D0006400B94880788DF86500B84840880012D6
:1029E0008DF86600B54880788DF86700B14880881A
:1029F00000128DF86800AF4800798DF86900AE4884
:102A0000808800128DF86A00AB4800798DF86B0061
:102A1000AA48808800128DF86C00A84800798DF8CB
:102A20006D00A448C08800128DF86E00A14880791E
:102A30008DF86F00A048C08800128DF870009E4885
:102A400080798DF871009D48C08800128DF8720061
:102A50009A4880798DF873009648008900128DF8A5
:102A600074009448007A8DF875009348008900122C
:102A70008DF876009048007A8DF877008F480089AD
:102A800000128DF878008D48007A8DF87900894819
:102A9000408900128DF87A008648807A8DF87B0094
:102AA0008548408900128DF87C008348807A8DF833
:102AB0007D008248408900128DF87E007F48807A30
:102AC0008DF87F007B48808900128DF8800079485E
:102AD000007B8DF881007848808900128DF8820093
:102AE0007548007B8DF883007448808900128DF84A
:102AF00084007248007B8DF885006E48C089001202
:102B00008DF886006B48807B8DF887006A48C08905
:102B100000128DF888006848807B8DF8890067482E
:102B2000C08900128DF88A006448807B8DF88B0084
:102B30006048C08900128DF88C005E48807B8DF85B
:102B40008D005D48C08900128DF88E005A48807B48
:102B50008DF88F005948C08900128DF890005748B1
:102B6000807B8DF891005648008800128DF8920005
:102B7000534800788DF893005248008800128DF871
:102B80009400504800788DF895004F480088001256
:102B90008DF896004C4800788DF897004FF08050E3
:102BA0004A49C863982269464FF44870FFF769FBA9
:102BB0004FF080504549886332B000BD0121444A3E
:102BC000A2F8C61000200DE03A4931F81010012992
:102BD00006D13F49B1F8C610491C3D4AA2F8C610BB
:102BE000411CC8B20928EFDB3949B1F8C6100A29DF
:102BF00003DD0A21364AA2F8C610002007E00022B1
:102C000000F10A01334B23F81120411CC8B21028EF
:102C1000F5DB2849098802297ED12749098829B985
:102C200000212C4A9182D1821183BEE02249098879
:102C300001290DD12149098801EB81014FF6FF726D
:102C400002EA4101234A91820021D1821183ACE042
:102C50001949098802293FD11849098801EB8101E6
:102C60004FF6FF7202EA41011A4A9182134909881C
:102C700001EB81014FF6FF7202EA4101154AD18250
:102C80000021118391E000001C2D0010140400109D
:102C9000180400101A0400101C0400101E04001078
:102CA0002004001022040010240400102604001048
:102CB0002E0400102A6C00103C6C00104E6C0010AA
:102CC000280400102A0400102C04001000C0092061
:102CD000DA07001008090010FE49098801EB81019C
:102CE0004FF6FF7202EA4101FB4A9182F9490988D5
:102CF00001EB81014FF6FF7202EA4101F64AD182EF
:102D0000F449098801EB81014FF6FF7202EA4101A3
:102D1000F14A118349E0FFE7F049098803291ED1F0
:102D2000EC49098801EB810142F2107202EB41018A
:102D3000E94A9182E749098801EB810144F6206262
:102D400002EB4101E44AD182E249098801EB8101A9
:102D500047F2305202EB4101DF4A118325E0DF499F
:102D6000098804290DD1DB49098801EB810149F665
:102D7000404202EB4101D84A91820021D182118365
:102D800013E0D649098805290AD1D249098801EBFF
:102D900081014CF2503202EB4101CF4A918204E0B2
:102DA0000021CD4A9182D1821183CC4949880229E0
:102DB00054D1CB49498829B90021C74A518391830D
:102DC000D18394E0C649498801290DD1C149498878
:102DD00001EB81014FF6FF7202EA4101BE4A5183C5
:102DE00000219183D18382E0BD494988022916D10F
:102DF000B849498801EB81014FF6FF7202EA4101AF
:102E0000B54A5183B349498801EB81014FF6FF72FE
:102E100002EA4101B04A91830021D18367E0AD49C4
:102E2000498801EB81014FF6FF7202EA4101AA4A8B
:102E30005183A849498801EB81014FF6FF7202EAEC
:102E40004101A54A9183A349498801EB81014FF6CD
:102E5000FF7202EA4101A04AD18348E09F494988B4
:102E600003291ED19B49498801EB810142F210726E
:102E700002EB4101984A51839649498801EB81014F
:102E800044F6206202EB4101934A918391494988BB
:102E900001EB810147F2305202EB41018E4AD183AE
:102EA00025E08E49498804290DD18A49498801EBDA
:102EB000810149F6404202EB4101874A51830021DA
:102EC0009183D18313E08549498805290AD1814935
:102ED000498801EB81014CF2503202EB41017E4AFC
:102EE000D18204E000217C4A51839183D1837B49C4
:102EF0008988022954D17A49898829B90021764ADA
:102F000011845184918494E07549898801290DD1F7
:102F10007049898801EB81014FF6FF7202EA410195
:102F20006D4A118400215184918482E06C49898822
:102F3000022916D16749898801EB81014FF6FF729A
:102F400002EA4101644A11846249898801EB8101E6
:102F50004FF6FF7202EA41015F4A518400219184D9
:102F600067E05C49898801EB81014FF6FF7202EA54
:102F70004101594A11845749898801EB81014FF673
:102F8000FF7202EA4101544A51845249898801EB97
:102F900081014FF6FF7202EA41014F4A918448E0F5
:102FA0004E49898803291ED14A49898801EB81014C
:102FB00042F2107202EB4101474A11844549898867
:102FC00001EB810144F6206202EB4101424A518447
:102FD0004049898801EB810147F2305202EB4101FF
:102FE0003D4A918425E03D49898804290DD139491C
:102FF000898801EB810149F6404202EB4101364AE2
:10300000118400215184918413E034498988052971
:103010000AD13049898801EB81014CF2503202EB30
:1030200041012D4A118304E000212B4A118451846F
:1030300091842A49C98802295DD12949C98829B9B9
:103040000021254AD184118551859DE02449C988F4
:1030500001290DD11F49C98801EB81014FF6FF728B
:1030600002EA41011C4AD1840021118551858BE07F
:103070001B49C988022916D11649C98801EB81016B
:103080004FF6FF7202EA4101134AD1841149C988FF
:1030900001EB81014FF6FF7202EA41010E4A1185F0
:1030A0000021518570E00B49C98801EB81014FF681
:1030B000FF7202EA4101084AD1840649C98801EB3E
:1030C00081014FF6FF7202EA4101034A118501496D
:1030D000C98807E04E6C0010080900102A6C001027
:1030E0003C6C001001EB81014FF6FF7202EA4101D6
:1030F000FE4A518548E0FE49C98803291ED1FD4991
:10310000C98801EB810142F2107202EB4101F74ADA
:10311000D184F849C98801EB810144F6206202EBB1
:103120004101F24A1185F349C98801EB810147F257
:10313000305202EB4101ED4A518525E0EC49C98846
:1031400004290DD1EB49C98801EB810149F64042C0
:1031500002EB4101E54AD18400211185518513E03C
:10316000E349C98805290AD1E249C98801EB8101EF
:103170004CF2503202EB4101DC4A518304E0002161
:10318000DA4AD18411855185D9490989022954D156
:10319000D949098929B90021D44A9185D185118657
:1031A00094E0D549098901290DD1D249098901EB5A
:1031B00081014FF6FF7202EA4101CC4A918500215C
:1031C000D185118682E0CC490989022916D1C949E5
:1031D000098901EB81014FF6FF7202EA4101C34AFE
:1031E0009185C449098901EB81014FF6FF7202EA1A
:1031F0004101BE4AD1850021118667E0BD49098998
:1032000001EB81014FF6FF7202EA4101B74A918555
:10321000B849098901EB81014FF6FF7202EA4101C9
:10322000B24AD185B349098901EB81014FF6FF729A
:1032300002EA4101AD4A118648E0AD4909890329F6
:103240001ED1AC49098901EB810142F2107202EBF7
:103250004101A64A9185A749098901EB810144F6FC
:10326000206202EB4101A14AD185A249098901EB03
:10327000810147F2305202EB41019C4A118625E060
:103280009B49098904290DD19A49098901EB8101DA
:1032900049F6404202EB4101944A91850021D185D3
:1032A000118613E09249098905290AD191490989B2
:1032B00001EB81014CF2503202EB41018B4A9183C8
:1032C00004E00021894A9185D18511868849498980
:1032D000022934D18849498929B90021834A518674
:1032E0009186D1865BE08449498901290DD18149C4
:1032F000498901EB81014FF6FF7202EA41017B4AE5
:10330000518600219186D18649E07B49498902296D
:103310000AD17849498901EB81014FF6FF7202EA2F
:103320004101724A51863AE07249498901EB8101B3
:103330004FF6FF7202EA41016C4A51862FE06C4958
:10334000498903290AD16B49498901EB810142F27C
:10335000107202EB4101654A518620E064494989B7
:1033600004290AD16349498901EB810149F64042A8
:1033700002EB41015D4A518611E05D494989052909
:103380000AD15C49498901EB81014CF2503202EBD0
:103390004101564AD18302E00021544A51865449E2
:1033A0008989022954D15449898929B900214F4A70
:1033B00011875187918761E04F49898901290DD192
:1033C0004C49898901EB81014FF6FF7202EA410104
:1033D000464A11870021518791874FE046498989E4
:1033E000022916D14349898901EB81014FF6FF7209
:1033F00002EA41013D4A11873E49898901EB810179
:103400004FF6FF7202EA4101384A51870021918745
:1034100034E03849898901EB81014FF6FF7202EAF5
:103420004101324A11873349898901EB81014FF605
:10343000FF7202EA41012D4A51872E49898901EB29
:1034400081014FF6FF7202EA4101284A918715E097
:1034500027498989032911D02549898904290DD053
:1034600023498989052909D12249898901EB8101EB
:103470004CF2503202EB41011C4A11841C49C989AB
:10348000022965D11C49C98939B90021174AD18758
:10349000A2F84010A2F8421070E01749C98901292A
:1034A0000FD11449C98901EB81014FF6FF7202EA7D
:1034B00041010E4AD1870021A2F84010A2F8421023
:1034C0005CE00D49C989022921D10A49C98901EB6A
:1034D00081014FF6FF7202EA4101044AD187054992
:1034E000C98901EB81014FF6FF7207E0080900105E
:1034F0002A6C00104E6C00103C6C001002EA410176
:10350000FE4AA2F840100021A2F8421036E0FC4921
:10351000C98901EB81014FF6FF7202EA4101F74AC6
:10352000D187F749C98901EB81014FF6FF7202EAA1
:103530004101F24AA2F84010F149C98901EB810129
:103540004FF6FF7202EA4101EC4AA2F8421015E080
:10355000EC49C989032911D0EA49C98904290DD048
:10356000E849C989052909D1E549C98901EB8101E2
:103570004CF2503202EB4101E04A5184E149098AA0
:10358000022960D1E049098A41B90021DB4AA2F849
:103590004410A2F84610A2F848106AE0DA49098AF5
:1035A000012910D1D649098A01EB81014FF6FF723A
:1035B00002EA4101D14AA2F844100021A2F84610C3
:1035C000A2F8481055E0D049098A022919D1CC49FE
:1035D000098A01EB81014FF6FF7202EA4101C74AF5
:1035E000A2F84410C649098A01EB81014FF6FF7227
:1035F00002EA4101C14AA2F846100021A2F848108F
:1036000037E0BF49098A01EB81014FF6FF7202EAF8
:103610004101BA4AA2F84410B949098A01EB810173
:103620004FF6FF7202EA4101B44AA2F84610B449CB
:10363000098A01EB81014FF6FF7202EA4101AF4AAC
:10364000A2F8481015E0AF49098A032911D0AD4905
:10365000098A04290DD0AB49098A052909D1A8494D
:10366000098A01EB81014CF2503202EB4101A34A7D
:1036700091847047A548007A40F00100A349087280
:103680000120087070470FB4A149009808709F4945
:10369000019881F824009F49029808709B4903987B
:1036A00081F82C00069881F83000079888860498E5
:1036B00081F838000598888704B0704796480068FC
:1036C00040F400709549C1F8C4009548007810F0A6
:1036D000100F06D09248007840F010008B4981F816
:1036E0005C004FF000008949087408730872704745
:1036F0008648007A20F001008449087270472DE95D
:10370000F14FADF5256D00211E91002488461D91D5
:103710001C911991DDF8500A012817D18148407891
:10372000CDF8440A7F488078CDF84C0A7D48C078AF
:10373000CDF8480A0DF6482003C840EA012579482B
:1037400040797849097940EA012915E076484078BE
:10375000CDF8440A74488178CDF84C1AC078CDF879
:10376000480A0DF6482003C840EA01256E48407912
:103770006D49097940EA0129DDF8440A672804F017
:10378000C6810ADC032812D004285DD006287DD02B
:10379000102844F09A8501F0F7BE682804F00A82E8
:1037A0006A2803F0BE856B28F3D104F023B9B5F580
:1037B000805F45DB41F22D70854241DCB9F5EB6F4E
:1037C0003BDC05EB090041F25871884235DC4FF6CD
:1037D000FF7000EA4909A5F5805085B24FF0000856
:1037E00018E005EB0800514931F810000112E01C07
:1037F0000DF25C621154601C84B205EB08004B4969
:1038000011F81010E01C1154601C84B208F1010082
:103810001FFA80F8C845E4DB454801788DF85C164E
:10382000DDF8441A8DF85D1609F0FF018DF85E167B
:103830009DF85E06C01C1E9004E00220199001E075
:103840000320199004F044BDB5F51A6F3FDCB9F5BB
:103850001A6F39DC05EB0900B0F51A6F34DC4FF64E
:10386000FF7000EA49094FF000081AE005EB080074
:10387000304931F810000112E01C0DF25C62115465
:10388000601C84B205EB08002A4900E022E011F830
:103890001010E01C1154601C84B208F101001FFAE2
:1038A00080F8C845E2DB224801788DF85C16DDF827
:1038B000441A8DF85D1609F0FF018DF85E1609F1C6
:1038C000030081B21E9104E00220199001E0032060
:1038D0001990B7E7B5F5805FC1F28A8341F2AF0076
:1038E000854281F28583DDF8500A012827D10D48F1
:1038F00090F804A090F805B01EE000000809001040
:103900004E6C00102A6C00103C6C0010004002400D
:103910002040024028400240C4C00F4000C00F4079
:103920005C400240842F00101A3000103C4500100B
:10393000BA020010DC3100104BEA0A2606E0FE480D
:1039400090F804A090F805B04BEA0A26B5F5805F20
:1039500017D1A6F52A40AA3806D10120F7490880D8
:10396000F749087001F0ECBDA6F5AA40553805D11D
:10397000F24908800120F2490870F3E70420199009
:10398000F0E741F20100854205D0A5F580500238EC
:1039900001D0401E02D104201990E3E7A5F5805024
:1039A000043815D1FFF7A4FEFFF788FEE54846610D
:1039B0000346D3E90420D3E90613CDE90213CDE988
:1039C0000020E0480FC8FFF75EFEFFF753FEC9E78F
:1039D000A5F58050053814D1FFF78AFEFFF76EFE7B
:1039E000D848C0F810A0C0F80CB0034610330FCB75
:1039F0008DE80F00D3480FC8FFF745FEFFF73AFEEA
:103A0000B0E7A5F58050063814D1FFF771FEFFF737
:103A100055FECC48C0F808A0C0F804B003461033E7
:103A20000FCB8DE80F00C7480FC8FFF72CFEFFF73C
:103A300021FE97E7A5F58050073815D1FFF758FE0E
:103A4000FFF73CFEBF4806600346D3E90421D3E9F3
:103A50000603CDE90203CDE90021BA480FC8FFF7FC
:103A600012FEFFF707FE7DE7A5F58050083838D134
:103A7000B54806800120B5490870B5490870B549B8
:103A80000870B5490870B54908704FF00008002467
:103A900016E0AD4830F8140001124046421C1FFAEF
:103AA00082F80DF5B2621154A74810F81410404680
:103AB000421C1FFA82F80DF5B2621154601C84B2E8
:103AC000642CE6DB4FF08050A549C863C8220DF591
:103AD000B2610020FEF7D5FB4FF08050A04988630B
:103AE00040E7A5F58050093838D197484680012035
:103AF000964908709649087096490870964908706A
:103B0000964908704FF00008002416E08E4830F8FF
:103B1000140001124046421C1FFA82F80DF5B262F1
:103B20001154894810F814104046421C1FFA82F8BC
:103B30000DF5B2621154601C84B2642CE6DB4FF0C8
:103B400080508749C863C8220DF5B2610020FEF796
:103B500098FB4FF080508249886303E7A5F58050B9
:103B60000A3838D178488680012078490870784929
:103B700008707849087078490870784908704FF0E3
:103B80000008002416E0704830F814000112404686
:103B9000421C1FFA82F80DF5B26211546A4810F8FF
:103BA00014104046421C1FFA82F80DF5B2621154FF
:103BB000601C84B2642CE6DB4FF080506849C86317
:103BC000C8220DF5B2610020FEF75BFB4FF080507C
:103BD00063498863C6E6A5F580500B3838D15A484A
:103BE000C680012059490870594908705949087020
:103BF00059490870594908704FF00008002416E030
:103C0000514830F8140001124046421C1FFA82F855
:103C10000DF5B26211544C4810F814104046421C85
:103C20001FFA82F80DF5B2621154601C84B2642C44
:103C3000E6DB4FF080504A49C863C8220DF5B261F7
:103C40000020FEF71EFB4FF080504549886389E64F
:103C5000A5F580500C3838D13B48068101203B49FE
:103C600008703B4908703B4908703B4908703B4964
:103C700008704FF00008002416E0334830F81400B4
:103C800001124046421C1FFA82F80DF5B26211542F
:103C90002D4810F814104046421C1FFA82F80DF50A
:103CA000B2621154601C84B2642CE6DB4FF0805089
:103CB0002B49C863C8220DF5B2610020FEF7E1FA76
:103CC0004FF08050264988634CE6A5F580500D38AA
:103CD0004FD11D48468101201C4908701C490870BD
:103CE0001C4908701C4908701C4908704FF00008F6
:103CF000002416E0144830F8140001124046421C1B
:103D00001FFA82F80DF5B26211540F4810F8141022
:103D10004046421C1FFA82F80DF5B2621154601C35
:103D200084B2642CE6DB4FF080500D49C863C82292
:103D30000DF5B261002015E01A300010600300108C
:103D40002A0300103C570010DA070010FF02001091
:103D50000203001003030010040300100503001009
:103D600000C00920FEF78DFA4FF08050FE498863AD
:103D7000F8E5A5F580500E3838D1FC488681012041
:103D8000FB490870FB490870FB490870FB49087043
:103D9000FB4908704FF00008002416E0F34830F8A3
:103DA000140001124046421C1FFA82F80DF5B2625F
:103DB0001154EE4810F814104046421C1FFA82F8C5
:103DC0000DF5B2621154601C84B2642CE6DB4FF036
:103DD0008050E549C863C8220DF5B2610020FEF7A6
:103DE00050FA4FF08050E0498863BBE5A5F580505C
:103DF0000F3838D1DD48C6810120DD490870DD4922
:103E00000870DD490870DD490870DD4908704FF021
:103E10000008002416E0D54830F81400011240468E
:103E2000421C1FFA82F80DF5B2621154CF4810F807
:103E300014104046421C1FFA82F80DF5B26211546C
:103E4000601C84B2642CE6DB4FF08050C649C86326
:103E5000C8220DF5B2610020FEF713FA4FF0805032
:103E6000C14988637EE5A5F58050103838D1BF4838
:103E700006820120BE490870BE490870BE4908701C
:103E8000BE490870BE4908704FF00008002416E0D3
:103E9000B64830F8140001124046421C1FFA82F85E
:103EA0000DF5B2621154B14810F814104046421C8E
:103EB0001FFA82F80DF5B2621154601C84B2642CB2
:103EC000E6DB4FF08050A849C863C8220DF5B26107
:103ED0000020FEF7D6F94FF08050A349886341E5F2
:103EE000A5F58050113838D1A04846820120A0495C
:103EF0000870A0490870A0490870A0490870A0493E
:103F000008704FF00008002416E0984830F81400BC
:103F100001124046421C1FFA82F80DF5B26211549C
:103F2000924810F814104046421C1FFA82F80DF512
:103F3000B2621154601C84B2642CE6DB4FF08050F6
:103F40008949C863C8220DF5B2610020FEF799F9CE
:103F50004FF080508449886304E5A5F580501238FD
:103F600038D18248868201208149087081490870D1
:103F70008149087081490870814908704FF0000834
:103F8000002416E0794830F8140001124046421C23
:103F90001FFA82F80DF5B2621154744810F814102B
:103FA0004046421C1FFA82F80DF5B2621154601CA3
:103FB00084B2642CE6DB4FF080506B49C863C822A2
:103FC0000DF5B2610020FEF75CF94FF080506649B4
:103FD0008863C7E4A5F58050133838D16348C6829A
:103FE0000120634908706349087063490870634998
:103FF0000870634908704FF00008002416E05B4821
:1040000030F8140001124046421C1FFA82F80DF5E8
:10401000B2621154554810F814104046421C1FFA61
:1040200082F80DF5B2621154601C84B2642CE6DB98
:104030004FF080504C49C863C8220DF5B261002092
:10404000FEF71FF94FF08050474988638AE4A5F5D1
:104050008050143838D145480683012044490870FF
:10406000444908704449087044490870444908703C
:104070004FF00008002416E03C4830F8140001120C
:104080004046421C1FFA82F80DF5B26211543748BF
:1040900010F814104046421C1FFA82F80DF5B26267
:1040A0001154601C84B2642CE6DB4FF080502E4922
:1040B000C863C8220DF5B2610020FEF7E2F84FF0A8
:1040C0008050294988634DE4A5F58050153838D1D2
:1040D000264846830120264908702649087026494B
:1040E000087026490870264908704FF0000800241F
:1040F00016E01E4830F8140001124046421C1FFA18
:1041000082F80DF5B2621154184810F814104046A8
:10411000421C1FFA82F80DF5B2621154601C84B281
:10412000642CE6DB4FF080500F49C863C8220DF5C0
:10413000B2610020FEF7A5F84FF080500A4988636D
:1041400010E4A5F58050163848D108488683012030
:10415000074908700749087007490870074908703F
:10416000074908700EE0000000C00920DA070010BF
:10417000FF020010020300100303001004030010EC
:10418000050300104FF00008002416E0FB4830F84B
:10419000140001124046421C1FFA82F80DF5B2626B
:1041A0001154F64810F814104046421C1FFA82F8C9
:1041B0000DF5B2621154601C84B2642CE6DB4FF042
:1041C0008050EF49C863C8220DF5B2610020FEF7A8
:1041D00058F84FF08050EA49886311E4A5F5805003
:1041E000173838D1E548C6830120E6490870E6490A
:1041F0000870E6490870E6490870E64908704FF013
:104200000008002416E0DD4830F814000112404692
:10421000421C1FFA82F80DF5B2621154D74810F80B
:1042200014104046421C1FFA82F80DF5B262115478
:10423000601C84B2642CE6DB4FF08050D049C86328
:10424000C8220DF5B2610020FEF71BF84FF0805038
:10425000CB49886307E4A5F58050183838D1C748A2
:1042600006840120C7490870C7490870C74908700B
:10427000C7490870C74908704FF00008002416E0CD
:10428000BE4830F8140001124046421C1FFA82F862
:104290000DF5B2621154B94810F814104046421C92
:1042A0001FFA82F80DF5B2621154601C84B2642CBE
:1042B000E6DB4FF08050B249C863C8220DF5B26109
:1042C0000020FDF7DEFF4FF08050AD49886307E422
:1042D000A5F58050193838D1A84846840120A9494D
:1042E0000870A9490870A9490870A9490870A94926
:1042F00008704FF00008002416E0A04830F81400C1
:1043000001124046421C1FFA82F80DF5B2621154A8
:104310009A4810F814104046421C1FFA82F80DF516
:10432000B2621154601C84B2642CE6DB4FF0805002
:104330009349C863C8220DF5B2610020FDF7A1FFC3
:104340004FF080508E49886307E4A5F580501A38F5
:1043500038D18A48068501208A4908708A49087040
:104360008A4908708A4908708A4908704FF0000825
:10437000002416E0814830F8140001124046421C27
:104380001FFA82F80DF5B26211547C4810F814102F
:104390004046421C1FFA82F80DF5B2621154601CAF
:1043A00084B2642CE6DB4FF080507549C863C822A4
:1043B0000DF5B2610020FDF764FF4FF080507049A9
:1043C000886307E441F21B0085426FDB41F24C0039
:1043D00085426BDCA5F580501B386F4921F81060D1
:1043E0004FF00008002414E06B4830F81400012856
:1043F00009D1601C81B208F11F00604A22F8101038
:104400001E381FFA80F8B8F1120F00DD03E0601CBF
:1044100084B2322CE8DB00BF5848A0F83C8000246E
:1044200008E0002108F11F002044544A22F810102F
:10443000601C84B2C8F11300A042F2DC0120514993
:104440000870514908705149087051490870514924
:1044500008704FF00008002416E0484830F81400B7
:1044600001124046421C1FFA82F80DF5B262115447
:10447000424810F814104046421C1FFA82F80DF50D
:10448000B2621154601C84B2642CE6DB4FF08050A1
:104490003B49C863C8220DF5B2610020FDF7F1FE6B
:1044A0004FF08050364988630EE4FFE7A5F5805051
:1044B0004D3806D139480680FDF7D7FCFEF7A4F841
:1044C00056E4A5F580504E3806D135480680FDF7F4
:1044D000CCFCFEF799F84BE4A5F580504F3806D197
:1044E00030490E70FDF7C1FCFEF78EF840E4A5F5EB
:1044F0008050503815D1FFF7FBF8FFF7DFF82A4856
:1045000046610146D1E90423D1E90601CDE9002342
:10451000CDE9020124480FC8FFF7B5F8FFF7AAF864
:1045200026E4A5F58050513811D1FFF7E1F8FFF7E7
:10453000C5F81D480661034610330FCB8DE80F0008
:1045400019480FC8FFF79FF8FFF794F810E4A5F596
:10455000805052382AD1FFF7CBF8FFF7AFF8124856
:10456000C660034610330FCB8DE80F000E480FC80E
:10457000FFF789F8FFF77EF837E40000DA0700104C
:1045800000C00920FF020010020300100303001006
:104590000403001005030010A4080010BA02001064
:1045A000BC020010040400103C570010A5F5805018
:1045B000533811D1FFF79CF8FFF780F8F748866071
:1045C000034610330FCB8DE80F00F4480FC8FFF7F8
:1045D0005AF8FFF74FF808E4A5F58050543815D184
:1045E000FFF786F8FFF76AF8EC4846600346D3E920
:1045F0000420D3E90613CDE90213CDE90020E748F2
:104600000FC8FFF740F8FFF735F82BE4A5F5805009
:10461000553804D1E2480680FDF7F6FF22E4A5F5FF
:104620008050563804D1DF480680FDF7EDFF19E4CD
:10463000A5F58050573804D1DA484680FDF7E4FFED
:1046400010E4A5F58050583804D1D6488680FDF78F
:10465000DBFF07E4A5F58050593804D1D148C68066
:10466000FDF7D2FF3BE4A5F580505A3804D1CD4880
:104670000681FDF7C9FF32E4A5F580505B3804D10F
:10468000C9480680FDF7C0FF29E4A5F580505C38D5
:1046900004D1C5484680FDF7B7FF20E4A5F580505A
:1046A0005D3804D1C0488680FDF7AEFF17E4A5F55C
:1046B00080505E3804D1BC48C680FDF7A5FF0EE4EB
:1046C000A5F580505F3804D1B7480681FDF79CFFFF
:1046D00005E4B5F5835F04D1B4480680FDF794FF87
:1046E0003AE441F26100854204D1B0484680FDF7CA
:1046F0008BFF31E4A5F58050623804D1AB48868049
:10470000FDF782FF28E4A5F58050633804D1A7485F
:10471000C680FDF779FF1FE4A5F58050643804D109
:10472000A2480681FDF770FF16E4A5F580506538B4
:1047300004D19F480680FDF767FF0DE4A5F5805082
:10474000663804D19A484680FDF75EFF04E4A5F57B
:104750008050673804D196488680FDF755FF38E4CD
:10476000A5F58050683804D19148C680FDF74CFF0C
:104770002FE4A5F58050693804D18D480681FDF7F6
:1047800043FF26E4A5F580506A3804D189480680A5
:10479000FDF73AFF1DE4A5F580506B3804D186483B
:1047A0000680FDF731FF14E4A5F580506C3804D184
:1047B00081484680FDF728FF0BE4A5F580506D3851
:1047C00004D17D488680FDF71FFF3FE4A5F58050AA
:1047D0006E3804D17848C680FDF716FF36E4A5F59B
:1047E00080506F3804D174480681FDF70DFF2DE429
:1047F000A5F58050703804D16F484681FDF704FF5D
:1048000024E4A5F58050713804D16B488681FDF70A
:10481000FBFE1BE4A5F58050723804D16648C681C2
:10482000FDF7F2FE12E4A5F58050733804D162481A
:104830000682FDF7E9FE09E4A5F58050743804D13D
:104840005D484682FDF7E0FE3DE4A5F580507538F1
:104850000BD15A48008880B21B901B9840EA064052
:1048600056490860FDF7D0FE2DE4A5F58050763856
:104870000BD152480068000C1B901B9846EA004080
:104880004E490860FDF7C0FE1DE4A5F5805077385D
:1048900004D14B480680FDF7B7FE14E4A5F580501F
:1048A000783801D0401E50D1A5F58050783802D11B
:1048B0004448068005E0A5F58050793801D142488A
:1048C00006804148008800EB80003E49098801EBE2
:1048D00040003E49A1F89200FDF796FE01203C49B8
:1048E00008703C4908703C4908703C4908703C49D4
:1048F00008704FF00008002416E0344830F8140027
:1049000001124046421C1FFA82F80DF5B2621154A2
:104910002E4810F814104046421C1FFA82F80DF57C
:10492000B2621154601C84B2642CE6DB4FF08050FC
:104930002C49C863C8220DF5B2610020FDF7A1FC27
:104940004FF080502749886347E4A5F580507A38B6
:1049500007D0401E05D0401E03D0401E01D0401E8F
:104960007ED1A5F580507A3802D11F48068049E0F3
:10497000A5F580507B3802D11C48068042E0A5F5A1
:1049800080507C3802D11A4806803BE0A5F5805063
:104990007D3831D11748068034E000003C570010C4
:1049A000BE020010145700101E57001028570010A8
:1049B00032570010F80100101C2D001014040010D4
:1049C000180400101A0400101C040010DA0700106C
:1049D000FF02001002030010030300100403001084
:1049E0000503001000C009201E0400102004001060
:1049F0002204001024040010A5F580507E3801D157
:104A0000FE480680FE48008800EB8000FD490988CA
:104A100001EB4000FC49098801EBC10202EB0111E6
:104A200000EB8100F849098801EB4102C2EBC1119A
:104A300000EBC101F148008840F27122504301EBC4
:104A40000010F2498882FDF7DFFD0120F04908706F
:104A5000F0490870F0490870F0490870F04900E02A
:104A60002CE008704FF00008002416E0E74830F80A
:104A7000140001124046421C1FFA82F80DF5B26282
:104A80001154E24810F814104046421C1FFA82F8F4
:104A90000DF5B2621154601C84B2642CE6DB4FF059
:104AA0008050E049C863C8220DF5B2610020FDF7CF
:104AB000E8FB4FF08050DB49886308E4A5F580509F
:104AC000AC3805D0401E03D0401E01D02F3072D12B
:104AD000A5F58050AC3802D1D348068013E0A5F587
:104AE0008050AD3802D1D14806800CE0A5F5805049
:104AF000AE3802D1CE48068005E0A5F580507F385B
:104B000001D1CC480680C848008800EB80004000F6
:104B1000C649098801EBC10202EB011100EB8100DB
:104B2000C349098801EB4102C2EBC11100EBC1018D
:104B3000C048008840F27122504301EB0010B34995
:104B40008883FDF761FD0120B1490870B149087003
:104B5000B1490870B1490870B14908704FF00008B8
:104B6000002416E0A94830F8140001124046421C07
:104B70001FFA82F80DF5B2621154A44810F814100F
:104B80004046421C1FFA82F80DF5B2621154601CB7
:104B900084B2642CE6DB4FF08050A249C863C8227F
:104BA0000DF5B2610020FDF76CFB4FF080509D4980
:104BB00088631CE2FFE7B5F5845F72DB41F2940085
:104BC00085426EDCB5F5845F02D19B480680B5E076
:104BD00041F28100854202D198480680AEE0A5F5F9
:104BE0008050823802D196480680A7E0A5F5805013
:104BF000833802D190484680A0E0A5F580508438E3
:104C000002D18E48468099E0A5F58050853802D1C2
:104C10008B48468092E0A5F58050863802D18648C0
:104C200086808BE0A5F58050873802D18348868046
:104C300084E0A5F58050883802D1814886807DE0E7
:104C4000A5F58050893802D17B48C68076E0A5F56D
:104C500080508A3802D17948C6806FE0A5F580502F
:104C60008B3802D17648C68068E0A5F580508C3834
:104C700002D17148068161E0A5F580508D3802D1DE
:104C80006E4806815AE0A5F580508E3802D16C48F6
:104C9000068153E0A5F580508F3803D166484681E0
:104CA0004CE0DAE0A5F58050903802D163484681A7
:104CB00044E0A5F58050913802D1614846813DE03D
:104CC000A5F58050923802D15B48868136E0A5F583
:104CD0008050933802D1594886812FE0A5F5805045
:104CE000943802D15648868128E0A5F58050953841
:104CF00002D15148C68121E0A5F58050963802D1F5
:104D00004E48C6811AE0A5F58050973802D14C482C
:104D1000C68113E0A5F58050983802D14648068236
:104D20000CE0A5F58050993802D14448068205E090
:104D3000A5F580509A3801D141480682FDF73EFF23
:104D4000FDF762FC0120324908703249087032498F
:104D5000087032490870324908704FF0000800248A
:104D600016E02A4830F8140001124046421C1FFA8F
:104D700082F80DF5B2621154244810F81410404620
:104D8000421C1FFA82F80DF5B2621154601C84B205
:104D9000642CE6DB4FF080502249C863C8220DF531
:104DA000B2610020FDF76DFA4FF080501D49886315
:104DB0004FF00008002416E0224830F814000112D9
:104DC0004046421C1FFA82F80DF5B26211541D488C
:104DD00010F814104046421C1FFA82F80DF5B2621A
:104DE0001154601C84B2642CE6DB4FF080500D49F6
:104DF000C863C8220DF5B26126E000002604001049
:104E0000200400101E04001022040010DA07001015
:104E1000FF0200100203001003030010040300103F
:104E20000503001000C00920280400102A04001007
:104E30002C0400102E0400102A6C00103C6C001092
:104E40004E6C0010080900104FF48750FDF719FA56
:104E50004FF08050FE49886372E341F29B00854227
:104E600079DB41F2AB00854275DA012E00D00026D5
:104E7000A5F580509B3802D1F648068066E0A5F57E
:104E800080509C3802D1F34846805FE0A5F5805001
:104E90009D3802D1EF48868058E0A5F580509E38B5
:104EA00002D1EC48C68051E0A5F580509F3802D170
:104EB000E84806814AE0B5F5855F02D1E5484681BC
:104EC00044E041F2A100854202D1E24886813DE002
:104ED000A5F58050A23802D1DE48C68136E0A5F59E
:104EE0008050A33802D1DB4806822FE0A5F5805020
:104EF000A43802D1D748468228E0A5F58050A538CD
:104F000002D1D448868221E0A5F58050A63802D18E
:104F1000D048C6821AE0A5F58050A73802D1CD4806
:104F2000068313E0A5F58050A83802D1C94846830E
:104F30000CE0A5F58050A93802D1C648868305E06B
:104F4000A5F58050AA3801D1C248C6830020C249C5
:104F5000088000240BE00DE0BE4830F81400A040AB
:104F6000BD4909880843BC490880601C84B2102CE4
:104F7000F2DBE5E2A5F58050AB38FAD1B748A0F8EE
:104F800090600120B6490870B6490870B6490870AB
:104F9000B6490870B64908704FF00008002416E0C2
:104FA000AE4830F8140001124046421C1FFA82F845
:104FB0000DF5B2621154A94810F814104046421C75
:104FC0001FFA82F80DF5B2621154601C84B2642C91
:104FD000E6DB4FF080509E49C863C8220DF5B261F0
:104FE0000020FDF74EF94FF0805099498863A7E201
:104FF00041F2AF00854206DB41F2FF00854202DA52
:10500000042019909CE2A5F58050FF3809D19948F9
:1050100090F804A090F805B04BEA0A26964806805E
:105020008EE2B5F5885F64DB41F25010854260DCAA
:105030009148008841F66161884257D18D4890F8C7
:1050400004A090F805B04BEA0A26B5F5885F02D1B6
:105050008248868413E041F20110854202D17F48E4
:10506000C6840CE0A5F58850023802D17B484685FD
:1050700005E0A5F58050ED38784921F81060012051
:105080007749087077490870774908707749087040
:10509000774908704FF00008002416E06F4830F898
:1050A000140001124046421C1FFA82F80DF5B2624C
:1050B00011546A4810F814104046421C1FFA82F836
:1050C0000DF5B2621154601C84B2642CE6DB4FF023
:1050D00080505F49C863C8220DF5B2610020FDF71A
:1050E000D0F84FF080505A49886329E20420199083
:1050F00026E241F25110854206DB41F2B4108542AE
:1051000002DC042019901BE241F2B51085427BDBE2
:1051100041F29C50854277DC57480088A0F5085141
:10512000B83972D1534890F804A090F805B04BEA12
:105130000A2641F2B51085420DDB41F21820854266
:1051400009DCA5F58850B5384C4921F810600120DC
:105150004B490870F4E141F2192085420EDB41F21F
:105160007C2085420ADCA5F5905019384349C831A6
:1051700021F81060012043490870E1E141F27D20EF
:1051800085420ADBB5F5975F07DC281A3E4921F80E
:10519000106001203D490870D2E1B5F5975F0EDD42
:1051A00041F2443085420ADC41F2E120291A3648B6
:1051B000C83020F81160012035490870C0E141F283
:1051C000453085420DDB41F2A830854209DCA5F56A
:1051D000985045382F4921F8106001202E49087059
:1051E000AEE141F2A930854210DB41F20C4085422C
:1051F0000CDCA5F59850A9382649C83121F8106073
:105200000120264908709BE17AE076E041F20D40EA
:1052100085420DDB41F27040854209DCA5F5A050C6
:105220000D381F4921F8106001201E49087087E1E0
:1052300041F2714085423BDB41F2D440854237DC8C
:10524000A5F5A05071381649C83121F810602BE03F
:1052500000C00920D0090010B0020010DA070010C9
:10526000FF020010020300100303001004030010EB
:1052700005030010842F00102C03001038250010A7
:105280000603001007030010C826001008030010D2
:1052900009030010582800100A0300100B03001027
:1052A000E82900100C0300100120FE49087047E1B6
:1052B00041F2D54085420DDB41F27C20854209DC7C
:1052C000A5F5A050D538F84921F810600120F7491C
:1052D000087035E141F2395085420DDB41F29C50B6
:1052E000854209DCA5F5A8503938EF49C83121F8C5
:1052F00010600120EE49087022E1042019901FE19E
:1053000041F29D5085427CDB41F2C860854278DCE9
:10531000E8480088A0F51C510F3973D1E64890F891
:1053200004A090F805B04BEA0A2641F29D50854250
:1053300032DBB5F5B05F2FDC281AE04921F81060A8
:105340004FF00008002416E0DC4830F81400011289
:105350004046421C1FFA82F80DF5B2621154D7483C
:1053600010F814104046421C1FFA82F80DF5B26284
:105370001154601C84B2642CE6DB4FF08050D0499D
:10538000C863C8220DF5B2611046FCF77AFF4FF0F2
:105390008050CB49886375E0B5F5B05F38DD41F2E8
:1053A0006460854234DC41F20160281AC54921F865
:1053B00010604FF00008002416E0C24830F81400D6
:1053C00001124046421C1FFA82F80DF5B2621154D8
:1053D000BC4810F814104046421C1FFA82F80DF524
:1053E000B2621154601C84B2642CE6DB4FF0805032
:1053F000B349C863C8220DF5B2615000FCF741FF04
:1054000001E04EE04AE04FF08050AD49886339E05A
:1054100041F26560854235DB41F2C860854231DC8E
:10542000A5F5B0506538A84921F810604FF0000884
:10543000002416E0A44830F8140001124046421C33
:105440001FFA82F80DF5B26211549F4810F814103B
:105450004046421C1FFA82F80DF5B2621154601CDE
:1054600084B2642CE6DB4FF080509549C863C822B3
:105470000DF5B2614FF41670FCF703FF4FF080504A
:105480008F498863012091490870914908709149BA
:105490000870914908709149087051E004201990F2
:1054A0004EE041F2C960854248DB41F22D708542F1
:1054B00044DA814890F804A090F805B04BEA0A2637
:1054C000A5F5B050C938864921F810604FF00008A2
:1054D000002416E0824830F8140001124046421CB5
:1054E0001FFA82F80DF5B26211547D4810F81410BD
:1054F0004046421C1FFA82F80DF5B2621154601C3E
:1055000084B2642CE6DB4FF080506D49C863C8223A
:105510000DF5B2614FF48750FCF7B3FE4FF08050A9
:1055200067498863012069490870694908706949B9
:105530000870694908706949087001E003201990F2
:10554000012068490870684908706849087068490E
:10555000087068490870684801788DF85C16DDF8B5
:10556000441A8DF85D16544881788DF85E16C1781E
:105570008DF85F1601798DF8601641798DF8611606
:1055800006211E9102F0A4BEB5F5805FC1F295839D
:1055900041F2AF00854281F29083DDF8500A012884
:1055A0000AD1454840794449097940EA01202090D0
:1055B000414890F8069009E0504840794F490979F0
:1055C00040EA012020904D4890F8069000211D915E
:1055D0001C9101F06CBB1D98C01D374911F800A04B
:1055E0001D98083011F800B04BEA0A261D98801C5F
:1055F00081B21D911C98284487B2B7F5805F17D1FE
:10560000A6F52A40AA3806D101203D4908803D4927
:10561000087001F048BBA6F5AA40553805D13849B5
:105620000880012037490870F3E704201990F0E75B
:1056300041F20100874205D0A7F58050023801D021
:10564000401E02D104201990E3E7A7F580500438EA
:1056500015D1FEF74DF8FEF731F82B4846610346A9
:10566000D3E90412D3E90603CDE90203CDE9001220
:1056700025480FC8FEF707F8FDF7FCFFC9E7A7F5B7
:105680008050053849D1FEF733F8FEF717F81E4869
:10569000C0F810A0C0F80CB0034610330FCB8DE853
:1056A0000F0033E00D030010782B00100E030010E4
:1056B0000F0300102C030010842F0010D80A0010D4
:1056C00000C00920A00B0010680C0010FF020010A1
:1056D0000203001003030010040300100503001070
:1056E000080900101103001012030010130300102A
:1056F0001403001015030010BA0200101A30001035
:10570000600300102A0300103C570010FE480FC829
:10571000FDF7B9FFFDF7AEFF7BE7A7F58050063830
:1057200014D1FDF7E5FFFDF7C9FFF748C0F808A061
:10573000C0F804B0034610330FCB8DE80F00F248D9
:105740000FC8FDF7A0FFFDF795FF62E7A7F58050B2
:10575000073815D1FDF7CCFFFDF7B0FFEA4806602A
:105760000346D3E905021969DB69CDE90223CDE9D6
:105770000010E5480FC8FDF786FFFDF77BFF48E7FF
:10578000A7F58050083836D1E04806800120E0496E
:105790000870E0490870E0490870E04908704FF06F
:1057A0000008002416E0D94830F8140001124046E1
:1057B000421C1FFA82F80DF5B2621154D34810F85A
:1057C00014104046421C1FFA82F80DF5B2621154C3
:1057D000601C84B2642CE6DB4FF08050D049C86373
:1057E000C8220DF5B2610020FCF74BFD4FF0805050
:1057F000CB4988630DE7A7F58050093836D1C348F7
:1058000046800120C2490870C2490870C249087028
:10581000C24908704FF00008002416E0BB4830F879
:10582000140001124046421C1FFA82F80DF5B262C4
:105830001154B64810F814104046421C1FFA82F862
:105840000DF5B2621154601C84B2642CE6DB4FF09B
:105850008050B349C863C8220DF5B2610020FCF73F
:1058600010FD4FF08050AE498863D2E6A7F5805016
:105870000A3836D1A54886800120A5490870A54977
:105880000870A5490870A54908704FF00008002469
:1058900016E09E4830F8140001124046421C1FFAE0
:1058A00082F80DF5B2621154984810F81410404671
:1058B000421C1FFA82F80DF5B2621154601C84B2CA
:1058C000642CE6DB4FF080509549C863C8220DF583
:1058D000B2610020FCF7D5FC4FF0805090498863FE
:1058E00097E6A7F580500B3836D18848C68001204E
:1058F0008749087087490870874908708749087088
:105900004FF00008002416E0804830F8140001121F
:105910004046421C1FFA82F80DF5B26211547B48D2
:1059200010F814104046421C1FFA82F80DF5B262BE
:105930001154601C84B2642CE6DB4FF0805078492F
:10594000C863C8220DF5B2610020FCF79AFC4FF045
:105950008050734988635CE6A7F580500C3836D1D7
:105960006A48068101206A4908706A4908706A49D4
:1059700008706A4908704FF00008002416E0634878
:1059800030F8140001124046421C1FFA82F80DF54F
:10599000B26211545D4810F814104046421C1FFAC0
:1059A00082F80DF5B2621154601C84B2642CE6DBFF
:1059B0004FF080505A49C863C8220DF5B2610020EB
:1059C000FCF75FFC4FF080505549886321E6A7F54E
:1059D00080500D3836D14D48468101204C49087021
:1059E0004C4908704C4908704C4908704FF0000849
:1059F000002416E0454830F8140001124046421CCD
:105A00001FFA82F80DF5B2621154404810F81410D4
:105A10004046421C1FFA82F80DF5B2621154601C18
:105A200084B2642CE6DB4FF080503D49C863C82245
:105A30000DF5B2610020FCF724FC4FF0805038498E
:105A40008863E6E5A7F580500E3836D12F48868169
:105A500001202F4908702F4908702F4908702F49DD
:105A600008704FF00008002416E0284830F81400B1
:105A700001124046421C1FFA82F80DF5B262115421
:105A8000224810F814104046421C1FFA82F80DF507
:105A9000B2621154601C84B2642CE6DB4FF080507B
:105AA0001F49C863C8220DF5B2610020FCF7E9FB6D
:105AB0004FF080501A498863ABE5A7F580500F3846
:105AC00046D11248C6810120114908701149087059
:105AD00011490870114908704FF00008002426E0B1
