:020000040000FA
:10000000D8700010A1010000A5010000A7010000A8
:10001000A9010000AB010000AD01000000000000DC
:10002000000000000000000000000000AF01000020
:10003000B101000000000000B3010000B5010000A4
:10004000B7010000B7010000556B0000F369000024
:10005000FD670000937C0100B7010000B7010000BC
:100060007B7D0100B7010000B7010000B70100006F
:10007000B7010000B7010000813C0000B70100009B
:10008000B7010000AB450000B7010000B701000058
:10009000B7010000B7010000B7010000B701000080
:1000A000B70100008F3F0000B7010000B70100005A
:1000B000B7010000B7010000B7010000B701000060
:1000C000B701000000F002F800F05CF80AA090E828
:1000D000000C82448344AAF10107DA4501D100F003
:1000E00051F8AFF2090EBAE80F0013F0010F18BF74
:1000F000FB1A43F00103184748A0010068A0010063
:100100000A444FF0000C10F8013B13F0070408BF3D
:1001100010F8014B1D1108BF10F8015B641E05D0DB
:1001200010F8016B641E01F8016BF9D113F0080F90
:100130001EBF10F8014BAD1C0C1B09D16D1E58BF22
:1001400001F801CBFAD505E014F8016B01F8016B59
:100150006D1EF9D59142D6D37047000000230024CC
:1001600000250026103A28BF78C1FBD8520728BFC7
:1001700030C148BF0B6070471FB5AFF300801FBD93
:1001800010B510BD00F070F81146FFF7F5FF08F04C
:1001900032FD00F08EF8FFF7F3FF00F091F8000059
:1001A00008480047FEE7FEE7FEE7FEE7FEE7FEE75A
:1001B000FEE7FEE7FEE7FEE703480449024A044B78
:1001C00070470000C5000000D8680010D87000100B
:1001D000D868001010B5203AC0F00B80B1E8185074
:1001E000203AA0E81850B1E81850A0E81850BFF421
:1001F000F5AF5FEA027C24BFB1E81850A0E81850C0
:1002000044BF18C918C0BDE810405FEA827C24BF13
:1002100051F8043B40F8043B08BF7047D20728BFA1
:1002200031F8023B48BF11F8012B28BF20F8023BF0
:1002300048BF00F8012B704770477047704710B5F2
:1002400000F008F8006810BD10B5044600F002F890
:10025000046010BD014870477047000074680010CA
:1002600000487047746800107546FFF7F9FFAE4606
:1002700005006946534620F00700854618B020B5B2
:10028000FFF79AFFBDE820404FF000064FF000074F
:100290004FF000084FF0000B21F00701AC46ACE82E
:1002A000C009ACE8C009ACE8C009ACE8C0098D469B
:1002B00070470446AFF300802046FFF76CFF000054
:1002C00003494FF01800ABBE704700000900000062
:1002D000260002007047000002494FF0000019F0AC
:1002E00028BE00000000F87F02494FF0000019F01E
:1002F00020BE00000000F87F00000000FFFFFFFFAD
:1003000020207F49086000BF7D48006810F0400F42
:10031000FAD003207A499C39086001207949C1F854
:100320000C010F207749843108600120091F086003
:10033000AA2074498C31086055207249C1F88C009C
:1003400000BF70488830006810F0806FF9D003203B
:100350006C4980310860AA206A49C1F88C00552098
:1003600068498C31086023206649A4310860012067
:10037000091F0860AA206349AC3108605520086055
:1003800000BF6048A830006810F4806FF9D00320E7
:100390005C49A0310860AA205A49C1F8AC00552038
:1003A0005849AC3108600020554908310860091DE2
:1003B000086055485349C431086000205149C1F8CC
:1003C000C8010846D0F88800C0F30160032860D156
:1003D0004B489438006810F0030006D0012820D064
:1003E000022839D0032853D100E000BF45488830A7
:1003F0000068C0F30E00401C41004248D0F888005D
:10040000C0F30740401CB1FBF0F1404841433C4879
:100410009C380068C0B2401CB1FBF0F03C49086059
:1004200036E0384888300068C0F30E00401C4100B8
:100430003448D0F88800C0F30740401CB1FBF0F10D
:10044000344841432E489C380068C0B2401CB1FB80
:10045000F0F02F4908601BE02A4888300068C0F39C
:100460000E00401C41002748D0F88800C0F3074028
:10047000401CB1FBF0F14FF4FA40414320489C3856
:100480000068C0B2401CB1FBF0F02149086000BF19
:1004900030E01B489438006810F0030006D00128B3
:1004A00010D0022819D0032823D100E000BF14483F
:1004B0009C380068C0B2401C1449B1FBF0F01449EC
:1004C000086016E00E489C380068C0B2401C114914
:1004D000B1FBF0F00E4908600BE009489C38006859
:1004E000C0B2401C4FF4FA41B1FBF0F0084908607B
:1004F00000BF00BF43F23A000249086070470000A5
:10050000A0C10F4000C00F40DE87E80400093D0095
:1005100000000010001BB70030B502464FF6FF7018
:1005200011E032F8024B604000230AE010F0010FA6
:1005300004D04AF2010484EA600000E040105C1C30
:10054000A3B2102BF2DB0C00A1F10105A9B2E8D196
:1005500030BD10B5FF48006840F40010FD49C439B3
:10056000C1F8C4000846D0F8AC0120F44060C1F8DE
:10057000AC010846D0F8AC0140F48060F549E831A0
:1005800008600F20F4490860062048600420486194
:100590000E2017F0C7FC0020EF49486110BD2DE97F
:1005A000F04F99B00020ED4908800EE0EC48EB498F
:1005B000098830F81100EB49E84A128821F8120046
:1005C000E6480088401CE5490880E4480088B0F50A
:1005D000967FEBDB4FF49670E04908807CE0DF48C3
:1005E0000088B0F5967F04DBDC480088B0F5AF7F6B
:1005F00014DBDA480088B0F5C87F04DBD7480088F0
:10060000B0F5E17F0ADBD5480088B0F5FA7F46DB1C
:10061000D248008840F22621884240DAD049CF4AA9
:10062000128831F8120019F09AFACF490860CF49C0
:1006300091F86313CD4A92F8622341EA022019F03F
:1006400075FACB490860C9494979C84A127941EA23
:10065000022019F06BFA04460146C548006819F0FB
:1006600047F9C349086008460168BF48006819F0A7
:10067000ABFA044619F02EFAB8490988A1F596712B
:10068000BC4A22F81100B848006819F023FAB349AF
:100690000988A1F59671B84A22F8110017E0B04810
:1006A000AE49098830F81100AC490988A1F5967166
:1006B000B04A22F81100AA48A849098830F8110068
:1006C000A6490988A1F59671AB4A22F81100A34802
:1006D0000088401CA1490880A0480088B0F5167F1A
:1006E000FFF67DAF4FF416709C49088010E09C48DF
:1006F0009A49098830F8110098490988A1F51671BE
:100700009E4A22F8110095480088401C93490880B1
:1007100092480088B0F52F7FE9DB4FF42F708F49A6
:10072000088010E08E488D49098830F811008B4907
:100730000988A1F52F71924A22F811008748008894
:10074000401C8649088085480088B0F57A7FE9DB3F
:1007500000208249088067E08048008832280FDB4B
:100760007E480088642803DB7C480088962807DBE5
:100770007A480088C8283EDB78480088FA283ADAA8
:1007800078487649098830F811007A49734A128806
:1007900031F81210884221DD72487049098830F81A
:1007A000110074496D4A128831F81210401A7549C7
:1007B0006A4A128821F812006A486849098830F8A4
:1007C00011006D49654A128831F81210401A81B241
:1007D0006D48624A128820F8121020E00021694812
:1007E0005E4A128820F81210002067495B4A12887E
:1007F00021F8120013E05B485849098830F81100CD
:100800006049564A128821F812005648534909880F
:1008100030F811005C49514A128821F812004F4803
:100820000088401C4D4908804C480088B0F5967FF0
:1008300092DB00204949088010E05349474A12885A
:1008400031F8120019F08BF95049444A128841F8E6
:10085000220042480088401C404908803F480088E8
:10086000B0F5967FE9DB00203C49088010E03D4967
:100870003A4A128831F8120019F071F94449374A9E
:10088000128841F8220035480088401C334908800E
:1008900032480088B0F5967FE9DB00203D490870BA
:1008A00001F0C1BE00203C4908603C4908603C4959
:1008B00008603C49086001203B4908809FE13549B8
:1008C000097801EBC10202EB0111374A128802EBF1
:1008D00081012E4A52F8210018F056FFCDE9160189
:1008E00032A00CC8169818F0C3FC78D2294A1278A6
:1008F00002EBC20303EB02122B4B1B8803EB8202B9
:10090000224B53F82210234A127802EBC20303EB66
:100910000212254B1B8803EB82021C4B53F822006A
:1009200019F052F9044618F02FFFCDE9160121A065
:100930000CC8169818F0ECFACDE914011FA00CC8E9
:10094000149818F009F8CDE912011348006818F05E
:100950001BFF38E0C4C00F4000800840AE07001005
:10096000C80B0010E8210010B00700105816001046
:10097000B4070010901F0010381D0010CC070010A5
:10098000F02800109826001040240010FC470010AA
:10099000EC520010A8050010C4050010C805001096
:1009A000A4060010A8060010AA05001048E17A1459
:1009B000AE472C40000000000000F03F00000000A7
:1009C000000069400BE0CDE91001DDE9122317F0CA
:1009D0007FFECDE90E0117F031FEFF490860FF49A7
:1009E000097801EBC10202EB0111FD4A128802EB0A
:1009F0008101FC4A52F8210018F0C6FECDE916012B
:100A0000AFF258000CC8169818F032FC40D2F34AE6
:100A1000127802EBC20303EB0212F14B1B8803EBCB
:100A20008202F04B53F82210EC4A127802EBC20318
:100A300003EB0212EA4B1B8803EB8202E94B53F8EB
:100A4000220019F0C1F8044618F09EFECDE9160107
:100A5000AFF2A0000CC8169818F05AFACDE91401AC
:100A6000AFF2A8000CC8149817F076FFCDE9120178
:100A7000DD48006818F088FECDE91001DDE9122399
:100A800017F026FECDE90E0117F0D8FDD649086013
:100A9000D249097801EBC10202EB0111D04A128858
:100AA00002EB8101D14A52F8210018F06DFECDE928
:100AB0001601AFF208100CC8169818F0D9FB40D2F6
:100AC000C64A127802EBC20303EB0212C44B1B8826
:100AD00003EB8202C54B53F82210C04A127802EB96
:100AE000C20303EB0212BE4B1B8803EB8202BF4B17
:100AF00053F8220019F068F8044618F045FECDE9D5
:100B00001601AFF250100CC8169818F001FACDE992
:100B10001401AFF258100CC8149817F01DFFCDE95E
:100B20001201B348006818F02FFECDE91001DDE98D
:100B3000122317F0CDFDCDE90E0117F07FFDAC4972
:100B40000860A649097801EBC10202EB0111A44A31
:100B5000128802EB8101A54A52F8210018F014FE18
:100B6000CDE91601AFF2BC100CC8169818F080FB46
:100B700040D29A4A127802EBC20303EB0212984B5E
:100B80001B8803EB8202994B53F82210934A127888
:100B900002EBC20303EB0212914B1B8803EB8202B0
:100BA000924B53F8220019F00FF8044618F0ECFDB0
:100BB000CDE91601AFF204200CC8169818F0A8F978
:100BC000CDE91401AFF20C200CC8149817F0C4FE44
:100BD000CDE912018748006818F0D6FDCDE9100173
:100BE000DDE9122317F074FDCDE90E0117F026FDA3
:100BF000804908607A480088401C79490880784814
:100C000000881928FFF65BAE744A127864235A43B1
:100C1000744B53F82210714A127864235A43714B73
:100C200053F8220018F0D0FF0646734918F060FE12
:100C3000054669480168284618F0CEFD044618F0BC
:100C4000A3FDCDE9160117F0CFFCCDE9140117F093
:100C5000F5FC6A490860614A127864235A43634B81
:100C600053F822105D4A127864235A435F4B53F8BD
:100C7000220018F0A9FF06465F4918F039FE054624
:100C80005B480168284618F0A7FD044618F07CFD73
:100C9000CDE9160117F0A8FCCDE9140117F0CEFC40
:100CA000574908605048006818F06EFDCDE91601FC
:100CB00017F09AFCCDE9140117F0C0FC5149086007
:100CC0004C48006818F060FDCDE9160117F08CFC67
:100CD000CDE9140117F0B2FC4B490860494801689E
:100CE0004A4818F071FF04463C480078642250439B
:100CF0003C4A52F82010204618F0FAFD444908609A
:100D000041480168414818F05FFF044633480078C5
:100D100064225043354A52F82010204618F0E8FD6E
:100D20003C4908602D49097821313B4A32F81100CD
:100D300018F015FF3949086039493848006818F03B
:100D4000EDFF48D22549097801EBC10202EB011100
:100D5000322202EB8101234A52F82100304918F077
:100D6000DDFF69D21D49097801EBC10202EB0111D7
:100D7000322202EB81011B4A52F82100294919F065
:100D800003F8044618F000FDCDE9160126A00CC8B2
:100D9000169818F0BDF8CDE9140125A00CC81498D8
:100DA00017F0DAFDCDE912011E491C48006818F061
:100DB000EBFF044618F0E8FCCDE910011AA00CC8BE
:100DC000109818F0A5F8CDE90E0119A00CC80E98DE
:100DD00017F0C2FD31E061E3C4050010A805001062
:100DE000AA050010FC470010C8050010EC520010C6
:100DF000A4060010A806001000004843CC0500100F
:100E0000AC060010D0050010B006001000F05C46E3
:100E1000D4050010B4060010CC0700104C050010DB
:100E200000FEFF4600FF7F471F85EB51B81E0940BB
:100E3000000000000094D14074E1CDE90C01DDE92F
:100E4000122318F007FBCDE90A01FFA00CC80A988D
:100E500018F000FBCDE9080117F076FBCDE906019B
:100E6000FB49097864225143FA4A52F8210018F0EC
:100E70008BFCCDE90401AFF2CC400CC8049817F00C
:100E80006BFDCDE90201DDE9062318F041F8CDE95B
:100E9000000117F0D3FBF0490860ED49097801EB38
:100EA000C10202EB0111322202EB8101E94A52F840
:100EB0002100EA4918F068FF044618F065FCCDE906
:100EC0001601AFF29C000CC8169818F021F8CDE975
:100ED0001401AFF2A4000CC8149817F03DFDCDE941
:100EE0001201DE49DE48006818F04EFF044618F093
:100EF0004BFCCDE91001AFF2D0000CC8109818F0EF
:100F000007F8CDE90E01AFF2D8000CC80E9817F023
:100F100023FDCDE90C01DDE9122318F09BFACDE9A0
:100F20000A01C9A00CC80A9818F094FACDE9080182
:100F300017F0BCFACDE90601C5490978642251438E
:100F4000C44A52F8210018F01FFCCDE90401AFF2A9
:100F5000A4500CC8049817F0FFFCCDE90201DDE9AC
:100F6000062317F0D5FFCDE9000117F067FBBD4957
:100F70000860B749097801EBC10202EB0111322286
:100F800002EB8101B84A52F82100B44918F0FCFE86
:100F9000044618F0F9FBCDE91601AFF274100CC845
:100FA000169817F0B5FFCDE91401AFF27C100CC80C
:100FB000149817F0D1FCCDE91201A849A84800689F
:100FC00018F0E2FE044618F0DFFBCDE91001AFF2A5
:100FD000A8100CC8109817F09BFFCDE90E01AFF2D6
:100FE000B0100CC80E9817F0B7FCCDE90C01DDE984
:100FF000122318F02FFACDE90A0193A00CC80A9821
:1010000018F028FACDE9080117F09EFACDE906019B
:101010008F49097864225143934A52F8210018F00D
:10102000B3FBCDE90401AFF27C600CC8049817F063
:1010300093FCCDE90201DDE9062317F069FFCDE954
:10104000000117F0FBFA894908608149097801EB32
:10105000C10202EB0111322202EB8101824A52F8F5
:1010600021007E4918F090FE044618F08DFBCDE972
:101070001601AFF24C200CC8169817F049FFCDE9C5
:101080001401AFF254200CC8149817F065FCCDE998
:10109000120172497248006818F076FE044618F092
:1010A00073FBCDE91001AFF280200CC8109817F047
:1010B0002FFFCDE90E01AFF288200CC80E9817F073
:1010C0004BFCCDE90C01DDE9122318F0C3F9CDE9A1
:1010D0000A015DA00CC80A9818F0BCF9CDE9080116
:1010E00017F0E4F9CDE90601594909786422514322
:1010F0005D4A52F8210018F047FBCDE90401AFF238
:1011000054700CC8049817F027FCCDE90201DDE902
:10111000062317F0FDFECDE9000117F08FFA5449C0
:10112000086087E34A49097801EBC10202EB01112B
:10113000322202EB8101474A52F8210018F024FBC9
:10114000CDE91601AFF220300CC8169817F0E0FE7A
:10115000CDE91401AFF228300CC8149817F0FCFB4D
:10116000CDE912013D493E48006818F00DFE0446E5
:1011700018F00AFBCDE91001AFF254300CC81098FA
:1011800017F0C6FECDE90E01AFF25C300CC80E9828
:1011900017F0E2FBCDE90C01DDE9122318F05AF952
:1011A000CDE90A0128A00CC80A9818F053F9CDE936
:1011B000080117F0C9F9CDE906012549097864222B
:1011C0005143244A52F8210018F0DEFACDE9040117
:1011D000AFF628000CC8049817F0BEFBCDE9020159
:1011E000DDE9062317F094FECDE9000117F026FA99
:1011F000194908601649097801EBC10202EB011197
:10120000322202EB8101134A52F8210018F0BCFA95
:10121000CDE91601AFF2F0300CC8169817F078FE41
:10122000CDE91401AFF2F8300CC8149817F094FB14
:10123000CDE9120109490A48006818F0A5FD0446E5
:1012400018F0A2FA16E000001F85EB51B81EF93F16
:10125000A8050010FC470010D805001000FF7F47CC
:101260004C050010E0050010EC520010B80600100C
:10127000BC060010CDE91001AFF254400CC8109824
:1012800017F046FECDE90E01AFF25C400CC80E9897
:1012900017F062FBCDE90C01DDE9122318F0DAF852
:1012A000CDE90A01AFF260000CC80A9818F0D2F834
:1012B000CDE9080117F0FAF8CDE90601FF490978F0
:1012C00064225143FE4A52F8210018F05DFACDE93C
:1012D0000401AFF628100CC8049817F03DFBCDE9C7
:1012E0000201DDE9062317F013FECDE9000117F036
:1012F000A5F9F4490860F149097801EBC10202EB54
:101300000111322202EB8101EF4A52F8210018F05C
:101310003BFACDE91601AFF2F0400CC8169817F071
:10132000F7FDCDE91401AFF2F8400CC8149817F09E
:1013300013FBCDE91201E549E548006818F024FDEA
:10134000044618F021FACDE91001AFF224500CC880
:10135000109817F0DDFDCDE90E01AFF22C500CC84E
:101360000E9817F0F9FACDE90C01DDE9122318F017
:1013700071F8CDE90A01AFF230100CC80A9818F0E4
:1013800069F8CDE9080117F0DFF8CDE90601CB498E
:10139000097864225143CC4A52F8210018F0F4F93C
:1013A000CDE90401AFF6FC100CC8049817F0D4FA8C
:1013B000CDE90201DDE9062317F0AAFDCDE9000120
:1013C00017F03CF9C3490860BC49097801EBC10238
:1013D00002EB0111322202EB8101BB4A52F82100DB
:1013E00018F0D2F9CDE91601AFF2C4500CC8169826
:1013F00017F08EFDCDE91401AFF2CC500CC8149853
:1014000017F0AAFACDE91201B049B148006818F006
:10141000BBFC044618F0B8F9CDE91001AFF2F85062
:101420000CC8109817F074FDCDE90E01AFF2006002
:101430000CC80E9817F090FACDE90C01DDE91223E3
:1014400018F008F8CDE90A01AFF204200CC80A9898
:1014500018F000F8CDE9080117F028F8CDE90601E9
:101460009649097864225143974A52F8210018F0AE
:101470008BF9CDE90401AFF6CC200CC8049817F025
:101480006BFACDE90201DDE9062317F041FDCDE954
:10149000000117F0D3F89049086073E38749097891
:1014A00001EBC10202EB0111322202EB8101844AFD
:1014B00052F82100894918F031FC7DD27F49097822
:1014C00001EBC10202EB0111322202EB81017C4AE5
:1014D00052F821007D4918F057FC044618F054F9E1
:1014E000CDE91601AFF2C0600CC8169817F010FDD8
:1014F000CDE91401AFF2C8600CC8149817F02CFAAB
:10150000CDE912017248006818F03EF9CDE91001EA
:10151000AFF2EC600CC8109817F0FAFCCDE90E01A0
:10152000AFF2F4600CC80E9817F016FACDE90C0172
:10153000DDE9122317F08EFFCDE90A01AFF2F820A2
:101540000CC80A9817F086FFCDE9080116F0FCFFD9
:10155000CDE906015949097864225143584A52F8A5
:10156000210018F011F9CDE90401AFF6C0300CC824
:10157000049817F0F1F9CDE90201DDE9062317F02F
:10158000C7FCCDE9000117F059F8554908604B49EF
:10159000097801EBC10202EB0111322202EB810159
:1015A000474A52F82100494918F0EEFB044618F06A
:1015B000EBF8CDE9160100E03DE1AFF294700CC804
:1015C000169817F0A5FCCDE91401AFF29C700CC879
:1015D000149817F0C1F9CDE912013D48006818F0E0
:1015E000D3F8CDE91001AFF2C0700CC8109817F015
:1015F0008FFCCDE90E01AFF2C8700CC80E9817F041
:10160000ABF9CDE90C01DDE9122317F023FFCDE999
:101610000A01AFF2CC300CC80A9817F01BFFCDE9D5
:10162000080116F043FFCDE9060124490978642238
:101630005143234A52F8210018F0A6F8CDE90401DD
:10164000AFF698400CC8049817F086F9CDE902016E
:10165000DDE9062317F05CFCCDE9000116F0EEFF92
:10166000184908601549097801EBC10202EB011124
:10167000322202EB8101144A52F82100134918F07A
:1016800083FB044618F080F8CDE91601AFF6680038
:101690000CC8169817F03CFCCDE91401AFF67000A9
:1016A0000CC8149817F058F9CDE9120108480068E1
:1016B00018F06AF8CDE9100114E00000A805001048
:1016C000FC470010E0050010EC52001000FF7F47BF
:1016D0004C050010B8060010BC06001000FEFF46C6
:1016E000D8050010AFF6C0000CC8109817F010FC19
:1016F000CDE90E01AFF6C8000CC80E9817F02CF912
:10170000CDE90C01DDE9122317F0A4FECDE90A01B1
:10171000AFF2CC400CC80A9817F09CFECDE9080146
:1017200016F012FFCDE90601FF4909786422514302
:10173000FE4A52F8210018F027F8CDE90401AFF66F
:1017400094500CC8049817F007F9CDE90201DDE9BF
:10175000062317F0DDFBCDE9000116F06FFFF44919
:101760000860F149097801EBC10202EB0111322254
:1017700002EB8101ED4A52F82100EE4918F004FB1A
:10178000044618F001F8CDE91601AFF664100CC854
:10179000169817F0BDFBCDE91401AFF66C100CC81C
:1017A000149817F0D9F8CDE91201E348006817F052
:1017B000EBFFCDE91001AFF690100CC8109817F0B0
:1017C000A7FBCDE90E01AFF698100CC80E9817F0E4
:1017D000C3F8CDE90C01DDE9122317F03BFECDE99A
:1017E0000A01AFF29C500CC80A9817F033FECDE9FD
:1017F000080116F05BFECDE90601CB4909786422A9
:101800005143CA4A52F8210017F0BEFFCDE9040146
:10181000AFF668600CC8049817F09EF8CDE9020195
:10182000DDE9062317F074FBCDE9000116F006FF91
:10183000C2490860A6E1BC49097801EBC10202EB8C
:101840000111322202EB8101BD4A52F8210017F04A
:101850009BFFCDE91601AFF630200CC8169817F0A3
:1018600057FBCDE91401AFF638200CC8149817F0D7
:1018700073F8CDE91201B048006817F085FFCDE993
:101880001001AFF65C200CC8109817F041FBCDE9B1
:101890000E01AFF664200CC80E9817F05DF8CDE984
:1018A0000C01DDE9122317F0D5FDCDE90A01AFF2F5
:1018B00068600CC80A9817F0CDFDCDE9080116F054
:1018C00043FECDE9060198490978642251439C4AB8
:1018D00052F8210017F058FFCDE90401AFF634703B
:1018E0000CC8049817F038F8CDE90201DDE90623A9
:1018F00017F00EFBCDE9000116F0A0FE914908603B
:101900008949097801EBC10202EB0111322202EB95
:1019100081018B4A52F8210017F036FFCDE91601FC
:10192000AFF6FC200CC8169817F0F2FACDE91401B6
:10193000AFF604300CC8149817F00EF8CDE9120178
:101940007D48006817F020FFCDE91001AFF6283080
:101950000CC8109817F0DCFACDE90E01AFF6303064
:101960000CC80E9816F0F8FFCDE90C01DDE9122342
:1019700017F070FDCDE90A01AFF234700CC80A9877
:1019800017F068FDCDE9080116F090FDCDE90601DC
:101990006549097864225143694A52F8210017F0D9
:1019A000F3FECDE90401AFF6FC700CC8049816F004
:1019B000D3FFCDE90201DDE9062317F0A9FACDE94D
:1019C000000116F03BFE604908605749097801EBB9
:1019D000C10202EB0111322202EB8101534A52F89B
:1019E000210017F0D1FECDE91601AFF6C4300CC8C6
:1019F000169817F08DFACDE91401AFF6CC300CC86B
:101A0000149816F0A9FFCDE912014B48006817F0B1
:101A1000BBFECDE91001AFF6F0300CC8109817F0FE
:101A200077FACDE90E01AFF6F8300CC80E9816F033
:101A300093FFCDE90C01DDE9122317F00BFDCDE991
:101A40000A01AFF2FC700CC80A9817F003FDCDE94B
:101A5000080116F079FDCDE90601334909786422C1
:101A60005143324A52F8210017F08EFECDE90401AD
:101A700036480CC8049816F06FFFCDE90201DDE985
:101A8000062317F045FACDE9000116F0D7FD2849E5
:101A900008602549097801EBC10202EB01113222ED
:101AA00002EB8101214A52F8210017F06DFECDE9C9
:101AB0001601AFF68C400CC8169817F029FACDE93C
:101AC0001401AFF694400CC8149816F045FFCDE908
:101AD00012011948006817F057FECDE91001AFF662
:101AE000B8400CC8109817F013FACDE90E01AFF604
:101AF000C0400CC80E9816F02FFFCDE90C01DDE9AF
:101B0000122317F0A7FCCDE90A01AFF6C4000CC8F8
:101B10000A9817F09FFCCDE9080116F0C7FCCDE943
:101B200006010149097813E0A8050010EC520010E5
:101B3000B806001000FF7F474C050010BC060010DF
:101B4000FC470010D8050010E0050010AC090000AB
:101B500064225143F94A52F8210017F015FECDE9ED
:101B60000401F7480CC8049816F0F6FECDE902010E
:101B7000DDE9062317F0CCF9CDE9000116F05EFD92
:101B8000F0490860F049F1480078133031F810004E
:101B90000A2190FBF1F4204617F0C8FFEC490860D9
:101BA0000021EC48006818F0B9F808D2EA4801684A
:101BB000E848006817F09CFEE84908600CE0E5483A
:101BC0000168E74818F000F80446E3480168204639
:101BD00017F08EFEE1490860E249086817F0D4FD6D
:101BE000CDE91601E0A00CC8169817F059F902D2F9
:101BF0000020DA4908600021D248006818F08EF809
:101C000008D2DB480168CF48006817F071FED94957
:101C100008600CE0CB480168D14817F0D5FF0446B6
:101C2000D3480168204617F063FED2490860C349D3
:101C3000086817F0A9FDCDE91601CBA00CC81698CD
:101C400017F02EF902D20020CA490860C148016885
:101C5000BF48006817F0B8FFC7490860B948016875
:101C6000BB48006817F0B0FFC44908600021C348B2
:101C7000006817F079FF1CD2B248006817F084FDA5
:101C8000CDE91601B248006817F07EFDCDE91401D8
:101C9000BBA00CC8149817F03BF9CDE91201DDE99F
:101CA000162317F035F9CDE9100116F0C7FCB3493A
:101CB00008600021B448006818F030F808D2B24833
:101CC0000168A348006817F07FFFB04908601CE076
:101CD000AD48006817F058FDCDE916019C48006832
:101CE00017F052FDCDE91401A5A00CC8149817F007
:101CF0000FF9CDE91201DDE9162317F009F9CDE955
:101D0000100116F09BFCA14908600021A048006862
:101D100018F004F808D29E4801688D48006817F052
:101D200053FF9C4908601CE09948006817F02CFD9F
:101D3000CDE916018648006817F026FDCDE91401AB
:101D40008FA00CC8149817F0E3F8CDE91201DDE973
:101D5000162317F0DDF8CDE9100116F06FFC8D4960
:101D600008608D4801687A48006817F02DFF8B499C
:101D700008608B4801687648006817F025FF89499C
:101D8000086086480168006817F01EFF06467F4815
:101D90000168006817F018FF074677480168006877
:101DA00017F012FF8046394617F016FD05463146FA
:101DB00017F012FD044617F0E7FCCDE9160116F006
:101DC00013FCCDE9140116F039FC77490860754819
:101DD0000168006817F0F8FE06466E480168006862
:101DE00017F0F2FE074665480168006817F0ECFE40
:101DF0008046394617F0F0FC0546314617F0ECFCFA
:101E0000044617F0C1FCCDE9160116F0EDFBCDE953
:101E1000140116F013FC6549086000214D48006864
:101E200017F0A2FE29D249490978642251434D4A4C
:101E300052F8210017F0A8FCCDE9160145480068CA
:101E400017F0A2FCCDE914014DA00CC8149817F0AE
:101E50005FF8CDE912013A480CC8129817F058F80B
:101E6000CDE91001DDE9162316F076FDCDE90E016E
:101E700016F0E4FB4E49086021E0344909786422F9
:101E80005143384A52F8210017F07EFCCDE9160183
:101E90003048006817F078FCCDE9140128480CC8D8
:101EA000149817F035F8CDE91201DDE9162316F084
:101EB00053FDCDE9100116F0C1FB3D4908602949E9
:101EC000086817F061FCCDE9160127A00CC8169828
:101ED00016F0E6FF02D200203549086000211948BB
:101EE000006817F041FE68D218490978642251430E
:101EF000124A52F8210017F047FCCDE916011148AB
:101F0000006817F041FCCDE914011DA00CC814981D
:101F100016F0FEFFCDE9120109480CC8129816F020
:101F2000F7FFCDE91001DDE9162316F015FDCDE927
:101F30000E0116F083FB1F49086060E0EC520010B0
:101F4000AC090000BC060010CC070010A80500106A
:101F5000DC050010E0050010CC050010E4050010C1
:101F6000000080BFFC470010F6285C8FC23535406A
:101F7000AC060010C0060010E8050010C4060010F2
:101F8000000000000000F0BFD8050010EC050010B4
:101F9000B8060010C8060010D0050010F0050010AB
:101FA000B0060010CC060010F4050010D00600109A
:101FB000F8050010D4060010FFE7FF4909786422F5
:101FC0005143FE4A52F8210017F0DEFBCDE916011D
:101FD000FB48006817F0D8FBCDE91401F9480CC89C
:101FE000149816F095FFCDE91201DDE9162316F0DD
:101FF000B3FCCDE9100116F021FBF3490860EF496D
:10200000086817F0C1FBCDE91601AFF2A4000CC8B7
:10201000169816F045FF02D20020EB490860E6480A
:10202000007800287ED1E9480168E948006817F087
:10203000D3FBE7490860E7480168E748006817F004
:10204000CBFBE5490860E5480168E548006817F002
:10205000C3FBE3490860E3480168E348006817F000
:10206000BBFBE1490860E1480168E148006817F0FE
:10207000B3FBDF490860DF480168DF48006817F0FC
:10208000ABFBDD490860DD480168DD48006817F0FA
:10209000A3FBDB490860DB480168DB48006817F0F8
:1020A0009BFBD9490860D9480168D948006817F0F6
:1020B00093FBD7490860D7480168D748006817F0F4
:1020C0008BFBD5490860D5480168D548006817F0F2
:1020D00083FBD3490860D3480168D348006817F0F0
:1020E0007BFBD1490860D1480168D148006817F0EE
:1020F00073FBCF490860CF480168CF48006817F0EC
:102100006BFBCD490860CD480168CD48006817F0E9
:1021100063FBCB490860CB480168CB48006817F0E7
:102120005BFB00E042E0C8490860C8480168C84855
:10213000006817F051FBC6490860A1480168C5480E
:10214000006817F049FBC3490860C3480168C348E9
:10215000006817F041FBC1490860C1480168C148E7
:10216000006817F039FBBF490860BF480168BF48E5
:10217000006817F031FBBD490860BD480168BD48E3
:10218000006817F029FBBB490860BB480168BB48E1
:10219000006817F021FBB94908608B480168B8480E
:1021A000006817F019FBB649086037E282480078EA
:1021B00001287ED185480168B248006817F00CFB01
:1021C000B049086083480168AF48006817F004FB15
:1021D000AD49086081480168AC48006817F0FCFA16
:1021E000AA4908607F480168A948006817F0F4FA16
:1021F000A74908607D480168A648006817F0ECFA16
:10220000A44908607B480168A348006817F0E4FA15
:10221000A149086079480168A048006817F0DCFA15
:102220009E490860774801689D48006817F0D4FA15
:102230009B490860754801689A48006817F0CCFA15
:1022400098490860734801689748006817F0C4FA15
:1022500095490860714801689448006817F0BCFA15
:10226000924908606F4801689148006817F0B4FA15
:102270008F4908606D4801688E48006817F0ACFA15
:102280008C4908606B4801688B48006817F0A4FA15
:1022900089490860694801688848006817F09CFA15
:1022A00086490860674801688548006817F094FA15
:1022B00000E042E0824908606448016881480068A3
:1022C00017F08AFA7F4908603D4801687E48006837
:1022D00017F082FA7C4908605F4801687B48006813
:1022E00017F07AFA794908605D4801687848006813
:1022F00017F072FA764908605B4801687548006813
:1023000017F06AFA73490860594801687248006812
:1023100017F062FA70490860574801686F48006812
:1023200017F05AFA6D490860274801686C48006840
:1023300017F052FA6A49086070E11F4800780228D5
:10234000FAD168480078401C664908701F48016847
:102350006548006817F040FA634908601D48016845
:102360006248006817F038FA604908601B48016845
:102370005F48006817F030FA5D4908601948016845
:102380005C48006817F028FA5A4908601748016845
:102390005948006817F020FA574908601548016845
:1023A0005648006817F018FA544908601348016845
:1023B00053480068A6E00000A8050010EC52001089
:1023C000BC060010AC090000D4060010CC050010BB
:1023D00008060010D005001014060010D4050010E7
:1023E00020060010D80500102C060010E005001093
:1023F00038060010E405001044060010E80500103F
:1024000050060010EC0500105C060010F0050010EE
:1024100068060010F405001074060010F80500109E
:1024200080060010FC0500108C060010000600104D
:1024300098060010AC060010D8060010B006001078
:10244000DC060010B4060010E0060010B80600100C
:10245000E4060010E8060010C0060010EC060010AC
:10246000C4060010F0060010C8060010F4060010A4
:10247000CC060010F8060010D0060010FC06001074
:10248000000700100C0600101806001024060010AB
:10249000300600103C0600104806001054060010DC
:1024A000600600106C06001078060010840600100C
:1024B000900600109C06001004070010080700108A
:1024C0000C07001010070010140700101807001068
:1024D0001C07001020070010240700102807001018
:1024E0002C070010C6070010100600101C06001074
:1024F0002806001034060010400600104C0600109C
:102500005806001017F068F9FF490860FF48016895
:10251000FF48006817F060F9FD490860FD48016850
:10252000FD48006817F058F9FB490860FB4801684E
:10253000FB48006817F050F9F9490860F94801684C
:10254000F948006817F048F9F7490860F74801684A
:10255000F748006817F040F9F5490860F548016848
:10256000F548006817F038F9F3490860F348016846
:10257000F348006817F030F9F1490860F148016844
:10258000F148006817F028F9EF490860EF48016842
:10259000EF48006817F020F9ED490860ED48016840
:1025A000ED48006817F018F9EB490860EB4801683E
:1025B000EB48006817F010F9E9490860E94801683C
:1025C000E948006817F008F9E7490860E74801683A
:1025D000E748006817F000F9E5490860E548016838
:1025E000E548006817F0F8F8E3490860E348016837
:1025F000E348006817F0F0F8E1490860E148016835
:10260000E148006817F0E8F8DF490860DF48016832
:10261000DF48006817F0E0F8DD490860DD48007821
:10262000401CDC490870DB4800780328FEF63AA914
:10263000D94800781E287DD10020D7490870D74995
:10264000D748006817F054F90546D64917F0BCFA88
:10265000044617F03FFAD4490880D049D3480068AF
:1026600017F046F90546CF4917F0AEFA044617F0C1
:1026700031FACD494880C949CD48006817F038F98A
:102680000546C84917F0A0FA044617F023FAC649D0
:102690008880C249C748006817F02AF90546C14931
:1026A00017F092FA044617F015FAC3490880BB499F
:1026B000C248006817F01CF90546BA4917F084FAB9
:1026C000044617F007FABC494880B4499C480068A2
:1026D00017F00EF90546B34917F076FA044617F0DD
:1026E000F9F9B5498880AD49B548006817F000F997
:1026F0000546AC4917F068FA044617F0EBF9AA4909
:10270000C880A649AF48006817F0F2F80546A54909
:1027100017F05AFA044617F0DDF9A34908819F49DA
:10272000A948006817F0E4F805469E4917F04CFAEE
:10273000044600E0FDE317F0CDF99B494881974935
:10274000A248006817F0D4F80546964917F03CFAFD
:10275000044617F0BFF99849C88090499C48006822
:1027600017F0C6F805468F4917F02EFA044617F001
:10277000B1F99149088189497348006817F0B8F8A0
:102780000546884917F020FA044617F0A3F98A494C
:10279000488182498F48006817F0AAF8044617F06C
:1027A00099F9814988817D498B48006817F0A0F824
:1027B000044617F08FF97C49C8817849874800683A
:1027C00017F096F8044617F085F97749088273499F
:1027D0008348006817F08CF8044617F07BF97649B7
:1027E00088816E497F48006817F082F8044617F028
:1027F00071F97149C88169495548006817F078F83E
:10280000044617F067F96C49088264497648006805
:1028100017F06EF80546634917F0D6F9044617F02D
:1028200059F9614948825D497048006817F060F8BD
:1028300005465C4917F0C8F9044617F04BF95A49A8
:10284000888256496A48006817F052F8054655498B
:1028500017F0BAF9044617F03DF95349C8824F49B9
:102860006448006817F044F805464E4917F0ACF983
:10287000044617F02FF95049488248495E480068DD
:1028800017F036F80546474917F09EF9044617F049
:1028900021F94949888241492F48006817F028F8F2
:1028A0000546404917F090F9044617F013F94249DC
:1028B000C8823A495148006817F01AF8054650494D
:1028C00017F082F9044617F005F93749C8833349F0
:1028D0004C48006817F00CF80546494917F074F9A0
:1028E000044617F0F7F8304908842C494648006838
:1028F00016F0FEFF0546424917F066F9044617F048
:10290000E9F82949488481E058060010EC050010D8
:1029100064060010F005001070060010F4050010A9
:102920007C060010F805001088060010FC05001059
:102930009406001000060010A0060010AC0600105F
:1029400030070010B006001034070010B406001065
:1029500038070010B80600103C070010BC06001035
:1029600040070010C006001044070010C406001005
:1029700048070010C80600104C070010CC060010D5
:1029800050070010D006001054070010D4060010A5
:1029900058070010A8050010C60700100000F041FD
:1029A0000806001000002041705D00100C060010A9
:1029B00010060010D80600109C57001004070010E5
:1029C00014060010180600101C060010DC0600108B
:1029D000080700102006001024060010280600102A
:1029E000E00600100C0700102C0600103006001046
:1029F00034060010E4060010100700104406001012
:102A000000007A44480600104C060010FE49FF48BA
:102A1000006816F06DFF0546FD4917F0D5F804462D
:102A200017F058F8FB49C883F749FB48006816F0CF
:102A30005FFF0546F64917F0C7F8044617F04AF855
:102A4000F4490884F049F548006816F051FF05463E
:102A5000EF4917F0B9F8044617F03CF8ED494884FF
:102A6000E949EF48006816F043FF0646ED4916F0C5
:102A70003FFF0546EC4916F0AFFE044617F02AF872
:102A8000EA498884E049EA48006816F031FF0646C2
:102A9000E44916F02DFF0546E34916F09DFE044675
:102AA00017F018F8E149C884D749E248006816F0E1
:102AB0001FFF0646DB4916F01BFF0546DA4916F0F4
:102AC0008BFE044617F006F8D84908850846808C26
:102AD000A0F57F41FF3902D10020D4498884D34832
:102AE000C08CA0F57F41FF3902D10020CF49C884B6
:102AF000CE48008DA0F57F41FF3902D10020CB499F
:102B00000885C149CC48006816F0F2FE0546C54963
:102B100016F0EEFE044616F0DDFFBE498884BA4981
:102B2000C648006816F0E4FE0546BE4916F0E0FE11
:102B3000044616F0CFFFB749C884B349C0480068BF
:102B400016F0D6FE0546B74916F0D2FE044616F03A
:102B5000C1FFB0490885AC49B748006816F0C8FE07
:102B60000546B04916F0C4FE044616F0B3FFB54959
:102B70000880A549B048006816F0BAFE0546A94984
:102B800016F0B6FE044616F0A5FFAE4948809E49F1
:102B9000A948006816F0ACFE0546A24916F0A8FE4A
:102BA000044616F097FFA74988809749A648006811
:102BB00016F09EFE05469B4916F09AFE044616F056
:102BC00089FF9A4948859049A048006816F090FE10
:102BD0000546944916F08CFE044616F07BFF934997
:102BE000888589499A48006816F082FE05468D4915
:102BF00016F07EFE044616F06DFF8C49C8858249AA
:102C00009448006816F074FE0546864916F070FE7A
:102C1000044616F05FFF7F4948857B498E4800686F
:102C200016F066FE05467F4916F062FE044616F071
:102C300051FF7849888574498848006816F058FE25
:102C40000546784916F054FE044616F043FF7149D4
:102C5000C8856D498248006816F04AFE05467149EC
:102C600016F046FE044616F035FF704908866649A0
:102C70007C48006816F03CFE05466A4916F038FEAE
:102C8000044616F027FF694948865F497648006880
:102C900016F02EFE0546634916F02AFE044616F08D
:102CA00019FF6249888658497048006816F020FE6E
:102CB00005465C4916F01CFE044616F00BFF55490C
:102CC000088651496A48006816F012FE05465549C3
:102CD00016F00EFE044616F0FDFE4E4948864A499F
:102CE0006448006816F004FE05464E4916F000FEE2
:102CF000044616F0EFFE4749888643495E4800685F
:102D000016F0F6FD0546474916F0F2FD044616F0AA
:102D1000E1FE4649C8863C495848006816F0E8FD7F
:102D20000546404916F0E4FD044616F0D3FE3F493F
:102D3000088735495248006816F0DAFD05463949DA
:102D400016F0D6FD044616F0C5FE384948872E49D0
:102D50004C48006816F0CCFD0546324916F0C8FD17
:102D6000044616F0B7FE2B49C88627494648006836
:102D700016F0BEFD05462B4916F0BAFD044616F0C6
:102D8000A9FE2449088720494048006816F0B0FD94
:102D90000546244916F0ACFD044616F09BFE1D497D
:102DA000488719493A48006816F0A2FD05461849B7
:102DB00016F00AFF044616F08DFE1C4908831249DE
:102DC0003448006816F094FD0546114916F0FCFEE3
:102DD000044616F07FFE154948830B492E480068CB
:102DE00016F086FD05460A4916F0EEFE044616F07A
:102DF00071FE0E49888304492848006816F078FD62
:102E0000054603494CE000000000F041EC060010CC
:102E100000007A449C570010180700104407001067
:102E2000500600100000C84200FF7F47705D001090
:102E30005406001058060010F00600101C07001081
:102E4000480700105C0700105C06001060060010C8
:102E500064060010F4060010200700104C07001054
:102E6000680600106C06001070060010F8060010CE
:102E70002407001050070010740600107806001098
:102E80007C060010FC0600102807001054070010F4
:102E9000800600108406001088060010000700104D
:102EA00016F092FE044616F015FEFF490883FF490E
:102EB000FF48006816F01CFD0546FE4916F084FE2A
:102EC000044616F007FEF8494883F849FA480068B6
:102ED00016F00EFD0546F74916F076FE044616F08C
:102EE000F9FDF1498883F149F448006816F000FDC6
:102EF0000546F34916F068FE044616F0EBFDF1496D
:102F0000A1F85800E949F048006816F0F1FC0546C0
:102F1000EB4916F059FE044616F0DCFDE949A1F82C
:102F20005A00E249E948006816F0E2FC0546E44927
:102F300000E073E116F048FE044616F0CBFDE149CF
:102F4000A1F85C00D949E248006816F0D1FC0546BA
:102F5000DB4916F039FE044616F0BCFDD949A1F84C
:102F60005200D249DB48006816F0C2FC0546D4493D
:102F700016F02AFE044616F0ADFDD249A1F8540021
:102F8000CA49D548006816F0B3FC0546CC4916F08E
:102F90001BFE044616F09EFDCA49A1F85600C3491F
:102FA000CE48006816F0A4FC8246C049CC480068B0
:102FB00016F09EFC8346BD49CA48006816F098FC8E
:102FC00059460F9016F008FC8146514616F004FC55
:102FD0000746B649C148006816F08AFC8246B349E4
:102FE000BF48006816F084FCB0490F90BD480068E7
:102FF00016F07EFC83460F9916F0EEFB8146514693
:1030000016F0EAFB8046394616F0DEFD0546A74974
:10301000B548006816F06CFCA4490F90B3480068EE
:1030200016F066FC8246A149B148006816F060FCC3
:103030008346514616F0D0FB81460F9916F0CCFB23
:1030400007469A49A848006816F052FC97490F9025
:10305000A648006816F04CFC82469449A4480068D3
:1030600016F046FC8346514616F0B6FB81460F9992
:1030700016F0B2FB8046394616F0A6FD06462946F4
:1030800016F0AAFB044616F07FFBCDE9160115F0F9
:10309000ABFACDE9140185499348006816F028FC85
:1030A000074682499148006816F022FC80467F4915
:1030B0008F48006816F01CFC8146414616F08CFBD8
:1030C0000646394616F088FB05467A4916F07CFD1F
:1030D000044616F059FBCDE91201DDE9142315F081
:1030E0003BFCCDE9100115F0A9FA824908600846B9
:1030F000006816F0EFFC8049088000207F490860D6
:103100007F4908607F4908607F4908607F490860FF
:103110007F49086076490860724908607D49086007
:103120007D4908607D490860644908606849086015
:103130007B4908607B4908607B4908607B490860DF
:103140007B4908607B4908606849086064490860F9
:103150007949086079490860794908605A490860E6
:103160005C490860774908607749086077490860DA
:103170007749086077490860774908605A490860CC
:1031800056490860754908607549086075490860C6
:103190004E490860504908607349086073490860E7
:1031A000734908607349086073490860734908608F
:1031B000734908607349086073490860734908607F
:1031C000734908607349086073490860734908606F
:1031D000734908607349086073490860734908605F
:1031E0007349086073490860734908603049086092
:1031F0007249086072490860724908607249086043
:103200007249086072490860724908607249086032
:10321000724908607249086027490860714800785F
:10322000032813D06F48007804280FD06D48007829
:1032300007280BD06B480078082807D06948007829
:103240000B2803D0674800780C282BD166480078FB
:10325000022828D0002065490880DDE16348008805
:103260001330634931F810006249604A128821F82E
:1032700012005E4800881B305D4931F810105D4A2D
:103280005A480088C01C22F81010584800881E3088
:10329000574931F8101055480088801D22F8101049
:1032A0005248A9E020E220E29C5700100000F041C3
:1032B0002C07001000007A44580700108C060010FC
:1032C00000002041705D0010900600109406001070
:1032D000980600109C060010A0060010640600105E
:1032E000600600105C06001058060010540600101E
:1032F000500600106405001060050010080600105C
:1033000014060010200600102C06001038060010CD
:1033100044060010680600107406001080060010B5
:103320000C060010180600102406001030060010CD
:103330003C060010480600106C06001078060010CD
:1033400084060010100600101C060010280600104D
:1033500034060010400600104C06001070060010E5
:103360007C06001088060010D8060010DC0600104D
:10337000E0060010E4060010E8060010EC0600105D
:10338000F0060010F4060010F8060010FC0600100D
:103390000007001004070010080700100C070010B9
:1033A0001007001014070010180700101C07001069
:1033B0002007001024070010280700103007001015
:1033C00034070010380700103C07001040070010B9
:1033D00044070010480700104C0700105007001069
:1033E00054070010870500107D050010AA05001085
:1033F000CC070010CA3A00100088801CFF4931F841
:103400001010FF480088093022F81010FD48FC49D0
:10341000098830F81110FA4800880C3022F8101092
:10342000F849F7480088801D31F81010F4480088EA
:103430000F3022F81010F349F1480088C01C31F811
:103440001010EF480088123022F81010ED49EC48B7
:103450000088093031F81010E9480088153022F84A
:103460001010E849E64800881B3031F81020E64982
:10347000E3480088183021F81020E448E049098822
:1034800030F81110E04ADE4800881B3022F8101096
:10349000DC49DB480088153031F81010D848008826
:1034A0001E3022F81010D749D5480088183031F85E
:1034B0001010D3480088213022F81010D149D0488C
:1034C00000880F3031F81010CD480088243022F8E1
:1034D0001010CC49CA4800880C3031F81010C84888
:1034E0000088273022F81010C449C5480088401DC4
:1034F00031F81010C24800882A3022F81010C44851
:10350000BF49098830F81110BD4800882D3022F8D5
:103510001010BF49BA480088801D31F81010B84813
:103520000088303022F81010B949B5480088C01C16
:1035300031F81020B449B2480088333021F8102007
:10354000B349AF480088093031F81010AE4AAC4892
:103550000088363022F81010AD49A94800881B3089
:1035600031F81010A6480088393022F81010A84908
:10357000A3480088123031F81010A14800883C3070
:1035800022F81010A2499E480088153031F810101A
:103590009B4800883F3022F810109D4998480088C9
:1035A000183031F8101096480088423022F8101078
:1035B0009749934800880F3031F8101090480088E0
:1035C000453022F8101092498D4800880C3031F8AF
:1035D00010108B480088483022F810108D4890F861
:1035E00063038C4991F8621340EA01218448008802
:1035F000401D824A32F810006422504390FBF1F0E3
:1036000081B2814A7E4800884D3022F810107C48F3
:103610000088401C7A490880794800880328FFF612
:103620001DAE764800887849A1F896007348408816
:10363000A1F8980000207249088051E07649704A4C
:10364000128831F8120015F025FCCDE9160173A09F
:103650000CC8169815F080F9CDE9140115F0CAFBD5
:1036600081B2694A66480088523022F810106A4ACE
:1036700063490988643132F8110015F00BFCCDE97B
:10368000160166A00CC8169815F066F9CDE914016C
:1036900015F0B0FB81B25C4A59480088843022F8AA
:1036A00010105D4A56490988C83132F8110015F0EA
:1036B000F1FBCDE9160159A00CC8169815F04CF98C
:1036C000CDE9140115F096FB81B24F4A4C480088B1
:1036D000B63022F810104A480088401C484908803B
:1036E000474800883228A9DB0EE1002044490880C1
:1036F000CDE04348008813304A4931F81000424970
:103700003F4A128821F812003D4800881B30454985
:1037100031F810103C4A3A480088C01C22F81010BA
:10372000374800881E303F4931F81010344800886F
:10373000801D22F8101032480088801C394931F869
:1037400010102F480088093022F810102C480088EB
:103750002430344931F81010294800880C3022F800
:103760001010274800882A302E4931F810102448BC
:1037700000880F3022F8101021480088273029498E
:1037800031F810101E480088123022F810101C4822
:1037900000882D30234931F8101019480088153061
:1037A00022F81010164800883F301E4931F81010DA
:1037B00013480088183022F810101148008836305D
:1037C000184931F810100E4800881B3022F81010EC
:1037D0000B4800883930134931F810100848008828
:1037E0001E3022F81010064800883C300D4931F890
:1037F000101003480088213016E00000CC070010AC
:10380000AA050010705D0010CA3A00105C07001095
:103810009C570010581600104024001039B4C87688
:10382000BE9FF63FE835001022F81010FF480088D0
:103830003330FF4931F81010FC480088243022F85A
:103840001010FA4800883030F94931F81010F74864
:103850000088273022F81010F4480088401DF449F1
:1038600031F81010F14800882A3022F81010EF4883
:1038700000884530EE4931F81010EC4800884D3092
:1038800022F81010E9480088401CE8490880E74801
:1038900000880328FFF62DAFE5480088E549A1F828
:1038A0009600E3484088A1F898000020DF4908808E
:1038B00026E0E148DD49098830F81120DD49DB4880
:1038C0000088523021F81020DB49D8480088643045
:1038D00031F81010D74AD5480088843022F81010EB
:1038E000D549D2480088C83031F81010CF48008838
:1038F000B63022F81010CD480088401CCB49088013
:10390000CA4800883228D4DBCC480078052813D078
:10391000CA48007806280FD0C848007809280BD07C
:10392000C64800780A2807D0C44800780B2803D07E
:10393000C24800780C287ED10020BC49088084E071
:10394000BF49BA480088133031F810000A2190FBB3
:10395000F1F0BC49B54A128821F81200BA48B349BF
:10396000098830F811000A2190FBF1F081B2B54AC4
:10397000AE480088C01C22F81010B349AB4800883C
:10398000C01C31F81010A9480088801D22F81010C2
:10399000AD49A6480088801D31F81010A348008862
:1039A000093022F81010A14800881B30A44931F8D2
:1039B0001020A4499D4800880D3021F81020A2490C
:1039C0009A4800880F3031F810209E4997480088A7
:1039D000113021F810209C4994480088183031F8A3
:1039E0001010984A91480088143022F81010964917
:1039F0008E4800881B3031F810108C480088173032
:103A000022F810108E4989480088801C31F8100077
:103A10000A2190FBF1F082B28A49844800881A306A
:103A200021F81020864981480088401D31F8101087
:103A3000844A7E4800E02CE000881F3022F81010F5
:103A40007A480088401C7949088078480088032813
:103A5000FFF676AF7B48408A7A49898A08447949DB
:103A6000C98A0844032190FBF1F07649088308468F
:103A7000408B898B08447349C98B0844032190FB10
:103A8000F1F0704908846E48008848876C48408887
:103A900088876A48007801280BD068480078022897
:103AA00007D06648007807287DDB644800780A283C
:103AB00079DC6348C08C00EB80004004000C634953
:103AC000A1F890005E48008D00EB80004004000CDF
:103AD000A1F892005A48408D00EB80004004000C91
:103AE000A1F89400584800880A2190FBF1F057494A
:103AF000A1F89600544840880A2190FBF1F0534900
:103B0000A1F89800504880880A2190FBF1F04F49B5
:103B1000A1F89A004A4840890A2190FBF1F04B49EC
:103B2000A1F89C00464880890A2190FBF1F04749A2
:103B3000A1F89E004248C0890A2190FBF1F0434958
:103B4000A1F8A0004048408DA1F8A2003E48808D19
:103B5000A1F8A4003C48C08DA1F8A6003A48408DC9
:103B60003949898D08443849C98D08443749A1F835
:103B7000A8003748408DA1F8AA003548808DA1F8EB
:103B8000AC003348C08DA1F8AE003148408D3049BB
:103B9000898D08442E49C98D08442C49A1F8B000EC
:103BA0002C48008800E068E0A1F8B20024480088B2
:103BB00016280DD10846B0F8B400C0F34010B0B9D3
:103BC0000846B0F8B40080F02000A1F8B4000EE080
:103BD0001E48B0F8B400C0F34010012807D11B48BC
:103BE000B0F8B40080F020001849A1F8B40000201B
:103BF0000E4908803DE010490C480088401C31F80F
:103C000010001249094A128821F812000A4907488F
:103C10000088653031F810100C4A044800881830CC
:103C200022F8101004490148008815E0AA05001088
:103C3000E8350010CA3A0010402400108705001033
:103C4000CC070010223D0010705D0010863D001072
:103C50009C57001060050010C93031F81010FF4863
:103C60000088303022F81010FC480088401CFB49C6
:103C70000880FA4800881828BDDB19B0BDE8F08F2D
:103C800070B50120F64908700020F64948610846E1
:103C90008068F549088008460088A0F52A41CC399B
:103CA00073D100250BE0EF48C06810F0040F05D079
:103CB0006FF00C05EB488068EB4948806D1C15F1EE
:103CC000100FF0D3E8484088B0F5807F06D0E64872
:103CD000408818B1E44840881028E1D100250BE065
:103CE000E048C06810F0040F05D06FF00C05DD4807
:103CF0008068DD4988806D1C15F1100FF0D3002518
:103D00000BE0D848C06810F0040F05D06FF00C0528
:103D1000D4488068D449C8806D1C15F1100FF0D3C9
:103D2000D148C088142825D100241EE0CE488088C0
:103D300020445038CD4931F81000CA498860002528
:103D40000EE0C848C06810F0040F08D06FF00C05F2
:103D5000C448806881B2201DC34A22F810106D1C2F
:103D600015F1100FEDD3601C84B2BF48C088401C11
:103D7000A042DBDCBC48C088642804D0BA48C088B4
:103D8000B0F5C87F55D1002423E052E0B648408802
:103D9000B0F5807F07D1B44880882044B44931F819
:103DA0001000B049886000250EE0AE48C06810F0F1
:103DB000040F08D06FF00C05AA48806881B2201D5E
:103DC000A94A22F810106D1C15F1100FEDD3601CDC
:103DD00084B2A548C088401CA042D7DCA2484088D5
:103DE00038BBA148A349086008460068083008604D
:103DF0009D48C1889F480068FCF78EFB9A49C98896
:103E0000091D994A32F81110884212D100240AE0A3
:103E1000201D954931F8100089882144964A22F8DE
:103E20001100601C84B29048C088A042F0DCFCF70E
:103E3000B6FB04208B49486170BD70B504460D4641
:103E400032208E4908600846446085608C498D4A5E
:103E500090478B48006870BD70B504460D4634200D
:103E6000864908600846446085608748C860844980
:103E70008248844A90478248006870BD70B5044605
:103E80000D46164633207D4908600846446085602B
:103E9000C6607D4808617A4978487A4A90477848F0
:103EA000006870BD70B504460D461646382073494B
:103EB0000860084644608560C6607149714A904751
:103EC0006F48006870BD4FF4F020002105E010F845
:103ED000013BDAB26D4B5A54491C40F26A329142AE
:103EE000F5D370474FF4F020002105E010F8013BB6
:103EF000DAB2674B5A54491C40F26A329142F5D308
:103F0000704706E0002100E0491C624A9142FBD361
:103F1000401E0028F6D1704701465F48C26912F082
:103F2000040F0ED05D4B086818405B4B186348685F
:103F3000586388689863C868D86321205860012056
:103F4000704712F4806F0ED0544B08681840524BE3
:103F500018644868586488689864C868D8644120C0
:103F600058600120ECE712F4802F0ED04B4B08680C
:103F70001840494B18654868586588689865C8684E
:103F8000D865812058600120DAE70020D8E700B525
:103F9000042034494861424948603F4948604148EB
:103FA000006841490978414A02EBC111884247D172
:103FB0003C48001D00682221B1EB104F40D1394828
:103FC000001D006880B23A4908604FF4002039496A
:103FD000086035480078902101EBC01035494860F1
:103FE0003348006801042948314A1268805C41EA7C
:103FF0000021264A2E480068401C105C01432D48D1
:10400000816011462A480068801C085C0106284827
:104010000068C01C105C41EA004125480068001D92
:10402000105C41EA002122480068401D105C0143F9
:104030002048C160FFF770FF00201F49C1F81C0134
:1040400018480C30006818490978184A521C02EBCD
:10405000C11188427ED1134810302FE0AA0500100C
:10406000400500100080084094080010FE59001020
:10407000285A00102C050010C80B001098130010CF
:10408000B8130010F11FFF1F007701005816001031
:10409000C8190010A08601000040044000000FC0B5
:1040A000008004401C81034076070010822008072E
:1040B00088070010D815001000800340006880B207
:1040C000FF4908604FF40020FE490860FE48007870
:1040D000B82101EBC010FB494860FC48007800069D
:1040E000F7490968C1EBC101891FF84A515C40EAF0
:1040F0000140F3490968C1EBC101491F515C40EA25
:104100000120EF490968C1EBC101091F515C084357
:10411000EC498860EA480068C0EBC000C01E114648
:10412000085C0006E6490968C1EBC101891E515CC3
:1041300040EA0140E2490968C1EBC101491E515CF6
:1041400040EA0120DE490968C1EBC101515C084326
:10415000DC4900E007E0C8600846FFF7DDFE00200C
:10416000DB49C1F828010420DA49486100BD10B5D7
:10417000D948006840F4C040D749C439C1F8C400E8
:104180000120D6490860D64908600020D34908615B
:10419000D3490861D1498860D1498860FE20CF4960
:1041A0008861CF498861CF48CC494861CC49486192
:1041B0000020CA490860CA490860192013F0B2FEFD
:1041C0000120C6490861C64908610846406840F0B8
:1041D00004004860C148406840F00400BF4948609E
:1041E00010BD10B50022C04B1A60B74A127842F2D7
:1041F000810303EBC21242F00052B54B1A60BA4A77
:104200001268121DB84B1A60AF4A127842F6830347
:1042100003EBC212AC4B1B7842F6820404EBC313CF
:1042200042EA0342B04B1B68A94C1A51AE4A1268CD
:10423000121DAD4B1A600022AC4B1A6026E0A24A58
:10424000127842F2840303EBC212A84B1B680224CB
:1042500004FB032210049C4A127842F2840303EB0D
:10426000C212A24B1B6804FB0322511C40EA01024C
:104270009D4B1B68964C1A519B4A1268121D9A4B13
:104280001A609A4A1268521C984B1A60974A126830
:104290003E2AD4D3944A1268954B5A60924A1268C7
:1042A000121D914B1A601A461268914B9A608E4A01
:1042B0001268DA608C4A12681A618B4A12685A6175
:1042C00000228A4B1A600DE0874A1268121D864B45
:1042D0001A6000221B687E4C1A51844A1268521CD4
:1042E000824B1A60814A1268B2F5DF7FECD310BDB1
:1042F00010B50446D4B1012C04D0022C13D0042CE8
:1043000023D114E07A48046001207549086073499C
:10431000086000207249086170490861704988602E
:104320006E49886012E0724804600FE00EE00120E0
:104330006F490860FFF755FF6D48006A40F00100C3
:104340006B4908620846046000BF00BF00BF10BD93
:10435000002100200AE0674A127D02F00102012AD2
:1043600002D1644A117800E002E0401C0828F2D330
:1043700000BF7047002100200AE05F4A127D02F072
:104380000102012A02D15C4A117800E002E0401CDF
:104390000828F2D300BF70471FB54F48006840F0AF
:1043A00008004D49C439C1F8C4008320514908733D
:1043B00052480078062803D150480078092812D0C6
:1043C0004FA00CC8504803C814F0C6FACDE902014A
:1043D0004EA00CC8029814F0BFFACDE9000114F009
:1043E00009FD84B211E046A00CC8474803C814F088
:1043F000B3FACDE9020147A00CC8029814F0ACFA58
:10440000CDE9000114F0F6FC84B22046E11704EB7C
:104410001161090A374A117111460C7003200873A3
:1044200080200872052013F07DFD0020314948608E
:10443000FFF78EFF1FBD1FB52748006840F00070D2
:104440002549C439C1F8C40083202B4908732B487F
:104450000078052803D1294800780A2812D028A01E
:104460000CC8294803C814F077FACDE9020127A047
:104470000CC8029814F070FACDE9000114F0BAFCEF
:1044800084B211E01EA00CC81F4803C814F064FADF
:10449000CDE902011FA00CC8029814F05DFACDE925
:1044A000000114F0A7FC84B22046E11704EB11616F
:1044B000090A114A117111460C70032008732DE08E
:1044C00088070010D815001076070010042E001081
:1044D0000080034000800840C4C00F4000400440FA
:1044E0000080044002002300080000102405001092
:1044F00000C0034000C0004000C009408705001014
:1045000000000000000030408007001000000000A4
:104510000020FC400000000000C0C2408020087263
:10452000082013F0FFFC0020FA494860FFF722FF43
:104530001FBD002108E0F84A127D12F0010F02D0E1
:10454000F649F54A1078491CF54A9142F3D3704771
:10455000F14B1870002106E0EF4A127D12F0400F77
:1045600000D0F049491CF04A9142F5D37047002130
:1045700008E0E84A127D12F0010F02D0E749E54A4F
:104580001078491CE64A9142F3D37047E14B18700A
:10459000002106E0DF4A127D12F0400F00D0E14911
:1045A000491CE14A9142F5D37047E048007840F059
:1045B0000300DE4908700020DD4948650120DD491F
:1045C00008607047DC48006840F40070DA49C4397C
:1045D000C1F8C400D5485C30007810F0100F07D047
:1045E000D2485C30007840F01000D04981F85C007F
:1045F0000020CE490874087308727047CB48007ACF
:1046000040F00100C9490872012008707047C7488E
:10461000007A20F00100C54908727047C348007A4B
:1046200040F00200C149087270470FB4BF49203101
:1046300000980870BD49019881F82400BB492831D1
:1046400002980870B949039881F82C00069881F8FF
:10465000300007988886049881F838000598888784
:1046600004B070470FB4B149603100980870AF4989
:10467000019881F86400AD49683102980870AB492F
:10468000039881F86C00069881F870000798A1F8EB
:104690007400049881F878000598A1F87C0004B0B3
:1046A000704710B588B00446A048203000780090CC
:1046B0009E4890F8240001909C4828300078029091
:1046C0009A482C3000780390984830300078069053
:1046D0009648808E0790954838300078049093482B
:1046E000808F0590202269462046FBF773FD08B0B5
:1046F00010BD8E4A1074704730B502464FF6FF70F9
:1047000011E012F8014B604000230AE010F0010FA5
:1047100004D04AF2010484EA600000E040105C1C0E
:10472000E3B2082BF2DB0C00A1F10101E9D130BDAD
:1047300000B587B081A00CC8824803C814F00CF9FA
:10474000CDE9040180480CC8049813F0C1FFCDE9FD
:1047500002017EA00CC8029814F0FEF8CDE9000119
:1047600014F048FB7B49086174A00CC8754803C865
:1047700014F0F2F8CDE9040174A00CC8049814F008
:10478000EBF8CDE9020114F035FB724948612C20A9
:1047900088614020086007B000BD70B52C256D4EC3
:1047A000B56142F2107400E0641E002CFCD160255B
:1047B000684E356042F2107400E0641E002CFCD19B
:1047C000644DA86042F2107400E0641E002CFCD11D
:1047D0002825604EB56142F2107400E0641E002C82
:1047E000FCD1C1F307255B4EB56042F2107400E0C6
:1047F000641E002CFCD12825564EB56142F210747F
:1048000000E0641E002CFCD1CDB2524EB56042F2E5
:10481000107400E0641E002CFCD128254D4EB561BB
:1048200042F2107400E0641E002CFCD12025494E99
:10483000356042F2107400E0641E002CFCD10825A3
:10484000444EB56142F2107400E0641E002CFCD1AD
:10485000451C404EB56042F2107400E0641E002C0E
:10486000FCD128253B4EB56142F2107400E0641E75
:10487000002CFCD100BF0425364E356042F2107486
:1048800000E0641E002CFCD12825324EB56142F2B6
:10489000107400E0641E002CFCD12E4DAD6802F8AF
:1048A000015B5B1E012BE6D824252A4EB56142F23E
:1048B000107400E0641E002CFCD10825254EB56163
:1048C00042F2107400E0641E002CFCD1214DAD6852
:1048D000157042F2107400E0641E002CFCD110250B
:1048E0001C4E356042F2107400E0641E002CFCD1B6
:1048F0002825184EB56142F2107400E0641E002CA9
:10490000FCD170BD70B52C25124EB56160253560A7
:10491000002422E000C0094000C00040C027090078
:1049200020A10700808D5B00404B4C0000400240FE
:1049300000C009200C000010C4C00F40000000009F
:10494000006A184180070010B40900000000000050
:104950000000004000C00140641C42F21075AC42EF
:10496000FAD3FF4DA8602825FD4EB561002400E074
:10497000641C42F21075AC42FAD3C1F30725F84E1D
:10498000B5602825B561002400E0641C42F2107572
:10499000AC42FAD3CDB2F24EB5602825B561002401
:1049A00000E0641C42F21075AC42FAD30DE012F83C
:1049B000015BEB4EB5602825B561002400E0641C66
:1049C00042F21075AC42FAD35B1E002BEFD11025DA
:1049D000E34E35602825B561002400E0641C42F2F6
:1049E0001075AC42FAD370BD70B5DE48406B10F460
:1049F000007F68D1DB48406B10F4806F63D1D948E9
:104A0000406B10F4804F5ED1D648406B10F4004FDD
:104A100059D1FFF767FA4FF08060D249C867002488
:104A200017E0D148D14908600846006800EB4410FF
:104A3000086061012023CD480268A020FFF762FFD3
:104A40004FF6F07501E0681E85B2002DFBDC601C9E
:104A500084B21B2CE5DBC448C449086008460068E2
:104A600000F558700860042308464FF45871026836
:104A7000A020FFF747FF4FF6F07501E0681E85B2F2
:104A8000002DFBDCB848B94908600846006800F50D
:104A900059700860062308464FF4F0610268A020B0
:104AA000FFF730FF4FF6F07501E0681E85B2002D6C
:104AB000FBDC4FF08060AB49886703E04FF000708B
:104AC000A849C863FAE7A748406B10F4007F12D0EA
:104AD000A448406B10F4806F0DD0A248406B10F4D6
:104AE000804F08D09F48406B10F4004F03D0012046
:104AF0009F49087006E19B48406B10F4007F12D07C
:104B00009848406B10F4806F0DD09648406B10F4BD
:104B1000804F08D09348406B10F4004F03D102201F
:104B200093490870EEE08F48406B10F4007F12D07C
:104B30008C48406B10F4806F0DD08A48406B10F4A5
:104B4000804F08D18748406B10F4004F03D00320FA
:104B500087490870D6E08348406B10F4007F12D07C
:104B60008048406B10F4806F0DD07E48406B10F48D
:104B7000804F08D17B48406B10F4004F03D10420D4
:104B80007B490870BEE07748406B10F4007F12D07C
:104B90007448406B10F4806F0DD17248406B10F474
:104BA000804F08D06F48406B10F4004F03D00520B1
:104BB0006F490870A6E06B48406B10F4007F12D07C
:104BC0006848406B10F4806F0DD16648406B10F45C
:104BD000804F08D06348406B10F4004F03D106208B
:104BE000634908708EE05F48406B10F4007F12D07C
:104BF0005C48406B10F4806F0DD15A48406B10F444
:104C0000804F08D15748406B10F4004F03D0072065
:104C10005749087076E05348406B10F4007F12D07B
:104C20005048406B10F4806F0DD14E48406B10F42B
:104C3000804F08D14B48406B10F4004F03D108203F
:104C40004B4908705EE04748406B10F4007F12D17A
:104C50004448406B10F4806F0DD04248406B10F414
:104C6000804F08D03F48406B10F4004F03D009201C
:104C70003F49087046E03B48406B10F4007F12D17A
:104C80003848406B10F4806F0DD03648406B10F4FC
:104C9000804F08D03348406B10F4004F03D10A20F6
:104CA000334908702EE02F48406B10F4007F12D17A
:104CB0002C48406B10F4806F0DD02A48406B10F4E4
:104CC000804F08D12748406B10F4004F03D00B20D1
:104CD0002749087016E02348406B10F4007F11D17B
:104CE0002048406B10F4806F0CD01E48406B10F4CD
:104CF000804F07D11B48406B10F4004F02D10C20AD
:104D00001B4908701B48407A10F0010F55D0042051
:104D1000194908701348406B10F0010F04D117486F
:104D20000078401C154908700E48406B10F0020FC7
:104D300004D112480078801C104908700948406B63
:104D400010F0100F04D10D480078001D0B490870B9
:104D50000448406B10F4807F15D1084800780FE0BC
:104D600000C0014000C00920C819001064070010ED
:104D700087050010581600107D05001076070010FA
:104D80000830FF490870FE48007828B1FC480078D8
:104D9000401EFB49087005E003E04FF00060F94950
:104DA000C863FAE7FFF7E3F90420FFF7A1FA01204F
:104DB000F5494860F54948609AE0F248406B10F4C4
:104DC000807F30D00120F2490870EE48406B10F02F
:104DD000010F04D1EA480078401CE9490870E9480D
:104DE000406B10F0020F04D1E5480078801CE449C4
:104DF0000870E448406B10F0100F04D1E0480078D0
:104E0000001DDF490870DE48007828B903E04FF044
:104E10000060DC49C863FAE70020DC4948600120F3
:104E2000D949486064E00220D9490870D548406BF0
:104E300010F0010F04D1D7480078401CD549087004
:104E4000D048406B10F0020F04D1D2480078801C8B
:104E5000D0490870CB48406B10F0100F04D1CD48FA
:104E60000078001DCB490870CA480078012803D19A
:104E70000320C749087008E0C648007828B903E055
:104E80004FF00060BF49C863FAE70120BE4948609F
:104E9000BE494860BE480078022829D10720BE4993
:104EA000887000200871042048710020887101205A
:104EB000C871DC2008721F2048724FF08070B14921
:104EC000C861B548B54908600A240FE0B3480068D6
:104ED0000078B349087008460078FFF739FBAF48FF
:104EE0000068401CAD490860601E84B2002CEDDCF7
:104EF00070BD70B5AB48A94908600323084640F26D
:104F000094710268A020FFF748FCA6488078012829
:104F10001FD00020A3490870082048700120887025
:104F200080069849C8679F489C4908600323084643
:104F300040F294710268A020FFF7E4FC4FF6F07590
:104F400001E0681E85B2002DFBDC4FF080608D49CA
:104F50008867944840789349097840EA012092494B
:104F6000088092488D49086040F26A3308464FF441
:104F700020610268A020FFF710FCFEF7B3FF8B480A
:104F800090F85D03012804D1894890F85D03012859
:104F90007DD0864890F85D03012805D085480088BB
:104FA00040F0010083490880814890F85D030128A2
:104FB00005D08048008840F002007E49088000202B
:104FC0007A490870C820487000208870E620C870B0
:104FD000002008713220487100208871C871087261
:104FE0006420487200208872C872087315204873C4
:104FF00000208873C87308743C20487400208874AB
:105000001E20C874002008751E2048750020887571
:105010003C20C87502200876DA204876032088767E
:105020002020C87600200877322048770020887733
:105030001920C877002081F82000062081F821007F
:10504000002081F8220081F8230081F8240081F8F3
:10505000250081F8260081F82700282404E000209C
:1050600052490855601C84B27C2CF8DB00204F4963
:1050700081F87C0081F87D0081F87E0081F87F0056
:1050800081F8800081F8810081F8820000E0D3E19E
:1050900081F8830081F8840081F8850081F886001A
:1050A00081F8870081F8880081F8890081F88A00FA
:1050B00081F88B00032081F88C00E82081F88D00B6
:1050C000032081F88E00E82081F88F00032081F80A
:1050D0009000E82081F89100032081F89200E820F8
:1050E00081F89300032081F89400E82081F895006E
:1050F000032081F89600E82081F89700032081F8CA
:105100009800E82081F89900032081F89A00E820AF
:1051100081F89B00032081F89C00E82081F89D0025
:10512000032081F89E00E82081F89F00032081F889
:10513000A000E82081F8A100032081F8A200E82067
:1051400081F8A300022081F8A4009B2081F8A5002B
:10515000012081F8A6002C2081F8A700002081F80A
:10516000A800662081F8A900002081F8AA00C820C4
:1051700081F8AB00002081F8AC0064201CE0000046
:105180007607001000C0092000C0094000C00040A0
:105190007D0500107C0500102A0000106407001037
:1051A0006307001044050010480500105816001051
:1051B000C8190010AC07001081F8AD00002081F87C
:1051C000AE00782081F8AF00072081F8B000D02031
:1051D00081F8B100062081F8B200E42081F8B30024
:1051E000032081F8B400C02081F8B500002081F8C8
:1051F000B600162081F8B700032081F8B800DC2043
:1052000081F8B900002081F8BA0081F8BB0081F86C
:10521000BC00DC2081F8BD00032081F8BE00E8203E
:1052200081F8BF00032081F8C000E82081F8C100A8
:10523000032081F8C200E82081F8C300032081F830
:10524000C400DC2081F8C500022081F8C6009B2044
:1052500081F8C700002081F8C800642081F8C900E7
:10526000002081F8CA00642081F8CB00002081F87A
:10527000CC00052081F8CD00002081F8CE0005206B
:1052800081F8CF00002081F8D0003C2081F8D100C7
:10529000002081F8D20081F8D30081F8D4000520E5
:1052A00081F8D500002081F8D600032081F8D700CE
:1052B000002081F8D800032081F8D900002081F86F
:1052C000DA00012081F8DB00DC2408E02720FF4918
:1052D00008551021FD4A601C1154A01C84B2B4F57D
:1052E000827FF3DB4FF4827423E00320F7490855F3
:1052F000E821F64A601C1154002163301154401C0F
:105300001154032163301154E821401C1154002131
:1053100063301154401C1154032163301154E821AF
:10532000401C1154002163301154401C1154A01C26
:1053300084B2B4F5B47FD8DB0020E44981F85C0383
:10534000012081F85D03002081F85E0381F85F038E
:1053500081F86003052081F86103002081F8620371
:10536000322081F86303002081F8640381F865032B
:1053700081F8660381F8670381F86803052081F8E6
:105380006903D348008810F0010F3DD04FF08060D2
:10539000D049C86700241AE0CC48CF4908600846C5
:1053A000006800EB441008604FF4206000EB4411EB
:1053B0002023C9480268A020FFF7A4FA4FF6F07531
:1053C00001E0681E85B2002DFBDC601C84B21B2C42
:1053D000E2DBBE48C04908600846006800F5587026
:1053E00008600A2308464FF456610268A020FFF7C0
:1053F00089FA4FF6F07501E0681E85B2002DFBDCDE
:105400004FF08060B3498867B1480088C0F340001E
:1054100090B11D210846FEF710FD1D210846FEF73C
:105420001BFD1D210846FEF708FD4FF48062A749C9
:105430004FF4F020FEF722FDA448A74908604FF47E
:105440005973084600210268A020FFF7A6F99F487B
:10545000A14908600846006800F5597008600623F5
:1054600008464FF4F0610268A020FFF796F928245F
:1054700010E09649601C085C095D40EA01200228A2
:1054800006DB9348008840F004009149088003E05F
:10549000A01C84B27C2CECDB00BF8C4890F85D0330
:1054A000012805D18A480088C0F3800000285DD01B
:1054B00086488949086040F26A3308464FF4206103
:1054C0000268A020FFF769F94FF080608149C86742
:1054D000002417E07D48804908600846006800EB1A
:1054E00044100860610120237B480268A020FFF778
:1054F00009FA4FF6FF7501E0681E85B2002DFBDC4E
:10550000601C84B21B2CE5DB7048734908600846B8
:10551000006800F558700860042308464FF458717D
:105520000268A020FFF7EEF94FF6FF7501E0681E54
:1055300085B2002DFBDC65486749086008460068B5
:1055400000F559700860062308464FF4F0610268C0
:10555000A020FFF7D7F94FF6FF7501E0681E85B26E
:10556000002DFBDC4FF080605A4988675748407A2D
:1055700010F0010F31D1DC2408E0272053490855F1
:105580001021524A601C1154A01C84B2B4F5827FD1
:10559000F3DB4FF080604F49C867002417E04B48A9
:1055A0004D4908600846006800EB4410086061013E
:1055B000202349480268A020FFF7A4F94FF6F075B0
:1055C00001E0681E85B2002DFBDC601C84B21B2C40
:1055D000E5DB4FF080603F49886740483E490860FE
:1055E0002B2308464FF4FA610268A020FFF7D5F894
:1055F0003A4890F82A00012842D00120374981F822
:105600002A00002408E0032034490855E821334AE1
:10561000601C1154A01C84B2292CF4DB4FF0806074
:105620002C49C8672D482C490860102308464FF4C0
:10563000FA610268A020FFF765F9002501E0681C07
:1056400085B24FF6FF708542F9DB24482249086095
:1056500008460068103008601B2308464FF4FC61C0
:105660000268A020FFF74EF9002501E0681C85B212
:105670004FF6FF708542F9DB4FF08060154988676F
:10568000FFF7B2F91648007801280BD014480078CB
:10569000022807D012480078072843DB104800781A
:1056A0000A283FDC4FF42F7420E0A4F52F7040004F
:1056B000401C0649085CA4F52F71044A12F8111029
:1056C00040EA0120074921F814000DE058160010A7
:1056D000AC07001000C0092064070010C947001083
:1056E00087050010863D0010601C84B240F26A40BD
:1056F0008442DADB044611E0A4F26A404000401C18
:10570000FF49085CA4F26A41FD4A12F8111040EA10
:105710000120FC4921F81400601C84B240F27E4054
:105720008442E9DBF84890F85F03F74991F85E138B
:1057300040EA0120012801D1F449087070BD10B57C
:1057400001287ED1F04A5278EF4B1B7842EA0322BF
:10575000EF4B1A80EC4A527CEB4B1B7C42EA032253
:10576000EB4B5A80E84AD278E74B9B7842EA032217
:10577000E74B9A80E44AD279E34B9B7942EA0322D1
:10578000E34BDA80E04A92F82320DF4B93F8223093
:1057900042EA0322DE4B1A81DB4A92F8D520DA4B2B
:1057A00093F8D43042EA0322D94B5A81D94A9278ED
:1057B000D84B5B7842EA0322D54B9A81D24A527F7A
:1057C000D14B1B7F42EA0322D14BDA81CE4AD27FF2
:1057D000CD4B9B7F42EA0322CD4B1A82CD4A1279F0
:1057E000CC4BDB7842EA0322C94B5A82C94A9279F0
:1057F000C84B5B7942EA0322C54B9A82C24A92F8AF
:105800005F23C14B93F85E3342EA0322C04BDA8236
:10581000BD4A92F82120BC4B93F8203042EA032283
:10582000BB4B1A83B84A92F86123B74B93F86033A5
:1058300042EA0322B64B5A83B64A127BB54BDB7A57
:1058400000E0E6E142EA0322B14B9A83AE4AD27C01
:10585000AD4B9B7C42EA0322AD4BDA83AA4AD27D50
:10586000A94B9B7D42EA0322A94B1A84A64A527D8A
:10587000A54B1B7D42EA0322A54B5A84A24A527EC5
:10588000A14B1B7E42EA0322A14B9A849E4AD27E00
:105890009D4B9B7E42EA03229D4BDA849D4A927B7C
:1058A0009C4B5B7B42EA0322994B1A85964AD27B3A
:1058B000954B9B7B42EA0322954B5A85282114E0A5
:1058C000A1F12802520029328F4B9B5CA1F12802E2
:1058D000520028328C4CA25C43EA0222A1F112034E
:1058E0008B4C24F813204A1C91B25A29E8DB894AD0
:1058F000127C884BDB7B42EA0322854BA3F8902085
:10590000844A927C834B5B7C42EA0322804BA3F85F
:105910009220804A127D7F4BDB7C42EA03227C4B43
:10592000A3F894207B4A927D7A4B5B7D42EA032266
:10593000774BA3F89620774A127E764BDB7D42EABE
:105940000322734BA3F89820724A927E714B5B7EC0
:1059500042EA03226E4BA3F89A206E4A127F6D4BE7
:10596000DB7E42EA03226A4BA3F89C20694A927FBD
:10597000684B5B7F42EA0322654BA3F89E20654A91
:1059800092F82020634BDB7F42EA0322604BA3F8AE
:10599000A020604A92F822205E4B93F8213042EA20
:1059A00003225B4BA3F8A2205A4A92F82420594BB9
:1059B00093F8233042EA0322554BA3F8A420554A1A
:1059C00092F82620534B93F8253042EA0322504B9D
:1059D000A3F8A6204F4A92F828204E4B93F8273080
:1059E00042EA03224A4BA3F8A8204A4A92F82A2006
:1059F000484B93F8293042EA0322454BA3F8AA20EA
:105A0000444A92F82C20434B93F82B3042EA03226D
:105A10003F4BA3F8AC203C4A92F88D203A4B93F8C8
:105A20008C3042EA03223A4BA3F8AE20364A92F871
:105A30008F20354B93F88E3042EA0322344BA3F883
:105A4000B020314A92F891202F4B93F8903042EADF
:105A500003222F4BA3F8B2202B4A92F893202A4B13
:105A600093F8923042EA0322294BA3F8B420264A45
:105A700092F89520244B93F8943042EA0322244B69
:105A8000A3F8B620204A92F897201F4B93F896303F
:105A900042EA03221E4BA3F8B8201B4A92F8992031
:105AA000194B93F8983042EA0322194BA3F8BA2015
:105AB000154A92F89B20144B93F89A3042EA03223D
:105AC000134BA3F8BC20104A92F89D200E4B93F87C
:105AD0009C3042EA03220E4BA3F8BE200A4A92F8F9
