:020000040000FA
:1000000078710010A1010000A5010000A701000007
:10001000A9010000AB010000AD01000000000000DC
:10002000000000000000000000000000AF01000020
:10003000B101000000000000B3010000B5010000A4
:10004000B7010000B7010000B56C0000EB6A0000CA
:10005000976800001706010085060100B70100003F
:10006000B7010000B7010000B7010000B7010000B0
:10007000B7010000B7010000D3400000B701000045
:10008000B7010000EB460000B7010000B701000017
:10009000B7010000B7010000B7010000B701000080
:1000A000B7010000B7010000B7010000B701000070
:1000B000B7010000B7010000B7010000B701000060
:1000C000B701000000F002F800F05AF80AA090E82A
:1000D000000C82448344AAF10107DA4501D100F003
:1000E0004FF8AFF2090EBAE80F0013F0010F18BF76
:1000F000FB1A43F001031847282601004826010097
:100100000A444FF0000C10F8013B13F0070408BF3D
:1001100010F8014B1D1108BF10F8015B641E05D0DB
:1001200010F8016B641E01F8016BF9D113F0080F90
:100130001EBF10F8014BAD1C0C1B09D16D1E58BF22
:1001400001F801CBFAD505E014F8016B01F8016B59
:100150006D1EF9D59142D6D37047000000230024CC
:1001600000250026103A28BF78C1FBD8520728BFC7
:1001700030C148BF0B6070471FB51FBD10B510BD23
:1001800000F070F81146FFF7F7FF07F0D8FC00F019
:100190008EF803B4FFF7F2FF03BC00F08FF8000005
:1001A00008480047FEE7FEE7FEE7FEE7FEE7FEE75A
:1001B000FEE7FEE7FEE7FEE703480449024A044B78
:1001C00070470000C50000007869001078710010C9
:1001D0007869001010B5203AC0F00B80B1E81850D3
:1001E000203AA0E81850B1E81850A0E81850BFF421
:1001F000F5AF5FEA027C24BFB1E81850A0E81850C0
:1002000044BF18C918C0BDE810405FEA827C24BF13
:1002100051F8043B40F8043B08BF7047D20728BFA1
:1002200031F8023B48BF11F8012B28BF20F8023BF0
:1002300048BF00F8012B704770477047704710B5F2
:1002400000F008F8006810BD10B5044600F002F890
:10025000046010BD004870471869001000487047DE
:10026000186900107546FFF7F9FFAE4605006946AC
:10027000534620F00700854618B020B5FFF79CFFD5
:10028000BDE820404FF000064FF000074FF0000897
:100290004FF0000B21F00701AC46ACE8C009ACE818
:1002A000C009ACE8C009ACE8C0098D4670470446F7
:1002B000AFF300802046FFF76CFF000001491820D3
:1002C000ABBEFEE7260002007047490050EAC1209D
:1002D00018BF04204A0D18BF40F0010040F2FF7221
:1002E000B2EB515F08BF40F00200012808BF0520B3
:1002F0007047FF2141EAD050C0057047FFFFFFFF64
:1003000020208549086000BF8348006810F0400F36
:10031000FAD00320814908604FF001008049C1F8FC
:100320000C014FF00F007F4908604FF00100A1F170
:10033000040108604FF0AA007B4908604FF05500A7
:100340007749C1F88C0000BF7848006810F0806FD2
:10035000FAD00320764908604FF0AA007049C1F82E
:100360008C004FF05500704908604FF02300714930
:1003700008604FF00100A1F1040108604FF0AA00ED
:100380006D4908604FF05500086000BF6B48006879
:1003900010F4806FFAD00320694908604FF0AA007A
:1003A0005F49C1F8AC004FF05500634908604FF059
:1003B00000006449086001F1040108606248634973
:1003C00008604FF000005649C1F8C8010846D0F84F
:1003D0008800C0F30160032868D15D48006810F010
:1003E000030006D0012823D002283FD003285CD187
:1003F00000E000BF4D480068C0F30E0000F10100AE
:100400004FEA40014648D0F88800C0F3074000F1A9
:100410000100B1FBF0F04F4900FB01F03F490968D2
:10042000C9B201F10101B0FBF1F04B4908603CE0B9
:100430003E480068C0F30E0000F101004FEA4001A1
:100440003748D0F88800C0F3074000F10100B1FB45
:10045000F0F0424900FB01F030490968C9B201F1EE
:100460000101B0FBF1F03C4908601EE02F48006834
:10047000C0F30E0000F101004FEA40012848D0F817
:100480008800C0F3074000F10100B1FBF0F04FF429
:10049000FA4100FB01F021490968C9B201F10101EB
:1004A000B0FBF1F02C49086000BF2FE0284800683D
:1004B00010F0030006D0012810D0022819D003281C
:1004C00023D100E000BF15480068C0B200F1010070
:1004D0002049B1FBF0F02049086016E00F480068A1
:1004E000C0B200F101001D49B1FBF0F01A490860EB
:1004F0000BE00A480068C0B200F101004FF4FA4175
:10050000B1FBF0F01449086000BF00BF43F23A00AD
:100510000349086070470000A0C10F4004C10F40AC
:1005200000C00F4084C00F408CC00F4088C00F40F7
:1005300080C00F40A4C00F40ACC00F40A8C00F4007
:10054000A0C00F40A8C10F40DE87E804C4C00F4020
:100550000CC10F4000093D0000000010001BB70057
:1005600030B502460B464FF6FF7011E032F8024BF1
:10057000604000210AE010F0010F04D04AF20104AB
:1005800084EA600000E040104C1CA1B21029F2DBAC
:100590001C00A3F10105ABB2E8D130BD10B5FE4897
:1005A000006840F40010FD49C1F8C4000846D0F8C6
:1005B000AC0120F44060C1F8AC010846D0F8AC01B1
:1005C00040F48060F64908604FF00F00F54908607C
:1005D0004FF0060048604FF0000048614FF00E00F9
:1005E00010F07BF80420EF49486110BD00B595B0CC
:1005F0000020ED4908800EE0EC48EB49098830F80E
:100600001100EB49E84A128821F81200E6480088F8
:10061000401CE5490880E4480088B0F5967FEBDB94
:100620004FF49670E049088083E0DF480088B0F519
:10063000967F04DBDC480088B0F5AF7F14DBDA4836
:100640000088B0F5C87F04DBD7480088B0F5E17FAB
:100650000ADBD5480088B0F5FA7F4DDBD248008828
:1006600040F22621884247DAD048CF49098830F83D
:100670001100139011F048FDCE490860CE4890F863
:100680007703CD4991F8761340EA0121084613918A
:1006900011F022FDC9490860C7484079C649097967
:1006A00040EA01210846129111F016FD014613900F
:1006B000C248006811F0FAFBC049086008460168AA
:1006C000BC48006811F068FD139011F0E5FC81B2A0
:1006D000B5480088A0F59670B94A22F81010B548C0
:1006E000006811F0D9FC81B2AF480088A0F596707F
:1006F000B44A22F8101017E0AC48AB49098830F82A
:100700001110A9480088A0F59670AD4A22F8101083
:10071000A648A549098830F81110A3480088A0F51B
:100720009670A84A22F810109F480088401C9E49E5
:1007300008809D480088B0F5167FFFF676AF4FF42D
:1007400016709949088010E098489749098830F850
:10075000111095480088A0F516709B4A22F81010D9
:1007600091480088401C904908808F480088B0F567
:100770002F7FE9DB4FF42F708B49088010E08B4806
:100780008949098830F8111087480088A0F52F7032
:100790008E4A22F8101084480088401C8249088044
:1007A00081480088B0F57A7FE9DB0020884908702D
:1007B0007D490880FDE37C480088012803DB7A48F6
:1007C000008832280FDB78480088652803DB7648EC
:1007D0000088962807DB74480088C9283CDB7248EB
:1007E0000088FA2838DA72486F49098830F8110011
:1007F00073496D4A128831F81210884220DB6C4828
:100800006949098830F811006D49674A128831F842
:100810001210401A6F49644A128821F81200644885
:100820006149098830F8110066495F4A128831F839
:100830001210401A68495C4A128821F812002BE015
:1008400000206449584A128821F812006249564A29
:10085000128821F812001FE05348008832281BD06C
:1008600051480088962817D04F480088FA2813D09E
:100870004F484D49098830F8110056494A4A1288B4
:1008800021F812004A484849098830F811005249B5
:10089000454A128821F812004348008838B142487E
:1008A0000088642803D040480088C82872D1404995
:1008B0003D480088323031F81000B0F5004F31DB90
:1008C00039480088323031F81000A0F57F40FF38F9
:1008D000079010F0DAFE414A414BCDE9080110F0D3
:1008E0003BFF00223F4BCDE90A0110F019FDCDE995
:1008F0000C0110F0A9FBCDE910012D482A49098807
:1009000030F811000D9010F0D7FECDE90E01DDE9B1
:10091000102310F021FFCDE9120110F013FC324931
:1009200008602EE0224920480088323031F810005B
:10093000079010F0C1FE294A294BCDE9080110F0BB
:100940000BFF0022274BCDE90A0110F0E9FCCDE9AD
:100950000C0110F079FBCDE9100115481249098806
:1009600030F811000D9010F0A7FECDE90E01DDE981
:10097000102310F0F1FECDE9120110F0E3FB1A494B
:1009800008600F4908480088323031F81000B0F58F
:10099000004F2BE0F1E30000C4C00F4000C00F4047
:1009A000ACC10F4000800840A6090010C00D001027
:1009B0007E240010A809001030180010AC090010A7
:1009C00026220010CE1F0010C4090010862B001034
:1009D000A30700102E290010D62600104AD8124D69
:1009E000FB2109400094D140F006001031DBFE48A5
:1009F0000088323031F81000A0F57F40FF380790B2
:100A000010F043FEF94AFA4BCDE9080110F0A4FEBC
:100A10000022F84BCDE90A0110F082FCCDE90C016F
:100A200010F012FBCDE91001F348EF49098830F8C6
:100A300011000D9010F040FECDE90E01DDE910230C
:100A400010F08AFECDE9120110F07CFBEB49086042
:100A50002EE0E949E4480088323031F81000079070
:100A600010F02AFEE14AE24BCDE9080110F074FED5
:100A70000022E04BCDE90A0110F052FCCDE90C0157
:100A800010F0E2FACDE91001DB48D749098830F8C7
:100A900011000D9010F010FECDE90E01DDE91023DC
:100AA00010F05AFECDE9120110F04CFBD34908605A
:100AB000D2480168D248006811F08AF9D04908602C
:100AC000D049C9480088323031F81000B0F5004FE5
:100AD00031DBC5480088323031F81000A0F57F4086
:100AE000FF38079010F0D1FDC04AC14BCDE9080195
:100AF00010F032FE0022BF4BCDE90A0110F010FCCD
:100B0000CDE90C0110F04AFACDE91001BD48B64913
:100B1000098830F811000D9010F0CEFDCDE90E01DE
:100B2000DDE9102310F018FECDE9120110F00AFBE8
:100B3000B54908602EE0B349AB480088323031F83F
:100B40001000079010F0B8FDA84AA94BCDE90801A4
:100B500010F002FE0022A74BCDE90A0110F0E0FBE5
:100B6000CDE90C0110F01AFACDE91001A5489E4913
:100B7000098830F811000D9010F09EFDCDE90E01AE
:100B8000DDE9102310F0E8FDCDE9120110F0DAFAEA
:100B90009D490860984994480088323031F8100027
:100BA000B0F5004F31DB90480088323031F810004A
:100BB000A0F57F40FF38079010F067FD8B4A8C4B03
:100BC000CDE9080110F0C8FD00228A4BCDE90A01E9
:100BD00010F0A6FBCDE90C0110F0E0F9CDE9100111
:100BE00085488149098830F811000D9010F064FDA6
:100BF000CDE90E01DDE9102310F0AEFDCDE91201C3
:100C000010F0A0FA814908602EE07B497648008800
:100C1000323031F81000079010F04EFD734A744BDB
:100C2000CDE9080110F098FD0022724BCDE90A01D0
:100C300010F076FBCDE90C0110F0B0F9CDE9100110
:100C40006D486949098830F811000D9010F034FDA5
:100C5000CDE90E01DDE9102310F07EFDCDE9120192
:100C600010F070FA694908606848016866480068D1
:100C700011F0AEF86449086008460168006811F098
:100C80008BFA0E905E480168006811F085FA0D90AD
:100C90000E9911F09DF80F9011F06EF8CDE910014A
:100CA00010F02AFACDE9120110F0C2FC58494E4A60
:100CB000128821F8120053494B480088323031F82D
:100CC0001000B0F5004F31DB47480088323031F872
:100CD0001000A0F57F40FF38079010F0D6FC434A83
:100CE000434BCDE9080110F037FD0022414BCDE91F
:100CF0000A0110F015FBCDE90C0110F0A5F9CDE9C2
:100D0000100140483849098830F811000D9010F062
:100D1000D3FCCDE90E01DDE9102310F01DFDCDE976
:100D2000120110F00FFA364908602EE035492E48BE
:100D30000088323031F81000079010F0BDFC2B4ACB
:100D40002B4BCDE9080110F007FD0022294BCDE91E
:100D50000A0110F0E5FACDE90C0110F075F9CDE9C2
:100D6000100128482049098830F811000D9010F032
:100D7000A3FCCDE90E01DDE9102310F0EDFCCDE977
:100D8000120110F0DFF91E49086022491648008858
:100D9000323031F81000B0F5004F4ADB12480088BD
:100DA000323031F81000A0F57F40FF38079010F086
:100DB0006CFC0E4A0E4BCDE9080110F0CDFC002270
:100DC0000C4BCDE90A0110F0ABFACDE90C0110F0A3
:100DD0003BF9CDE910010F480349098830F81100AB
:100DE0000D9010F069FC17E0A60900104AD8124DCA
:100DF000FB2109400094D14026220010F406001087
:100E0000F00600107E240010F8060010FC0600100A
:100E10002E290010CE1F0010CDE90E01DDE91023B0
:100E200010F09AFCCDE9120110F08CF9FE4908602F
:100E30002EE0FE49FE480088323031F8100007905D
:100E400010F03AFCFB4AFC4BCDE9080110F084FCA1
:100E50000022FA4BCDE90A0110F062FACDE90C014B
:100E600010F0F2F8CDE91001F048F149098830F8A6
:100E700011000D9010F020FCCDE90E01DDE91023EA
:100E800010F06AFCCDE9120110F05CF9E649086047
:100E9000E5480168EA48006810F09AFFE8490860F0
:100EA000E849E3480088323031F81000B0F5004FCF
:100EB00031DBDF480088323031F81000A0F57F4088
:100EC000FF38079010F0E1FBDA4ADB4BCDE908016F
:100ED00010F042FC0022D94BCDE90A0110F020FAB3
:100EE000CDE90C0110F05AF8CDE91001D548D049F0
:100EF000098830F811000D9010F0DEFBCDE90E01ED
:100F0000DDE9102310F028FCCDE9120110F01AF9E8
:100F1000CD4908602EE0CB49C5480088323031F811
:100F20001000079010F0C8FBC24AC34BCDE908017E
:100F300010F012FC0022C14BCDE90A0110F0F0F9CB
:100F4000CDE90C0110F02AF8CDE91001BD48B849EF
:100F5000098830F811000D9010F0AEFBCDE90E01BC
:100F6000DDE9102310F0F8FBCDE9120110F0EAF8EA
:100F7000B5490860AD49AE480088323031F81000FC
:100F8000B0F5004F33DBAA480088323031F810004A
:100F9000A0F57F40FF38079010F077FBA54AA64BDD
:100FA000CDE9080110F0D8FB0022A44BCDE90A01DD
:100FB00000E068E110F0B4F9CDE90C010FF0EEFFAC
:100FC000CDE9100199499A48008831F810000D9038
:100FD00010F072FBCDE90E01DDE9102310F0BCFB2F
:100FE000CDE9120110F0AEF8984908602EE08F4963
:100FF0008F480088323031F81000079010F05CFB09
:101000008C4A8D4BCDE9080110F0A6FB00228B4BDA
:10101000CDE90A0110F084F9CDE90C010FF0BEFF13
:10102000CDE9100181488249098830F811000D90FE
:1010300010F042FBCDE90E01DDE9102310F08CFB2E
:10104000CDE9120110F07EF8804908607F48016800
:101050007D48006810F0BCFE7B49086008460168C6
:10106000006811F099F80E9075480168006811F059
:1010700093F80D900E9910F0ABFE0F9010F07CFEDF
:10108000CDE9100110F038F8CDE9120110F0D0FAD6
:101090006F49674A128821F812006B480168684856
:1010A000006810F003FF604908600846006810F00F
:1010B00063FECDE90C010FF05FFE00225F4BCDE92E
:1010C0000E0110F049FB5B4A5B4BCDE9100110F0BB
:1010D00027F9CDE9120110F035F8534908600021D5
:1010E0005948006811F01FF91CD2002154480068CB
:1010F00011F019F916D24C48006810F0CDFF81B2FA
:10110000534A4B480088323022F810104648006895
:1011100010F0C2FF81B24F4A45480088323022F8B1
:101120001010A6E000214848006811F0FCF825D214
:1011300000214348006810F0FBFF1FD246493A489F
:10114000006810F045FE139010F0A6FF81B2404AEF
:1011500037480088323022F810103F493248006882
:1011600010F036FE139010F097FF81B2394A3048E4
:101170000088323022F810107BE07FE000213248F6
:10118000006810F0D5FF2CD200212D48006810F027
:10119000CFFF26D231492448006811F0F5F82E49D6
:1011A000129010F015FE139010F076FF81B2284ACD
:1011B0001F480088323022F8101028491A48006869
:1011C00011F0E2F82449129010F002FE139010F092
:1011D00063FF81B21F4A16480088323022F810108F
:1011E00047E000211848006810F0A2FF41D200211A
:1011F0001348006811F097F83BD218490A48006874
:1012000010F0E6FD139010F047FF81B2104A084835
:101210000088323022F8101010490348006810F09E
:10122000D7FD13901CE00000F4060010CE1F001044
:10123000A60900104AD8124DFB2109400094D14064
:10124000F00600107E240010F8060010FC060010C6
:10125000D62600102E29001000FF7F4700A08C46E4
:1012600010F01AFF81B2FE4AFE480088323022F8A0
:101270001010FD480078401CFB490870F9480088B0
:10128000401CF8490880F7480088B0F5967FFFF6C3
:1012900092AA0020F349088011E0F448F149098836
:1012A00030F81100139010F02FFFF149ED4A128829
:1012B00041F82200EB480088401CEA490880E948D0
:1012C0000088B0F5967FE8DB0020E649088011E051
:1012D000E848E449098830F81100139010F014FF31
:1012E000E549E04A128841F82200DE480088401CA7
:1012F000DC490880DB480088B0F5967FE8DB0020F9
:10130000D949087001F01FBE0020DC490860DC49A3
:101310000860DC490860DC4908600120DB4908807E
:1013200064E1D148007800EBC00101EB0010D7491F
:10133000098801EB8000CE4951F82000119010F08F
:101340001BFDD34AD34BCDE9120110F003FB40D271
:10135000C548007800EBC00101EB0010CB490988BB
:1013600001EB8000C24951F820000890BE48007887
:1013700000EBC00101EB0010C449098801EB8001BA
:10138000BB4850F821100791DDE9070110F004FF78
:10139000099010F0F1FC0022BF4BCDE90A0110F0DA
:1013A000DBF90022BD4BCDE90C010FF0B9FFCDE90F
:1013B0001001B248006810F0DFFCCDE90E01DDE954
:1013C00010230FF0F1FECDE912010FF0BBFEAB4987
:1013D0000860A548007800EBC00101EB0010AB49A4
:1013E000098801EB8000A24951F82000119010F00B
:1013F000C3FCA74AA74BCDE9120110F0ABFA40D2CB
:101400009948007800EBC00101EB00109F49098862
:1014100001EB8000964951F820000890924800782E
:1014200000EBC00101EB00109849098801EB800135
:101430008F4850F821100791DDE9070110F0ACFE4C
:10144000099010F099FC0022934BCDE90A0110F0AD
:1014500083F90022914BCDE90C010FF061FFCDE93A
:1014600010018748006810F087FCCDE90E01DDE926
:1014700010230FF099FECDE912010FF063FE8049B1
:1014800008607948007800EBC00101EB00107F494B
:10149000098801EB8000784951F82000119010F084
:1014A0006BFC7B4A7B4BCDE9120110F053FA40D222
:1014B0006D48007800EBC00101EB0010734909880A
:1014C00001EB80006C4951F82000089066480078D4
:1014D00000EBC00101EB00106C49098801EB8000B2
:1014E000654951F820100791DDE9070110F054FE1D
:1014F000099010F041FC0022674BCDE90A0110F081
:101500002BF90022654BCDE90C010FF009FFCDE965
:1015100010015C48006810F02FFCCDE90E01DDE9F8
:1015200010230FF041FECDE912010FF00BFE5549DB
:1015300008604D48007800EBC00101EB00105349F2
:10154000098801EB80004C4951F82000119010F0FF
:1015500013FC4F4A4F4BCDE9120110F0FBF940D27A
:101560004148007800EBC00101EB001047490988B1
:1015700001EB8000404951F8200008903A4800787B
:1015800000EBC00101EB00104049098801EB80002D
:10159000394951F820100791DDE9070110F0FCFDF1
:1015A000099010F0E9FB00223B4BCDE90A0110F055
:1015B000D3F80022394BCDE90C010FF0B1FECDE993
:1015C00010013148006810F0D7FBCDE90E01DDE9CC
:1015D00010230FF0E9FDCDE912010FF0B3FD2A4908
:1015E00008602A480088401C28490880274800884D
:1015F0001928FFF696AE1C480078642148431C4920
:1016000051F820000C90184800786421484318498C
:1016100051F820100B91DDE90B0110F0BDFD2049C0
:101620000D9010F043FC0E90144801680E9810F0D5
:10163000CFFB0F9010F0A0FBCDE910010FF05CFD87
:10164000CDE912010FF07EFD1649086006480078CA
:1016500064214843084951F8201003480C9123E0C5
:101660002E290010A6090010A3070010D62600108E
:10167000A04800107E24001090530010BC070010FA
:10168000C00700109C080010A0080010A40700105C
:1016900048E17A14AE472C400000F03F000069405A
:1016A00000004843C4070010007864214843FE4905
:1016B00051F820100B91DDE90B0110F06DFDFB4995
:1016C0000D9010F0F3FB0E90F94801680E9810F0A1
:1016D0007FFB0F9010F050FBCDE910010FF00CFDD7
:1016E000CDE912010FF02EFDF2490860F2480068C2
:1016F00010F042FBCDE910010FF0FEFCCDE9120124
:101700000FF020FDED490860ED48006810F034FB53
:10171000CDE910010FF0F0FCCDE912010FF012FD40
:10172000E8490860E5480168E74810F035FD139086
:10173000E648007864214843E54951F82000014615
:101740001290139810F0B2FBE2490860DD4801687E
:10175000DD4810F021FD1390DC48007864214843F7
:10176000D14951F8200001461290139810F09EFBC9
:10177000D9490860D54800782130D84931F810108F
:101780000846139110F0C0FCD5490860D549D448EB
:10179000006810F0C8FD7DD2CC48007800EBC00195
:1017A00001EB0010322101EB8000C94951F8200003
:1017B000CC49139010F0B7FD6DD2C448007800EB0F
:1017C000C00101EB0010322101EB8000C04951F84B
:1017D0002000C549009010F0D7FD019010F0CCFA20
:1017E000C24AC34BCDE902010FF0B6FF0022C14B44
:1017F000CDE904010FF094FDCDE90801BA49B848DC
:10180000006810F0C1FD019010F0B6FAB74AB84B6D
:10181000CDE902010FF0A0FF0022B64BCDE9040193
:101820000FF07EFDCDE90601DDE9082310F0BAF9DD
:10183000AE4AB14BCDE90A0110F0B4F9CDE90C0183
:101840000FF002FCCDE91001A04800786421484364
:101850009F4951F820000B9010F08EFAA74AA84B30
:10186000CDE90C010FF05CFDCDE90E01DDE910239F
:101870000FF072FFCDE912010FF064FCA14908607E
:101880009248007800EBC00101EB0010322101EB1F
:10189000800001E0D6E258E18D4951F82010009116
:1018A0009149009810F070FD019010F065FA8F4A90
:1018B0008F4BCDE902010FF04FFF00228D4BCDE998
:1018C00004010FF02DFDCDE9080187498448006827
:1018D00010F05AFD019010F04FFA844A844BCDE984
:1018E00002010FF039FF0022824BCDE904010FF015
:1018F00017FDCDE90601DDE9082310F053F97B4A15
:101900007D4BCDE90A0110F04DF9CDE90C010FF046
:1019100045FBCDE910016D480078642148436C49CE
:1019200051F820000B9010F027FA744A744BCDE95F
:101930000C010FF0F5FCCDE90E01DDE910230FF0ED
:101940000BFFCDE912010FF0FDFB6F4908605F4806
:10195000007800EBC00101EB0010322101EB8000A8
:10196000514951F8201000915F49009810F00CFD8A
:10197000019010F001FA5D4A5D4BCDE902010FF0D4
:10198000EBFE00225B4BCDE904010FF0C9FCCDE971
:10199000080155495248006810F0F6FC019010F01B
:1019A000EBF9524A524BCDE902010FF0D5FE00226D
:1019B000504BCDE904010FF0B3FCCDE90601DDE9A0
:1019C000082310F0EFF8494A4B4BCDE90A0110F01B
:1019D000E9F8CDE90C010FF037FBCDE910013B48E8
:1019E000007864214843304951F820000B9010F0F2
:1019F000C3F9424A424BCDE90C010FF091FCCDE90D
:101A00000E01DDE910230FF0A7FECDE912010FF062
:101A100099FB3E4908602D48007800EBC00101EBBE
:101A20000010322101EB80001F4951F82010009175
:101A30002D49009810F0A8FC019010F09DF92B4A58
:101A40002B4BCDE902010FF087FE0022294BCDE997
:101A500004010FF065FCCDE9080123492048006826
:101A600010F092FC019010F087F9204A204BCDE94C
:101A700002010FF071FE00221E4BCDE904010FF0B0
:101A80004FFCCDE90601DDE9082310F08BF8174A79
:101A9000194BCDE90A0110F085F8CDE90C010FF0E2
:101AA0007DFACDE9100133E0905300100000484367
:101AB0009C080010A4080010C0070010C807001000
:101AC000A0080010A808001000F05C46A307001052
:101AD000A0480010CC070010AC080010C40900108A
:101AE0003407001000FEFF4600FF7F474AD8124D22
:101AF000FB2109400094D140FB21F93F48E17A14D1
:101B0000AE472C40D0070010D8070010B0080010D6
:101B1000FE48007864214843FD4951F820000B90AD
:101B200010F02AF9FB4AFC4BCDE90C010FF0F8FB51
:101B3000CDE90E01DDE910230FF00EFECDE9120113
:101B40000FF000FBF54908602DE3F048007800EB4A
:101B5000C00101EB0010322101EB8000F04951F887
:101B60002000019010F008F9EE4AEF4BCDE9020198
:101B70000FF0F2FD0022ED4BCDE904010FF0D0FB98
:101B8000CDE90801EA49EB48006810F0FDFB01903F
:101B900010F0F2F8E34AE44BCDE902010FF0DCFD6E
:101BA0000022E24BCDE904010FF0BAFBCDE90601BA
:101BB000DDE908230FF0F6FFDA4ADF4BCDE90A0131
:101BC0000FF0F0FFCDE90C010FF03EFACDE9100166
:101BD000CE48007864214843D14951F820000B9049
:101BE00010F0CAF8CB4ACC4BCDE90C010FF098FBB2
:101BF000CDE90E01DDE910230FF0AEFDCDE91201B4
:101C00000FF0A0FACD490860C048007800EBC00191
:101C100001EB0010322101EB8000C14951F8200096
:101C2000019010F0A9F8BF4ABF4BCDE902010FF0B7
:101C300093FD0022BD4BCDE904010FF071FBCDE90E
:101C40000801BB49BB48006810F09EFB019010F0F2
:101C500093F8B44AB44BCDE902010FF07DFD0022A8
:101C6000B24BCDE904010FF05BFBCDE90601DDE9E4
:101C700008230FF097FFAB4AAF4BCDE90A010FF0F5
:101C800091FFCDE90C010FF089F9CDE910019F48D2
:101C9000007864214843A24951F820000B9010F0CD
:101CA0006BF89C4A9C4BCDE90C010FF039FBCDE958
:101CB0000E01DDE910230FF04FFDCDE912010FF009
:101CC00041FA9F4908609148007800EBC00101EBA0
:101CD0000010322101EB80008D4951F82000019065
:101CE00010F04AF88F4A904BCDE902010FF034FD15
:101CF00000228E4BCDE904010FF012FBCDE9080163
:101D00008B498C48006810F03FFB019010F034F8CC
:101D1000844A854BCDE902010FF01EFD0022834B62
:101D2000CDE904010FF0FCFACDE90601DDE9082355
:101D30000FF038FF7B4A804BCDE90A010FF032FFEC
:101D4000CDE90C010FF080F9CDE910016F48007862
:101D5000642148436E4951F820000B9010F00CF8B4
:101D60006C4A6D4BCDE90C010FF0DAFACDE90E01AA
:101D7000DDE910230FF0F0FCCDE912010FF0E2F9DC
:101D8000704908606148007800EBC00101EB001069
:101D9000322101EB80005E4951F8200001900FF0E4
:101DA000EBFF604A604BCDE902010FF0D5FC002249
:101DB0005E4BCDE904010FF0B3FACDE908015C49AF
:101DC0005C48006810F0E0FA01900FF0D5FF554A2A
:101DD000554BCDE902010FF0BFFC0022534BCDE97A
:101DE00004010FF09DFACDE90601DDE908230FF0AB
:101DF000D9FE4C4A504BCDE90A010FF0D3FECDE994
:101E00000C010FF0CBF8CDE91001404800786421B7
:101E100048433F4951F820000B900FF0ADFF3D4A79
:101E20003D4BCDE90C010FF07BFACDE90E01DDE968
:101E300010230FF091FCCDE912010FF083F937491F
:101E400008603CE33148007800EBC00101EB001072
:101E5000322101EB8000324951F820003A491390B9
:101E600010F061FA51D22948007800EBC00101EB73
:101E70000010322101EB8000294951F820002C4943
:101E8000009010F081FA01900FF076FF254A264B62
:101E9000CDE902010FF060FC0022244BCDE90401E2
:101EA0000FF03EFACDE90801224800680FF064FF08
:101EB0001C4A1D4BCDE902010FF04EFC00221B4BCA
:101EC000CDE904010FF02CFACDE90601DDE9082384
:101ED0000FF068FE134A184BCDE90A010FF062FEBD
:101EE000CDE90C010FF0B0F8CDE9100107480078FA
:101EF000642148430A4951F820000B900FF03CFF41
:101F0000044A054BCDE90C0120E04DE1A307001088
:101F10009053001048E17A14AE472C40B4080010EA
:101F2000A04800104AD8124DFB2109400094D1402E
:101F300000FF7F4734070010FB21F93FD007001056
:101F4000D8070010B008001000FEFF460FF0E8F9B7
:101F5000CDE90E01DDE910230FF0FEFBCDE9120102
:101F60000FF0F0F8FE490860FE48007800EBC00171
:101F700001EB0010322101EB8000FB4951F82000F9
:101F8000FA49009010F000FA01900FF0F5FEF84ABF
:101F9000F84BCDE902010FF0DFFB0022F64BCDE953
:101FA00004010FF0BDF9CDE90801F44800680FF015
:101FB000E3FEEF4AEF4BCDE902010FF0CDFB00222B
:101FC000ED4BCDE904010FF0ABF9CDE90601DDE9F8
:101FD00008230FF0E7FDE64AE94BCDE90A010FF0CF
:101FE000E1FDCDE90C010EF0D9FFCDE91001DD488E
:101FF000007864214843DC4951F820000B900FF031
:10200000BBFEE04AE04BCDE90C010FF089F9CDE9C8
:102010000E01DDE910230FF09FFBCDE912010FF057
:1020200091F8DA490860CF48007800EBC00101EB75
:102030000010322101EB8000D54951F820100091A9
:10204000CA49009810F0A0F901900FF095FEC84A17
:10205000C84BCDE902010FF07FFB0022C64BCDE952
:1020600004010FF05DF9CDE90801C44800680FF0E4
:1020700083FEBF4ABF4BCDE902010FF06DFB00228A
:10208000BD4BCDE904010FF04BF9CDE90601DDE9C7
:1020900008230FF087FDB64AB94BCDE90A010FF0CE
:1020A00081FDCDE90C010EF0CFFFCDE91001AD4867
:1020B000007864214843B64951F820000B900FF096
:1020C0005BFEB04AB04BCDE90C010FF029F9CDE928
:1020D0000E01DDE910230FF03FFBCDE912010FF0F7
:1020E00031F8AC4908609F48007800EBC00101EB73
:1020F0000010322101EB8000A54951F82010009119
:102100009A49009810F040F901900FF035FE984A76
:10211000984BCDE902010FF01FFB0022964BCDE951
:1021200004010FF0FDF8CDE90801944800680FF0B4
:1021300023FE8F4A8F4BCDE902010FF00DFB0022E9
:102140008D4BCDE904010FF0EBF8CDE90601DDE997
:1021500008230FF027FD864A894BCDE90A010FF0CD
:1021600021FDCDE90C010EF019FFCDE910017D48EC
:10217000007864214843864951F820000B900FF005
:10218000FBFD804A804BCDE90C010FF0C9F8CDE989
:102190000E01DDE910230FF0DFFACDE912010EF098
:1021A000D1FF7D4908608AE16E48007800EBC001EC
:1021B00001EB0010322101EB80006B4951F8200047
:1021C00001900FF0D9FD6A4A6A4BCDE902010FF088
:1021D000C3FA0022684BCDE904010FF0A1F8CDE964
:1021E0000801664800680FF0C7FD614A614BCDE900
:1021F00002010FF0B1FA00225F4BCDE904010FF0AC
:102200008FF8CDE90601DDE908230FF0CBFC584A31
:102210005B4BCDE90A010FF0C5FCCDE90C010EF0D6
:1022200013FFCDE910014F480078642148434E491F
:1022300051F820000B900FF09FFD524A524BCDE910
:102240000C010FF06DF8CDE90E01DDE910230FF060
:1022500083FACDE912010EF075FF4149086041484B
:10226000007800EBC00101EB0010322101EB80008F
:102270003D4951F8200001900FF07EFD3C4A3D4B56
:10228000CDE902010FF068FA00223B4BCDE90401D1
:102290000FF046F8CDE90801384800680FF06CFDF2
:1022A000334A344BCDE902010FF056FA0022324B8B
:1022B000CDE904010FF034F8CDE90601DDE908238A
:1022C0000FF070FC2A4A2E4BCDE90A010FF06AFC90
:1022D000CDE90C010EF062FECDE910012148007835
:1022E00064214843204951F820000B900FF044FD31
:1022F000244A254BCDE90C010FF012F8CDE90E016F
:10230000DDE910230FF028FACDE912010EF01AFFD3
:102310001E4908601348007800EBC00101EB001073
:10232000322101EB80001A4951F8200001900FF092
:1023300023FD0F4A0F4BCDE902010FF00DFA0022E9
:102340000D4BCDE904010EF0EBFFCDE908010B4880
:1023500000680FF011FD064A064BCDE902011DE0B1
:10236000D0070010A3070010A048001000FF7F470F
:102370004AD8124DFB2109400094D1403407001087
:10238000FB21F93F48E17A14AE472C40D8070010F2
:1023900090530010B0080010B40800100FF0DCF9E2
:1023A0000022FE4BCDE904010EF0BAFFCDE9060193
:1023B000DDE908230FF0F6FBF94AFA4BCDE90A01F3
:1023C0000FF0F0FBCDE90C010EF03EFECDE910015F
:1023D000F548007864214843F44951F820000B90F7
:1023E0000FF0CAFCF24AF34BCDE90C010EF098FF56
:1023F000CDE90E01DDE910230FF0AEF9CDE91201B0
:102400000EF0A0FEEC490860E748007800EBC00140
:1024100001EB0010322101EB8000E44951F820006B
:1024200001900FF0A9FCDE4AE44BCDE902010FF068
:1024300093F90022D94BCDE904010EF071FFCDE9EB
:102440000801DF4800680FF097FCD54ADB4BCDE967
:1024500002010FF081F90022D04BCDE904010EF00A
:102460005FFFCDE90601DDE908230FF09BFBCC4AB5
:10247000CC4BCDE90A010FF095FBCDE90C010EF034
:102480008DFDCDE91001C848007864214843C74953
:1024900051F820000B900FF06FFCC54AC54BCDE9F9
:1024A0000C010EF03DFFCDE90E01DDE910230FF028
:1024B00053F9CDE912010EF045FEC2490860C24948
:1024C000B9480078133031F810000A2190FBF1F080
:1024D00013900FF001FEBD4908600021BC48006860
:1024E0000FF021FF08D2BB480168B94800680FF01F
:1024F000DDFCB94908600CE0B5480168B7480FF049
:102500004BFE1390B348016813980FF0CFFCB2490B
:102510000860B348006811900FF02EFCB14AB24B2E
:10252000CDE912010FF0DCF802D20020AA490860C0
:102530000021A44800680FF0F6FE08D2AB480168FD
:10254000A04800680FF0B2FCA94908600CE09D4863
:102550000168A2480FF020FE1390A4480168139868
:102560000FF0A4FCA24908609048006811900FF099
:1025700003FC9C4A9C4BCDE912010FF0B1F802D24A
:1025800000209B49086092480168904800680FF05D
:1025900003FE984908608B4801688C4800680FF07A
:1025A000FBFD954908600021934800680FF0C0FDCD
:1025B0001BD2844800680FF0DFFBCDE9100183488F
:1025C00000680FF0D9FB00228C4BCDE90C010FF015
:1025D000C3F8CDE90E01DDE910230FF0BDF8CDE918
:1025E00012010EF0AFFD84490860002184480068A4
:1025F0000FF099FE08D282480168744800680FF015
:10260000CBFD804908601BE07D4800680FF0B4FBFB
:10261000CDE910016D4800680FF0AEFB0022774B4A
:10262000CDE90C010FF098F8CDE90E01DDE910239A
:102630000FF092F8CDE912010EF084FD71490860A7
:1026400000215D4800680FF06EFE08D25A4801680C
:102650005E4800680FF0A0FD6B4908601BE056481B
:1026600000680FF089FBCDE91001584800680FF0B1
:1026700083FB0022614BCDE90C010FF06DF8CDE931
:102680000E01DDE910230FF067F8CDE912010EF01D
:1026900059FD5D4908605D4801684C4800680FF0CD
:1026A0007BFD5B4908605B480168484800680FF0A3
:1026B00073FD594908605648016800680FF06CFDC9
:1026C0000E905048016800680FF066FD0C90494874
:1026D000016800680FF060FD0B900C990FF078FB1B
:1026E0000D900E990FF074FB0F900FF045FBCDE9A4
:1026F00010010EF001FDCDE912010EF023FD474956
:1027000008604548016800680FF046FD0E903E489D
:10271000016800680FF040FD0C90374801680068C0
:102720000FF03AFD0B900C990FF052FB0D900E99A3
:102730000FF04EFB0F900FF01FFBCDE910010EF0D4
:10274000DBFCCDE912010EF0FDFC354908600021EB
:102750001F4800680FF0ECFC6DD21348007864212C
:1027600048431F4951F820000D900FF005FBCDE9BB
:102770001001174800680FF0FFFA00221F4BCDE947
:102780000A010EF0E9FF0A4A0A4BCDE90C010EF0EE
:10279000E3FFCDE90E01DDE9102343E00094D140D1
:1027A0004AD8124DFB21F93FA307001090530010A7
:1027B00048E17A14AE472C40B0080010FB210940D4
:1027C00034070010B4080010C4090010D40700102A
:1027D000D8070010C4070010DC070010000080BFFD
:1027E000A0480010F6285C8FC2353540A4080010C0
:1027F000B8080010E0070010BC0800100000F0BF8F
:10280000D0070010E4070010C0080010C80700102F
:10281000E8070010A8080010C4080010EC0700101A
:10282000C80800100EF07CFDCDE912010EF08AFC04
:10283000FE49086021E0FE48007864214843FD49D4
:1028400051F820000D900FF097FACDE91001FA48E9
:1028500000680FF091FAF94AF94BCDE90C010EF03E
:102860007BFFCDE90E01DDE910230EF059FDCDE926
:1028700012010EF067FCED490860EE480068119007
:102880000FF07AFAEF4AF04BCDE912010EF028FF73
:1028900002D20020E54908600021EC4800680FF0F2
:1028A00047FC28D2E248007864214843E84951F8BF
:1028B00020000D900FF060FACDE91001E3480068A8
:1028C0000FF05AFA0022E34BCDE90A010EF044FF63
:1028D000DA4ADB4BCDE90C010EF03EFFCDE90E01EB
:1028E000DDE910230EF01CFDCDE912010EF02AFCEB
:1028F000D949086021E0CE48007864214843D44992
:1029000051F820000D900FF037FACDE91001CF48B3
:1029100000680FF031FAC94AC94BCDE90C010EF03D
:102920001BFFCDE90E01DDE910230EF0F9FCCDE926
:1029300012010EF007FCC8490860C54800681190F4
:102940000FF01AFABF4AC04BCDE912010EF0C8FED3
:1029500002D20020C0490860B548007800287CD128
:10296000BE480168BE4800680FF032FABC490860F2
:10297000BC480168BC4800680FF02AFABA490860F0
:10298000BA480168BA4800680FF022FAB8490860EE
:10299000B8480168B84800680FF01AFAB6490860EC
:1029A000A5480168B54800680FF012FAB3490860FD
:1029B000B3480168B34800680FF00AFAB1490860EB
:1029C000B1480168B14800680FF002FAAF490860E9
:1029D000AF480168AF4800680FF0FAF9AD490860E8
:1029E000AD480168AD4800680FF0F2F9AB490860E6
:1029F000AB480168AB4800680FF0EAF9A9490860E4
:102A00008A480168A84800680FF0E2F9A649086002
:102A1000A6480168A64800680FF0DAF9A4490860E2
:102A2000A4480168A44800680FF0D2F9A2490860E0
:102A3000A2480168A24800680FF0CAF9A0490860DE
:102A4000A0480168A04800680FF0C2F99E490860DC
:102A50009E4801689E48006800E044E00FF0B8F925
:102A60009B4908609B4801689B4800680FF0B0F9DB
:102A70009949086075480168984800680FF0A8F9FE
:102A80009649086096480168964800680FF0A0F9DA
:102A90009449086094480168944800680FF098F9D8
:102AA0009249086092480168924800680FF090F9D6
:102AB0009049086090480168904800680FF088F9D4
:102AC0008E4908608E4801688E4800680FF080F9D2
:102AD0008C490860604801688B4800680FF078F9FD
:102AE000894908602AE25248007801287ED15B4873
:102AF0000168864800680FF06BF9844908605948FE
:102B00000168834800680FF063F9814908605748FD
:102B10000168804800680FF05BF97E4908605548FD
:102B200001687D4800680FF053F97B49086042480E
:102B300001687A4800680FF04BF9784908605048FE
:102B40000168774800680FF043F9754908604E48FE
:102B50000168744800680FF03BF9724908604C48FE
:102B60000168714800680FF033F96F4908604A48FE
:102B700001686E4800680FF02BF96C4908604848FE
:102B800001686B4800680FF023F96949086027481D
:102B90000168684800680FF01BF9664908604348FF
:102BA0000168654800680FF013F9634908604148FF
:102BB0000168624800680FF00BF9604908603F48FF
:102BC00001685F4800680FF003F95D4908603D48FF
:102BD00001685C4800680FF0FBF85A4908603B4800
:102BE0000168594800680FF0F3F800E0DBE056494F
:102BF000086038480168554800680FF0E9F8534903
:102C0000086012480168524800680FF0E1F8504926
:102C10000860334801684F4800680FF0D9F84D4903
:102C20000860314801684C48006897E0F0070010E0
:102C3000A3070010A0480010D807001048E17A143C
:102C4000AE472C40F6285C8FC2353540B4080010E2
:102C5000905300100000F0BFCC080010C407001013
:102C600000080010C80700100C080010CC07001066
:102C700018080010D00700102408001030080010B9
:102C8000DC0700103C080010E007001048080010A6
:102C9000E407001054080010E80700106008001056
:102CA000EC0700106C08001078080010F407001002
:102CB00084080010F807001090080010A408001005
:102CC000D0080010A8080010D4080010AC080010AC
:102CD000D8080010B0080010DC080010E008001050
:102CE000B8080010E4080010BC080010E808001044
:102CF000C0080010EC080010C4080010F008001014
:102D0000C8080010F4080010F808001004080010AB
:102D1000100800101C0800102808001034080010CB
:102D2000400800104C0800105808001064080010FB
:102D3000700800107C08001088080010940800102B
:102D4000FC08001000090010040900100809001018
:102D50000C09001010090010140900100FF038F8C9
:102D6000FE490860FE480168FE4800680FF030F830
:102D7000FC490860FC480168FC4800680FF028F82E
:102D8000FA490860FA480168FA4800680FF020F82C
:102D9000F8490860F8480168F84800680FF018F82A
:102DA000F6490860CAE0F648007802287ED1F54866
:102DB0000078401CF3490870F3480168F348006844
:102DC0000FF006F8F1490860F1480168F148006821
:102DD0000EF0FEFFEF490860EF480168EF48006819
:102DE0000EF0F6FFED490860ED480168ED48006817
:102DF0000EF0EEFFEB490860EB480168EB48006815
:102E00000EF0E6FFE9490860E9480168E948006812
:102E10000EF0DEFFE7490860E7480168E748006810
:102E20000EF0D6FFE5490860E5480168E54800680E
:102E30000EF0CEFFE3490860E3480168E34800680C
:102E40000EF0C6FFE1490860E1480168E14800680A
:102E50000EF0BEFFDF490860DF480168DF48006808
:102E60000EF0B6FFDD490860DD480168DD48006806
:102E70000EF0AEFFDB490860DB480168DB48006804
:102E80000EF0A6FFD9490860D9480168D948006802
:102E90000EF09EFFD7490860D7480168D748006800
:102EA0000EF096FFD5490860D54800E046E001687D
:102EB000D44800680EF08CFFD2490860D2480168FF
:102EC000D24800680EF084FFD0490860D0480168FD
:102ED000D04800680EF07CFFCE490860CE480168FB
:102EE000CE4800680EF074FFCC490860CC480168F9
:102EF000CC4800680EF06CFFCA4908609848016829
:102F0000C94800680EF064FFC74908609648016828
:102F1000C64800680EF05CFFC44908609448016828
:102F2000C34800680EF054FFC14908609248016828
:102F3000C04800680EF04CFFBE4908609048007819
:102F4000401C8F4908708E4800780328FEF6DCA9E3
:102F50008C4800781E287DD100208A490870B64927
:102F6000B64800680EF0A2FFB54912900FF014F9B0
:102F700013900FF091F8B3490880AF49B248006848
:102F80000EF094FFAE4912900FF006F913900FF077
:102F900083F8AC494880A8497C4800680EF086FF59
:102FA000A74912900FF0F8F813900FF075F8A549A3
:102FB0008880A149A54800680EF078FFA0491290CA
:102FC0000FF0EAF813900FF067F8A14908809A49CA
:102FD000A04800680EF06AFF994912900FF0DCF8E3
:102FE00013900FF059F89A49488093498148006836
:102FF0000EF05CFF924912900FF0CEF813900FF094
:103000004BF8934988808C49934800680EF04EFF36
:103010008B4912900FF0C0F813900FF03DF88949DA
:10302000C88085498D4800680EF040FF84491290A1
:103030000FF0B2F813900FF02FF8824908817E4903
:10304000544800680EF032FF7D4912900FF0A4F84A
:10305000139000E0FDE30FF01FF87A4948817649AC
:103060007F4800680EF022FF754912900FF094F827
:1030700013900FF011F87649C8806F4979480068BD
:103080000EF014FF6E4912900FF086F813900FF0B7
:1030900003F86F4908816849584800680EF006FF38
:1030A000674912900FF078F813900EF0F5FF684919
:1030B000488161496C4800680EF0F8FE13900EF0EC
:1030C000EBFF604988815C49684800680EF0EEFEBD
:1030D00013900EF0E1FF5B49C88157492F48006803
:1030E0000EF0E4FE13900EF0D7FF564908825249C5
:1030F0005F4800680EF0DAFE13900EF0CDFF5449E1
:1031000088814D495B4800680EF0D0FE13900EF0A8
:10311000C3FF4F49C88148493A4800680EF0C6FECF
:1031200013900EF0B9FF4A4908824349524800689B
:103130000EF0BCFE424912900FF02EF813900EF0E4
:10314000ABFF404948823C494C4800680EF0AEFE57
:103150003B4912900FF020F8139091E014090010F1
:10316000C008001018090010C40800101C09001045
:10317000C808001020090010CC0800102409001015
:10318000A3070010BE090010C407001008080010B3
:10319000C807001014080010CC0700102008001009
:1031A000D00700102C080010D807001038080010B5
:1031B000DC07001044080010E00700105008001061
:1031C000E40700105C080010E80700106808001011
:1031D000EC07001074080010F007001080080010C1
:1031E000F40700108C080010F80700109808001071
:1031F000A408001028090010A80800102C090010CD
:10320000AC08001030090010B0080010340900109C
:10321000B408001038090010B80800103C0900106C
:10322000BC080010400900104409001048090010B3
:103230004C090010500900100000F0410008001077
:1032400000002041145E001004080010D008001097
:1032500040580010FC0800100C0800101008001066
:10326000D408001000090010180800101C080010F5
:10327000D8080010040900102408001028080010C5
:103280000EF00AFFFD498882FD49FE4800680EF0F5
:103290000DFEFD4912900EF07FFF13900EF0FCFE24
:1032A000F649C882F649F94800680EF0FFFDF64974
:1032B00012900EF071FF13900EF0EEFEF44948826A
:1032C000EF49F44800680EF0F1FDEF4912900EF05E
:1032D00063FF13900EF0E0FEED498882E849EE4866
:1032E00000680EF0E3FDE84912900EF055FF1390D0
:1032F0000EF0D2FEE649C882E149E84800680EF0C7
:10330000D5FDE74912900EF047FF13900EF0C4FE72
:10331000DA49C883DA49E34800680EF0C7FDE0499E
:1033200012900EF039FF13900EF0B6FED3490884C8
:10333000D349DD4800680EF0B9FDD94912900EF06E
:103340002BFF13900EF0A8FECC494884CC49D748F7
:1033500000680EF0ABFDD24912900EF01DFF1390E5
:103360000EF09AFECA49C883C549D14800680EF0DC
:103370009DFDCB4912900EF00FFF13900EF08CFEC6
:10338000C3490884BE49CB4800680EF08FFDC4498C
:1033900012900EF001FF13900EF07EFEBC4948849F
:1033A000B749C54800680EF081FDC44911900EF080
:1033B0007DFDC34912900EF00BFD13900EF06CFED4
:1033C000AE498884AE49BF4800680EF06FFDBB4926
:1033D00011900EF06BFDBA4912900EF0F9FC1390AB
:1033E0000EF05AFEA549C884A549B74800680EF0FA
:1033F0005DFDB24911900EF059FDB14912900EF0E9
:10340000E7FC13900EF048FE9C4908859C49AF48A4
:1034100000680EF04BFDA94912900EF047FD139085
:103420000EF03AFE9A4988849549A94800680EF042
:103430003DFDA24912900EF039FD13900EF02CFEC6
:103440009349C8848E49A34800680EF02FFD9B491C
:1034500012900EF02BFD13900EF01EFE8C49088585
:1034600087499A4800680EF021FD944912900EF0A9
:103470001DFD13900EF010FE974908808049934877
:1034800000680EF013FD8D4912900EF00FFD1390A1
:103490000EF002FE9049488079498C4800680EF091
:1034A00005FD864912900EF001FD13900EF0F4FD1B
:1034B000894988807249894800680EF0F7FC7F4985
:1034C00012900EF0F3FC13900EF0E6FD6B49488568
:1034D0006B49834800680EF0E9FC784912900EF0C1
:1034E000E5FC13900EF0D8FD6449888564497D4859
:1034F00000680EF0DBFC714912900EF0D7FC1390BF
:103500000EF0CAFD5D49C8855D49774800680EF038
:10351000CDFC6A4912900EF0C9FC13900EF0BCFD70
:103520005B4948855649714800680EF0BFFC634905
:1035300012900EF0BBFC13900EF0AEFD544988853E
:103540004F496B4800680EF0B1FC5C4912900EF0D8
:10355000ADFC13900EF0A0FD4D49C8854849654863
:1035600000680EF0A3FC554912900EF09FFC1390DA
:103570000EF092FD4149088641495F4800680EF00F
:1035800095FC4E4912900EF091FC13900EF084FDC4
:103590003A4948863A49594800680EF087FC47493D
:1035A00012900EF083FC13900EF076FD334988865E
:1035B0003349534800680EF079FC404912900EF0F0
:1035C00075FC13900EF068FD314908862C494D4872
:1035D00000680EF06BFC394912900EF067FC1390F6
:1035E0000EF05AFD2A4948862549474800680EF0E2
:1035F0005DFC324912900EF059FC13900EF04CFD18
:10360000234988861E49414800680EF04FFC2B492B
:1036100012900EF04BFC13900EF03EFD1749C88639
:1036200017493B4800680EF041FC244912900EF007
:103630003DFC13900EF030FD1049088710493548C5
:1036400000680EF033FC1D4912900EF02FFC139011
:103650000EF022FD0949488709492F4800680EF0FD
:1036600025FC164912900EF021FC13900EF014FD6B
:103670000749C88602492948006851E0145E0010D5
:103680000000F0412C08001000002041DC08001070
:103690004058001008090010340900103C080010C0
:1036A00000007A444008001044080010E4080010AC
:1036B000100900103C090010480800100000C84222
:1036C00000FF7F474C08001050080010E808001069
:1036D000140900104009001054090010540800108B
:1036E000580800105C080010EC08001018090010C1
:1036F00044090010600800106408001068080010F9
:10370000F00800101C090010480900106C08001097
:103710007008001074080010F40800102009001050
:103720000EF0C4FBFE4912900EF0C0FB13900EF099
:10373000B3FCFC490887FC49FC4800680EF0B6FB66
:10374000F74912900EF0B2FB13900EF0A5FCF5496C
:103750004887F549F64800680EF0A8FBF549129035
:103760000EF01AFD13900EF097FCF3490883EE4912
:10377000F24800680EF09AFBEE4912900EF00CFD34
:1037800013900EF089FCEC494883E749EC48006847
:103790000EF08CFBE74912900EF0FEFC13900EF039
:1037A0007BFCE5498883E049E64800680EF07EFB33
:1037B000E04912900EF0F0FC13900EF06DFCD94928
:1037C0000883D949E04800680EF070FBD94912908F
:1037D0000EF0E2FC13900EF05FFCD2494883D24910
:1037E000DA4800680EF062FBD24912900EF0D4FC69
:1037F00013900EF051FCCB498883CB49D448006824
:103800000EF054FBD34912900EF0C6FC13900EF04C
:1038100043FCC949A1F85800C349CF4800680EF0DD
:1038200045FBCC4912900EF0B7FC13900EF034FC1F
:10383000C149A1F85A00BC49C84800680EF036FBDF
:10384000C44912900EF0A8FC13900EF025FCBA4962
:1038500000E0BFE0A1F85C00B349C14800680EF089
:1038600025FBBC4912900EF097FC13900EF014FC4F
:10387000B149A1F85200AC49BA4800680EF016FBF5
:10388000B44912900EF088FC13900EF005FCAA4982
:10389000A1F85400A449B44800680EF007FBAD49F4
:1038A00012900EF079FC13900EF0F6FBA249A1F8ED
:1038B00056000020AD490860AD490860AD49086078
:1038C000AD490860AD490860AD490860AD49086080
:1038D000AD490860AD490860AD4908609449086089
:1038E0009B4908609E490860AA490860AA49086087
:1038F000AA490860AA490860AA490860AA4908605C
:10390000AA490860AA490860AA490860AA4908604B
:103910008A4908609049086092490860A749086090
:10392000A7490860A7490860A7490860A749086037
:10393000A7490860A7490860A7490860A749086027
:10394000A74908607E490860844908608649086084
:10395000A4490860A4490860A4490860A449086013
:10396000A4490860A4490860A4490860A449086003
:10397000A4490860A449086072490860A349086026
:10398000A3490860A3490860A3490860A3490860E7
:10399000A3490860A3490860A3490860A3490860D7
:1039A000A349086068490860A2490860A249086004
:1039B000A2490860A2490860A2490860A2490860BB
:1039C000A2490860A2490860A249086057490860F6
:1039D0005E490860A048007802287DD19F480078A1
:1039E000022879D000209E490880D9E19C480088AF
:1039F00013309C4931F810009B49994A128821F8EC
:103A00001200974800881B30964931F81010964AEA
:103A100093480088C01C22F81010914800881E307E
:103A2000904931F810108E480088801D22F810103F
:103A30008B480088801C8B4931F81010884800881A
:103A4000093022F810103C488549098830F81110D7
:103A5000834800880C3022F81010374980480088CD
:103A6000801D31F810107E4800880F3022F81010A9
:103A700031497B480088C01C31F810107848008814
:103A8000123022F810102C4975480088093031F89E
:103A9000101073480088153022F81010264970481D
:103AA00000881B3031F810106D480088183022F85B
:103AB00010106E486A49098830F81110684800886B
:103AC0001B3022F810101C4965480088153031F869
:103AD00010106348008800E0CAE11E3022F8101080
:103AE00015495F480088183031F810105C4800888C
:103AF000213022F810101049594800880F3031F851
:103B0000101057480088243022F810100A495448F1
:103B100000880C3031F81010514800882730A7E099
:103B20000000C842405800100000F0414C0900104D
:103B30007808001000007A44145E00107C08001021
:103B400080080010F8080010240900105009001027
:103B50008408001000002041880800108C08001024
:103B60009008001094080010980800100008001039
:103B70000C0800101808001024080010300800106D
:103B80003C0800104808001054080010600800109D
:103B90006C08001004080010100800101C08001029
:103BA0002808001034080010400800104C080010CD
:103BB0005808001064080010700800100808001071
:103BC00014080010200800102C08001038080010FD
:103BD00044080010500800105C080010680800102D
:103BE00074080010D0080010D4080010D808001085
:103BF000DC080010E0080010E4080010E8080010DD
:103C0000EC080010F0080010F4080010FC08001088
:103C10000009001004090010080900100C09001028
:103C20001009001014090010180900101C090010D8
:103C300020090010280900102C090010300900107C
:103C400034090010380900103C0900104009001028
:103C5000440900104809001083070010790700107C
:103C6000A4070010C40900106C3B00105409001098
:103C700022F81010FD49FE480088401D31F8101050
:103C8000FB4800882A3022F81010FA48F8490988C1
:103C900030F81110F64800882D3022F81010F54940
:103CA000F3480088801D31F81010F148008830304A
:103CB00022F81010EF49EE480088C01C31F81010AF
:103CC000EB480088333022F81010EA49E8480088B1
:103CD000093031F81010E6480088363022F810100C
:103CE000E449E34800881B3031F81010E0480088B0
:103CF000393022F81010DF49DD480088123031F8E1
:103D00001010DB4800883C3022F81010D949D84800
:103D10000088153031F81010D54800883F3022F85F
:103D20001010D449D2480088183031F81010D0480B
:103D30000088423022F81010CE49CD4800880F305C
:103D400031F81010CA480088453022F81010C949CF
:103D5000C74800880C3031F81010C548008848303A
:103D600022F81010C44890F87703C34991F87613ED
:103D700040EA0121BE480088401DBC4A32F81000CC
:103D80006422504390FBF1F081B2BC4AB8480088ED
:103D90004D3022F81010B6480088401CB449088005
:103DA000B34800880328FFF621AEB0480088B34925
:103DB000A1F89600AD484088A1F898000020AC49D1
:103DC000088051E0AE48AA49098830F811000F90E8
:103DD0000DF072FCAB4AAC4BCDE910010DF0A0FA2E
:103DE000CDE912010DF024FC81B2A44AA04800885C
:103DF000523022F81010A2499D480088643031F8F2
:103E000010000F900DF058FC9E4A9F4BCDE9100119
:103E10000DF086FACDE912010DF00AFC81B2974A45
:103E200093480088843022F8101095499048008803
:103E3000C83031F810000F900DF03EFC914A924BC3
:103E4000CDE910010DF06CFACDE912010DF0F0FB97
:103E500081B28A4A86480088B63022F81010844819
:103E60000088401C82490880814800883228A9DBEC
:103E70008648007801286ED14FF416707C4908807E
:103E800010E07B480088A0F51670784931F81000E2
:103E90007F49774A128821F8120075480088401C33
:103EA000734908807248008840F27E218842E8DB2E
:103EB0004FF426706E49088043E06D480088B0F5E5
:103EC000267F0BD06A480088A0F50071993905D08B
:103ED00067480088A0F500719A392DD1664890F89E
:103EE0007703654991F8761340EA01200D900DF0B3
:103EF000CCFBCDE910015E480088A0F293205B491D
:103F000031F81000642148430B900DF0BEFB0022F5
:103F1000604BCDE90C010DF01FFCCDE90E01DDE990
:103F200010230DF0FDF9CDE912010DF081FB584988
:103F30004F4A128821F812004D480088401C4C4915
:103F400008804B48008840F29B218842B5DB084638
:103F50004749088011E0BAE045480088A0F29B205C
:103F60004D4931F810004A49414A128821F812009F
:103F70003F480088401C3E4908803D480088B0F515
:103F80002F7FE9DB00203A4908809AE03848008812
:103F900031280FDD36480088642803DB3448008868
:103FA000952807DD32480088C8280EDB3048008895
:103FB000F9280ADC32482E49098830F811003449C2
:103FC0002B4A128821F8120076E02948008832280E
:103FD00003DB27480088632810DD254800889628E1
:103FE00003DB23480088C72808DD21480088FA2819
:103FF0000FDB1F480088B0F5967F0ADA20481C497D
:10400000098830F811002249194A128821F8120053
:1040100052E017480088B0F5967F04DB144800880A
:10402000B0F5AF7F14DB12480088B0F5C87F04DB21
:104030000F480088B0F5E17F0ADB0D480088B0F535
:10404000FA7F2DDB0A48008840F22521884227DCD0
:1040500007480088A0F59670104931F810000C4907
:10406000034A128821F8120026E00000C40900105B
:10407000A407001040580010301800106C3B0010CE
:10408000D626001039B4C876BE9FF63F83070010CD
:10409000283E00100000F03F145E001026220010A1
:1040A000FC480088A0F59670FB4931F81000FB49E8
:1040B000F84A128821F81200F6480088401CF54999
:1040C0000880F4480088B0F5167FFFF65FAF15B0A2
:1040D00000BD70B50120F24908700020F149486127
:1040E000F1494860F1494860F148008830B9480218
:1040F000F04988670120EE49088006E04FF0007023
:10410000EC49C8670020EA490880E6488068EA4927
:10411000088008460088A0F52A41CC397ED10020CD
:10412000E6490860002533E0DE48C06810F0040F5F
:1041300005D06FF00C05DB488068DF494880DF4818
:104140000068401CDD49086008460068DC49884278
:104150000CD1DC48006848B94FF08040D549C861AF
:104160000120D84908600020D4490860D34800687D
:10417000D34988420BD1D3480068012807D1800772
:10418000CC4988610020CF490860CC4908606D1C8B
:1041900015F1100FC8D3C8484088B0F5807F0AD009
:1041A000C548408838B1C4484088102803D0C24868
:1041B00040880128B2D10020C0490860002535E0C0
:1041C000B848C06810F0040F05D06FF00C05B54872
:1041D0008068B9498880B9480068401CB7490860C0
:1041E00008460068B64988420CD1B648006848B90C
:1041F0004FF08040AF49C8610120B24908600020FB
:10420000AE490860AD480068AD4988420DD1AD485F
:104210000068012809D18007A64900E0E7E088612D
:104220000020A8490860A54908606D1C15F1100F11
:10423000C6D30020A1490860002533E09948C06832
:1042400010F0040F05D06FF00C05964880689A496D
:10425000C8809A480068401C984908600846006871
:10426000974988420CD19748006848B94FF0804080
:104270009049C86101209349086000208F49086077
:104280008E4800688E4988420BD18E48006801280C
:1042900007D180078749886100208A4908608749DB
:1042A00008606D1C15F1100FC8D38348C08814280E
:1042B00025D181484088012821D100241AE0824874
:1042C00030F814007749886000250EE07548C06812
:1042D00010F0040F08D06FF00C057248806881B2AE
:1042E000201D754A22F810106D1C15F1100FEDD32A
:1042F000601C84B27048C088401CA042DFDC6E485D
:10430000C088642804D06C48C088B0F5C87F6ED1DE
:1043100000244DE068484088B0F5807F07D16648AA
:1043200080882044694931F810005E498860002087
:1043300062490860002536E05A48C06810F0040F52
:1043400008D06FF00C055748806881B2201D5A4A8A
:1043500022F8101059480068401C58490860084667
:104360000068574988420CD15648006848B94FF058
:1043700080405049C86101205249086000204F49DF
:1043800008604E4800684E4988420BD14D4800688D
:10439000012807D180074749886100204949086002
:1043A000464908606D1C15F1100FC5D3601C84B21E
:1043B0004148C088401CA042ACDC3F484088B0B9AE
:1043C0003D484349086008460068083008603A489C
:1043D000C1883F480068FCF7C3F83749C988091D00
:1043E000354A32F81110884213D100240BE010E056
:1043F000201D314931F8100089882144354A22F8BE
:104400001100601C84B22C48C088A042F0DCFCF78C
:10441000EDF80420234948612F48007820B9012095
:10442000214948602149486070BD70B504460D4679
:1044300032202A4908600846446085602849294A94
:1044400090472748006870BD70B504460D4634207B
:10445000224908600846446085602348C8602049B6
:104460001E48204A90471E48006870BD70B504463B
:104470000D46164633201949086008464460856099
:10448000C6601948086116491448164A90471448EE
:10449000006870BDA407001026220010283E0010FE
:1044A000280700100080084000C0004000000140C4
:1044B000D806001000C009208C0A0010DC0600108D
:1044C00030570500E0060010901F0010CC5A001075
:1044D000E8060010C00D00104807001090150010ED
:1044E000B0150010F11FFF1F0077010070B50446E2
:1044F0000D4616463820FA49086008464460856033
:10450000C660F849F84A9047F648006870BD4FF415
:10451000F021002005E011F8013BDAB2F34B1A5408
:10452000401CB0F5707FF6D370474FF4F0210020A7
:1045300005E011F8013BDAB2ED4B1A54401CB0F51E
:10454000707FF6D370470CB50020009001900CE00E
:10455000E848007D10F0010F03D0E6480078009095
:1045600000E005E00198401C019001980828EFD375
:1045700000BF0CBD0CB50020009001900CE0DE489F
:10458000007D10F0010F03D0DB480078009000E0C0
:1045900005E00198401C019001980828EFD300BF66
:1045A0000CBD2DE9F041D548006840F00800D44921
:1045B000C1F8C4004FF08300CE4908734FF00002E9
:1045C000D04BD14903C90CF0ABFE05460022CF4BBE
:1045D0000CF0A6FE07460DF02BF884B22046E1173A
:1045E00004EB1161090AC34A117111460C700320D2
:1045F00008738020087205200CF06FF80020BD4978
:104600004860FFF7A0FFBDE8F0812DE9F041BB480D
:10461000006840F01000BA49C1F8C4004FF08300B0
:10462000B54908734FF00002B64BB74903C90CF007
:1046300077FE05460022B54B0CF072FE07460CF0E3
:10464000F7FF84B22046E11704EB1161090AAA4A78
:10465000117111460C700320087380200872062027
:104660000CF03BF80020A4494860FFF783FFBDE849
:10467000F081002108E09F4A127D12F0010F02D064
:10468000A3499C4A1078491CB1F5FA7FF3D37047CF
:10469000984B1870002106E0964A127D12F0400FE8
:1046A00000D09C49491C9C4A9142F5D37047002197
:1046B00008E0914A127D12F0010F02D094498E4A0F
:1046C0001078491CB1F5FA7FF3D370478A4B187004
:1046D000002106E0884A127D12F0400F00D08D497B
:1046E000491C8D4A9142F5D370478C48007840F0C0
:1046F00003008A49087000208949486501208949DA
:10470000086070477D48006840F400707C49C1F83B
:10471000C4008548007810F0100F06D08248007859
:1047200040F010007D4981F85C004FF000007B49AB
:1047300008740873087270477848007A40F00100E6
:10474000764908720120087070477448007A20F09A
:1047500001007249087270477048007A40F0020008
:104760006E49087270470FB47049009808706B4921
:10477000019881F824006E490298087067490398EF
:1047800081F82C00069881F83000079888860498F4
:1047900081F838000598888704B070470FB46549E0
:1047A000009808705D49019881F864006249029898
:1047B00008705A49039881F86C00069881F87000D7
:1047C0000798A1F87400049881F878000598A1F87A
:1047D0007C0004B0704710B588B004465348007898
:1047E00000904E4890F824000190514800780290C3
:1047F0005248007803905248007806904748808ECF
:1048000007905048007804904448808F05904FF0FE
:10481000200269462046FBF7DDFC08B010BD3F4A88
:10482000107470472DE9F14F84B004980DF0A4FA8C
:1048300080464FF06632444B0CF08EFF0646002255
:10484000424B0CF06DFD04460022414B0DF0B8F8D0
:10485000CDE902013F4904980DF09EFC80460DF021
:104860008BFA06464FF06632374B0CF075FF044664
:104870000022364B0CF054FDCDE90001DDE90223A6
:104880000CF04EFD82460CF0D3FE33490880002028
:10489000324908706DE031480078DC2803D16E2081
:1048A0002F49088060E02F492C480078401C31F8DF
:1048B000100029490988884256DD2A49274800788E
:1048C000C01C31F810002449098888424CDA254878
:1048D0002249097830F81100214908804DE0000094
:1048E00090150010B0150010F11FFF1F30180010B8
:1048F000F01B001000C0004000000140C4C00F4089
:1049000000C00F4000003040780900100020FC403B
:10491000C0270900808D5B00404B4C0000400240E6
:1049200000C00920080000105C4002402040024006
:104930002840024060400240684002402C40024053
:10494000304002403840024066660A4000FEAF40F8
:104950000000144000E0AB464207001010070010B2
:104960000C0700101C050010F7480078801CF64961
:104970000870F5480078DE288DDB00BFF34800881A
:1049800005B0BDE8F08FB0B5F14DF2482843F249CB
:1049900008600846006840F08070086007E04FF04B
:1049A0007E51EE4800680DF013FAEC490860EA48C1
:1049B000406810F0004F05D1E949E84800680DF063
:1049C00037FBECD1E448006820F0E060E249086081
:1049D000E349E24800680DF02BFB0BD0DE4840684D
:1049E000C0F30B1420460DF08FFB0746FFF71AFFAC
:1049F000DC4908803046B0BDB0B5D54D6D1CD548FA
:104A00002843D54908600846006840F08070086077
:104A100007E04FF07E51D14800680DF0D9F9CF4939
:104A20000860CD48406810F0004F05D1CC49CB4814
:104A300000680DF0FDFAECD1C748006820F0E06096
:104A4000C5490860C649C54800680DF0F1FA0BD0A9
:104A5000C1484068C0F30B1420460DF055FB0746D3
:104A6000FFF7E0FEC04908803046B0BDB0B5B84D94
:104A7000ED1CB8482843B84908600846006840F073
:104A80008070086007E04FF07E51B44800680DF078
:104A90009FF9B2490860B048406810F0004F05D156
:104AA000AF49AE4800680DF0C3FAECD1AA480068DF
:104AB00020F0E060A8490860A949A84800680DF006
:104AC000B7FA0BD0A4484068C0F30B1420460DF091
:104AD0001BFB0746FFF7A6FEA44908803046B0BD81
:104AE000B0B59B4DED1D9B4828439B490860084687
:104AF000006840F08070086007E04FF07E519748F2
:104B000000680DF065F9954908609348406810F019
:104B1000004F05D19249914800680DF089FAECD117
:104B20008D48006820F0E0608B4908608C498B4814
:104B300000680DF07DFA0BD087484068C0F30B1475
:104B400020460DF0E1FA0746FFF76CFE8849088021
:104B50003046B0BD8748006840F480508649C1F8AF
:104B6000C40086487C490860704730B502460B4651
:104B70004FF6FF7011E012F8014B604000210AE08F
:104B800010F0010F04D04AF2010484EA600000E052
:104B900040104C1CE1B20829F2DB1C00A3F1010318
:104BA000E9D130BD06E0002100E0491C744A914281
:104BB000FBD3401E0028F6D170472DE9F0470022B4
:104BC000704B714903C90CF0ABFB064600226F4BDA
:104BD0000CF0EAFA044600224FF080430CF0A0FBF0
:104BE00080460CF025FD6A4908610022654B664944
:104BF00003C90CF095FB064600224FF080430CF0F1
:104C00008FFB04460CF014FD614948612C2088613B
:104C100040200860BDE8F08770B504462C255C4E46
:104C2000B56142F2107000E0401E0028FCD1602502
:104C3000574E356042F2107000E0401E0028FCD153
:104C4000534DAC6042F2107000E0401E0028FCD1D1
:104C500028254F4EB56142F2107000E0401E00283A
:104C6000FCD1C1F307254A4EB56042F2107000E056
:104C7000401E0028FCD12825454EB56142F2107037
:104C800000E0401E0028FCD1CDB2414EB56042F29A
:104C9000107000E0401E0028FCD128253C4EB56174
:104CA00042F2107000E0401E0028FCD12025384E52
:104CB000356042F2107000E0401E0028FCD108254B
:104CC000334EB56142F2107000E0401E0028FCD166
:104CD000651C2F4EB56042F2107000E0401E0028A7
:104CE000FCD128252A4EB56142F2107000E0401E2A
:104CF0000028FCD100BF0425254E356042F210701B
:104D000000E0401E0028FCD12825214EB56142F26A
:104D1000107000E0401E0028FCD11D4DAD6802F867
:104D2000015B5B1E012BE6D82425194EB56142F2CA
:104D3000107000E0401E0028FCD10825144EB5611B
:104D400042F2107027E00000100700100C0700105E
:104D50000100000100012000004003400007001096
:104D6000FFFF7F4B080700100A0700100407001020
:104D700006070010C4C00F4000C00F400F062000FF
:104D8000A0860100006A1841780900100000F03F79
:104D900000C00540401E0028FCD1FE4DAD681570D6
:104DA00042F2107000E0401E0028FCD11025F94EA0
:104DB000356042F2107000E0401E0028FCD128252A
:104DC000F44EB56142F2107000E0401E0028FCD1A4
:104DD00070BD70B504462C25EE4EB561602535607A
:104DE000002000E0401C42F21075A842FAD3E94DC1
:104DF000AC602825E74EB561002000E0401C42F27F
:104E00001075A842FAD3C1F30725E24EB5602825F4
:104E1000B561002000E0401C42F21075A842FAD3B0
:104E2000CDB2DC4EB5602825B561002000E0401C05
:104E300042F21075A842FAD30DE012F8015BD54E8C
:104E4000B5602825B561002000E0401C42F21075D5
:104E5000A842FAD35B1E002BEFD11025CD4E356052
:104E60002825B561002000E0401C42F21075A842E0
:104E7000FAD370BD70B54FF47A70C7490880488086
:104E8000C648C74908604FF470730846194602685F
:104E9000A020FFF7C1FEC14890F8BF03A5287DD030
:104EA0000020BE4908706420487000208870E62009
:104EB000C870002008713220487100208871C871C4
:104EC00008726420487200208872C8720873152026
:104ED000487300208873C8730874642048740020E5
:104EE00088741920C874002008750F2048750020A8
:104EF00088753220C87502200876DA2048760320AB
:104F000088762020C8760020087732204877002055
:104F100088771920C877002081F82000062081F8C2
:104F20002100002081F8220081F8230081F824006C
:104F300081F8250081F8260081F82700282404E064
:104F4000002096490855601C84B2A22CF8DB03208F
:104F5000924981F8A200E82081F8A300032081F89B
:104F6000A400E82081F8A500032081F8A600E8202D
:104F700081F8A700032081F8A800E82081F8A900A3
:104F8000032081F8AA00E82081F8AB00032081F813
:104F9000AC00E82081F8AD00032000E019E281F8C0
:104FA000AE00E82081F8AF00032081F8B000E820CF
:104FB00081F8B100032081F8B200E82081F8B30045
:104FC000032081F8B400E82081F8B500032081F8BF
:104FD000B600E82081F8B700032081F8B800E82087
:104FE00081F8B900072081F8BA00D02081F8BB0011
:104FF000002081F8BC00C82081F8BD00002081F8A5
:10500000BE00962081F8BF00012081F8C0002C204E
:1050100081F8C100002081F8C200322081F8C3006D
:10502000002081F8C4003C2081F8C500072081F8E9
:10503000C600D02081F8C700032081F8C800E8200E
:1050400081F8C900032081F8CA00A22081F8CB00B2
:10505000002081F8CC003C2081F8CD00032081F8AD
:10506000CE00D42081F8CF00012081F8D0009A2012
:1050700081F8D100032081F8D200DE2081F8D3002E
:10508000032081F8D400E82081F8D500032081F8BE
:10509000D600E82081F8D700032081F8D800E82066
:1050A00081F8D900032081F8DA00DC2081F8DB00E8
:1050B000022081F8DC009B2081F8DD00002081F8CF
:1050C000DE000A2081F8DF00012081F8E000F420F2
:1050D00081F8E100002081F8E200082081F8E30077
:1050E000002081F8E400142081F8E500002081F818
:1050F000E600462081F8E700002081F8E80081F80A
:10510000E900012081F8EA005E2081F8EB00002030
:1051100081F8EC0081F8ED0081F8EE00022081F8C2
:10512000EF00002081F8F000142081F8F100272022
:1051300081F8F200102081F8F300272081F8F400B4
:10514000102081F8F500272081F8F600102081F862
:10515000F700272081F8F800102081F8F9002720B7
:1051600081F8FA00102081F8FB00272081F8FC006C
:10517000102081F8FD00272081F8FE00102081F822
:10518000FF00272081F80001102081F8010127206D
:1051900008E0000000C00540901F0010301800100B
:1051A0005C09001081F80201102081F8030127201A
:1051B00081F80401102081F80501272081F80601FB
:1051C000102081F80701272081F80801102081F8BC
:1051D0000901272081F80A01102081F80B012720FE
:1051E00081F80C01122081F80D014FF4877408E05A
:1051F0002720FE4908551021FC4A601C1154A01CB0
:1052000084B2B4F58D7FF3DB4FF48D7423E003207B
:10521000F6490855E821F54A601C11540021633015
:105220001154401C1154032163301154E821401CD7
:105230001154002163301154401C11540321633078
:105240001154E821401C1154002163301154401CBA
:105250001154A01C84B2B4F5BF7FD8DB0020E34911
:1052600081F8720381F8730381F87403052081F8D3
:105270007503002081F87603322081F8770302203D
:1052800081F87803582081F87903072081F87A03A0
:10529000082081F87B03002081F87C03082081F836
:1052A0007D03002081F87E0381F87F0381F880036D
:1052B00081F8810381F88203012081F883030020B3
:1052C00081F884036E2081F88503002081F886032D
:1052D0005A2081F88703002081F88803692081F82B
:1052E0008903002081F88A035F2081F88B03032063
:1052F00081F88C03E82081F88D03002081F88E036B
:1053000081F88F0381F8900381F8910381F892036B
:1053100081F8930381F8940381F89503FF2081F8C5
:10532000960381F89703002081F8980381F8990388
:10533000FF2081F89A0381F89B0381F89C0381F890
:105340009D0381F89E0381F89F03002081F8A0034C
:1053500081F8A10381F8A20381F8A30381F8A403D3
:1053600081F8A50340F2A63404E000209F490855C7
:10537000601C84B240F2BF308442F6DBA5209B491A
:1053800081F8BF034FF400109949C86100241AE066
:105390009648984908600846006800EB4410086089
:1053A0004FF4707000EB4411202392480268A02053
:1053B000FFF70FFD4FF6F07501E0681E85B2002D76
:1053C000FBDC601C84B21E2CE2DB4FF40010884929
:1053D0008861FFF79CF8854890F8BF03A5287DD029
:1053E0000020824908706420487000208870E62000
:1053F000C870002008713220487100208871C8717F
:1054000008726420487200208872C87208731520E0
:10541000487300208873C87308746420487400209F
:1054200088741920C874002008750F204875002062
:1054300088753220C87502200876DA204876032065
:1054400088762020C8760020087732204877002010
:1054500088771920C877002081F82000062081F87D
:105460002100002081F8220081F8230081F8240027
:1054700081F8250081F8260081F82700282404E01F
:1054800000205A490855601C84B2A22CF8DB032086
:10549000564981F8A200E82081F8A300032081F892
:1054A000A400E82081F8A500032081F8A600E820E8
:1054B00081F8A700032081F8A800E82081F8A9005E
:1054C000032081F8AA00E82081F8AB00032081F8CE
:1054D000AC00E82081F8AD00032000E002E281F892
:1054E000AE00E82081F8AF00032081F8B000E8208A
:1054F00081F8B100032081F8B200E82081F8B30000
:10550000032081F8B400E82081F8B500032081F879
:10551000B600E82081F8B700032081F8B800E82041
:1055200081F8B900072081F8BA00D02081F8BB00CB
:10553000002081F8BC00C82081F8BD00002081F85F
:10554000BE00962081F8BF00012081F8C0002C2009
:1055500081F8C100002081F8C200322081F8C30028
:10556000002081F8C4003C2081F8C500072081F8A4
:10557000C600D02081F8C700032081F8C800E820C9
:1055800081F8C900032081F8CA00A22081F8CB006D
:10559000002081F8CC003C2081F8CD00032081F868
:1055A000CE00D42081F8CF00012081F8D0009A20CD
:1055B00081F8D100032081F8D200DE2081F8D300E9
:1055C000032081F8D400E82081F8D500032081F879
:1055D000D600E82081F8D700032081F8D800E82021
:1055E00081F8D900032081F8DA0005E030180010B6
:1055F00000C009205C090010DC2081F8DB000220DB
:1056000081F8DC009B2081F8DD00002081F8DE00BD
:105610000A2081F8DF00012081F8E000F42081F801
:10562000E100002081F8E200082081F8E30000207A
:1056300081F8E400142081F8E500002081F8E600FC
:10564000462081F8E700002081F8E80081F8E900B1
:10565000012081F8EA005E2081F8EB00002081F84B
:10566000EC0081F8ED0081F8EE00022081F8EF00F7
:10567000002081F8F000142081F8F100272081F843
:10568000F200102081F8F300272081F8F4001020A8
:1056900081F8F500272081F8F600102081F8F70046
:1056A000272081F8F800102081F8F900272081F8E0
:1056B000FA00102081F8FB00272081F8FC00102060
:1056C00081F8FD00272081F8FE00102081F8FF00FE
:1056D000272081F80001102081F80101272081F89E
:1056E0000201102081F80301272081F80401102015
:1056F00081F80501272081F80601102081F80701B3
:10570000272081F80801102081F80901272081F85D
:105710000A01102081F80B01272081F80C011220CA
:1057200081F80D014FF4877408E02720FE490855E1
:105730001021FD4A601C1154A01C84B2B4F58D7F69
:10574000F3DB4FF48D7423E00320F7490855E8217B
:10575000F54A601C1154002163301154401C11544F
:10576000032163301154E821401C1154002163309F
:105770001154401C1154032163301154E821401C82
:105780001154002163301154401C1154A01C84B2E8
:10579000B4F5BF7FD8DB0020E34981F8720381F8BC
:1057A000730381F87403052081F87503002081F8E4
:1057B0007603322081F87703022081F8780358209D
:1057C00081F87903072081F87A03082081F87B03A8
:1057D000002081F87C03082081F87D03002081F8F7
:1057E0007E0381F87F0381F8800381F8810381F8CB
:1057F0008203012081F88303002081F884036E2056
:1058000081F88503002081F886035A2081F88703F8
:10581000002081F88803692081F88903002081F83D
:105820008A035F2081F88B03032081F88C03E82032
:1058300081F88D03002081F88E0381F88F0381F8B1
:10584000900381F8910381F8920381F8930381F822
:10585000940381F89503FF2081F8960381F897035C
:10586000002081F8980381F89903FF2081F89A03BA
:1058700081F89B0381F89C0381F89D0381F89E03C6
:1058800081F89F03002081F8A00381F8A10381F82B
:10589000A20381F8A30381F8A40381F8A50340F2D1
:1058A000A63404E00020A0490855601C84B240F2F0
:1058B000BF308442F6DBA5209B4981F8BF031D2140
:1058C0000846FEF7B2FD1D210846FEF7BDFD1D216D
:1058D0000846FEF7AAFD4FF4806293494FF4F0208A
:1058E000FEF7C4FD9048914908604FF47073084674
:1058F00000210268A020FFF78FF98B4890F8BF03C2
:10590000A5282ED08848894908604FF4707308464E
:1059100019460268A020FFF77FF94FF40010844970
:10592000C861002417E08048804908600846006884
:1059300000EB44100860610120237C480268A0202D
:10594000FFF747FA4FF6FF7501E0681E85B2002D9C
:10595000FBDC601C84B21E2CE5DB4FF400107449A4
:105960008861714890F873036F4991F8721340EAA7
:105970000120012801D16F4908706B4890F87F031E
:10598000694991F87E1340EA01206B490880664816
:1059900090F88103644991F8801340EA0120674937
:1059A0000870614890F88203642190FBF1F00228AE
:1059B00002D16349087014E05B4890F882036421C7
:1059C00090FBF1F0012802D15D49087009E05648CA
:1059D00090F88203642190FBF1F010B9002058493F
:1059E000087056480078012830D14FF42F7411E028
:1059F000A4F52F704000401C4B49095CA4F52F70A2
:105A0000494A12F8100041EA00204E4921F81400DA
:105A1000601C84B240F202308442E9DB044611E0AB
:105A2000A4F2B1204000401C3F49095CA4F2B1201F
:105A30003D4A12F8100041EA0020424921F81400C2
:105A4000601C84B240F26A408442E9DB70BD10B54C
:105A50000146012967D1344A5278334B1B7842EA18
:105A60000322394B1A80304A527C2F4B1B7C42EA6E
:105A70000322354B5A802C4AD2782B4B9B7842EA32
:105A80000322314B9A80284AD279274B9B7942EAEC
:105A900003222D4BDA80244A92F82320224B93F8DC
:105AA000223042EA0322284B1A811F4A92F8E5204D
:105AB0001D4B93F8E43042EA0322234B5A81234AD8
:105AC0009278224B5B7842EA03221F4B9A81164A56
:105AD000527F154B1B7F42EA03221B4BDA81124A8D
