:020000040000FA
:1000000090D50720A1010000A5010000A701000074
:10001000B9010000BB010000BD01000000000000AC
:10002000000000000000000000000000BF01000010
:10003000C101000000000000C3010000C501000074
:1000400013F20100BB0F0200C7010000C70100004E
:10005000C701000059500200B3530200C70100005D
:1000600021550200C7010000C7010000C7010000C0
:10007000C7010000C70100006B1C0000C7010000A1
:10008000C701000025ED0100C7010000C701000005
:10009000C7010000C7010000C7010000C701000040
:1000A000C7010000C7010000C7010000C701000030
:1000B000C7010000C7010000C7010000C701000020
:1000C000C701000000F002F800F05AF80AA090E81A
:1000D000000C82448344AAF10107DA4501D100F003
:1000E0004FF8AFF2090EBAE80F0013F0010F18BF76
:1000F000FB1A43F001031847986E0200C86E020015
:100100000A444FF0000C10F8013B13F0070408BF3D
:1001100010F8014B1D1108BF10F8015B641E05D0DB
:1001200010F8016B641E01F8016BF9D113F0080F90
:100130001EBF10F8014BAD1C0C1B09D16D1E58BF22
:1001400001F801CBFAD505E014F8016B01F8016B59
:100150006D1EF9D59142D6D37047000000230024CC
:1001600000250026103A28BF78C1FBD8520728BFC7
:1001700030C148BF0B6070471FB51FBD10B510BD23
:1001800025F046FC1146FFF7F7FF24F0E1FE25F0CD
:1001900064FC03B4FFF7F2FF03BC25F065FC00002C
:1001A0000C480047FEE71EF0040F0CBFEFF3088079
:1001B000EFF3098025F024BBFEE7FEE7FEE7FEE74C
:1001C000FEE7FEE7FEE7FEE703480449024A044B68
:1001D00070470000C500000090C5072090D507209B
:1001E00090C5072053EA020C00F069802DE9F04B1E
:1001F0004FF00006002B1FBFB3FA83F503FA05F496
:1002000024FA05F65E4012BF1643B2FA82F502FAEE
:1002100005F4C5F120051EBF22FA05FC44EA0C04D2
:10022000203556EA044C4FEA144418BF641C4FF0C2
:1002300000084FF00009904271EB030C39D30029FC
:1002400019BFB1FA81F701FA07F6B0FA80F700FAA0
:1002500007F6C7F120071EBF20FA07FC46EA0C0686
:100260002037B6FBF4FCA7EB0507103F07F01F0B88
:10027000CBF120060CFA0BFB2CFA06F644BFB34672
:100280000026202FA4BF5E464FF0000B5BEA060C51
:1002900008BF4FF0010B19EB0B09ABFB027C48EBDD
:1002A0000608C01B06FB02CC0BFB03CC71EB0C0158
:1002B000C1E70B46024641464846BDE8F08B13B500
:1002C0004FF000004FF00001AFF30080BDE81C408C
:1002D0007047002800DA4042704770477047704707
:1002E00010B525F08DFB006810BD10B5044625F053
:1002F00087FB046010BD704700000000FFFFFFFF98
:1003000020208549086000BF8348006810F0400F36
:10031000FAD00320814908604FF001008049C1F8FC
:100320000C014FF00F007F4908604FF00100A1F170
:10033000040108604FF0AA007B4908604FF05500A7
:100340007749C1F88C0000BF7848006810F0806FD2
:10035000FAD00320764908604FF0AA007049C1F82E
:100360008C004FF05500704908604FF02300714930
:1003700008604FF00100A1F1040108604FF0AA00ED
:100380006D4908604FF05500086000BF6B48006879
:1003900010F4806FFAD00320694908604FF0AA007A
:1003A0005F49C1F8AC004FF05500634908604FF059
:1003B00000006449086001F1040108606248634973
:1003C00008604FF000005649C1F8C8010846D0F84F
:1003D0008800C0F30160032868D15D48006810F010
:1003E000030006D0012823D002283FD003285CD187
:1003F00000E000BF4D480068C0F30E0000F10100AE
:100400004FEA40014648D0F88800C0F3074000F1A9
:100410000100B1FBF0F04F4900FB01F03F490968D2
:10042000C9B201F10101B0FBF1F04B4908603CE0B9
:100430003E480068C0F30E0000F101004FEA4001A1
:100440003748D0F88800C0F3074000F10100B1FB45
:10045000F0F0424900FB01F030490968C9B201F1EE
:100460000101B0FBF1F03C4908601EE02F48006834
:10047000C0F30E0000F101004FEA40012848D0F817
:100480008800C0F3074000F10100B1FBF0F04FF429
:10049000FA4100FB01F021490968C9B201F10101EB
:1004A000B0FBF1F02C49086000BF2FE0284800683D
:1004B00010F0030006D0012810D0022819D003281C
:1004C00023D100E000BF15480068C0B200F1010070
:1004D0002049B1FBF0F02049086016E00F480068A1
:1004E000C0B200F101001D49B1FBF0F01A490860EB
:1004F0000BE00A480068C0B200F101004FF4FA4175
:10050000B1FBF0F01449086000BF00BF43F23A00AD
:100510000349086070470000A0C10F4004C10F40AC
:1005200000C00F4084C00F408CC00F4088C00F40F7
:1005300080C00F40A4C00F40ACC00F40A8C00F4007
:10054000A0C00F40A8C10F40DE87E804C4C00F4020
:100550000CC10F4000093D0000C00720001BB70080
:1005600030B502460B464FF6FF7011E032F8024BF1
:10057000604000210AE010F0010F04D04AF20104AB
:1005800084EA600000E040104C1CA1B21029F2DBAC
:100590001C00A3F10105ABB2E8D130BD10B5024695
:1005A000002115E0B1F5887F01D16E200EE0FB4CF3
:1005B0004B1C34F91330934208DBCB1C34F9133055
:1005C000934203DA8B1C34F9130004E08B1C99B2BC
:1005D000B1F5897FE6DB00BF10BD10B5F0480068BB
:1005E00040F40010EF49C1F8C4000846D0F8AC014F
:1005F00020F44060C1F8AC010846D0F8AC0140F4EA
:100600008060E94908604FF00F00E84908604FF04A
:10061000060048600846C06810F0040F02D0084683
:10062000806884B20020E1494861E1490870E149ED
:100630000870E14908800E2025F069F90420DB49A3
:10064000486110BD10B50146DC4AD84B996005E001
:10065000521E1AB90123D74C237004E0D34BDB6838
:1006600013F0040FF4D000BFD24B1B7813B9CF4B5B
:100670009B6898B210BD70B50025D148808842F2C1
:100680000F71884279DACE48808838BB002408E0B0
:10069000201DCB4931F81000CA4921F81400601C14
:1006A000C4B2642CF4DBC8480078012841F0DC8235
:1006B000C448B0F89400C349B1F8921040EA014030
:1006C000C2490860BF48B0F89800BE49B1F896101A
:1006D00040EA0140BE49086001F0C6BAB8488088C7
:1006E000642815D1002410E0201DB54931F8100010
:1006F000B84921F8140004F13600B14931F810006E
:10070000B54921F81400601CC4B2322CECDBE3E7DD
:10071000AB488088C82815D1002410E0201DA849C6
:1007200031F81000AD4921F8140004F13600A44955
:1007300031F81000AA4921F81400601CC4B2322C10
:10074000ECDBC9E79E488088B0F5967F16D100247F
:1007500010E0201D9A4931F81000A24921F8140038
:1007600004F13600964931F810009F4921F8140031
:10077000601CC4B2322CECDBAEE7F8E39048808812
:10078000B0F5C87F15D1002410E0201D8C4931F848
:100790001000964921F8140004F13600884931F818
:1007A0001000934921F81400601CC4B2322CECDB19
:1007B00092E783488088B0F5FA7F15D1002410E0D5
:1007C000201D7F4931F810008A4921F8140004F1F6
:1007D00036007B4931F81000874921F81400601C6D
:1007E000C4B2322CECDB77E775488088B0F5167F11
:1007F00015D1002410E0201D714931F810007F4907
:1008000021F8140004F136006D4931F810007C49DC
:1008100021F81400601CC4B2322CECDB5CE76848A1
:100820008088B0F52F7F15D1002410E0201D644989
:1008300031F81000734921F8140004F136006049C2
:1008400031F81000704921F81400601CC4B2322C39
:10085000ECDB41E75A488088B0F5487F15D1002489
:1008600010E0201D564931F81000684921F81400A5
:1008700004F13600524931F81000654921F814009E
:10088000601CC4B2322CECDB26E74D488088B0F502
:10089000617F15D1002410E0201D494931F8100076
:1008A0005C4921F8140004F13600454931F8100084
:1008B000594921F81400601CC4B2322CECDB0BE760
:1008C0003F488088B0F57A7F15D1002410E0201DC4
:1008D0003B4931F81000514921F8140004F1360069
:1008E000374931F810004E4921F81400601CC4B299
:1008F000322CECDBF0E632488088A0F580614C3980
:1009000015D1002410E0201D2D4931F81000454973
:1009100021F8140004F13600294931F81000424949
:1009200021F81400601CC4B2322CECDBD4E624485D
:100930008088B0F5966F15D1002410E0201D204965
:1009400031F81000394921F8140004F136001C492F
:1009500031F81000364921F81400601CC4B2322C62
:10096000ECDBB9E616488088A0F5A061143965D1A2
:10097000002410E0201D124931F810002D4921F803
:10098000140004F136000E4931F810002A4921F80C
:100990001400601CC4B2322CECDB9DE60AC00720B8
:1009A000C4C00F4000C00F40ACC10F4000800840E1
:1009B000B8C4072009C507200AC507200077010031
:1009C000000000109002001054C307204CC4072000
:1009D00050C407200E0900103A0A001072090010D6
:1009E0009E0A0010D6090010020B0010660B0010C2
:1009F000920C0010CA0B0010F60C00102E0C001008
:100A00005A0D0010BE0D0010EA0E0010220E00104C
:100A10004E0F0010860E0010B20F001016100010BE
:100A2000421100107A100010A6110010DE10001004
:100A30000A1200106E1200109A130010FA488088F3
:100A4000B0F5AF6F15D1002410E0201DF64931F844
:100A50001000F64921F8140004F13600F24931F88B
:100A60001000F34921F81400601CC4B2322CECDBF6
:100A700032E6ED488088A0F5A061DC3915D100246C
:100A800010E0201DE84931F81000EA4921F814006F
:100A900004F13600E44931F81000E74921F8140068
:100AA000601CC4B2322CECDB16E6DF488088B0F55F
:100AB000FA6F7BD1002459E0201DDB4931F810008A
:100AC000DE4921F8140004F10E00D74931F8101066
:100AD000DA48143020F8141004F11800D24931F823
:100AE0001010D648283020F8141004F12200CE4906
:100AF00031F81010D1483C3020F8141004F12C00CB
:100B0000C94931F81010CD48503020F8141004F1C4
:100B10003600C54931F81010C848643020F8141068
:100B200004F14000C04931F81010C448783020F872
:100B3000141004F14A00BC4931F81010BF488C3041
:100B400020F8141004F15400B74931F81010BB48D4
:100B5000A03020F8141004F15E00B34931F81010F1
:100B6000B648B43020F81410601CC4B20A2CA3DBC1
:100B7000002417E004EB8400B04901EB800080887A
:100B800006B23046FFF70AFD00EB80004FF6FF711A
:100B900001EA400004EB8401A84A02EB810188804D
:100BA000601CC4B20A2CE5DB96E5FFE79E4880880E
:100BB000A0F5006134397BD1002459E0201D9A4909
:100BC00031F810009E4921F8140004F10E009649F6
:100BD00031F810109A48143020F8141004F118005D
:100BE000914931F810109648283020F8141004F17B
:100BF00022008D4931F8101091483C3020F8141033
:100C000004F12C00884931F810108D48503020F83C
:100C1000141004F13600844931F81010884864300B
:100C200020F8141004F140007F4931F81010844876
:100C3000783020F8141004F14A007B4931F8101084
:100C40007F488C3020F8141004F15400764931F8B4
:100C500010107B48A03020F8141004F15E00724997
:100C600031F810107648B43020F81410601CC4B26B
:100C70000A2CA3DB002417E004EB8400704901EB8D
:100C80008000008A06B23046FFF788FC00EB800047
:100C90004FF6FF7101EA400004EB8401684A02EB61
:100CA00081010882601CC4B20A2CE5DB002418E034
:100CB0001AE004EB8400624901EB8000408A06B22E
:100CC0003046FFF76BFC00EB80004FF6FF7101EA46
:100CD000400004EB84015A4A02EB81014882601C07
:100CE000C4B20A2CE5DBF7E44F488088A0F5006128
:100CF00098397DD1002435E0201D4B4931F8101082
:100D00004E48C83020F8141004F10E00464931F85E
:100D100010104A48DC3020F8141004F11800424941
:100D200031F810104548F03020F8141004F122007A
:100D30003D4931F81010434820F8141004F12C00FC
:100D4000394931F810103F48143020F8141004F1DC
:100D50003600354931F810103A48283020F8141080
:100D6000601CC4B20A2CC7DB0A2417E004EB840021
:100D7000324901EB8000808806B23046FFF70EFC56
:100D800000EB80004FF6FF7101EA400004EB8401A4
:100D90002A4A02EB81018880601CC4B2102CE5DB7A
:100DA00000240AE004F140001F4931F81010264ADF
:100DB000363822F81010601CC4B2062CF2DB1A4838
:100DC000B0F88C00214908801748B0F88E002049FF
:100DD00008801548B0F890001E4908801248B0F805
:100DE00092001D4908801048B0F894001B4900E0AB
:100DF00040E008800C48B0F89600194908800A487D
:100E0000B0F89800174908800748B0F89A001649CA
:100E100008800548B0F89C00144908800248B0F8E2
:100E20009E001349088057E400000010D212001001
:100E3000FE1300103613001062140010462100103B
:100E4000862200104A220010A05800103AC3072042
:100E50003CC307203EC3072040C3072042C30720EE
:100E600044C3072046C3072048C307204AC30720BE
:100E70004CC30720FE488088A0F50061FC39D2D120
:100E8000002435E0201DFA4931F81010F94820F807
:100E9000141004F10E00F64931F81010F548143022
:100EA00020F8141004F11800F14931F81010F1483D
:100EB000283020F8141004F12200ED4931F8101008
:100EC000EC483C3020F8141004F12C00E84931F8CB
:100ED0001010E848503020F8141004F13600E449AE
:100EE00031F81010E348643020F81410601CC4B2CC
:100EF0000A2CC7DB0A2419E004EB8400DD49C83959
:100F000001EB8000008A06B23046FFF747FB00EB9A
:100F100080004FF6FF7101EA400004EB8401D54ADE
:100F2000C83A02EB81010882601CC4B2102CE3DBDA
:100F30000A2419E004EB8400CE49C83901EB800093
:100F4000408A06B23046FFF729FB00EB80004FF6DF
:100F5000FF7101EA400004EB8401C64AC83A02EB83
:100F600081014882601CC4B2102CE3DB04E4FFE77B
:100F7000BF488088A0F51C5110392CD100240BE00B
:100F8000BD4830F81410201DB94A32F810008142D3
:100F900000D00125601CC4B2642CF1DB012D07D008
:100FA0000020B6490870B6490880B64908701AE4AE
:100FB000B3480088401CB249088008460088B0F554
:100FC0007A7FD3DD0020AD490870AD49088001204B
:100FD000AC49087007E4A6488088A0F51C51743914
:100FE00017D0A3488088A0F51C51D83911D0A0484B
:100FF0008088A0F520513C390BD09D488088A0F511
:101000002051A03905D09A488088A0F52851F83998
:101010007ED197488088A0F51C5174392CD10024CA
:101020000BE0994830F81410201D914A32F8100056
:10103000814200D00125601CC4B2642CF1DB012D7B
:1010400007D00020914908708D4908808D490870AB
:101050001AE48B480088401C8949088008460088AB
:10106000B0F57A7FA3DD00208849087084490880A4
:1010700001208449087007E47D488088A0F51C5150
:10108000D8392DD100240BE0814830F81410201DF0
:10109000774A32F81000814200D00125601CC4B2AA
:1010A000642CF1DB012D08D000207A4908707449C6
:1010B00008800120734908701CE471480088401CB6
:1010C0006F49088008460088B0F57A7FC0DD0020AF
:1010D000704908706A49088001206A49087009E46B
:1010E00063488088A0F520513C392FD100242AE0A4
:1010F000694830F81410201D5D4A32F81000814212
:1011000000D00125012D0AD000206449087000E0BC
:1011100089E05B49088001205A49087011E058486D
:101120000088401C5649088008460088B0F57A7F40
:1011300007DD0020594908705149088001205149B4
:101140000870601CC4B2642CD2DB0AE44848808872
:10115000A0F52051A0392DD1002428E0504830F8C6
:101160001410201D424A32F81000814200D001259F
:10117000012D08D000204B4908704149088001200A
:101180004049087011E03E480088401C3C490880F6
:1011900008460088B0F57A7F07DD002041490870D5
:1011A00037490880012037490870601CC4B2642C9C
:1011B000D4DB5DE42E488088A0F52851F8398ED123
:1011C0002B4840892A49098940EA01403649096883
:1011D000884209D12648C0892549898940EA0140C9
:1011E00032490968884200D00125012D08D000202D
:1011F0002F4908702249088001202249087037E4ED
:101200001F480088401C1E49088008460088B0F529
:101210007A7F9ADD0020264908701949088001204C
:101220001849087024E412488088A0F53851E03944
:101230007BD00F488088A0F53C51443975D00C48CC
:101240008088A0F53C51A8396FD009488088A0F566
:1012500040510C3969D006488088A0F5405170395A
:1012600063D003488088A0F54051D4395DD021E097
:10127000000000104E23001058030010A1C30720E7
:101280000AC5072009C5072076060010A4C3072059
:101290003E070010A5C3072006080010A6C30720BC
:1012A00086040010A7C307204CC4072050C40720A1
:1012B000A3C30720FD488088A0F54451383934D0B5
:1012C000FA488088A0F544519C392ED0F748808890
:1012D000B0F5485F29D0F5488088A0F548516439B9
:1012E00023D0F2488088A0F54851C8391DD0EF4876
:1012F0008088A0F54C512C3917D0EC488088A0F597
:101300004C51903911D0E9488088A0F54C51F439FE
:101310000BD0E6488088A0F55051583905D0E348F5
:101320008088A0F55051BC397ED1E0488088A0F576
:101330003851E03943D100243EE0DD4800780128EF
:1013400027D1DC4830F81410201DD84A32F810009C
:10135000814200D00125012D08D00020D449087019
:10136000D54908800120D549087023E0D24800887B
:10137000401CD149088008460088B0F57A7F19DD05
:101380000020CB490870CC4908800120CB49087067
:1013900010E00020CA490870201DC44931F810002F
:1013A000C44921F814000846B0F8C60010B1012065
:1013B000C4490870601CC4B2642CBEDB93E4BB4813
:1013C0008088A0F53C5144393FD100243AE0BE4822
:1013D0000078012829D1B748C83030F81410201DF2
:1013E000B24A32F81000814200D00125012D08D008
:1013F0000020B5490870B04908800120AF49087045
:101400001EE0AD480088401CAB49088008460088B3
:10141000B0F57A7F14DD0020AB490870A64908803A
:101420000120A64908700BE012E20020A7490870CD
:10143000201D9E4931F810109E48C83020F8141025
:10144000601CC4B2642CC2DB02E298488088A0F51C
:101450003C51A8393CD1002437E09D480078012850
:1014600027D19C4830F81410201D904A32F8100003
:10147000814200D00125012D08D000209449087038
:101480008D49088001208D4908701CE08A48008839
:10149000401C8949088008460088B0F57A7F12DD33
:1014A00000208B4908708449088001208349087016
:1014B00009E0002088490870201D7C4931F810108F
:1014C000844820F81410601CC4B2642CC5DBCBE344
:1014D00076488088A0F540510C393ED1002439E08F
:1014E0007E480078012828D17A48C83030F8141096
:1014F000201D6E4A32F81000814200D00125012DD6
:1015000008D00020754908706B49088001206B499C
:1015100008701DE068480088401C6749088008463C
:101520000088B0F57A7F13DD00206C4908706249AD
:1015300008800120614908700AE0002068490870AD
:10154000201D5A4931F810106248C83020F8141094
:10155000601CC4B2642CC3DB86E354488088A0F5C9
:10156000405170393CD1002437E05E4800780128B2
:1015700027D15D4830F81410201D4C4A32F8100075
:10158000814200D00125012D08D000205549087066
:10159000494908800120494908701CE046480088F4
:1015A000401C4549088008460088B0F57A7F12DD66
:1015B00000204C4908704049088001203F490870CC
:1015C00009E0002049490870201D384931F8101001
:1015D000454820F81410601CC4B2642CC5DB43E3FA
:1015E00032488088A0F54051D4393ED1002439E0FA
:1015F0003F480078012828D13B48C83030F8141003
:10160000201D2A4A32F81000814200D00125012D08
:1016100008D0002036490870274908800120274952
:1016200008701DE024480088401C234908800846B3
:101630000088B0F57A7F13DD00202D4908701E491F
:10164000088001201D4908700AE00020294908701F
:10165000201D164931F810102348C83020F8141006
:10166000601CC4B2642CC3DBFEE210488088A0F585
:101670004451383966D1002461E01F4800780128C0
:1016800051D11E4830F81410201D084A32F81000BD
:10169000814200D00125012D32D00020164908706A
:1016A0000549088001200549087046E00000001047
:1016B000A8C30720C62300100AC5072009C50720B4
:1016C00090C3072054C30720A9C3072091C3072054
:1016D000AAC307205625001092C30720ABC30720DA
:1016E00093C30720ACC30720E626001094C307204D
:1016F000ADC3072095C30720AEC30720762800108E
:10170000FE480088401CFD49088008460088B0F566
:101710007A7F12DD0020FA490870F849088001201C
:10172000F849087009E00020F7490870201DF749C2
:1017300031F81010F64820F81410601CC4B2642C64
:101740009BDB91E2F1488088A0F544519C393ED161
:10175000002439E0EF480078012828D1EC48C8304F
:1017600030F81410201DE94A32F81000814200D0F0
:101770000125012D08D00020E6490870DF490880C6
:101780000120E04908701DE0DC480088401CDB496E
:10179000088008460088B0F57A7F13DD0020DD4917
:1017A0000870D64908800120D64908700AE0002058
:1017B000D9490870201DD54931F81010D448C830D7
:1017C00020F81410601CC4B2642CC3DB4CE2CF4878
:1017D0008088B0F5485F3CD1002437E0CF480078DE
:1017E000012827D1CE4830F81410201DC74A32F8FE
:1017F0001000814200D00125012D08D00020C749EA
:101800000870BE4908800120BE4908701CE0BB4832
:101810000088401CB949088008460088B0F57A7FE6
:1018200012DD0020BD490870B44908800120B54987
:10183000087009E00020BB490870201DB34931F849
:101840001010B74820F81410601CC4B2642CC5DB1B
:101850000AE2AE488088A0F5485164393ED10024A0
:1018600039E0B1480078012828D1AD48C83030F8B7
:101870001410201DA54A32F81000814200D0012525
:10188000012D08D00020A84908709C49088001203B
:101890009C4908701DE099480088401C97490880C1
:1018A00008460088B0F57A7F13DD00209E49087055
:1018B000924908800120934908700AE000209B4962
:1018C0000870201D914931F810109548C83020F853
:1018D0001410601CC4B2642CC3DBC5E18B48808843
:1018E000A0F54851C8393CD1002437E09048007831
:1018F000012827D18F4830F81410201D834A32F870
:101900001000814200D00125012D08D00020884917
:1019100008707A49088001207A4908701CE07748ED
:101920000088401C7549088008460088B0F57A7F19
:1019300012DD00207E49087070490880012071493D
:10194000087009E000207C490870201D6F4931F8BB
:101950001010784820F81410601CC4B2642CC5DB49
:1019600082E16A488088A0F54C512C393ED1002490
:1019700039E072480078012828D16E48C83030F824
:101980001410201D614A32F81000814200D0012558
:10199000012D08D0002069490870584908800120AD
:1019A000584908701DE055480088401C534908807C
:1019B00008460088B0F57A7F13DD00205F49087083
:1019C0004E49088001204F4908700AE000205C4918
:1019D0000870201D4D4931F810105648C83020F8C5
:1019E0001410601CC4B2642CC3DB3DE147488088FE
:1019F000A0F54C5190393CD1002437E05148007893
:101A0000012827D1504830F81410201D3F4A32F8E1
:101A10001000814200D00125012D08D00020494945
:101A20000870364908800120364908701CE03348A8
:101A30000088401C3149088008460088B0F57A7F4C
:101A400012DD00203F4908702C49088001202D49F3
:101A5000087009E000203D490870201D2B4931F82D
:101A60001010394820F81410601CC4B2642CC5DB77
:101A7000FAE026488088A0F54C51F4396DD1002455
:101A800039E033480078012828D12F48C83030F891
:101A90001410201D1D4A32F81000814200D001258B
:101AA000012D08D000202A4908701449088001201F
:101AB000144908701DE011480088401C0F49088037
:101AC00008460088B0F57A7F13DD002020490870B1
:101AD0000A49088001200B4908700AE000201D49CE
:101AE0000870201D094931F810101748C83020F837
:101AF0001410601CC4B2642CC3DBB5E00AC5072017
:101B0000AEC3072009C5072096C3072000000010B8
:101B100076280010AFC3072097C30720B0C3072063
:101B2000062A001098C30720B1C3072099C30720D5
:101B3000B2C30720962B00109AC30720B3C3072017
:101B40009BC30720B4C30720262D00109CC3072089
:101B5000B5C307209DC30720FFE7FE488088A0F596
:101B6000505158393CD1002437E0FB480078012817
:101B700027D1FA4830F81410201DF64A32F8100028
:101B8000814200D00125012D08D00020F2490870C3
:101B9000F34908800120F34908701CE0F0480088F0
:101BA000401CEF49088008460088B0F57A7F12DDB6
:101BB0000020E9490870EA4908800120E9490870D5
:101BC00009E00020E8490870201DE24931F81010B2
:101BD000E24820F81410601CC4B2642CC5DB43E05A
:101BE000DC488088A0F55051BC393DD1002439E053
:101BF000DE480078012828D1D848C83030F81410C1
:101C0000201DD44A32F81000814200D00125012D58
:101C100008D00020D5490870D14908800120D14959
:101C200008701DE0CE480088401CCD490880084659
:101C30000088B0F57A7F13DD0020CC490870C849D0
:101C400008800120C74908700AE00020C8490870D0
:101C5000201DC04931F81010C048C83020F81410B9
:101C6000601CC4B2642CC3DB70BD70B500250024B9
:101C70000320C04908800020BF494861B949087065
:101C8000BE48008838B94FF00070BD49C8670120D0
:101C9000BA49088006E04FF00070B9498867002013
:101CA000B649088008E0B448806882B22846691CBA
:101CB000CDB2A84921F81020AF48C06810F0040F39
:101CC000F1D1A4480088A0F52A41CC3929D1A148F6
:101CD000C088642825D1002410E0AA4931F81400F6
:101CE000FEF7B0FC29466A1CD5B29A4A22F81100C8
:101CF0009C480078012800D102E0641C6C2CECD3D5
:101D000000BF642193480830FEF72AFC9149B1F8DE
:101D1000D010884217D1FEF7AEFC01209A49087016
:101D200011E04FF416540CE09348C06810F0040F13
:101D300002D1641E2CB905E08F48806886B24FF44A
:101D40001654F1E700BF04208B4948618949088097
:101D500070BD30B500258D48007870B901208C49E0
:101D600008708C4908708C4908708C4908708C493F
:101D700008708C49087085490870854800780128EA
:101D800015D10125002408E0874830F814107D4A59
:101D9000E01C22F81010601CC4B2642CF4DB00209C
:101DA000824908704FF480507549C86504E279484B
:101DB0000078012814D10225002408E07C4830F87E
:101DC0001410704AE01C22F81010601CC4B2642C7D
:101DD000F4DB01207549087000036949C865F8E320
:101DE0006D480078012814D10325002408E07148CB
:101DF00030F81410634AE01C22F81010601CC4B2C2
:101E0000642CF4DB022069490870C0025C49C86593
:101E1000DFE362480078012815D10425002408E09A
:101E2000654830F81410574AE01C22F81010601C66
:101E3000C4B2642CF4DB03205C4908704FF480507A
:101E40004F49C865C5E357480078012814D10525D6
:101E5000002408E0594830F814104A4AE01C22F8DF
:101E60001010601CC4B2642CF4DB04204F490870CD
:101E700080024349C865ACE349480078012822D173
:101E800006254F480068000C3E49C8804C48008831
:101E900008814C480068000C48814A4800888881C5
:101EA000042406E00021E01C364A22F81010601CD1
:101EB000C4B2642CF6DB05203C4908704FF4805016
:101EC0002F49C86585E340480078012815D10725CA
:101ED000002408E03D4830F81410E01C294A22F89C
:101EE0001010601CC4B2642CF4DB06202F4908706B
:101EF0004FF480502249C8656BE3354800780128CB
:101F000010D10025002407E04FF6FF71E01C1D4AA8
:101F100022F81010601CC4B2642CF5DB06202349A3
:101F2000087056E32B48007801285AD10825002470
:101F300009E02648C83030F81410E01C114A22F895
:101F40001010601CC4B2642CF3DB07201749087022
:101F500042E0000000000010B6C30720B62E0010BB
:101F60000AC5072009C507209EC30720B7C307205D
:101F70009FC307205CC307200080084008C00720DB
:101F800000C00920F0000010B8C40720E6C20720F6
:101F9000A1C30720A4C30720A5C30720A6C3072009
:101FA000A3C30720A7C307205803001008C50720B4
:101FB000760600103E070010060800108604001088
:101FC0004CC4072050C40720A8C30720C623001014
:101FD00090C30720A9C307204FF48050F849C86573
:101FE000F7E2F8480078012810D10025002407E026
:101FF0004FF6FF71E01CF44A22F81010601CC4B2C6
:10200000642CF5DB0720F1490870E2E2F048007823
:10201000012814D10925002408E0EE4830F81410F6
:10202000E01CE94A22F81010601CC4B2642CF4DBF6
:102030000820E64908704002E149C865C9E2E6485F
:102040000078012810D10025002407E04FF6FF7129
:10205000E01CDD4A22F81010601CC4B2642CF5DBD1
:102060000820DA490870B4E2DC480078012816D16B
:102070000A25002409E0D748C83030F81410E01CC5
:10208000D14A22F81010601CC4B2642CF3DB092082
:10209000CE4908704FF48050C949C86599E2D048CC
:1020A0000078012810D10025002407E04FF6FF71C9
:1020B000E01CC54A22F81010601CC4B2642CF5DB89
:1020C0000920C249087084E2C6480078012815D169
:1020D0000B25002408E0C44830F81410E01CBA4A6C
:1020E00022F81010601CC4B2642CF4DB0A20B7493B
:1020F00008704FF48050B249C8656AE2BB48007866
:10210000012810D10025002407E04FF6FF71E01CE4
:10211000AD4A22F81010601CC4B2642CF5DB0A2012
:10212000AA49087055E2B2480078012816D10C255A
:10213000002409E0AC48C83030F81410E01CA24A72
:1021400022F81010601CC4B2642CF3DB0B209F49F2
:1021500008704FF480509A49C8653AE2A548007863
:10216000012810D10025002407E04FF6FF71E01C84
:10217000954A22F81010601CC4B2642CF5DB0B20C9
:102180009249087025E29C480078012815D10D2558
:10219000002408E0994830F81410E01C8A4A22F81C
:1021A0001010601CC4B2642CF4DB0C20874908704A
:1021B0004FF480508249C8650BE2914800780128AD
:1021C00010D10025002407E04FF6FF71E01C7E4A85
:1021D00022F81010601CC4B2642CF5DB0C207B4983
:1021E0000870F6E187480078012816D10E250024F2
:1021F00009E08248C83030F81410E01C724A22F816
:102200001010601CC4B2642CF3DB0D206F49087001
:102210004FF480506A49C865DBE17B4800780128AB
:1022200010D10025002407E04FF6FF71E01C664A3C
:1022300022F81010601CC4B2642CF5DB0D20634939
:102240000870C6E171480078012815D10F250024D7
:1022500008E06F4830F81410E01C5B4A22F81010B8
:10226000601CC4B2642CF4DB0E20584908704FF493
:1022700080505349C865ACE166480078012810D108
:102280000025002407E04FF6FF71E01C4E4A22F8BB
:102290001010601CC4B2642CF5DB0E204B49087092
:1022A00097E15D480078012816D11025002409E047
:1022B0005748C83030F81410E01C434A22F8101078
:1022C000601CC4B2642CF3DB0F20404908704FF44B
:1022D00080503B49C8657CE150480078012810D106
:1022E0000025002407E04FF6FF71E01C364A22F873
:1022F0001010601CC4B2642CF5DB0F203349087049
:1023000067E147480078012814D11125002408E02E
:10231000444830F81410E01C2B4A22F81010601CBE
:10232000C4B2642CF4DB1020284908700002244950
:10233000C8654EE13C480078012810D100250024F2
:1023400007E04FF6FF71E01C1F4A22F81010601CD6
:10235000C4B2642CF5DB10201C49087039E1334805
:102360000078012816D11225002409E02D48C83034
:1023700030F81410E01C144A22F81010601CC4B28B
:10238000642CF3DB1120114908704FF480500C4984
:10239000C8651EE12648007801284BD1002500249D
:1023A00007E04FF6FF71E01C074A22F81010601C8E
:1023B000C4B2642CF5DB11200449087009E1000067
:1023C00000C0092091C30720F000001008C50720B5
:1023D000AAC307205625001092C30720ABC30720CD
:1023E00093C30720ACC30720E626001094C3072040
:1023F000ADC3072095C30720AEC307207628001081
:1024000096C30720AFC3072097C30720B0C3072098
:10241000062A001098C30720B1C3072099C30720DC
:10242000B2C30720962B00109AC30720B3C307201E
:102430009BC30720FE480078012815D113250024EE
:1024400008E0FC4830F81410E01CFB4A22F8101099
:10245000601CC4B2642CF4DB1220F84908704FF4FD
:102460008050F749C865B4E0F6480078012810D1DB
:102470000025002407E04FF6FF71E01CEE4A22F829
:102480001010601CC4B2642CF5DB1220EB490870FC
:102490009FE0ED480078012816D11425002409E0BA
:1024A000E448C83030F81410E01CE34A22F8101059
:1024B000601CC4B2642CF3DB1320E04908704FF4B5
:1024C0008050DF49C86584E0E0480078012810D1D9
:1024D0000025002407E04FF6FF71E01CD64A22F8E1
:1024E0001010601CC4B2642CF5DB1320D3490870B3
:1024F0006FE0D7480078012815D11525002408E0A1
:10250000D44830F81410E01CCB4A22F81010601C9C
:10251000C4B2642CF4DB1420C84908704FF4805016
:10252000C749C86555E0CC480078012810D100257E
:10253000002407E04FF6FF71E01CBF4A22F810109C
:10254000601CC4B2642CF5DB1420BC49087040E068
:10255000C2480078012816D11625002409E0BD489C
:10256000C83030F81410E01CB34A22F81010601C78
:10257000C4B2642CF3DB1520B04908704FF48050CE
:10258000AF49C86525E0B6480078012810D100257C
:10259000002407E04FF6FF71E01CA74A22F8101054
:1025A000601CC4B2642CF5DB1520A449087010E04F
:1025B00000254FF48050A2498865002407E04FF6BB
:1025C000FF71E01C9C4A22F81010601CC4B2642CFD
:1025D000F5DB64219848801DFDF7C2FF9649A1F8FC
:1025E000CE00284630BD70B504460D4632209D49C8
:1025F00008600846446085609B499C4A90479A4819
:10260000006870BD70B504460D46342095490860D9
:102610000846446085609648C86093499148934A4B
:1026200090479148006870BD70B504460D46164647
:1026300033208C490860084644608560C6608C4839
:10264000086189498748894A90478748006870BD72
:1026500070B504460D461646382082490860084683
:1026600044608560C6608049804A90477E48006823
:1026700070BD0CB50020009001900CE07D48007DFD
:1026800010F0010F03D07B480078009000E005E0D7
:102690000198401C019001980828EFD300BF0CBDA1
:1026A0000CB50020009001900CE07348007D10F004
:1026B000010F03D070480078009000E005E0019819
:1026C000401C019001980828EFD300BF0CBD0CB549
:1026D0000020009001900CE06848007D10F0010F90
:1026E00003D066480078009000E005E00198401CA7
:1026F000019001980828EFD300BF0CBD2DE9F05FD1
:102700005F48006840F008005E49C1F8C4004FF01F
:102710008300584908735C48008830B101280AD00A
:1027200002280ED0032818D111E04FF4165A0120C8
:102730005649087017E04FF4964A02205349087032
:1027400011E04FF4164A0120504908700BE04FF495
:10275000165A01204D49087005E04FF4165A04201E
:102760004A49087000BF00BF504623F0B1FF8046C1
:1027700089460022464B474903C923F0DDFD064642
:1027800042464B4623F0D8FD044623F05DFF1FFA76
:1027900080FB58464FEAEB710BEB1161090A354A91
:1027A0001171114681F800B0032008738720087268
:1027B00001204860052023F0AAF8FFF75AFF4FF4E4
:1027C00000001F49C861BDE8F09F2DE9F0412C4889
:1027D000006840F010002B49C1F8C4004FF0000021
:1027E000254948604FF0830008734FF00002284BE2
:1027F000284903C923F0A0FD05460022264B23F0FB
:102800009BFD074623F020FF84B22046E11704EB2E
:102810001161090A184A117111460C7003200873DE
:1028200007200872062023F072F80120124935E0D3
:10283000B4C30720262D0010F000001008C50720A3
:1028400000C009209CC30720B5C307209DC30720F3
:10285000B6C30720B62E00109EC30720B7C30720BB
:102860009FC307204830001068300010F11FFF1F81
:102870000077010000C000400000014000C0094096
:10288000C4C00F4000C00F4058C30720ECC307204E
:1028900000003040B0C407200020FC404860FFF733
:1028A000FFFE0420FD49C865BDE8F0812DE9F05F19
:1028B000FB48006840F00070FA49C1F8C4004FF0CE
:1028C0008300F9490873F948008830B101280AD01B
:1028D00002280ED0032818D111E04FF4165A012017
:1028E000F349087017E04FF4964A0220F049087047
:1028F00011E04FF4164A0120ED4908700BE04FF447
:10290000E13A0120EA49087005E04FF4165A042024
:10291000E749087000BF00BF504623F0D9FE80464B
:1029200089460022E34BE44903C923F005FD06462E
:1029300042464B4623F000FD044623F085FE1FFA75
:1029400080FB58464FEAEB710BEB1161090AD64A3E
:102950001171114681F800B00320087387200872B6
:1029600001204860082022F0D2FFFFF7B0FE4FF0B0
:102970000050CA49C863BDE8F09F002108E0CF4A73
:10298000127D12F0010F02D0CD49CC4A1078491CBB
:10299000B1F5FA7FF3D37047C84B1870002106E0F9
:1029A000C64A127D12F0400F00D0C649491CC64AE3
:1029B0009142F5D37047002108E0C44A127D12F01D
:1029C000010F02D0C14A1078BD49491CB1F5FA7F08
:1029D000F3D37047BD4B1870002106E0BB4A127D4F
:1029E00012F0400F00D0B749491CB74A9142F5D3C5
:1029F0007047002108E0AC4A127D12F0010F02D0AE
:102A0000AF49A94A1078491CB1F5FA7FF3D3704752
:102A1000A54B1870002106E0A34A127D12F0400F6A
:102A200000D0A849491CA84A9142F5D3704730B557
:102A300002464FF6FF7014E0FF2900D915E012F8A6
:102A4000014B604000230AE010F0010F04D04AF26D
:102A5000010484EA600000E040105C1CE3B2082B33
:102A6000F2DB0C00A1F10101E6D100BF30BD70B571
:102A700004462C25964EB56160253560002000E0A7
:102A8000401C42F21075A842FAD3914DAC60282543
:102A90008F4EB561002000E0401C42F21075A84244
:102AA000FAD3C1F307258A4EB5602825B561002009
:102AB00000E0401C42F21075A842FAD3CDB2844E19
:102AC000B5602825B561002000E0401C42F2107579
:102AD000A842FAD30DE012F8015B7D4EB5602825BF
:102AE000B561002000E0401C42F21075A842FAD304
:102AF0005B1E002BEFD11025754E35602825B56182
:102B0000002000E0401C42F21075A842FAD370BDCC
:102B10002DE9F84F80460E46174600206D49486162
:102B2000082F39D9C7F3CF00009007F0070A002417
:102B300016E0B14609EBC4091FFA88FB0BEBC40091
:102B40001FFA80FB08234A465946A020FFF78FFF53
:102B50004FF4002500E06D1E002DFCD1601C84B2F6
:102B600000988442E5DBBAF1000F21DDB14609EBA4
:102B7000C4091FFA88FB0BEBC4001FFA80FB534605
:102B80004A465946A020FFF772FF4FF4002500E0A7
:102B90006D1E002DFCD10BE03B4632464146A02085
:102BA000FFF765FF4FF4002500E06D1E002DFCD1FE
:102BB000042048494861BDE8F88F0146464830F88E
:102BC0001100464A108010460088704770B50546CF
:102BD0000C462846FFF7F1FF414908800988091B88
:102BE00008B2FDF776FB3F4908800846008870BDB3
:102BF0002DE9F043A7B00546002401222146641CBC
:102C000001A8425403222146641C42540722214653
:102C1000641C425482222146641C425400222146F4
:102C2000641C425413222146641C42542A12214639
:102C3000641C42542046611CCCB201A90D5401AE63
:102C4000E11EF01CFFF7F3FE81462046611CCCB26A
:102C500001A901F800904FEA29222046611CCCB25C
:102C600001A90A5400BF04200C498865A04608E069
:102C700037783846FFF7AEFE761CA8F101001FFA40
:102C800080F8B8F1000FF3DC04200449C865012086
:102C9000FFF793FF1449088030E0000000C00920CE
:102CA000C4C00F4000C00F4000C0094058C30720F7
:102CB000ECC3072000003040B0C4072000C0004033
:102CC000C0270900808D5B00404B4C000000014094
:102CD00000000A40008008408EC40720F4C207208C
:102CE000F6C20720F8C20720F2C20720FE4801887A
:102CF0000120FFF76BFF042800DD00E0F6E700BFCE
:102D000027B0BDE8F08370B504462C25F74EB561B9
:102D100042F2107000E0401E0028FCD16025F34E06
:102D2000356042F2107000E0401E0028FCD1EF4DEB
:102D3000AC6042F2107000E0401E0028FCD1282553
:102D4000EA4EB56142F2107000E0401E0028FCD14E
:102D5000C1F30725E54EB56042F2107000E0401E59
:102D60000028FCD12825E14EB56142F2107000E048
:102D7000401E0028FCD1CDB2DC4EB56042F210708E
:102D800000E0401E0028FCD12825D84EB56142F253
:102D9000107000E0401E0028FCD12025D34E356085
:102DA00042F2107000E0401E0028FCD10825CF4EF2
:102DB000B56142F2107000E0401E0028FCD1651C95
:102DC000CA4EB56042F2107000E0401E0028FCD1EF
:102DD0002825C64EB56142F2107000E0401E002862
:102DE000FCD100BF0425C14E356042F2107000E0F6
:102DF000401E0028FCD12825BC4EB56142F210705F
:102E000000E0401E0028FCD1B84DAD6802F8015B1F
:102E10005B1E012BE6D82425B44EB56142F210703A
:102E200000E0401E0028FCD10825B04EB56142F2FA
:102E3000107000E0401E0028FCD1AC4DAD6815704C
:102E400042F2107000E0401E0028FCD11025A74E71
:102E5000356042F2107000E0401E0028FCD12825A9
:102E6000A24EB56142F2107000E0401E0028FCD175
:102E700070BD70B504460D46164633462A462146B7
:102E8000A020FFF740FF70BD00B5B2B098480088A1
:102E900000128DF80000964800788DF801009548E2
:102EA000008800128DF80200924800788DF8030027
:102EB0009148007800128DF804008F4800788DF852
:102EC00005008E48008800128DF806008B480078B7
:102ED0008DF807008A48008800128DF8080088489D
:102EE00000788DF809008648408800128DF80A00A5
:102EF000834880788DF80B008148808800128DF817
:102F00000C007F4800798DF80D007D48C0880012C4
:102F10008DF80E007A4880798DF80F007848008986
:102F200000128DF810007648007A8DF8110075486F
:102F3000008800128DF81200724800788DF8130096
:102F40007048408800128DF814006E4880788DF823
:102F500015006C48808800128DF8160069480079C9
:102F60008DF817006748C08800128DF81800654872
:102F700080798DF819006348008900128DF81A00D5
:102F80006048007A8DF81B005F48008800128DF8B9
:102F90001C005D4800788DF81D005B4840880012D9
:102FA0008DF81E00584880788DF81F00564880889C
:102FB00000128DF82000544800798DF82100524805
:102FC000C08800128DF822004F4880798DF82300C8
:102FD0004D48008900128DF824004B48007A8DF886
:102FE00025004A48008800128DF8260047480078DE
:102FF0008DF827004548408800128DF82800434886
:1030000080788DF829004148808800128DF82A00C8
:103010003E4800798DF82B003C48C08800128DF89E
:103020002C003A4880798DF82D003848008900122C
:103030008DF82E003548007A8DF82F00344800882E
:1030400000128DF83000324800788DF83100314898
:10305000008800128DF832002E4800788DF8330079
:103060002D48008800128DF834002B4800788DF828
:1030700035002A48008800128DF83600274800786D
:103080008DF837002648008800128DF83800244853
:1030900000788DF8390000208DF83A008DF83B005B
:1030A0008DF83C008DF83D008DF83E008DF83F0016
:1030B0008DF840008DF841008DF842008DF84300F6
:1030C0008DF844008DF8450016480068000E8DF814
:1030D000460014480068000C8DF84700114800882D
:1030E000000A8DF848001FE0F2C2072000000A40E5
:1030F00056C3072058C30720ACC407205AC3072073
:10310000905B00109A5B0010A45B0010AE5B001097
:10311000E8C40720EAC40720ECC40720EEC4072057
:10312000F0C40720BCC40720FE4800788DF8490091
:10313000FD48008800128DF84A00FB4800788DF8A1
:103140004B00FA48008800128DF84C00F7480078D0
:103150008DF84D00F648008800128DF84E00F448B6
:1031600000788DF84F00F348008800128DF8500069
:10317000F04800788DF85100EF48008800128DF873
:103180005200ED4800788DF85300EC48008800129A
:103190008DF85400E94800788DF85500E84800881B
:1031A00000128DF85600E64800788DF85700E54883
:1031B000008800128DF85800E24800788DF8590018
:1031C000E148008800128DF85A00DF4800788DF839
:1031D0005B00DE48008800128DF85C00DB48007858
:1031E0008DF85D00DA48008800128DF85E00D8483E
:1031F00000788DF85F00D748008800128DF86000D5
:10320000D44800788DF86100D048408800128DF8CD
:103210006200CE4880788DF86300CD484088001267
:103220008DF86400CA4880788DF86500C9484088E8
:1032300000128DF86600C74880788DF86700C34893
:10324000808800128DF86800C04800798DF8690008
:10325000BF48808800128DF86A00BD4800798DF85B
:103260006B00BC48808800128DF86C00B94800796A
:103270008DF86D00B548C08800128DF86E00B34817
:1032800080798DF86F00B248C08800128DF8700008
:10329000AF4880798DF87100AE48C08800128DF873
:1032A0007200AC4880798DF87300A848008900123C
:1032B0008DF87400A548007A8DF87500A44800893F
:1032C00000128DF87600A248007A8DF87700A148A8
:1032D000008900128DF878009E48007A8DF87900F8
:1032E0009A48408900128DF87A009848807A8DF8C3
:1032F0007B009748408900128DF87C009448807AC2
:103300008DF87D009348408900128DF87E00914829
:10331000807A8DF87F008D48808900128DF88000BA
:103320008A48007B8DF881008948808900128DF8D9
:1033300082008748007B8DF88300864880890012D0
:103340008DF884008348007B8DF885007F48C08914
:1033500000128DF886007D48807B8DF887007C48C0
:10336000C08900128DF888007948807B8DF889002B
:103370007848C08900128DF88A007648807B8DF8E5
:103380008B007248008A00128DF88C006F48007C18
:103390008DF88D006E48008A00128DF88E006C4802
:1033A000007C8DF88F006B48008A00128DF8900029
:1033B0006848007C8DF891006748008800128DF8FD
:1033C0009200654800788DF89300644800880012E8
:1033D0008DF89400614800788DF895006048008869
:1033E00000128DF896005E4800788DF897005748D7
:1033F000408A00128DF898005448807C8DF899001E
:103400005348408A00128DF89A005148807C8DF80C
:103410009B005048408A00128DF89C004D48807CEB
:103420008DF89D004948808A00128DF89E0047481B
:10343000007D8DF89F004648808A00128DF8A0001C
:103440004348007D8DF8A1004248808A00128DF823
:10345000A2004048007D8DF8A3003C48C08A0012BD
:103460008DF8A4003948807D8DF8A5003848C08AC1
:1034700000128DF8A6003648807D8DF8A7003548EB
:10348000C08A00128DF8A8003248807D8DF8A9000E
:103490002E48008B00128DF8AA002C48007E8DF873
:1034A000AB002B48008B00128DF8AC002848007E42
:1034B0008DF8AD002748008B00128DF8AE0025482E
:1034C000007E8DF8AF002148408B00128DF8B000CF
:1034D0001E48807E8DF8B1001D48408B00128DF88B
:1034E000B2001B48807E8DF8B3001A48408B001252
:1034F0008DF8B4001748807E8DF8B5001348808B96
:1035000000128DF8B6001148007F8DF8B700104802
:10351000808B00128DF8B8000D48007F8DF8B9003F
:103520000C481FE0BCC40720C0C40720C2C4072049
:10353000C4C40720C6C40720C8C40720CAC40720C3
:10354000CCC40720CEC40720D6C407203870001092
:103550005670001074700010D0C40720D2C4072029
:10356000D4C40720808B00128DF8BA00FE48007F7B
:103570008DF8BB0000208DF8BC008DF8BD008DF8E3
:10358000BE008DF8BF008DF8C0008DF8C1008DF829
:10359000C2008DF8C3008DF8C4008DF8C5008DF809
:1035A000C6008DF8C7004FF08050F049C863C822AC
:1035B00069464FF47A70FFF7ABFA4FF08050EB4951
:1035C000886332B000BD0121E94AA2F8C61000208C
:1035D0000DE0E84931F81010012906D1E449B1F8AD
:1035E000C610491CE24AA2F8C610411CC8B21028F5
:1035F000EFDBDF49B1F8C610102903DD1021DC4AEA
:10360000A2F8C610002007E0002200F10A01DA4B00
:1036100023F81120411CC8B21028F5DBD5490988D0
:10362000022948D1D549098829B90021D24A918275
:10363000D18211838DE0D149098801290BD1CA4972
:103640000988CE4A128891FBF2F1CB4A918200217F
:10365000D18211837DE0C9490988022912D1C2496A
:103660000988C64A128891FBF2F1C34A9182BE4989
:103670000988C24A128891FBF2F1BF4AD182002127
:10368000118366E0B8490988BC4A128891FBF2F1BF
:10369000B94A9182B4490988B84A128891FBF2F17B
:1036A000B54AD182B0490988B44A128891FBF2F137
:1036B000B14A11834DE0AF49098803291ED1AA49B7
:1036C0000988032291FBF2F142F210721144AA4AD6
:1036D0009182A5490988032291FBF2F144F6206208
:1036E0001144A54AD182A0490988032291FBF2F135
:1036F00047F230521144A04A11832AE09D490988BB
:10370000042915D19849098849F6404211449A4A3A
:1037100091829549098849F640421144964AD182DE
:103720009149098849F640421144934A118310E0B7
:1037300090490988052907D18B4909884CF25032F4
:1037400011448D4A918204E000218B4A9182D182FA
:10375000118388494988022948D18849498829B96B
:103760000021854A51839183D1838DE08349498823
:1037700001290BD17C494988804A528891FBF2F19A
:103780007D4A518300219183D1837DE07B49498823
:10379000022912D174494988784A528891FBF2F182
:1037A000754A518370494988744A528891FBF2F1F5
:1037B000714A91830021D18366E06B4949886F4A41
:1037C000528891FBF2F16C4A5183674949886B4AF0
:1037D000528891FBF2F1684A918363494988674AAC
:1037E000528891FBF2F1644AD1834DE061494988E6
:1037F00003291ED15C494988032291FBF2F142F270
:10380000107211445C4A518357494988032291FB45
:10381000F2F144F620621144574A91835249498893
:10382000032291FBF2F147F230521144524AD18304
:103830002AE050494988042915D14B49498849F65D
:10384000404211444C4A51834749498849F6404215
:103850001144494A91834449498849F640421144F8
:10386000454AD18310E043494988052907D13E499B
:1038700049884CF2503211443F4AD18204E0002181
:103880003D4A51839183D1833A498988022948D19D
:103890003A49898829B90021374A11845184918491
:1038A00099E03649898801290BD12F498988334A03
:1038B000928891FBF2F1304A118400215184918465
:1038C00089E02E498988022912D1274989882B4A03
:1038D000928891FBF2F1284A118423498988274A6A
:1038E000928891FBF2F1244A51840021918472E084
:1038F0001D498988214A928891FBF2F11E4A118460
:10390000194989881D4A928891FBF2F11A4A51841B
:1039100015498988194A928891FBF2F1164A9184D7
:1039200059E01449898803292AD10F49898803223B
:1039300091FBF2F142F2107211440F4A11840A49CC
:103940008988032291FBF2F144F6206211440A4A6D
:10395000518405498988032291FBF2F147F23052E4
:103960001144054A918436E07470001000C00920AB
:1039700058030010387000108604001056700010B4
:10398000FB498988042915D1FA49898849F64042BA
:103990001144F94A1184F749898849F64042114493
:1039A000F54A5184F349898849F640421144F24A64
:1039B000918410E0EE498988052907D1ED4989886D
:1039C0004CF250321144EC4A118304E00021EA4ADF
:1039D000118451849184E649C988022948D1E74974
:1039E000C98829B90021E44AD184118551858DE027
:1039F000E249C98801290BD1DE49C988DF4AD2884A
:103A000091FBF2F1DC4AD1840021118551857DE0E2
:103A1000DA49C988022912D1D649C988D74AD28839
:103A200091FBF2F1D44AD184D249C988D34AD288D1
:103A300091FBF2F1D04A11850021518566E0CD4914
:103A4000C988CE4AD28891FBF2F1CB4AD184C949C8
:103A5000C988CA4AD28891FBF2F1C74A1185C54983
:103A6000C988C64AD28891FBF2F1C34A51854DE01C
:103A7000BF49C98803291ED1BE49C988032291FBC9
:103A8000F2F142F210721144BB4AD184B949C9889B
:103A9000032291FBF2F144F620621144B64A1185EB
:103AA000B449C988032291FBF2F147F23052114424
:103AB000B14A51852AE0AE49C988042915D1AD49DA
:103AC000C98849F640421144AB4AD184A949C98802
:103AD00049F640421144A84A1185A649C98849F6C9
:103AE00040421144A44A518510E0A149C9880529E2
:103AF00007D1A049C9884CF2503211449E4A5183E3
:103B000004E000219C4AD184118551859849098996
:103B1000022948D19949098929B90021964A9185F4
:103B2000D18511868DE09549098901290BD19149EB
:103B30000989924A128991FBF2F18F4A91850021FD
:103B4000D18511867DE08D490989022912D18949E3
:103B500009898A4A128991FBF2F1874A9185854940
:103B60000989864A128991FBF2F1834AD1850021A5
:103B7000118666E07F490989804A128991FBF2F13A
:103B80007D4A91857B4909897C4A128991FBF2F132
:103B9000794AD18577490989784A128991FBF2F1EE
:103BA000754A11864DE07249098903291ED1714970
:103BB0000989032291FBF2F142F2107211446E4A1C
:103BC00091856C490989032291FBF2F144F6206248
:103BD0001144694AD18567490989032291FBF2F1B1
:103BE00047F230521144644A11862AE0604909893B
:103BF000042915D15F49098949F6404211445E4ABA
:103C000091855C49098949F6404211445A4AD18557
:103C10005849098949F640421144574A118610E033
:103C200053490989052907D1524909894CF2503273
:103C30001144514A918304E000214F4A9185D18576
:103C400011864B494989022948D14C49498929B9EA
:103C50000021494A51869186D18696E04749498993
:103C600001290BD143494989444A528991FBF2F118
:103C7000414A518600219186D18686E03F49498993
:103C8000022912D13B4949893C4A528991FBF2F100
:103C9000394A518637494989384A528991FBF2F1AC
:103CA000354A91860021D1866FE032494989334AED
:103CB000528991FBF2F1304A51862E4949892F4AA7
:103CC000528991FBF2F12C4A91862A4949892B4A63
:103CD000528991FBF2F1284AD18656E0244949895C
:103CE00003291ED123494989032291FBF2F142F2B3
:103CF00010721144204A51861E494989032291FBC2
:103D0000F2F144F6206211441B4A9186194949890F
:103D1000032291FBF2F147F230521144164AD18648
:103D200033E013494989042915D11249498949F6D3
:103D300040421144104A51860E49498949F6404291
:103D400011440D4A91860B49498949F64042114474
:103D5000094AD18619E006494989052910D1054942
:103D600049894CF250321144034AD1830DE00000DE
:103D70003870001074700010860400105670001027
:103D80000021F84A51869186D186F749898902290E
:103D900048D1F649898929B90021F24A118751870A
:103DA00091878DE0F149898901290BD1F0498989F1
:103DB000EE4A928991FBF2F1EA4A1187002151877C
:103DC00091877DE0E9498989022912D1E8498989E9
:103DD000E64A928991FBF2F1E24A1187E449898926
:103DE000E24A928991FBF2F1DE4A518700219187E4
:103DF00066E0DF498989DD4A928991FBF2F1D94A6F
:103E00001187DB498989D94A928991FBF2F1D54A18
:103E10005187D7498989D54A928991FBF2F1D14AD4
:103E200091874DE0D049898903291ED1D0498989DC
:103E3000032291FBF2F142F210721144C94A118738
:103E4000CB498989032291FBF2F144F620621144A7
:103E5000C44A5187C6498989032291FBF2F147F28E
:103E600030521144BF4A91872AE0BF498989042909
:103E700015D1BF49898949F640421144B94A118791
:103E8000BB49898949F640421144B64A5187B8492D
:103E9000898949F640421144B24A918710E0B249FB
:103EA0008989052907D1B24989894CF250321144D8
:103EB000AC4A118404E00021AA4A118751879187F6
:103EC000A949C989022950D1A849C98939B900210C
:103ED000A44AD187A2F84010A2F8421099E0A34961
:103EE000C98901290DD1A249C989A04AD28991FB6A
:103EF000F2F19C4AD1870021A2F84010A2F84210AA
:103F000087E09A49C989022914D19949C989974AF0
:103F1000D28991FBF2F1934AD1879549C989934A95
:103F2000D28991FBF2F18F4AA2F840100021A2F849
:103F300042106EE08E49C9898C4AD28991FBF2F118
:103F4000884AD1878A49C989884AD28991FBF2F186
:103F5000844AA2F840108649C989844AD28991FBD3
:103F6000F2F1804AA2F8421053E07F49C98903293F
:103F700020D17F49C989032291FBF2F142F21072EC
:103F80001144784AD1877A49C989032291FBF2F119
:103F900044F620621144734AA2F840107449C9895A
:103FA000032291FBF2F147F2305211446D4AA2F81C
:103FB00042102EE06C49C989042917D16C49C9897E
:103FC00049F640421144674AD1876949C98949F68F
:103FD00040421144634AA2F840106549C98949F634
:103FE000404211445F4AA2F8421012E05E49C9897A
:103FF000052907D15E49C9894CF250321144594A0A
:10400000518406E00021574AD187A2F84010A2F857
:1040100042105549098A022954D15449098A41B9A3
:104020000021504AA2F84410A2F84610A2F8481005
:10403000A8E04E49098A01290ED14D49098A4B4A07
:10404000128A91FBF2F1474AA2F844100021A2F82B
:104050004610A2F8481095E04449098A022915D172
:104060004349098A414A128A91FBF2F13D4AA2F87A
:1040700044103F49098A3D4A128A91FBF2F1394ABC
:10408000A2F846100021A2F848107BE03849098ABE
:10409000364A128A91FBF2F1324AA2F844103449AE
:1040A000098A324A128A91FBF2F12E4AA2F846108E
:1040B0002F49098A2D4A128A91FBF2F1294AA2F866
:1040C00048105FE02849098A032921D12849098A33
:1040D000032291FBF2F142F210721144214AA2F83C
:1040E00044102349098A032291FBF2F144F620622D
:1040F00011441C4AA2F846101D49098A032291FB6B
:10410000F2F147F230521144164AA2F8481039E051
:104110001549098A042918D11549098A49F64042E6
:104120001144104AA2F844101149098A49F6404244
:1041300011440C4AA2F846100D49098A49F640423A
:104140001144084AA2F848101CE00749098A0529C9
:1041500010D10749098A4CF250321144014A918426
:1041600010E0000086040010387000105670001037
:10417000747000100021F84AA2F84410A2F846100A
:10418000A2F84810F549498A022954D1F449498ACC
:1041900041B90021F04AA2F84A10A2F84C10A2F846
:1041A0004E109FE0EE49498A01290ED1ED49498A16
:1041B000EB4A528A91FBF2F1E74AA2F84A10002139
:1041C000A2F84C10A2F84E108CE0E549498A022969
:1041D00015D1E449498AE24A528A91FBF2F1DE4A5A
:1041E000A2F84A10DF49498ADD4A528A91FBF2F16E
:1041F000D94AA2F84C100021A2F84E1072E0D94919
:10420000498AD74A528A91FBF2F1D34AA2F84A105E
:10421000D449498AD24A528A91FBF2F1CE4AA2F895
:104220004C10D049498ACE4A528A91FBF2F1CA4ACF
:10423000A2F84E1056E0C949498A032921D1C9493B
:10424000498A032291FBF2F142F210721144C24AF0
:10425000A2F84A10C349498A032291FBF2F144F6BD
:1042600020621144BC4AA2F84C10BE49498A03227C
:1042700091FBF2F147F230521144B74AA2F84E10C6
:1042800030E0B649498A042918D1B649498A49F625
:1042900040421144B04AA2F84A10B249498A49F64C
:1042A00040421144AC4AA2F84C10AE49498A49F642
:1042B00040421144A84AA2F84E1013E0A749498A87
:1042C000052907D1A749498A4CF250321144A24A24
:1042D000D18407E00021A04AA2F84A10A2F84C10AD
:1042E000A2F84E107047A048007A40F001009E49A5
:1042F00008720120087070470FB49C49009808703C
:104300009949019881F824009949029808709649C2
:10431000039881F82C00069881F830000798888669
:10432000049881F838000598888704B07047914850
:10433000006840F400709049C1F8C4008F480078CC
:1043400010F0100F06D08D48007840F0100086491C
:1043500081F85C004FF0000083490874087308720C
:1043600070478148007A20F001007F490872704749
:104370002DE9F04FADF6FC3D824600211E91002450
:1043800000271D911C911991BAF1010F14D17C489D
:1043900090F801B08178CDF8F81BC078CDF8F40B17
:1043A0000DF6F43003C840EA012575484079744998
:1043B000097940EA012913E0724890F801B0817848
:1043C000CDF8F81BC078CDF8F40B0DF6F43003C827
:1043D00040EA01256B4840796A49097940EA012998
:1043E000BBF1670F05F03F850EDCBBF1030F18D062
:1043F000BBF1040F7ED0BBF1060F7CD0BBF1100FD8
:1044000045F08C8702F04BBFBBF1680F05F0768555
:10441000BBF16A0F04F03987BBF16B0FF0D105F0E7
:104420008EBCB5F5805F3FDB41F22D7085423BDCF1
:10443000B9F5EB6F35DC05EB090041F258718842A4
:104440002FDC4FF6FF7000EA4909A5F5805085B2D0
:104450000024002714E0E8194B4931F8100001123C
:10446000E01C0DF60C021154601C84B2E819464998
:1044700011F81010E01C1154601C84B2781C87B233
:104480004F45E8DB414801788DF80C188DF80DB8E0
:1044900009F0FF018DF80E189DF80E08C01C1E9043
:1044A00057E00220199054E0B5F5005F4FDB42F26F
:1044B000090085424BDCA5F5005085B2BAF1010F29
:1044C00006D12F4840792E49097940EA012905E0B3
:1044D0002C4840792B49097940EA0129B9F10A0FA2
:1044E00032DC05EB09000A282EDC4FF6FF7000EAEB
:1044F000490901E04EE0FBE3002714E0E8192449F4
:1045000031F810000112E01C0DF60C021154601C71
:1045100084B2E8191E4911F81010E01C1154601CF7
:1045200084B2781C87B24F45E8DB184801788DF8D3
:104530000C188DF80DB809F0FF018DF80E189DF8D4
:104540000E08C01C1E9004E00220199001E0032018
:10455000199005F0E6BE00008604001038700010C7
:10456000567000107470001000400240204002405D
:1045700028400240C4C00F4000C00F405C400240D1
:104580009C320010323300104449001056C30720FB
:104590008E050010B5F51A6F36DCB9F51A6F30DCF0
:1045A00005EB0900B0F51A6F2BDC4FF6FF7000EA3F
:1045B0004909002714E0E819FA4931F810000112FE
:1045C000E01C0DF60C021154601C84B2E819F54988
:1045D00011F81010E01C1154601C84B2781C87B2D2
:1045E0004F45E8DBF04801788DF80C188DF80DB8D0
:1045F00009F0FF018DF80E1809F1030081B21E9138
:104600002AE202201990FBE7B5F5005F49DB42F290
:10461000D430854245DCBAF1010F06D1E348407938
:10462000E249097940EA012905E0E1484079E04999
:10463000097940EA0129B9F55F7F2FDA05EB090016
:1046400042F27B31884229DC4FF6FF7000EA4909CB
:10465000A5F5005085B200270FE00021E01C0DF603
:104660000C021154601C84B2E819D249095CE01CA8
:104670001154601C84B2781C87B24F45EDDBCA48E8
:1046800001788DF80C188DF80DB809F0FF018DF840
:104690000E189DF80E08C01C1E90B1E7022019905C
:1046A000AEE7B5F5405F49DB43F26400854245DC87
:1046B000BAF1010F06D1BD484079BC49097940EAF9
:1046C000012905E0BA484079B949097940EA012948
:1046D000B9F1640F2FDC05EB090043F26501884254
:1046E00029DC4FF6FF7000EA4909A5F5405085B274
:1046F00000270FE00021E01C0DF60C021154601C95
:1047000084B2E819AC49095CE01C1154601C84B205
:10471000781C87B24F45EDDBA34801788DF80C1863
:104720008DF80DB809F0FF018DF80E189DF80E08F0
:10473000C01C1E9064E70220199061E7B5F5445F44
:104740004ADB43F26410854246DCBAF1010F06D120
:10475000964840799549097940EA012905E094484D
:1047600040799349097940EA0129B9F1640F30DCB5
:1047700005EB090043F2651188422ADC4FF6FF7011
:1047800000EA4909A5F5445085B2002710E0002150
:10479000E01C0DF60C021154601C84B2E919864825
:1047A0006430415CE01C1154601C84B2781C87B2F8
:1047B0004F45ECDB7C4801788DF80C188DF80DB86E
:1047C00009F0FF018DF80E189DF80E08C01C1E9010
:1047D00016E70220199013E7B5F5485F4ADB43F26C
:1047E0006420854246DCBAF1010F06D16F4840795A
:1047F0006E49097940EA012905E06D4840796C4924
:10480000097940EA0129B9F1640F30DC05EB0900B0
:1048100043F2652188422ADC4FF6FF7000EA49091D
:10482000A5F5485085B2002710E00021E01C0DF6E8
:104830000C021154601C84B2E9195F48C830415C15
:10484000E01C1154601C84B2781C87B24F45ECDB2D
:10485000554801788DF80C188DF80DB809F0FF0156
:104860008DF80E189DF80E08C01C1E90C8E6022098
:104870001990C5E6B5F54C5F49DB43F264308542DB
:1048800045DCBAF1010F06D148484079474909791A
:1048900040EA012905E0464840794549097940EA5E
:1048A0000129B9F1640F2FDC05EB090043F26531F2
:1048B000884229DC4FF6FF7000EA4909A5F54C5003
:1048C00085B200270FE00021E01C0DF60C02115408
:1048D000601C84B2E9193948415CE01C1154601C29
:1048E00084B2781C87B24F45EDDB2F4801788DF8F4
:1048F0000C188DF80DB809F0FF018DF80E189DF811
:104900000E08C01C1E90C2E302201990BFE3B5F54B
:10491000505F58DB43F26440854254DCBAF1010F2A
:1049200006D1224840792149097940EA012905E068
:104930001F4840791E49097940EA0129B9F1640FFD
:104940003EDC05EB090043F26541884238DC4FF656
:10495000FF7000EA4909A5F5505085B2002710E024
:104960000021E01C0DF60C021154601C84B2E91900
:1049700012486430415CE01C1154601C84B2781C05
:1049800087B24F45ECDB084801788DF80C188DF89C
:104990000DB809F0FF018DF80E189DF80E08C01C27
:1049A0001E9074E3F434001056C307209C320010AC
:1049B00032330010B868001058690010846A001083
:1049C0000220199063E3B5F5545F49DB43F264506C
:1049D000854245DCBAF1010F06D1F9484079F84922
:1049E000097940EA012905E0F6484079F549097955
:1049F00040EA0129B9F1640F2FDC05EB090043F20D
:104A00006551884229DC4FF6FF7000EA4909A5F597
:104A1000545085B200270FE00021E01C0DF60C0277
:104A20001154601C84B2E919E748415CE01C115440
:104A3000601C84B2781C87B24F45EDDBE3480178F7
:104A40008DF80C188DF80DB809F0FF018DF80E18CF
:104A50009DF80E08C01C1E9019E30220199016E361
:104A6000B5F5585F4ADB43F26460854246DCBAF133
:104A7000010F06D1D2484079D149097940EA01298C
:104A800005E0D0484079CF49097940EA0129B9F1D8
:104A9000640F30DC05EB090043F2656188422ADCD3
:104AA0004FF6FF7000EA4909A5F5585085B2002776
:104AB00010E00021E01C0DF60C021154601C84B2C1
:104AC000E919C1486430415CE01C1154601C84B297
:104AD000781C87B24F45ECDBBC4801788DF80C1888
:104AE0008DF80DB809F0FF018DF80E189DF80E082D
:104AF000C01C1E90CBE202201990C8E2B5F55C5FA5
:104B00004ADB43F26470854246DCBAF1010F06D1FC
:104B1000AB484079AA49097940EA012905E0A9484A
:104B20004079A849097940EA0129B9F1640F30DCDC
:104B300005EB090043F2657188422ADC4FF6FF70ED
:104B400000EA4909A5F55C5085B2002710E0002174
:104B5000E01C0DF60C021154601C84B2E9199A484D
:104B6000C830415CE01C1154601C84B2781C87B2D0
:104B70004F45ECDB954801788DF80C188DF80DB891
:104B800009F0FF018DF80E189DF80E08C01C1E904C
:104B90007DE2022019907AE2B5F5605F49DB43F6C9
:104BA0006400854245DCBAF1010F06D184484079A2
:104BB0008349097940EA012905E082484079814921
:104BC000097940EA0129B9F1640F2FDC05EB0900EE
:104BD00043F66501884229DC4FF6FF7000EA490977
:104BE000A5F5605085B200270FE00021E01C0DF60E
:104BF0000C021154601C84B2E9197548415CE01C38
:104C00001154601C84B2781C87B24F45EDDB6F48AD
:104C100001788DF80C188DF80DB809F0FF018DF8AA
:104C20000E189DF80E08C01C1E9030E2022019904C
:104C30002DE2B5F5645F4ADB43F66410854246DC3D
:104C4000BAF1010F06D15E4840795D49097940EA21
:104C5000012905E05B4840795A49097940EA012970
:104C6000B9F1640F30DC05EB090043F665118842A9
:104C70002ADC4FF6FF7000EA4909A5F5645085B2B9
:104C8000002710E00021E01C0DF60C021154601CFE
:104C900084B2E9194E486430415CE01C1154601C38
:104CA00084B2781C87B24F45ECDB484801788DF818
:104CB0000C188DF80DB809F0FF018DF80E189DF84D
:104CC0000E08C01C1E90E2E102201990DFE1B5F54C
:104CD000685F4BDB43F66420854247DCBAF1010F85
:104CE00007D1374840793649097940EA012906E079
:104CF000CFE1344840793349097940EA0129B9F1D3
:104D0000640F30DC05EB090043F6652188422ADC9C
:104D10004FF6FF7000EA4909A5F5685085B20027F3
:104D200010E00021E01C0DF60C021154601C84B24E
:104D3000E9192748C830415CE01C1154601C84B25A
:104D4000781C87B24F45ECDB204801788DF80C18B1
:104D50008DF80DB809F0FF018DF80E189DF80E08BA
:104D6000C01C1E9093E10220199090E1B5F56C5F94
:104D700054DB43F66430854250DCBAF1010F06D1B2
:104D80000F4840790E49097940EA012905E00D48AC
:104D900040790C49097940EA0129B9F1640F3ADCFC
:104DA00005EB090043F66531884234DC4FF6FF70AD
:104DB00000EA4909A5F56C5085B200271AE0000009
:104DC0009C320010323300104C6B001056C3072089
:104DD000786C00100021E01C0DF60C021154601CD0
:104DE00084B2E919FB48415CE01C1154601C84B298
:104DF000781C87B24F45EDDBF74801788DF80C1829
:104E00008DF80DB809F0FF018DF80E189DF80E0809
:104E1000C01C1E903BE10220199038E1B5F5705F8F
:104E20004ADB43F66440854246DCBAF1010F06D105
:104E3000EA484079E949097940EA012905E0E8486A
:104E40004079E749097940EA0129B9F1640F30DC7A
:104E500005EB090043F6654188422ADC4FF6FF70F6
:104E600000EA4909A5F5705085B2002710E000213D
:104E7000E01C0DF60C021154601C84B2E919D548EF
:104E80006430415CE01C1154601C84B2781C87B211
:104E90004F45ECDBD04801788DF80C188DF80DB833
:104EA00009F0FF018DF80E189DF80E08C01C1E9029
:104EB000EDE002201990EAE0B5F5745F4ADB43F6B5
:104EC0006450854246DCBAF1010F06D1C3484079EF
:104ED000C249097940EA012905E0C1484079C04941
:104EE000097940EA0129B9F1640F30DC05EB0900CA
:104EF00043F6655188422ADC4FF6FF7000EA490903
:104F0000A5F5745085B2002710E00021E01C0DF6D5
:104F10000C021154601C84B2E919AE48C830415CDF
:104F2000E01C1154601C84B2781C87B24F45ECDB46
:104F3000A94801788DF80C188DF80DB809F0FF011B
:104F40008DF80E189DF80E08C01C1E909FE00220E0
:104F500019909CE0B5F5785F49DB43F664608542C3
:104F600045DCBAF1010F06D19C4840799B4909798B
:104F700040EA012905E09A4840799949097940EACF
:104F80000129B9F1640F2FDC05EB090043F66561D7
:104F9000884229DC4FF6FF7000EA4909A5F57850F0
:104FA00085B200270FE00021E01C0DF60C02115421
:104FB000601C84B2E9198B48415CE01C1154601CF0
:104FC00084B2781C87B24F45EDDB834801788DF8B9
:104FD0000C188DF80DB809F0FF018DF80E189DF82A
:104FE0000E08C01C1E9052E0022019904FE0B5F54B
:104FF0007C5F4ADB43F66470854246DCBAF1010F00
:1050000006D1764840797549097940EA012905E0D9
:10501000734840797249097940EA0129B9F1640F6E
:1050200030DC05EB090043F6657188422ADC4FF657
:10503000FF7000EA4909A5F57C5085B2002710E011
:105040000021E01C0DF60C021154601C84B2E91919
:1050500064486430415CE01C1154601C84B2781CCC
:1050600087B24F45ECDB5C4801788DF80C188DF861
:105070000DB809F0FF018DF80E189DF80E08C01C40
:105080001E9004E00220199001E00320199005F021
:1050900048B9B5F5805FC1F2378341F2BF00854260
:1050A00081F23283BAF1010F0CD14C480179CDF86D
:1050B00008184079CDF804080DF6040003C840EA4A
:1050C00001260BE046480179CDF808184079CDF863
:1050D00004080DF6040003C840EA0126B5F5805F18
:1050E00017D1A6F52A40AA3806D101203E490880EA
:1050F0003E49087002F0A0B8A6F5AA40553805D17F
:1051000039490880012039490870F3E704201990D3
:10511000F0E741F20100854205D0A5F58050023844
:1051200001D0401E02D104201990E3E7A5F580507C
:10513000043811D1FFF715F9FFF7F9F82C4846614B
:10514000034610330FCB8DE80F0029480FC8FFF737
:10515000D3F8FFF7C8F8CDE7A5F5805005381AD188
:10516000FFF7FFF8FFF7E3F82149DDF808080861C9
:10517000DDF80408C8600B46D3E90420D3E9061320
:10518000CDE90213CDE9002019480FC8FFF7B4F8A4
:10519000FFF7A9F8AEE7A5F5805006382AD1FFF74A
:1051A000E0F8FFF7C4F81249DDF808088860DDF878
:1051B000040848600B46D3E905211869DB69CDE98D
:1051C0000213CDE900020A480FC8FFF795F8FFF770
:1051D0008AF88FE7A46D001056C307209C32001098
:1051E00032330010D06E001008C40720D4C307204B
:1051F000B85B0010A5F58050073811D1FFF7B1F862
:10520000FFF795F8F8480660034610330FCB8DE89A
:105210000F00F5480FC8FFF76FF8FFF764F869E76C
:10522000A5F58050083835D1F04806800120F049B6
:105230000870F0490870F0490870F0490870F049AA
:1052400008700027002414E0E84830F81400011228
:1052500038467A1C97B20DF5E7621154E34810F80E
:10526000141038467A1C97B20DF5E7621154601C91
:1052700084B2642CE8DB4FF08050E249C863C82256
:105280000DF5E7610020FDF743FC4FF08050DD494C
:1052900088632FE7A5F58050093835D1D34846807B
:1052A0000120D3490870D3490870D3490870D34905
:1052B0000870D34908700027002414E0CB4830F868
:1052C0001400011238467A1C97B20DF5E7621154AA
:1052D000C64810F8141038467A1C97B20DF5E762EC
:1052E0001154601C84B2642CE8DB4FF08050C54937
:1052F000C863C8220DF5E7610020FDF709FC4FF0F7
:105300008050C0498863F5E6A5F580500A3835D14C
:10531000B64886800120B6490870B6490870B6497B
:105320000870B6490870B64908700027002414E0D8
:10533000AE4830F81400011238467A1C97B20DF5C9
:10534000E7621154A94810F8141038467A1C97B235
:105350000DF5E7621154601C84B2642CE8DB4FF059
:105360008050A849C863C8220DF5E7610020FDF709
:10537000CFFB4FF08050A3498863BBE6A5F5805072
:105380000B3835D19948C680012099490870994950
:105390000870994908709949087099490870002760
:1053A000002414E0914830F81400011238467A1CA9
:1053B00097B20DF5E76211548C4810F81410384676
:1053C0007A1C97B20DF5E7621154601C84B2642C0C
:1053D000E8DB4FF080508B49C863C8220DF5E761C8
:1053E0000020FDF795FB4FF080508649886381E6E9
:1053F000A5F580500C3835D17C48068101207C49C8
:1054000008707C4908707C4908707C4908707C49A8
:1054100008700027002414E0744830F814000112CA
:1054200038467A1C97B20DF5E76211546F4810F8B0
:10543000141038467A1C97B20DF5E7621154601CBF
:1054400084B2642CE8DB4FF080506E49C863C822F8
:105450000DF5E7610020FDF75BFB4FF080506949D7
:10546000886347E6A5F580500D3835D15F48468101
:1054700001205F4908705F4908705F4908705F4903
:1054800008705F4908700027002414E0574830F87E
:105490001400011238467A1C97B20DF5E7621154D8
:1054A000524810F8141038467A1C97B20DF5E7628E
:1054B0001154601C84B2642CE8DB4FF080505149D9
:1054C000C863C8220DF5E7610020FDF721FB4FF00E
:1054D00080504C4988630DE6A5F580500E3835D1D3
:1054E0004248868101204249087042490870424979
:1054F000087042490870424908700027002414E0EF
:105500003A4830F81400011238467A1C97B20DF56B
:10551000E7621154354810F8141038467A1C97B2D7
:105520000DF5E7621154601C84B2642CE8DB4FF087
:1055300080503449C863C8220DF5E7610020FDF7AB
:10554000E7FA4FF080502F498863D3E5A5F58050E6
:105550000F3835D12548C6810120254908702549D5
:1055600008702549087025490870254908700027EA
:10557000002414E01D4830F81400011238467A1C4B
:1055800097B20DF5E7621154184810F81410384618
:105590007A1C97B20DF5E7621154601C84B2642C3A
:1055A000E8DB4FF080501749C863C8220DF5E7616A
:1055B0000020FDF7ADFA4FF080501249886399E55D
:1055C000A5F58050103845D10848068201200849C9
:1055D00008700849087008490870084908700849A7
:1055E00008700027002424E0B85B00105803001066
:1055F000A1C30720A4C30720A5C30720A6C3072073
:10560000A7C3072000C00920FA4830F8140001128F
:1056100038467A1C97B20DF5E7621154F54810F838
:10562000141038467A1C97B20DF5E7621154601CCD
:1056300084B2642CE8DB4FF08050EF49C863C82285
:105640000DF5E7610020FDF763FA4FF08050EA495D
:1056500088634FE5A5F58050113835D1E54846827D
:105660000120E6490870E6490870E6490870E649F5
:105670000870E64908700027002414E0DD4830F87F
:105680001400011238467A1C97B20DF5E7621154E6
:10569000D84810F8141038467A1C97B20DF5E76216
:1056A0001154601C84B2642CE8DB4FF08050D24966
:1056B000C863C8220DF5E7610020FDF729FA4FF015
:1056C0008050CD49886315E5A5F58050123835D155
:1056D000C84886820120C9490870C9490870C9496B
:1056E0000870C9490870C94908700027002414E0EF
:1056F000C04830F81400011238467A1C97B20DF5F4
:10570000E7621154BB4810F8141038467A1C97B25F
:105710000DF5E7621154601C84B2642CE8DB4FF095
:105720008050B549C863C8220DF5E7610020FDF738
:10573000EFF94FF08050B0498863DBE4A5F5805065
:10574000133835D1AB48C6820120AC490870AC494A
:105750000870AC490870AC490870AC490870002763
:10576000002414E0A34830F81400011238467A1CD3
:1057700097B20DF5E76211549E4810F814103846A0
:105780007A1C97B20DF5E7621154601C84B2642C48
:10579000E8DB4FF080509849C863C8220DF5E761F7
:1057A0000020FDF7B5F94FF0805093498863A1E4DC
:1057B000A5F58050143835D18E48068301208F49D5
:1057C00008708F4908708F4908708F4908708F4999
:1057D00008700027002414E0864830F814000112F5
:1057E00038467A1C97B20DF5E7621154814810F8DB
:1057F000141038467A1C97B20DF5E7621154601CFC
:1058000084B2642CE8DB4FF080507B49C863C82227
:105810000DF5E7610020FDF77BF94FF080507649E8
:10582000886367E4A5F58050153835D17148468303
:1058300001207249087072490870724908707249F3
:105840000870724908700027002414E0694830F895
:105850001400011238467A1C97B20DF5E762115414
:10586000644810F8141038467A1C97B20DF5E762B8
:105870001154601C84B2642CE8DB4FF080505E4908
:10588000C863C8220DF5E7610020FDF741F94FF02C
:105890008050594988632DE4A5F58050163835D1DC
:1058A0005448868301205549087055490870554968
:1058B000087055490870554908700027002414E005
:1058C0004C4830F81400011238467A1C97B20DF596
:1058D000E7621154474810F8141038467A1C97B202
:1058E0000DF5E7621154601C84B2642CE8DB4FF0C4
:1058F00080504149C863C8220DF5E7610020FDF7DB
:1059000007F94FF080503C4988630EE4A5F58050BC
:10591000173835D13748C6830120384908703849CF
:1059200008703849087038490870384908700027ED
:10593000002414E02F4830F81400011238467A1C75
:1059400097B20DF5E76211542A4810F81410384642
:105950007A1C97B20DF5E7621154601C84B2642C76
:10596000E8DB4FF080502449C863C8220DF5E76199
:105970000020FDF7CDF84FF080501F49886309E4FF
:10598000A5F58050183843D11A48068401201B49D8
:1059900008701B4908701B4908701B4908701B4997
:1059A00008700027002414E0124830F81400011297
:1059B00038467A1C97B20DF5E76211540D4810F87D
:1059C000141038467A1C97B20DF5E7621154601C2A
:1059D00084B2642CE8DB4FF080500749C863C822CA
:1059E0000DF5E7610020FDF793F84FF08050024974
:1059F000886314E45803001000C00920A1C30720E5
:105A0000A4C30720A5C30720A6C30720A7C3072058
:105A1000A5F58050193835D1F94846840120F94957
:105A20000870F9490870F9490870F9490870F9498E
:105A300008700027002414E0F14830F81400011227
:105A400038467A1C97B20DF5E7621154EC4810F80D
:105A5000141038467A1C97B20DF5E7621154601C99
:105A600084B2642CE8DB4FF08050EB49C863C82255
:105A70000DF5E7610020FDF74BF84FF08050E64947
:105A8000886306E4A5F580501A3835D1DC480685D0
:105A90000120DC490870DC490870DC490870DC49E9
:105AA0000870DC4908700027002414E0D44830F85E
:105AB0001400011238467A1C97B20DF5E7621154B2
:105AC000CF4810F8141038467A1C97B20DF5E762EB
:105AD0001154601C84B2642CE8DB4FF08050CE4936
